:100000000C94DB010C9403020C9403020C94030285
:100010000C9403020C9403020C9403020C9403024C
:100020000C9403020C9403020C94E21A0C94511BDE
:100030000C9403020C9403020C9403020C9403022C
:100040000C9403020C94251E0C9403020C940302DE
:100050000C9403020C9403020C9403020C94831D71
:100060000C9403020C94F31D0C94CD1D0C9403020C
:100070000C9403020C9403020C9403020C940302EC
:100080000C9403020C9403020C9403020C940302DC
:100090000C94E11E0C9403020C9403020C940302D2
:1000A0000C9403020C9403020C940302076342367F
:1000B000B79BD8A71A39685618AEBAAB558C1D3CF9
:1000C000B7CC5763BD6DEDFD753EF6177231BF00BD
:1000D0000000803F08000000BE922449123EABAAF7
:1000E000AA2ABECDCCCC4C3E00000080BEABAAAA52
:1000F000AA3E00000000BF000000803F000000009A
:1001000000084178D3BB4387D1133D190E3CC3BDD2
:100110004282AD2B3E68EC8276BED98FE1A93E4C7F
:1001200080EFFFBE01C4FF7F3F0000000000475288
:100130004F554E445F5A45524F004241434B555034
:100140005F4445504C4F5900435249544943414C38
:100150005F4552524F52004C414E44454400444585
:100160005343454E54005245434F564552595F4400
:1001700045504C4F590041504F4745455F434F4E06
:100180004649524D454400424F4F53545F454E44FB
:10019000004C41554E43485F444554454354454403
:1001A00000524541445900524144494F5F4641493C
:1001B0004C00524144494F5F4F4B0053445F46410E
:1001C000494C0053445F4F4B0053454E534F5253DD
:1001D0005F4F4B00504F5745525F4F4E00455252B4
:1001E0004F52004C414E444544005245434F564502
:1001F00052590044455343454E540041504F4745E2
:100200004500434F41535400424F4F535400524511
:1002100041445900494E4954004552524F520044FE
:1002200045504C4F5945440041524D4544005341BF
:100230004645003F0074696D655F6D732C666C699F
:100240006768745F74696D655F6D732C7061636B53
:1002500065745F69642C73746174652C7072657366
:10026000737572655F70612C74656D705F632C616E
:100270006C7469747564655F6D2C6D61785F616C19
:100280007469747564655F6D2C61782C61792C617B
:100290007A2C67782C67792C677A2C7265636F7675
:1002A0006572795F73746174652C6572726F725FC9
:1002B000666C616773003F003F000706050401009C
:1002C000080A0B0C0D0900000000240027002A007A
:1002D0002D00300000000000250028002B002E001B
:1002E00031000404040404030405020202020403AE
:1002F00002020202060606060606040402020204C0
:100300000404080201104080401020408040800812
:100310000204018040201002011080102040402083
:100320000000000200090F0000030401000C00009F
:1003300000000000000000000000000000000008B5
:100340000B0002020200000904000001020200008A
:1003500005240010010524010101042402060524DE
:100360000600010705810310004009040100020A8C
:10037000000000070502024000000705830240005C
:10038000000403090412010002EF02014041233678
:100390008000010102030141726475696E6F204C97
:1003A0004C430041726475696E6F204C656F6E61DD
:1003B00072646F00332011241FBECFEFDAE0DEBF7E
:1003C000CDBF11E0A0E0B1E0EEE9FEE602C005908D
:1003D0000D92AE3CB107D9F728E0AEECB1E001C018
:1003E0001D92A434B207E1F711E0CBEDD1E004C0D7
:1003F0002197FE010E943137CA3DD107C9F70E94FB
:1004000007210C944D370C940000CF93DF93EC013F
:100410002FE534E050E047E0D9012C173D0788F480
:100420002F5F3F4F9C91952788E0592F550F97FFDD
:1004300004C0E92FEE0F5E2F54278150952FA9F7A6
:10044000EBCFDE0184E0CE39D807A0F411968AE222
:100450008883E4E0AE39BE07C8F41196852F90E09A
:1004600024E0959587952A95E1F78B599E4FFC01DD
:1004700080818983F4E0AE39BF0740F4E52FEF7047
:10048000F0E0EB59FE4F80818C931196CD01DF9106
:10049000CF910895FC0180910E04882311F13FB79C
:1004A000F89482E08093E9002091F200822F90E09E
:1004B0001816190614F481E090E0882339F0289882
:1004C00044E640930D044091F1004083222339F02B
:1004D0002091F200211103C02BE62093E8003FBFDA
:1004E00008958FEF9FEF08952FB7F89483E08093DE
:1004F000E9009091E800892F807295FF04C09091E7
:10050000F20080E4891B2FBF0895809105048111BA
:100510000DC082E08093010484E080930204109275
:1005200004041092030481E08093050481E094E0C8
:100530000895CF93DF931F92CDB7DEB76983DC01B7
:10054000ED91FC910280F381E02D41E050E0BE018D
:100550006F5F7F4F09950F90DF91CF91089583E0F2
:100560008093E9008091F200882319F08AE3809358
:10057000E80008950E94740290E00895CF93DF93FD
:100580001F92CDB7DEB7FC018485958597FD08C025
:100590002FEF3FEF358724870F90DF91CF9108959C
:1005A000CE0101960E944A02019719F4898190E0D8
:1005B000F3CF8FEF9FEFF0CF0F931F93CF93DF9386
:1005C0001F92CDB7DEB78C01FC018485958597FF1E
:1005D0000BC0CE0101960E944A02019771F48981F5
:1005E00090E0F80195878487F801848595850F90C0
:1005F000DF91CF911F910F9108958FEF9FEFF1CF72
:10060000FC018485958597FD0BC09FB7F89482E027
:100610008093E9008091F2009FBF90E001960895D9
:100620009FB7F89482E08093E9008091F2009FBF29
:1006300090E008954091FB035091FC032091F90351
:100640003091FA0342175307B4F49091E800957083
:10065000E1F39091E80092FD19C08093F100809140
:10066000FB039091FC0301968F739927892B19F452
:100670008EEF8093E8008091FB039091FC0301963C
:100680009093FC038093FB0381E0089580E008953C
:10069000DF92EF92FF920F931F93CF93DF93D82EA9
:1006A0008A01EB017B01E40EF51ECE15DF0559F042
:1006B000D7FE12C0FE0184910E941A032196811177
:1006C000F4CF0FEF1FEFC801DF91CF911F910F9172
:1006D000FF90EF90DF9008958881EECF0F931F93E6
:1006E000CF93DF931F92CDB7DEB782E0898342E4D8
:1006F00050E06FE373E080E80E9448030E948502A7
:10070000DC0112960D911C910115110589F0D8019B
:10071000ED91FC910280F381E02DBE016F5F7F4F70
:10072000C801099597FD04C0F80100851185ECCF3B
:1007300089810F90DF91CF911F910F9108956150A2
:1007400030F02091F100FC0120830196F8CF289829
:1007500084E680930D040895282F30E0F901E05ECF
:10076000FC4F9491F901EF5FFC4F84912E513D4F66
:10077000F9012491222309F430C09923E9F0915022
:100780009F30D0F4E92FF0E0E853FC4F0C94313760
:10079000F603FA03D703EE03F203DC03DC03DC0306
:1007A000FD03030407040B041104DC0315049091FA
:1007B00080009F7790938000E22FF0E0EE0FFF1F04
:1007C000EC52FD4FA591B4919FB7F894EC91611153
:1007D00032C080958E238C939FBF089590918000A6
:1007E0009F7DE8CF90918000977FE4CF94B59F776D
:1007F00094BDE2CF94B59F7DFBCF909190009F7701
:1008000090939000D9CF909190009F7DF9CF9091D7
:100810009000977FF5CF9091C0009F779093C00094
:10082000CBCF9091C0009F7DF9CF9091C200977F70
:100830009093C200C1CF8E2BCECFCF93DF9390E0A9
:10084000FC01EF5FFC4F24918E519D4FFC01849180
:100850008823D1F090E0880F991FFC01EA53FD4FE7
:10086000A591B491FC01EC52FD4FC591D491611159
:100870000EC09FB7F8948C91E22FE0958E238C9355
:100880002881E223E8839FBFDF91CF9108958FB73E
:10089000F894EC91E22BEC938FBFF6CF3FB7F8942E
:1008A0008091F5039091F603A091F703B091F803BE
:1008B00026B5A89B05C02F3F19F00196A11DB11DBB
:1008C0003FBFBA2FA92F982F8827BC01CD01620FF7
:1008D000711D811D911D42E0660F771F881F991FB2
:1008E0004A95D1F708958F929F92AF92BF92CF927F
:1008F000DF92EF92FF924B015C010E944E046B016C
:100900007C010E944E046C197D098E099F09683E86
:10091000734081059105A8F321E0821A9108A1088E
:10092000B10888EEC80E83E0D81EE11CF11C8114CA
:100930009104A104B10429F7FF90EF90DF90CF90CC
:10094000BF90AF909F908F9008958F929F92AF929B
:10095000BF92CF92DF92EF92FF920F931F93CF93AC
:10096000DF936C017B018A0180911301882309F4D4
:100970005CC080910E04882309F457C08091000464
:1009800080FF05C08091E00082608093E000E80174
:10099000B12C8AEFA82E93E0892E2AE3922E20977D
:1009A00011F4BB20D9F10E94740281110AC0AA94EB
:1009B000AA20D9F161E070E080E090E00E94730429
:1009C000EECF8C171D0611F00CF08C2F9FB7F8940A
:1009D0008092E9002091E80025FD02C09FBFDFCF93
:1009E000282F30E0C21BD30BF701815020F041913A
:1009F0004093F100FACFE20EF31EBB2021F090925B
:100A0000E800B12CEBCF8091E80085FDE7CF909214
:100A1000E800BB24B394209709F3F3CF5D9884E6F4
:100A20008093FF03101611063CF081E090E0F60180
:100A30009383828310E000E0C801DF91CF911F9182
:100A40000F91FF90EF90DF90CF90BF90AF909F906D
:100A50008F9008952FB7F8946091F1037091F2038D
:100A60008091F3039091F4032FBF089508950895A2
:100A7000AF92BF92CF92DF92EF92FF920F931F93AC
:100A8000CF93DF936C017B018B01040F151FEB01EA
:100A90005E01AE18BF08C017D10759F06991D601A1
:100AA000ED91FC910190F081E02DC6010995892B13
:100AB00079F7C501DF91CF911F910F91FF90EF90D2
:100AC000DF90CF90BF90AF900895FC01538D448D7F
:100AD000252F30E0842F90E0821B930B541710F0E9
:100AE000CF96089501970895FC01918D828D9817F6
:100AF00061F0A28DAE0FBF2FB11D5D968C91928DCE
:100B00009F5F9F73928F90E008958FEF9FEF0895FE
:100B1000FC01918D828D981731F0828DE80FF11DC7
:100B2000858D90E008958FEF9FEF0895FC01918DE2
:100B3000228D892F90E0805C9F4F821B91098F73DB
:100B4000992708958FEE94E00E94960521E0892B65
:100B500009F420E0822F089580E090E0892B29F0AD
:100B60000E94A20581110C9400000895FC01A48D3F
:100B7000A80FB92FB11DA35ABF4F2C91848D90E0BF
:100B800001968F739927848FA689B7892C93A089A2
:100B9000B1898C9182748C93938D848D981306C047
:100BA0000288F389E02D80818F7D80830895EF9204
:100BB000FF920F931F93CF93DF93EC0181E0888F17
:100BC0009B8D8C8D981319C0E889F989808185FFE8
:100BD00014C09FB7F894EE89FF896083E889F9898A
:100BE0008081827480839FBF81E090E0DF91CF910C
:100BF0001F910F91FF90EF900895F62E0B8D10E04E
:100C00000F5F1F4F0F731127E02E8C8D8E110CC0BC
:100C10000FB607FCFACFE889F989808185FFF5CF07
:100C2000CE010E94B605F1CFEB8DEC0FFD2FF11D2B
:100C3000E35AFF4FF0829FB7F8940B8FEA89FB8944
:100C400080818062CFCFCF93DF93EC01888D8823A2
:100C5000B9F0AA89BB89E889F9898C9185FD03C01F
:100C6000808186FD0DC00FB607FCF7CF8C9185FF04
:100C7000F2CF808185FFEDCFCE010E94B605E9CF8E
:100C8000DF91CF910895CF93DF93FC01C081D18193
:100C90000E942A05C61BD70B8D2F881F8827881F07
:100CA000DF91CF9108958EBD00000DB407FEFDCFFA
:100CB0008EB50895FC01928183819CBD8DBD81E03C
:100CC000878360E085810E94AC038FEF0C9453060C
:100CD0008FEF0C9453060F931F93CF93DF9300D0A5
:100CE000CDB7DEB78C010E942A05600F711F7A8391
:100CF00069830E9468068F3F71F0CE0101960E94C1
:100D000043068823B1F380E00F900F90DF91CF91DD
:100D10001F910F91089581E0F7CFCF93DF93FC01EE
:100D20002781222349F0EC0161E085810E94AC0318
:100D30008FEF0E9453061F82DF91CF910895DF92BB
:100D4000EF92FF920F931F93CF93DF93EC01162F37
:100D5000022FF32EE42ED52E0E9477078823C1F1AF
:100D60008F81811103C0CE010E945A06111128C043
:100D7000812F80640E9453068D2D0E9453068E2D74
:100D80000E9453068F2D0E945306802F0E94530607
:100D900087E8111101C085E90E9453060E94680688
:100DA0001AE00E946806898787FF02C01150C9F7C0
:100DB000DF91CF911F910F91FF90EF90DF900895F9
:100DC0001C30B1F28CE291E00E946B068111D0CF11
:100DD0008FEFEECF0F931F93CF93DF93EC01890139
:100DE0008A85833039F089E0440F551F661F771FCD
:100DF0008A95D1F79A01AB0168E1CE010E949F0666
:100E0000882339F08DE08E83CE010E948D0680E02C
:100E100025C08EEF0E945306F80181918EBD1E5FA2
:100E2000E017F10741F08191000000000DB407FECA
:100E3000FDCF8EBDF5CF0DB407FEFDCF8FEF0E9425
:100E400053068FEF0E9453060E94680689878F71B0
:100E5000853049F4CE010E948D0681E0DF91CF916B
:100E60001F910F91089581E28E83CE010E948D061D
:100E7000CBCFEF92FF921F93CF93DF93FC012081A2
:100E800011E020FF12C0EC017C01FBE0EF0EF11C31
:100E90004B815C816D817E81970189819A810E945D
:100EA000EA06182F811108C010E0812FDF91CF9141
:100EB0001F91FF90EF900895888181FD04C0888183
:100EC0008E7F8883F2CF4B815C816D817E818F81A3
:100ED0009885A985BA85480F591F6A1F7B1F9701FE
:100EE00089819A810E94EA068111E9CFDDCF1F93A3
:100EF000CF93DF93EC0188858230C9F488E592E0D6
:100F00000E946B06182F882361F08DEF0E94530614
:100F1000CE010E948D061886812FDF91CF911F91FF
:100F200008958FE18E83CE010E948D06F5CF81302A
:100F3000A1F4188620E030E0A9016CE0CE010E9407
:100F40009F06882339F089E08E83CE010E948D06AA
:100F500010E0E2CFCE010E948D0611E0DDCFEF92CE
:100F6000FF920F931F93CF93DF9300D0CDB7DEB7DF
:100F70008C017901FC018285833039F089E0440FCE
:100F8000551F661F771F8A95D1F79A01AB0161E162
:100F9000C8010E949F06882341F08BE0F8018683F8
:100FA000C8010E948D0680E03FC00E942A05645D52
:100FB0007E4F7A8369830E946806F80181878F3F9C
:100FC00069F4CE0101960E9443068823A1F38EE1C5
:100FD000F8018683C8010E948D06E2CF8E3F11F092
:100FE00089E1F6CF8FEF8EBDF701D701A150BE4F3B
:100FF0009FEFEA17FB0749F0000000000DB407FE61
:10100000FDCF8EB59EBD8193F4CF0DB407FEFDCF0D
:101010008EB58C93F80111860E9468060E946806BE
:10102000C8010E948D0681E00F900F90DF91CF9153
:101030001F910F91FF90EF900895CF92DF92EF9262
:10104000FF921F93CF93DF93DC011196ED91FC91FA
:10105000EF2B51F490E080E0DF91CF911F91FF9052
:10106000EF90DF90CF900895122F6A017B01EC0181
:101070008B819C81AD81BE818C159D05AE05BF0520
:1010800061F0CE010E943907882321F312FF0CC0C2
:101090001882CB82DC82ED82FE8213702881122BB3
:1010A0001883CE010B96D8CF9E01255F3F4FB70125
:1010B000A60189819A810E94AF078111E9CFCACF29
:1010C0008F929F92AF92BF92CF92DF92EF92FF9258
:1010D0000F931F93CF939093C5058093C4051092EF
:1010E000C90501E010E020E030E00093CC0510934A
:1010F000CD052093CE053093CF059093E6058093E0
:10110000E5051092E4058FEF9FEFDC018093E70582
:101110009093E805A093E905B093EA05662309F4E6
:101120004BC020E040E050E0BA0184EE95E00E9420
:101130001D08009769F480E0CF911F910F91FF90F7
:10114000EF90DF90CF90BF90AF909F908F900895D9
:10115000FC01E254FE4F2481222369F320812F7782
:1011600051F78A539E4FFC01C080D180E280F3800A
:1011700020E0B701A60184EE95E00E941D08FC0165
:10118000892BC9F280898230B1F6838594858115D7
:10119000924089F695859093C6058FEF890F8093CD
:1011A000C705C0E081E0981769F0CF5FC93041F40E
:1011B00088E08093C805BFCFC12CD12C7601D8CF51
:1011C000880FF1CFC093C80586899789B0E0A0E069
:1011D0008093D0059093D105A093D205B093D30509
:1011E000892B8A2B8B2B61F484A195A1A6A1B7A191
:1011F0008093D0059093D105A093D205B093D305E9
:1012000086859785A7019601280F391F411D511D1D
:10121000DA01C9018093D8059093D905A093DA0526
:10122000B093DB05218932893093CB052093CA0521
:101230004091D0055091D1056091D2057091D305B0
:101240004A015B01880C991CAA1CBB1C880D991DC6
:10125000AA1DBB1D8093E0059093E105A093E205D4
:10126000B093E30505E0220F331F0A95E1F7215003
:101270003E4F232F33272695820F931FA11DB11DAB
:101280008093D4059093D505A093D605B093D70548
:1012900083889488B12CA12C81149104A104B104F9
:1012A00021F480A091A0A2A0B3A0C81AD90AEA0A8A
:1012B000FB0AC80CD91CEA1CFB1C04C0F694E7947A
:1012C000D794C794CA95D2F7D701C6010196A11D3C
:1012D000B11D8093DC059093DD05A093DE05B093EE
:1012E000DF0535EFC3163FE0D306E104F10420F437
:1012F0008CE08093C9051FCF85EFC8168FEFD80605
:10130000E104F10468F480E18093C9054093EB05A2
:101310005093EC056093ED057093EE0581E00CCFE2
:1013200084A595A5A6A5B7A58093E0059093E105B2
:10133000A093E205B093E30580E2E6CF8F929F92FF
:10134000AF92BF92CF92DF92EF92FF920F931F93D3
:10135000423051056105710560F480E01F910F91E5
:10136000FF90EF90DF90CF90BF90AF909F908F90C5
:101370000895FC01C08CD18CE28CF38CC416D50688
:10138000E606F70650F3480159016A01858180326B
:1013900029F584899589A689B78917E07695679597
:1013A000579547951A95D1F7480F591F6A1F7B1F0C
:1013B00023E0CF0180960E941D08009771F2CC0CAB
:1013C000DD1CCC0CDD1CF1E0DF228C0D9D1DFC0131
:1013D00080829182A282B38281E0C0CF803109F005
:1013E000BCCF44895589668977894D0D511D611D92
:1013F000711D23E0CF0180960E941D08009709F41B
:10140000ACCFCC0CDD1CF1E0DF22C80ED91EF601FA
:1014100011830083E1CFCF92DF92EF92FF920F937F
:101420001F93CF93DF93423051056105710550F44E
:101430008FEFDF91CF911F910F91FF90EF90DF9091
:10144000CF900895FC01C08CD18CE28CF38CC41633
:10145000D506E606F70660F389016A01EC0185818D
:10146000803299F584899589A689B789E7E07695D0
:10147000679557954795EA95D1F7480F591F6A1F09
:101480007B1F22E0CE0180960E941D08009781F20A
:10149000CC0CDD1CCC0CDD1CF1E0DF228C0D9D1D85
:1014A000FC0180819181A281B381488D598D6A8D23
:1014B0007B8D481759076A077B0730F1F801808355
:1014C0009183A283B38381E0B4CF803109F0B0CFA0
:1014D00044895589668977894D0D511D611D711D9E
:1014E00022E0CF0180960E941D08009709F4A0CF4A
:1014F000CC0CDD1CF1E0DF22C80ED91EF601808184
:101500009181B0E0A0E0D1CF80E093CF0F931F9303
:10151000CF93DF93FC012081211106C081E0DF9190
:10152000CF911F910F910895EC01828187FF3AC0FE
:1015300044895589668977898681978121E08096DB
:101540000E941D08009729F489818160898380E0C9
:10155000E6CFEC81FD81EF70FF2725E0EE0FFF1F46
:101560002A95E1F7E80FF91F309771F38081853EE6
:1015700059F3888187738387888183FF08C0888DAA
:10158000998DAA8DBB8D848F958FA68FB78F8C8DEB
:101590009D8DAE8DBF8D938F828FB58BA48B8A81ED
:1015A0008F778A830E811F81C80180960E94390738
:1015B000882351F2F801808191810E947707882366
:1015C00019F2ACCF4F925F926F927F928F929F925F
:1015D000AF92BF92CF92DF92EF92FF920F931F9341
:1015E000CF93DF93EC014A015B014C845D846E84F0
:1015F0007F842881222309F487C0488959896A8910
:101600007B89481559056A057B0581F08114910491
:10161000A104B10469F41C861D861E861F86888A73
:10162000998AAA8ABB8A8A818F7D8A8381E071C068
:1016300023FF57C0888D998DAA8DBB8D881599057C
:10164000AA05BB0508F460C0EE81FF813481375FD5
:101650007501640181E0C81AD108E108F108032E80
:1016600004C0F694E794D794C7940A94D2F7DB01A8
:10167000CA010197A109B10904C0B695A79597952C
:1016800087953A95D2F7C816D906EA06FB0628F0E0
:10169000452B462B472B09F052C027FF4BC0848DAA
:1016A000958DA68DB78D8C879D87AE87BF878E0160
:1016B000045F1F4FC114D104E104F10409F4AFCF5A
:1016C0004C855D856E857F8598018E819F810E9406
:1016D0000B0A91E0C91AD108E108F108181654F371
:1016E00013C026FFB1CFEE81FF818681978125E06F
:1016F000880F991F2A95E1F7B0E0A0E088159905B9
:10170000AA05BB0508F08BCF4C865D866E867F866A
:1017100080E0DF91CF911F910F91FF90EF90DF90CC
:10172000CF90BF90AF909F908F907F906F905F9081
:101730004F9008958C8D9D8DAE8DBF8DB4CFC81AFE
:10174000D90AEA0AFB0AB3CF3F924F925F926F9297
:101750007F928F929F92AF92BF92CF92DF92EF9241
:10176000FF920F931F93CF93DF9300D000D0CDB79C
:10177000DEB74C01FC01828180688283A680B7803D
:101780004484558466847784F501C084D184E284DE
:10179000F384C414D504E604F70410F011E003C088
:1017A0007301620110E0FFEFCF1ADF0AEF0AFF0AB0
:1017B000F501808D918DA28DB38D8C159D05AE05A3
:1017C000BF0538F4111131C0C084D184E284F384A0
:1017D000E5CF4C145D046E047F0439F19E012F5F48
:1017E0003F4FB701A601C5010E940B0A87FD1DC02E
:1017F0008823C9F289819A81AB81BC81892B8A2B8C
:101800008B2B89F6112329F0F501C086D186E2865B
:10181000F3860FEF1FEF2FEF3FE0B701A601C501E1
:101820000E949E09382E811118C0312C832D0F90F3
:101830000F900F900F90DF91CF911F910F91FF901C
:10184000EF90DF90CF90BF90AF909F908F907F9060
:101850006F905F904F903F90089541145104610440
:10186000710431F4F401C486D586E686F786DECFAE
:1018700097018601B301A201C5010E949E09811151
:10188000F1CFD3CF20912202260F3327331F2132ED
:101890003105ECF420913504FC0190E080E0243027
:1018A00069F082E00895A09122022191AC014E5F7F
:1018B0005D4FA40FB52FB11D2C930196861798F399
:1018C00080912202680F6093220280E0089581E0F7
:1018D00008951092350481E08093340410920F042F
:1018E00061E082E00E94AC0361E083E00E94AC030F
:1018F000E9EBF0E080818E7F808380818D7F808323
:1019000088E48093B80085E48093BC000895CF9369
:10191000DF9391E090934C028823B9F0C091B80016
:10192000D091BA008091BC008A7B8093BC0060E0BB
:1019300082E00E94AC0360E083E00E94AC030E945E
:10194000690CD093BA00C093B800DF91CF9108958D
:101950008F929F92AF92BF92CF92DF92EF92FF92BF
:101960000F931F93CF93DF93D0915E04D13208F091
:10197000D7C0182FC0915D040E944E046B017C01FA
:101980008091350481116BC082E0809335041093FF
:1019900034048FEF8093330410923204D0933104D7
:1019A000ADE3B4E0E1E1F4E080E0D81391C010923F
:1019B000100480911004CC0FC82BC09310048091A8
:1019C0000F04813009F088C010920F040E944E0469
:1019D0006B017C01809110048093BB0080913704DF
:1019E00090913804A0913904B0913A04892B8A2B44
:1019F0008B2BA1F00E944E04009137041091380403
:101A00002091390430913A046C197D098E099F099F
:101A1000061717072807390708F442C08091BC0051
:101A200083FDD8CF85EC8093BC000E944E046B01EF
:101A30007C0180913504823009F450C080913304D8
:101A40008F3F09F46FC080913304803209F46CC079
:101A500080913304803309F469C084E026C080910A
:101A6000370490913804A0913904B0913A04892B3D
:101A70008A2B8B2B09F484CF0E944E04809037046C
:101A800090903804A0903904B0903A046C197D0904
:101A90008E099F0986169706A806B90608F070CF2A
:101AA000809136040E94870C85E010923C041092CD
:101AB0005E0410923B04DF91CF911F910F91FF9034
:101AC000EF90DF90CF90BF90AF909F908F90089550
:101AD0009D9191938F5F69CF85EEA5CF809137045B
:101AE00090913804A0913904B0913A04892B8A2B43
:101AF0008B2B09F49ECF0E944E0400913704109165
:101B000038042091390430913A046C197D098E090A
:101B10009F09061717072807390708F08ACFC0CF93
:101B200081E0C3CF80E0C1CF82E0BFCF83E0BDCFF3
:101B30000895E0914B0280914A02E81730F4F0E0FA
:101B4000EE51FE4F808190E008958FEF9FEF089552
:101B500090914B0280914A022FEF3FEF981748F483
:101B6000E92FF0E0EE51FE4F208130E09F5F90932F
:101B70004B02C901089580914A0290914B02891B42
:101B8000990B0895CF92DF92EF92FF920F931F93DC
:101B9000CF93DF937C01CB018A0120913B04222368
:101BA00089F0EB016B01C40ED51ECC15DD0569F083
:101BB0006991D701ED91FC910190F081E02DC70171
:101BC0000995F3CF642F0E94420CC801DF91CF9199
:101BD0001F910F91FF90EF90DF90CF900895CF93DA
:101BE000DF931F92CDB7DEB7698320913B04222398
:101BF000F9F020915E04203258F021E030E0FC0141
:101C00003383228390E080E00F90DF91CF9108959D
:101C100080913C04E82FF0E0E35CFB4F99819083D6
:101C20008F5F80933C0480935E0481E090E0ECCF72
:101C300061E0CE0101960E94420CF7CF615071091C
:101C4000FA012491222349F04F5F5F4F86179707CF
:101C500020F4FC012193CF01F3CF08956150710965
:101C6000FA012191AF01222339F08617970720F45A
:101C7000FC012193CF01F4CF0895FC01848583FFFB
:101C800017C084A195A1A6A1B7A1448D558D668DDD
:101C9000778D841B950BA60BB70B811520E8920757
:101CA000A105B10520F08FEF9FE7A0E0B0E0089517
:101CB00080E090E0DC01F1CF0C960C94860A90E075
:101CC00080E008958F929F92AF92BF92EF92FF9221
:101CD0000F931F93CF93DF93E82E80914108282F15
:101CE00030E0F901EE0FFF1FE20FF31FE45EF74F44
:101CF000908196FD54C08C3008F051C061E086E0C0
:101D00000E941D0480914108282F30E0F901EE0F58
:101D1000FF1FE20FF31FE45EF74F9081907C966007
:101D2000908310924208109243082CE0622F0E9488
:101D30002537829FB001112430E020E0AB01420F33
:101D4000531FFA01EE0FFF1FE40FF51FE45EF74F7C
:101D5000908196FD16C02F5F3F4F2C30310571F7F3
:101D600081110FC01092800082E080938100109258
:101D7000850010928400B19A80916F0082608093F8
:101D80006F00E09141088E2F90E0FC01EE0FFF1FE5
:101D9000E80FF91FE45EF74F808180648083F09044
:101DA00041088BE08F1508F44DC08091430808E589
:101DB00012E0081B110987FD1395000F111F000F7A
:101DC000111F80914208C8E8D0E0C81BD10987FDE7
:101DD000D395CC0FDD1FCC0FDD1F4E010D2E000C57
:101DE000AA08BB089801012E000C440B550B2819BA
:101DF00039094A095B09AE2DB0E00E94C13224EBDB
:101E000030E040E050E00E94A232820E931EA41EF9
:101E1000B51E8C169D062CF0E801801691060CF478
:101E2000E4012297CC0FDD1F2FB7F8948F2D90E09F
:101E3000FC01EE0FFF1FE80FF91FE45EF74FD2839E
:101E4000C1832FBFDF91CF911F910F91FF90EF9032
:101E5000BF90AF909F908F900895CF93C42F91E043
:101E600090933B0480935D0410923C0410925E04B6
:101E70008CE895E00E94EF0D6C2F8CE895E00E94B5
:101E8000EF0D81E00E94A80C91E0811190E0892F74
:101E9000CF9108958F929F92AF92BF92DF92EF926F
:101EA000FF920F931F93CF93DF93EC017B018A8105
:101EB00080FFB9C0288188889988AA88BB8823FFB9
:101EC00021C0888D998DAA8DBB8D88199909AA0981
:101ED000BB0982309105A105B10518F5009709F5F8
:101EE00030E020E0A901481B590BCA01DF91CF91D6
:101EF0001F910F91FF90EF90DF90BF90AF909F9058
:101F00008F90089526FF0DC0EE81FF818681978115
:101F100035E0880F991F3A95E1F78815990509F47E
:101F200088C0EE81FF8184011170B501A40189E0B0
:101F300076956795579547958A95D1F726FF27C0DF
:101F4000848D958DA68DB78D480F591F6A1F7B1FF5
:101F50008E819F8120E080960E941D08009709F4E1
:101F600062C0800F911FFC018081F7018083888906
:101F70009989AA89BB890196A11DB11D888B998B6E
:101F8000AA8BBB8B21E030E090E080E0ABCFD38028
:101F9000D4220115110581F4D1100EC089288A2898
:101FA0008B2881F527FF29C0848D958DA68DB78D4F
:101FB0008C879D87AE87BF87EE81FF814C855D85CD
:101FC0006E857F854250510961097109848104C081
:101FD000440F551F661F771F8A95D2F78089918914
:101FE000A289B389840F951FA61FB71FAC01BD013D
:101FF0004D0D511D611D711DABCF8C8D9D8DAE8D15
:10200000BF8DD6CF4C855D856E857F859E01245F13
:102010003F4FCF010E940B0A87FD05C08111CCCF35
:102020008881807D49F48981826089838FEF9FEF69
:102030005DCF30E020E0A8CF21E030E081E090E00B
:1020400051CFEF92FF920F931F93CF93DF931F9285
:10205000CDB7DEB77C01962FF7014089518962899F
:1020600073898A019B0185E0369527951795079519
:102070008A95D1F70F7011F0911129C0BE016F5FE1
:102080007F4FC7010E944A0F813051F090E080E0FD
:102090000F90DF91CF911F910F91FF90EF900895D6
:1020A000F70180899189A289B3894F96A11DB11D3D
:1020B000808B918BA28BB38BF701868197818B9656
:1020C000F0E20F9F90011124820F931FE1CF405E39
:1020D0005F4F6F4F7F4F408B518B628B738BECCF79
:1020E0008F929F92AF92BF92CF92DF92EF92FF9228
:1020F0000F931F93CF93DF931F92CDB7DEB78C0161
:10210000FC01848C958CA68CB78CC08CD18CE28C15
:10211000F38CBE016F5F7F4F0C960E944A0F0197B0
:10212000C9F4898190E0F801848E958EA68EB78ED1
:10213000C08ED18EE28EF38E0F90DF91CF911F91E2
:102140000F91FF90EF90DF90CF90BF90AF909F9056
:102150008F9008958FEF9FEFE6CFCF93DF931F927D
:10216000CDB7DEB7BE016F5F7F4F0C960E944A0F5E
:10217000019731F4898190E00F90DF91CF9108951C
:102180008FEF9FEFF9CF2F923F924F925F926F9216
:102190007F928F929F92AF92BF92CF92DF92EF92F7
:1021A000FF920F931F93CF93DF93EC014B015A01E2
:1021B0008A8181FF8CC083FD81C0A50170E060E051
:1021C00088899989AA89BB8980959095A095B095B1
:1021D00084179507A607B70708F479C065011E01A3
:1021E0008CE0280E311C088919892A893B89C11481
:1021F000D10409F4E5C08E819F81B901A80129E0CD
:1022000076956795579547952A95D1F7DC011396F2
:10221000FC90F4221170F1101BC04C855D856E8519
:102220007F850115110509F0EFC0411551056105C4
:10223000710509F452C091010E940B0A87FD47C045
:10224000811106C0CE010E94A40B882309F43FC06F
:10225000EE81FF814C855D856E857F8542505109F9
:1022600061097109848104C0440F551F661F771FDF
:102270008A95D2F780899189A289B389840F951FA5
:10228000A61FB71FAC01BD014F0D511D611D711D72
:102290000115110521F4C114B2E0DB06C8F580E098
:1022A00092E0801B910B76018C159D0508F47C0152
:1022B0000115110509F448C021E057C0488D598D1A
:1022C0006A8D7B8DCE010E94E20A811176CF8981D1
:1022D00081608983B12CA12C83C08C8D9D8DAE8DA6
:1022E000BF8D0097A105B10571F4CE010E94A40B2A
:1022F000882369F38C859D85AE85BF858C8F9D8FE6
:10230000AE8FBF8FA5CF8C879D87AE87BF87A0CFAD
:1023100083A194A1A5A1B6A1481759076A077B0715
:1023200041F410A28FEF9FEFDC0183A394A3A5A338
:10233000B6A3940181A192A10E94EA06882339F2F2
:10234000E12C82E0F82E2BC0488859886A887B8867
:10235000888D998DAA8DBB8D481659066A067B0615
:1023600018F48A8185FFA8CF25E0CF0180960E94CE
:102370001D08009709F4ABCFA701B401800F911F8E
:102380000E9444370E0D1F1D0115124041F48E812D
:102390009F8180960E943907882309F498CF888905
:1023A0009989AA89BB898E0D9F1DA11DB11D888B9E
:1023B000998BAA8BBB8B8E0C9F1CCE18DF0813CF7A
:1023C000888D998DAA8DBB8D80179107A207B307C1
:1023D00038F4088F198F2A8F3B8F8A8180688A830F
:1023E000C501DF91CF911F910F91FF90EF90DF908A
:1023F000CF90BF90AF909F908F907F906F905F90A5
:102400004F903F902F900895FC014250510961096F
:102410007109848104C0440F551F661F771F8A9578
:10242000D2F780899189A289B389480F591F6A1F01
:102430007B1F35CF0C960C94C310CF93DF931F9264
:10244000CDB7DEB7698341E050E0BE016F5F7F4FDB
:102450000C960E94C3100F90DF91CF910895FB015D
:1024600001900020E9F73197AF01461B570BDC01C3
:10247000ED91FC910280F381E02D09940F931F935D
:10248000CF93DF93EC010E942F128C016EEB71E071
:10249000CE010E942F12800F911FDF91CF911F91CB
:1024A0000F9108954F925F926F927F928F929F92B9
:1024B000AF92BF92FF920F931F93CF93DF93D82FCA
:1024C000042FF52E122F81E080933B04D0935D04FE
:1024D00010923C0410925E048CE895E00E94EF0D8F
:1024E00080E00E94A80CC82F8111CCC00E944E042D
:1024F0004B015C0180913504811165C081E08093BE
:102500003504809334049FEF909333041092320487
:10251000910F909331048093100480911004DD0F8B
:10252000D82BD093100480910F04813009F084C01F
:1025300010920F040E944E044B015C018091100424
:102540008093BB008091370490913804A0913904A6
:10255000B0913A04892B8A2B8B2BA1F00E944E0458
:1025600040903704509038046090390470903A04D9
:10257000681979098A099B0946165706680679067B
:1025800008F442C08091BC0083FDD8CF85EC8093D5
:10259000BC000E944E044B015C01809135048130E7
:1025A00009F44CC080913204811708F069C0809111
:1025B0003204A1E1B4E0E2EEF1E0C81749F19D91E7
:1025C0009193CF5FFACF8091370490913804A09116
:1025D0003904B0913A04892B8A2B8B2B09F48ACFCA
:1025E0000E944E04409037045090380460903904A3
:1025F00070903A04681979098A099B0946165706AA
:102600006806790608F076CF809136040E94870C20
:1026100010924B02C0934A021C1334C0B02EC02F3C
:10262000DF2D8CE895E00E94A80D89938C2F8B19E3
:102630008117B8F381E027C085EEA9CF80913704D8
:1026400090913804A0913904B0913A04892B8A2BD7
:102650008B2B09F4A2CF0E944E0440903704509077
:1026600038046090390470903A04681979098A092D
:102670009B09461657066806790608F08ECFC4CF28
:10268000812F97CF80E0DF91CF911F910F91FF9025
:10269000BF90AF909F908F907F906F905F904F9082
:1026A0000895EF92FF920F931F93CF93DF93CDB7CF
:1026B000DEB72C970FB6F894DEBF0FBECDBF7C01FE
:1026C0008B012CE0AE014F5F5F4F6DE288E60E9408
:1026D0005212882361F129813A8132272327322738
:1026E000F701318320832B813C8132272327322736
:1026F000338322832D813E8132272327322735835E
:1027000024832F813885322723273227F80131830C
:10271000208329853A853227232732273383228352
:102720002B853C85322723273227358324832C961B
:102730000FB6F894DEBF0FBECDBFDF91CF911F91D2
:102740000F91FF90EF9008952F923F924F925F92DA
:102750006F927F928F929F92AF92BF92CF92DF92B1
:10276000EF92FF920F931F93CF93DF93CDB7DEB716
:1027700028970FB6F894DEBF0FBECDBF98878F8322
:102780007B0126E0AE014F5F5F4F67EF87E70E9456
:102790005212082F882309F4E9C119812A803B804D
:1027A0008C8190E0B0E0A0E02CE0880F991FAA1F78
:1027B000BB1F2A95D1F74D8150E070E060E034E016
:1027C000440F551F661F771F3A95D1F7842B952B21
:1027D000A62BB72B2E8130E044E0359527954A95FE
:1027E000E1F7032E000C440B550B822B932BA42BEB
:1027F000B52B40914D0250914E0270E060E02C01EB
:102800003D01E4E07594679457944794EA95D1F7B5
:10281000441A550A660A770AF3E0B595A795979585
:102820008795FA95D1F7440F551F661F771F5C01F6
:102830006D01A41AB50AC60AD70AA6019501A0918E
:102840004F02B09150020E94CC324B015C013BE040
:10285000B594A794979487943A95D1F7A3019201E0
:10286000C301B2010E9415379B01AC016CE0559584
:102870004795379527956A95D1F7A0915102B09168
:1028800052020E94CC322B013C017EE07594679489
:10289000579447947A95D1F7480C591C6A1C7B1CB5
:1028A00040926502509266026092670270926802DE
:1028B000A5E0B0E0A30192010E94C13260587F4FB1
:1028C0008F4F9F4F672F782F892F992787FD9A95D4
:1028D0000E94213420E030E048EC52E40E9477333B
:1028E000F701608371838283938373016201F5949E
:1028F000E794D794C794FAEFDF1AE108F108C7010B
:10290000B601A2E09595879577956795AA95D1F739
:102910009B01AC010E9415374B015C01A09157024D
:10292000B0915802AC019B018DE0559547953795C4
:1029300027958A95D1F70E94CC322B013C0193E078
:1029400075946794579447949A95D1F7A09155023E
:10295000B0915602A70196010E94CC329B01AC01B6
:102960005595479537952795240D351D461D571DBF
:1029700072E155954795379527957A95D1F7305857
:102980004F4F5F4FA0915302B09154020E94C13249
:102990002B013C01EFE07594679457944794EA95B6
:1029A000D1F7411451046104710409F404C1A50173
:1029B00094018BE055954795379527958A95D1F7E2
:1029C000A0915D02B0915E020E94CC324B015C018D
:1029D000A0915B02B0915C02A70196010E94CC32EB
:1029E000DC01CB01880F991FAA1FBB1F880D991D01
:1029F000AA1DBB1D6C017D0132E0F594E794D794CC
:102A0000C7943A95D1F7212F30E050E040E06CE0D8
:102A1000220F331F441F551F6A95D1F7822D90E076
:102A2000B0E0A0E074E0880F991FAA1FBB1F7A9541
:102A3000D1F7282B392B4A2B5B2B832D90E0E4E038
:102A400095958795EA95E1F7092E000CAA0BBB0B2B
:102A5000282B392B4A2B5B2B8091590290915A02DB
:102A6000092E000CAA0BBB0BDC01992788278C0DC3
:102A70009D1DAE1DBF1D1CE0B595A795979587952B
:102A80001A95D1F7280F391F4A1F5B1FABECB3EF24
:102A90000E94CF32805B9C4397FD82C0660F771FF8
:102AA000881F991FA30192010E94D43229013A0183
:102AB000C301B20123E096958795779567952A958E
:102AC000D1F79B01AC010E9415379B01AC016DE071
:102AD00056954795379527956A95D1F7A09163024A
:102AE000B09164020E94CC326B017C017CE0F594D1
:102AF000E794D794C7947A95D1F7A3019201E2E0C5
:102B00005695479537952795EA95D1F7A09161029B
:102B1000B09162020E94CC329B01AC01FDE0559560
:102B2000479537952795FA95D1F72C0D3D1D4E1DEC
:102B30005F1DC0905F02D09060020D2C000CEE086B
:102B4000FF082C0D3D1D4E1D5F1DA4E055954795BA
:102B500037952795AA95D1F7420E531E641E751E10
:102B6000EF81F8854082518262827382802F28969D
:102B70000FB6F894DEBF0FBECDBFDF91CF911F918E
:102B80000F91FF90EF90DF90CF90BF90AF909F900C
:102B90008F907F906F905F904F903F902F9008950F
:102BA000A30192010E94D43229013A01440C551C20
:102BB000661C771C7DCF412C512C3201D1CFFC01FA
:102BC000808181110EC080E2DF011D928A95E9F7B4
:102BD00077836683DB0115968C91803121F08032FA
:102BE00039F080E0089580E4808381E08283089555
:102BF00080E8FACFCF92DF92EF92FF920F931F936C
:102C0000CF93DF93FC0180E2DF011D928A95E9F703
:102C1000DB011696CD91DC911797D783C683558338
:102C200044835C96CD90DD90ED90FC905F97C086DC
:102C3000D186E286F386DE019B964F70552795E09C
:102C4000440F551F9A95E1F7A40FB51F1B968C9161
:102C50001B9783FD12C0877380831B969C911B97E3
:102C6000987111F48860808303832370213009F404
:102C700048C038F0223009F442C01082128280E04D
:102C800035C081E08283828181FF06C08081982FD8
:102C9000917199F7806280834BA15CA16DA17EA1A7
:102CA000448B558B668B778B54964D915C915597E1
:102CB00070E060E0BA01552744275A960D911C91A7
:102CC0005B9730E020E0402B512B622B732B448F1D
:102CD000558F668F778F5C968D919D910D90BC91ED
:102CE000A02D808F918FA28FB38F81E0DF91CF9144
:102CF0001F910F91FF90EF90DF90CF90089583E0A8
:102D0000C1CF82E0BFCF4F925F926F927F928F923E
:102D10009F92AF92BF92CF92DF92EF92FF920F936A
:102D20001F93CF93DF935C01EB016A01922E40E089
:102D300050E0BA01CE010E94E20AF12CE12C712C84
:102D4000612C00E010E026012FEF421A520A61E0E8
:102D5000CE010E942110BC010097B1F48981882323
:102D600009F495C080E0DF91CF911F910F91FF9002
:102D7000EF90DF90CF90BF90AF909F908F907F901B
:102D80006F905F904F900895FC019081953E09F4FB
:102D900075C0992309F477C0838583FD11C04BE08A
:102DA00050E0C2010E943737892B09F06AC0292DF3
:102DB000A70196FCD7CFBE01C5010E94FA15D3CF5B
:102DC0008F3009F05EC096FF02C0092F0F71FFEF30
:102DD000EF1AFF0ABCCF370100E011E0F8CF848181
:102DE00020E032E002C0220F331F8A95E2F7888983
:102DF0009989AA89BB89820F931FA11DB11D888B58
:102E0000998BAA8BBB8B3701A30170E060E085E052
:102E1000440F551F661F771F8A95D1F7CE010E9478
:102E2000E20A882309F49ECF60E0CE010E942110BF
:102E3000009709F497CF20E2FC0111922A95E9F757
:102E4000F60131962BE0DC0101900D922A95E1F715
:102E5000F60120812871FC01248721E23CE5318BB9
:102E6000208B318F208F338B228BEE81FF8180A1CD
:102E7000816080A300E0292DA3019DCF112309F4D7
:102E8000AACF00E0A4CF111102C0370111E094FED7
:102E900069CF892D83708150823008F063CF111182
:102EA000B3CF888186FD5ECF88899989AA89BB893D
:102EB00081159E4FAF41B10508F054CFCE010E945D
:102EC000A40B882309F44ECFEE81FF814C845D84EE
:102ED0006E847F8432E0431A51086108710884814E
:102EE00004C0440C551C661C771C8A95D2F7808957
:102EF0009189A289B389480E591E6A1E7B1E812CB6
:102F000000E012E0EE81FF818281881608F067CF31
:102F100025E0B301A201480D511D611D711DCF01B6
:102F200080960E941D08009709F41CCFFC019801AF
:102F3000119221503040E1F78394E4CF8F929F9219
:102F4000AF92BF92CF92DF92EF92FF920F931F93B7
:102F5000CF93DF93CDB7DEB7AC970FB6F894DEBF53
:102F60000FBECDBF8C017A01B22E19821A821B824C
:102F7000FC0180818823A1F080E0AC960FB6F89424
:102F8000DEBF0FBECDBFDF91CF911F910F91FF909C
:102F9000EF90DF90CF90BF90AF909F908F9008956B
:102FA000FB018081807D41F3FA0180818F32B1F491
:102FB0007F0181918F32E1F3FB016681778181117D
:102FC00004C0C8010E94DF15D8CFCE0101960E942F
:102FD000DF15BE016F5F7F4F882371F26E01FDE246
:102FE000CF0ED11C20E2A22EFE01B2969F01A1922B
:102FF000CE16DF06E1F7D70187E0E82EE0E098E0A3
:10300000992E90E0F12CAD014F5F5F4F8C9188239A
:1030100009F444C08F3209F441C08E3251F4F7E014
:10302000EF1212C08AE0E82EE8E08E2EF0E19F2E2B
:103030002CC0823209F4A0CF8C3709F49DCFF5EA79
:10304000F80FF33008F498CFF6EDF80FF63018F4D7
:103050008D3209F091CFF6ECF80FF63008F48CCFF2
:10306000FFEDF80FFE3508F087CFEE1608F484CF99
:10307000FFE9F80FFA3160F480529929882483948B
:103080008E0EE20FF32FF11D8083DA01E82DBBCF06
:10309000FFEBF80FFA3190F7F928F0CF8AA18032D0
:1030A00009F46ACFF92209F090E099A37D018C918F
:1030B00011968F32D9F3811108C02B2DAE014F5DCF
:1030C0005F4FC8010E94831658CF20E0AE014F5DCC
:1030D0005F4FC8010E948316882309F44DCF80E218
:1030E000F801DE01119601900D928A95E1F7C80171
:1030F0000E94860AF80110821282BE016F5F7F4F24
:1031000073CF85ED8093BC00809137049091380493
:10311000A0913904B0913A040796A11DB11D23E096
:10312000B695A795979587952A95D1F72091BC00DC
:1031300024FD03C010923504089540913704509146
:1031400038046091390470913A04452B462B472B83
:1031500069F30097A105B10541F02AE22A95F1F73C
:1031600000C00197A109B109E1CF809136040C9408
:10317000870CBF92CF92DF92EF92FF920F931F9333
:10318000CF93DF9300D000D000D0CDB7DEB78C0155
:103190006B01CA01B22E4AE09E012F5F3F4F7901B9
:1031A000B9010E947832F70101900020E9F73197C8
:1031B000EE19C601019720E3EB1548F4081719072B
:1031C00020F4D8012C930F5F1F4FEF5FF5CFA701BD
:1031D000B601C8010E942E0E26960FB6F894DEBFE7
:1031E0000FBECDBFDF91CF911F910F91FF90EF9058
:1031F000DF90CF90BF900895EF92FF920F931F93AF
:10320000CF93DF93CDB7DEB72C970FB6F894DEBF20
:103210000FBECDBF8C017B01CA01B9012AE0AE010E
:103220004F5F5F4F0E945632AE014F5F5F4FB70155
:10323000C8010E942E0E2C960FB6F894DEBF0FBE6A
:10324000CDBFDF91CF911F910F91FF90EF90089527
:10325000AF92BF92CF92DF92EF92FF920F931F93A4
:10326000CF93DF93EC015B0169017A011AE0013031
:1032700009F014E620E030E0A901C701B6010E9480
:10328000723387FF1BC020E836E948E15CECC701D8
:10329000B6010E94D13418160CF453C041EC51E031
:1032A000B501CE01DF91CF911F910F91FF90EF906B
:1032B000DF90CF90BF90AF900C942E0E20E836E9AF
:1032C00048E15CE4C701B6010E94723387FFE6CF94
:1032D000612F70E090E080E00E942134A701960108
:1032E0000E94D63420E030E040E05FE30E940633E5
:1032F0000E94F033212F30E050E040E00E94D432B1
:103300006B01B501CE010E94FC18950121503109D5
:103310008217930720F42EE2FC01208301960230ED
:1033200009F001E0202FA601B501DF91CF911F9197
:103330000F91FF90EF90DF90CF90BF90AF900C94E3
:10334000B918F7FAF094F7F8F094612F70E090E074
:1033500080E00E9421349B01AC01C701B6010E94AC
:10336000D63420E030E040E05FE30E9406330E9464
:10337000F033611571058105910509F4BBCF950105
:1033800021503109C217D30708F0B4CF2DE22883AA
:103390002196B0CFCF93DF93C42F23E220935F0415
:1033A0009B01AC016FE974E080E694E00E94FC1898
:1033B00024E08E39920720F42CE7FC01208301964B
:1033C00043E352E0C03140F4EC2FF0E0EE0FFF1F7A
:1033D000EC5EFE4F408151816FE974E00E941E0E49
:1033E0000E940502EC0118828FEE94E00E946505B0
:1033F000CF55D440CE5FC817190609F054F46FE5D5
:1034000074E08FEE94E00E943E1281E0DF91CF9154
:10341000089580E0FBCFCF93C5E080916C028823B4
:10342000E1F0E0916D02CE9FF0011124E253FE4FD6
:10343000608171818281938144810E94CA198823AD
:1034400061F080916D028F5F837080936D02809137
:103450006C02815080936C02E0CFCF910895AF92BF
:10346000BF92CF92DF92EF92FF921F93CF93DF93A1
:10347000182F0E942A056B017C0180916F03813017
:1034800079F583E28093CD02A70196016DE273E0A6
:103490008EEC92E00E94FC18FC0101962CE2208345
:1034A00043E352E0103140F4E12FF0E0EE0FFF1F54
:1034B000EC5EFE4F408151816DE273E00E941E0E72
:1034C000FC0110826DEC72E088E995E00E943E12EA
:1034D00080916F03813021F484EA95E00E94860A8E
:1034E00080915E038130D1F5C0915903AC2EB12C8F
:1034F000FAE0CF9FE0011124CF5CDC4FC882D98273
:10350000EA82FB821C8383E08D830E942A056E83FE
:103510007F83888799878FEFA81AB80A93E0A9223A
:10352000BB24A09259030E940B1A80916C0288233D
:1035300071F080916C028430D9F480912D039091C8
:103540002E03019690932E0380932D0307C0412FE5
:10355000C701B6010E94CA19882359F3DF91CF91A0
:103560001F91FF90EF90DF90CF90BF90AF900895A4
:10357000E0916D02E80FE37095E0E99FF0011124FE
:10358000E253FE4FC082D182E282F38214838F5FC6
:1035900080936C02E3CF2091670330916803A90107
:1035A00048235923452B69F4282B392B3093680382
:1035B0002093670387709927892B19F08DE00C946D
:1035C0002F1A08951F920F920FB60F9211248F9306
:1035D0009F938091E1009091E100937F9093E100AF
:1035E00083FF0FC01092E90091E09093EB001092DE
:1035F000EC0092E39093ED0010920E0498E090930B
:10360000F00082FF22C093E09093E9009091F200D5
:10361000992319F09AE39093E8009091FF0399237E
:1036200041F09091FF0391509093FF03911101C0DD
:103630005D9A90910D04992341F090910D04915061
:1036400090930D04911101C0289A84FF18C08091B5
:10365000E2008E7E81608093E2008091E1008F7EA7
:103660008093E100809100048E7E8061809300044D
:103670009F918F910F900FBE0F901F90189580FF14
:10368000F7CF8091E2008E7E80618093E20080918E
:10369000E1008E7E8093E100809100048E7E816047
:1036A000E5CF1F920F920FB60F921124CF92DF92A7
:1036B000EF92FF920F931F932F933F934F935F933C
:1036C0006F937F938F939F93AF93BF93EF93FF93EA
:1036D000CF93DF93CDB7DEB76C97DEBFCDBF10922F
:1036E000E9008091E80083FF25C068E0CE0145969F
:1036F0000E949F0382EF8093E8008D8987FF39C085
:103700009091E80090FFFCCF982F907609F034C19B
:103710009E894F89588D2F89F88C911131C080383E
:1037200061F58091FE038093F1001092F1008EEF1D
:103730008093E8006C960FB6F894DEBF0FBECDBF45
:10374000DF91CF91FF91EF91BF91AF919F918F91B9
:103750007F916F915F914F913F912F911F910F91A9
:10376000FF90EF90DF90CF900F900FBE0F901F90C3
:1037700018959EEF9093E800C7CF1092F100D5CF37
:10378000913059F48111D3CF4130510581F68091A8
:10379000FE038D7F8093FE03CACF933049F48111DD
:1037A000C6CF4130510519F68091FE038260F2CFF9
:1037B000953041F48091E80080FFFCCF2068209391
:1037C000E300B5CF963009F0A9C00B8D1C8D22E027
:1037D0001092E9001092FC031092FB03F2122EC02B
:1037E0001092FA031092F9030E946E031F8299E06F
:1037F0009983FA8291E09E8390EA98879AEF99875D
:103800002091FB033091FC03275F3F4F3C832B83C8
:103810008D831092E9001092FC031092FB03109329
:10382000FA030093F90349E050E0BE016F5F7F4F58
:1038300080E00E9448030E946E0379CF1093FA0340
:103840000093F9030E948502DC0112960D911C91F0
:103850000115110509F451C1D801ED91FC910480C5
:10386000F581E02DBE016B5E7F4FC8010995009781
:1038700009F03EC1F80100851185EACFF3E0FF129F
:103880000EC08F89882309F440C0823061F440E87B
:1038900060E183EA93E00E940020811148CF81E239
:1038A0008093EB0047CF813029F440E86BE087E953
:1038B00093E0F1CF833099F70E948502DC011296E4
:1038C000ED90FC908E010F5F1F4F6801E114F10431
:1038D00079F0D701ED91FC910680F781E02DB801D8
:1038E000C7010995080F111DF701E084F184EECF9F
:1038F000D8011C92F60101900020E9F73197BF0131
:103900006C197D0940E0C601C6CF61E873E0FB0198
:10391000449150E080E80E94480309CF973009F4B1
:10392000BECF983021F481E08093F10000CF993030
:1039300009F0FDCE837009F0B2CFEFE5F1E081E050
:1039400031E096E32191222371F08093E9003093D6
:10395000EB00DF0111972C912093EC009093ED0088
:103960008F5F873079F78EE78093EA001092EA0044
:103970008F8980930E04DBCE8B8D9C8D1092E90095
:103980001092FC031092FB039093FA038093F903C7
:10399000898D811192C08E899D89913A49F4813235
:1039A00009F07DCF47E050E06CE071E080E0B3CFFC
:1039B000913209F074CF833269F48F89988DB0E029
:1039C000A0E08093080190930901A0930A01B093AD
:1039D0000B01ADCE803269F48091E80082FFFCCF0C
:1039E00067E08CE091E00E949F038BEF8093E800FA
:1039F0009ECE823209F09BCE8F8980931301EEEF29
:103A0000FFE7859194918B3F9C4D51F1E0E0F8E008
:103A100080910C0190910D01A0910E01B0910F01C8
:103A2000803B9440A105B105F1F48091130180FD24
:103A30001AC0EE3F8AE0F80789F587E797E7918398
:103A40008083809160008093FD0388E19BE00FB646
:103A5000F894A895809360000FBE9093600067CEA5
:103A6000EEEFFAE0D5CF808191818737974709F053
:103A70005ECEA895809160008861809360008091FF
:103A8000FD0380936000EE3F2AE0F20789F0809109
:103A9000FE0A9091FF0A9183808349CE80819181B3
:103AA0008737980751F29093FF0A8093FE0AC5CF9B
:103AB0001092FF0A1092FE0A3ACE0E948502DC01A3
:103AC00012960D911C910115110509F4E8CED8014B
:103AD000ED91FC910190F081E02DBE016B5E7F4F76
:103AE000C8010995811123CEF80100851185EBCF1E
:103AF000181619060CF41BCED2CEF1E0FF12BECE82
:103B000065E873E004CF1F920F920FB60F92112455
:103B10002F933F938F939F93AF93BF938091F10324
:103B20009091F203A091F303B091F4033091F0036C
:103B300023E0230F2D3758F50196A11DB11D2093C9
:103B4000F0038093F1039093F203A093F303B093F7
:103B5000F4038091F5039091F603A091F703B091DF
:103B6000F8030196A11DB11D8093F5039093F60310
:103B7000A093F703B093F803BF91AF919F918F91FA
:103B80003F912F910F900FBE0F901F90189526E830
:103B9000230F0296A11DB11DD2CF1F920F920FB617
:103BA0000F9211242F933F934F935F936F937F93C3
:103BB0008F939F93AF93BF93EF93FF938FEE94E018
:103BC0000E94B605FF91EF91BF91AF919F918F91A8
:103BD0007F916F915F914F913F912F910F900FBE09
:103BE0000F901F9018951F920F920FB60F921124ED
:103BF0002F938F939F93EF93FF93E091FF04F091A6
:103C000000058081E0910505F091060582FD1BC04D
:103C10009081809108058F5F8F732091090582172D
:103C200041F0E0910805F0E0E151FB4F958F809362
:103C30000805FF91EF919F918F912F910F900FBEEB
:103C40000F901F9018958081F4CF1F920F920FB69E
:103C50000F9211242F933F934F935F936F937F9312
:103C60008F939F93AF93BF93CF93DF93EF93FF9384
:103C700080914502C0914008D0E087FF24C0109297
:103C8000850010928400809145028F5F80934502E9
:103C900080914502082E000C990B8C179D0724F487
:103CA000809145028C30C4F1809184009091850010
:103CB000049680349C4908F47AC0809184009091E5
:103CC0008500049676C080914502082E000C990B61
:103CD0008C179D07C4F6E09145028E2FEE0F990BCD
:103CE000FC01EE0FFF1FE80FF91FE45EF74F808124
:103CF00086FFC9CFE09145028E2FEE0F990BFC0194
:103D0000EE0FFF1FE80FF91FE45EF74F808160E0C0
:103D10008F730E94AC03B7CF20918400309185004F
:103D2000E09145028E2FEE0F990BFC01EE0FFF1F65
:103D3000E80FF91FE45EF74F81819281820F931F94
:103D40009093890080938800E09145028E2FEE0FBA
:103D5000990BFC01EE0FFF1FE80FF91FE45EF74F10
:103D6000808186FF11C0E09145028E2FEE0F990BE6
:103D7000FC01EE0FFF1FE80FF91FE45EF74F808193
:103D800061E08F730E94AC03FF91EF91DF91CF91BF
:103D9000BF91AF919F918F917F916F915F914F9163
:103DA0003F912F910F900FBE0F901F90189580E4B8
:103DB0009CE990938900809388008FEF809345025F
:103DC000E3CF1F920F920FB60F9211242F933F93C0
:103DD0004F935F936F937F938F939F93AF93BF9313
:103DE000EF93FF938091B900887F803609F44AC031
:103DF000F0F5883209F4A7C018F5803109F49BC0AA
:103E0000B8F4882309F4F9C0883009F494C0FF910C
:103E1000EF91BF91AF919F918F917F916F915F9142
:103E20004F913F912F910F900FBE0F901F901895BB
:103E3000883109F488C0803251F78093330414C06C
:103E4000803409F49DC040F48033B9F38833F9F627
:103E50008093330485ECB0C0803509F485C0883583
:103E600009F496C0883499F60E948118D0CF883919
:103E700009F48CC038F5883729F050F4883611F0F1
:103E8000803729F683E0809335041092440257C0AE
:103E9000883809F47BC0803919F0803809F0B7CF31
:103EA00080914402803208F071C0E091440281E0C8
:103EB0008E0F809344028091BB00F0E0EC5DFD4FDB
:103EC00080833DC0803B39F0E0F4803A09F479C04A
:103ED000883A09F09CCF84E0809335041092230245
:103EE00010922202E0914802F091490209958091D6
:103EF000220281110FC081E08093220210920202FF
:103F000009C0803C09F4A6CF883C09F4A3CF883BC4
:103F100009F07DCFE091230281E08E0F8093230290
:103F2000F0E0EE5FFD4F80818093BB009091230213
:103F30008091220229C0809110048093BB0085ECFF
:103F40008093BC0064CF9091320480913104981723
:103F500058F5E091320481E08E0F80933204F0E056
:103F6000EF5EFB4F8081E9CFE091320481E08E0F5C
:103F7000809332048091BB00F0E0EF5EFB4F8083C2
:103F800090913204809131049817C8F285E8D8CF17
:103F9000E091320481E08E0F809332048091BB0067
:103FA000F0E0EF5EFB4F80838091340481115CCFA1
:103FB00081E080930F0484EA8093BC001092350462
:103FC00026CF85EC8093BC0010923504809144028A
:103FD000803230F4E0914402F0E0EC5DFD4F10825D
:103FE0006091440270E0E0914602F091470284E261
:103FF00092E00995109244020ACF1092330434CF14
:10400000EF92FF920F931F93CF93DF93F82E192F08
:10401000E62E042F81E0860F880F0E941A0383E0AA
:104020000E941A03CF2DD12FEC0EFD2EF11CCE15C0
:10403000DF05B9F007FF13C0FE0184910E941A0347
:10404000182F80E00E941A03812321968111EFCF5F
:10405000DF91CF911F910F91FF90EF90089588818C
:10406000EDCF81E0F5CF1092A2041092A10488EE6A
:1040700093E0A0E0B0E08093A3049093A404A09305
:10408000A504B093A6042AE731E03093A00420935E
:104090009F042FEF3FEF3093AC042093AB041092BA
:1040A000F2041092F1048093F3049093F404A0932B
:1040B000F504B093F6042CE831E03093F00420933B
:1040C000EF042DEC30E03093FC042093FB042CEC47
:1040D00030E03093FE042093FD0428EC30E0309370
:1040E00000052093FF0429EC30E030930205209373
:1040F00001052AEC30E030930405209303052EECF3
:1041000030E03093060520930505109208051092C3
:10411000090510920A0510920B0510928F05109256
:104120008E058093900590939105A0939205B0938E
:1041300093052EE931E030938D0520938C05109284
:10414000C9051092E6051092E5051092E4054FEFBF
:104150005FEFBA014093E7055093E8056093E905E6
:104160007093EA051092EF071092F0071092F10792
:104170001092100810920F08109212081092110855
:1041800020E520931308109214081092150810923D
:1041900016082AE22093170810921808109219089E
:1041A00010921A0810921B0810929B0510929A0503
:1041B00080939C0590939D05A0939E05B0939F05C9
:1041C0001092A4051092A5051092A60580EB91E02F
:1041D0009093990580939805809140088C3098F4CD
:1041E00091E0980F909340088093410890E0FC0183
:1041F000EE0FFF1FE80FF91FE45EF74F88EB9BE01F
:104200009283818308958FEF809341080895CF931F
:10421000DF93CDB7DEB7E7970FB6F894DEBF0FBEDA
:10422000CDBF789484B5826084BD84B5816084BD3F
:1042300085B5826085BD85B5816085BD80916E0044
:10424000816080936E001092810080918100826075
:1042500080938100809181008160809381008091B2
:1042600080008160809380008091910082608093C3
:1042700091008091910081608093910080919000E5
:104280008160809390008091C10084608093C10020
:104290008091C10082608093C1008091C1008160E3
:1042A0008093C1008091C30081608093C30080919E
:1042B000C00082608093C0008091C20081608093C2
:1042C000C20080917A00846080937A0080917A00A5
:1042D000826080937A0080917A00816080937A0076
:1042E00080917A00806880937A0010920E04109278
:1042F000FE03109200048091D70081608093D70064
:1043000080EA8093D80089B5806189BD89B58260D3
:1043100089BD09B400FEFDCF61E070E080E090E06F
:104320000E9473048091D8008F7C80618093D800B4
:104330008091E000807F8093E0008091E1008E7E9C
:104340008093E1008DE08093E200559A209A61E02D
:1043500085E00E941D0460E085E00E94AC0310929D
:1043600068031092670310926A0310926B03109215
:104370006C0310926D031092690380E00E942F1A63
:1043800060E084E10E941D0410924B0210924A02E8
:1043900010923C0410925E040E94690C86E395E042
:1043A000909349028093480287E395E090934702F7
:1043B000809346028CE08093B80010924C0288EB08
:1043C0009BE0A0E0B0E08093370490933804A09382
:1043D0003904B0933A0481E08093360410926E025F
:1043E00010926F021092700210927102109272027B
:1043F000109273021092740210927502109276025B
:10440000109277021092780210927902109295021F
:1044100010929602109297021092980210928202C5
:1044200010928302109284021092850210928702E9
:1044300010925F0310928602198240E06FE788E6CF
:104440000E942D0F21E0AE014F5F5F4F60E088E6D4
:104450000E945212182F882309F462C089818A3E73
:1044600011F00C94672C40E866E088E60E942D0F5E
:1044700064E670E080E090E00E94730440E06FE743
:1044800088E60E942D0F41E066E088E60E942D0F2D
:104490006EE170E080E090E00E94730440E067E02D
:1044A00088E60E942D0F6EE170E080E090E00E94AF
:1044B000730440E26FE788E60E942D0F80E090E0F1
:1044C000A0E0B5E48093040190930501A093060158
:1044D000B093070147E064E188E60E942D0F83E373
:1044E00093E3A3E8B1E48093000190930101A093CA
:1044F0000201B093030147E061E088E60E942D0FBE
:1045000040E060E088E60E942D0F6EE170E080E000
:1045100090E00E94730440E06FE788E60E942D0F50
:1045200019A221E0AE014F5D5F4F60ED87E70E9469
:10453000521281110C946A2C111104C084E090E095
:104540000E94CB1A82E090E00E94CB1A81E090E0BA
:104550000E94CB1A10E064EF71E080E090E00E94CE
:1045600073041092C6021092B9021092BA0210920D
:10457000BB021092BC021092BD0284E10E94620E46
:104580006CE271E080E090E00E947304E0914108E9
:104590008E2F90E0FC01EE0FFF1FE80FF91FE45E85
:1045A000F74F80818F7B808310926F0361E084E0FE
:1045B0000E941D04109215081092180810921908F4
:1045C00010921A0810921B081092170884E080932A
:1045D000160861E00E941D0461E0809116080E94A7
:1045E000AC0382E580931308109214080FB7F89477
:1045F00080916902811127C0E3EFF2E08491E2E14A
:10460000F3E09491E82FF0E0EE0FFF1FEA53FD4F27
:10461000A591B491EC91E92321F461E081E10E943C
:10462000AC0361E081E10E941D048CB580618CBD0A
:104630008CB580648CBD61E08FE00E941D0461E058
:1046400080E10E941D04809169028F5F809369025E
:104650000FBF81E08093150880911808811104C074
:1046600081E198E00E945A0661E0809116080E945C
:10467000AC030AE00E9468060150E1F760E0809117
:1046800016080E94AC030E942A056053784F7A8373
:10469000698320E030E0A90160E081E198E00E94B8
:1046A0009F06F82EEE24E3948E1511F40C94F42C4E
:1046B000CE0101960E944306882359F381E080933E
:1046C000170881E198E00E948D0681E198E09093BF
:1046D000100880930F088091170881110C947A2D8F
:1046E00061E081E198E00E946008882311F40C9455
:1046F000602D8FEE97E00E94860A1092EF071092CD
:10470000F10764EC75E08FEE97E00E94DF158823D7
:1047100011F40C94602D84EC95E090936B028093DF
:104720006A02EE24E394F12C45EC51E0BE01625D97
:104730007F4FCE0181960E942E0E24E0A701BE017C
:10474000625D7F4F0E94B91849EC51E0BE01625D85
:104750007F4F0E942E0EDC011C9219821A821B824E
:1047600020E0AE014F5D5F4F6FEE77E0CE01019626
:104770000E949E1781110C947D2D60916A027091A8
:104780006B026115710511F40C947D2D655D7D4FF3
:1047900021E5AE014F5D5F4F84EA95E00E949E17D0
:1047A000882311F40C947D2D4FE550E065E372E011
:1047B0008DEC92E00E94383210922C036DEC72E086
:1047C00088E995E00E943E1284EA95E00E94860AFC
:1047D00081E080936F0382E00E942F1AE091FF0432
:1047E000F091000582E08083E091FB04F091FC04ED
:1047F0001082E091FD04F091FE048FEC8083109212
:104800000705E0910305F091040586E08083E091BF
:104810000105F0910205808180618083E0910105AE
:10482000F0910205808188608083E0910105F0911C
:104830000205808180688083E0910105F091020586
:1048400080818F7D808381E080935E0310922E03B0
:1048500010922D031092300310922F0310926D02CC
:1048600010926C0284E00E942F1A112309F4F9C0FF
:104870000091670302FDA6C020E4322E10E0C12C97
:10488000D12C76014601570126013701BE016F5F29
:104890007F4FCE0181960E945113882389F169814F
:1048A0007A81072E000C880B990B0E9421349B0102
:1048B000AC01C301B2010E9406332B013C016B81A4
:1048C0007C81072E000C880B990B0E9421349B01E0
:1048D000AC01C501B4010E9406334B015C016D813E
:1048E0007E81072E000C880B990B0E9421349B01BE
:1048F000AC01C701B6010E9406336B017C011F5F4A
:1049000065E070E080E090E00E9473043A9431101A
:10491000BDCF112309F456C020910001309101014F
:1049200040910201509103012CAB3DAB4EAB5FAB0C
:10493000612F70E090E080E00E94213468AB79AB99
:104940008AAB9BAB9B01AC01C301B2010E947733E0
:104950002CA93DA94EA95FA90E94773360937602E6
:1049600070937702809378029093790228A939A9ED
:104970004AA95BA9C501B4010E9477332CA93DA9BE
:104980004EA95FA90E9477336093720270937302FD
:10499000809374029093750228A939A94AA95BA94A
:1049A000C701B6010E9477332CA93DA94EA95FA982
:1049B0000E94773360936E0270936F02809370024F
:1049C0009093710201FD4DC008E210E080E3C82E13
:1049D00085E7D82EE12CF12C90EC892E94ED992EC0
:1049E000AA24A394B12C412C512C3201BE016F5F3B
:1049F0007F4FCE0181960E94A413882311F189A1D3
:104A00009AA1ABA1BCA1AC01BD01405355476109BE
:104A1000710941395F456140710598F4480E591E8E
:104A20006A1E7B1E88159905AA05BB0514F44C0166
:104A30005D01C816D906EA06FB0614F46C017D0177
:104A40001F5F64E170E080E090E00E947304015019
:104A500069F6143110F00C948C2D82E090E00E94E5
:104A6000CB1A1092C7021092C8021092C90210927B
:104A7000CA021092C2021092C3021092C402109293
:104A8000C5021092A9021092AA021092AB021092D3
:104A9000AC021092A5021092A6021092A7021092E8
:104AA000A8021092A1021092A2021092A3021092E8
:104AB000A40210929D0210929E0210929F021092E8
:104AC000A0021092990210929A0210929B021092E8
:104AD0009C021092B1021092B2021092B302109294
:104AE000B4021092B5021092B6021092B702109260
:104AF000B8021092AD021092AE021092AF02109264
:104B0000B002809167039091680387709927109293
:104B1000CC021092CB02892B11F40C94C32D88E0A7
:104B200080936E030E942A056093B6037093B703C7
:104B30008093B8039093B9036093BA037093BB0357
:104B40008093BC039093BD036093EC037093ED03DB
:104B50008093EE039093EF0360937103709372035D
:104B600080937303909374036093AE037093AF03C9
:104B70008093B0039093B1036093B2037093B30337
:104B80008093B4039093B503BE01695D7F4F7FA707
:104B90006EA7332433940E942A052B013C01809197
:104BA000EC039091ED03A091EE03B091EF0383012C
:104BB0007201E81AF90A0A0B1B0BD801C7014497C6
:104BC000A105B105B8F04092EC035092ED0360925C
:104BD000EE037092EF03BE016F5F7F4FCE018196AF
:104BE0000E9451138111DEC71092EA0384E090E025
:104BF0000E94CB1A8091BA039091BB03A091BC0391
:104C0000B091BD03A3019201281B390B4A0B5B0B2A
:104C1000DA01C9018897A105B105C0F04092BA0335
:104C20005092BB036092BC037092BD03BE016F5FE4
:104C30007F4FCE0181960E94A41381110C94E92E1E
:104C40001092EB0382E090E00E94CB1A80916E03F9
:104C5000813009F0C6C08091EA03882309F4C1C0FD
:104C60008091950290919602A0919702B09198023E
:104C7000181619061A061B060CF0B3C08091940290
:104C8000882351F010929402409290025092910227
:104C900060929202709293028091EB03882309F450
:104CA0008BC08091E6039091E703A091E803B09157
:104CB000E90340918C0250918D0260918E027091B7
:104CC0008F0284179507A607B70709F475C04091AE
:104CD000900250919102609192027091930283012F
:104CE0007201E41AF50A060B170BB801A701483B3D
:104CF0000BE050076105710508F45EC0E0915F03A9
:104D000080938C0290938D02A0938E02B0938F02B9
:104D1000009188021091890220918A0230918B02C1
:104D20008091BE039091BF03A091C003B091C103D5
:104D3000BA2FA92F982F8827801B910BA20BB30B9A
:104D4000FAE0E11101C0F4E004C0B595A79597958C
:104D50008795FA95D2F7800F911FA21FB31F8093FA
:104D6000880290938902A0938A02B0938B02892FC4
:104D70009A2FAB2FBB27A7FDBA95809395029093EE
:104D80009602A0939702B0939802E1112AC0403492
:104D90005F4161057105A0F01092870230925F03B8
:104DA00080916703909168039E7F9093680380933E
:104DB00067038FE00E942F1A80915F03811111C059
:104DC0008091860281110DC020E3421625E752062C
:104DD0006104710430F080E091E00E94CB1A3092BF
:104DE00086028091B6039091B703A091B803B09169
:104DF000B903B301A201481B590B6A0B7B0BDB0102
:104E0000CA014497A105B10508F488C04092B603D1
:104E10005092B7036092B8037092B9031091EB03FC
:104E200000916E03112309F440C08091B502909166
:104E3000B602A091B702B091B802C090C603D0905C
:104E4000C703E090C803F090C9030097A105B1051E
:104E500011F00C949D2FC092B102D092B202E09258
:104E6000B302F092B4024092B5025092B602609240
:104E7000B7027092B802A70196016091C2027091C8
:104E8000C3028091C4029091C5020E94723387FFD1
:104E90000CC08EEF800F823040F4C092C202D092DC
:104EA000C302E092C402F092C502033011F40C94E4
:104EB000193110F00C94D72F013011F40C941530E7
:104EC000023011F40C94D130C090C702D090C802C7
:104ED000E090C902F090CA02C114D104E104F104C7
:104EE000E9F080916E038730C9F0D301C2018C19BB
:104EF0009D09AE09BF0980369A4EA105B10570F033
:104F000080E890E00E94CB1A80916E03873031F0E8
:104F100087E080936E038CE00E942F1A8091BE027E
:104F20009091BF02A091C002B091C1020097A1056B
:104F3000B10519F183017201E81AF90A0A0B1B0B7A
:104F4000D801C701803B9440A105B105B4F0E091C0
:104F500041088E2F90E0FC01EE0FFF1FE80FF91FB4
:104F6000E45EF74F80818F7B80831092BE021092A7
:104F7000BF021092C0021092C1022091C6022230DC
:104F800049F58091BD02811125C08091B9029091AF
:104F9000BA02A091BB02B091BC02B301A201481BAE
:104FA000590B6A0B7B0BDB01CA01803B9440A105C6
:104FB000B10584F0E09141088E2F90E0FC01EE0FE6
:104FC000FF1FE80FF91FE45EF74F80818F7B80831E
:104FD0003092BD028091B2039091B303A091B403CB
:104FE000B091B503B301A201481B590B6A0B7B0BAF
:104FF0008091AE039091AF03A091B003B091B10343
:1050000053014201881A990AAA0ABB0A483251057B
:105010006105710538F488EC88169104A104B10487
:1050200008F4F2C2409275035092760360927703BF
:10503000709278038091C7029091C802A091C90232
:10504000B091CA020097A105B10541F08301720138
:10505000E81AF90A0A0B1B0BD801C70180937903E0
:1050600090937A03A0937B03B0937C038091CB024F
:105070009091CC0201969093CC028093CB029093B6
:105080007E0380937D0380916E0380937F03209342
:1050900080038091BE039091BF03A091C003B091A3
:1050A000C1038093810390938203A0938303B09301
:1050B00084038091C2039091C303A091C403B09173
:1050C000C5038093850390938603A0938703B093D1
:1050D00088038091C6039091C703A091C803B09143
:1050E000C9038093890390938A03A0938B03B093A1
:1050F0008C038091C2029091C302A091C402B0912E
:10510000C50280938D0390938E03A0938F03B09379
:1051100090038091CA039091CB03A091CC03B091EE
:10512000CD038093910390939203A0939303B09344
:1051300094038091CE039091CF03A091D003B091BE
:10514000D1038093950390939603A0939703B09314
:1051500098038091D2039091D303A091D403B0918E
:10516000D5038093990390939A03A0939B03B093E4
:105170009C038091DA039091DB03A091DC03B09152
:10518000DD0380939D0390939E03A0939F03B093B0
:10519000A0038091DE039091DF03A091E003B09122
:1051A000E1038093A1039093A203A093A303B09380
:1051B000A4038091E2039091E303A091E403B091F2
:1051C000E5038093A5039093A603A093A703B09350
:1051D000A803E0916F03E093A90380915E0380939D
:1051E000AA0380916703909168039C01267033277E
:1051F000232B11F40C94D83122E02093AB0390932D
:10520000AD038093AC03483251056105710508F484
:105210001BC14092B2035092B3036092B4037092E8
:10522000B503E13009F010C1A30192016DE273E012
:105230008DEC92E00E94FC181CE2DC011C93209192
:10524000790330917A0340917B0350917C036DE2A6
:1052500073E001960E94FC18FC01108320917D03ED
:1052600030917E0350E040E06DE273E001960E94D1
:10527000FC18FC0101961083E0917F0346EB52E09D
:10528000E93038F4F0E0EE0FFF1FEC5CFE4F408198
:1052900051816DE273E00E941E0E1CE2DC011D9341
:1052A0007D016091810370918203809183039091CD
:1052B00084032AE0AE014F5F5F4F0E944732AE0188
:1052C0004F5F5F4F6DE273E0C7010E942E0EFC013D
:1052D000108320918503309186034091870350917C
:1052E000880301E06DE273E001960E942819DC0159
:1052F0001C932091890330918A0340918B03509134
:105300008C0302E06DE273E001960E942819FC0113
:10531000108320918D0330918E0340918F03509123
:1053200090036DE273E001960E942819DC011C9342
:1053300020919103309192034091930350919403F3
:105340006DE273E001960E942819FC011083209100
:1053500095033091960340919703509198036DE225
:1053600073E001960E942819DC011C932091990397
:1053700030919A0340919B0350919C036DE273E03E
:1053800001960E942819FC01108320919D03309101
:105390009E0340919F035091A00301E06DE273E0F2
:1053A00001960E942819DC011C932091A1033091E1
:1053B000A2034091A3035091A4036DE273E0019610
:1053C0000E942819FC0110832091A5033091A603A7
:1053D0004091A7035091A8036DE273E001960E94EB
:1053E0002819FC0101961083E091800348EB52E0FC
:1053F000E43038F4F0E0EE0FFF1FEA5BFE4F40812F
:1054000051816DE273E00E941E0E2CE2DC012C93B0
:105410002091AC033091AD0350E040E06DE273E0C9
:1054200001960E94FC18FC0110826DEC72E088E984
:1054300095E00E943E12892B39F480E190E00E94B1
:10544000CB1A82E080936F03F8EC8F169104A104CD
:10545000B10408F4D9C080915E034092AE0350922B
:10546000AF036092B0037092B103813009F038C18C
:105470000E940B1A20912F03309130032F5F3F4F72
:105480003093300320932F0350E040E06FE974E045
:105490008FE594E00E94FC1804E08E39900720F418
:1054A0002CE7DC012C930196209175033091760353
:1054B00040917703509178036FE974E00E94FC18E3
:1054C000B4E08E399B0720F42CE7FC012083019681
:1054D000E0917F0346EB52E0E93038F4F0E0EE0F64
:1054E000FF1FEC5CFE4F408151816FE974E00E9428
:1054F0001E0EF4E08E399F0720F42CE7DC012C937C
:1055000001962091890330918A0340918B03509139
:105510008C0302E06FE974E00E9428198C018E5917
:10552000944028F48CE7F80180830F5F1F4F60914F
:1055300081037091820380918303909184032AE018
:10554000AE014F5F5F4F0E944732AE014F5F5F4F2A
:105550006FE974E0C8010E942E0EF4E08E399F07B7
:1055600020F42CE7DC012C930196E091800348EBBA
:1055700052E0E43038F4F0E0EE0FFF1FEA5BFE4F3C
:10558000408151816FE974E00E941E0EB4E08E39B3
:105590009B0720F42CE7FC01208301962091AC03AB
:1055A0003091AD0350E040E06FE974E00E94FC18D8
:1055B000F4E08E399F0720F42CE7DC012C93019650
:1055C000209161033091620350E040E06FE974E0A4
:1055D0000E94FC180E9405028C01FC0110828FEED3
:1055E00094E00E9465050F5514400E5F08171906D8
:1055F00009F00CF4E1C680912D0390912E030196E1
:1056000090932E0380932D0380915E03813009F0E7
:1056100067C00E940B1A0E942A05AB01BC01809151
:105620005A0390915B03A0915C03B0915D0314EC6D
:10563000E12EFF24FA940FEF1FEFE81AF90A0A0B84
:105640001B0BD801C701840F951FA61FB71FCC974E
:10565000A105B10508F044C0B12C9AE0A92E8091B3
:1056600059038B0D8370A89EC00111248C010F5C1F
:105670001C4F68010B5F1F4FD60115968C91882334
:1056800009F4ABC60E942A057601B6E0EB0EF11CC8
:10569000F6012681378140855185621B730B840B8F
:1056A000950B6C3B72408105910508F496C6D601B6
:1056B0006D917D918D919C91139714964C910E94C0
:1056C000CA19882309F489C6F80180818150808332
:1056D0000E942A05D7016D937D938D939C93139718
:1056E00000916E0310915F03013009F0102F80913B
:1056F000630390916403A0916503B09166030097E2
:10570000A105B10571F0A3019201281B390B4A0BC9
:105710005B0BDA01C901883E9340A105B10508F48D
:1057200054C0D301C20181608093630390936403EA
:10573000A0936503B093660344E030E020E0ECEB17
:10574000F2E0849150917B00982F990F990F9072FD
:105750005F7D952B90937B008770806480937C00A5
:1057600080917A00806480937A0080917A0086FD2F
:10577000FCCF8091780090917900280F391F41501B
:10578000F1F6A7E7B1E00E94F6322FEF33E040E0F8
:1057900050E00E94D43230936203209361030230C0
:1057A000A0F42E39F2E03F0708F01CC68091600398
:1057B000833018F48F5F809360038091600383309F
:1057C00020F080E092E00E94CB1A809167039091D4
:1057D000680387709927892B09F014C68AEF90E037
:1057E000183040F4E12FF0E0EE0FFF1FE25BFE4FB8
:1057F0008081918140916A0350916B0360916C03A9
:1058000070916D0383017201E41AF50A060B170B00
:10581000B801A701B0E0A0E0481759076A077B0765
:1058200080F040926A0350926B0360926C03709216
:105830006D036091690363256093690385E00E94AD
:10584000AC0380916E03409171035091720360919B
:1058500073037091740393018201041B150B260BD3
:10586000370BB901A801483C51056105710540F0AD
:1058700040927103509272036092730370927403AA
:105880008730C1F480917003811114C080916F033F
:10589000813071F484EA95E00E94860A84EA95E0FA
:1058A0000E94860A1092A4051092A60510926F031A
:1058B0003092700320E030E0232B09F46CC90E9481
:1058C000A205882309F465C90E94000062C910E09E
:1058D0000C94902289A1883511F00C949C2246EBFF
:1058E00060EE87E70E942D0F6AE070E080E090E0B4
:1058F0000E94730428E1AE014F5F5F4F68E887E7BD
:105900000E945212882311F40C949C2229813A811E
:1059100030934E0220934D028B819C8190935002D4
:1059200080934F028D819E81909352028093510209
:105930008F819885909354028093530249855A85AC
:1059400050935602409355024B855C855093580204
:10595000409357024D855E8550935A0240935902F9
:105960004F85588950935C0240935B0249895A895C
:1059700050935E0240935D024B895C8950936002B4
:1059800040935F024D895E895093620240936102A9
:105990004F89588D509364024093630210926502C0
:1059A000109266021092670210926802232B11F483
:1059B0000C949C22892B11F40C949C2248E065EFF6
:1059C00087E70E942D0F4FE264EF87E70E942D0FBB
:1059D00062E370E080E090E00E94730411112FC533
:1059E00084E090E00C94A4222AEA31E040E050E008
:1059F00068E081E198E00E949F0682FD12C004E009
:105A00000E94680680931A080150D1F78A3A39F14A
:105A1000CE0101960E944306882331F386E00C9460
:105A20005F2301E0812C912C540120E030E0A9019A
:105A300067E381E198E00E949F06A501940169E275
:105A400081E198E00E949F06882381F0CE010196B3
:105A50000E944306882349F387E10C945F2302E008
:105A6000812C912CA12C40E4B42EDFCF0230D1F454
:105A700020E030E0A9016AE381E198E00E949F06FE
:105A8000882319F082E10C945F230E946806807CD1
:105A9000803C09F403E00E9468060E9468060E94A8
:105AA0006806F02E81E198E00E948D0680E58093E3
:105AB000130881E080931408F0921B080C9465236E
:105AC00060E080910F08909110080E946008882380
:105AD00089F08FEE97E00E94860A1092EF071092ED
