:100000000C9404040C942C040C942C040C942C04D8
:100010000C942C040C942C040C942C040C942C04A0
:100020000C942C040C942C040C942D140C949C14FF
:100030000C942C040C942C040C942C040C942C0480
:100040000C942C040C9426170C942C040C942C0463
:100050000C942C040C942C040C942C040C94E3139A
:100060000C942C040C94F4160C94CE160C942C04C2
:100070000C942C040C942C040C942C040C942C0440
:100080000C942C040C942C040C942C040C942C0430
:100090000C94E2170C942C040C942C040C942C0457
:1000A0000C942C040C942C040C942C0407634236FE
:1000B000B79BD8A71A39685618AEBAAB558C1D3CF9
:1000C000B7CC5763BD6DEDFD753EF6177231BF00BD
:1000D0000000803F08000000BE922449123EABAAF7
:1000E000AA2ABECDCCCC4C3E00000080BEABAAAA52
:1000F000AA3E00000000BF000000803F000000009A
:1001000000084178D3BB4387D1133D190E3CC3BDD2
:100110004282AD2B3E68EC8276BED98FE1A93E4C7F
:1001200080EFFFBE01C4FF7F3F0000000000475288
:100130004F554E445F5A45524F004241434B555034
:100140005F4445504C4F5900435249544943414C38
:100150005F4552524F52004C414E44454400444585
:100160005343454E54005245434F564552595F4400
:1001700045504C4F590041504F4745455F434F4E06
:100180004649524D454400424F4F53545F454E44FB
:10019000004C41554E43485F444554454354454403
:1001A00000524541445900524144494F5F4641493C
:1001B0004C00524144494F5F4F4B0053445F46410E
:1001C000494C0053445F4F4B0053454E534F5253DD
:1001D0005F4F4B00504F5745525F4F4E00455252B4
:1001E0004F52004C414E444544005245434F564502
:1001F00052590044455343454E540041504F4745E2
:100200004500434F41535400424F4F535400524511
:1002100041445900494E4954004552524F520044FE
:1002200045504C4F5945440041524D4544005341BF
:100230004645005D20005B455620003F00D186D03A
:10024000B8D0BAD0BB3A205341464500433A20D0FB
:10025000B4D0B0D182D187D0B8D0BAD0B8202B20BA
:10026000D181D0B5D180D0B2D0BED0BFD180D0B8EE
:10027000D0B2D0BED0B4202B2048432D3132002044
:1002800020D0BDD0B0D0B1D0BED1803A2000202047
:10029000D180D0B0D0B4D0B8D0BE3A20D0BFD180B9
:1002A000D0BED0BFD183D189D0B5D0BDD0BE20D0F3
:1002B000B8D0B72DD0B7D0B020D0B1D183D184D0B1
:1002C000B5D180D0B03A20002020D184D0BBD0B0AE
:1002D000D0B3D0B820D0BED188D0B8D0B1D0BED0A5
:1002E000BA3A203078002020D0B1D0B0D182D0B03E
:1002F000D180D0B5D18F2C20D0923A20002020D1AF
:1003000083D0B3D0BBD18B20D0BFD180D0B8D0B2F6
:10031000D0BED0B4D0B020534146452F4445504CB8
:100320004F593A20002020D0B4D0B0D0B2D0BBD0AA
:10033000B5D0BDD0B8D0B520D0BFD0BBD0BED1894C
:10034000D0B0D0B4D0BAD0B82C20D09FD0B03A2002
:10035000002020D0B1D0B0D180D0BED0BCD0B5D19B
:1003600082D1803A20002020494D553A202020207B
:100370002020002D2D2D20D0B6D0B5D0BBD0B5D0AB
:10038000B7D0BE202D2D2D0020203F2020D18DD193
:1003900082D0B020D181D0BFD180D0B0D0B2D0BA7D
:1003A000D0B0002020692020D181D0B2D0B5D0B407
:1003B000D0B5D0BDD0B8D18F20D0BE20D0B6D0B56A
:1003C000D0BBD0B5D0B7D0B50020207A2020D0BE89
:1003D000D0B1D0BDD183D0BBD0B8D182D18C20D008
:1003E000B2D18BD181D0BED182D1832028D180D00F
:1003F000B0D0BAD0B5D182D0B020D0BDD0B5D0BFAA
:10040000D0BED0B4D0B2D0B8D0B6D0BDD0B0207E9F
:100410003820D18129002020722020D0BFD180D067
:10042000BED0B3D0BED0BD20D0BFD180D0BED1848D
:10043000D0B8D0BBD18F20D0BFD0BED0BBD191D14E
:1004400082D0B02028D0BF2E20343320D0A2D09725
:1004500029002020302E2E392020D183D0B3D0BEC9
:10046000D0BB20302E2E31383020D18120D188D001
:10047000B0D0B3D0BED0BC203230002020742020B9
:10048000D186D0B8D0BAD0BB2053414645202D3EAE
:10049000204445504C4F594544202D3E2053414661
:1004A00045002020642020D0BFD180D0B8D0B2D069
:1004B000BED0B420D0B2204445504C4F59454400E2
:1004C0002020732020D0BFD180D0B8D0B2D0BED0F1
:1004D000B420D0B22053414645002D2D2D20D1818E
:1004E000D0B5D180D0B2D0B8D181D0BDD18BD0B968
:1004F00020D180D0B5D0B6D0B8D0BC2028D0BF2E67
:1005000020343020D0A2D09729202D2D2D00D0BF0F
:10051000D180D0B8D0B2D0BED0B4202D3E20D1836F
:10052000D0B3D0BED0BB2000D0BED0B1D0BDD1831F
:10053000D0BBD0B5D0BDD0B8D0B520D0B2D18BD142
:1005400081D0BED182D18B3A20D0BDD0B520D1820E
:10055000D180D0BED0B3D0B0D0B9D182D0B520D167
:1005600080D0B0D0BAD0B5D182D183203820D1810B
:10057000D0B5D0BAD183D0BDD0B4002D2D2D20D090
:10058000BFD180D0BED0B3D0BED0BD20D182D0B537
:10059000D181D182D0BED0B2D0BED0B3D0BE20D017
:1005A000BFD180D0BED184D0B8D0BBD18F202D2D6B
:1005B0002D00D0BFD180D0B8D0B2D0BED0B4202DC5
:1005C0003E204445504C4F5945442C20D183D0B354
:1005D000D0BED0BB2000D0BFD180D0B8D0B2D0BE6A
:1005E000D0B4202D3E20534146452C20D183D0B39A
:1005F000D0BED0BB2000080B00020202000009049C
:100600000000010202000005240010010524010180
:1006100001042402060524060001070581031000D9
:100620004009040100020A00000007050202400020
:1006300000070583024000000403090412010002C0
:10064000EF020140412336800001010203014172A3
:100650006475696E6F204C4C430041726475696E1D
:100660006F204C656F6E6172646F0049434D2D328F
:100670003039343800424D503238300020D09ED0CE
:10068000A2D09AD090D09700206F6B0020D09ED03F
:10069000A2D09AD090D09700206F6B00D091D0B0AC
:1006A000D180D0BED0BCD0B5D182D1803A20004913
:1006B0004D553A2000D09AD0A0D098D0A2D098D052
:1006C000A7D095D0A1D09AD090D0AF20D09ED0A85E
:1006D000D098D091D09AD0903A20D0BFD0BED0BB85
:1006E000D191D18220D0BDD0B5D0B2D0BED0B7D0BC
:1006F000BCD0BED0B6D0B5D0BD0007060504010001
:10070000080A0B0C0D09D186D0B8D0BAD0BB20D0C6
:10071000B7D0B0D0B2D0B5D180D188D191D0BD0002
:10072000D186D0B8D0BAD0BB3A20D0B2D0BED0B7E4
:10073000D0B2D180D0B0D18220D0B2205341464532
:1007400000D186D0B8D0BAD0BB3A204445504C4FE7
:10075000594544003F003F00207264726F703D00B5
:10076000206572723D3078002076623D00207A3D2F
:1007700000207265633D0020703D00207C617C3D5F
:1007800000206D61783D0020683D002000000000E1
:1007900000240027002A002D003000000000002562
:1007A0000028002B002E003100040404040403047C
:1007B00005020202020403020202020606060606FF
:1007C00006040402020204040408020110408040EE
:1007D0001020408040800802040180402010020167
:1007E000108010204040200000000200090F00008F
:1007F000030401000C0000000000000000000000E5
:10080000000000000000011911241FBECFEFDAE044
:10081000DEBFCDBF11E0A0E0B1E0EAE0F3E602C048
:1008200005900D92A23CB107D9F725E0A2ECB1E00A
:1008300001C01D92A838B207E1F714E0C4E0D4E08B
:1008400004C02197FE010E947D31C330D107C9F752
:100850000E9488190C9483310C940000FB012191B3
:10086000BF01222341F0F4E086369F0720F4FC010B
:100870002193CF01F3CF0895FC018091D603882303
:1008800011F13FB7F89482E08093E9002091F200E3
:10089000822F90E01816190614F481E090E0882366
:1008A00039F0289844E64093D5034091F100408305
:1008B000222339F02091F200211103C02BE620936E
:1008C000E8003FBF08958FEF9FEF08952FB7F8948A
:1008D00083E08093E9009091E800892F807295FF72
:1008E00004C09091F20080E4891B2FBF089580918D
:1008F000CD0381110DC082E08093C90384E0809311
:10090000CA031092CC031092CB0381E08093CD03F5
:1009100089EC93E00895282F30E0F901E951F84F70
:100920009491F901E853F84F84912755384FF90114
:100930002491222309F430C09923E9F091509F308B
:10094000D0F4E92FF0E0E955FB4F0C947D31D5044C
:10095000D904B604CD04D104BB04BB04BB04DC043D
:10096000E204E604EA04F004BB04F404909180007D
:100970009F7790938000E22FF0E0EE0FFF1FE55687
:10098000F84FA591B4919FB7F894EC91611132C0E2
:1009900080958E238C939FBF0895909180009F7DBA
:1009A000E8CF90918000977FE4CF94B59F7794BD76
:1009B000E2CF94B59F7DFBCF909190009F7790936D
:1009C0009000D9CF909190009F7DF9CF90919000A9
:1009D000977FF5CF9091C0009F779093C000CBCFC9
:1009E0009091C0009F7DF9CF9091C200977F909326
:1009F000C200C1CF8E2BCECFCF93DF9390E0FC010E
:100A0000E853F84F24918755984FFC01849188232F
:100A1000D1F090E0880F991FFC01E357F84FA591A2
:100A2000B491FC01E556F84FC591D49161110EC007
:100A30009FB7F8948C91E22FE0958E238C932881B8
:100A4000E223E8839FBFDF91CF9108958FB7F89499
:100A5000EC91E22BEC938FBFF6CF3FB7F8948091E7
:100A6000C5039091C603A091C703B091C80326B5F2
:100A7000A89B05C02F3F19F00196A11DB11D3FBFD6
:100A8000BA2FA92F982F8827BC01CD01620F711DA5
:100A9000811D911D42E0660F771F881F991F4A959F
:100AA000D1F708958F929F92AF92BF92CF92DF922B
:100AB000EF92FF924B015C010E942D056B017C01BE
:100AC0000E942D056C197D098E099F09683E7340AF
:100AD00081059105A8F321E0821A9108A108B108C7
:100AE00088EEC80E83E0D81EE11CF11C811491042D
:100AF000A104B10429F7FF90EF90DF90CF90BF9051
:100B0000AF909F908F9008952FB7F8946091C10394
:100B10007091C2038091C3039091C4032FBF0895C5
:100B200008950895089540913C0250913D0220910E
:100B30003A0230913B0242175307B4F49091E80017
:100B40009570E1F39091E80092FD19C08093F10057
:100B500080913C0290913D0201968F739927892BD9
:100B600019F48EEF8093E80080913C0290913D0251
:100B7000019690933D0280933C0281E0089580E0CD
:100B80000895EF92FF920F931F93CF93DF93F82E68
:100B9000192FE62E042F81E0860F880F0E949305FF
:100BA00083E00E949305CF2DD12FEC0EFD2EF11C7A
:100BB000CE15DF05B9F007FF13C0FE0184910E9436
:100BC0009305182F80E00E949305812321968111BF
:100BD000EFCFDF91CF911F910F91FF90EF9008958C
:100BE0008881EDCF81E0F5CFDF92EF92FF920F93F6
:100BF0001F93CF93DF93D82E8A01EB017B01E40E84
:100C0000F51ECE15DF0559F0D7FE12C0FE01849106
:100C10000E94930521968111F4CF0FEF1FEFC801B9
:100C2000DF91CF911F910F91FF90EF90DF9008958A
:100C30008881EECF0F931F93CF93DF931F92CDB791
:100C4000DEB782E0898342E450E066EF75E080E839
:100C50000E94F4050E947704DC0112960D911C910C
:100C60000115110589F0D801ED91FC910280F38105
:100C7000E02DBE016F5F7F4FC801099597FD04C04D
:100C8000F80100851185ECCF89810F90DF91CF911C
:100C90001F910F910895615030F02091F100FC01F7
:100CA00020830196F8CF289884E68093D503089591
:100CB000AF92BF92CF92DF92EF92FF920F931F936A
:100CC000CF93DF936C017B018B01040F151FEB01A8
:100CD0005E01AE18BF08C017D10759F06991D6015F
:100CE000ED91FC910190F081E02DC6010995892BD1
:100CF00079F7C501DF91CF911F910F91FF90EF9090
:100D0000DF90CF90BF90AF900895FC01538D448D3C
:100D1000252F30E0842F90E0821B930B541710F0A6
:100D2000CF96089501970895FC01918D828D9817B3
:100D300061F0A28DAE0FBF2FB11D5D968C91928D8B
:100D40009F5F9F73928F90E008958FEF9FEF0895BC
:100D5000FC01918D828D981731F0828DE80FF11D85
:100D6000858D90E008958FEF9FEF0895FC01918DA0
:100D7000228D892F90E0805C9F4F821B91098F7399
:100D80009927089587E694E00E94B60621E0892B12
:100D900009F420E0822F089580E090E0892B29F06B
:100DA0000E94C20681110C9400000895FC01A48DDC
:100DB000A80FB92FB11DA35ABF4F2C91848D90E07D
:100DC00001968F739927848FA689B7892C93A08960
:100DD000B1898C9182748C93938D848D981306C005
:100DE0000288F389E02D80818F7D80830895EF92C2
:100DF000FF920F931F93CF93DF93EC0181E0888FD5
:100E00009B8D8C8D981319C0E889F989808185FFA5
:100E100014C09FB7F894EE89FF896083E889F98947
:100E20008081827480839FBF81E090E0DF91CF91C9
:100E30001F910F91FF90EF900895F62E0B8D10E00B
:100E40000F5F1F4F0F731127E02E8C8D8E110CC07A
:100E50000FB607FCFACFE889F989808185FFF5CFC5
:100E6000CE010E94D606F1CFEB8DEC0FFD2FF11DC8
:100E7000E35AFF4FF0829FB7F8940B8FEA89FB8902
:100E800080818062CFCFCF93DF93EC01888D882360
:100E9000B9F0AA89BB89E889F9898C9185FD03C0DD
:100EA000808186FD0DC00FB607FCF7CF8C9185FFC2
:100EB000F2CF808185FFEDCFCE010E94D606E9CF2B
:100EC000DF91CF9108958F929F92AF92BF92CF9270
:100ED000DF92EF92FF920F931F93CF93DF936C01FA
:100EE0007B018A0180910B01882309F45CC0809109
:100EF000D603882309F457C08091400280FF05C0C3
:100F00008091E00082608093E000E801B12C8AEFDC
:100F1000A82E93E0892E2AE3922E209711F4BB206D
:100F2000D9F10E94660481110AC0AA94AA20D9F1BD
:100F300061E070E080E090E00E945205EECF8C17F7
:100F40001D0611F00CF08C2F9FB7F8948092E900E9
:100F50002091E80025FD02C09FBFDFCF282F30E0A1
:100F6000C21BD30BF701815020F041914093F10057
:100F7000FACFE20EF31EBB2021F09092E800B12CD4
:100F8000EBCF8091E80085FDE7CF9092E800BB248D
:100F9000B394209709F3F3CF5D9884E680933F02E2
:100FA000101611063CF081E090E0F60193838283F5
:100FB00010E000E0C801DF91CF911F910F91FF90E9
:100FC000EF90DF90CF90BF90AF909F908F9008955B
:100FD000CF93DF931F92CDB7DEB76983DC01ED912C
:100FE000FC910280F381E02D41E050E0BE016F5F93
:100FF0007F4F09950F90DF91CF9108950F931F9325
:10100000CF93DF938C01D0E0C0E0F801EC0FFD1F1F
:101010006491662341F084E095E00E94E807892B03
:1010200011F02196F2CFCE01DF91CF911F910F9158
:10103000089583E08093E9008091F200882319F0FD
:101040008AE38093E80008950E94660490E0089582
:10105000CF93DF931F92CDB7DEB7FC0184859585D2
:1010600097FD08C02FEF3FEF358724870F90DF9162
:10107000CF910895CE0101960E943C04019719F486
:10108000898190E0F3CF8FEF9FEFF0CF0F931F9305
:10109000CF93DF931F92CDB7DEB78C01FC0184851F
:1010A000958597FF0BC0CE0101960E943C040197E5
:1010B00071F4898190E0F80195878487F80184852F
:1010C00095850F90DF91CF911F910F9108958FEF2C
:1010D0009FEFF1CFFC018485958597FD0BC09FB7ED
:1010E000F89482E08093E9008091F2009FBF90E045
:1010F000019608959FB7F89482E08093E90080916B
:10110000F2009FBF90E0089520911602260F33272A
:10111000331F21323105ECF42091FD03FC0190E0F6
:1011200080E0243069F082E00895A09116022191B8
:10113000AC014A505E4FA40FB52FB11D2C93019600
:10114000861798F380911602680F6093160280E06C
:10115000089581E008951092FD0381E08093FC03DF
:101160001092D70361E082E00E948B0461E083E08B
:101170000E948B04E9EBF0E080818E7F8083808188
:101180008D7F808388E48093B80085E48093BC00E1
:101190000895CF93DF9391E0909348028823B9F0AC
:1011A000C091B800D091BA008091BC008A7B809336
:1011B000BC0060E082E00E948B0460E083E00E945B
:1011C0008B040E94AB08D093BA00C093B800DF91A3
:1011D000CF9108958F929F92AF92BF92CF92DF925C
:1011E000EF92FF920F931F93CF93DF93D09126043A
:1011F000D13208F0D7C0182FC09125040E942D05C8
:101200006B017C018091FD0381116BC082E08093B2
:10121000FD031093FC038FEF8093FB031092FA03FE
:10122000D093F903A5E0B4E0E9EDF3E080E0D81352
:1012300091C01092D8038091D803CC0FC82BC093D3
:10124000D8038091D703813009F088C01092D7036A
:101250000E942D056B017C018091D8038093BB0017
:101260008091FF0390910004A0910104B0910204C9
:10127000892B8A2B8B2BA1F00E942D050091FF0357
:101280001091000420910104309102046C197D0931
:101290008E099F09061717072807390708F442C067
:1012A0008091BC0083FDD8CF85EC8093BC000E9468
:1012B0002D056B017C018091FD03823009F450C043
:1012C0008091FB038F3F09F46FC08091FB03803254
:1012D00009F46CC08091FB03803309F469C084E099
:1012E00026C08091FF0390910004A0910104B09169
:1012F0000204892B8A2B8B2B09F484CF0E942D05A5
:101300008090FF0390900004A0900104B09002042C
:101310006C197D098E099F0986169706A806B906DD
:1013200008F070CF8091FE030E94C90885E01092FA
:1013300004041092260410920304DF91CF911F91B0
:101340000F91FF90EF90DF90CF90BF90AF909F9064
:101350008F9008959D9191938F5F69CF85EEA5CF72
:101360008091FF0390910004A0910104B0910204C8
:10137000892B8A2B8B2B09F49ECF0E942D0500917F
:10138000FF031091000420910104309102046C19B4
:101390007D098E099F09061717072807390708F0E6
:1013A0008ACFC0CF81E0C3CF80E0C1CF82E0BFCF82
:1013B00083E0BDCFE091470280914602E81730F408
:1013C000F0E0EA52FE4F808190E008958FEF9FEFAA
:1013D000089590914702809146022FEF3FEF9817B2
:1013E00048F4E92FF0E0EA52FE4F208130E09F5FA1
:1013F00090934702C9010895809146029091470257
:10140000891B990B0895CF92DF92EF92FF920F9371
:101410001F93CF93DF937C01CB018A0120910304BA
:10142000222389F0EB016B01C40ED51ECC15DD051E
:1014300069F06991D701ED91FC910190F081E02D67
:10144000C7010995F3CF642F0E948408C801DF917A
:10145000CF911F910F91FF90EF90DF90CF90089563
:10146000CF93DF931F92CDB7DEB76983209103043A
:101470002223F9F020912604203258F021E030E0B8
:10148000FC013383228390E080E00F90DF91CF91C5
:10149000089580910404E82FF0E0EB5FFB4F998101
:1014A00090838F5F809304048093260481E090E012
:1014B000ECCF61E0CE0101960E948408F7CF90E066
:1014C00080E008958F929F92AF92BF92FF920F9308
:1014D0001F93CF93DF93C82F80918505282F30E08D
:1014E000F901EE0FFF1FE20FF31FE05AFA4F908150
:1014F00096FD54C08C3008F051C061E086E00E9437
:10150000FC0480918505282F30E0F901EE0FFF1FC4
:10151000E20FF31FE05AFA4F9081907C966090831F
:1015200010928605109287052CE0622F0E9471317F
:10153000829FB001112430E020E0AB01420F531F25
:10154000FA01EE0FFF1FE40FF51FE05AFA4F9081EA
:1015500096FD16C02F5F3F4F2C30310571F781117A
:101560000FC01092800082E080938100109285006D
:1015700010928400B19A80916F00826080936F0016
:10158000E09185058E2F90E0FC01EE0FFF1FE80F24
:10159000F91FE05AFA4F808180648083AC2FC53BED
:1015A00008F0A4EBF09085058BE08F1508F44CC093
:1015B0008091870508E512E0081B110987FD139546
:1015C000000F111F000F111F80918605C8E8D0E0A1
:1015D000C81BD10987FDD395CC0FDD1FCC0FDD1FB4
:1015E0004E010D2E000CAA08BB089801012E000C1C
:1015F000440B550B281939094A095B09B0E00E94D0
:10160000082D24EB30E040E050E00E94E92C820EEF
:10161000931EA41EB51E8C169D062CF0E8018016A4
:1016200091060CF4E4012297CC0FDD1F2FB7F8943C
:101630008F2D90E0FC01EE0FFF1FE80FF91FE05A1D
:10164000FA4FD283C1832FBFDF91CF911F910F91AA
:10165000FF90BF90AF909F908F9008950E94620A74
:101660000E948405611571058105910549F060931B
:10167000C9027093CA028093CB029093CC02089562
:1016800081E090E0A0E0B0E08093C9029093CA02AC
:10169000A093CB02B093CC02089590ED980F9A30AE
:1016A00028F4082E000C990BC09708959FEB980F13
:1016B000963028F4082E000C990BC79708959FE9DF
:1016C000980F963030F4082E000C990B875591092D
:1016D00008958FEF9FEF08959C0180E057E0F90196
:1016E0002617370780F42F5F3F4F9081982748E0F7
:1016F000892F880F97FF03C0990F892F85274150A5
:10170000982FB1F7ECCF0895CF93DF93EC01BC0194
:1017100087E294E00E946C0BFE0194E0C636D90784
:1017200098F431969AE2988394E0E636F907C0F48B
:101730003196A82FB0E094E0B595A7959A95E1F77A
:10174000AB59BE4F9C91998394E0E636F90740F47B
:101750008F70A82FB0E0AB59BE4F8C91808331962B
:10176000CF01DF91CF910895CF93C42F91E0909353
:10177000030480932504109204041092260484E547
:1017800095E00E94300A6C2F84E595E00E94300AB3
:1017900081E00E94EA0891E0811190E0892FCF91C9
:1017A00008954F925F926F927F928F929F92AF9225
:1017B000BF92FF920F931F93CF93DF93D82F042FE5
:1017C000F52E122F81E080930304D093250410920C
:1017D00004041092260484E595E00E94300A80E01B
:1017E0000E94EA08C82F8111CCC00E942D054B0130
:1017F0005C018091FD03811165C081E08093FD0350
:101800008093FC039FEF9093FB031092FA03910FD8
:101810009093F9038093D8038091D803DD0FD82BE0
:10182000D093D8038091D703813009F084C01092FF
:10183000D7030E942D054B015C018091D803809352
:10184000BB008091FF0390910004A0910104B0912E
:101850000204892B8A2B8B2BA1F00E942D0540902E
:10186000FF03509000046090010470900204681916
:1018700079098A099B09461657066806790608F40D
:1018800042C08091BC0083FDD8CF85EC8093BC0022
:101890000E942D054B015C018091FD03813009F40C
:1018A0004CC08091FA03811708F069C08091FA0357
:1018B000A9EDB3E0E6EDF1E0C81749F19D919193F0
:1018C000CF5FFACF8091FF0390910004A0910104B3
:1018D000B0910204892B8A2B8B2B09F48ACF0E94AA
:1018E0002D054090FF03509000046090010470901B
:1018F0000204681979098A099B0946165706680681
:10190000790608F076CF8091FE030E94C9081092F4
:101910004702C09346021C1334C0B02EC02FDF2DE7
:1019200084E595E00E94E90989938C2F8B19811732
:10193000B8F381E027C085EEA9CF8091FF03909195
:101940000004A0910104B0910204892B8A2B8B2BF7
:1019500009F4A2CF0E942D054090FF03509000048F
:101960006090010470900204681979098A099B0942
:10197000461657066806790608F08ECFC4CF812F29
:1019800097CF80E0DF91CF911F910F91FF90BF9093
:10199000AF909F908F907F906F905F904F90089541
:1019A000EF92FF920F931F93CF93DF93CDB7DEB7E4
:1019B0002C970FB6F894DEBF0FBECDBF7C018B0114
:1019C0002CE0AE014F5F5F4F6DE288E60E94D10BC5
:1019D000882361F129813A81322723273227F701B1
:1019E000318320832B813C81322723273227338385
:1019F00022832D813E81322723273227358324837A
:101A00002F813885322723273227F801318320831D
:101A100029853A85322723273227338322832B8552
:101A20003C85322723273227358324832C960FB613
:101A3000F894DEBF0FBECDBFDF91CF911F910F9104
:101A4000FF90EF9008952F923F924F925F926F9286
:101A50007F928F929F92AF92BF92CF92DF92EF923E
:101A6000FF920F931F93CF93DF93CDB7DEB72897E5
:101A70000FB6F894DEBF0FBECDBF98878F837B0172
:101A800026E0AE014F5F5F4F67EF87E70E94D10B03
:101A9000082F882309F4E9C119812A803B808C81B1
:101AA00090E0B0E0A0E02CE0880F991FAA1FBB1FB8
:101AB0002A95D1F74D8150E070E060E034E0440FAA
:101AC000551F661F771F3A95D1F7842B952BA62BB0
:101AD000B72B2E8130E044E0359527954A95E1F704
:101AE000032E000C440B550B822B932BA42BB52BF0
:101AF0004091490250914A0270E060E02C013D01A2
:101B0000E4E07594679457944794EA95D1F7441AA2
:101B1000550A660A770AF3E0B595A79597958795D4
:101B2000FA95D1F7440F551F661F771F5C016D01B1
:101B3000A41AB50AC60AD70AA6019501A0914B02BC
:101B4000B0914C020E94132D4B015C013BE0B59417
:101B5000A794979487943A95D1F7A3019201C30172
:101B6000B2010E9461319B01AC016CE05595479533
:101B7000379527956A95D1F7A0914D02B0914E0205
:101B80000E94132D2B013C017EE0759467945794BD
:101B900047947A95D1F7480C591C6A1C7B1C4092DB
:101BA0006102509262026092630270926402A5E048
:101BB000B0E0A30192010E94082D60587F4F8F4F23
:101BC0009F4F672F782F892F992787FD9A950E941D
:101BD000682E20E030E048EC52E40E94BE2DF70170
:101BE000608371838283938373016201F594E79428
:101BF000D794C794FAEFDF1AE108F108C701B601DC
:101C0000A2E09595879577956795AA95D1F79B0161
:101C1000AC010E9461314B015C01A0915302B09173
:101C20005402AC019B018DE055954795379527955A
:101C30008A95D1F70E94132D2B013C0193E07594F6
:101C40006794579447949A95D1F7A0915102B09117
:101C50005202A70196010E94132D9B01AC015595DC
:101C6000479537952795240D351D461D571D72E163
:101C700055954795379527957A95D1F730584F4F19
:101C80005F4FA0914F02B09150020E94082D2B018E
:101C90003C01EFE07594679457944794EA95D1F727
:101CA000411451046104710409F404C1A5019401B3
:101CB0008BE055954795379527958A95D1F7A09153
:101CC0005902B0915A020E94132D4B015C01A09160
:101CD0005702B0915802A70196010E94132DDC0112
:101CE000CB01880F991FAA1FBB1F880D991DAA1D24
:101CF000BB1D6C017D0132E0F594E794D794C79445
:101D00003A95D1F7212F30E050E040E06CE0220F0F
:101D1000331F441F551F6A95D1F7822D90E0B0E024
:101D2000A0E074E0880F991FAA1FBB1F7A95D1F716
:101D3000282B392B4A2B5B2B832D90E0E4E09595E3
:101D40008795EA95E1F7092E000CAA0BBB0B282B0F
:101D5000392B4A2B5B2B8091550290915602092E0C
:101D6000000CAA0BBB0BDC01992788278C0D9D1D4D
:101D7000AE1DBF1D1CE0B595A795979587951A9543
:101D8000D1F7280F391F4A1F5B1FABECB3EF0E943E
:101D9000162D805B9C4397FD82C0660F771F881FBE
:101DA000991FA30192010E941B2D29013A01C30131
:101DB000B20123E096958795779567952A95D1F797
:101DC0009B01AC010E9461319B01AC016DE0569515
:101DD0004795379527956A95D1F7A0915F02B09105
:101DE00060020E94132D6B017C017CE0F594E79466
:101DF000D794C7947A95D1F7A3019201E2E0569562
:101E0000479537952795EA95D1F7A0915D02B09156
:101E10005E020E94132D9B01AC01FDE05595479594
:101E200037952795FA95D1F72C0D3D1D4E1D5F1D59
:101E3000C0905B02D0905C020D2C000CEE08FF08F5
:101E40002C0D3D1D4E1D5F1DA4E055954795379502
:101E50002795AA95D1F7420E531E641E751EEF8179
:101E6000F8854082518262827382802F28960FB655
:101E7000F894DEBF0FBECDBFDF91CF911F910F91C0
:101E8000FF90EF90DF90CF90BF90AF909F908F909A
:101E90007F906F905F904F903F902F900895A30197
:101EA00092010E941B2D29013A01440C551C661C0D
:101EB000771C7DCF412C512C3201D1CF0F931F9332
:101EC000CF93DF93CDB7DEB72C970FB6F894DEBF74
:101ED0000FBECDBF8C01CB01BA012AE0AE014F5F2E
:101EE0005F4F0E949D2CBE016F5F7F4FC8010E9413
:101EF0002E042C960FB6F894DEBF0FBECDBFDF9137
:101F0000CF911F910F910895FB0101900020E9F7F7
:101F10003197AF01461B570BDC01ED91FC9102801C
:101F2000F381E02D09948F929F92AF92BF920F930D
:101F30001F93CF93DF93CDB7DEB7A1970FB6F89479
:101F4000DEBF0FBECDBF19A2423008F44AE08E01B9
:101F50000F5D1F4F842E912CB12CA12CA501940153
:101F60000E941B2DE62FB901CA01EA3004F5E05D9D
:101F7000D801EE938D01232B242B252B79F790E0AC
:101F800080E0109729F0BD0184E095E00E94840F65
:101F9000A1960FB6F894DEBF0FBECDBFDF91CF91F3
:101FA0001F910F91BF90AF909F908F900895E95C23
:101FB000DFCFCF92DF92EF92FF92CF93DF9397FF25
:101FC0001BC06B017C016DE284E095E00E94E80794
:101FD000EC0166277727CB016C197D098E099F09D3
:101FE0004AE00E94930F8C0F9D1FDF91CF91FF90CD
:101FF000EF90DF90CF9008954AE0DF91CF91FF906E
:10200000EF90DF90CF900C94930F4F925F926F926E
:102010007F928F929F92AF92BF92CF92DF92EF9278
:10202000FF920F931F93CF936B017C01742EAC0131
:102030009B010E9420306CEA71E0811126C04601AC
:102040005701E894B7F82FEF3FEF4FE75FE7C5017F
:10205000B4010E94203081110CC02FEF3FEF4FE7F9
:102060005FE7C501B4010E94B92D60EB71E018165D
:1020700064F02FEF3FEF4FE75FE4C701B6010E9426
:10208000182F1816ACF464EB71E084E095E0CF9162
:102090001F910F91FF90EF90DF90CF90BF90AF9086
:1020A0009F908F907F906F905F904F900C94840FD3
:1020B0002FEF3FEF4FE75FECC701B6010E94B92D4C
:1020C00087FDE1CF20E030E0A901C701B6010E9401
:1020D000B92D10E000E087FF0AC06DE284E095E0D2
:1020E0000E94E8078C01F7FAF094F7F8F094C0E04A
:1020F00060E070E080E09FE37C1641F020E030E09B
:1021000040E251E40E94BE2DCF5FF6CFA7019601B9
:102110000E944D2D2B013C010E94372E4B015C018A
:102120004AE00E94930F7C01E00EF11ECC23C1F126
:10213000C501B4010E94662E9B01AC01C301B2012E
:102140000E944C2D4B015C016EE284E095E00E9400
:10215000E807E80EF91EC15018F120E030E040E237
:1021600051E4C501B4010E941D2F2B013C010E94C6
:10217000372E4B01B12CA12C4AE0C501B4010E94BD
:10218000930FE80EF91EC501B4010E94662E9B0153
:10219000AC01C301B2010E944C2D4B015C01DBCFAD
:1021A000C701CF911F910F91FF90EF90DF90CF90DB
:1021B000BF90AF909F908F907F906F905F904F9067
:1021C0000895CF93DF930E94FE07EC0168EB71E066
:1021D00084E095E00E94840F8C0F9D1FDF91CF91CA
:1021E00008950C94E110CF93DF93BC01990F880BF5
:1021F000990B0E94D90FEC0168EB71E084E095E047
:102200000E94840F8C0F9D1FDF91CF910895CF9274
:10221000DF92EF92FF92CF936A017B01893609F436
:10222000CFC084F5843609F47BC0883611F08F3333
:1022300079F58AED94E00E94F11080EC94E00E9420
:10224000F11082EA94E00E94F1108BE794E00E9482
:10225000F11082E594E00E94F11086E194E00E9482
:10226000F11089EC93E00E94F11083EA93E00E9460
:10227000F11088E893E0CF91FF90EF90DF90CF903E
:102280000C94F1108337E1F12CF5823709F469C021
:1022900090ED980F9A3008F08DC0C4E19C9FC02D3E
:1022A00011248C2F0E942E0B8EE095E00E94FE07D9
:1022B0006C2F70E090E080E04AE00E94930F68EBA2
:1022C00071E084E095E0CF91FF90EF90DF90CF90A8
:1022D0000C94840F843771F18A37D1F6109236034B
:1022E00010929F02C0929B02D0929C02E0929D02AB
:1022F000F0929E0281E08093910288E295E02AC0EC
:1023000084E10E942E0B86ED95E00E94FE0784E199
:1023100090E0CF91FF90EF90DF90CF900C94F3106E
:1023200088E70E942E0B82EB95E00E94FE0788E76B
:1023300090E0EFCF81E080933003C0921E03D092F3
:102340001F03E0922003F092210384E10E942E0BF0
:102350008DE392E0CF91FF90EF90DF90CF900C94BF
:10236000E1108BE795E00E94E11081E080939002FC
:10237000C0927402D0927502E0927602F0927702D7
:10238000C0927002D0927102E0927202F0927302D7
:1023900010926702109268021092690210926A020B
:1023A00010926B0210926C0210926D0210926E02EB
:1023B00010926F02CF91FF90EF90DF90CF90089531
:1023C00083E793E00E94E11086E693E00E94FE0717
:1023D0008BE696E00E94E11081E593E00E94FE0703
:1023E00085E796E00E94E11085E293E00E94FE07F7
:1023F0006091A0027091A1028091A2029091A3022B
:102400000E94D90F68EB71E084E095E00E94840F90
:102410008DEF92E00E94FE0764E170E080E090E0C2
:102420000E94D90F6FE284E095E00E94E80788E7F8
:1024300090E00E94F31086EE92E00E94FE07609109
:102440003703709138038091390390913A0342E049
:102450000E94051068EB71E084E095E00E94840F13
:1024600088EC92E00E94FE0760913B0370913C0370
:1024700090E080E040E10E94930F68EB71E084E01F
:1024800095E00E94840F8EE892E00E94FE07609122
:102490003D0370913E0390E080E04AE00E94930F7C
:1024A00068EB71E084E095E00E94840F8FE792E092
:1024B0000E94FE078CE492E04DCF67E274E087E66D
:1024C00094E00E94840F68EB71E087E694E00E943C
:1024D000840F81E00895CF93DF93C42F23E22093EC
:1024E0002704AB01BC0188E294E00E945E0F24E067
:1024F0008636920720F42CE7DC012C930196EBE35F
:10250000F2E0C03148F4EC2FF0E0EE0FFF1FEC5E7C
:10251000FE4F0190F081E02D2491222349F0319665
:10252000B4E086369B0720F4DC012D93CD01F4CF77
:102530000E94840BEC01188287E694E00E948506D5
:10254000C752D440CE5FC817190609F024F4DF91B2
:10255000CF910C945D1280E0DF91CF910895CF93DD
:10256000C5E0809165028823E1F0E0916602CE9F8C
:10257000F0011124EE53FE4F6081718182819381BD
:1025800044810E946B12882361F0809166028F5F04
:10259000837080936602809165028150809365020A
:1025A000E0CFCF910895AF92BF92CF92DF92EF929A
:1025B000FF920F931F93CF93C82F0E9484056B0146
:1025C0007C01809129038130E1F50091FE02A02E6B
:1025D000B12C8AE0089F800111240A521D4FF80196
:1025E000C082D182E282F382C48383E085830E9429
:1025F0008405F8016683778380879187FFEFAF1AA0
:10260000BF0A83E0A822BB24A092FE020E94AF1260
:1026100080916502882371F0809165028430A9F56C
:1026200080913D0390913E03019690933E038093E9
:102630003D0307C04C2FC701B6010E946B128823CF
:1026400059F386E392E00E94FE074AE0C701B60113
:102650000E94930F83E392E00E94FE078BE392E0D7
:10266000C03140F4EC2FF0E0EE0FFF1FEC5EFE4FA8
:1026700080819181CF911F910F91FF90EF90DF901A
:10268000CF90BF90AF900C94E110E0916602E80FFC
:10269000E37095E0E99FF0011124EE53FE4FC082F4
:1026A000D182E282F382C4838F5F80936502C9CFB7
:1026B000CF93C82F88E70E94620A82E08093350397
:1026C0000E9484056093C4027093C5028093C60281
:1026D0009093C7021092C8028AE0C1118EE0CF9198
:1026E0000C94D31290913F039817E9F080933F0325
:1026F000833089F028F4813049F0823051F0089518
:10270000853069F050F0873061F0089586E00C94D0
:10271000D31287E0FCCF88E0FACF89E0F8CF8BE0D6
:10272000F6CF8CE0F4CF089520913B0330913C0329
:10273000A90148235923452B69F4282B392B3093C1
:102740003C0320933B0387709927892B19F08DE078
:102750000C94D312089585ED8093BC008091FF0303
:1027600090910004A0910104B09102040796A11D6C
:10277000B11D23E0B695A795979587952A95D1F732
:102780002091BC0024FD03C01092FD0308954091E8
:10279000FF03509100046091010470910204452BE5
:1027A000462B472B69F30097A105B10541F02AE2BA
:1027B0002A95F1F700C00197A109B109E1CF8091F5
:1027C000FE030C94C9081F920F920FB60F921124AA
:1027D0002F933F938F939F93AF93BF938091C103A8
:1027E0009091C203A091C303B091C4033091C00380
:1027F00023E0230F2D3758F50196A11DB11D20931D
:10280000C0038093C1039093C203A093C303B0930A
:10281000C4038091C5039091C603A091C703B091F2
:10282000C8030196A11DB11D8093C5039093C603F3
:10283000A093C703B093C803BF91AF919F918F91AD
:102840003F912F910F900FBE0F901F90189526E883
:10285000230F0296A11DB11DD2CF1F920F920FB66A
:102860000F9211248F939F938091E1009091E1004A
:10287000937F9093E10083FF0FC01092E90091E0F5
:102880009093EB001092EC0092E39093ED00109285
:10289000D60398E09093F00082FF22C093E09093DB
:1028A000E9009091F200992319F09AE39093E800DF
:1028B00090913F02992341F090913F029150909363
:1028C0003F02911101C05D9A9091D503992341F087
:1028D0009091D50391509093D503911101C0289AFE
:1028E00084FF18C08091E2008E7E81608093E200B8
:1028F0008091E1008F7E8093E100809140028E7E86
:102900008061809340029F918F910F900FBE0F9036
:102910001F90189580FFF7CF8091E2008E7E806136
:102920008093E2008091E1008E7E8093E1008091AF
:1029300040028E7E8160E5CF1F920F920FB60F92FC
:102940001124CF92DF92EF92FF920F931F932F9358
:102950003F934F935F936F937F938F939F93AF9327
:10296000BF93EF93FF93CF93DF93CDB7DEB76C9711
:10297000DEBFCDBF1092E9008091E80083FF25C043
:1029800068E0CE0145960E944B0682EF8093E800F6
:102990008D8987FF39C09091E80090FFFCCF982F78
:1029A000907609F034C19E894F89588D2F89F88C13
:1029B000911131C0803861F5809141028093F1001E
:1029C0001092F1008EEF8093E8006C960FB6F894A9
:1029D000DEBF0FBECDBFDF91CF91FF91EF91BF91D1
:1029E000AF919F918F917F916F915F914F913F91A7
:1029F0002F911F910F91FF90EF90DF90CF900F904C
:102A00000FBE0F901F9018959EEF9093E800C7CFD0
:102A10001092F100D5CF913059F48111D3CF4130CC
:102A2000510581F6809141028D7F80934102CACF8A
:102A3000933049F48111C6CF4130510519F6809188
:102A400041028260F2CF953041F48091E80080FF2E
:102A5000FCCF20682093E300B5CF963009F0A9C0E1
:102A60000B8D1C8D22E01092E90010923D02109215
:102A70003C02F2122EC010923B0210923A020E94C7
:102A80001A061F8299E09983FA8291E09E8390EA68
:102A900098879AEF998720913C0230913D02275FF9
:102AA0003F4F3C832B838D831092E90010923D02AF
:102AB00010923C0210933B0200933A0249E050E02E
:102AC000BE016F5F7F4F80E00E94F4050E941A06EE
:102AD00079CF10933B0200933A020E947704DC0105
:102AE00012960D911C910115110509F451C1D801DF
:102AF000ED91FC910480F581E02DBE016B5E7F4F6E
:102B0000C8010995009709F03EC1F80100851185BB
:102B1000EACFF3E0FF120EC08F89882309F440C08A
:102B2000823061F440E860E18AE596E00E94C105E8
:102B3000811148CF81E28093EB0047CF813029F4A7
:102B400040E86BE08EE496E0F1CF833099F70E9485
:102B50007704DC011296ED90FC908E010F5F1F4F01
:102B60006801E114F10479F0D701ED91FC91068040
:102B7000F781E02DB801C7010995080F111DF70174
:102B8000E084F184EECFD8011C92F6010190002080
:102B9000E9F73197BF016C197D0940E0C601C6CF46
:102BA00068E376E0FB01449150E080E80E94F40580
:102BB00009CF973009F4BECF983021F481E080939B
:102BC000F10000CF993009F0FDCE837009F0B2CF4B
:102BD000E5E3F1E081E031E096E32191222371F019
:102BE0008093E9003093EB00DF0111972C91209343
:102BF000EC009093ED008F5F873079F78EE780933C
:102C0000EA001092EA008F898093D603DBCE8B8D89
:102C10009C8D1092E90010923D0210923C0290931C
:102C20003B0280933A02898D811192C08E899D89E1
:102C3000913A49F4813209F07DCF47E050E064E0F9
:102C400071E080E0B3CF913209F074CF833269F440
:102C50008F89988DB0E0A0E08093000190930101EE
:102C6000A0930201B0930301ADCE803269F480914C
:102C7000E80082FFFCCF67E084E091E00E944B0611
:102C80008BEF8093E8009ECE823209F09BCE8F8935
:102C900080930B01EEEFFFE7859194918B3F9C4D64
:102CA00051F1E0E0F8E08091040190910501A091DC
:102CB0000601B0910701803B9440A105B105F1F4F4
:102CC00080910B0180FD1AC0EE3F8AE0F80789F57C
:102CD00087E797E7918380838091600080933E022D
:102CE00088E19BE00FB6F894A895809360000FBE32
:102CF0009093600067CEEEEFFAE0D5CF80819181AE
:102D00008737974709F05ECEA8958091600088616B
:102D10008093600080913E0280936000EE3F2AE045
:102D2000F20789F08091FE0A9091FF0A91838083D7
:102D300049CE808191818737980751F29093FF0A9D
:102D40008093FE0AC5CF1092FF0A1092FE0A3ACE77
:102D50000E947704DC0112960D911C91011511055A
:102D600009F4E8CED801ED91FC910190F081E02DBD
:102D7000BE016B5E7F4FC8010995811123CEF8011A
:102D800000851185EBCF181619060CF41BCED2CE98
:102D9000F1E0FF12BECE6CE376E004CF1F920F92FB
:102DA0000FB60F9211242F933F934F935F936F931E
:102DB0007F938F939F93AF93BF93EF93FF9387E698
:102DC00094E00E94D606FF91EF91BF91AF919F9141
:102DD0008F917F916F915F914F913F912F910F90C4
:102DE0000FBE0F901F9018951F920F920FB60F9263
:102DF00011242F938F939F93EF93FF93E091770488
:102E0000F09178048081E0917D04F0917E0482FD50
:102E10001BC09081809180048F5F8F73209181040B
:102E2000821741F0E0918004F0E0E959FB4F958F63
:102E300080938004FF91EF919F918F912F910F903C
:102E40000FBE0F901F9018958081F4CF1F920F92A4
:102E50000FB60F9211242F933F934F935F936F936D
:102E60007F938F939F93AF93BF93CF93DF93EF9312
:102E7000FF9380913902C0918405D0E087FF24C080
:102E80001092850010928400809139028F5F8093A8
:102E9000390280913902082E000C990B8C179D077E
:102EA00024F4809139028C30C4F180918400909197
:102EB0008500049680349C4908F47AC0809184008F
:102EC00090918500049676C080913902082E000CFE
:102ED000990B8C179D07C4F6E09139028E2FEE0FE7
:102EE000990BFC01EE0FFF1FE80FF91FE05AFA4F94
:102EF000808186FFC9CFE09139028E2FEE0F990BAA
:102F0000FC01EE0FFF1FE80FF91FE05AFA4F808116
:102F100060E08F730E948B04B7CF209184003091C2
:102F20008500E09139028E2FEE0F990BFC01EE0F18
:102F3000FF1FE80FF91FE05AFA4F81819281820F3B
:102F4000931F9093890080938800E09139028E2F1F
:102F5000EE0F990BFC01EE0FFF1FE80FF91FE05A6F
:102F6000FA4F808186FF11C0E09139028E2FEE0F5B
:102F7000990BFC01EE0FFF1FE80FF91FE05AFA4F03
:102F8000808161E08F730E948B04FF91EF91DF914C
:102F9000CF91BF91AF919F918F917F916F915F91F1
:102FA0004F913F912F910F900FBE0F901F9018954A
:102FB00080E49CE990938900809388008FEF809350
:102FC0003902E3CF1F920F920FB60F9211242F9365
:102FD0003F934F935F936F937F938F939F93AF93A1
:102FE000BF93EF93FF938091B900887F803609F4F7
:102FF0004AC0F0F5883209F4A7C018F5803109F409
:103000009BC0B8F4882309F4F9C0883009F494C04F
:10301000FF91EF91BF91AF919F918F917F916F91B0
:103020005F914F913F912F910F900FBE0F901F9086
:103030001895883109F488C0803251F78093FB03DA
:1030400014C0803409F49DC040F48033B9F3883350
:10305000F9F68093FB0385ECB0C0803509F485C098
:10306000883509F496C0883499F60E94AB13D0CF06
:10307000883909F48CC038F5883729F050F488363F
:1030800011F0803729F683E08093FD031092380217
:1030900057C0883809F47BC0803919F0803809F0AE
:1030A000B7CF80913802803208F071C0E0913802C9
:1030B00081E08E0F809338028091BB00F0E0E85EE3
:1030C000FD4F80833DC0803B39F0E0F4803A09F445
:1030D00079C0883A09F09CCF84E08093FD03109278
:1030E000170210921602E0914402F09145020995F0
:1030F0008091160281110FC081E080931602109218
:10310000F60109C0803C09F4A6CF883C09F4A3CF9E
:10311000883B09F07DCFE091170281E08E0F80930C
:103120001702F0E0EA50FE4F80818093BB0090913F
:1031300017028091160229C08091D8038093BB00AA
:1031400085EC8093BC0064CF9091FA038091F903E1
:10315000981758F5E091FA0381E08E0F8093FA03F7
:10316000F0E0E752FC4F8081E9CFE091FA0381E083
:103170008E0F8093FA038091BB00F0E0E752FC4F82
:1031800080839091FA038091F9039817C8F285E83B
:10319000D8CFE091FA0381E08E0F8093FA038091FB
:1031A000BB00F0E0E752FC4F80838091FC0381116B
:1031B0005CCF81E08093D70384EA8093BC001092B7
:1031C000FD0326CF85EC8093BC001092FD03809117
:1031D0003802803230F4E0913802F0E0E85EFD4FD2
:1031E00010826091380270E0E0914202F091430257
:1031F00088E192E00995109238020ACF1092FB0301
:1032000034CF10926A041092690488EE93E0A0E033
:10321000B0E080936B0490936C04A0936D04B09322
:103220006E042AE731E030936804209367042DECA4
:1032300030E030937404209373042CEC30E030932E
:1032400076042093750428EC30E0309378042093C2
:10325000770429EC30E030937A04209379042AEC47
:1032600030E030937C0420937B042EEC30E03093EC
:103270007E0420937D0410928004109281041092A9
:103280008204109283041092070510920605809321
:10329000080590930905A0930A05B0930B052CE847
:1032A00031E030930505209304052FEF3FEF309375
:1032B0001105209310051092570510925605809322
:1032C000580590935905A0935A05B0935B058EE974
:1032D00091E09093550580935405809184058C303E
:1032E00098F491E0980F909384058093850590E081
:1032F000FC01EE0FFF1FE80FF91FE05AFA4F88EBB1
:103300009BE09283818308958FEF809385050895D4
:10331000CF93DF93CDB7DEB7A9970FB6F894DEBF92
:103320000FBECDBF789484B5826084BD84B58160C2
:1033300084BD85B5826085BD85B5816085BD809180
:103340006E00816080936E001092810080918100F8
:1033500082608093810080918100816080938100F0
:1033600080918000816080938000809191008260D4
:103370008093910080919100816080939100809171
:1033800090008160809390008091C1008460809360
:10339000C1008091C10082608093C1008091C10012
:1033A00081608093C1008091C30081608093C300DD
:1033B0008091C00082608093C0008091C2008160D3
:1033C0008093C20080917A00846080937A0080911B
:1033D0007A00826080937A0080917A008160809385
:1033E0007A0080917A00806880937A001092D603E8
:1033F00010924102109240028091D7008160809328
:10340000D70080EA8093D80089B5806189BD89B5ED
:10341000826089BD09B400FEFDCF61E070E080E00C
:1034200090E00E9452058091D8008F7C806180934B
:10343000D8008091E000807F8093E0008091E100DF
:103440008E7E8093E1008DE08093E200559A209A71
:103450008FEF9FEF909311058093100561E085E059
:103460000E94FC0460E085E00E948B0410923C0303
:1034700010923B0310921A0310921B0310921C032C
:1034800010921D031092190380E00E94D31260E095
:1034900084E10E94FC0410924702109246021092AE
:1034A0000404109226040E94AB0881E995E09093F1
:1034B00045028093440282E995E090934302809311
:1034C00042028CE08093B8001092480288EB9BE0A7
:1034D000A0E0B0E08093FF0390930004A093010468
:1034E000B093020481E08093FE0310927802109260
:1034F000790210927A0210927B0210927C02109252
:103500007D0210927E0210927F0210928002109231
:10351000810210928202109283021092A0021092F5
:10352000A1021092A2021092A30210928C02109299
:103530008D0210928E0210928F02109292021092BF
:10354000360310929102198240E06FE788E60E94EC
:10355000B40B21E08E010F5F1F4F1801A80160E03E
:1035600088E60E94D10B082F882309F461C0898165
:103570008A3E09F03DC340E866E088E60E94B40B4D
:1035800064E670E080E090E00E94520540E06FE762
:1035900088E60E94B40B41E066E088E60E94B40B26
:1035A0006EE170E080E090E00E94520540E067E04C
:1035B00088E60E94B40B6EE170E080E090E00E942B
:1035C000520540E26FE788E60E94B40B80E090E08D
:1035D000A0E0B5E48093100190931101A093120133
:1035E000B093130147E064E188E60E94B40B83E3E3
:1035F00093E3A3E8B1E480930C0190930D01A093B1
:103600000E01B0930F0147E061E088E60E94B40B21
:1036100040E060E088E60E94B40B6EE170E080E07C
:1036200090E00E94520540E06FE788E60E94B40BEC
:10363000198E21E0AE01475E5F4F60ED87E70E9483
:10364000D10B8111D7C210E08FEA96E00E94FE07ED
:103650008BE696E00E94FE0788E996E0011102C021
:103660008CE896E00E94E1108CE996E00E94FE074B
:1036700085E796E00E94FE0788E896E0111102C0F7
:103680008CE796E00E94E11001110C94212C84E05B
:1036900090E00E949413111104C082E090E00E9417
:1036A000941381E090E00E94941310E064EF71E0C5
:1036B00080E090E00E945205109235031092C402FF
:1036C0001092C5021092C6021092C7021092C80250
:1036D00084E10E94620A6CE271E080E090E00E9466
:1036E0005205E09185058E2F90E0FC01EE0FFF1F43
:1036F000E80FF91FE05AFA4F80818F7B8083109288
:10370000CD02E0917704F091780482E08083E0912B
:103710007304F09174041082E0917504F0917604C2
:103720008FEC808310927F04E0917B04F0917C0405
:1037300086E08083E0917904F0917A048081806151
:103740008083E0917904F0917A048081886080839D
:10375000E0917904F0917A04808180688083E0911F
:103760007904F0917A0480818F7D808381E0809359
:10377000290310923E0310923D031092D50210923D
:10378000D402109266021092650284E00E94D31265
:10379000112309F4F5C010913B0319A712FDA3C032
:1037A00000E410E0C12CD12C76014601570126011E
:1037B0003701B101CE0149960E94D00C882389F1CE
:1037C00069817A81072E000C880B990B0E94682E64
:1037D0009B01AC01C301B2010E944D2D2B013C01A4
:1037E0006B817C81072E000C880B990B0E94682E40
:1037F0009B01AC01C501B4010E944D2D4B015C0140
:103800006D817E81072E000C880B990B0E94682E1B
:103810009B01AC01C701B6010E944D2D6B017C01DB
:103820001F5F65E070E080E090E00E94520501506B
:1038300009F0BFCF112309F456C020910C0130913B
:103840000D0140910E0150910F012DA33EA34FA3F6
:1038500058A7612F70E090E080E00E94682E69A375
:103860007AA38BA39CA39B01AC01C301B2010E946C
:10387000BE2D2DA13EA14FA158A50E94BE2D609343
:10388000800270938102809382029093830229A127
:103890003AA14BA15CA1C501B4010E94BE2D2DA18E
:1038A0003EA14FA158A50E94BE2D60937C0270934B
:1038B0007D0280937E0290937F0229A13AA14BA1C1
:1038C0005CA1C701B6010E94BE2D2DA13EA14FA152
:1038D00058A50E94BE2D6093780270937902809360
:1038E0007A0290937B0289A481FC4AC008E210E02E
:1038F00070E3C72E75E7D72EE12CF12CE0EC4E2EAD
:10390000E4ED5E2E66246394712C812C912C54017D
:10391000B101CE0149960E94230D882311F1898DB2
:103920009A8DAB8DBC8DAC01BD01405355476109EB
:10393000710941395F456140710598F4880E991EFF
:10394000AA1EBB1E84159505A605B70514F42C0107
:103950003D01C816D906EA06FB0614F46C017D0188
:103960001F5F64E170E080E090E00E94520501502A
:1039700079F6143108F0BEC182E090E00E94941301
:1039800010923F031092CE021092CF021092D002FA
:103990001092D1021092310310923203109233032D
:1039A000109234031092B4021092B5021092B60233
:1039B0001092B7021092B0021092B1021092B202AD
:1039C0001092B3021092AC021092AD021092AE02AD
:1039D0001092AF021092A8021092A9021092AA02AD
:1039E0001092AB021092A4021092A5021092A602AD
:1039F0001092A7021092BC021092BD021092BE0259
:103A00001092BF021092C0021092C1021092C20224
:103A10001092C3021092B8021092B9021092BA0228
:103A20001092BB0280913B0390913C0387709927D1
:103A3000892B21F085EB96E00E94E1101092D302D1
:103A40001092D20280913B0390913C03877099279A
:103A5000892B09F485C188E00E947213109230030B
:103A600010921E0310921F03109220031092210344
:103A70000E94840560938603709387038093880374
:103A80009093890360938A0370938B0380938C03D4
:103A900090938D036093BC037093BD038093BE032A
:103AA0009093BF0360934103709342038093430359
:103AB0009093440360937E0370937F03809380030D
:103AC00090938103609382037093830380938403B4
:103AD000909385038E01015E1F4F18A30F8F0E94E4
:103AE00084052B013C018091BC039091BD03A09102
:103AF000BE03B091BF0320919002B301A201481B05
:103B0000590B6A0B7B0BDB01CA01222309F4DCC5CC
:103B10004497A105B10508F42BC24092BC03509212
:103B2000BD036092BE037092BF03809074029090B8
:103B30007502A0907602B090770280917002909109
:103B40007102A0917202B091730273016201C81AEE
:103B5000D90AEA0AFB0AC701B6010E94662E20E0D4
:103B600030E04AE754E40E94BE2D6B017C01409294
:103B7000700250927102609272027092730220E0A1
:103B800030E0A9010E94B92D18160CF0F2C020E017
:103B900030E040E05FE3C701B6010E94182F18161D
:103BA0000CF4E7C093018201081919092A093B099D
:103BB00009A31AA32BA33CA380916F02882309F4C5
:103BC000DCC010926B0210926C0210926D02109287
:103BD0006E021092670210926802109269021092AF
:103BE0006A02C12CD12C00E8E02E0FE3F02E08C1B0
:103BF00000E01ECD898D883509F025CD46EB60EEBD
:103C000087E70E94B40B6AE070E080E090E00E94D9
:103C1000520528E1A10168E887E70E94D10B182F1F
:103C2000882309F410CD29813A8130934A022093E8
:103C300049028B819C8190934C0280934B028D8131
:103C40009E8190934E0280934D028F819885909330
:103C5000500280934F0249855A85509352024093F7
:103C600051024B855C8550935402409353024D851D
:103C70005E8550935602409355024F855889509364
:103C800058024093570249895A8950935A024093E7
:103C900059024B895C8950935C0240935B024D89C9
:103CA0005E8950935E0240935D024F89588D509318
:103CB000600240935F0210926102109262021092C1
:103CC000630210926402232B09F4BDCC892B09F402
:103CD000BACC48E065EF87E70E94B40B4FE264EF8F
:103CE00087E70E94B40B62E370E080E090E00E94FE
:103CF0005205AACC212F30E050E040E0C501B401CC
:103D00000E94E92C2093A0023093A1024093A202CA
:103D10005093A302542F432F322F22272093930234
:103D2000309394024093950250939602C418D5089C
:103D3000E608F70839E7C316D104E104F10424F0DA
:103D400080E091E00E94941310928C0210928D02F8
:103D500010928E0210928F0281E08093920210CE18
:103D600080913503811103C081E08093350381E0A8
:103D700073CEC12CD12C760115CF80906702909024
:103D80006802A0906902B0906A0229A13AA14BA1F1
:103D90005CA12A3F31054105510508F03BC420E0F4
:103DA00030E04CE852E4C701B6010E941D2F20917B
:103DB0006B0230916C0240916D0250916E020E9434
:103DC0004D2D9B01AC0120936B0230936C0240930C
:103DD0006D0250936E02C701B6010E941D2FA5010E
:103DE00094010E944D2D6093670270936802809346
:103DF000690290936A02C12CD12CE12C91E4F92E36
:103E000020E030E0A9016091670270916802809122
:103E1000690290916A020E94B92D1816CCF0109296
:103E20006702109268021092690210926A02109260
:103E30006B0210926C0210926D0210926E0281E081
:103E400080936F02C12CD12C10E8E12E1FE3F12EDC
:103E500060916702709168028091690290916A0294
:103E600060939603709397038093980390939903BC
:103E7000C092A603D092A703E092A803F092A903F0
:103E800010929A0310929B0310929C0310929D0330
:103E900010929E0310929F031092A0031092A10310
:103EA000C092A203D092A303E092A403F092A503D0
:103EB0001092AA031092AB031092AC031092AD03C0
:103EC0001092AE031092AF031092B0031092B103A0
:103ED0001092B2031092B3031092B4031092B50380
:103EE0002DEC3CEC4CE351E40E941D2F0E94302E3F
:103EF0000091A0021091A1022091A2023091A30290
:103F000048015901861A970AA80AB90AD501C401BD
:103F100080938E0390938F03A0939003B0939103AB
:103F2000A12CB12CB0EACB2EB1E4DB2EA0929203EF
:103F3000B0929303C0929403D092950381E0809352
:103F4000BB038093BA034092B6035092B7036092CA
:103F5000B8037092B903C9A0DAA0EBA0FCA001E2FB
:103F6000C0160EE4D006E104F10410F010929002A5
:103F700080913F03813009F0CCC080919002811183
:103F8000C8C08091BA03882309F4C3C08091A002FD
:103F90009091A102A091A202B091A3021816190655
:103FA0001A061B060CF0B5C080919F02882351F0C1
:103FB00010929F0240929B0250929C0260929D023E
:103FC00070929E028091BB03882309F48CC080917B
:103FD000B6039091B703A091B803B091B903409193
:103FE0009702509198026091990270919A028417F9
:103FF0009507A607B70709F476C040919B02509138
:104000009C0260919D0270919E0253014201841AAC
:10401000950AA60AB70AB501A401483B0BE0500770
:104020006105710508F45FC0E09136038093970243
:1040300090939802A0939902B0939A0200919302F0
:1040400010919402209195023091960280918E03F6
:1040500090918F03A0919003B0919103BA2FA92F53
:10406000982F8827801B910BA20BB30BFAE0E1116C
:1040700001C0F4E004C0B595A79597958795FA958A
:10408000D2F7800F911FA21FB31F809393029093CA
:104090009402A0939502B0939602892F9A2FAB2F8A
:1040A000BB27A7FDBA958093A0029093A102A0938D
:1040B000A202B093A302E1112CC040345F4161051C
:1040C0007105A8F01092920281E0809336038091EE
:1040D0003B0390913C039E7F90933C0380933B0372
:1040E0008FE00E94D31280913603811112C080911B
:1040F000910281110EC020E3421625E752066104A9
:10410000710438F080E091E00E94941381E0809384
:1041100091028091860390918703A0918803B091CA
:104120008903B301A201481B590B6A0B7B0BDB010E
:10413000CA014497A105B10508F491C040928603D5
:104140005092870360928803709289031091BB0399
:1041500000913F03112309F43FC08091C002909168
:10416000C102A091C202B091C302C0909603D09048
:104170009703E0909803F09099030097A105B1058B
:1041800009F0B2C4C092BC02D092BD02E092BE025D
:10419000F092BF024092C0025092C1026092C202ED
:1041A0007092C302A70196016091310370913203AE
:1041B00080913303909134030E94B92D87FF0CC086
:1041C0008EEF800F823040F4C0923103D0923203E0
:1041D000E0923303F0923403033009F4EFC508F0A2
:1041E000BBC4013009F4F4C4023009F4A5C5C09081
:1041F000CE02D090CF02E090D002F090D102C11454
:10420000D104E104F10459F1A30192012C193D09F3
:104210004E095F0969017A0180913503823069F0A6
:1042200038EBC3163BE0D306E104F10430F081E043
:104230000E94581385E00E94721380913F038730DB
:1042400071F040E6C4164AEED406E104F10438F0F9
:1042500080E890E00E94941387E00E94721380919E
:10426000C9029091CA02A091CB02B091CC020097F2
:10427000A105B10519F153014201881A990AAA0A48
:10428000BB0AD501C401803B9440A105B105B0F043
:10429000E09185058E2F90E0FC01EE0FFF1FE80FE7
:1042A000F91FE05AFA4F80818F7B80831092C902F8
:1042B0001092CA021092CB021092CC0220913503C8
:1042C000223051F58091C802811126C08091C4022C
:1042D0009091C502A091C602B091C702B301A2019C
:1042E000481B590B6A0B7B0BDB01CA01803B9440D6
:1042F000A105B10588F0E09185058E2F90E0FC01C5
:10430000EE0FFF1FE80FF91FE05AFA4F80818F7BF5
:10431000808381E08093C80280918203909183031F
:10432000A0918403B091850373016201C81AD90A70
:10433000EA0AFB0A80917E0390917F03A09180039B
:10434000B0918103B301A201481B590B6A0B7B0B8F
:1043500088E2C816D104E104F10430F4483C510568
:104360006105710508F4ADC64092450350924603BD
:1043700060924703709248038091CE029091CF02E1
:10438000A091D002B091D1020097A105B10541F0F2
:1043900053014201881A990AAA0ABB0AD501C4012D
:1043A0008093490390934A03A0934B03B0934C032B
:1043B0008091D2029091D30201969093D302809380
:1043C000D20290934E0380934D0380913F038093DC
:1043D0004F032093500380918E0390918F03A091FF
:1043E0009003B09191038093510390935203A09353
:1043F0005303B09354038091920390919303A0913F
:104400009403B09195038093550390935603A09322
:104410005703B09358038091960390919703A0910E
:104420009803B09199038093590390935A03A093F2
:104430005B03B0935C038091310390913203A091B0
:104440003303B091340380935D0390935E03A09394
:104450005F03B093600380919A0390919B03A091B6
:104460009C03B0919D038093610390936203A0939A
:104470006303B093640380919E0390919F03A09186
:10448000A003B091A1038093650390936603A0936A
:104490006703B09368038091A2039091A303A09156
:1044A000A403B091A5038093690390936A03A0933A
:1044B0006B03B0936C038091AA039091AB03A0911E
:1044C000AC03B091AD0380936D0390936E03A09302
:1044D0006F03B09370038091AE039091AF03A091EE
:1044E000B003B091B1038093710390937203A093D2
:1044F0007303B09374038091B2039091B303A091BE
:10450000B403B091B5038093750390937603A093A1
:104510007703B09378038091CD0280937903E09183
:104520002903E0937A0380913B0390913C039C0123
:1045300026703327232B09F4D8C422E020937B0371
:1045400090937D0380937C0308E2C016D104E104BC
:10455000F10440F0409282035092830360928403FE
:1045600070928503483C51056105710508F4A9C5A1
:1045700040927E0350927F03609280037092810389
:10458000E13009F076C60E94AF124091D4025091FA
:10459000D5024F5F5F4F5093D5024093D40270E035
:1045A00060E087E294E00E945E0F14E08636910797
:1045B00020F42CE7DC012C930196409145035091A7
:1045C000460360914703709148030E945E0FB4E078
:1045D00086369B0720F42CE7FC0120830196E091AE
:1045E0004F03E93008F083C4F0E0EE0FFF1FE55BF6
:1045F000FE4F0190F081E02DDC018D018491882334
:1046000009F478C4319624E0A636B20708F07AC4DB
:104610008D93F3CF809135038230B9F123EC35EFE0
:104620004CE151E4C701B6010E941D2F9B01AC0172
:1046300060916B0270916C0280916D0290916E029C
:104640000E944C2D9B01AC0120936B0230936C02B5
:1046500040936D0250936E02C701B6010E941D2F58
:10466000A50194010E944D2D60936702709368022A
:104670008093690290936A028AE9C82E89E9D82E4C
:1046800089E1E82E8EE3F82EBBCB40E050E060EAF3
:1046900070EC40936B0250936C0260936D027093C8
:1046A0006E029A01AB01C701B6010E941D2FA50140
:1046B00094010E944D2D609367027093680280936D
:1046C000690290936A028DCA4497A105B105A8F0CA
:1046D0004092BC035092BD036092BE037092BF0330
:1046E000B101CE0149960E94D00C811131C01092C7
:1046F000BA0384E090E00E94941380918A03909121
:104700008B03A0918C03B0918D0363015201A81A11
:10471000B90ACA0ADB0AD601C5018897A105B10505
:1047200008F426CC40928A0350928B0360928C034B
:1047300070928D03B101CE0149960E94230D811123
:104740001FC11092BB0382E090E00E94941310CC32
:1047500020918A0230918B02A901440F551FFE015E
:104760007996A4E8B2E0819191916D917D91861B3B
:10477000970B820F931F4817590708F0FAC086E07D
:10478000FE017996A4E8B2E001900D928A95E1F7D6
:1047900081E080939F02C0901001D0901101E090C1
:1047A0001201F090130180900C0190900D01A090E7
:1047B0000E01B0900F0189A29AA2ABA2BCA2698D92
:1047C0007A8D072E000C880B990B0E94682EA7018A
:1047D00096010E94BE2D6DA37EA38FA398A7609320
:1047E0009A0370939B0380939C0390939D036B8D1E
:1047F0007C8D072E000C880B990B0E94682EA70158
:1048000096010E94BE2D4B015C0180929E03909206
:104810009F03A092A003B092A1036D8D7E8D072E01
:10482000000C880B990B0E94682EA70196010E942C
:10483000BE2D6B017C01C092A203D092A303E09233
:10484000A403F092A50369817A81072E000C880BDE
:10485000990B0E94682E29A13AA14BA15CA10E944C
:10486000BE2D2091800230918102409182025091B0
:1048700083020E944C2D6093AA037093AB03809334
:10488000AC039093AD036B817C81072E000C880BE9
:10489000990B0E94682E29A13AA14BA15CA10E940C
:1048A000BE2D20917C0230917D0240917E0250917C
:1048B0007F020E944C2D6093AE037093AF038093F0
:1048C000B0039093B1036D817E81072E000C880B9D
:1048D000990B0E94682E29A13AA14BA15CA10E94CC
:1048E000BE2D209178023091790240917A02509148
:1048F0007B020E944C2D6093B2037093B3038093AC
:10490000B4039093B5032DA13EA14FA158A5CA01B0
:10491000B9010E941D2F69A37AA38BA39CA3A501B3
:104920009401C501B4010E941D2F9B01AC0169A136
:104930007AA18BA19CA10E944D2D4B015C01A70186
:104940009601C701B6010E941D2F9B01AC01C50154
:10495000B4010E944D2D0E94E02F6093A603709336
:10496000A7038093A8039093A90381E08093BA03DF
:10497000C4CE8F8C98A0E815F90509F0F4CE0BCFC2
:10498000698D7A8D8B8D9C8D8B019C010053154711
:104990002109310901391F452140310518F01092D4
:1049A000BB03E6CA60938E0370938F0380939003DA
:1049B0009093910309811A812B813C81009392038A
:1049C000109393032093940330939503C090A00217
:1049D000D090A102E090A202F090A3021C141D044A
:1049E0001E041F040CF05BC00E94682E4B015C018A
:1049F000C701B6010E94682E9B01AC01C501B4013C
:104A00000E94BE2D2BEA3CED42E45EE30E948A2F19
:104A10009B01AC0160E070E080E89FE30E944C2DB8
:104A200020E03AE24DE257E40E941D2F6B017C0129
:104A300020E030E04AEF53E4C701B6019F770E94BF
:104A4000182F18160CF4ABCF8091920281112BC055
:104A5000C0928C02D0928D02E0928E02F0928F0270
:104A600081E08093920280918C0290918D02A091BE
:104A70008E02B0918F028093960390939703A09338
:104A80009803B09399034092B6035092B703609293
:104A9000B8037092B90381E08093BB0369CAC12C4B
:104AA000D12C7601C5CF80908C0290908D02A09081
:104AB0008E02B0908F02A5019401C701B6010E9439
:104AC0004C2D23E333E343EB5EE30E941D2FA5014E
:104AD00094010E944D2D60938C0270938D028093FF
:104AE0008E0290938F02BFCF53014201881A990A18
:104AF000AA0ABB0A52E385169104A104B10408F482
:104B000051CB2091BC023091BD024091BE02509128
:104B1000BF02C701B6010E944C2D20E030E04AE7F9
:104B200054E40E941D2F69A37AA38BA39CA3C50103
:104B3000B4010E94662E9B01AC0169A17AA18BA1F0
:104B40009CA10E94BE2D6093B8027093B90280931D
:104B5000BA029093BB0216CB073008F048CB112362
:104B600099F06091B8027091B9028091BA02909167
:104B7000BB029F7720E030E040E05FE30E94B92D68
:104B8000182F111F1127111F8091BA038823B9F024
:104B900020E030E040E85FE36091A6037091A70356
:104BA0008091A8039091A9030E944C2D9F7720E04B
:104BB00030E040E85EE30E94B92D87FD28C61092E0
:104BC000A4021092A5021092A6021092A7020FCB87
:104BD0008091BA03882309F40ACB20E030E040E258
:104BE00050E46091A6037091A7038091A80390916F
:104BF000A9030E94182F87FF3EC01092B4021092A2
:104C0000B5021092B6021092B702C090B002D090D6
:104C1000B102E090B202F090B302C114D104E104F9
:104C2000F10409F4E4CA112309F45DC020E030E086
:104C300040EC5FE360919603709197038091980335
:104C4000909199030E94B92D87FF4DC0D301C201F5
:104C50008C199D09AE09BF09893E9340A105B10594
:104C600008F4C5CA1092B0021092B1021092B202BA
:104C70001092B302BCCA8091B4029091B502A09187
:104C8000B602B091B7020097A105B10549F4409270
:104C9000B4025092B5026092B6027092B702B5CFDC
:104CA00053014201881A990AAA0ABB0AD501C40114
:104CB000CC97A105B10508F4A8CF8091B0029091DE
:104CC000B102A091B202B091B302892B8A2B8B2B37
:104CD00009F09BCF4092B0025092B1026092B202B2
:104CE0007092B30292CF4092CE025092CF02609265
:104CF000D0027092D10280E090E0DC01112341F0FB
:104D00008091960390919703A0919803B091990395
:104D10008093310390933203A0933303B093340311
:104D20001092C0021092C1021092C2021092C302ED
:104D300082E00E9472135BCA8091BA03882381F0DB
:104D400020E030E040EA5FE36091A6037091A703A2
:104D50008091A8039091A9030E94B92D87FD09C0F5
:104D60001092AC021092AD021092AE021092AF02FD
:104D70003ECA8091AC029091AD02A091AE02B0917A
:104D8000AF020097A105B10549F44092AC025092E0
:104D9000AD026092AE027092AF0229CAA3019201E5
:104DA000281B390B4A0B5B0BDA01C90180359105D1
:104DB000A105B10508F41BCA83E0BBCF112309F498
:104DC00016CA8090960390909703A0909803B09095
:104DD0009903209131033091320340913303509174
:104DE0003403C501B4010E94182F181644F48092B0
:104DF000310390923203A0923303B0923403C090F7
:104E0000CE02D090CF02E090D002F090D102C11437
:104E1000D104E104F10409F422CAD301C2018C19BE
:104E20009D09AE09BF0980399140A105B10508F47B
:104E3000EBC9A50194016091310370913203809117
:104E40003303909134030E944C2D20E030E040E089
:104E500050E40E94182F87FF09C01092A8021092F8
:104E6000A9021092AA021092AB02C1C98091A802B5
:104E70009091A902A091AA02B091AB020097A1055E
:104E8000B10549F44092A8025092A9026092AA0288
:104E90007092AB02ACC9B301A201481B590B6A0B5B
:104EA0007B0BDB01CA0186399105A105B10508F428
:104EB000ABC984E00E94721380913503823019F0EF
:104EC00080E00E94581385E034CF53014201881AD4
:104ED000990AAA0ABB0AD501C401803D9740A105E1
:104EE000B10508F484C987E024CF21E027CBE4E5AD
:104EF000F7E082CB34E0A636B30720F48CE78C933E
:104F00000F5F1F4FC0905903D0905A03E0905B038E
:104F1000F0905C0320E030E0A901C701B6010E94D7
:104F2000B92D87FF4CC020E836E948E15CECC701A9
:104F3000B6010E94182F18160CF4A0C464EB71E09F
:104F4000C8010E942E048C018656944028F48CE7F8
:104F5000F80180830F5F1F4F6091510370915203DE
:104F600080915303909154032AE0A1010E948E2C5A
:104F7000B101C8010E942E04F4E086369F0720F498
:104F80002CE7DC012C930196E0915003E43008F00B
:104F90006CC0F0E0EE0FFF1FE35AFE4F0190F0816E
:104FA000E02DDC01CD012491222309F461C031966A
:104FB00004E0A636B00708F062C02D93F3CF20E8D6
:104FC00036E948E15CE4C701B6010E94B92D87FFCC
:104FD000B5CF20E030E048EC52E4C701B6010E94B2
:104FE0001D2F20E030E040E05FE30E944D2D0E9445
:104FF000372E6B017C01C701B60124E630E040E0AA
:1050000050E00E941B2DBA01A901C8010E945E0F49
:105010008C018656944028F48EE2D8018C930F5F61
:105020001F4FC701B60124E630E040E050E00E9487
:105030001B2DCB014AE0B1010E94BF2CF101019070
:105040000020E9F73197E21980E3E23050F4B4E050
:1050500006361B0720F4D8018C930F5F1F4FEF5FBC
:10506000F4CFBE016F5F7F4F6BCFE6E5F7E099CFDE
:1050700014E0A636B10718F42CE72C930196409162
:105080007C0350917D0370E060E00E945E0F0E94FF
:10509000840B8C01FC01108287E694E00E94850657
:1050A000075214400E5F0817190609F00CF48EC25F
:1050B00080913D0390913E03019690933E0380932F
:1050C0003D0380912903813009F0D3C0F0E2BF2E67
:1050D000AA24A394AAE09A2E87E694E00E94B6063A
:1050E000892B09F45FC087E694E00E9494068A3019
:1050F00009F083C280910F03863008F44EC090916E
:10510000FF02913209F049C090E08C0101501D4F1F
:105110007801680113E0C11AD108D6018C918A3256
:10512000E1F5F701329780810E944D0B8C01F70168
:10513000319780810E944D0B7C0117FD2EC097FD99
:105140002CC0B6018FEF92E00E946C0B0295007F9D
:10515000E00E8E1122C0E0E0F3E080E030E020E0DD
:10516000DF01EC15FD05C8F4919140ED490F4A307F
:1051700008F0A8C3929EA001939E500D11249A019D
:1051800020533109290F311D97FD3A958F5F8430E7
:1051900021F02F3F310521F318F310920F03BA9439
:1051A000B1109ACF0E94AF120E948405AB01BC01DE
:1051B0008091100390911103A0911203B0911303F9
:1051C000E4EC8E2E99249A94A92CB92C881A990A69
:1051D000AA0ABB0AD501C401840F951FA61FB71FD9
:1051E000CC97A105B10508F044C0B12C3AE0A32E3C
:1051F0008091FE028B0D8370A89EC00111248C014A
:105200000A521D4F68010B5F1F4FD60115968C91F6
:10521000882309F40CC20E9484057601B6E0EB0EE7
:10522000F11CF6012681378140855185621B730B85
:10523000840B950B6C3B72408105910508F4F7C116
:10524000D6016D917D918D919C91139714964C91FF
:105250000E946B12882309F4EAC1F8018081815011
:1052600080830E948405D7016D937D938D939C93D9
:10527000139700913F0310913603013009F0102F6E
:105280008091150390911603A0911703B091180314
:105290000097A105B10571F053014201881A990ADE
:1052A000AA0ABB0AD501C401883E9340A105B105F5
:1052B00008F46FC0D301C2018160809315039093FD
:1052C0001603A0931703B093180324E070E060E086
:1052D000ECEFF6E0849130917B00982F990F990FB5
:1052E00090723F7D932B90937B00877080648093B6
:1052F0007C0080917A00806480937A0080917A00AB
:1053000086FDFCCF8091780090917900680F791F1D
:10531000215001F790E080E00E94662E20E030E00E
:1053200040E85EE30E941D2F20E030EC4FE754E49C
:105330000E94BE2D20E030E040EA50E40E941D2F84
:1053400020E030E040E450E40E941D2F6B017C011E
:10535000C0923703D0923803E0923903F0923A03B7
:105360000230B8F42AE939E949EF50E40E94B92D36
:1053700087FF62C180911403833018F48F5F80939C
:10538000140380911403833020F080E092E00E94A7
:10539000941380913B0390913C0387709927892B4C
:1053A00009F061C18AEF90E0183040F4E12FF0E09D
:1053B000EE0FFF1FE55CFE4F8081918140911A0343
:1053C00050911B0360911C0370911D035301420116
:1053D000841A950AA60AB70AB501A401B0E0A0E0B4
:1053E000481759076A077B0788F040921A035092C2
:1053F0001B0360921C0370921D036091190381E0EE
:1054000068276093190385E00E948B0480913F0315
:10541000813009F42BC110923003809141039091A7
:105420004203A0914303B091440353014201881AFF
:10543000990AAA0ABB0AD501C401883C9105A105B5
:10544000B10508F4A8C04092410350924203609213
:105450004303709244034AE0C301B2010E94930FD8
:105460008BE897E00E94FE07E0913F0384E597E018
:10547000E93038F4F0E0EE0FFF1FE55BFE4F80816E
:1054800091810E94FE0787E897E00E94FE076091E5
:10549000960370919703809198039091990342E04D
:1054A0000E94051081E897E00E94FE076091310399
:1054B00070913203809133039091340342E00E9453
:1054C00005108BE797E00E94FE076091A60370919C
:1054D000A7038091A8039091A90342E00E940510C0
:1054E00087E797E00E94FE0760918E0370918F031B
:1054F00080919003909191030E94D90F81E797E0EA
:105500000E94FE07E091350386E597E0E43038F429
:10551000F0E0EE0FFF1FE35AFE4F808191810E9461
:10552000FE078DE697E00E94FE076091360370E06B
:1055300090E080E00E94D90F88E697E00E94FE0785
:1055400060913703709138038091390390913A0349
:1055500042E00E94051080E697E00E94FE076091FD
:105560003B0370913C0390E080E040E10E94930F88
:1055700088E597E00E94FE0760913D0370913E032D
:1055800090E080E04AE00E94930F68EB71E084E0D5
:1055900095E00E94840F80913F03873039F4809119
:1055A0004003811103C081E08093400380E090E0DC
:1055B000892B11F40C946F1D0E94C206882311F4EC
:1055C0000C946A1D0E9400000C946A1D67E274E04E
:1055D00087E694E00E94840F68EB71E087E694E030
:1055E0000E94840F0E94840560931003709311033E
:1055F000809312039093130364CD8D3009F4CFCDC3
:10560000813229F48093FF02A0920F03C8CDE0916C
:105610000F039FEF9E0F9F3008F0BFCD91E09E0FCC
:1056200090930F03F0E0E150FD4F8083B8CDB39429
:10563000B4E0BB12DDCD1DCE2AE939E941E051E4E9
:10564000C701B6010E94182F18160CF0A2CE809147
:105650003B0390913C03109214039D7F90933C0375
:1056600080933B0396CE84E690E0A8CE80913003F1
:10567000882399F140911E0350911F0360912003EC
:105680007091210363015201A41AB50AC60AD70A10
:10569000B601A5014C3D554061057105F0F0409201
:1056A0001E0350921F0360922003709221038130E9
:1056B00051F0823009F4A2C086E097E00E94E11028
:1056C000109230030AC088E70E942E0B81E497E015
:1056D0000E94E11082E080933003809128038823A8
:1056E00009F47CC010922803809124039091250333
:1056F000A0912603B0912703A3019201281B390B27
:105700004A0B5B0BDA01C901813D9740A105B10548
:1057100008F064C0109123030091220380912F03AD
:105720008823C9F080912E03811315C080912A032C
:1057300090912B03A0912C03B0912D03B301A201F2
:10574000481B590B6A0B7B0BDB01CA01803A9F4057
:10575000A105B10590F0B301A201802F0E940711AD
:1057600010932E0340922A0350922B0360922C0335
:1057700070922D0381E080932F0380912903813063
:1057800069F56BEB71E087E294E00E942E04412FF3
:1057900050E070E060E00E945E0FFC0164E086363D
:1057A000960748F401962CE7208374E08636970725
:1057B00010F4019601830E94840BDC011C9227E205
:1057C00034E0821B12E0180F87E694E00E94850601
:1057D0001817190609F014F40E945D1284E095E090
:1057E0000E946A08892B09F418CE84E095E00E9493
:1057F0002808B301A2010E9407110FCE84E10E9484
:105800002E0B80E297E00E94E11083E064CF112329
:1058100009F4D5C98091A4029091A502A091A60295
:10582000B091A7020097A105B10509F04ECB4092B7
:10583000A4025092A5026092A6027092A7020C9454
:10584000F720112311F40C944D1B2DEC3CEC4CEC87
:105850005DE36091100170911101809112019091AE
:1058600013010E941D2F0E94302E70938B026093B3
:105870008A0281E00E94D3120C94561BC701B60124
:10588000905820E030E048EC52E40E941D2F20E0C8
:1058900030E040E05FE30E944D2D0E94372E6B0107
:1058A0007C01C114D104E104F10409F4A4CBB4E0F7
:1058B00006361B0708F09FCB8DE2F80180830F5F4F
:1058C0001F4F99CB882309F468CC9C3709F065CC2D
:1058D000CD010296C816D90609F05FCC11968C91BD
:1058E000843659F09EE8980F933038F08A3729F0C3
:1058F00090ED980F9A3008F050CC209323038093BA
:1059000022030E94840560932403709325038093EF
:10591000260390932703A09228033FCCBB272A306D
:1059200051F4992342F4BDE290958095709561956C
:105930007F4F8F4F9F4F0C949E2CBB27FA01A62FB1
:105940006217710581059105330B30FB66F0AA27BC
:10595000660F771F881F991FAA1FA21710F0A21B9E
:1059600063953850A9F7A05DAA3308F0A95DA1930B
:1059700036F7B111B1931082CA010C94D92CBB2710
:10598000FB015527AA27880F991FAA1FA41710F0FB
:10599000A41B83955051B9F7A05DAA3308F0A95D07
:1059A000A193009779F7B111B1931192CB010C94A7
:1059B000D92CDC01FC01672F71917723E1F7329735
:1059C00004C07C916D9370836291AE17BF07C8F3DA
:1059D0000895052E97FB1EF400940E94002D57FD9C
:1059E00007D00E941B2D07FC03D04EF40C94002D11
:1059F00050954095309521953F4F4F4F5F4F0895FB
:105A000090958095709561957F4F8F4F9F4F08952A
:105A10000E943D2DA59F900DB49F900DA49F800DD9
:105A2000911D11240895B7FF0C94082D0E94082D94
:105A3000821B930B0895A1E21A2EAA1BBB1BFD012A
:105A40000DC0AA1FBB1FEE1FFF1FA217B307E4075D
:105A5000F50720F0A21BB30BE40BF50B661F771FB5
:105A6000881F991F1A9469F7609570958095909595
:105A70009B01AC01BD01CF010895A29FB001B39F6E
:105A8000C001A39F700D811D1124911DB29F700D47
:105A9000811D1124911D08955058BB27AA270E94EB
:105AA000642D0C94DE2E0E94D02E38F00E94D72E4A
:105AB00020F039F49F3F19F426F40C94CD2E0EF407
:105AC000E095E7FB0C94C72EE92F0E94EF2E58F3C8
:105AD000BA17620773078407950720F079F4A6F5D3
