:100000000C949B040C94C3040C94C3040C94C3047C
:100010000C94C3040C94C3040C94C3040C94C30444
:100020000C94C3040C94C3040C94D5150C9444167E
:100030000C94C3040C94C3040C94C3040C94C30424
:100040000C94C3040C94CE180C94C3040C94C304F5
:100050000C94C3040C94C3040C94C3040C948B152B
:100060000C94C3040C949C180C9476180C94C30440
:100070000C94C3040C94C3040C94C3040C94C304E4
:100080000C94C3040C94C3040C94C3040C94C304D4
:100090000C948A190C94C3040C94C3040C94C304E8
:1000A0000C94C3040C94C3040C94C3040763423639
:1000B000B79BD8A71A39685618AEBAAB558C1D3CF9
:1000C000B7CC5763BD6DEDFD753EF6177231BF00BD
:1000D0000000803F08000000BE922449123EABAAF7
:1000E000AA2ABECDCCCC4C3E00000080BEABAAAA52
:1000F000AA3E00000000BF000000803F000000009A
:1001000000084178D3BB4387D1133D190E3CC3BDD2
:100110004282AD2B3E68EC8276BED98FE1A93E4C7F
:1001200080EFFFBE01C4FF7F3F0000000000475288
:100130004F554E445F5A45524F004241434B555034
:100140005F4445504C4F5900435249544943414C38
:100150005F4552524F52004C414E44454400444585
:100160005343454E54005245434F564552595F4400
:1001700045504C4F590041504F4745455F434F4E06
:100180004649524D454400424F4F53545F454E44FB
:10019000004C41554E43485F444554454354454403
:1001A00000524541445900524144494F5F4641493C
:1001B0004C00524144494F5F4F4B0053445F46410E
:1001C000494C0053445F4F4B0053454E534F5253DD
:1001D0005F4F4B00504F5745525F4F4E00455252B4
:1001E0004F52004C414E444544005245434F564502
:1001F00052590044455343454E540041504F4745E2
:100200004500434F41535400424F4F535400524511
:1002100041445900494E4954004552524F520044FE
:1002200045504C4F5945440041524D4544005341BF
:100230004645005D20005B455620003F00D186D03A
:10024000B8D0BAD0BB3A205341464500433A20D0FB
:10025000B4D0B0D182D187D0B8D0BAD0B8202B20BA
:10026000D181D0B5D180D0B2D0BED0BFD180D0B8EE
:10027000D0B2D0BED0B4202B2048432D3132002044
:1002800020D0BDD0B0D0B1D0BED1803A2000202047
:10029000D180D0B0D0B4D0B8D0BE3A20D0BFD180B9
:1002A000D0BED0BFD183D189D0B5D0BDD0BE20D0F3
:1002B000B8D0B72DD0B7D0B020D0B1D183D184D0B1
:1002C000B5D180D0B03A20002020D184D0BBD0B0AE
:1002D000D0B3D0B820D0BED188D0B8D0B1D0BED0A5
:1002E000BA3A203078002020D0B1D0B0D182D0B03E
:1002F000D180D0B5D18F2C20D0923A20002020D1AF
:1003000083D0B3D0BBD18B20D0BFD180D0B8D0B2F6
:10031000D0BED0B4D0B020534146452F4445504CB8
:100320004F593A20002020D0B4D0B0D0B2D0BBD0AA
:10033000B5D0BDD0B8D0B520D0BFD0BBD0BED1894C
:10034000D0B0D0B4D0BAD0B82C20D09FD0B03A2002
:10035000002020D0B1D0B0D180D0BED0BCD0B5D19B
:1003600082D1803A20002020494D553A202020207B
:100370002020002D2D2D20D0B6D0B5D0BBD0B5D0AB
:10038000B7D0BE202D2D2D0020203F2020D18DD193
:1003900082D0B020D181D0BFD180D0B0D0B2D0BA7D
:1003A000D0B0002020692020D181D0B2D0B5D0B407
:1003B000D0B5D0BDD0B8D18F20D0BE20D0B6D0B56A
:1003C000D0BBD0B5D0B7D0B50020207A2020D0BE89
:1003D000D0B1D0BDD183D0BBD0B8D182D18C20D008
:1003E000B2D18BD181D0BED182D1832028D180D00F
:1003F000B0D0BAD0B5D182D0B020D0BDD0B5D0BFAA
:10040000D0BED0B4D0B2D0B8D0B6D0BDD0B0207E9F
:100410003820D18129002020722020D0BFD180D067
:10042000BED0B3D0BED0BD20D0BFD180D0BED1848D
:10043000D0B8D0BBD18F20D0BFD0BED0BBD191D14E
:1004400082D0B02028D0BF2E20343320D0A2D09725
:1004500029002020302E2E392020D183D0B3D0BEC9
:10046000D0BB20302E2E31383020D18120D188D001
:10047000B0D0B3D0BED0BC203230002020742020B9
:10048000D186D0B8D0BAD0BB2053414645202D3EAE
:10049000204445504C4F594544202D3E2053414661
:1004A00045002020642020D0BFD180D0B8D0B2D069
:1004B000BED0B420D0B2204445504C4F59454400E2
:1004C0002020732020D0BFD180D0B8D0B2D0BED0F1
:1004D000B420D0B22053414645002D2D2D20D1818E
:1004E000D0B5D180D0B2D0B8D181D0BDD18BD0B968
:1004F00020D180D0B5D0B6D0B8D0BC2028D0BF2E67
:1005000020343020D0A2D09729202D2D2D00D0BF0F
:10051000D180D0B8D0B2D0BED0B4202D3E20D1836F
:10052000D0B3D0BED0BB2000D0BED182D0BAD18053
:10053000D18BD182D0B8D0B520D0BFD0B0D180D0AF
:10054000B0D188D18ED182D0B020D0BFD0BE20D043
:10055000BAD0BED0BCD0B0D0BDD0B4D0B520D0BE03
:10056000D0BFD0B5D180D0B0D182D0BED180D0B0F4
:1005700000D0BED0B1D0BDD183D0BBD0B5D0BDD01E
:10058000B8D0B520D0B2D18BD181D0BED182D18BA1
:100590003A20D0BDD0B520D182D180D0BED0B3D04A
:1005A000B0D0B9D182D0B520D180D0B0D0BAD0B53A
:1005B000D182D183203820D181D0B5D0BAD183D097
:1005C000BDD0B4002D2D2D20D0BFD180D0BED0B352
:1005D000D0BED0BD20D182D0B5D181D182D0BED005
:1005E000B2D0BED0B3D0BE20D0BFD180D0BED184D7
:1005F000D0B8D0BBD18F202D2D2D00D0BFD180D031
:10060000BED0B3D0BED0BD20D0BDD0B520D0B7D0E5
:10061000B0D0BFD183D189D0B5D0BD3A20D181D05F
:10062000BFD0B0D181D0B5D0BDD0B8D0B520D183A6
:10063000D0B6D0B520D180D0B0D181D0BAD180D1C0
:100640008BD182D0BE2C20D0BDD183D0B6D0B5D036
:10065000BD20D0B2D0BED0B7D0B2D180D0B0D18280
:1006600020D0B22052454144592028522900D0BF01
:10067000D180D0B8D0B2D0BED0B4202D3E204445D9
:10068000504C4F5945442C20D183D0B3D0BED0BB61
:100690002000D0BFD180D0B8D0B2D0BED0B4202DF1
:1006A0003E20534146452C20D183D0B3D0BED0BB91
:1006B0002000D0B2D0BED0B7D0B2D180D0B0D182DD
:1006C00020D0B22052454144593A20D0BFD180D0E9
:1006D000B8D0B2D0BED0B420534146452C20D181F1
:1006E000D0BFD0B0D181D0B5D0BDD0B8D0B520D09A
:1006F000B2D0B7D0B2D0B5D0B4D0B5D0BDD0BE2C6A
:1007000020D0BED0B1D0BDD183D0BBD0B5D0BDD06C
:10071000B8D0B5203820D18100080B0002020200B9
:100720000009040000010202000005240010010578
:1007300024010101042402060524060001070581A5
:100740000310004009040100020A0000000705022E
:100750000240000007058302400000040309041260
:10076000010002EF02014041233680000101020333
:100770000141726475696E6F204C4C430041726494
:1007800075696E6F204C656F6E6172646F004943CE
:100790004D2D323039343800424D5032383000203F
:1007A000D09ED0A2D09AD090D09700206F6B00201E
:1007B000D09ED0A2D09AD090D09700206F6B00D05E
:1007C00091D0B0D180D0BED0BCD0B5D182D1803A4A
:1007D0002000494D553A2000D09AD0A0D098D0A200
:1007E000D098D0A7D095D0A1D09AD090D0AF20D01B
:1007F0009ED0A8D098D091D09AD0903A20D0BFD097
:10080000BED0BBD191D18220D0BDD0B5D0B2D0BEA8
:10081000D0B7D0BCD0BED0B6D0B5D0BD000706058D
:10082000040100080A0B0C0D09D186D0B8D0BAD04B
:10083000BB20D0B7D0B0D0B2D0B5D180D188D191C3
:10084000D0BD00D186D0B8D0BAD0BB3A20D0B2D07B
:10085000BED0B7D0B2D180D0B0D18220D0B2205398
:1008600041464500D186D0B8D0BAD0BB3A204445E5
:10087000504C4F594544003F003F002072783D00E6
:100880002073763D00207264726F703D00206572A7
:10089000723D3078002076623D00207A3D00207263
:1008A00065633D0020703D00207C617C3D00206D33
:1008B00061783D0020683D00200000000000240019
:1008C00027002A002D00300000000000250028002D
:1008D0002B002E003100040404040403040502026A
:1008E00002020403020202020606060606060404C9
:1008F000020202040404080201104080401020405B
:100900008040800802040180402010020110801005
:10091000204040200000000200090F0000030401F5
:10092000000C0000000000000000000000000000BB
:1009300000000000A91A11241FBECFEFDAE0DEBFCD
:10094000CDBF11E0A0E0B1E0E0E6F7E602C005901F
:100950000D92A23CB107D9F725E0A2ECB1E001C0AD
:100960001D92A039B207E1F714E0CBE9D4E004C04E
:100970002197FE010E94A833CA39D107C9F70E9406
:10098000301B0C94AE330C940000FB012191BF018D
:10099000222341F0F4E08E369F0720F4FC012193DE
:1009A000CF01F3CF0895FC018091DE03882311F17C
:1009B0003FB7F89482E08093E9002091F200822F03
:1009C00090E01816190614F481E090E0882339F0BD
:1009D000289844E64093DD034091F10040832223B0
:1009E00039F02091F200211103C02BE62093E8009A
:1009F0003FBF08958FEF9FEF08952FB7F89483E0DE
:100A00008093E9009091E800892F807295FF04C0DF
:100A10009091F20080E4891B2FBF08958091D50347
:100A200081110DC082E08093D10384E08093D203D2
:100A30001092D4031092D30381E08093D50381ED0B
:100A400093E00895282F30E0F901EC5EF64F949181
:100A5000F901EB50F74F84912A52374FF901249155
:100A6000222309F430C09923E9F091509F30D0F44B
:100A7000E92FF0E0E25CFA4F0C94A8336C057005A6
:100A80004D05640568055205520552057305790543
:100A90007D058105870552058B05909180009F7724
:100AA00090938000E22FF0E0EE0FFF1FE853F74F26
:100AB000A591B4919FB7F894EC91611132C08095E3
:100AC0008E238C939FBF0895909180009F7DE8CFE7
:100AD00090918000977FE4CF94B59F7794BDE2CF4B
:100AE00094B59F7DFBCF909190009F77909390005D
:100AF000D9CF909190009F7DF9CF90919000977FF2
:100B0000F5CF9091C0009F779093C000CBCF90918C
:100B1000C0009F7DF9CF9091C200977F9093C20053
:100B2000C1CF8E2BCECFCF93DF9390E0FC01EB5063
:100B3000F74F24918A52974FFC0184918823D1F07A
:100B400090E0880F991FFC01E654F74FA591B491EE
:100B5000FC01E853F74FC591D49161110EC09FB7C6
:100B6000F8948C91E22FE0958E238C932881E223D8
:100B7000E8839FBFDF91CF9108958FB7F894EC91F0
:100B8000E22BEC938FBFF6CF3FB7F8948091CD0363
:100B90009091CE03A091CF03B091D00326B5A89B2E
:100BA00005C02F3F19F00196A11DB11D3FBFBA2FFF
:100BB000A92F982F8827BC01CD01620F711D811DBF
:100BC000911D42E0660F771F881F991F4A95D1F744
:100BD00008958F929F92AF92BF92CF92DF92EF9241
:100BE000FF924B015C010E94C4056B017C010E94D5
:100BF000C4056C197D098E099F09683E7340810503
:100C00009105A8F321E0821A9108A108B10888EEA5
:100C1000C80E83E0D81EE11CF11C81149104A104CC
:100C2000B10429F7FF90EF90DF90CF90BF90AF9085
:100C30009F908F9008952FB7F8946091C903709199
:100C4000CA038091CB039091CC032FBF08950895E0
:100C50000895089540913C0250913D0220913A023E
:100C600030913B0242175307B4F49091E80095701D
:100C7000E1F39091E80092FD19C08093F10080911A
:100C80003C0290913D0201968F739927892B19F4AC
:100C90008EEF8093E80080913C0290913D02019696
:100CA00090933D0280933C0281E0089580E0089596
:100CB000EF92FF920F931F93CF93DF93F82E192F8C
:100CC000E62E042F81E0860F880F0E942A0683E01B
:100CD0000E942A06CF2DD12FEC0EFD2EF11CCE1531
:100CE000DF05B9F007FF13C0FE0184910E942A06B8
:100CF000182F80E00E942A06812321968111EFCFD0
:100D0000DF91CF911F910F91FF90EF90089588810F
:100D1000EDCF81E0F5CFDF92EF92FF920F931F931B
:100D2000CF93DF93D82E8A01EB017B01E40EF51EF1
:100D3000CE15DF0559F0D7FE12C0FE0184910E9446
:100D40002A0621968111F4CF0FEF1FEFC801DF9122
:100D5000CF911F910F91FF90EF90DF9008958881C0
:100D6000EECF0F931F93CF93DF931F92CDB7DEB7D4
:100D700082E0898342E450E069E177E080E80E9404
:100D80008B060E940E05DC0112960D911C91011537
:100D9000110589F0D801ED91FC910280F381E02DDD
:100DA000BE016F5F7F4FC801099597FD04C0F80130
:100DB00000851185ECCF89810F90DF91CF911F9134
:100DC0000F910895615030F02091F100FC012083D3
:100DD0000196F8CF289884E68093DD030895AF92BA
:100DE000BF92CF92DF92EF92FF920F931F93CF9318
:100DF000DF936C017B018B01040F151FEB015E017A
:100E0000AE18BF08C017D10759F06991D601ED910E
:100E1000FC910190F081E02DC6010995892B79F7AD
:100E2000C501DF91CF911F910F91FF90EF90DF905F
:100E3000CF90BF90AF900895FC01538D448D252F26
:100E400030E0842F90E0821B930B541710F0CF9664
:100E5000089501970895FC01918D828D981761F096
:100E6000A28DAE0FBF2FB11D5D968C91928D9F5FAD
:100E70009F73928F90E008958FEF9FEF0895FC018C
:100E8000918D828D981731F0828DE80FF11D858D3F
:100E900090E008958FEF9FEF0895FC01918D228DD2
:100EA000892F90E0805C9F4F821B91098F73992757
:100EB00008958FE694E00E944D0721E0892B09F404
:100EC00020E0822F089580E090E0892B29F00E9495
:100ED000590781110C9400000895FC01A48DA80FFE
:100EE000B92FB11DA35ABF4F2C91848D90E001966C
:100EF0008F739927848FA689B7892C93A089B1898C
:100F00008C9182748C93938D848D981306C0028883
:100F1000F389E02D80818F7D80830895EF92FF9289
:100F20000F931F93CF93DF93EC0181E0888F9B8D0C
:100F30008C8D981319C0E889F989808185FF14C0C8
:100F40009FB7F894EE89FF896083E889F9898081E9
:100F5000827480839FBF81E090E0DF91CF911F91E9
:100F60000F91FF90EF900895F62E0B8D10E00F5F1C
:100F70001F4F0F731127E02E8C8D8E110CC00FB6F2
:100F800007FCFACFE889F989808185FFF5CFCE018A
:100F90000E946D07F1CFEB8DEC0FFD2FF11DE35A91
:100FA000FF4FF0829FB7F8940B8FEA89FB8980810D
:100FB0008062CFCFCF93DF93EC01888D8823B9F087
:100FC000AA89BB89E889F9898C9185FD03C0808154
:100FD00086FD0DC00FB607FCF7CF8C9185FFF2CFD1
:100FE000808185FFEDCFCE010E946D07E9CFDF91B3
:100FF000CF9108958F929F92AF92BF92CF92DF923E
:10100000EF92FF920F931F93CF93DF936C017B01BD
:101010008A0180910B01882309F45CC08091DE0372
:10102000882309F457C08091400280FF05C0809159
:10103000E00082608093E000E801B12C8AEFA82EE6
:1010400093E0892E2AE3922E209711F4BB20D9F148
:101050000E94FD0481110AC0AA94AA20D9F161E07E
:1010600070E080E090E00E94E905EECF8C171D064D
:1010700011F00CF08C2F9FB7F8948092E90020912A
:10108000E80025FD02C09FBFDFCF282F30E0C21B44
:10109000D30BF701815020F041914093F100FACF3A
:1010A000E20EF31EBB2021F09092E800B12CEBCFB2
:1010B0008091E80085FDE7CF9092E800BB24B394CF
:1010C000209709F3F3CF5D9884E680933F021016D2
:1010D00011063CF081E090E0F6019383828310E0FA
:1010E00000E0C801DF91CF911F910F91FF90EF9029
:1010F000DF90CF90BF90AF909F908F900895CF9347
:10110000DF931F92CDB7DEB76983DC01ED91FC91CF
:101110000280F381E02D41E050E0BE016F5F7F4F20
:1011200009950F90DF91CF910895682F8CE095E09D
:101130000C947F080F931F93CF93DF938C01D0E023
:10114000C0E0F801EC0FFD1F6491662341F08CE0D4
:1011500095E00E947F08892B11F02196F2CFCE01F5
:10116000DF91CF911F910F91089583E08093E90063
:101170008091F200882319F08AE38093E8000895B3
:101180000E94FD0490E00895CF93DF931F92CDB7A6
:10119000DEB7FC018485958597FD08C02FEF3FEFF2
:1011A000358724870F90DF91CF910895CE01019666
:1011B0000E94D304019719F4898190E0F3CF8FEF57
:1011C0009FEFF0CF0F931F93CF93DF931F92CDB775
:1011D000DEB78C01FC018485958597FF0BC0CE019D
:1011E00001960E94D304019771F4898190E0F8017F
:1011F00095878487F801848595850F90DF91CF913D
:101200001F910F9108958FEF9FEFF1CFFC0184851F
:10121000958597FD0BC09FB7F89482E08093E90015
:101220008091F2009FBF90E0019608959FB7F894D7
:1012300082E08093E9008091F2009FBF90E00895E2
:1012400020911602260F3327331F21323105ECF48B
:1012500020910504FC0190E080E0243069F082E0F8
:101260000895A09116022191AC014A505E4FA40F3F
:10127000B52FB11D2C930196861798F38091160215
:10128000680F6093160280E0089581E0089510923F
:10129000050481E0809304041092DF0361E082E0A2
:1012A0000E94220561E083E00E942205E9EBF0E064
:1012B00080818E7F808380818D7F808388E480938E
:1012C000B80085E48093BC000895CF93DF9391E04C
:1012D000909348028823B9F0C091B800D091BA0029
:1012E0008091BC008A7B8093BC0060E082E00E9419
:1012F000220560E083E00E9422050E944709D09306
:10130000BA00C093B800DF91CF9108958F929F9259
:10131000AF92BF92CF92DF92EF92FF920F931F9303
:10132000CF93DF93D0912E04D13208F0D7C0182F7D
:10133000C0912D040E94C4056B017C0180910504BD
:1013400081116BC082E080930504109304048FEF39
:101350008093030410920204D0930104ADE0B4E042
:10136000E1EEF3E080E0D81391C01092E0038091A9
:10137000E003CC0FC82BC093E0038091DF038130E2
:1013800009F088C01092DF030E94C4056B017C0144
:101390008091E0038093BB00809107049091080442
:1013A000A0910904B0910A04892B8A2B8B2BA1F000
:1013B0000E94C405009107041091080420910904BB
:1013C00030910A046C197D098E099F0906171707C9
:1013D0002807390708F442C08091BC0083FDD8CFAC
:1013E00085EC8093BC000E94C4056B017C01809158
:1013F0000504823009F450C0809103048F3F09F442
:101400006FC080910304803209F46CC080910304A2
:10141000803309F469C084E026C08091070490916C
:101420000804A0910904B0910A04892B8A2B8B2B04
:1014300009F484CF0E94C4058090070490900804AA
:10144000A0900904B0900A046C197D098E099F09C7
:1014500086169706A806B90608F070CF8091060494
:101460000E94650985E010920C0410922E041092DF
:101470000B04DF91CF911F910F91FF90EF90DF90C0
:10148000CF90BF90AF909F908F9008959D91919332
:101490008F5F69CF85EEA5CF8091070490910804F6
:1014A000A0910904B0910A04892B8A2B8B2B09F493
:1014B0009ECF0E94C405009107041091080420915A
:1014C000090430910A046C197D098E099F090617D9
:1014D00017072807390708F08ACFC0CF81E0C3CFAC
:1014E00080E0C1CF82E0BFCF83E0BDCFE091470273
:1014F00080914602E81730F4F0E0EA52FE4F808116
:1015000090E008958FEF9FEF0895909147028091AA
:1015100046022FEF3FEF981748F4E92FF0E0EA5228
:10152000FE4F208130E09F5F90934702C9010895EC
:101530008091460290914702891B990B0895CF92A2
:10154000DF92EF92FF920F931F93CF93DF937C0173
:10155000CB018A0120910B04222389F0EB016B015E
:10156000C40ED51ECC15DD0569F06991D701ED914A
:10157000FC910190F081E02DC7010995F3CF642F14
:101580000E942009C801DF91CF911F910F91FF9018
:10159000EF90DF90CF900895CF93DF931F92CDB758
:1015A000DEB7698320910B042223F9F020912E04E9
:1015B000203258F021E030E0FC013383228390E0B8
:1015C00080E00F90DF91CF91089580910C04E82F77
:1015D000F0E0E35FFB4F998190838F5F80930C0471
:1015E00080932E0481E090E0ECCF61E0CE01019683
:1015F0000E942009F7CF90E080E008958F929F929B
:10160000AF92BF92FF920F931F93CF93DF93C82F98
:1016100080918D05282F30E0F901EE0FFF1FE20FBA
:10162000F31FE859FA4F908196FD54C08C3008F0B2
:1016300051C061E086E00E94930580918D05282FBE
:1016400030E0F901EE0FFF1FE20FF31FE859FA4FE8
:101650009081907C9660908310928E0510928F05F9
:101660002CE0622F0E949C33829FB001112430E055
:1016700020E0AB01420F531FFA01EE0FFF1FE40FF2
:10168000F51FE859FA4F908196FD16C02F5F3F4F26
:101690002C30310571F781110FC01092800082E06B
:1016A000809381001092850010928400B19A8091FD
:1016B0006F00826080936F00E0918D058E2F90E027
:1016C000FC01EE0FFF1FE80FF91FE859FA4F808168
:1016D00080648083AC2FC53B08F0A4EBF0908D05AF
:1016E0008BE08F1508F44CC080918F0508E512E05F
:1016F000081B110987FD1395000F111F000F111F03
:1017000080918E05C8E8D0E0C81BD10987FDD3952C
:10171000CC0FDD1FCC0FDD1F4E010D2E000CAA08D3
:10172000BB089801012E000C440B550B28193909F0
:101730004A095B09B0E00E94332F24EB30E040E01F
:1017400050E00E94142F820E931EA41EB51E8C160C
:101750009D062CF0E801801691060CF4E401229716
:10176000CC0FDD1F2FB7F8948F2D90E0FC01EE0F0A
:10177000FF1FE80FF91FE859FA4FD283C1832FBF2B
:10178000DF91CF911F910F91FF90BF90AF909F90ED
:101790008F9008950E94FE0A0E941B066115710534
:1017A0008105910549F06093C9027093CA02809344
:1017B000CB029093CC02089581E090E0A0E0B0E0ED
:1017C0008093C9029093CA02A093CB02B093CC023B
:1017D0000895109235031092C4021092C50210921F
:1017E000C6021092C7021092C80284E10E94FE0A4B
:1017F0006CE271E080E090E00E94E905E0918D05E7
:101800008E2F90E0FC01EE0FFF1FE80FF91FE85943
:10181000FA4F80818F7B8083089590ED980F9A30E6
:1018200028F4082E000C990BC09708959FEB980F91
:10183000963028F4082E000C990BC79708959FE95D
:10184000980F963030F4082E000C990B87559109AB
:1018500008958FEF9FEF08959C0180E057E0F90114
:101860002617370780F42F5F3F4F9081982748E075
:10187000892F880F97FF03C0990F892F8527415023
:10188000982FB1F7ECCF0895CF93DF93EC01BC0113
:101890008FE294E00E942C0CFE0194E0CE36D90732
:1018A00098F431969AE2988394E0EE36F907C0F402
:1018B0003196A82FB0E094E0B595A7959A95E1F7F9
:1018C000AB59BE4F9C91998394E0EE36F90740F4F2
:1018D0008F70A82FB0E0AB59BE4F8C9180833196AA
:1018E000CF01DF91CF910895109247031092CE025D
:1018F0001092CF021092D0021092D10210923103B6
:101900001092320310923303109234031092B402F7
:101910001092B5021092B6021092B7021092B00265
:101920001092B1021092B2021092B3021092AC0265
:101930001092AD021092AE021092AF021092A80265
:101940001092A9021092AA021092AB021092A40265
:101950001092A5021092A6021092A7021092BC0249
:101960001092BD021092BE021092BF021092C002ED
:101970001092C1021092C2021092C3021092B802D9
:101980001092B9021092BA021092BB020895CF933E
:10199000C42F91E090930B0480932D0410920C04BB
:1019A00010922E048CE595E00E94CC0A6C2F8CE5F9
:1019B00095E00E94CC0A81E00E94860991E08111A5
:1019C00090E0892FCF9108954F925F926F927F920E
:1019D0008F929F92AF92BF92FF920F931F93CF93DC
:1019E000DF93D82F042FF52E122F81E080930B0464
:1019F000D0932D0410920C0410922E048CE595E0E7
:101A00000E94CC0A80E00E948609C82F8111CCC0B8
:101A10000E94C4054B015C0180910504811165C0E1
:101A200081E080930504809304049FEF9093030466
:101A300010920204910F909301048093E00380912F
:101A4000E003DD0FD82BD093E0038091DF038130DA
:101A500009F084C01092DF030E94C4054B015C01B1
:101A60008091E0038093BB0080910704909108046B
:101A7000A0910904B0910A04892B8A2B8B2BA1F029
:101A80000E94C40540900704509008046090090427
:101A900070900A04681979098A099B094616570645
:101AA0006806790608F442C08091BC0083FDD8CF57
:101AB00085EC8093BC000E94C4054B015C018091C1
:101AC0000504813009F44CC080910204811708F0AC
:101AD00069C080910204A1EEB3E0E6EDF1E0C81721
:101AE00049F19D919193CF5FFACF80910704909136
:101AF0000804A0910904B0910A04892B8A2B8B2B2E
:101B000009F48ACF0E94C40540900704509008044D
:101B10006090090470900A04681979098A099B0980
:101B2000461657066806790608F076CF80910604B7
:101B30000E94650910924702C09346021C1334C0EC
:101B4000B02EC02FDF2D8CE595E00E94850A899389
:101B50008C2F8B198117B8F381E027C085EEA9CFB0
:101B60008091070490910804A0910904B0910A049F
:101B7000892B8A2B8B2B09F4A2CF0E94C40540909D
:101B80000704509008046090090470900A046819D2
:101B900079098A099B09461657066806790608F0EE
:101BA0008ECFC4CF812F97CF80E0DF91CF911F914F
:101BB0000F91FF90BF90AF909F908F907F906F900C
:101BC0005F904F900895EF92FF920F931F93CF93E2
:101BD000DF93CDB7DEB72C970FB6F894DEBF0FBEFC
:101BE000CDBF7C018B012CE0AE014F5F5F4F6DE2FA
:101BF00088E60E94E40C882361F129813A8132272A
:101C000023273227F701318320832B813C81322720
:101C100023273227338322832D813E8132272327B6
:101C20003227358324832F81388532272327322793
:101C3000F8013183208329853A85322723273227EB
:101C4000338322832B853C85322723273227358314
:101C500024832C960FB6F894DEBF0FBECDBFDF9164
:101C6000CF911F910F91FF90EF9008952F923F9287
:101C70004F925F926F927F928F929F92AF92BF929C
:101C8000CF92DF92EF92FF920F931F93CF93DF9348
:101C9000CDB7DEB728970FB6F894DEBF0FBECDBF25
:101CA00098878F837B0126E0AE014F5F5F4F67EF20
:101CB00087E70E94E40C082F882309F4E9C1198101
:101CC0002A803B808C8190E0B0E0A0E02CE0880F7F
:101CD000991FAA1FBB1F2A95D1F74D8150E070E0D4
:101CE00060E034E0440F551F661F771F3A95D1F727
:101CF000842B952BA62BB72B2E8130E044E0359515
:101D000027954A95E1F7032E000C440B550B822BC7
:101D1000932BA42BB52B4091490250914A0270E0BD
:101D200060E02C013D01E4E075946794579447947A
:101D3000EA95D1F7441A550A660A770AF3E0B59591
:101D4000A79597958795FA95D1F7440F551F661F6C
:101D5000771F5C016D01A41AB50AC60AD70AA6014D
:101D60009501A0914B02B0914C020E943E2F4B0175
:101D70005C013BE0B594A794979487943A95D1F78A
:101D8000A3019201C301B2010E948C339B01AC01FB
:101D90006CE055954795379527956A95D1F7A091B1
:101DA0004D02B0914E020E943E2F2B013C017EE07D
:101DB00075946794579447947A95D1F7480C591CB9
:101DC0006A1C7B1C40926102509262026092630224
:101DD00070926402A5E0B0E0A30192010E94332F4B
:101DE00060587F4F8F4F9F4F672F782F892F9927EC
:101DF00087FD9A950E94933020E030E048EC52E451
:101E00000E94E92FF70160837183828393837301BA
:101E10006201F594E794D794C794FAEFDF1AE108CA
:101E2000F108C701B601A2E095958795779567956A
:101E3000AA95D1F79B01AC010E948C334B015C0148
:101E4000A0915302B0915402AC019B018DE05595D5
:101E50004795379527958A95D1F70E943E2F2B01FC
:101E60003C0193E075946794579447949A95D1F701
:101E7000A0915102B0915202A70196010E943E2FFB
:101E80009B01AC015595479537952795240D351D38
:101E9000461D571D72E155954795379527957A95BB
:101EA000D1F730584F4F5F4FA0914F02B091500281
:101EB0000E94332F2B013C01EFE0759467945794F7
:101EC0004794EA95D1F7411451046104710409F46F
:101ED00004C1A50194018BE0559547953795279549
:101EE0008A95D1F7A0915902B0915A020E943E2FD3
:101EF0004B015C01A0915702B0915802A7019601D5
:101F00000E943E2FDC01CB01880F991FAA1FBB1F27
:101F1000880D991DAA1DBB1D6C017D0132E0F59451
:101F2000E794D794C7943A95D1F7212F30E050E049
:101F300040E06CE0220F331F441F551F6A95D1F714
:101F4000822D90E0B0E0A0E074E0880F991FAA1FF6
:101F5000BB1F7A95D1F7282B392B4A2B5B2B832D6E
:101F600090E0E4E095958795EA95E1F7092E000C5D
:101F7000AA0BBB0B282B392B4A2B5B2B80915502CC
:101F800090915602092E000CAA0BBB0BDC0199277D
:101F900088278C0D9D1DAE1DBF1D1CE0B595A79516
:101FA000979587951A95D1F7280F391F4A1F5B1F00
:101FB000ABECB3EF0E94412F805B9C4397FD82C046
:101FC000660F771F881F991FA30192010E94462F59
:101FD00029013A01C301B20123E0969587957795CF
:101FE00067952A95D1F79B01AC010E948C339B0128
:101FF000AC016DE056954795379527956A95D1F7D1
:10200000A0915F02B09160020E943E2F6B017C01A3
:102010007CE0F594E794D794C7947A95D1F7A3011F
:102020009201E2E05695479537952795EA95D1F7C5
:10203000A0915D02B0915E020E943E2F9B01AC0117
:10204000FDE05595479537952795FA95D1F72C0DD5
:102050003D1D4E1D5F1DC0905B02D0905C020D2C9B
:10206000000CEE08FF082C0D3D1D4E1D5F1DA4E069
:102070005595479537952795AA95D1F7420E531E4A
:10208000641E751EEF81F8854082518262827382E0
:10209000802F28960FB6F894DEBF0FBECDBFDF911C
:1020A000CF911F910F91FF90EF90DF90CF90BF9055
:1020B000AF909F908F907F906F905F904F903F90E8
:1020C0002F900895A30192010E94462F29013A0101
:1020D000440C551C661C771C7DCF412C512C3201C1
:1020E000D1CF0F931F93CF93DF93CDB7DEB72C974C
:1020F0000FB6F894DEBF0FBECDBF8C01CB01BA0185
:102100002AE0AE014F5F5F4F0E94C82EBE016F5F95
:102110007F4FC8010E94C5042C960FB6F894DEBF0D
:102120000FBECDBFDF91CF911F910F910895FB019D
:1021300001900020E9F73197AF01461B570BDC01F6
:10214000ED91FC910280F381E02D09948F929F9292
:10215000AF92BF920F931F93CF93DF93CDB7DEB7AC
:10216000A1970FB6F894DEBF0FBECDBF19A24230C3
:1021700008F44AE08E010F5D1F4F842E912CB12C84
:10218000A12CA50194010E94462FE62FB901CA0196
:10219000EA3004F5E05DD801EE938D01232B242B6A
:1021A000252B79F790E080E0109729F0BD018CE0B5
:1021B00095E00E949710A1960FB6F894DEBF0FBE6F
:1021C000CDBFDF91CF911F910F91BF90AF909F90A6
:1021D0008F900895E95CDFCFCF92DF92EF92FF926C
:1021E000CF93DF9397FF19C06B017C018DE20E94B2
:1021F0009508EC0166277727CB016C197D098E09BC
:102200009F094AE00E94A6108C0F9D1FDF91CF917D
:10221000FF90EF90DF90CF9008954AE0DF91CF914B
:10222000FF90EF90DF90CF900C94A6104F925F92AA
:102230006F927F928F929F92AF92BF92CF92DF92D6
:10224000EF92FF920F931F93CF936B017C01742E3B
:10225000AC019B010E944B326CEA71E0811126C0F7
:1022600046015701E894B7F82FEF3FEF4FE75FE7DC
:10227000C501B4010E944B3281110CC02FEF3FEF1A
:102280004FE75FE7C501B4010E94E42F60EB71E006
:10229000181664F02FEF3FEF4FE75FE4C701B60178
:1022A0000E9443311816ACF464EB71E08CE095E0C9
:1022B000CF911F910F91FF90EF90DF90CF90BF9043
:1022C000AF909F908F907F906F905F904F900C9405
:1022D00097102FEF3FEF4FE75FECC701B6010E9469
:1022E000E42F87FDE1CF20E030E0A901C701B6016E
:1022F0000E94E42F10E000E087FF08C08DE20E94FA
:1023000095088C01F7FAF094F7F8F094C0E060E0DB
:1023100070E080E09FE37C1641F020E030E040E296
:1023200051E40E94E92FCF5FF6CFA70196010E94EA
:10233000782F2B013C010E9462304B015C014AE086
:102340000E94A6107C01E00EF11ECC23B1F1C50164
:10235000B4010E9491309B01AC01C301B2010E9403
:10236000772F4B015C018EE20E949508E80EF91E62
:10237000C15018F120E030E040E251E4C501B40161
:102380000E9448312B013C010E9462304B01B12C6C
:10239000A12C4AE0C501B4010E94A610E80EF91E66
:1023A000C501B4010E9491309B01AC01C301B2018F
:1023B0000E94772F4B015C01DBCFC701CF911F91AA
:1023C0000F91FF90EF90DF90CF90BF90AF909F90D4
:1023D0008F907F906F905F904F900895CF93DF9391
:1023E0000E949A08EC0168EB71E08CE095E00E9495
:1023F00097108C0F9D1FDF91CF9108950C94EE11D3
:10240000CF93DF93BC01990F880B990B0E94EC10BE
:10241000EC0168EB71E08CE095E00E9497108C0F66
:102420009D1FDF91CF9108956FE274E08FE694E0F5
:102430000E94971068EB71E08FE694E00E9497107D
:1024400081E00895CF93DF9390911403913089F543
:10245000D62FC82F6BEB71E08FE294E00E94C50489
:102460004C2F50E070E060E00E947110FC0124E00D
:102470008E36920748F401962CE7208324E08E36AE
:10248000920710F40196D1830E94440CFC01108243
:102490002FE234E0821BC2E0C80F8FE694E00E9476
:1024A0001C07C817190609F024F4DF91CF910C948A
:1024B000141280E0DF91CF910895CF93DF93C42F62
:1024C00023E220932F04AB01BC0180E394E00E943F
:1024D000711024E08E36920720F42CE7DC012C9357
:1024E0000196EBE3F2E0C03148F4EC2FF0E0EE0FA0
:1024F000FF1FEC5EFE4F0190F081E02D249122231E
:1025000049F03196B4E08E369B0720F4DC012D9320
:10251000CD01F4CF0E94440CEC0118828FE694E0C8
:102520000E941C07CF52D440CE5FC817190609F08D
:1025300024F4DF91CF910C94141280E0DF91CF91BD
:102540000895CF93C5E0809165028823E1F0E09182
:102550006602CE9FF0011124EE53FE4F608171811F
:102560008281938144810E945D12882361F0809171
:1025700066028F5F8370809366028091650281504E
:1025800080936502E0CFCF910895AF92BF92CF9232
:10259000DF92EF92FF920F931F93CF93C82F0E9469
:1025A0001B066B017C01809114038130E1F50091E1
:1025B000FE02A02EB12C8AE0089F800111240A524D
:1025C0001D4FF801C082D182E282F382C48383E08E
:1025D00085830E941B06F801668377838087918735
:1025E000FFEFAF1ABF0A83E0A822BB24A092FE022D
:1025F0000E94A11280916502882371F0809165028A
:102600008430A9F580913D0390913E03019690930B
:102610003E0380933D0307C04C2FC701B6010E94C3
:102620005D12882359F386E392E00E949A084AE0FB
:10263000C701B6010E94A61083E392E00E949A08A7
:102640008BE392E0C03140F4EC2FF0E0EE0FFF1F7F
:10265000EC5EFE4F80819181CF911F910F91FF9091
:10266000EF90DF90CF90BF90AF900C94EE11E0917F
:102670006602E80FE37095E0E99FF0011124EE5344
:10268000FE4FC082D182E282F382C4838F5F809347
:102690006502C9CFCF93909135039230C9F0C82F0E
:1026A00088E70E94FE0A82E0809335030E941B06A1
:1026B0006093C4027093C5028093C6029093C702D0
:1026C0001092C8028AE0C1118EE0CF910C94C5121D
:1026D000CF910895909147039817E9F080934703AD
:1026E000833089F028F4813049F0823051F0089528
:1026F000853069F050F0873061F0089586E00C94E1
:10270000C51287E0FCCF88E0FACF89E0F8CF8BE0F4
:10271000F6CF8CE0F4CF089580913B0390913C0379
:1027200087709927892B19F088E00C946A1380919F
:102730003503811103C081E08093350381E0F5CF3B
:10274000CF92DF92EF92FF926B017C011092900288
:102750000E94E90B0E94740C0E948C1310923603A5
:1027600010929F02C0929B02D0929C02E0929D0226
:10277000F0929E0281E08093910282EB96E0FF90BE
:10278000EF90DF90CF900C94EE11CF92DF92EF920A
:10279000FF92CF936A017B01883609F444C1C4F5E6
:1027A000843409F4BFC02CF58F3309F43CC190ED9B
:1027B000980F9A3008F0A3C0C4E19C9FC02D11244B
:1027C0008C2F0E94CA0B8EE095E00E949A086C2F15
:1027D00070E090E080E04AE00E94A61068EB71E0B3
:1027E0008CE095E0CF91FF90EF90DF90CF900C942C
:1027F0009710823509F489C08436C9F688E70E94AB
:10280000CA0B8EE696E00E949A0888E790E030C0F6
:10281000833729F16CF4893609F48AC0823739F696
:1028200080913503823009F041C08BEF95E037C0CD
:10283000843729F18A3709F0BACF10923603109203
:102840009F02C0929B02D0929C02E0929D02F09265
:102850009E0281E08093910281E795E020C084E1AF
:102860000E94CA0B82E996E00E949A0884E190E0F7
:10287000CF91FF90EF90DF90CF900C94001281E009
:1028800080933003C0921F03D0922003E092210373
:10289000F092220384E10E94CA0B8DE392E0CF9173
:1028A000FF90EF90DF90CF900C94EE1184EC95E0C8
:1028B0000E94EE1181E080939002C0927402D09247
:1028C0007502E0927602F0927702C0927002D09286
:1028D0007102E0927202F0927302109267021092FB
:1028E00068021092690210926A0210926B021092B2
:1028F0006C0210926D0210926E0210926F02CF91D4
:10290000FF90EF90DF90CF90089580913503823053
:10291000B1F7CB01BA01CF91FF90EF90DF90CF904C
:102920000C94A01381E00E944A1388E295E0B7CF8F
:1029300083E793E00E94EE1186E693E00E949A08F6
:102940008EE897E00E94EE1181E593E00E949A08DC
:1029500088E997E00E94EE1185E293E00E949A08D0
:102960006091A0027091A1028091A2029091A302B5
:102970000E94EC1068EB71E08CE095E00E949710EB
:102980008DEF92E00E949A0864E170E080E090E0B0
:102990000E94EC108FE20E94950888E790E00E9468
:1029A000001286EE92E00E949A08609137037091BF
:1029B00038038091390390913A0342E00E94161146
:1029C00068EB71E08CE095E00E94971088EC92E053
:1029D0000E949A0860913B0370913C0390E080E074
:1029E00040E10E94A61068EB71E08CE095E00E9447
:1029F00097108EE892E00E949A0860913D037091D2
:102A00003E0390E080E04AE00E94A61068EB71E08F
:102A10008CE095E00E9497108FE792E00E949A0860
:102A20008CE492E03CCF8AED94E00E94FE1180ECB1
:102A300094E00E94FE1182EA94E00E94FE118BE76E
:102A400094E00E94FE1182E594E00E94FE1186E16E
:102A500094E00E94FE1189EC93E00E94FE1183EA4B
:102A600093E00E94FE1188E893E0CF91FF90EF90F1
:102A7000DF90CF900C94FE1120913B0330913C03EA
:102A8000A90148235923452B69F4282B392B30936E
:102A90003C0320933B0387709927892B19F08DE025
:102AA0000C94C512089585ED8093BC0080910704B5
:102AB00090910804A0910904B0910A040796A11D01
:102AC000B11D23E0B695A795979587952A95D1F7DF
:102AD0002091BC0024FD03C010920504089540918C
:102AE0000704509108046091090470910A04452B71
:102AF000462B472B69F30097A105B10541F02AE267
:102B00002A95F1F700C00197A109B109E1CF8091A1
:102B100006040C9465091F920F920FB60F921124B0
:102B20002F933F938F939F93AF93BF938091C9034C
:102B30009091CA03A091CB03B091CC033091C8030C
:102B400023E0230F2D3758F50196A11DB11D2093C9
:102B5000C8038093C9039093CA03A093CB03B09397
:102B6000CC038091CD039091CE03A091CF03B0917F
:102B7000D0030196A11DB11D8093CD039093CE0388
:102B8000A093CF03B093D003BF91AF919F918F914A
:102B90003F912F910F900FBE0F901F90189526E830
:102BA000230F0296A11DB11DD2CF1F920F920FB617
:102BB0000F9211248F939F938091E1009091E100F7
:102BC000937F9093E10083FF0FC01092E90091E0A2
:102BD0009093EB001092EC0092E39093ED00109232
:102BE000DE0398E09093F00082FF22C093E0909380
:102BF000E9009091F200992319F09AE39093E8008C
:102C000090913F02992341F090913F02915090930F
:102C10003F02911101C05D9A9091DD03992341F02B
:102C20009091DD0391509093DD03911101C0289A9A
:102C300084FF18C08091E2008E7E81608093E20064
:102C40008091E1008F7E8093E100809140028E7E32
:102C50008061809340029F918F910F900FBE0F90E3
:102C60001F90189580FFF7CF8091E2008E7E8061E3
:102C70008093E2008091E1008E7E8093E10080915C
:102C800040028E7E8160E5CF1F920F920FB60F92A9
:102C90001124CF92DF92EF92FF920F931F932F9305
:102CA0003F934F935F936F937F938F939F93AF93D4
:102CB000BF93EF93FF93CF93DF93CDB7DEB76C97BE
:102CC000DEBFCDBF1092E9008091E80083FF25C0F0
:102CD00068E0CE0145960E94E20682EF8093E8000C
:102CE0008D8987FF39C09091E80090FFFCCF982F25
:102CF000907609F034C19E894F89588D2F89F88CC0
:102D0000911131C0803861F5809141028093F100CA
:102D10001092F1008EEF8093E8006C960FB6F89455
:102D2000DEBF0FBECDBFDF91CF91FF91EF91BF917D
:102D3000AF919F918F917F916F915F914F913F9153
:102D40002F911F910F91FF90EF90DF90CF900F90F8
:102D50000FBE0F901F9018959EEF9093E800C7CF7D
:102D60001092F100D5CF913059F48111D3CF413079
:102D7000510581F6809141028D7F80934102CACF37
:102D8000933049F48111C6CF4130510519F6809135
:102D900041028260F2CF953041F48091E80080FFDB
:102DA000FCCF20682093E300B5CF963009F0A9C08E
:102DB0000B8D1C8D22E01092E90010923D021092C2
:102DC0003C02F2122EC010923B0210923A020E9474
:102DD000B1061F8299E09983FA8291E09E8390EA7E
:102DE00098879AEF998720913C0230913D02275FA6
:102DF0003F4F3C832B838D831092E90010923D025C
:102E000010923C0210933B0200933A0249E050E0DA
:102E1000BE016F5F7F4F80E00E948B060E94B1066B
:102E200079CF10933B0200933A020E940E05DC0119
:102E300012960D911C910115110509F451C1D8018B
:102E4000ED91FC910480F581E02DBE016B5E7F4F1A
:102E5000C8010995009709F03EC1F8010085118568
:102E6000EACFF3E0FF120EC08F89882309F440C037
:102E7000823061F440E860E18DE797E00E945806F7
:102E8000811148CF81E28093EB0047CF813029F454
:102E900040E86BE081E797E0F1CF833099F70E943B
:102EA0000E05DC011296ED90FC908E010F5F1F4F16
:102EB0006801E114F10479F0D701ED91FC910680ED
:102EC000F781E02DB801C7010995080F111DF70121
:102ED000E084F184EECFD8011C92F601019000202D
:102EE000E9F73197BF016C197D0940E0C601C6CFF3
:102EF0006BE577E0FB01449150E080E80E948B068F
:102F000009CF973009F4BECF983021F481E0809347
:102F1000F10000CF993009F0FDCE837009F0B2CFF7
:102F2000E5E3F1E081E031E096E32191222371F0C5
:102F30008093E9003093EB00DF0111972C912093EF
:102F4000EC009093ED008F5F873079F78EE78093E8
:102F5000EA001092EA008F898093DE03DBCE8B8D2E
:102F60009C8D1092E90010923D0210923C029093C9
:102F70003B0280933A02898D811192C08E899D898E
:102F8000913A49F4813209F07DCF47E050E064E0A6
:102F900071E080E0B3CF913209F074CF833269F4ED
:102FA0008F89988DB0E0A0E080930001909301019B
:102FB000A0930201B0930301ADCE803269F48091F9
:102FC000E80082FFFCCF67E084E091E00E94E20627
:102FD0008BEF8093E8009ECE823209F09BCE8F89E2
:102FE00080930B01EEEFFFE7859194918B3F9C4D11
:102FF00051F1E0E0F8E08091040190910501A09189
:103000000601B0910701803B9440A105B105F1F4A0
:1030100080910B0180FD1AC0EE3F8AE0F80789F528
:1030200087E797E7918380838091600080933E02D9
:1030300088E19BE00FB6F894A895809360000FBEDE
:103040009093600067CEEEEFFAE0D5CF808191815A
:103050008737974709F05ECEA89580916000886118
:103060008093600080913E0280936000EE3F2AE0F2
:10307000F20789F08091FE0A9091FF0A9183808384
:1030800049CE808191818737980751F29093FF0A4A
:103090008093FE0AC5CF1092FF0A1092FE0A3ACE24
:1030A0000E940E05DC0112960D911C91011511056F
:1030B00009F4E8CED801ED91FC910190F081E02D6A
:1030C000BE016B5E7F4FC8010995811123CEF801C7
:1030D00000851185EBCF181619060CF41BCED2CE45
:1030E000F1E0FF12BECE6FE577E004CF1F920F92A2
:1030F0000FB60F9211242F933F934F935F936F93CB
:103100007F938F939F93AF93BF93EF93FF938FE63C
:1031100094E00E946D07FF91EF91BF91AF919F9155
:103120008F917F916F915F914F913F912F910F9070
:103130000FBE0F901F9018951F920F920FB60F920F
:1031400011242F938F939F93EF93FF93E0917F042C
:10315000F09180048081E0918504F091860482FDE5
:103160001BC09081809188048F5F8F7320918904A8
:10317000821741F0E0918804F0E0E159FB4F958F10
:1031800080938804FF91EF919F918F912F910F90E1
:103190000FBE0F901F9018958081F4CF1F920F9251
:1031A0000FB60F9211242F933F934F935F936F931A
:1031B0007F938F939F93AF93BF93CF93DF93EF93BF
:1031C000FF9380913902C0918C05D0E087FF24C025
:1031D0001092850010928400809139028F5F809355
:1031E000390280913902082E000C990B8C179D072B
:1031F00024F4809139028C30C4F180918400909144
:103200008500049680349C4908F47AC0809184003B
:1032100090918500049676C080913902082E000CAA
:10322000990B8C179D07C4F6E09139028E2FEE0F93
:10323000990BFC01EE0FFF1FE80FF91FE859FA4F39
:10324000808186FFC9CFE09139028E2FEE0F990B56
:10325000FC01EE0FFF1FE80FF91FE859FA4F8081BC
:1032600060E08F730E942205B7CF209184003091D7
:103270008500E09139028E2FEE0F990BFC01EE0FC5
:10328000FF1FE80FF91FE859FA4F81819281820FE1
:10329000931F9093890080938800E09139028E2FCC
:1032A000EE0F990BFC01EE0FFF1FE80FF91FE85915
:1032B000FA4F808186FF11C0E09139028E2FEE0F08
:1032C000990BFC01EE0FFF1FE80FF91FE859FA4FA9
:1032D000808161E08F730E942205FF91EF91DF9161
:1032E000CF91BF91AF919F918F917F916F915F919E
:1032F0004F913F912F910F900FBE0F901F901895F7
:1033000080E49CE990938900809388008FEF8093FC
:103310003902E3CF1F920F920FB60F9211242F9311
:103320003F934F935F936F937F938F939F93AF934D
:10333000BF93EF93FF938091B900887F803609F4A3
:103340004AC0F0F5883209F4A7C018F5803109F4B5
:103350009BC0B8F4882309F4F9C0883009F494C0FC
:10336000FF91EF91BF91AF919F918F917F916F915D
:103370005F914F913F912F910F900FBE0F901F9033
:103380001895883109F488C0803251F7809303047E
:1033900014C0803409F49DC040F48033B9F38833FD
:1033A000F9F68093030485ECB0C0803509F485C03C
:1033B000883509F496C0883499F60E945315D0CF09
:1033C000883909F48CC038F5883729F050F48836EC
:1033D00011F0803729F683E08093050410923802BB
:1033E00057C0883809F47BC0803919F0803809F05B
:1033F000B7CF80913802803208F071C0E091380276
:1034000081E08E0F809338028091BB00F0E0E85E8F
:10341000FD4F80833DC0803B39F0E0F4803A09F4F1
:1034200079C0883A09F09CCF84E08093050410921B
:10343000170210921602E0914402F091450209959C
:103440008091160281110FC081E0809316021092C4
:10345000F60109C0803C09F4A6CF883C09F4A3CF4B
:10346000883B09F07DCFE091170281E08E0F8093B9
:103470001702F0E0EA50FE4F80818093BB009091EC
:1034800017028091160229C08091E0038093BB004F
:1034900085EC8093BC0064CF90910204809101047C
:1034A000981758F5E091020481E08E0F8093020492
:1034B000F0E0EF51FC4F8081E9CFE091020481E020
:1034C0008E0F809302048091BB00F0E0EF51FC4F1F
:1034D000808390910204809101049817C8F285E8D6
:1034E000D8CFE091020481E08E0F80930204809196
:1034F000BB00F0E0EF51FC4F808380910404811108
:103500005CCF81E08093DF0384EA8093BC0010925B
:10351000050426CF85EC8093BC00109205048091B1
:103520003802803230F4E0913802F0E0E85EFD4F7E
:1035300010826091380270E0E0914202F091430203
:1035400088E192E00995109238020ACF10920304A4
:1035500034CF109272041092710488EE93E0A0E0D0
:10356000B0E08093730490937404A0937504B093B7
:1035700076042AE731E03093700420936F042DEC39
:1035800030E030937C0420937B042CEC30E03093CB
:103590007E0420937D0428EC30E030938004209357
:1035A0007F0429EC30E030938204209381042AECDC
:1035B00030E030938404209383042EEC30E0309389
:1035C0008604209385041092880410928904109236
:1035D0008A0410928B0410920F0510920E058093AE
:1035E000100590931105A0931205B09313052CE8D4
:1035F00031E030930D0520930C052FEF3FEF309312
:1036000019052093180510925F0510925E058093AE
:10361000600590936105A0936205B09363058EE900
:1036200091E090935D0580935C0580918C058C30D2
:1036300098F491E0980F90938C0580938D0590E01D
:10364000FC01EE0FFF1FE80FF91FE859FA4F88EB56
:103650009BE09283818308958FEF80938D05089579
:10366000CF93DF93CDB7DEB7A9970FB6F894DEBF3F
:103670000FBECDBF789484B5826084BD84B581606F
:1036800084BD85B5826085BD85B5816085BD80912D
:103690006E00816080936E001092810080918100A5
:1036A000826080938100809181008160809381009D
:1036B0008091800081608093800080919100826081
:1036C000809391008091910081608093910080911E
:1036D00090008160809390008091C100846080930D
:1036E000C1008091C10082608093C1008091C100BF
:1036F00081608093C1008091C30081608093C3008A
:103700008091C00082608093C0008091C20081607F
:103710008093C20080917A00846080937A008091C7
:103720007A00826080937A0080917A008160809331
:103730007A0080917A00806880937A001092DE038C
:1037400010924102109240028091D70081608093D4
:10375000D70080EA8093D80089B5806189BD89B59A
:10376000826089BD09B400FEFDCF61E070E080E0B9
:1037700090E00E94E9058091D8008F7C8061809361
:10378000D8008091E000807F8093E0008091E1008C
:103790008E7E8093E1008DE08093E200559A209A1E
:1037A0008FEF9FEF909319058093180561E085E0F6
:1037B0000E94930560E085E00E94220510923C0380
:1037C00010923B0310921B0310921C0310921D03D6
:1037D00010921E0310921A0380E00E94C51260E04E
:1037E00084E10E94930510924702109246021092C3
:1037F0000C0410922E040E94470988E296E09093F0
:1038000045028093440289E296E0909343028093BC
:1038100042028CE08093B8001092480288EB9BE053
:10382000A0E0B0E08093070490930804A0930904FB
:10383000B0930A0481E080930604109278021092FB
:10384000790210927A0210927B0210927C021092FE
:103850007D0210927E0210927F02109280021092DE
:10386000810210928202109283021092A0021092A2
:10387000A1021092A2021092A30210928C02109246
:103880008D0210928E0210928F021092920210926C
:10389000360310929102198240E06FE788E60E9499
:1038A000C70C21E08E010F5F1F4F1801A80160E0D7
:1038B00088E60E94E40C082F882309F461C08981FE
:1038C0008A3E09F0C2C240E866E088E60E94C70C62
:1038D00064E670E080E090E00E94E90540E06FE778
:1038E00088E60E94C70C41E066E088E60E94C70CAB
:1038F0006EE170E080E090E00E94E90540E067E062
:1039000088E60E94C70C6EE170E080E090E00E94C3
:10391000E90540E26FE788E60E94C70C80E090E08E
:10392000A0E0B5E48093100190931101A0931201DF
:10393000B093130147E064E188E60E94C70C83E37B
:1039400093E3A3E8B1E480930C0190930D01A0935D
:103950000E01B0930F0147E061E088E60E94C70CBA
:1039600040E060E088E60E94C70C6EE170E080E015
:1039700090E00E94E90540E06FE788E60E94C70CEE
:10398000198E21E0AE01475E5F4F60ED87E70E9430
:10399000E40C81115CC210E082ED97E00E949A086D
:1039A0008EE897E00E949A088BEB97E0011102C025
:1039B0008FEA97E00E94EE118FEB97E00E949A0841
:1039C00088E997E00E949A088BEA97E0111102C0FB
:1039D0008FE997E00E94EE1101110C94C62C84E04F
:1039E00090E00E943C15111104C082E090E00E941A
:1039F0003C1581E090E00E943C1510E064EF71E01E
:103A000080E090E00E94E9050E94E90B1092CD024F
:103A1000E0917F04F091800482E08083E0917B0458
:103A2000F0917C041082E0917D04F0917E048FEC93
:103A3000808310928704E0918304F091840486E0EF
:103A40008083E0918104F091820480818061808391
:103A5000E0918104F0918204808188608083E0910C
:103A60008104F0918204808180688083E0918104E8
:103A7000F091820480818F7D808381E080931403A4
:103A800010923E0310923D031092D5021092D40280
:103A9000109266021092650284E00E94C512112302
:103AA00009F4F5C010913B0319A712FDA3C000E46F
:103AB00010E0C12CD12C76014601570126013701B7
:103AC000B101CE0149960E94E30D882389F16981F5
:103AD0007A81072E000C880B990B0E9493309B0172
:103AE000AC01C301B2010E94782F2B013C016B8114
:103AF0007C81072E000C880B990B0E9493309B0150
:103B0000AC01C501B4010E94782F4B015C016D81AD
:103B10007E81072E000C880B990B0E9493309B012D
:103B2000AC01C701B6010E94782F6B017C011F5FB9
:103B300065E070E080E090E00E94E905015009F046
:103B4000BFCF112309F456C020910C0130910D0113
:103B500040910E0150910F012DA33EA34FA358A7F2
:103B6000612F70E090E080E00E94933069A37AA317
:103B70008BA39CA39B01AC01C301B2010E94E92F5E
:103B80002DA13EA14FA158A50E94E92F609380026C
:103B900070938102809382029093830229A13AA1BB
:103BA0004BA15CA1C501B4010E94E92F2DA13EA14A
:103BB0004FA158A50E94E92F60937C0270937D026B
:103BC00080937E0290937F0229A13AA14BA15CA130
:103BD000C701B6010E94E92F2DA13EA14FA158A512
:103BE0000E94E92F609378027093790280937A02A1
:103BF00090937B0289A481FC4AC008E210E070E344
:103C0000C72E75E7D72EE12CF12CE0EC4E2EE4ED1B
:103C10005E2E66246394712C812C912C5401B10189
:103C2000CE0149960E94360E882311F1898D9A8D16
:103C3000AB8DBC8DAC01BD01405355476109710985
:103C400041395F456140710598F4880E991EAA1E9E
:103C5000BB1E84159505A605B70514F42C013D017E
:103C6000C816D906EA06FB0614F46C017D011F5F35
:103C700064E170E080E090E00E94E905015079F68F
:103C8000143108F064C182E090E00E943C150E946B
:103C9000740C80913B0390913C0387709927892B8A
:103CA00021F088ED97E00E94EE111092D30210925D
:103CB000D2020E948C131092300310921F031092B4
:103CC000200310922103109222030E941B0660938E
:103CD0008E0370938F03809390039093910360936E
:103CE000920370939303809394039093950360934E
:103CF000C4037093C5038093C6039093C703609376
:103D0000490370934A0380934B0390934C03609351
:103D1000860370938703809388039093890360934D
:103D20008A0370938B0380938C0390938D038E0191
:103D3000015E1F4F18A30F8F0E941B062B013C0131
:103D40008091C4039091C503A091C603B091C703AD
:103D500020919002B301A201481B590B6A0B7B0B07
:103D6000DB01CA01222309F4D4C54497A105B1059A
:103D700008F422C24092C4035092C5036092C60365
:103D80007092C7038090740290907502A0907602A2
:103D9000B09077028091700290917102A0917202AE
:103DA000B091730273016201C81AD90AEA0AFB0AC8
:103DB000C701B6010E94913020E030E04AE754E4A8
:103DC0000E94E92F6B017C014092700250927102B7
:103DD000609272027092730220E030E0A9010E94AA
:103DE000E42F18160CF0E9C020E030E040E05FE37B
:103DF000C701B6010E94433118160CF4DEC09301CE
:103E00008201081919092A093B0909A31AA32BA33E
:103E10003CA380916F02882309F4D3C010926B02F7
:103E200010926C0210926D0210926E021092670254
:103E3000109268021092690210926A02C12CD12C71
:103E400000E8E02E0FE3F02EFFC000E099CD898D51
:103E5000883509F0A0CD46EB60EE87E70E94C70CDD
:103E60006AE070E080E090E00E94E90528E1A101AD
:103E700068E887E70E94E40C182F882309F48BCDAB
:103E800029813A8130934A02209349028B819C8197
:103E900090934C0280934B028D819E8190934E02B1
:103EA00080934D028F8198859093500280934F02AA
:103EB00049855A8550935202409351024B855C8547
:103EC00050935402409353024D855E8550935602A1
:103ED000409355024F85588950935802409357029A
:103EE00049895A8950935A02409359024B895C89F7
:103EF00050935C0240935B024D895E8950935E0251
:103F000040935D024F89588D5093600240935F0249
:103F10001092610210926202109263021092640287
:103F2000232B09F438CD892B09F435CD48E065EF12
:103F300087E70E94C70C4FE264EF87E70E94C70C37
:103F400062E370E080E090E00E94E90525CD212F3A
:103F500030E050E040E0C501B4010E94142F2093EE
:103F6000A0023093A1024093A2025093A302542FC7
:103F7000432F322F222720939302309394024093B1
:103F8000950250939602C418D508E608F70839E759
:103F9000C316D104E104F10424F080E091E00E9412
:103FA0003C1510928C0210928D0210928E0210928B
:103FB0008F0281E0809392026ACEC12CD12C7601CF
:103FC0001ECF8090670290906802A0906902B09026
:103FD0006A0229A13AA14BA15CA12A3F3105410502
:103FE000510508F03CC420E030E04CE852E4C70141
:103FF000B6010E94483120916B0230916C024091D1
:104000006D0250916E020E94782F9B01AC012093AB
:104010006B0230936C0240936D0250936E02C701A5
:10402000B6010E944831A50194010E94782F609347
:104030006702709368028093690290936A02C12CB0
:10404000D12CE12C91E4F92E20E030E0A90160911F
:104050006702709168028091690290916A020E94E1
:10406000E42F1816CCF0109267021092680210929A
:10407000690210926A0210926B0210926C02109206
:104080006D0210926E0281E080936F02C12CD12CE0
:1040900010E8E12E1FE3F12E609167027091680233
:1040A0008091690290916A0260939E0370939F03CE
:1040B0008093A0039093A103C092AE03D092AF036C
:1040C000E092B003F092B1031092A2031092A30306
:1040D0001092A4031092A5031092A6031092A703B6
:1040E0001092A8031092A903C092AA03D092AB0326
:1040F000E092AC03F092AD031092B2031092B303BE
:104100001092B4031092B5031092B6031092B70345
:104110001092B8031092B9031092BA031092BB0325
:104120001092BC031092BD032DEC3CEC4CE351E427
:104130000E9448310E945B300091A0021091A102C0
:104140002091A2023091A30248015901861A970AD0
:10415000A80AB90AD501C4018093960390939703E6
:10416000A0939803B0939903A12CB12CB0EACB2E65
:10417000B1E4DB2EA0929A03B0929B03C0929C0301
:10418000D0929D0381E08093C3038093C203409249
:10419000BE035092BF036092C0037092C103C9A0D6
:1041A000DAA0EBA0FCA001E2C0160EE4D006E10408
:1041B000F10410F01092900280914703813009F0D1
:1041C000CCC0809190028111C8C08091C203882325
:1041D00009F4C3C08091A0029091A102A091A20213
:1041E000B091A302181619061A061B060CF0B5C0EA
:1041F00080919F02882351F010929F0240929B026F
:1042000050929C0260929D0270929E028091C30324
:10421000882309F48CC08091BE039091BF03A091C4
:10422000C003B091C10340919702509198026091F0
:10423000990270919A0284179507A607B70709F4A7
:1042400076C040919B0250919C0260919D027091BA
:104250009E0253014201841A950AA60AB70AB501C3
:10426000A401483B0BE050076105710508F45FC0ED
:10427000E09136038093970290939802A09399025D
:10428000B0939A02009193021091940220919502AA
:10429000309196028091960390919703A091980394
:1042A000B0919903BA2FA92F982F8827801B910BC3
:1042B000A20BB30BFAE0E11101C0F4E004C0B59524
:1042C000A79597958795FA95D2F7800F911FA21F12
:1042D000B31F8093930290939402A0939502B0939E
:1042E0009602892F9A2FAB2FBB27A7FDBA958093F3
:1042F000A0029093A102A093A202B093A302E111A5
:104300002CC040345F4161057105A8F01092920203
:1043100081E08093360380913B0390913C039E7F24
:1043200090933C0380933B038FE00E94C5128091E1
:104330003603811112C08091910281110EC020E3D9
:10434000421625E752066104710438F080E091E0DE
:104350000E943C1581E08093910280918E039091A0
:104360008F03A0919003B0919103B301A201481B68
:10437000590B6A0B7B0BDB01CA014497A105B10500
:1043800008F491C040928E0350928F036092900384
:10439000709291031091C30300914703112309F414
:1043A0003FC08091C0029091C102A091C202B09121
:1043B000C302C0909E03D0909F03E090A003F090B2
:1043C000A1030097A105B10509F0B3C4C092BC02D6
:1043D000D092BD02E092BE02F092BF024092C002B3
:1043E0005092C1026092C2027092C302A70196016C
:1043F00060913103709132038091330390913403C3
:104400000E94E42F87FF0CC08EEF800F823040F4B3
:10441000C0923103D0923203E0923303F09234031E
:10442000033009F4F0C508F0BCC4013009F4F5C448
:10443000023009F4A6C5C090CE02D090CF02E09021
:10444000D002F090D102C114D104E104F10459F179
:10445000A30192012C193D094E095F0969017A01F6
:1044600080913503823069F038EBC3163BE0D30608
:10447000E104F10430F081E00E944A1385E00E94DB
:104480006A1380914703873071F040E6C4164AEE04
:10449000D406E104F10438F080E890E00E943C1575
:1044A00087E00E946A138091C9029091CA02A0918C
:1044B000CB02B091CC020097A105B10519F15301CF
:1044C0004201881A990AAA0ABB0AD501C401803B95
:1044D0009440A105B105B4F0E0918D058E2F90E0D8
:1044E000FC01EE0FFF1FE80FF91FE859FA4F80811A
:1044F0008F7B80831092C9021092CA021092CB0265
:104500001092CC0220913503223051F58091C802DF
:10451000811126C08091C4029091C502A091C6026B
:10452000B091C702B301A201481B590B6A0B7B0B68
:10453000DB01CA01803B9440A105B1058CF0E091FC
:104540008D058E2F90E0FC01EE0FFF1FE80FF91F85
:10455000E859FA4F80818F7B808381E08093C80285
:1045600080918A0390918B03A0918C03B0918D036D
:1045700073016201C81AD90AEA0AFB0A809186030C
:1045800090918703A0918803B0918903B301A201A0
:10459000481B590B6A0B7B0B88E2C816D104E10457
:1045A000F10430F4483C51056105710508F4A8C6D2
:1045B00040924D0350924E0360924F03709250030D
:1045C0008091CE029091CF02A091D002B091D10201
:1045D0000097A105B10541F053014201881A990ADB
:1045E000AA0ABB0AD501C4018093510390935203D8
:1045F000A0935303B09354038091D2029091D302BD
:1046000001969093D3028093D202909356038093A5
:10461000550380914703809357032093580380915B
:10462000960390919703A0919803B091990380937A
:10463000590390935A03A0935B03B0935C0380915A
:104640009A0390919B03A0919C03B0919D0380934A
:104650005D0390935E03A0935F03B093600380912A
:104660009E0390919F03A091A003B091A10380931A
:10467000610390936203A0936303B09364038091FA
:10468000310390913203A0913303B09134038093AE
:10469000650390936603A0936703B09368038091CA
:1046A000A2039091A303A091A403B091A5038093CA
:1046B000690390936A03A0936B03B0936C0380919A
:1046C000A6039091A703A091A803B091A90380939A
:1046D0006D0390936E03A0936F03B093700380916A
:1046E000AA039091AB03A091AC03B091AD0380936A
:1046F000710390937203A0937303B093740380913A
:10470000B2039091B303A091B403B091B503809329
:10471000750390937603A0937703B0937803809109
:10472000B6039091B703A091B803B091B9038093F9
:10473000790390937A03A0937B03B0937C038091D9
:10474000BA039091BB03A091BC03B091BD038093C9
:104750007D0390937E03A0937F03B09380038091A9
:10476000CD0280938103E0911403E0938203809152
:104770003B0390913C039C0126703327232B09F4C3
:10478000D5C422E020938303909385038093840310
:1047900008E2C016D104E104F10440F040928A031B
:1047A00050928B0360928C0370928D03483C5105AC
:1047B0006105710508F4A4C54092860350928703F1
:1047C0006092880370928903E13011F00C94AC2D53
:1047D0000E94A1124091D4025091D5024F5F5F4FC9
:1047E0005093D5024093D40270E060E08FE294E0F1
:1047F0000E94711014E08E36910720F42CE7DC0142
:104800002C93019640914D0350914E0360914F03BC
:10481000709150030E947110B4E08E369B0720F413
:104820002CE7FC0120830196E0915703E93008F062
:104830007FC4F0E0EE0FFF1FE55BFE4F0190F081BB
:10484000E02DDC018D018491882309F474C4319634
:1048500024E0AE36B20708F076C48D93F3CF809192
:1048600035038230B9F123EC35EF4CE151E4C70157
:10487000B6010E9448319B01AC0160916B027091BE
:104880006C0280916D0290916E020E94772F9B01C5
:10489000AC0120936B0230936C0240936D025093F5
:1048A0006E02C701B6010E944831A50194010E9421
:1048B000782F6093670270936802809369029093E7
:1048C0006A028AE9C82E89E9D82E89E1E82E8EE3AA
:1048D000F82EBACB40E050E060EA70EC40936B02F7
:1048E00050936C0260936D0270936E029A01AB015B
:1048F000C701B6010E944831A50194010E94782F9A
:1049000060936702709368028093690290936A02D1
:1049100095CA4497A105B105A8F04092C4035092EE
:10492000C5036092C6037092C703B101CE014996D8
:104930000E94E30D811131C01092C20384E090E027
:104940000E943C158091920390919303A09194034F
:10495000B091950363015201A81AB90ACA0ADB0A89
:10496000D601C5018897A105B10508F425CC409270
:104970009203509293036092940370929503B10155
:10498000CE0149960E94360E81111FC11092C303B9
:1049900082E090E00E943C150FCC20918A02309179
:1049A0008B02A901440F551FFE017996A4E8B2E0DD
:1049B000819191916D917D91861B970B820F931F31
:1049C0004817590708F0FAC086E0FE017996A4E876
:1049D000B2E001900D928A95E1F781E080939F0209
:1049E000C0901001D0901101E0901201F0901301DD
:1049F00080900C0190900D01A0900E01B0900F01DD
:104A000089A29AA2ABA2BCA2698D7A8D072E000C56
:104A1000880B990B0E949330A70196010E94E92F01
:104A20006DA37EA38FA398A76093A2037093A303A3
:104A30008093A4039093A5036B8D7C8D072E000CAF
:104A4000880B990B0E949330A70196010E94E92FD1
:104A50004B015C018092A6039092A703A092A80349
:104A6000B092A9036D8D7E8D072E000C880B990BDB
:104A70000E949330A70196010E94E92F6B017C01EF
:104A8000C092AA03D092AB03E092AC03F092AD03C4
:104A900069817A81072E000C880B990B0E94933054
:104AA00029A13AA14BA15CA10E94E92F209180028B
:104AB0003091810240918202509183020E94772FAF
:104AC0006093B2037093B3038093B4039093B503E0
:104AD0006B817C81072E000C880B990B0E94933010
:104AE00029A13AA14BA15CA10E94E92F20917C024F
:104AF00030917D0240917E0250917F020E94772F7B
:104B00006093B6037093B7038093B8039093B9038F
:104B10006D817E81072E000C880B990B0E949330CB
:104B200029A13AA14BA15CA10E94E92F2091780212
:104B30003091790240917A0250917B020E94772F46
:104B40006093BA037093BB038093BC039093BD033F
:104B50002DA13EA14FA158A5CA01B9010E9448311B
:104B600069A37AA38BA39CA3A5019401C501B401F9
:104B70000E9448319B01AC0169A17AA18BA19CA143
:104B80000E94782F4B015C01A7019601C701B60175
:104B90000E9448319B01AC01C501B4010E94782FED
:104BA0000E940B326093AE037093AF038093B00307
:104BB0009093B10381E08093C203C4CE8F8C98A000
:104BC000E815F90509F0F4CE0BCF698D7A8D8B8D40
:104BD0009C8D8B019C010053154721093109013936
:104BE0001F452140310518F01092C303E5CA6093B8
:104BF0009603709397038093980390939903098188
:104C00001A812B813C8100939A0310939B0320937C
:104C10009C0330939D03C090A002D090A102E0902D
:104C2000A202F090A3021C141D041E041F040CF029
:104C30005BC00E9493304B015C01C701B6010E942A
:104C400093309B01AC01C501B4010E94E92F2BEA0E
:104C50003CED42E45EE30E94B5319B01AC0160E0B3
:104C600070E080E89FE30E94772F20E03AE24DE277
:104C700057E40E9448316B017C0120E030E04AEFAC
:104C800053E4C701B6019F770E94433118160CF414
:104C9000ABCF8091920281112BC0C0928C02D09236
:104CA0008D02E0928E02F0928F0281E08093920258
:104CB00080918C0290918D02A0918E02B0918F0212
:104CC00080939E0390939F03A093A003B093A103AE
:104CD0004092BE035092BF036092C0037092C10322
:104CE00081E08093C30368CAC12CD12C7601C5CF63
:104CF00080908C0290908D02A0908E02B0908F02D6
:104D0000A5019401C701B6010E94772F23E333E385
:104D100043EB5EE30E944831A50194010E94782F85
:104D200060938C0270938D0280938E0290938F0219
:104D3000BFCF53014201881A990AAA0ABB0A52E35B
:104D400085169104A104B10408F450CB2091BC0253
:104D50003091BD024091BE025091BF02C701B60121
:104D60000E94772F20E030E04AE754E40E94483167
:104D700069A37AA38BA39CA3C501B4010E949130BF
:104D80009B01AC0169A17AA18BA19CA10E94E92F92
:104D90006093B8027093B9028093BA029093BB02F9
:104DA00015CB073008F047CB112399F06091B8027A
:104DB0007091B9028091BA029091BB029F7720E076
:104DC00030E040E05FE30E94E42F182F111F11270D
:104DD000111F8091C2038823B9F020E030E040E841
:104DE0005FE36091AE037091AF038091B003909147
:104DF000B1030E94772F9F7720E030E040E85EE328
:104E00000E94E42F87FDA8C51092A4021092A5026B
:104E10001092A6021092A7020ECB8091C2038823A3
:104E200009F409CB20E030E040E250E46091AE03A9
:104E30007091AF038091B0039091B1030E94433110
:104E400087FF3EC01092B4021092B5021092B602D3
:104E50001092B702C090B002D090B102E090B202BE
:104E6000F090B302C114D104E104F10409F4E3CADF
:104E7000112309F45DC020E030E040EC5FE3609175
:104E80009E0370919F038091A0039091A1030E94C3
:104E9000E42F87FF4DC0D301C2018C199D09AE09D3
:104EA000BF09893E9340A105B10508F4C4CA109218
:104EB000B0021092B1021092B2021092B302BBCAB9
:104EC0008091B4029091B502A091B602B091B70260
:104ED0000097A105B10549F44092B4025092B50281
:104EE0006092B6027092B702B5CF53014201881AA0
:104EF000990AAA0ABB0AD501C401CC97A105B1053C
:104F000008F4A8CF8091B0029091B102A091B202B2
:104F1000B091B302892B8A2B8B2B09F09BCF409247
:104F2000B0025092B1026092B2027092B30292CF7C
:104F30004092CE025092CF026092D0027092D10283
:104F400080E090E0DC01112341F080919E0390917C
:104F50009F03A091A003B091A1038093310390938C
:104F60003203A0933303B09334031092C002109223
:104F7000C1021092C2021092C30282E00E946A1320
:104F80005ACA8091C203882381F020E030E040EAD1
:104F90005FE36091AE037091AF038091B003909195
:104FA000B1030E94E42F87FD09C01092AC02109259
:104FB000AD021092AE021092AF023DCA8091AC02D7
:104FC0009091AD02A091AE02B091AF020097A10501
:104FD000B10549F44092AC025092AD026092AE022B
:104FE0007092AF0228CAA3019201281B390B4A0B09
:104FF0005B0BDA01C90180359105A105B10508F403
:105000001ACA83E0BBCF112309F415CA80909E030E
:1050100090909F03A090A003B090A1032091310332
:10502000309132034091330350913403C501B401F0
:105030000E944331181644F4809231039092320357
:10504000A0923303B0923403C090CE02D090CF022E
:10505000E090D002F090D102C114D104E104F10437
:1050600009F421CAD301C2018C199D09AE09BF09F7
:1050700080399140A105B10508F4EAC9A501940160
:105080006091310370913203809133039091340326
:105090000E94772F20E030E040E050E40E9443314E
:1050A00087FF09C01092A8021092A9021092AA02CA
:1050B0001092AB02C0C98091A8029091A902A09160
:1050C000AA02B091AB020097A105B10549F4409244
:1050D000A8025092A9026092AA027092AB02ABC9D8
:1050E000B301A201481B590B6A0B7B0BDB01CA0100
:1050F00086399105A105B10508F4AAC984E00E948A
:105100006A1380E00E944A1385E038CF53014201C0
:10511000881A990AAA0ABB0AD501C401803D9740A2
:10512000A105B10508F487C987E028CF21E02ACB83
:10513000E7E7F8E086CB34E0AE36B30720F48CE73F
:105140008C930F5F1F4FC0906103D0906203E0907B
:105150006303F090640320E030E0A901C701B601C9
:105160000E94E42F87FF4CC020E836E948E15CEC60
:10517000C701B6010E94433118160CF424C464EB35
:1051800071E0C8010E94C5048C018E56944028F439
:105190008CE7F80180830F5F1F4F60915903709176
:1051A0005A0380915B0390915C032AE0A1010E9465
:1051B000B92EB101C8010E94C504F4E08E369F07E4
:1051C00020F42CE7DC012C930196E0915803E430A5
:1051D00008F06AC0F0E0EE0FFF1FE35AFE4F0190A7
:1051E000F081E02DDC01CD012491222309F45FC080
:1051F000319604E0AE36B00708F060C02D93F3CFCF
:1052000020E836E948E15CE4C701B6010E94E42FDA
:1052100087FFB5CF20E030E048EC52E4C701B6018B
:105220000E94483120E030E040E05FE30E94782FA8
:105230000E9462306B017C01C701B60124E630E0B8
:1052400040E050E00E94462FBA01A901C8010E9427
:1052500071108C018E56944028F48EE2D8018C9304
:105260000F5F1F4FC701B60124E630E040E050E079
:105270000E94462FCB014AE0B1010E94EA2EF101C3
:1052800001900020E9F73197E21980E3E23050F411
:10529000B4E00E361B0720F4D8018C930F5F1F4F2C
:1052A000EF5FF4CFB1016DCFE9E7F8E09BCF14E0F9
:1052B000AE36B10718F42CE72C9301964091840385
:1052C0005091850370E060E00E9471100E94440CD0
:1052D0008C01FC0110828FE694E00E941C070F52A3
:1052E00014400E5F0817190609F00CF495C0809160
:1052F0003D0390913E03019690933E0380933D03BE
:1053000080911403813009F027C430E2B32EAA241F
:10531000A3948FE694E00E944D07892B09F4B5C34E
:105320008FE694E00E942B0740913F035091400389
:1053300060914103709142034F5F5F4F6F4F7F4F0A
:1053400040933F03509340036093410370934203A3
:105350008A3009F078C080910F03882309F490C344
:10536000863008F44FC09091FF02913209F04AC094
:1053700090E08C0101501D4F7801680113E0C11AC3
:10538000D108D6018C918A32E9F5F70132978081F4
:105390000E940D0C8C01F701319780810E940D0C49
:1053A0007C0117FD2FC097FD2DC0B6018FEF92E055
:1053B0000E942C0C0295007FE00E8E1123C0E0E0CD
:1053C000F3E080E030E020E0DF01EC15FD05D0F4F3
:1053D000919140ED490F4A3008F019C3BAE0B29FED
:1053E000A001B39F500D11249A0120533109290FB8
:1053F000311D97FD3A958F5F843021F02F3F3105A5
:1054000019F310F380914503909146030196909310
:1054100046038093450334C36FE274E08FE694E063
:105420000E94971068EB71E08FE694E00E9497105D
:105430000E941B0660931003709311038093120364
:10544000909313035DCF8D3009F41CC3813229F48E
:105450008093FF02A0920F0315C3E0910F039FEF0B
:105460009E0F9F3008F00CC391E09E0F90930F03A6
:10547000F0E0E150FD4F808305C3B394B4E0BB126C
:1054800028C36AC32AE939E941E051E4C701B601FA
:105490000E94433118160CF0EFC380913B039091AA
:1054A0003C03109215039D7F90933C0380933B0334
:1054B000E3C384E690E0F5C30235C1F51730C9F5C2
:1054C000F090240380912F038823C9F080912E034C
:1054D0008F1115C080912A0390912B03A0912C036A
:1054E000B0912D03A3019201281B390B4A0B5B0BD2
:1054F000DA01C901803A9F40A105B10598F0043452
:1055000009F07FC181E00E944A13F0922E0340927D
:105510002A0350922B0360922C0370922D0381E09A
:1055200080932F03602F8F2D0E942212173009F4D1
:105530000CC48091490390914A03A0914B03B09110
:105540004C0353014201881A990AAA0ABB0AD501E1
:10555000C401883C9105A105B10508F437C140920A
:10556000490350924A0360924B0370924C034AE005
:10557000C301B2010E94A61088EB98E00E949A082D
:10558000E091470387E798E0E93038F4F0E0EE0F68
:10559000FF1FE55BFE4F808191810E949A0884EB9A
:1055A00098E00E949A0860919E0370919F038091F9
:1055B000A0039091A10342E00E9416118EEA98E0A8
:1055C0000E949A08609131037091320380913303F5
:1055D0009091340342E00E94161188EA98E00E94FC
:1055E0009A086091AE037091AF038091B0039091DF
:1055F000B10342E00E94161184EA98E00E949A08E2
:10560000609196037091970380919803909199030C
:105610000E94EC108EE998E00E949A08E091350310
:1056200089E798E0E43038F4F0E0EE0FFF1FE35A2A
:10563000FE4F808191810E949A088AE998E00E9439
:105640009A086091360370E090E080E00E94EC10D0
:1056500085E998E00E949A086091370370913803B9
:105660008091390390913A0342E00E9416118DE82F
:1056700098E00E949A0860913B0370913C0390E08F
:1056800080E040E10E94A61085E898E00E949A0818
:1056900060913D0370913E0390E080E04AE00E94FB
:1056A000A61080E898E00E949A0880918D05282F26
:1056B00030E0F901EE0FFF1FE20FF31FE859FA4F38
:1056C00090812FEF3FEF96FF4EC090918F0548E5F8
:1056D000C42E42E0D42EC91AD10897FDD394CC0C25
:1056E000DD1CCC0CDD1C0D2C000CEE08FF0890918D
:1056F0008E0568E8862E912C891A910897FD93945F
:10570000880C991C880C991C092C000CAA08BB0851
:105710008F3F09F41EC18181928123E0880F991F78
:105720002A95E1F7B0E0A0E034E0B595A79597950C
:1057300087953A95D1F702969C012F5F3F4F032E34
:10574000000C440B550B281939094A095B09A4EBD5
:10575000B0E00E94332FA7019601281939094A09A0
:105760005B090E94142FB901330F880B990B0E941B
:10577000EC108BE798E00E949A0860913F037091CB
:10578000400380914103909142034AE00E94A61099
:105790008FE20E949508609143037091440390E06A
:1057A00080E04AE00E94A6108FE20E949508609176
:1057B00045037091460390E080E04AE00E94A61005
:1057C00068EB71E08CE095E00E94971080914703B0
:1057D000873039F480914803811103C081E08093C0
:1057E000480380E090E0892B11F40C949C1E0E94E9
:1057F0005907882311F40C94971E0E9400000C9402
:10580000971EC301B2010E94A0137FCE8091300386
:10581000882399F140911F03509120036091210347
:105820007091220353014201841A950AA60AB70A0D
:10583000B501A4014C3D554061057105F0F0409261
:105840001F03509220036092210370922203813043
:1058500051F0823009F474C089E298E00E94EE11A0
:10586000109230030AC088E70E94CA0B84E698E0D1
:105870000E94EE1182E080933003809129038823F7
:1058800009F44EC0109229038091250390912603BC
:10589000A0912703B0912803A3019201281B390B83
:1058A0004A0B5B0BDA01C901813D9740A105B105A7
:1058B000BCF5109124030091230380912F038823CA
:1058C000C9F080912E03811315C080912A03909115
:1058D0002B03A0912C03B0912D03B301A201481B0F
:1058E000590B6A0B7B0BDB01CA01803A9F40A10573
:1058F000B10590F0B301A201802F0E94C51310934F
:105900002E0340922A0350922B0360922C03709234
:105910002D0381E080932F03602F812F0E9422129C
:105920008CE095E00E940609892B09F402CE8CE0F8
:1059300095E00E94C408B301A2010E94C513F9CDED
:1059400084E10E94CA0B83E498E00E94EE1183E098
:1059500092CF90E080E0F0CE112309F455CA8091F7
:10596000A4029091A502A091A602B091A70200976F
:10597000A105B10509F0CACB4092A4025092A5023C
:105980006092A6027092A7020C941B22112311F4BC
:105990000C94F51C2DEC3CEC4CEC5DE3609110019B
:1059A0007091110180911201909113010E94483170
:1059B0000E945B3070938B0260938A0281E00E94A8
:1059C000C5120C94FE1CC701B601905820E030E0CF
:1059D00048EC52E40E94483120E030E040E05FE3D0
:1059E0000E94782F0E9462306B017C01C114D104A7
:1059F000E104F10409F420CCB4E00E361B0708F0F2
:105A00001BCC8DE2F80180830F5F1F4F15CC8823DC
:105A100009F4F8CC8C918C3709F0F4CCCD010296C6
:105A2000C816D90609F0EECC11968C919EE8980F15
:105A3000933068F08A3759F0823549F0982F9F7D6E
:105A4000943429F090ED980F9A3008F0DBCC209335
:105A50002403809323030E941B0660932503709305
:105A600026038093270390932803A0922903809113
:105A7000430390914403019690934403809343031E
:105A800010920F03BA94B11044CC0E94A1120E944C
:105A90001B06AB01BC018091100390911103A091F2
:105AA0001203B091130324EC822E99249A94A92C0A
:105AB000B92C881A990AAA0ABB0AD501C401840F15
:105AC000951FA61FB71FCC97A105B10508F044C0CC
:105AD000B12C8091FE028B0D83709AE0992E989ED6
