:100000000C94B0030C94D8030C94D8030C94D8032C
:100010000C94D8030C94D8030C94D8030C94D803F4
:100020000C94D8030C94D8030C9407100C947610FD
:100030000C94D8030C94D8030C94D8030C94D803D4
:100040000C94D8030C94A8120C94D8030C94D803E5
:100050000C94D8030C94D8030C94D8030C94BD0FC3
:100060000C94D8030C94D8030C94D8030C94D803A4
:100070000C94D8030C94D8030C94D8030C94D80394
:100080000C94D8030C94D8030C94D8030C94D80384
:100090000C9464130C94D8030C94D8030C94D803D8
:1000A0000C94D8030C94D8030C94D80307634236FD
:1000B000B79BD8A71A39685618AEBAAB558C1D3CF9
:1000C000B7CC5763BD6DEDFD753EF6177231BF00BD
:1000D0000000803F08000000BE922449123EABAAF7
:1000E000AA2ABECDCCCC4C3E00000080BEABAAAA52
:1000F000AA3E00000000BF000000803F000000009A
:1001000000084178D3BB4387D1133D190E3CC3BDD2
:100110004282AD2B3E68EC8276BED98FE1A93E4C7F
:1001200080EFFFBE01C4FF7F3F0000000000475288
:100130004F554E445F5A45524F004241434B555034
:100140005F4445504C4F5900435249544943414C38
:100150005F4552524F52004C414E44454400444585
:100160005343454E54005245434F564552595F4400
:1001700045504C4F590041504F4745455F434F4E06
:100180004649524D454400424F4F53545F454E44FB
:10019000004C41554E43485F444554454354454403
:1001A00000524541445900524144494F5F4641493C
:1001B0004C00524144494F5F4F4B0053445F46410E
:1001C000494C0053445F4F4B0053454E534F5253DD
:1001D0005F4F4B00504F5745525F4F4E00455252B4
:1001E0004F52004C414E444544005245434F564502
:1001F00052590044455343454E540041504F4745E2
:100200004500434F41535400424F4F535400524511
:1002100041445900494E4954004552524F520044FE
:1002200045504C4F5945440041524D4544005341BF
:100230004645003F005D20005B45562000080B004E
:10024000020202000009040000010202000005246D
:100250000010010524010101042402060524060002
:10026000010705810310004009040100020A000093
:100270000007050202400000070583024000000459
:1002800003090412010002EF0201404123368000FD
:10029000010102030141726475696E6F204C4C4389
:1002A0000041726475696E6F204C656F6E61726497
:1002B0006F0020D09ED0A2D09AD090D09700206F0F
:1002C0006B0020D09ED0A2D09AD090D09700206F03
:1002D0006B00D091D0B0D180D0BED0BCD0B5D1828F
:1002E000D1803A2000494D553A2000D09AD0A0D074
:1002F00098D0A2D098D0A7D095D0A1D09AD090D0A5
:10030000AF20D09ED0A8D098D091D09AD0903A204B
:10031000D0BFD0BED0BBD191D18220D0BDD0B5D07E
:10032000B2D0BED0B7D0BCD0BED0B6D0B5D0BD0054
:10033000070605040100080A0B0C0D09D186D0B888
:10034000D0BAD0BB20D0B7D0B0D0B2D0B5D180D148
:1003500088D191D0BD00D186D0B8D0BAD0BB3A20D8
:10036000D0B2D0BED0B7D0B2D180D0B0D18220D060
:10037000B2205341464500D186D0B8D0BAD0BB3A5E
:10038000204445504C4F5945440020203F2020D167
:100390008DD182D0B020D181D0BFD180D0B0D0B2A9
:1003A000D0BAD0B0002020692020D181D0B2D0B501
:1003B000D0B4D0B5D0BDD0B8D18F20D0BE20D0B66B
:1003C000D0B5D0BBD0B5D0B7D0B50020207220209A
:1003D000D0BFD180D0BED0B3D0BED0BD20D0BFD191
:1003E00080D0BED184D0B8D0BBD18F20D0BFD0BEFA
:1003F000D0BBD191D182D0B02028D0BF2E203433B1
:1004000020D0A2D09729002020302E2E392020D1B4
:1004100083D0B3D0BED0BB20302E2E31383020D187
:100420008120D188D0B0D0B3D0BED0BC2032300033
:100430002020742020D186D0B8D0BAD0BB20534120
:100440004645202D3E204445504C4F594544202DD3
:100450003E2053414645002020642020D0BFD1805B
:10046000D0B8D0B2D0BED0B420D0B2204445504C89
:100470004F594544002020732020D0BFD180D0B8F0
:10048000D0B2D0BED0B420D0B22053414645002DCA
:100490002D2D20D181D0B5D180D0B2D0B8D181D08E
:1004A000BDD18BD0B920D180D0B5D0B6D0B8D0BC1A
:1004B0002028D0BF2E20343020D0A2D09729202D44
:1004C0002D2D0049434D2D323039343800424D50E6
:1004D00032383000413A20D0B4D0B0D182D187D068
:1004E000B8D0BAD0B8202B20D181D0B5D180D0B22D
:1004F000D0BED0BFD180D0B8D0B2D0BED0B4002052
:1005000020D0BDD0B0D0B1D0BED1803A20002020C4
:10051000D180D0B0D0B4D0B8D0BE3A20D0BFD18036
:10052000D0BED0BFD183D189D0B5D0BDD0BE20D070
:10053000B8D0B72DD0B7D0B020D0B1D183D184D02E
:10054000B5D180D0B03A20002020D184D0BBD0B02B
:10055000D0B3D0B820D0BED188D0B8D0B1D0BED022
:10056000BA3A203078002020D0B1D0B0D182D0B0BB
:10057000D180D0B5D18F2C20D0923A20002020D12C
:1005800083D0B3D0BBD18B20D0BFD180D0B8D0B274
:10059000D0BED0B4D0B020534146452F4445504C36
:1005A0004F593A20002020D0B4D0B0D0B2D0BBD028
:1005B000B5D0BDD0B8D0B520D0BFD0BBD0BED189CA
:1005C000D0B0D0B4D0BAD0B82C20D09FD0B03A2080
:1005D000002020D0B1D0B0D180D0BED0BCD0B5D119
:1005E00082D1803A20002020494D553A20202020F9
:1005F0002020002D2D2D20D0B6D0B5D0BBD0B5D029
:10060000B7D0BE202D2D2D00D186D0B8D0BAD0BB0A
:100610003A205341464500D0BFD180D0B8D0B2D0A7
:10062000BED0B4202D3E20D183D0B3D0BED0BB20CD
:10063000002D2D2D20D0BFD180D0BED0B3D0BED0C4
:10064000BD20D182D0B5D181D182D0BED0B2D0BEB2
:10065000D0B3D0BE20D0BFD180D0BED184D0B8D04E
:10066000BBD18F202D2D2D00D0BFD180D0B8D0B2DE
:10067000D0BED0B4202D3E204445504C4F59454467
:100680002C20D183D0B3D0BED0BB2000D0BFD1802E
:10069000D0B8D0B2D0BED0B4202D3E205341464574
:1006A0002C20D183D0B3D0BED0BB20003F003F0070
:1006B000207264726F703D00206572723D30780068
:1006C0002076623D00207A3D00207265633D002067
:1006D000703D00207C617C3D00206D61783D0020F4
:1006E000683D00200000000000240027002A002DA3
:1006F00000300000000000250028002B002E0031F3
:1007000000040404040403040502020202040302B8
:100710000202020606060606060404020202040499
:1007200004080201104080401020408040800802F0
:100730000401804020100201108010204040200061
:1007400000000200090F0000030401000C0000007B
:100750000000000000000000000000000000831402
:1007600011241FBECFEFDAE0DEBFCDBF11E0A0E065
:10077000B1E0E2E2F4E502C005900D92A839B107BC
:10078000D9F724E0A8E9B1E001C01D92AC31B2076D
:10079000E1F713E0C0EBD3E004C02197FE010E9413
:1007A000092ACF3AD107C9F70E94CC140C940F2A1A
:1007B0000C940000FC0180914703882311F13FB79E
:1007C000F89482E08093E9002091F200822F90E07B
:1007D0001816190614F481E090E0882339F028985F
:1007E00044E6409346034091F1004083222339F0D0
:1007F0002091F200211103C02BE62093E8003FBFB7
:1008000008958FEF9FEF08952FB7F89483E08093BA
:10081000E9009091E800892F807295FF04C09091C3
:10082000F20080E4891B2FBF089580913E0381115F
:100830000DC082E080933A0384E080933B031092E2
:100840003D0310923C0381E080933E038AE393E0F2
:100850000895282F30E0F901E15CF84F9491F901F7
:10086000E05EF84F84912F5F384FF90124912223E5
:1008700009F430C09923E9F091509F30D0F4E92F6A
:10088000F0E0EB5BFB4F0C94092A730477045404EB
:100890006B046F045904590459047A0480048404D5
:1008A00088048E0459049204909180009F7790935D
:1008B0008000E22FF0E0EE0FFF1FED50F94FA59101
:1008C000B4919FB7F894EC91611132C080958E235A
:1008D0008C939FBF0895909180009F7DE8CF909169
:1008E0008000977FE4CF94B59F7794BDE2CF94B515
:1008F0009F7DFBCF909190009F7790939000D9CFF0
:10090000909190009F7DF9CF90919000977FF5CFC7
:100910009091C0009F779093C000CBCF9091C00082
:100920009F7DF9CF9091C200977F9093C200C1CF75
:100930008E2BCECFCF93DF9390E0FC01E05EF84F9B
:1009400024918F5F984FFC0184918823D1F090E02F
:10095000880F991FFC01EB51F94FA591B491FC014F
:10096000ED50F94FC591D49161110EC09FB7F89425
:100970008C91E22FE0958E238C932881E223E883EB
:100980009FBFDF91CF9108958FB7F894EC91E22B40
:10099000EC938FBFF6CF3FB7F894809136039091D8
:1009A0003703A0913803B091390326B5A89B05C041
:1009B0002F3F19F00196A11DB11D3FBFBA2FA92FDE
:1009C000982F8827BC01CD01620F711D811D911DDB
:1009D00042E0660F771F881F991F4A95D1F7089547
:1009E0008F929F92AF92BF92CF92DF92EF92FF923F
:1009F0004B015C010E94CB046B017C010E94CB0483
:100A00006C197D098E099F09683E73408105910527
:100A1000A8F321E0821A9108A108B10888EEC80E57
:100A200083E0D81EE11CF11C81149104A104B104DF
:100A300029F7FF90EF90DF90CF90BF90AF909F90FD
:100A40008F9008952FB7F89460913203709133031B
:100A500080913403909135032FBF08950895089530
:100A600008954091FE015091FF012091FC013091C9
:100A7000FD0142175307B4F49091E8009570E1F33B
:100A80009091E80092FD19C08093F1008091FE01E1
:100A90009091FF0101968F739927892B19F48EEF9E
:100AA0008093E8008091FE019091FF010196909360
:100AB000FF018093FE0181E0089580E00895EF92A8
:100AC000FF920F931F93CF93DF93F82E192FE62EEB
:100AD000042F81E0860F880F0E94310583E00E9479
:100AE0003105CF2DD12FEC0EFD2EF11CCE15DF05DB
:100AF000B9F007FF13C0FE0184910E943105182F41
:100B000080E00E943105812321968111EFCFDF9192
:100B1000CF911F910F91FF90EF9008958881EDCFB5
:100B200081E0F5CFDF92EF92FF920F931F93CF9367
:100B3000DF93D82E8A01EB017B01E40EF51ECE1562
:100B4000DF0559F0D7FE12C0FE0184910E943105E5
:100B500021968111F4CF0FEF1FEFC801DF91CF91E4
:100B60001F910F91FF90EF90DF9008958881EECF55
:100B70000F931F93CF93DF931F92CDB7DEB782E021
:100B8000898342E450E06DE372E080E80E949205C0
:100B90000E941504DC0112960D911C91011511059E
:100BA00089F0D801ED91FC910280F381E02DBE0126
:100BB0006F5F7F4FC801099597FD04C0F80100855C
:100BC0001185ECCF89810F90DF91CF911F910F910B
:100BD0000895615030F02091F100FC0120830196CE
:100BE000F8CF289884E68093460308958F929F92C9
:100BF000AF92BF92CF92DF92EF92FF920F931F932B
:100C0000CF93DF936C017B018A0180910B018823D4
:100C100009F45CC080914703882309F457C0809190
:100C2000020280FF05C08091E00082608093E000B6
:100C3000E801B12C8AEFA82E93E0892E2AE3922EA8
:100C4000209711F4BB20D9F10E94040481110AC03D
:100C5000AA94AA20D9F161E070E080E090E00E94BF
:100C6000F004EECF8C171D0611F00CF08C2F9FB7FF
:100C7000F8948092E9002091E80025FD02C09FBF12
:100C8000DFCF282F30E0C21BD30BF701815020F0BB
:100C900041914093F100FACFE20EF31EBB2021F008
:100CA0009092E800B12CEBCF8091E80085FDE7CF72
:100CB0009092E800BB24B394209709F3F3CF5D989A
:100CC00084E680930102101611063CF081E090E06A
:100CD000F6019383828310E000E0C801DF91CF9199
:100CE0001F910F91FF90EF90DF90CF90BF90AF904A
:100CF0009F908F900895CF93DF931F92CDB7DEB76B
:100D00006983DC01ED91FC910280F381E02D41E0EB
:100D100050E0BE016F5F7F4F09950F90DF91CF913B
:100D200008950F931F93CF93DF938C01D0E0C0E021
:100D3000F801EC0FFD1F6491662341F088E993E010
:100D40000E947B06892B11F02196F2CFCE01DF9114
:100D5000CF911F910F91089583E08093E9008091D6
:100D6000F200882319F08AE38093E80008950E9436
:100D7000040490E00895CF93DF931F92CDB7DEB7C0
:100D8000FC018485958597FD08C02FEF3FEF3587DF
:100D900024870F90DF91CF910895CE0101960E9494
:100DA000DA03019719F4898190E0F3CF8FEF9FEF79
:100DB000F0CF0F931F93CF93DF931F92CDB7DEB782
:100DC0008C01FC018485958597FF0BC0CE010196AF
:100DD0000E94DA03019771F4898190E0F801958708
:100DE0008487F801848595850F90DF91CF911F91BD
:100DF0000F9108958FEF9FEFF1CFFC0184859585CA
:100E000097FD0BC09FB7F89482E08093E900809132
:100E1000F2009FBF90E0019608959FB7F89482E09A
:100E20008093E9008091F2009FBF90E008952091A7
:100E3000D801260F3327331F21323105ECF42091DE
:100E40006E03FC0190E080E0243069F082E00895B8
:100E5000A091D8012191AC0148545E4FA40FB52F49
:100E6000B11D2C930196861798F38091D801680FD5
:100E70006093D80180E0089581E0089510926E0398
:100E800081E080936D031092480361E082E00E944C
:100E9000290461E083E00E942904E9EBF0E080810D
:100EA0008E7F808380818D7F808388E48093B800EB
:100EB00085E48093BC000895CF93DF9391E09093F5
:100EC0000A028823B9F0C091B800D091BA0080918D
:100ED000BC008A7B8093BC0060E082E00E94290411
:100EE00060E083E00E9429040E943E07D093BA008C
:100EF000C093B800DF91CF9108958F929F92AF92E7
:100F0000BF92CF92DF92EF92FF920F931F93CF93F6
:100F1000DF93D0919703D13208F0D7C0182FC0913A
:100F200096030E94CB046B017C0180916E038111BA
:100F30006BC082E080936E0310936D038FEF8093FC
:100F40006C0310926B03D0936A03A6E7B3E0EAE464
:100F5000F3E080E0D81391C01092490380914903D7
:100F6000CC0FC82BC093490380914803813009F00E
:100F700088C0109248030E94CB046B017C018091D1
:100F800049038093BB008091700390917103A091FD
:100F90007203B0917303892B8A2B8B2BA1F00E94D3
:100FA000CB04009170031091710320917203309172
:100FB00073036C197D098E099F0906171707280707
:100FC000390708F442C08091BC0083FDD8CF85EC7E
:100FD0008093BC000E94CB046B017C0180916E0366
:100FE000823009F450C080916C038F3F09F46FC0C8
:100FF00080916C03803209F46CC080916C03803363
:1010000009F469C084E026C0809170039091710357
:10101000A0917203B0917303892B8A2B8B2B09F457
:1010200084CF0E94CB048090700390907103A090B5
:101030007203B09073036C197D098E099F0986169F
:101040009706A806B90608F070CF80916F030E943A
:101050005C0785E010927503109297031092740359
:10106000DF91CF911F910F91FF90EF90DF90CF9084
:10107000BF90AF909F908F9008959D9191938F5FB7
:1010800069CF85EEA5CF8091700390917103A091F7
:101090007203B0917303892B8A2B8B2B09F49ECF9B
:1010A0000E94CB0400917003109171032091720390
:1010B000309173036C197D098E099F090617170774
:1010C0002807390708F08ACFC0CF81E0C3CF80E07E
:1010D000C1CF82E0BFCF83E0BDCFE0910902809114
:1010E0000802E81730F4F0E0E856FE4F808190E007
:1010F00008958FEF9FEF0895909109028091080263
:101100002FEF3FEF981748F4E92FF0E0E856FE4F35
:10111000208130E09F5F90930902C901089580917A
:10112000080290910902891B990B0895CF92DF92D2
:10113000EF92FF920F931F93CF93DF937C01CB012C
:101140008A0120917403222389F0EB016B01C40E04
:10115000D51ECC15DD0569F06991D701ED91FC91A3
:101160000190F081E02DC7010995F3CF642F0E9413
:101170001707C801DF91CF911F910F91FF90EF905A
:10118000DF90CF900895CF93DF931F92CDB7DEB756
:101190006983209174032223F9F020919703203270
:1011A00058F021E030E0FC013383228390E080E0BE
:1011B0000F90DF91CF91089580917503E82FF0E0B3
:1011C000EA58FC4F998190838F5F809375038093D9
:1011D000970381E090E0ECCF61E0CE0101960E94A0
:1011E0001707F7CF90E080E008958F929F92AF921B
:1011F000BF92EF92FF920F931F93CF93DF93F82E3E
:1012000080911904282F30E0F901EE0FFF1FE20F43
:10121000F31FEC50FC4F908196FD54C08C3008F0C9
:1012200051C061E086E00E949A0480911904282F41
:1012300030E0F901EE0FFF1FE20FF31FEC50FC4FFF
:101240009081907C9660908310921A0410921B04F7
:101250002CE0622F0E94FD29829FB001112430E012
:1012600020E0AB01420F531FFA01EE0FFF1FE40F06
:10127000F51FEC50FC4F908196FD16C02F5F3F4F3D
:101280002C30310571F781110FC01092800082E07F
:10129000809381001092850010928400B19A809111
:1012A0006F00826080936F00E09119048E2F90E0B0
:1012B000FC01EE0FFF1FE80FF91FEC50FC4F80817F
:1012C00080648083E09019048BE08E1508F451C08F
:1012D00080911B0408E512E0081B110987FD139596
:1012E000000F111F000F111F80911A04C8E8D0E0F1
:1012F000C81BD10987FDD395CC0FDD1FCC0FDD1F97
:101300004E010D2E000CAA08BB08AF2DB0E0A53B86
:10131000B10514F0A4EBB0E09801012E000C440BD1
:10132000550B281939094A095B090E949F2524EBAE
:1013300030E040E050E00E947525820E931EA41E0E
:10134000B51E8C169D062CF0E801801691060CF453
:10135000E4012297CC0FDD1F2FB7F894F12CF70191
:10136000EE0FFF1FEE0DFF1DEC50FC4FD283C1832B
:101370002FBFDF91CF911F910F91FF90EF90BF9002
:10138000AF909F908F9008950E94F5080E942205CB
:10139000611571058105910549F0609373027093A1
:1013A00074028093750290937602089581E090E034
:1013B000A0E0B0E08093730290937402A093750252
:1013C000B09376020895CF93C42F91E09093740365
:1013D00080939603109275031092970388EE93E022
:1013E0000E94C3086C2F88EE93E00E94C30881E03E
:1013F0000E947D0791E0811190E0892FCF9108959F
:10140000FC0101900020E9F73197AF01481B590B0F
:10141000BC0188E993E00C94F6058F929F92AF92FD
:10142000BF920F931F93CF93DF93CDB7DEB7A197F2
:101430000FB6F894DEBF0FBECDBF19A2423008F43C
:101440004AE08E010F5D1F4F842E912CB12CA12CF0
:10145000A50194010E94A725E62FB901CA01EA302F
:10146000F4F4E05DD801EE938D01232B242B252B82
:1014700079F790E080E0109719F0CD010E94000A02
:10148000A1960FB6F894DEBF0FBECDBFDF91CF910E
:101490001F910F91BF90AF909F908F900895E95C3E
:1014A000E1CFCF93DF930E949106EC0189E891E0B0
:1014B0000E94000A8C0F9D1FDF91CF9108950C941C
:1014C000510A4F925F926F927F928F929F92AF924A
:1014D000BF92CF92DF92EF92FF920F931F93CF9321
:1014E0006B017C01742EAC019B010E94AC28882307
:1014F00099F08CE891E0CF911F910F91FF90EF90C0
:10150000DF90CF90BF90AF909F908F907F906F9023
:101510005F904F900C94000A46015701E894B7F889
:101520002FEF3FEF4FE75FE7C501B4010E94AC2802
:1015300081110DC02FEF3FEF4FE75FE7C501B40109
:101540000E94452618161CF480E991E0D4CF2FEFB5
:101550003FEF4FE75FE4C701B6010E94A4271816CA
:101560001CF484E991E0C7CF2FEF3FEF4FE75FEC2A
:10157000C701B6010E94452687FDF3CF20E030E089
:10158000A901C701B6010E94452610E000E087FFCF
:101590000AC06DE288E993E00E947B068C01F7FAAD
:1015A000F094F7F8F094C0E060E070E080E09FE332
:1015B0007C1641F020E030E040E251E40E944A26EF
:1015C000CF5FF6CFA70196010E94D9252B013C01E0
:1015D0000E94C3264B015C014AE00E940D0A7C0177
:1015E000E00EF11ECC23C1F1C501B4010E94F22628
:1015F0009B01AC01C301B2010E94D8254B015C01E3
:101600006EE288E993E00E947B06E80EF91EC15065
:1016100018F120E030E040E251E4C501B4010E943D
:10162000A9272B013C010E94C3264B01B12CA12C00
:101630004AE0C501B4010E940D0AE80EF91EC50179
:10164000B4010E94F2269B01AC01C301B2010E94C9
:10165000D8254B015C01DBCFC701CF911F910F91C2
:10166000FF90EF90DF90CF90BF90AF909F908F90C2
:101670007F906F905F904F900895CF92DF92EF929E
:10168000FF92CF93DF9397FF1BC06B017C016DE24C
:1016900088E993E00E947B06EC0166277727CB015F
:1016A0006C197D098E099F094AE00E940D0A8C0F72
:1016B0009D1FDF91CF91FF90EF90DF90CF90089525
:1016C0004AE0DF91CF91FF90EF90DF90CF900C94A4
:1016D0000D0ACF93DF93BC01990F880B990B0E94E1
:1016E0003D0BEC0189E891E00E94000A8C0F9D1FE0
:1016F000DF91CF910895CF92DF92EF92FF92CF9337
:10170000C82F0E9422056B017C0188E392E00E94B1
:1017100091064AE0C701B6010E940D0A85E392E0F6
:101720000E94910683E392E0C03140F4EC2FF0E098
:10173000EE0FFF1FEC5EFE4F80819181CF91FF90F5
:10174000EF90DF90CF900C94510ACF93C82F88E789
:101750000E94F50882E08093A8020E94220560930F
:101760006E0270936F0280937002909371021092D8
:1017700072028AE0C1118EE0CF910C947B0B9091A4
:10178000B0029817E9F08093B002833089F028F412
:10179000813049F0823051F00895853069F050F081
:1017A000873061F0089586E00C947B0B87E0FCCFD6
:1017B00088E0FACF89E0F8CF8BE0F6CF8CE0F4CF69
:1017C00008952091AE023091AF02A9014823592318
:1017D000452B69F4282B392B3093AF022093AE02AE
:1017E00087709927892B19F08DE00C947B0B089555
:1017F0004F925F926F927F928F929F92AF92BF9221
:10180000FF920F931F93CF93DF93D82F042FF52EC2
:10181000122F81E080937403D09396031092750386
:101820001092970388EE93E00E94C30880E00E9424
:101830007D07C82F8111CCC00E94CB044B015C01F5
:1018400080916E03811165C081E080936E03809367
:101850006D039FEF90936C0310926B03910F909325
:101860006A038093490380914903DD0FD82BD093FD
:10187000490380914803813009F084C010924803E5
:101880000E94CB044B015C01809149038093BB0013
:101890008091700390917103A0917203B0917303D2
:1018A000892B8A2B8B2BA1F00E94CB0440907003D4
:1018B00050907103609072037090730368197909F6
:1018C0008A099B09461657066806790608F442C03D
:1018D0008091BC0083FDD8CF85EC8093BC000E9432
:1018E000CB044B015C0180916E03813009F44CC044
:1018F00080916B03811708F069C080916B03AAE4A3
:10190000B3E0E8E9F1E0C81749F19D919193CF5F09
:10191000FACF8091700390917103A0917203B091FE
:101920007303892B8A2B8B2B09F48ACF0E94CB045B
:101930004090700350907103609072037090730335
:10194000681979098A099B094616570668067906B7
:1019500008F076CF80916F030E945C071092090215
:10196000C09308021C1334C0B02EC02FDF2D88EEA8
:1019700093E00E947C0889938C2F8B198117B8F310
:1019800081E027C085EEA9CF80917003909171030B
:10199000A0917203B0917303892B8A2B8B2B09F4CE
:1019A000A2CF0E94CB0440907003509071036090CE
:1019B000720370907303681979098A099B094616A6
:1019C00057066806790608F08ECFC4CF812F97CFCF
:1019D00080E0DF91CF911F910F91FF90BF90AF906A
:1019E0009F908F907F906F905F904F900895EF92AF
:1019F000FF920F931F93CF93DF93CDB7DEB72C9752
:101A00000FB6F894DEBF0FBECDBF7C018B012CE07A
:101A1000AE014F5F5F4F6DE288E60E94F80B8823AE
:101A200061F129813A81322723273227F701318357
:101A300020832B813C813227232732273383228343
:101A40002D813E81322723273227358324832F811E
:101A50003885322723273227F801318320832985CF
:101A60003A85322723273227338322832B853C85EF
:101A7000322723273227358324832C960FB6F894F8
:101A8000DEBF0FBECDBFDF91CF911F910F91FF90B1
:101A9000EF9008952F923F924F925F926F927F92B4
:101AA0008F929F92AF92BF92CF92DF92EF92FF926E
:101AB0000F931F93CF93DF93CDB7DEB728970FB661
:101AC000F894DEBF0FBECDBF98878F837B0126E0E1
:101AD000AE014F5F5F4F67EF87E70E94F80B082F5B
:101AE000882309F4E9C119812A803B808C8190E028
:101AF000B0E0A0E02CE0880F991FAA1FBB1F2A9519
:101B0000D1F74D8150E070E060E034E0440F551FA4
:101B1000661F771F3A95D1F7842B952BA62BB72BF1
:101B20002E8130E044E0359527954A95E1F7032E64
:101B3000000C440B550B822B932BA42BB52B4091FF
:101B40000B0250910C0270E060E02C013D01E4E0DA
:101B50007594679457944794EA95D1F7441A550AB7
:101B6000660A770AF3E0B595A79597958795FA9554
:101B7000D1F7440F551F661F771F5C016D01A41A32
:101B8000B50AC60AD70AA6019501A0910D02B09127
:101B90000E020E949F254B015C013BE0B594A79487
:101BA000979487943A95D1F7A3019201C301B201AA
:101BB0000E94ED299B01AC016CE055954795379546
:101BC00027956A95D1F7A0910F02B09110020E945B
:101BD0009F252B013C017EE07594679457944794B0
:101BE0007A95D1F7480C591C6A1C7B1C4092230241
:101BF000509224026092250270922602A5E0B0E085
:101C0000A30192010E94942560587F4F8F4F9F4FF0
:101C1000672F782F892F992787FD9A950E94F426A0
:101C200020E030E048EC52E40E944A26F70160834D
:101C300071838283938373016201F594E794D7944F
:101C4000C794FAEFDF1AE108F108C701B601A2E074
:101C50009595879577956795AA95D1F79B01AC01E6
:101C60000E94ED294B015C01A0911502B091160272
:101C7000AC019B018DE055954795379527958A9541
:101C8000D1F70E949F252B013C0193E07594679446
:101C9000579447949A95D1F7A0911302B0911402EA
:101CA000A70196010E949F259B01AC015595479580
:101CB00037952795240D351D461D571D72E1559505
:101CC0004795379527957A95D1F730584F4F5F4F05
:101CD000A0911102B09112020E9494252B013C01A7
:101CE000EFE07594679457944794EA95D1F74114BF
:101CF00051046104710409F404C1A50194018BE04D
:101D000055954795379527958A95D1F7A0911B0250
:101D1000B0911C020E949F254B015C01A091190209
:101D2000B0911A02A70196010E949F25DC01CB0108
:101D3000880F991FAA1FBB1F880D991DAA1DBB1DC7
:101D40006C017D0132E0F594E794D794C7943A95FD
:101D5000D1F7212F30E050E040E06CE0220F331F3C
:101D6000441F551F6A95D1F7822D90E0B0E0A0E0A6
:101D700074E0880F991FAA1FBB1F7A95D1F7282BF3
:101D8000392B4A2B5B2B832D90E0E4E095958795CA
:101D9000EA95E1F7092E000CAA0BBB0B282B392B77
:101DA0004A2B5B2B8091170290911802092E000C90
:101DB000AA0BBB0BDC01992788278C0D9D1DAE1D3E
:101DC000BF1D1CE0B595A795979587951A95D1F7F6
:101DD000280F391F4A1F5B1FABECB3EF0E94A225EF
:101DE000805B9C4397FD82C0660F771F881F991FF9
:101DF000A30192010E94A72529013A01C301B20162
:101E000023E096958795779567952A95D1F79B015D
:101E1000AC010E94ED299B01AC016DE05695479500
:101E2000379527956A95D1F7A0912102B0912202AA
:101E30000E949F256B017C017CE0F594E794D79488
:101E4000C7947A95D1F7A3019201E2E056954795A0
:101E500037952795EA95D1F7A0911F02B0912002FE
:101E60000E949F259B01AC01FDE055954795379554
:101E70002795FA95D1F72C0D3D1D4E1D5F1DC09085
:101E80001D02D0901E020D2C000CEE08FF082C0D38
:101E90003D1D4E1D5F1DA4E055954795379527952F
:101EA000AA95D1F7420E531E641E751EEF81F88568
:101EB0004082518262827382802F28960FB6F894F6
:101EC000DEBF0FBECDBFDF91CF911F910F91FF906D
:101ED000EF90DF90CF90BF90AF909F908F907F90CA
:101EE0006F905F904F903F902F900895A3019201C3
:101EF0000E94A72529013A01440C551C661C771C39
:101F00007DCF412C512C3201D1CF85ED8093BC0087
:101F10008091700390917103A0917203B09173034B
:101F20000796A11DB11D23E0B695A79597958795B6
:101F30002A95D1F72091BC0024FD03C010926E03B6
:101F400008954091700350917103609172037091F4
:101F50007303452B462B472B69F30097A105B10569
:101F600041F02AE22A95F1F700C00197A109B109D1
:101F7000E1CF80916F030C945C071F920F920FB614
:101F80000F9211242F933F938F939F93AF93BF93FF
:101F90008091320390913303A0913403B0913503C3
:101FA0003091310323E0230F2D3758F50196A11D01
:101FB000B11D209331038093320390933303A09398
:101FC0003403B09335038091360390913703A09189
:101FD0003803B09139030196A11DB11D80933603DA
:101FE00090933703A0933803B0933903BF91AF9117
:101FF0009F918F913F912F910F900FBE0F901F9047
:10200000189526E8230F0296A11DB11DD2CF1F926D
:102010000F920FB60F9211248F939F938091E1003E
:102020009091E100937F9093E10083FF0FC01092A5
:10203000E90091E09093EB001092EC0092E3909312
:10204000ED001092470398E09093F00082FF22C0C9
:1020500093E09093E9009091F200992319F09AE3AC
:102060009093E80090910102992341F09091010230
:10207000915090930102911101C05D9A9091460395
:10208000992341F09091460391509093460391110A
:1020900001C0289A84FF18C08091E2008E7E816082
:1020A0008093E2008091E1008F7E8093E100809137
:1020B00002028E7E8061809302029F918F910F9029
:1020C0000FBE0F901F90189580FFF7CF8091E20010
:1020D0008E7E80618093E2008091E1008E7E80930D
:1020E000E100809102028E7E8160E5CF1F920F9207
:1020F0000FB60F921124CF92DF92EF92FF920F93BF
:102100001F932F933F934F935F936F937F938F937F
:102110009F93AF93BF93EF93FF93CF93DF93CDB78D
:10212000DEB76C97DEBFCDBF1092E9008091E8006A
:1021300083FF25C068E0CE0145960E94E90582EF45
:102140008093E8008D8987FF39C09091E80090FF67
:10215000FCCF982F907609F034C19E894F89588D15
:102160002F89F88C911131C0803861F5809103027C
:102170008093F1001092F1008EEF8093E8006C964E
:102180000FB6F894DEBF0FBECDBFDF91CF91FF91A8
:10219000EF91BF91AF919F918F917F916F915F91DF
:1021A0004F913F912F911F910F91FF90EF90DF90F2
:1021B000CF900F900FBE0F901F9018959EEF9093A9
:1021C000E800C7CF1092F100D5CF913059F48111BA
:1021D000D3CF4130510581F6809103028D7F8093EA
:1021E0000302CACF933049F48111C6CF4130510563
:1021F00019F6809103028260F2CF953041F480910C
:10220000E80080FFFCCF20682093E300B5CF963034
:1022100009F0A9C00B8D1C8D22E01092E9001092EC
:10222000FF011092FE01F2122EC01092FD011092D9
:10223000FC010E94B8051F8299E09983FA8291E01F
:102240009E8390EA98879AEF99872091FE013091BA
:10225000FF01275F3F4F3C832B838D831092E90062
:102260001092FF011092FE011093FD010093FC01FA
:1022700049E050E0BE016F5F7F4F80E00E94920511
:102280000E94B80579CF1093FD010093FC010E94D4
:102290001504DC0112960D911C910115110509F42C
:1022A00051C1D801ED91FC910480F581E02DBE0172
:1022B0006B5E7F4FC8010995009709F03EC1F80198
:1022C00000851185EACFF3E0FF120EC08F898823C5
:1022D00009F440C0823061F440E860E181EA92E0B4
:1022E0000E945F05811148CF81E28093EB0047CFC8
:1022F000813029F440E86BE085E992E0F1CF83304A
:1023000099F70E941504DC011296ED90FC908E0165
:102310000F5F1F4F6801E114F10479F0D701ED91CF
:10232000FC910680F781E02DB801C7010995080FDF
:10233000111DF701E084F184EECFD8011C92F60163
:1023400001900020E9F73197BF016C197D0940E049
:10235000C601C6CF6FE772E0FB01449150E080E810
:102360000E94920509CF973009F4BECF983021F42E
:1023700081E08093F10000CF993009F0FDCE8370A9
:1023800009F0B2CFE5E3F1E081E031E096E321919D
:10239000222371F08093E9003093EB00DF01119765
:1023A0002C912093EC009093ED008F5F873079F7AC
:1023B0008EE78093EA001092EA008F8980934703AA
:1023C000DBCE8B8D9C8D1092E9001092FF01109254
:1023D000FE019093FD018093FC01898D811192C0D3
:1023E0008E899D89913A49F4813209F07DCF47E089
:1023F00050E064E071E080E0B3CF913209F074CF37
:10240000833269F48F89988DB0E0A0E08093000159
:1024100090930101A0930201B0930301ADCE8032ED
:1024200069F48091E80082FFFCCF67E084E091E0EE
:102430000E94E9058BEF8093E8009ECE823209F07E
:102440009BCE8F8980930B01EEEFFFE785919491EE
:102450008B3F9C4D51F1E0E0F8E0809104019091B8
:102460000501A0910601B0910701803B9440A105B0
:10247000B105F1F480910B0180FD1AC0EE3F8AE0B6
:10248000F80789F587E797E791838083809160005B
:102490008093000288E19BE00FB6F894A8958093A2
:1024A00060000FBE9093600067CEEEEFFAE0D5CFEC
:1024B000808191818737974709F05ECEA8958091FA
:1024C00060008861809360008091000280936000CA
:1024D000EE3F2AE0F20789F08091FE0A9091FF0A10
:1024E0009183808349CE808191818737980751F20B
:1024F0009093FF0A8093FE0AC5CF1092FF0A1092B4
:10250000FE0A3ACE0E941504DC0112960D911C9130
:102510000115110509F4E8CED801ED91FC91019067
:10252000F081E02DBE016B5E7F4FC80109958111DE
:1025300023CEF80100851185EBCF181619060CF48F
:102540001BCED2CEF1E0FF12BECE63E872E004CF24
:102550001F920F920FB60F9211242F933F934F9318
:102560005F936F937F938F939F93AF93BF93CF931B
:10257000DF93EF93FF938091FB01C0911804D0E0AB
:1025800087FF24C010928500109284008091FB0187
:102590008F5F8093FB018091FB01082E000C990B4B
:1025A0008C179D0724F48091FB018C30C4F180913D
:1025B000840090918500049680349C4908F47AC088
:1025C0008091840090918500049676C08091FB01F3
:1025D000082E000C990B8C179D07C4F6E091FB01A7
:1025E0008E2FEE0F990BFC01EE0FFF1FE80FF91F66
:1025F000EC50FC4F808186FFC9CFE091FB018E2F0C
:10260000EE0F990BFC01EE0FFF1FE80FF91FEC50C6
:10261000FC4F808160E08F730E942904B7CF209126
:10262000840030918500E091FB018E2FEE0F990B15
:10263000FC01EE0FFF1FE80FF91FEC50FC4F8181EA
:102640009281820F931F9093890080938800E0917C
:10265000FB018E2FEE0F990BFC01EE0FFF1FE80F11
:10266000F91FEC50FC4F808186FF11C0E091FB0107
:102670008E2FEE0F990BFC01EE0FFF1FE80FF91FD5
:10268000EC50FC4F808161E08F730E942904FF9120
:10269000EF91DF91CF91BF91AF919F918F917F91FA
:1026A0006F915F914F913F912F910F900FBE0F90BF
:1026B0001F90189580E49CE990938900809388008E
:1026C0008FEF8093FB01E3CF1F920F920FB60F9213
:1026D00011242F933F934F935F936F937F938F9327
:1026E0009F93AF93BF93EF93FF938091B900887F3F
:1026F000803609F44AC0F0F5883209F4A7C018F50D
:10270000803109F49BC0B8F4882309F4F9C08830FB
:1027100009F494C0FF91EF91BF91AF919F918F9178
:102720007F916F915F914F913F912F910F900FBECD
:102730000F901F901895883109F488C0803251F7A6
:1027400080936C0314C0803409F49DC040F480333E
:10275000B9F38833F9F680936C0385ECB0C080350B
:1027600009F485C0883509F496C0883499F60E942A
:10277000850FD0CF883909F48CC038F5883729F017
:1027800050F4883611F0803729F683E080936E0389
:102790001092FA0157C0883809F47BC0803919F0CB
:1027A000803809F0B7CF8091FA01803208F071C00B
:1027B000E091FA0181E08E0F8093FA018091BB00D5
:1027C000F0E0E652FE4F80833DC0803B39F0E0F4FC
:1027D000803A09F479C0883A09F09CCF84E080936C
:1027E0006E031092D9011092D801E0910602F09187
:1027F000070209958091D80181110FC081E0809373
:10280000D8011092B80109C0803C09F4A6CF883CD9
:1028100009F4A3CF883B09F07DCFE091D90181E095
:102820008E0F8093D901F0E0E854FE4F80818093B1
:10283000BB009091D9018091D80129C080914903B2
:102840008093BB0085EC8093BC0064CF90916B03B8
:1028500080916A03981758F5E0916B0381E08E0F21
:1028600080936B03F0E0E65BFC4F8081E9CFE09161
:102870006B0381E08E0F80936B038091BB00F0E0CF
:10288000E65BFC4F808390916B0380916A039817FD
:10289000C8F285E8D8CFE0916B0381E08E0F80937A
:1028A0006B038091BB00F0E0E65BFC4F808380917E
:1028B0006D0381115CCF81E08093480384EA8093AB
:1028C000BC0010926E0326CF85EC8093BC00109262
:1028D0006E038091FA01803230F4E091FA01F0E069
:1028E000E652FE4F10826091FA0170E0E09104021E
:1028F000F09105028AED91E009951092FA010ACF54
:1029000010926C0334CF10929B0310929A0388EEBE
:1029100093E0A0E0B0E080939C0390939D03A0938C
:102920009E03B0939F0329E631E0309399032093EF
:1029300098032FEF3FEF3093A5032093A403109249
:10294000EB031092EA038093EC039093ED03A093C2
:10295000EE03B093EF038BE791E09093E90380934C
:10296000E803809118048C3098F491E0980F9093CC
:1029700018048093190490E0FC01EE0FFF1FE80F8C
:10298000F91FEC50FC4F88EB9BE092838183089504
:102990008FEF809319040895CF93DF93CDB7DEB7FF
:1029A000A6970FB6F894DEBF0FBECDBF789484B55E
:1029B000826084BD84B5816084BD85B5826085BD3B
:1029C00085B5816085BD80916E00816080936E00C9
:1029D00010928100809181008260809381008091BB
:1029E000810081608093810080918000816080936C
:1029F000800080919100826080939100809191008D
:102A0000816080939100809190008160809390001C
:102A10008091C10084608093C1008091C100826078
:102A20008093C1008091C10081608093C10080913A
:102A3000C30081608093C3008091C0008260809356
:102A4000C0008091C20081608093C20080917A00B2
:102A5000846080937A0080917A00826080937A000B
:102A600080917A00816080937A0080917A008068FA
:102A700080937A0010924703109203021092020290
:102A80008091D70081608093D70080EA8093D8003E
:102A900089B5806189BD89B5826089BD09B400FEB0
:102AA000FDCF61E070E080E090E00E94F004809152
:102AB000D8008F7C80618093D8008091E000807F77
:102AC0008093E0008091E1008E7E8093E1008DE0B4
:102AD0008093E200559A209A8FEF9FEF9093A50381
:102AE0008093A40361E085E00E949A0460E085E0A1
:102AF0000E9429041092AF021092AE021092850239
:102B0000109286021092870210928802109284021C
:102B100080E00E947B0B60E084E10E949A041092A6
:102B200009021092080210927503109297030E94F6
:102B30003E078FE295E0909307028093060280E3C0
:102B400095E090930502809304028CE08093B80096
:102B500010920A0288EB9BE0A0E0B0E08093700343
:102B600090937103A0937203B093730381E08093F9
:102B70006F031092270210922802109229021092DD
:102B80002A0210922B0210922C0210922D02109207
:102B90002E0210922F0210923002109231021092E7
:102BA00032021092890210928A0210928B021092C5
:102BB0008C0210923B0210923C0210923D02109245
:102BC0003E02109240021092A90210923F02198216
:102BD00040E06FE788E60E94E30921E0AE014F5F25
:102BE0005F4F60E088E60E94F80B082F882309F405
:102BF00061C089818A3E09F0FAC240E866E088E651
:102C00000E94E30964E670E080E090E00E94F00436
:102C100040E06FE788E60E94E30941E066E088E66D
:102C20000E94E3096EE170E080E090E00E94F00411
:102C300040E067E088E60E94E3096EE170E080E032
:102C400090E00E94F00440E26FE788E60E94E3090A
:102C500080E090E0A0E0B5E4809310019093110132
:102C6000A0931201B093130147E064E188E60E944B
:102C7000E30983E393E3A3E8B1E480930C01909329
:102C80000D01A0930E01B0930F0147E061E088E6CB
:102C90000E94E30940E060E088E60E94E3096EE1FB
:102CA00070E080E090E00E94F00440E06FE788E68A
:102CB0000E94E309198E21E0AE01475E5F4F60ED8F
:102CC00087E70E94F80B811194C210E085EE92E034
:102CD0000E94910683EC94E00E9491068EEC92E0B3
:102CE000011102C082EC92E00E94510A82ED92E052
:102CF0000E9491068DEC94E00E9491068EEB92E08A
:102D0000111102C082EB92E00E94510A01110C9451
:102D1000582584E090E00E94E10B111104C082E08C
:102D200090E00E94E10B81E090E00E94E10B10E056
:102D300064EF71E080E090E00E94F0041092A8023D
:102D400010926E0210926F02109270021092710235
:102D50001092720284E10E94F5086CE271E080E05A
:102D600090E00E94F004E09119048E2F90E0FC01A5
:102D7000EE0FFF1FE80FF91FEC50FC4F80818F7B97
:102D8000808310927802109277020091AE02112394
:102D900009F4F6C002FDA6C0F0E43F2E10E0C12CFD
:102DA000D12C76014601570126013701BE016F5F24
:102DB0007F4FCE0149960E94F70C882389F16981E3
:102DC0007A81072E000C880B990B0E94F4269B0138
:102DD000AC01C301B2010E94D9252B013C016B81DA
:102DE0007C81072E000C880B990B0E94F4269B0116
:102DF000AC01C501B4010E94D9254B015C016D8174
:102E00007E81072E000C880B990B0E94F4269B01F3
:102E1000AC01C701B6010E94D9256B017C011F5F7F
:102E200065E070E080E090E00E94F0043A94311098
:102E3000BDCF112309F456C020910C0130910D0132
:102E400040910E0150910F012BA33CA34DA35EA313
:102E5000612F70E090E080E00E94F4266F8F78A3ED
:102E600089A39AA39B01AC01C301B2010E944A2627
:102E70002BA13CA14DA15EA10E944A2660932F0286
:102E80007093300280933102909332022F8D38A1DB
:102E900049A15AA1C501B4010E944A262BA13CA117
:102EA0004DA15EA10E944A2660932B0270932C02D2
:102EB00080932D0290932E022F8D38A149A15AA103
:102EC000C701B6010E944A262BA13CA14DA15EA1DB
:102ED0000E944A2660932702709328028093290259
:102EE00090932A0201FD4CC008E210E070E3C72E67
:102EF00075E7D72EE12CF12CE0EC8E2EE4ED9E2E22
:102F0000AA24A394B12C412C512C3201BE016F5F35
:102F10007F4FCE0149960E944A0D882311F1898D79
:102F20009A8DAB8DBC8DAC01BD01405355476109F5
:102F3000710941395F456140710598F4480E591E89
:102F40006A1E7B1E88159905AA05BB0514F44C0161
:102F50005D01C816D906EA06FB0614F46C017D0172
:102F60001F5F64E170E080E090E00E94F004015097
:102F700069F6143108F0BFC182E090E00E94E10BD5
:102F80001092B0021092790210927A0210927B0293
:102F900010927C021092A4021092A5021092A60236
:102FA0001092A70210925E0210925F0210926002CD
:102FB0001092610210925A0210925B0210925C020F
:102FC00010925D021092560210925702109258020F
:102FD000109259021092520210925302109254020F
:102FE0001092550210924E0210924F02109250020F
:102FF00010925102109266021092670210926802BB
:103000001092690210926A0210926B0210926C0286
:1030100010926D021092620210926302109264028A
:10302000109265028091AE029091AF02877099274D
:10303000892B21F08BEE92E00E94510A10927E02C1
:1030400010927D028091AE029091AF028770992715
:10305000892B09F486C188E00E94BF0B1092A3025D
:1030600010929F021092A0021092A1021092A2024E
:103070000E9422056093F7027093F8028093F90290
:103080009093FA026093FB027093FC028093FD021E
:103090009093FE0260932D0370932E0380932F0371
:1030A000909330036093B2027093B3028093B402A2
:1030B0009093B5026093EF027093F0028093F10257
:1030C0009093F2026093F3027093F4028093F502FE
:1030D0009093F6021E015FE1250E311C0E9422052D
:1030E0006B017C0180912D0390912E03A0912F0301
:1030F000B091300320919E0226013701481A590AE7
:103100006A0A7B0AD301C201222309F431C744971A
:10311000A105B10508F42DC2C0922D03D0922E0353
:10312000E0922F03F092300340909A0250909B025D
:1031300060909C0270909D028091960290919702FF
:10314000A0919802B091990246015701881A990AF4
:10315000AA0ABB0AC501B4010E94F22620E030E0B1
:103160004AE754E40E944A264B015C01C092960251
:10317000D0929702E0929802F092990220E030E01B
:10318000A9010E94452618160CF0F4C020E030E09A
:1031900040E05FE3C501B4010E94A42718160CF4B7
:1031A000E9C09701860104191509260937090F8F0F
:1031B00018A329A33AA380918D02882309F4DEC0C5
:1031C00010928E0210928F02109290021092910231
:1031D0001092920210929302109294021092950211
:1031E000812C912C00E8A02E0FE3B02E0AC100E044
:1031F00061CD898D883509F068CD46EB60EE87E7B3
:103200000E94E3096AE070E080E090E00E94F00430
:1032100028E1AE014F5F5F4F68E887E70E94F80B37
:10322000182F882309F451CD29813A8130930C025B
:1032300020930B028B819C8190930E0280930D0250
:103240008D819E819093100280930F028F819885CB
:10325000909312028093110249855A85509314026B
:10326000409313024B855C855093160240931502E0
:103270004D855E8550931802409317024F855889FB
:1032800050931A024093190249895A8950931C029B
:1032900040931B024B895C8950931E0240931D0290
:1032A0004D895E895093200240931F024F89588DAB
:1032B0005093220240932102109223021092240282
:1032C0001092250210922602232B09F4FECC892BA2
:1032D00009F4FBCC48E065EF87E70E94E3094FE281
:1032E00064EF87E70E94E30962E370E080E090E02A
:1032F0000E94F004EBCC212F30E050E040E0C3010D
:10330000B2010E9475252093890230938A0240936E
:103310008B0250938C02542F432F322F222720935D
:103320004102309342024093430250934402C81832
:10333000D908EA08FB0849E7C416D104E104F104FE
:1033400024F080E091E00E94E10B10923B02109289
:103350003C0210923D0210923E0281E080934002B6
:103360000FCE8091A802811103C081E08093A80252
:1033700081E072CE812C912C540113CF40909202A7
:103380005090930260909402709095022F8D38A116
:1033900049A15AA12A3F31054105510508F08EC5C2
:1033A00020E030E04CE852E4C501B4010E94A927B6
:1033B00020918E0230918F024091900250919102A3
:1033C0000E94D9259B01AC0120938E0230938F027D
:1033D0004093900250939102C501B4010E94A92725
:1033E000A30192010E94D9256093920270939302E7
:1033F0008093940290939502812C912CA12C91E4BE
:10340000B92E20E030E0A901609192027091930200
:1034100080919402909195020E9445261816CCF056
:1034200010929202109293021092940210929502BE
:1034300010928E0210928F021092900210929102BE
:1034400081E080938D02812C912C10E8A12E1FE346
:10345000B12E6091920270919302809194029091AA
:103460009502609307037093080380930903909378
:103470000A038092170390921803A0921903B09246
:103480001A0310920B0310920C0310920D0310926A
:103490000E0310920F03109210031092110310925A
:1034A00012038092130390921403A0921503B0921A
:1034B000160310921B0310921C0310921D0310920E
:1034C0001E0310921F0310922003109221031092EA
:1034D00022031092230310922403109225031092CA
:1034E00026032DEC3CEC4CE351E40E94A9270E94FA
:1034F000BC260091890210918A0220918B023091A2
:103500008C0228013901461A570A680A790AD30140
:10351000C2018093FF0290930003A0930103B09334
:103520000203612C712CB0EA8B2EB1E49B2E6092C9
:10353000030370920403809205039092060381E0D6
:1035400080932C0380932B03C0922703D0922803EF
:10355000E0922903F0922A038F8C98A0A9A0BAA028
:1035600001E280160EE49006A104B10410F010925E
:103570009E028091B002813009F0CCC080919E0201
:103580008111C8C080912B03882309F4C3C08091A6
:10359000890290918A02A0918B02B0918C02181638
:1035A00019061A061B060CF0B5C080914D0288233F
:1035B00051F010924D02C0924902D0924A02E0921C
:1035C0004B02F0924C0280912C03882309F48CC0AA
:1035D0008091270390912803A0912903B0912A0399
:1035E0004091450250914602609147027091480215
:1035F00084179507A607B70709F476C040914902DA
:1036000050914A0260914B0270914C0226013701A1
:10361000441A550A660A770AB301A201483B0BE037
:1036200050076105710508F45FC0E091A90280931D
:10363000450290934602A0934702B093480200913E
:103640004102109142022091430230914402809144
:10365000FF0290910003A0910103B0910203BA2FE1
:10366000A92F982F8827801B910BA20BB30BFAE090
:10367000E11101C0F4E004C0B595A7959795879531
:10368000FA95D2F7800F911FA21FB31F80934102BA
:1036900090934202A0934302B0934402892F9A2F41
:1036A000AB2FBB27A7FDBA958093890290938A021E
:1036B000A0938B02B0938C02E1112CC040345F4187
:1036C00061057105A8F01092400281E08093A90283
:1036D0008091AE029091AF029E7F9093AF02809353
:1036E000AE028FE00E947B0B8091A902811112C073
:1036F00080913F0281110EC020E3C21625E7D20659
:10370000E104F10438F080E091E00E94E10B81E0F7
:1037100080933F028091F7029091F802A091F90204
:10372000B091FA02B701A601481B590B6A0B7B0B3B
:10373000DB01CA014497A105B10508F491C0C0920C
:10374000F702D092F802E092F902F092FA02109198
:103750002C030091B002112309F43FC080916A024A
:1037600090916B02A0916C02B0916D0240900703A2
:10377000509008036090090370900A030097A10518
:10378000B10509F0FDC54092660250926702609251
:10379000680270926902C0926A02D0926B02E09253
:1037A0006C02F0926D02A30192016091A4027091EB
:1037B000A5028091A6029091A7020E94452687FF4C
:1037C0000CC08EEF800F823040F44092A4025092E1
:1037D000A5026092A6027092A702033009F43AC7CC
:1037E00008F006C6013009F43FC6023009F4F0C6FD
:1037F0008090790290907A02A0907B02B0907C0237
:1038000081149104A104B10459F1A701960128196A
:1038100039094A095B0949015A018091A80282309D
:1038200069F038EB83163BE09306A104B10430F055
:1038300081E00E94A50B85E00E94BF0B8091B00241
:10384000873071F040E684164AEE9406A104B10474
:1038500038F080E890E00E94E10B87E00E94BF0B07
:103860008091730290917402A0917502B0917602DA
:103870000097A105B10519F126013701481A590A27
:103880006A0A7B0AD301C201803B9440A105B105BD
:10389000B0F0E09119048E2F90E0FC01EE0FFF1FB5
:1038A000E80FF91FEC50FC4F80818F7B80831092D2
:1038B0007302109274021092750210927602209197
:1038C000A802223051F580917202811126C08091A8
:1038D0006E0290916F02A0917002B0917102B701D7
:1038E000A601481B590B6A0B7B0BDB01CA01803B0D
:1038F0009440A105B10588F0E09119048E2F90E065
:10390000FC01EE0FFF1FE80FF91FEC50FC4F808108
:103910008F7B808381E0809372028091F30290918B
:10392000F402A091F502B091F60246015701881AFF
:10393000990AAA0ABB0A8091EF029091F002A09125
:10394000F102B091F202B701A601481B590B6A0BB4
:103950007B0B0091B00288E288169104A104B104A7
:1039600030F4483C51056105710508F409C1C09265
:10397000B602D092B702E092B802F092B9028091FA
:10398000790290917A02A0917B02B0917C0200971B
:10399000A105B10541F026013701481A590A6A0A02
:1039A0007B0AD301C2018093BA029093BB02A09319
:1039B000BC02B093BD0280917D0290917E0201967F
:1039C00090937E0280937D029093BF028093BE020B
:1039D0000093C0022093C1028091FF0290910003E6
:1039E000A0910103B09102038093C2029093C3029D
:1039F000A093C402B093C502809103039091040385
:103A0000A0910503B09106038093C6029093C7026C
:103A1000A093C802B093C902809107039091080354
:103A2000A0910903B0910A038093CA029093CB023C
:103A3000A093CC02B093CD028091A4029091A502F4
:103A4000A091A602B091A7028093CE029093CF02DC
:103A5000A093D002B093D10280910B0390910C03FC
:103A6000A0910D03B0910E038093D2029093D302E4
:103A7000A093D402B093D50280910F0390911003CC
:103A8000A0911103B09112038093D6029093D702B4
:103A9000A093D802B093D90280911303909114039C
:103AA000A0911503B09116038093DA029093DB0284
:103AB000A093DC02B093DD0280911B0390911C0364
:103AC000A0911D03B0911E038093DE029093DF024C
:103AD000A093E002B093E10280911F039091200334
:103AE000A0912103B09122038093E2029093E3021C
:103AF000A093E402B093E502809123039091240304
:103B0000A0912503B09126038093E6029093E702EB
:103B1000A093E802B093E902809178028093EA02D0
:103B2000809177028093EB028091AE029091AF0278
:103B30009C0126703327232B09F423C622E020930F
:103B4000EC029093EE028093ED0218E2811691044C
:103B5000A104B10440F0C092F302D092F402E092CA
:103B6000F502F092F602483C51056105710540F0FE
:103B7000C092EF02D092F002E092F102F092F202D3
:103B80001091A902013009F0102F809180029091CC
:103B90008102A0918202B09183020097A105B10534
:103BA00071F0A7019601281B390B4A0B5B0BDA0158
:103BB000C901883E9340A105B10508F46FC0D70143
:103BC000C60181608093800290938102A09382025B
:103BD000B093830224E070E060E0E2E3F3E08491DC
:103BE00030917B00982F990F990F90723F7D932B06
:103BF00090937B008770806480937C0080917A0032
:103C0000806480937A0080917A0086FDFCCF809159
:103C1000780090917900680F791F2150F1F690E0BB
:103C200080E00E94F22620E030E040E85EE30E945F
:103C3000A92720E030EC4FE754E40E944A2620E018
:103C400030E040EA50E40E94A92720E030E040E460
:103C500050E40E94A9274B015C018092AA02909235
:103C6000AB02A092AC02B092AD020230B8F42AE9E5
:103C700039E949EF50E40E94452687FF84C58091C9
:103C80007F02833018F48F5F80937F0280917F02E0
:103C9000833020F080E092E00E94E10B8091AE0240
:103CA0009091AF0287709927892B09F083C58AEF1D
:103CB00090E0183040F4E12FF0E0EE0FFF1FE55CDC
:103CC000FE4F8081918140918502509186026091E2
:103CD00087027091880226013701441A550A660A44
:103CE000770AB301A201B0E0A0E0481759076A07BC
:103CF0007B0788F0C0928502D0928602E09287020C
:103D0000F09288026091840281E0682760938402C7
:103D100085E00E9429048091B002813009F44DC5EC
:103D20001092A3028091B2029091B302A091B402CA
:103D3000B091B502A7019601281B390B4A0B5B0B0A
:103D4000DA01C901883C9105A105B10508F4A3C0B9
:103D5000C092B202D092B302E092B402F092B502E5
:103D60004AE0C701B6010E940D0A83EE96E00E9468
:103D70009106E091B0028CEA96E0E93038F4F0E088
:103D8000EE0FFF1FE55BFE4F808191810E9491063F
:103D90008FED96E00E9491066091070370910803F1
:103DA0008091090390910A0342E00E94610A89ED23
:103DB00096E00E9491066091A4027091A502809104
:103DC000A6029091A70242E00E94610A83ED96E06C
:103DD0000E94910660911703709118038091190356
:103DE00090911A0342E00E94610A8FEC96E00E94D3
:103DF00091066091FF027091000380910103909100
:103E000002030E943D0B89EC96E00E949106E0912E
:103E1000A8028EEA96E0E43038F4F0E0EE0FFF1FDF
:103E2000E35AFE4F808191810E94910685EC96E0D5
:103E30000E9491066091A90270E090E080E00E94EB
:103E40003D0B80EC96E00E9491066091AA02709171
:103E5000AB028091AC029091AD0242E00E94610AF7
:103E600088EB96E00E9491066091AE027091AF02DD
:103E700090E080E040E10E940D0A80EB96E00E9415
:103E800091064AE060E070E0CB010E940D0A89E8EB
:103E900091E00E94000A8091B002873039F480914D
:103EA000B102811103C081E08093B10240E050E093
:103EB000452B09F413C90E94000010C98091A80283
:103EC0008230B9F123EC35EF4CE151E4C501B40186
:103ED0000E94A9279B01AC0160918E0270918F0214
:103EE00080919002909191020E94D8259B01AC0193
:103EF00020938E0230938F02409390025093910250
:103F0000C501B4010E94A927A30192010E94D925ED
:103F1000609392027093930280939402909395021F
:103F20008AE9882E89E9982E89E1A82E8EE3B82E99
:103F300068CA40E050E060EA70EC40938E02509313
:103F40008F0260939002709391029A01AB01C501B8
:103F5000B4010E94A927A30192010E94D925609370
:103F6000920270939302809394029093950238C9C1
:103F70004497A105B105B8F0C0922D03D0922E034D
:103F8000E0922F03F0923003BE016F5F7F4FCE01AE
:103F900049960E94F70C811133C010922B0384E0E4
:103FA00090E00E94E10B8091FB029091FC02A091B5
:103FB000FD02B091FE02A7019601281B390B4A0BA6
:103FC0005B0BDA01C9018897A105B10508F4D1CAD4
:103FD000C092FB02D092FC02E092FD02F092FE023F
:103FE000BE016F5F7F4FCE0149960E944A0D81113D
:103FF00013C110922C0382E090E00E94E10BB9CA39
:104000002091390230913A02A901440F551FFE0157
:104010007996A3E3B2E0819191916D917D91861B98
:10402000970B820F931F4817590708F0F0C086E0DE
:10403000FE017996A3E3B2E001900D928A95E1F733
:1040400081E080934D028090100190901101A0902A
:104050001201B090130140900C0150900D0160903E
:104060000E0170900F01698D7A8D072E000C880B60
:10407000990B0E94F426A50194010E944A266F8F95
:1040800078A389A39AA360930B0370930C03809386
:104090000D0390930E036B8D7C8D072E000C880B07
:1040A000990B0E94F426A50194010E944A266BA355
:1040B0007CA38DA39EA360930F0370931003809342
:1040C0001103909312036D8D7E8D072E000C880BCB
:1040D000990B0E94F426A50194010E944A264B01E7
:1040E0005C018092130390921403A0921503B09286
:1040F000160369817A81072E000C880B990B0E94A8
:10410000F426A30192010E944A2620912F023091A9
:10411000300240913102509132020E94D8256093C2
:104120001B0370931C0380931D0390931E036B81EC
:104130007C81072E000C880B990B0E94F426A301AA
:1041400092010E944A2620912B0230912C0240912C
:104150002D0250912E020E94D82560931F03709368
:10416000200380932103909322036D817E81072E8B
:10417000000C880B990B0E94F426A30192010E9467
:104180004A2620912702309128024091290250911D
:104190002A020E94D82560932303709324038093FE
:1041A0002503909326032F8D38A149A15AA1CA0156
:1041B000B9010E94A9272B013C012BA13CA14DA1D3
:1041C0005EA1CA01B9010E94A9279B01AC01C301EC
:1041D000B2010E94D9252B013C01A5019401C50122
:1041E000B4010E94A9279B01AC01C301B2010E9446
:1041F000D9250E946C28609317037093180380934D
:10420000190390931A0381E080932B03CCCEE2151F
:10421000F30509F000CF17CF698D7A8D8B8D9C8DBA
:104220008B019C01005315472109310901391F45B4
:104230002140310518F010922C039BC96093FF02B6
:1042400070930003809301039093020309811A8104
:104250002B813C81009303031093040320930503F7
:10426000309306038090890290908A02A0908B027E
:10427000B0908C02181419041A041B040CF05BC0D3
:104280000E94F4262B013C01C501B4010E94F426D2
:104290009B01AC01C301B2010E944A262BEA3CED0E
:1042A00042E45EE30E9416289B01AC0160E070E0EE
:1042B00080E89FE30E94D82520E03AE24DE257E4EF
:1042C0000E94A9274B015C0120E030E04AEF53E453
:1042D000C501B4019F770E94A42718160CF4ABCF38
:1042E0008091400281112BC080923B0290923C024F
:1042F000A0923D02B0923E0281E080934002809104
:104300003B0290913C02A0913D02B0913E0280930D
:10431000070390930803A0930903B0930A03C09284
:104320002703D0922803E0922903F0922A0381E028
:1043300080932C031EC9812C912C5401C5CF409031
:104340003B0250903C0260903D0270903E02A301FF
:104350009201C501B4010E94D82523E333E343EB66
:104360005EE30E94A927A30192010E94D9256093D0
:104370003B0270933C0280933D0290933E02BFCF7C
:1043800046015701881A990AAA0ABB0A52E3851600
:104390009104A104B10408F406CA20916602309188
:1043A00067024091680250916902C301B2010E9404
:1043B000D82520E030E04AE754E40E94A9276F8F17
:1043C00078A389A39AA3C501B4010E94F2269B0198
:1043D000AC016F8D78A189A19AA10E944A266093B1
:1043E0006202709363028093640290936502CBC96A
:1043F000073008F0FDC9112399F0609162027091B5
:10440000630280916402909165029F7720E030E022
:1044100040E05FE30E944526182F111F1127111F4E
:1044200080912B038823B9F020E030E040E85FE37F
:1044300060911703709118038091190390911A03EA
:104440000E94D8259F7720E030E040E85EE30E949C
:10445000452687FD13C310924E0210924F02109210
:10446000500210925102C4C980912B03882309F491
:10447000BFC920E030E040E250E460911703709142
:1044800018038091190390911A030E94A42787FFB3
:104490003EC010925E0210925F0210926002109273
:1044A000610280905A0290905B02A0905C02B090F2
:1044B0005D0281149104A104B10409F499C9112386
:1044C00009F45DC020E030E040EC5FE36091070359
:1044D000709108038091090390910A030E94452678
:1044E00087FF4DC0D701C60188199909AA09BB09E0
:1044F000893E9340A105B10508F47AC910925A0289
:1045000010925B0210925C0210925D0271C9809160
:104510005E0290915F02A0916002B09161020097EB
:10452000A105B10549F4C0925E02D0925F02E0920B
:104530006002F0926102B5CF26013701481A590A8C
:104540006A0A7B0AD301C201CC97A105B10508F420
:10455000A8CF80915A0290915B02A0915C02B09129
:104560005D02892B8A2B8B2B09F09BCFC0925A02BC
:10457000D0925B02E0925C02F0925D0292CFC09218
:104580007902D0927A02E0927B02F0927C0280E083
:1045900090E0DC01112341F0809107039091080322
:1045A000A0910903B0910A038093A4029093A502FD
:1045B000A093A602B093A70210926A0210926B0217
:1045C00010926C0210926D0282E00E94BF0B10C923
:1045D00080912B03882381F020E030E040EA5FE304
:1045E00060911703709118038091190390911A0339
:1045F0000E94452687FD09C010925602109257026C
:104600001092580210925902F3C88091560290916C
:104610005702A0915802B09159020097A105B10527
:1046200049F4C0925602D0925702E0925802F0929A
:104630005902DEC8A7019601281B390B4A0B5B0BF8
:10464000DA01C90180359105A105B10508F4D0C88A
:1046500083E0BBCF112309F4CBC8409007035090EF
:1046600008036090090370900A032091A40230911E
:10467000A5024091A6025091A702C301B2010E9477
:10468000A427181644F44092A4025092A502609206
:10469000A6027092A7028090790290907A02A09070
:1046A0007B02B0907C0281149104A104B10409F44E
:1046B000D7C8D701C60188199909AA09BB09803949
:1046C0009140A105B10508F4A0C8A3019201609131
:1046D000A4027091A5028091A6029091A7020E9467
:1046E000D82520E030E040E050E40E94A42787FF76
:1046F00009C010925202109253021092540210926A
:10470000550276C88091520290915302A0915402B2
:10471000B09155020097A105B10549F4C09252022B
:10472000D0925302E0925402F092550261C8B70150
:10473000A601481B590B6A0B7B0BDB01CA018639AA
:104740009105A105B10508F460C884E00E94BF0B83
:104750008091A802823019F080E00E94A50B85E0CC
:1047600034CF26013701481A590A6A0A7B0AD30155
:10477000C201803D9740A105B10508F439C887E022
:1047800024CF21E0DCC92AE939E941E051E4C5013F
:10479000B4010E94A42718160CF080CA8091AE02C2
:1047A0009091AF0210927F029D7F9093AF02809311
:1047B000AE0274CA84E690E086CA8091A302882380
:1047C00099F140919F025091A0026091A1027091D5
:1047D000A20236014701641A750A860A970AB401D3
:1047E000A3014C3D554061057105F0F0C0929F0258
:1047F000D092A002E092A102F092A202813051F088
:10480000823009F449C08CE393E00E94510A10926F
:10481000A3020AC088E70E94C40987E793E00E94C8
:10482000510A82E08093A30288E993E00E94FD068A
:10483000892B09F477CA88E993E00E94BB06893680
:1048400009F48EC094F5843609F46DC0883619F0E9
:104850008F3309F0F7C08FE894E00E945F0A85E784
:1048600094E00E945F0A87E594E00E945F0A80E37B
:1048700094E00E945F0A87E094E00E945F0A8BEC5C
:1048800093E00E945F0A85EA93E00E945F0A8AE84B
:1048900093E00E945F0A46CA84E10E94C40986E54B
:1048A00093E00E94510A83E0BDCF833781F18437C2
:1048B00009F443C0823709F0C5C081E396E00E9445
:1048C000510A81E080939E02C0929A02D0929B028C
:1048D000E0929C02F0929D02C0929602D0929702C2
:1048E000E0929802F0929902109292021092930232
:1048F000109294021092950210928E0210928F02E2
:10490000109290021092910210928D020BCA84E1D3
:104910000E94C4098CE896E00E94910684E190E030
:104920000E94690BFFC988E70E94C40988E696E0E7
:104930000E94910688E790E0F3CF81E08093A30284
:10494000C0929F02D092A002E092A102F092A20235
:1049500084E10E94C40988E096E00E94510AE2C9FD
:1049600083EF95E00E94510A86EE95E00E94910641
:1049700083EC94E00E94510A81ED95E00E9491063B
:104980008DEC94E00E94510A85EA95E00E94910620
:104990006091890270918A0280918B0290918C02C1
:1049A0000E943D0B89E891E00E94000A8DE795E0A6
:1049B0000E94910664E170E080E090E00E943D0B6F
:1049C0006FE288E993E00E947B0688E790E00E940E
:1049D000690B86E695E00E9491066091AA027091AB
:1049E000AB028091AC029091AD0242E00E94610A5C
:1049F00089E891E00E94000A88E495E00E9491060F
:104A00006091AE027091AF0290E080E040E10E94C0
:104A10000D0A89E891E00E94000A8EE095E00E946C
:104A200091064AE060E070E0CB010E940D0A89E83F
:104A300091E00E94000A8FEF94E00E94910684EDBD
:104A400094E08BCF90ED980F9A3008F06BC914E189
:104A5000919F102D1124812F0E94C40987E196E0B7
:104A60000E949106612F70E090E080E04AE00E9491
:104A70000D0A89E891E00E94000A54C9112309F443
:104A8000EACC80914E0290914F02A0915002B091D9
:104A900051020097A105B10509F063CEC0924E0204
:104AA000D0924F02E0925002F09251020C94F81B07
:104AB000112311F40C948F162DEC3CEC4CEC5DE3BF
:104AC0006091100170911101809112019091130178
:104AD0000E94A9270E94BC2670933A026093390273
:104AE00081E00E947B0B0C949816052E97FB1EF418
:104AF00000940E948C2557FD07D00E94A72507FC33
:104B000003D04EF40C948C2550954095309521950A
:104B10003F4F4F4F5F4F08959095809570956195E9
:104B20007F4F8F4F9F4F08950E94C925A59F900DDD
:104B3000B49F900DA49F800D911D11240895B7FF7F
:104B40000C9494250E949425821B930B0895A1E256
:104B50001A2EAA1BBB1BFD010DC0AA1FBB1FEE1FF7
:104B6000FF1FA217B307E407F50720F0A21BB30B42
:104B7000E40BF50B661F771F881F991F1A9469F7BE
:104B800060957095809590959B01AC01BD01CF011A
:104B90000895A29FB001B39FC001A39F700D811D16
:104BA0001124911DB29F700D811D1124911D089536
:104BB0005058BB27AA270E94F0250C946A270E9410
:104BC0005C2738F00E94632720F039F49F3F19F4E6
:104BD00026F40C9459270EF4E095E7FB0C94532728
:104BE000E92F0E947B2758F3BA17620773078407DF
:104BF000950720F079F4A6F50C949D270EF4E09526
:104C00000B2EBA2FA02D0B01B90190010C01CA0186
:104C1000A0011124FF27591B99F0593F50F4503E31
:104C200068F11A16F040A22F232F342F4427585F23
:104C3000F3CF469537952795A795F0405395C9F73B
:104C40007EF41F16BA0B620B730B840BBAF09150F3
:104C5000A1F0FF0FBB1F661F771F881FC2F70EC092
:104C6000BA0F621F731F841F48F487957795679565
:104C7000B795F7959E3F08F0B0CF9395880F08F051
:104C80009927EE0F9795879508950E942F2708F48E
:104C900081E008950E945E260C946A270E94632793
:104CA00058F00E945C2740F029F45F3F29F00C94F3
:104CB000532751110C949E270C9459270E947B274F
:104CC00068F39923B1F3552391F3951B550BBB273B
:104CD000AA2762177307840738F09F5F5F4F220F80
:104CE000331F441FAA1FA9F335D00E2E3AF0E0E877
:104CF00032D091505040E695001CCAF72BD0FE2FC1
:104D000029D0660F771F881FBB1F26173707480754
:104D1000AB07B0E809F0BB0B802DBF01FF2793580C
:104D20005F4F3AF09E3F510578F00C9453270C9456
:104D30009E275F3FE4F3983ED4F386957795679579
:104D4000B795F7959F5FC9F7880F911D9695879541
:104D500097F90895E1E0660F771F881FBB1F621760
:104D600073078407BA0720F0621B730B840BBA0B1E
:104D7000EE1F88F7E09508950E94C3266894B1114C
:104D80000C949E2708950E94832788F09F5798F0DF
:104D9000B92F9927B751B0F0E1F0660F771F881F40
:104DA000991F1AF0BA95C9F714C0B13091F00E945A
:104DB0009D27B1E008950C949D27672F782F8827B1
:104DC000B85F39F0B93FCCF3869577956795B39581
:104DD000D9F73EF490958095709561957F4F8F4FF0
:104DE0009F4F0895E89409C097FB3EF490958095F5
:104DF000709561957F4F8F4F9F4F9923A9F0F92FA1
:104E000096E9BB279395F695879577956795B7951E
:104E1000F111F8CFFAF4BB0F11F460FF1BC06F5F04
:104E20007F4F8F4F9F4F16C0882311F096E911C016
:104E3000772321F09EE8872F762F05C0662371F037
:104E400096E8862F70E060E02AF09A95660F771F4B
:104E5000881FDAF7880F9695879597F90895990F27
:104E60000008550FAA0BE0E8FEEF16161706E80734
:104E7000F907C0F012161306E407F50798F0621B55
:104E8000730B840B950B39F40A2661F0232B242B2A
:104E9000252B21F408950A2609F4A140A6958FEF49
:104EA000811D811D089597F99F6780E870E060E09B
:104EB00008959FEF80EC089500240A9416161706B3
:104EC00018060906089500240A94121613061406FB
:104ED00005060895092E0394000C11F4882352F05E
:104EE000BB0F40F4BF2B11F460FF04C06F5F7F4F16
:104EF0008F4F9F4F089557FD9058440F551F59F0FD
:104F00005F3F71F04795880F97FB991F61F09F3FB6
:104F100079F087950895121613061406551FF2CFDF
:104F20004695F1DF08C0161617061806991FF1CF2F
:104F300086957105610508940895E894BB27662756
:104F40007727CB0197F908950E942F2708F48FEF58
:104F500008950E94BC270C946A270E945C2738F0B1
:104F60000E94632720F0952311F00C9453270C9492
:104F7000592711240C949E270E947B2770F3959F3C
:104F8000C1F3950F50E0551F629FF001729FBB2740
:104F9000F00DB11D639FAA27F00DB11DAA1F649FDC
:104FA0006627B00DA11D661F829F2227B00DA11D8F
:104FB000621F739FB00DA11D621F839FA00D611D15
:104FC000221F749F3327A00D611D231F849F600D36
:104FD000211D822F762F6A2F11249F5750409AF05F
:104FE000F1F088234AF0EE0FFF1FBB1F661F771FEB
:104FF000881F91505040A9F79E3F510580F00C94B6
:1050000053270C949E275F3FE4F3983ED4F3869594
:1050100077956795B795F795E7959F5FC1F7FE2B55
:10502000880F911D9695879597F90895FA01EE0FCF
:10503000FF1F309621053105A1F16115710561F45D
:105040008038BFE39B0749F168949038810561F08F
:105050008038BFEF9B0741F099234AF5FF3FE105F8
:105060003105210519F1E8940894E795D901AA239F
:1050700029F4AB2FBE2FF85FD0F310C0FF5F70F4A0
:10508000A695E0F7F73950F019F0FF3A38F49F771A
:105090009F930DD00F9007FC9058089546F00C9404
:1050A000592760E070E080E89FE308954FE79F771D
:1050B0005F934F933F932F930E9471292F913F91BC
:1050C0004F915F910E94A9270C94B92819F416F406
:1050D0000C9459270C94EB280E948327B8F399234A
:1050E000C9F3B6F39F57550B87FF0E94F928002498
:1050F000A0E640EA900180585695979528F4805C88
:10510000660F771F881F20F026173707480730F4EF
:10511000621B730B840B202931294A2BA695179407
:105120000794202531254A2758F7660F771F881FD7
:1051300020F026173707480730F4620B730B840BF7
:10514000200D311D411DA09581F7B901842F915883
:10515000880F9695879508950E942F27880B990BA5
:10516000089529F416F00C9453270C949D270C9461
:1051700059270E948327A8F39638A0F707F80F92C3
:10518000E8942BE33AEA48EB5FE70E94BF270F92CF
:105190000F920F924DB75EB70F920E94B929ECEAB9
:1051A000F0E00E9400294F915F91EF91FF91E5950A
:1051B000EE1FFF1F49F0FE57E0684427EE0F441F23
:1051C000FA95E1F74195550B0E9433290F9007FEA0
:1051D0000C94272908959F3F31F0915020F4879532
:1051E00077956795B795880F911D9695879597F94F
:1051F000089591505040660F771F881FD2F7089589
:10520000DF93CF931F930F93FF92EF92DF927B0177
:105210008C01689406C0DA2EEF010E94BC27FE01C3
:10522000E894A5912591359145915591A6F3EF010B
:105230000E94F025FE019701A801DA9469F7DF903A
:10524000EF90FF900F911F91CF91DF9108959B01F7
:10525000AC0160E070E080E89FE30C944A260C9477
:1052600053270C94EB280E948327D8F39923C9F382
:10527000940F511DA3F39150504094F059F088239E
:1052800032F0660F771F881F91505040C1F79E3F44
:1052900051052CF7880F911D9695879597F90895DC
:1052A0005F3FACF0983E9CF0BB278695779567955D
:1052B000B79508F4B1609395C1F7BB0F58F711F497
:1052C00060FFE8CF6F5F7F4F8F4F9F4FE3CF0C940E
:1052D0009E2716F00C94EB280C94592768940C9494
:1052E00053270E948327A8F39923C1F3AEF3DF93DA
:1052F000CF931F930F93FF92C92FDD2788232AF0A6
:105300002197660F771F881FDAF720E030E040E82A
:105310005FEB9FE3883920F0803E38F021968F774D
:105320000E94D925E4EDF0E004C00E94D925E1E017
:10533000F1E00E9400298B01BE01EC01FB2E6F57AA
:1053400071097595771F880B990B0E94F42628E147
:1053500032E741E35FE30E94BC27AF2D9801AE0125
:10536000FF900F911F91CF91DF910E94F0250C9437
:105370006A27FA01DC01AA0FBB1F9B01AC01BF57D2
:1053800028F4222733274427507820C0B75190F4BF
:10539000AB2F0024469537952795011CA395D2F392
:1053A000002071F0220F331F441FB395DAF30ED0A3
:1053B0000C94D82561307105A0E88A07B94630F40D
:1053C0009B01AC016627772788279078309621F0DB
:1053D00020833183428353830895DB018F939F930E
:1053E0000E949425BF91AF91A29F800D911DA39F14
:1053F000900DB29F900D11240895991B79E004C07F
:10540000991F961708F0961B881F7A95C9F7809503
:105410000895EE0FFF1F0590F491E02D0994F89484
:02542000FFCFBC
:10542200FFFFFFFF00E10000000000003333834173
:1054320000000045D401C901C301BB01B201A701AB
:10544200A10191018701760166015E0157014801C0
:105452003A012E0100C18081000000F401E803FA44
:1054620000FA00FA00FA00FA00C80014020E02085C
:10547200020202FB01F301EA01E301DD012E02282F
:10548200021F021902000000007B06F605B706ACF7
:1054920006FD06BB06D90600000000C3089608F206
:1054A200082E058F087C086D080D0A006E616E00DB
:0854B200696E66006F7666006A
:00000001FF
