:100000000C944C020C9474020C9474020C947402C0
:100010000C9474020C9474020C9474020C94740288
:100020000C9474020C9474020C94581A0C94C71A11
:100030000C9474020C9474020C9474020C94740268
:100040000C9474020C949B1D0C9474020C94740216
:100050000C9474020C9474020C9474020C94F91CA9
:100060000C9474020C94691D0C94431D0C9474023E
:100070000C9474020C9474020C9474020C94740228
:100080000C9474020C9474020C9474020C94740218
:100090000C94571E0C9474020C9474020C94740209
:1000A0000C9474020C9474020C947402076342362C
:1000B000B79BD8A71A39685618AEBAAB558C1D3CF9
:1000C000B7CC5763BD6DEDFD753EF6177231BF00BD
:1000D0000000803F08000000BE922449123EABAAF7
:1000E000AA2ABECDCCCC4C3E00000080BEABAAAA52
:1000F000AA3E00000000BF000000803F000000009A
:1001000000084178D3BB4387D1133D190E3CC3BDD2
:100110004282AD2B3E68EC8276BED98FE1A93E4C7F
:1001200080EFFFBE01C4FF7F3F00000000000040E1
:100130007A10F35A00A0724E18090010A5D4E800F6
:1001400000E87648170000E40B54020000CA9A3B0E
:10015000000000E1F5050000809698000000404294
:100160000F000000A0860100000010270000000022
:10017000E803000000006400000000000A00000026
:1001800000000100000000002C76D888DC674F08D2
:1001900023DFC1DFAE59E1B1B796E5E3E453C63AD8
:1001A000E651997696E8E6C28426EB898C9B62ED4F
:1001B000407C6FFCEFBC9C9F40F2BAA56FA5F49009
:1001C000055A2AF75C936B6CF9676DC11BFCE0E480
:1001D0000D47FEF520E6B500D0ED902E03009435D6
:1001E00077050080841E080000204E0A000000C829
:1001F0000C333333330F986E12831141EF8D21147A
:10020000893BE65516CFFEE6DB18D1844B381BF749
:100210007C1D901DA4BBE424203284725E228100E8
:10022000C9F124ECA1E53D274241434B55505F44C1
:1002300045504C4F5900435249544943414C5F4546
:1002400052524F52004C414E4445440044455343A2
:10025000454E54005245434F564552595F44455010
:100260004C4F590041504F4745455F434F4E46491B
:10027000524D454400424F4F53545F454E44004C4D
:1002800041554E43485F444554454354454400520C
:100290004541445900524144494F5F4641494C0051
:1002A000524144494F5F4F4B0053445F4641494CD4
:1002B0000053445F4F4B0053454E534F52535F4FD3
:1002C0004B00504F5745525F4F4E004552524F52D0
:1002D000004C414E444544005245434F5645525907
:1002E0000044455343454E540041504F4745450057
:1002F000434F41535400424F4F53540052454144E1
:100300005900494E4954004552524F5200444550FD
:100310004C4F5945440041524D45440053414645D8
:10032000003F0074696D655F6D732C666C6967686A
:10033000745F74696D655F6D732C7061636B657458
:100340005F69642C73746174652C70726573737566
:1003500072655F70612C74656D705F632C616C7485
:1003600069747564655F6D2C6D61785F616C74692B
:10037000747564655F6D2C61782C61792C617A2CC1
:1003800067782C67792C677A2C7265636F76657253
:10039000795F73746174652C6572726F725F666CDD
:1003A000616773003F003F000000000200090F007A
:1003B00000030401000C0000000000000000000029
:1003C00000000000000000080B000202020000090B
:1003D00004000001020200000524001001052401B0
:1003E000010104240206052406000107058103100B
:1003F000004009040100020A000000070502024053
:1004000000000705830240000004030904120100F4
:1004100002EF020140412336800001010203014145
:10042000726475696E6F204C4C430041726475694B
:100430006E6F204C656F6E6172646F00000000008B
:10044000250028002B002E003100000000002400B1
:1004500027002A002D0030000404040404030405CE
:100460000202020204030202020206060606060651
:100470000404020202040404080201104080401037
:1004800020408040800802040180402010020110BA
:10049000801020404020A91F11241FBECFEFDAE0BA
:1004A000DEBFCDBF11E0A0E0B1E0E4EDFCE602C0AC
:1004B00005900D92A83BB107D9F727E0A8EBB1E072
:1004C00001C01D92AF3DB207E1F712E0CCE4D2E0EB
:1004D00004C02197FE010E944C36CB34D107C9F7E6
:1004E0000E947D200C9468360C94000090E0FC0182
:1004F000E958FB4F2491885A9B4FFC018491882333
:1005000099F090E0880F991FFC01E65BFB4FA591E5
:10051000B491FC01E45CFB4F859194918FB7F89402
:10052000EC91E22BEC938FBF0895FC018091E903DD
:10053000882311F13FB7F89482E08093E90020917D
:10054000F200822F90E01816190614F481E090E072
:10055000882339F0289844E64093E8034091F1005D
:100560004083222339F02091F200211103C02BE6B1
:100570002093E8003FBF08958FEF9FEF08952FB7B6
:10058000F89483E08093E9009091E800892F8072CD
:1005900095FF04C09091F20080E4891B2FBF08955D
:1005A0008091E00381110DC082E08093DC0384E040
:1005B0008093DD031092DF031092DE0381E08093CD
:1005C000E0038CED93E00895CF93DF931F92CDB7B6
:1005D000DEB76983DC01ED91FC910280F381E02DAF
:1005E00041E050E0BE016F5F7F4F09950F90DF91B2
:1005F000CF91089583E08093E9008091F2008823F1
:1006000019F08AE38093E80008950E94BF0290E009
:100610000895CF93DF931F92CDB7DEB7FC01848599
:10062000958597FD08C02FEF3FEF358724870F9002
:10063000DF91CF910895CE0101960E949502019716
:1006400019F4898190E0F3CF8FEF9FEFF0CF0F93F4
:100650001F93CF93DF931F92CDB7DEB78C01FC01C0
:100660008485958597FF0BC0CE0101960E94950267
:10067000019771F4898190E0F80195878487F801EA
:10068000848595850F90DF91CF911F910F910895EB
:100690008FEF9FEFF1CFFC018485958597FD0BC00F
:1006A0009FB7F89482E08093E9008091F2009FBFA9
:1006B00090E0019608959FB7F89482E08093E90056
:1006C0008091F2009FBF90E008954091D603509131
:1006D000D7032091D4033091D50342175307B4F4C4
:1006E0009091E8009570E1F39091E80092FD19C0B7
:1006F0008093F1008091D6039091D70301968F7378
:100700009927892B19F48EEF8093E8008091D60306
:100710009091D70301969093D7038093D60381E0FD
:10072000089580E00895DF92EF92FF920F931F9358
:10073000CF93DF93D82E8A01EB017B01E40EF51EE7
:10074000CE15DF0559F0D7FE12C0FE0184910E943C
:10075000650321968111F4CF0FEF1FEFC801DF91E0
:10076000CF911F910F91FF90EF90DF9008958881B6
:10077000EECF0F931F93CF93DF931F92CDB7DEB7CA
:1007800082E0898342E450E067EC73E080E80E94F5
:1007900093030E94D002DC0112960D911C91011569
:1007A000110589F0D801ED91FC910280F381E02DD3
:1007B000BE016F5F7F4FC801099597FD04C0F80126
:1007C00000851185ECCF89810F90DF91CF911F912A
:1007D0000F910895615030F02091F100FC012083C9
:1007E0000196F8CF289884E68093E8030895282F8F
:1007F00030E0F901E855FC4F9491F901E958FB4FBD
:100800008491285A3B4FF9012491222309F430C0E6
:100810009923E9F091509F30D0F4E92FF0E0ED5E9C
:10082000FB4F0C944C3641044504220439043D042A
:1008300027042704270448044E04520456045C0489
:1008400027046004909180009F7790938000E22FAE
:10085000F0E0EE0FFF1FE45CFB4FA591B4919FB752
:10086000F894EC91611132C080958E238C939FBFD8
:100870000895909180009F7DE8CF90918000977FB0
:10088000E4CF94B59F7794BDE2CF94B59F7DFBCF25
:10089000909190009F7790939000D9CF9091900085
:1008A0009F7DF9CF90919000977FF5CF9091C000F8
:1008B0009F779093C000CBCF9091C0009F7DF9CFE0
:1008C0009091C200977F9093C200C1CF8E2BCECF64
:1008D0003FB7F8948091D0039091D103A091D203B7
:1008E000B091D30326B5A89B05C02F3F19F0019600
:1008F000A11DB11D3FBFBA2FA92F982F8827BC017A
:10090000CD01620F711D811D911D42E0660F771FA1
:10091000881F991F4A95D1F708958F929F92AF92A1
:10092000BF92CF92DF92EF92FF924B015C010E9447
:1009300068046B017C010E9468046C197D098E09B2
:100940009F09683E734081059105A8F321E0821A52
:100950009108A108B10888EEC80E83E0D81EE11CFA
:10096000F11C81149104A104B10429F7FF90EF90C8
:10097000DF90CF90BF90AF909F908F9008958F920F
:100980009F92AF92BF92CF92DF92EF92FF920F931E
:100990001F93CF93DF936C017B018A018091130138
:1009A000882309F45CC08091E903882309F457C0C7
:1009B0008091DB0380FF05C08091E000826080931E
:1009C000E000E801B12C8AEFA82E93E0892E2AE3FB
:1009D000922E209711F4BB20D9F10E94BF02811101
:1009E0000AC0AA94AA20D9F161E070E080E090E00A
:1009F0000E948D04EECF8C171D0611F00CF08C2F89
:100A00009FB7F8948092E9002091E80025FD02C08C
:100A10009FBFDFCF282F30E0C21BD30BF7018150DF
:100A200020F041914093F100FACFE20EF31EBB207B
:100A300021F09092E800B12CEBCF8091E80085FD89
:100A4000E7CF9092E800BB24B394209709F3F3CF4B
:100A50005D9884E68093DA03101611063CF081E07D
:100A600090E0F6019383828310E000E0C801DF91FB
:100A7000CF911F910F91FF90EF90DF90CF90BF909B
:100A8000AF909F908F9008952FB7F8946091CC030A
:100A90007091CD038091CE039091CF032FBF089525
:100AA00008950895AF92BF92CF92DF92EF92FF9296
:100AB0000F931F93CF93DF936C017B018B01040F86
:100AC000151FEB015E01AE18BF08C017D10759F022
:100AD0006991D601ED91FC910190F081E02DC60164
:100AE0000995892B79F7C501DF91CF911F910F915E
:100AF000FF90EF90DF90CF90BF90AF900895FC01F2
:100B0000538D448D252F30E0842F90E0821B930B72
:100B1000541710F0CF96089501970895FC01918D18
:100B2000828D981761F0A28DAE0FBF2FB11D5D961B
:100B30008C91928D9F5F9F73928F90E008958FEFBD
:100B40009FEF0895FC01918D828D981731F0828D71
:100B5000E80FF11D858D90E008958FEF9FEF0895C8
:100B6000FC01918D228D892F90E0805C9F4F821B2C
:100B700091098F73992708958AE894E00E94B0053F
:100B800021E0892B09F420E0822F089580E090E095
:100B9000892B29F00E94BC0581110C940000089556
:100BA000FC01A48DA80FB92FB11DA35ABF4F2C91E2
:100BB000848D90E001968F739927848FA689B789D9
:100BC0002C93A089B1898C9182748C93938D848DA0
:100BD000981306C00288F389E02D80818F7D808381
:100BE0000895EF92FF920F931F93CF93DF93EC0141
:100BF00081E0888F9B8D8C8D981319C0E889F989C5
:100C0000808185FF14C09FB7F894EE89FF896083C7
:100C1000E889F9898081827480839FBF81E090E0B8
:100C2000DF91CF911F910F91FF90EF900895F62ED5
:100C30000B8D10E00F5F1F4F0F731127E02E8C8D6F
:100C40008E110CC00FB607FCFACFE889F9898081B4
:100C500085FFF5CFCE010E94D005F1CFEB8DEC0FD3
:100C6000FD2FF11DE35AFF4FF0829FB7F8940B8FD1
:100C7000EA89FB8980818062CFCFCF93DF93EC013B
:100C8000888D8823B9F0AA89BB89E889F9898C9174
:100C900085FD03C0808186FD0DC00FB607FCF7CF30
:100CA0008C9185FFF2CF808185FFEDCFCE010E9430
:100CB000D005E9CFDF91CF910895CF93DF93FC0169
:100CC000C081D1810E944405C61BD70B8D2F881F80
:100CD0008827881FDF91CF9108958EBD00000DB445
:100CE00007FEFDCF8EB50895FC01928183819CBDE6
:100CF0008DBD81E0878360E085810E94F7038FEFDF
:100D00000C946D068FEF0C946D060F931F93CF9389
:100D1000DF9300D0CDB7DEB78C010E944405600F91
:100D2000711F7A8369830E9482068F3F71F0CE0122
:100D300001960E945D068823B1F380E00F900F902A
:100D4000DF91CF911F910F91089581E0F7CFCF935D
:100D5000DF93FC012781222349F0EC0161E08581CA
:100D60000E94F7038FEF0E946D061F82DF91CF91E3
:100D70000895DF92EF92FF920F931F93CF93DF932B
:100D8000EC01162F022FF32EE42ED52E0E94910790
:100D90008823C1F18F81811103C0CE010E947406A6
:100DA000111128C0812F80640E946D068D2D0E9434
:100DB0006D068E2D0E946D068F2D0E946D06802F70
:100DC0000E946D0687E8111101C085E90E946D0639
:100DD0000E9482061AE00E948206898787FF02C06D
:100DE0001150C9F7DF91CF911F910F91FF90EF90B4
:100DF000DF9008951C30B1F28CE291E00E948506EC
:100E00008111D0CF8FEFEECF0F931F93CF93DF934E
:100E1000EC0189018A85833039F089E0440F551F40
:100E2000661F771F8A95D1F79A01AB0168E1CE0161
:100E30000E94B906882339F08DE08E83CE010E948E
:100E4000A70680E025C08EEF0E946D06F801819113
:100E50008EBD1E5FE017F10741F081910000000098
:100E60000DB407FEFDCF8EBDF5CF0DB407FEFDCF4F
:100E70008FEF0E946D068FEF0E946D060E94820622
:100E800089878F71853049F4CE010E94A70681E0E1
:100E9000DF91CF911F910F91089581E28E83CE0152
:100EA0000E94A706CBCFEF92FF921F93CF93DF93C1
:100EB000FC01208111E020FF12C0EC017C01FBE06D
:100EC000EF0EF11C4B815C816D817E8197018981E0
:100ED0009A810E940407182F811108C010E0812F09
:100EE000DF91CF911F91FF90EF900895888181FD50
:100EF00004C088818E7F8883F2CF4B815C816D81B5
:100F00007E818F819885A985BA85480F591F6A1FF0
:100F10007B1F970189819A810E9404078111E9CF83
:100F2000DDCF1F93CF93DF93EC0188858230C9F426
:100F300088E592E00E948506182F882361F08DEFE6
:100F40000E946D06CE010E94A7061886812FDF91B0
:100F5000CF911F9108958FE18E83CE010E94A70645
:100F6000F5CF8130A1F4188620E030E0A9016CE0D3
:100F7000CE010E94B906882339F089E08E83CE0124
:100F80000E94A70610E0E2CFCE010E94A70611E062
:100F9000DDCFEF92FF920F931F93CF93DF9300D09B
:100FA000CDB7DEB78C017901FC018285833039F041
:100FB00089E0440F551F661F771F8A95D1F79A0164
:100FC000AB0161E1C8010E94B906882341F08BE0C2
:100FD000F8018683C8010E94A70680E03FC00E94F6
:100FE0004405645D7E4F7A8369830E948206F8011E
:100FF00081878F3F69F4CE0101960E945D068823A8
:10100000A1F38EE1F8018683C8010E94A706E2CF12
:101010008E3F11F089E1F6CF8FEF8EBDF701D7013A
:10102000A150BE4F9FEFEA17FB0749F000000000F8
:101030000DB407FEFDCF8EB59EBD8193F4CF0DB4E8
:1010400007FEFDCF8EB58C93F80111860E948206B3
:101050000E948206C8010E94A70681E00F900F90AF
:10106000DF91CF911F910F91FF90EF900895CF9254
:10107000DF92EF92FF921F93CF93DF93DC011196E3
:10108000ED91FC91EF2B51F490E080E0DF91CF9156
:101090001F91FF90EF90DF90CF900895122F6A017B
:1010A0007B01EC018B819C81AD81BE818C159D05FE
:1010B000AE05BF0561F0CE010E945307882321F3DE
:1010C00012FF0CC01882CB82DC82ED82FE8213708C
:1010D0002881122B1883CE010B96D8CF9E01255F55
:1010E0003F4FB701A60189819A810E94C9078111EA
:1010F000E9CFCACF8F929F92AF92BF92CF92DF92E9
:10110000EF92FF920F931F93CF939093600580937C
:101110005F051092640501E010E020E030E00093EC
:101120006705109368052093690530936A059093CD
:1011300081058093800510927F058FEF9FEFDC0182
:101140008093820590938305A0938405B0938505D1
:10115000662309F44BC020E040E050E0BA018FE77D
:1011600095E00E943708009769F480E0CF911F91C5
:101170000F91FF90EF90DF90CF90BF90AF909F9036
:101180008F900895FC01E254FE4F2481222369F3DD
:1011900020812F7751F78A539E4FFC01C080D18068
:1011A000E280F38020E0B701A6018FE795E00E947E
:1011B0003708FC01892BC9F280898230B1F683851A
:1011C00094858115924089F69585909361058FEFFE
:1011D000890F80936205C0E081E0981769F0CF5FC6
:1011E000C93041F488E080936305BFCFC12CD12C76
:1011F0007601D8CF880FF1CFC09363058689978990
:10120000B0E0A0E080936B0590936C05A0936D0512
:10121000B0936E05892B8A2B8B2B61F484A195A149
:10122000A6A1B7A180936B0590936C05A0936D0563
:10123000B0936E0586859785A7019601280F391F03
:10124000411D511DDA01C901809373059093740506
:10125000A0937505B0937605218932893093660590
:101260002093650540916B0550916C0560916D056B
:1012700070916E054A015B01880C991CAA1CBB1C6D
:10128000880D991DAA1DBB1D80937B0590937C053D
:10129000A0937D05B0937E0505E0220F331F0A95CC
:1012A000E1F721503E4F232F33272695820F931FBE
:1012B000A11DB11D80936F0590937005A0937105DA
:1012C000B093720583889488B12CA12C8114910469
:1012D000A104B10421F480A091A0A2A0B3A0C81AD7
:1012E000D90AEA0AFB0AC80CD91CEA1CFB1C04C078
:1012F000F694E794D794C794CA95D2F7D701C6015C
:101300000196A11DB11D8093770590937805A09358
:101310007905B0937A0535EFC3163FE0D306E104B3
:10132000F10420F48CE0809364051FCF85EFC8168C
:101330008FEFD806E104F10468F480E1809364053E
:1013400040938605509387056093880570938905BF
:1013500081E00CCF84A595A5A6A5B7A580937B05B4
:1013600090937C05A0937D05B0937E0580E2E6CF47
:101370008F929F92AF92BF92CF92DF92EF92FF92A5
:101380000F931F93423051056105710560F480E0B1
:101390001F910F91FF90EF90DF90CF90BF90AF9093
:1013A0009F908F900895FC01C08CD18CE28CF38CBF
:1013B000C416D506E606F70650F3480159016A013E
:1013C0008581803229F584899589A689B78917E0B6
:1013D00076956795579547951A95D1F7480F591FF8
:1013E0006A1F7B1F23E0CF0180960E943708009779
:1013F00071F2CC0CDD1CCC0CDD1CF1E0DF228C0D7D
:101400009D1DFC0180829182A282B38281E0C0CFC7
:10141000803109F0BCCF44895589668977894D0DA3
:10142000511D611D711D23E0CF0180960E94370878
:10143000009709F4ACCFCC0CDD1CF1E0DF22C80E24
:10144000D91EF60111830083E1CFCF92DF92EF9294
:10145000FF920F931F93CF93DF93423051056105A5
:10146000710550F48FEFDF91CF911F910F91FF9095
:10147000EF90DF90CF900895FC01C08CD18CE28C6E
:10148000F38CC416D506E606F70660F389016A01F7
:10149000EC018581803299F584899589A689B7897F
:1014A000E7E07695679557954795EA95D1F7480F08
:1014B000591F6A1F7B1F22E0CE0180960E943708C9
:1014C000009781F2CC0CDD1CCC0CDD1CF1E0DF229E
:1014D0008C0D9D1DFC0180819181A281B381488D7D
:1014E000598D6A8D7B8D481759076A077B0730F144
:1014F000F80180839183A283B38381E0B4CF8031EC
:1015000009F0B0CF44895589668977894D0D511D01
:10151000611D711D22E0CF0180960E94370800975F
:1015200009F4A0CFCC0CDD1CF1E0DF22C80ED91EDF
:10153000F60180819181B0E0A0E0D1CF80E093CF2F
:101540000F931F93CF93DF93FC012081211106C0DD
:1015500081E0DF91CF911F910F910895EC0182817D
:1015600087FF3AC044895589668977898681978142
:1015700021E080960E943708009729F489818160D4
:10158000898380E0E6CFEC81FD81EF70FF2725E0C5
:10159000EE0FFF1F2A95E1F7E80FF91F309771F35F
:1015A0008081853E59F3888187738387888183FF93
:1015B00008C0888D998DAA8DBB8D848F958FA68F3D
:1015C000B78F8C8D9D8DAE8DBF8D938F828FB58B98
:1015D000A48B8A818F778A830E811F81C8018096B0
:1015E0000E945307882351F2F801808191810E9463
:1015F0009107882319F2ACCF4F925F926F927F923E
:101600008F929F92AF92BF92CF92DF92EF92FF9212
:101610000F931F93CF93DF93EC014A015B014C843E
:101620005D846E847F842881222309F487C04889E1
:1016300059896A897B89481559056A057B0581F0B6
:1016400081149104A104B10469F41C861D861E86D0
:101650001F86888A998AAA8ABB8A8A818F7D8A8313
:1016600081E071C023FF57C0888D998DAA8DBB8DF5
:1016700088159905AA05BB0508F460C0EE81FF81B5
:101680003481375F7501640181E0C81AD108E1082F
:10169000F108032E04C0F694E794D794C7940A94F3
:1016A000D2F7DB01CA010197A109B10904C0B695BF
:1016B000A795979587953A95D2F7C816D906EA0661
:1016C000FB0628F0452B462B472B09F052C027FF7D
:1016D0004BC0848D958DA68DB78D8C879D87AE87E9
:1016E000BF878E01045F1F4FC114D104E104F104D0
:1016F00009F4AFCF4C855D856E857F8598018E811D
:101700009F810E94250A91E0C91AD108E108F108D9
:10171000181654F313C026FFB1CFEE81FF818681E6
:10172000978125E0880F991F2A95E1F7B0E0A0E0A6
:1017300088159905AA05BB0508F08BCF4C865D86F8
:101740006E867F8680E0DF91CF911F910F91FF9091
:10175000EF90DF90CF90BF90AF909F908F907F9051
:101760006F905F904F9008958C8D9D8DAE8DBF8D45
:10177000B4CFC81AD90AEA0AFB0AB3CF3F924F92F4
:101780005F926F927F928F929F92AF92BF92CF9211
:10179000DF92EF92FF920F931F93CF93DF9300D0CE
:1017A00000D0CDB7DEB74C01FC0182818068828316
:1017B000A680B7804484558466847784F501C0840C
:1017C000D184E284F384C414D504E604F70410F051
:1017D00011E003C07301620110E0FFEFCF1ADF0ACE
:1017E000EF0AFF0AF501808D918DA28DB38D8C15C6
:1017F0009D05AE05BF0538F4111131C0C084D184F8
:10180000E284F384E5CF4C145D046E047F0439F167
:101810009E012F5F3F4FB701A601C5010E94250A17
:1018200087FD1DC08823C9F289819A81AB81BC8163
:10183000892B8A2B8B2B89F6112329F0F501C08681
:10184000D186E286F3860FEF1FEF2FEF3FE0B7015F
:10185000A601C5010E94B809382E811118C0312C8B
:10186000832D0F900F900F900F90DF91CF911F91CC
:101870000F91FF90EF90DF90CF90BF90AF909F902F
:101880008F907F906F905F904F903F90089541149C
:1018900051046104710431F4F401C486D586E686EE
:1018A000F786DECF97018601B301A201C5010E9430
:1018B000B8098111F1CFD3CF20910C02260F332725
:1018C000331F21323105ECF420911004FC0190E02B
:1018D00080E0243069F082E00895A0910C0221910B
:1018E000AC0144515E4FA40FB52FB11D2C9301964E
:1018F000861798F380910C02680F60930C0280E0C9
:10190000089581E008951092100481E080930F04FF
:101910001092EA0361E082E00E94F70361E083E055
:101920000E94F703E9EBF0E080818E7F8083808165
:101930008D7F808388E48093B80085E48093BC0029
:101940000895CF93DF9391E0909336028823B9F006
:10195000C091B800D091BA008091BC008A7B80937E
:10196000BC0060E082E00E94F70360E083E00E9438
:10197000F7030E94830CD093BA00C093B800DF91A4
:10198000CF9108958F929F92AF92BF92CF92DF92A4
:10199000EF92FF920F931F93CF93DF93D09139046F
:1019A000D13208F0D7C0182FC09138040E946804C3
:1019B0006B017C018091100481116BC082E08093E7
:1019C000100410930F048FEF80930E0410920D04F7
:1019D000D0930C04A8E1B4E0ECEEF3E080E0D8137F
:1019E00091C01092EB038091EB03CC0FC82BC093F6
:1019F000EB038091EA03813009F088C01092EA037A
:101A00000E9468046B017C018091EB038093BB0012
:101A10008091120490911304A0911404B0911504C4
:101A2000892B8A2B8B2BA1F00E9468040091120451
:101A30001091130420911404309115046C197D0940
:101A40008E099F09061717072807390708F442C0AF
:101A50008091BC0083FDD8CF85EC8093BC000E94B0
:101A600068046B017C0180911004823009F450C03D
:101A700080910E048F3F09F46FC080910E04803274
:101A800009F46CC080910E04803309F469C084E0CD
:101A900026C08091120490911304A0911404B09177
:101AA0001504892B8A2B8B2B09F484CF0E946804A0
:101AB0008090120490901304A0901404B090150428
:101AC0006C197D098E099F0986169706A806B90626
:101AD00008F070CF809111040E94A10C85E0109253
:101AE00017041092390410921604DF91CF911F91C0
:101AF0000F91FF90EF90DF90CF90BF90AF909F90AD
:101B00008F9008959D9191938F5F69CF85EEA5CFBA
:101B10008091120490911304A0911404B0911504C3
:101B2000892B8A2B8B2B09F49ECF0E94680400918D
:101B300012041091130420911404309115046C19AF
:101B40007D098E099F09061717072807390708F02E
:101B50008ACFC0CF81E0C3CF80E0C1CF82E0BFCFCA
:101B600083E0BDCF0895E091350280913402E817FB
:101B700030F4F0E0E453FE4F808190E008958FEF61
:101B80009FEF089590913502809134022FEF3FEF3F
:101B9000981748F4E92FF0E0E453FE4F208130E03D
:101BA0009F5F90933502C90108958091340290910E
:101BB0003502891B990B0895CF92DF92EF92FF9225
:101BC0000F931F93CF93DF937C01CB018A01209168
:101BD0001604222389F0EB016B01C40ED51ECC152F
:101BE000DD0569F06991D701ED91FC910190F081DB
:101BF000E02DC7010995F3CF642F0E945C0CC8014A
:101C0000DF91CF911F910F91FF90EF90DF90CF90D8
:101C10000895CF93DF931F92CDB7DEB769832091EC
:101C200016042223F9F020913904203258F021E0E3
:101C300030E0FC013383228390E080E00F90DF915D
:101C4000CF91089580911704E82FF0E0E85EFB4FF4
:101C5000998190838F5F809317048093390481E08A
:101C600090E0ECCF61E0CE0101960E945C0CF7CFD2
:101C700061507109FA012491222349F04F5F5F4FAF
:101C80008617970720F4FC012193CF01F3CF089525
:101C900061507109FA012191AF01222339F08617B1
:101CA000970720F4FC012193CF01F4CF0895FC01A4
:101CB000848583FF17C084A195A1A6A1B7A1448DF7
:101CC000558D668D778D841B950BA60BB70B8115F3
:101CD00020E89207A105B10520F08FEF9FE7A0E073
:101CE000B0E0089580E090E0DC01F1CF0C960C9418
:101CF000A00A90E080E008958F929F92AF92BF92E9
:101D0000EF92FF920F931F93CF93DF93E82E809172
:101D1000DC07282F30E0F901EE0FFF1FE20FF31F61
:101D2000E954F84F908196FD53C08C3008F050C0B4
:101D300086E00E9476028091DC07282F30E0F901CE
:101D4000EE0FFF1FE20FF31FE954F84F9081907CD4
:101D5000966090831092DD071092DE072CE0622FD0
:101D60000E944036829FB001112430E020E0AB0198
:101D7000420F531FFA01EE0FFF1FE40FF51FE95446
:101D8000F84F908196FD16C02F5F3F4F2C303105E4
:101D900071F781110FC01092800082E08093810062
:101DA0001092850010928400B19A80916F00826039
:101DB00080936F00E091DC078E2F90E0FC01EE0F26
:101DC000FF1FE80FF91FE954F84F8081806480837A
:101DD000F090DC078BE08F1508F44DC08091DE0792
:101DE00008E512E0081B110987FD1395000F111F6C
:101DF000000F111F8091DD07C8E8D0E0C81BD10992
:101E000087FDD395CC0FDD1FCC0FDD1F4E010D2EAE
:101E1000000CAA08BB089801012E000C440B550BBE
:101E2000281939094A095B09AE2DB0E00E94DB315F
:101E300024EB30E040E050E00E94BC31820E931E63
:101E4000A41EB51E8C169D062CF0E8018016910686
:101E50000CF4E4012297CC0FDD1F2FB7F8948F2DDF
:101E600090E0FC01EE0FFF1FE80FF91FE954F84F57
:101E7000D283C1832FBFDF91CF911F910F91FF902C
:101E8000EF90BF90AF909F908F900895CF93C42F05
:101E900091E09093160480933804109217041092E6
:101EA000390487E295E00E94090E6C2F87E295E0E5
:101EB0000E94090E81E00E94C20C91E0811190E025
:101EC000892FCF9108958F929F92AF92BF92DF9208
:101ED000EF92FF920F931F93CF93DF93EC017B015F
:101EE0008A8180FFB9C0288188889988AA88BB88A0
:101EF00023FF21C0888D998DAA8DBB8D88199909E2
:101F0000AA09BB0982309105A105B10518F5009712
:101F100009F530E020E0A901481B590BCA01DF9107
:101F2000CF911F910F91FF90EF90DF90BF90AF90F6
:101F30009F908F90089526FF0DC0EE81FF818681CE
:101F4000978135E0880F991F3A95E1F78815990533
:101F500009F488C0EE81FF8184011170B501A401EC
:101F600089E076956795579547958A95D1F726FF2D
:101F700027C0848D958DA68DB78D480F591F6A1F78
:101F80007B1F8E819F8120E080960E9437080097FA
:101F900009F462C0800F911FFC018081F7018083EA
:101FA00088899989AA89BB890196A11DB11D888B51
:101FB000998BAA8BBB8B21E030E090E080E0ABCF27
:101FC000D380D4220115110581F4D1100EC08928C7
:101FD0008A288B2881F527FF29C0848D958DA68DB1
:101FE000B78D8C879D87AE87BF87EE81FF814C853B
:101FF0005D856E857F854250510961097109848133
:1020000004C0440F551F661F771F8A95D2F7808939
:102010009189A289B389840F951FA61FB71FAC01B0
:10202000BD014D0D511D611D711DABCF8C8D9D8D61
:10203000AE8DBF8DD6CF4C855D856E857F859E012B
:10204000245F3F4FCF010E94250A87FD05C0811103
:10205000CCCF8881807D49F48981826089838FEF2C
:102060009FEF5DCF30E020E0A8CF21E030E081E0BD
:1020700090E051CFEF92FF920F931F93CF93DF9396
:102080001F92CDB7DEB77C01962FF70140895189A9
:10209000628973898A019B0185E03695279517959A
:1020A00007958A95D1F70F7011F0911129C0BE01E3
:1020B0006F5F7F4FC7010E94630F813051F090E046
:1020C00080E00F90DF91CF911F910F91FF90EF90E3
:1020D0000895F70180899189A289B3894F96A11D3E
:1020E000B11D808B918BA28BB38BF7018681978179
:1020F0008B96F0E20F9F90011124820F931FE1CF86
:10210000405E5F4F6F4F7F4F408B518B628B738B65
:10211000ECCF8F929F92AF92BF92CF92DF92EF92CD
:10212000FF920F931F93CF93DF931F92CDB7DEB72C
:102130008C01FC01848C958CA68CB78CC08CD18CC6
:10214000E28CF38CBE016F5F7F4F0C960E94630F91
:102150000197C9F4898190E0F801848E958EA68E4E
:10216000B78EC08ED18EE28EF38E0F90DF91CF911D
:102170001F910F91FF90EF90DF90CF90BF90AF90A5
:102180009F908F9008958FEF9FEFE6CFCF93DF93CF
:102190001F92CDB7DEB7BE016F5F7F4F0C960E94D6
:1021A000630F019731F4898190E00F90DF91CF9117
:1021B00008958FEF9FEFF9CF2F923F924F925F924A
:1021C0006F927F928F929F92AF92BF92CF92DF9247
:1021D000EF92FF920F931F93CF93DF93EC014B018C
:1021E0005A018A8181FF8CC083FD81C0A50170E006
:1021F00060E088899989AA89BB8980959095A09586
:10220000B09584179507A607B70708F479C065014C
:102210001E018CE0280E311C088919892A893B8906
:10222000C114D10409F4E5C08E819F81B901A801D0
:1022300029E076956795579547952A95D1F7DC0162
:102240001396FC90F4221170F1101BC04C855D8533
:102250006E857F850115110509F0EFC04115510507
:102260006105710509F452C091010E94250A87FD9C
:1022700047C0811106C0CE010E94BE0B882309F41D
:102280003FC0EE81FF814C855D856E857F85425024
:10229000510961097109848104C0440F551F661FEB
:1022A000771F8A95D2F780899189A289B389840F93
:1022B000951FA61FB71FAC01BD014F0D511D611D1C
:1022C000711D0115110521F4C114B2E0DB06C8F53A
:1022D00080E092E0801B910B76018C159D0508F43F
:1022E0007C010115110509F448C021E057C0488D53
:1022F000598D6A8D7B8DCE010E94FC0A811176CFAB
:10230000898181608983B12CA12C83C08C8D9D8DA6
:10231000AE8DBF8D0097A105B10571F4CE010E946D
:10232000BE0B882369F38C859D85AE85BF858C8F18
:102330009D8FAE8FBF8FA5CF8C879D87AE87BF87C0
:10234000A0CF83A194A1A5A1B6A1481759076A07F8
:102350007B0741F410A28FEF9FEFDC0183A394A3CE
:10236000A5A3B6A3940181A192A10E94040788238A
:1023700039F2E12C82E0F82E2BC0488859886A880F
:102380007B88888D998DAA8DBB8D481659066A0663
:102390007B0618F48A8185FFA8CF25E0CF018096BF
:1023A0000E943708009709F4ABCFA701B401800F52
:1023B000911F0E945F360E0D1F1D0115124041F442
:1023C0008E819F8180960E945307882309F498CFBD
:1023D00088899989AA89BB898E0D9F1DA11DB11D70
:1023E000888B998BAA8BBB8B8E0C9F1CCE18DF0819
:1023F00013CF888D998DAA8DBB8D80179107A20769
:10240000B30738F4088F198F2A8F3B8F8A81806831
:102410008A83C501DF91CF911F910F91FF90EF90BB
:10242000DF90CF90BF90AF909F908F907F906F90F4
:102430005F904F903F902F900895FC0142505109BA
:1024400061097109848104C0440F551F661F771FFD
:102450008A95D2F780899189A289B389480F591F3B
:102460006A1F7B1F35CF0C960C94DC10CF93DF9343
:102470001F92CDB7DEB7698341E050E0BE016F5FC8
:102480007F4F0C960E94DC100F90DF91CF91089542
:10249000FB0101900020E9F73197AF01461B570B74
:1024A000DC01ED91FC910280F381E02D09940F9302
:1024B0001F93CF93DF93EC010E9448128C016BEACB
:1024C00071E0CE010E944812800F911FDF91CF91E1
:1024D0001F910F9108954F925F926F927F928F920A
:1024E0009F92AF92BF92FF920F931F93CF93DF9370
:1024F000D82F042FF52E122F81E080931604D0934D
:102500003804109217041092390487E295E00E9473
:10251000090E80E00E94C20CC82F8111CCC00E941D
:1025200068044B015C0180911004811165C081E059
:102530008093100480930F049FEF90930E041092E9
:102540000D04910F90930C048093EB038091EB03A7
:10255000DD0FD82BD093EB038091EA03813009F093
:1025600084C01092EA030E9468044B015C018091D0
:10257000EB038093BB008091120490911304A0910F
:102580001404B0911504892B8A2B8B2BA1F00E9487
:1025900068044090120450901304609014047090EA
:1025A0001504681979098A099B09461657066806B1
:1025B000790608F442C08091BC0083FDD8CF85EC39
:1025C0008093BC000E9468044B015C018091100460
:1025D000813009F44CC080910D04811708F069C066
:1025E00080910D04ACEEB3E0ECECF1E0C81749F1DA
:1025F0009D919193CF5FFACF809112049091130433
:10260000A0911404B0911504892B8A2B8B2B09F40B
:102610008ACF0E9468044090120450901304609086
:10262000140470901504681979098A099B094616E3
:1026300057066806790608F076CF809111040E944B
:10264000A10C10923502C09334021C1334C0B02E7A
:10265000C02FDF2D87E295E00E94C20D89938C2F59
:102660008B198117B8F381E027C085EEA9CF80913F
:10267000120490911304A0911404B0911504892BB5
:102680008A2B8B2B09F4A2CF0E946804409012047D
:10269000509013046090140470901504681979091F
:1026A0008A099B09461657066806790608F08ECFF8
:1026B000C4CF812F97CF80E0DF91CF911F910F91F1
:1026C000FF90BF90AF909F908F907F906F905F90A2
:1026D0004F900895EF92FF920F931F93CF93DF9344
:1026E000CDB7DEB72C970FB6F894DEBF0FBECDBFC7
:1026F0007C018B012CE0AE014F5F5F4F6DE288E6FD
:102700000E946B12882361F129813A8132272327A5
:102710003227F701318320832B813C813227232705
:102720003227338322832D813E813227232732278C
:10273000358324832F813885322723273227F801D8
:102740003183208329853A85322723273227338313
:1027500022832B853C853227232732273583248308
:102760002C960FB6F894DEBF0FBECDBFDF91CF9190
:102770001F910F91FF90EF9008952F923F924F92EB
:102780005F926F927F928F929F92AF92BF92CF9201
:10279000DF92EF92FF920F931F93CF93DF93CDB70A
:1027A000DEB728970FB6F894DEBF0FBECDBF98876F
:1027B0008F837B0126E0AE014F5F5F4F67EF87E7B6
:1027C0000E946B12082F882309F4E9C119812A801D
:1027D0003B808C8190E0B0E0A0E02CE0880F991F56
:1027E000AA1FBB1F2A95D1F74D8150E070E060E031
:1027F00034E0440F551F661F771F3A95D1F7842B9D
:10280000952BA62BB72B2E8130E044E035952795EC
:102810004A95E1F7032E000C440B550B822B932BAA
:10282000A42BB52B409137025091380270E060E044
:102830002C013D01E4E07594679457944794EA9520
:10284000D1F7441A550A660A770AF3E0B595A795B9
:1028500097958795FA95D1F7440F551F661F771FF7
:102860005C016D01A41AB50AC60AD70AA601950132
:10287000A0913902B0913A020E94E6314B015C010D
:102880003BE0B594A794979487943A95D1F7A30128
:102890009201C301B2010E9430369B01AC016CE091
:1028A00055954795379527956A95D1F7A0913B02A5
:1028B000B0913C020E94E6312B013C017EE0759410
:1028C0006794579447947A95D1F7480C591C6A1C21
:1028D0007B1C40924F0250925002609251027092C3
:1028E0005202A5E0B0E0A30192010E94DB316058E2
:1028F0007F4F8F4F9F4F672F782F892F992787FD05
:102900009A950E943C3320E030E048EC52E40E946B
:10291000C832F701608371838283938373016201FC
:10292000F594E794D794C794FAEFDF1AE108F10819
:10293000C701B601A2E09595879577956795AA9509
:10294000D1F79B01AC010E9430364B015C01A09194
:102950004102B0914202AC019B018DE05595479533
:10296000379527958A95D1F70E94E6312B013C01D6
:1029700093E075946794579447949A95D1F7A091F2
:102980003F02B0914002A70196010E94E6319B01EF
:10299000AC015595479537952795240D351D461D56
:1029A000571D72E155954795379527957A95D1F73B
:1029B00030584F4F5F4FA0913D02B0913E020E94B0
:1029C000DB312B013C01EFE07594679457944794F9
:1029D000EA95D1F7411451046104710409F404C16A
:1029E000A50194018BE055954795379527958A95D4
:1029F000D1F7A0914702B09148020E94E6314B0105
:102A00005C01A0914502B0914602A70196010E9487
:102A1000E631DC01CB01880F991FAA1FBB1F880D6F
:102A2000991DAA1DBB1D6C017D0132E0F594E79450
:102A3000D794C7943A95D1F7212F30E050E040E089
:102A40006CE0220F331F441F551F6A95D1F7822D6A
:102A500090E0B0E0A0E074E0880F991FAA1FBB1FB0
:102A60007A95D1F7282B392B4A2B5B2B832D90E0BD
:102A7000E4E095958795EA95E1F7092E000CAA0BFD
:102A8000BB0B282B392B4A2B5B2B80914302909157
:102A90004402092E000CAA0BBB0BDC0199278827E6
:102AA0008C0D9D1DAE1DBF1D1CE0B595A79597957E
:102AB00087951A95D1F7280F391F4A1F5B1FABEC7A
:102AC000B3EF0E94E931805B9C4397FD82C0660FA3
:102AD000771F881F991FA30192010E9425322901A7
:102AE0003A01C301B20123E09695879577956795E2
:102AF0002A95D1F79B01AC010E9430369B01AC01B5
:102B00006DE056954795379527956A95D1F7A09131
:102B10004D02B0914E020E94E6316B017C017CE0D7
:102B2000F594E794D794C7947A95D1F7A3019201CD
:102B3000E2E05695479537952795EA95D1F7A0910C
:102B40004B02B0914C020E94E6319B01AC01FDE0CA
:102B50005595479537952795FA95D1F72C0D3D1D3D
:102B60004E1D5F1DC0904902D0904A020D2C000CF2
:102B7000EE08FF082C0D3D1D4E1D5F1DA4E0559570
:102B8000479537952795AA95D1F7420E531E641E97
:102B9000751EEF81F8854082518262827382802F98
:102BA00028960FB6F894DEBF0FBECDBFDF91CF9150
:102BB0001F910F91FF90EF90DF90CF90BF90AF905B
:102BC0009F908F907F906F905F904F903F902F904D
:102BD0000895A30192010E94253229013A01440C73
:102BE000551C661C771C7DCF412C512C3201D1CF56
:102BF000FC01808181110EC080E2DF011D928A9567
:102C0000E9F777836683DB0115968C91803121F09B
:102C1000803239F080E0089580E4808381E082830F
:102C2000089580E8FACFCF92DF92EF92FF920F9350
:102C30001F93CF93DF93FC0180E2DF011D928A9501
:102C4000E9F7DB011696CD91DC911797D783C68300
:102C5000558344835C96CD90DD90ED90FC905F971A
:102C6000C086D186E286F386DE019B964F7055279B
:102C700095E0440F551F9A95E1F7A40FB51F1B96D9
:102C80008C911B9783FD12C0877380831B969C9148
:102C90001B97987111F4886080830383237021301F
:102CA00009F448C038F0223009F442C01082128280
:102CB00080E035C081E08283828181FF06C080810F
:102CC000982F917199F7806280834BA15CA16DA1CF
:102CD0007EA1448B558B668B778B54964D915C917E
:102CE000559770E060E0BA01552744275A960D9138
:102CF0001C915B9730E020E0402B512B622B732B13
:102D0000448F558F668F778F5C968D919D910D9036
:102D1000BC91A02D808F918FA28FB38F81E0DF9126
:102D2000CF911F910F91FF90EF90DF90CF9008957A
:102D300083E0C1CF82E0BFCF4F925F926F927F92CC
:102D40008F929F92AF92BF92CF92DF92EF92FF92BB
:102D50000F931F93CF93DF935C01EB016A01922ED7
:102D600040E050E0BA01CE010E94FC0AF12CE12CB7
:102D7000712C612C00E010E026012FEF421A520A5C
:102D800061E0CE010E943A10BC010097B1F4898144
:102D9000882309F495C080E0DF91CF911F910F91B6
:102DA000FF90EF90DF90CF90BF90AF909F908F906B
:102DB0007F906F905F904F900895FC019081953EB9
:102DC00009F475C0992309F477C0838583FD11C088
:102DD0004BE050E0C2010E945236892B09F06AC0D4
:102DE000292DA70196FCD7CFBE01C5010E9413165D
:102DF000D3CF8F3009F05EC096FF02C0092F0F714C
:102E0000FFEFEF1AFF0ABCCF370100E011E0F8CF67
:102E1000848120E032E002C0220F331F8A95E2F75E
:102E200088899989AA89BB89820F931FA11DB11D29
:102E3000888B998BAA8BBB8B3701A30170E060E074
:102E400085E0440F551F661F771F8A95D1F7CE0185
:102E50000E94FC0A882309F49ECF60E0CE010E9404
:102E60003A10009709F497CF20E2FC0111922A95BD
:102E7000E9F7F60131962BE0DC0101900D922A95DD
:102E8000E1F7F60120812871FC01248721E23CE56D
:102E9000318B208B318F208F338B228BEE81FF8102
:102EA00080A1816080A300E0292DA3019DCF112383
:102EB00009F4AACF00E0A4CF111102C0370111E03C
:102EC00094FE69CF892D83708150823008F063CFE2
:102ED0001111B3CF888186FD5ECF88899989AA892F
:102EE000BB8981159E4FAF41B10508F054CFCE018B
:102EF0000E94BE0B882309F44ECFEE81FF814C84E3
:102F00005D846E847F8432E0431A51086108710841
:102F1000848104C0440C551C661C771C8A95D2F72A
:102F200080899189A289B389480E591E6A1E7B1E29
:102F3000812C00E012E0EE81FF818281881608F08A
:102F400067CF25E0B301A201480D511D611D711D20
:102F5000CF0180960E943708009709F41CCFFC012E
:102F60009801119221503040E1F78394E4CF8F9281
:102F70009F92AF92BF92CF92DF92EF92FF920F9308
:102F80001F93CF93DF93CDB7DEB7AC970FB6F8940E
:102F9000DEBF0FBECDBF8C017A01B22E19821A821C
:102FA0001B82FC0180818823A1F080E0AC960FB6E3
:102FB000F894DEBF0FBECDBFDF91CF911F910F916F
:102FC000FF90EF90DF90CF90BF90AF909F908F9049
:102FD0000895FB018081807D41F3FA0180818F3269
:102FE000B1F47F0181918F32E1F3FB01668177813A
:102FF000811104C0C8010E94F815D8CFCE010196F6
:103000000E94F815BE016F5F7F4F882371F26E0139
:10301000FDE2CF0ED11C20E2A22EFE01B2969F014E
:10302000A192CE16DF06E1F7D70187E0E82EE0E0B7
:1030300098E0992E90E0F12CAD014F5F5F4F8C919D
:10304000882309F444C08F3209F441C08E3251F410
:10305000F7E0EF1212C08AE0E82EE8E08E2EF0E1F1
:103060009F2E2CC0823209F4A0CF8C3709F49DCF5B
:10307000F5EAF80FF33008F498CFF6EDF80FF630D4
:1030800018F48D3209F091CFF6ECF80FF63008F411
:103090008CCFFFEDF80FFE3508F087CFEE1608F461
:1030A00084CFFFE9F80FFA3160F48052992988241F
:1030B00083948E0EE20FF32FF11D8083DA01E82D49
:1030C000BBCFFFEBF80FFA3190F7F928F0CF8AA1C8
:1030D000803209F46ACFF92209F090E099A37D01CA
:1030E0008C9111968F32D9F3811108C02B2DAE012E
:1030F0004F5D5F4FC8010E949C1658CF20E0AE0183
:103100004F5D5F4FC8010E949C16882309F44DCF84
:1031100080E2F801DE01119601900D928A95E1F7A7
:10312000C8010E94A00AF80110821282BE016F5FDE
:103130007F4F73CF85ED8093BC00809112049091F6
:103140001304A0911404B09115040796A11DB11D9C
:1031500023E0B695A795979587952A95D1F7209165
:10316000BC0024FD03C01092100408954091120485
:10317000509113046091140470911504452B462B53
:10318000472B69F30097A105B10541F02AE22A9582
:10319000F1F700C00197A109B109E1CF80911104B5
:1031A0000C94A10CCF92DF92EF92FF920F931F939A
:1031B000CF93DF93CDB7DEB760970FB6F894DEBF3D
:1031C0000FBECDBF7C016B01CA01B901202F8E015A
:1031D0000F5F1F4F41E00E94FD2EA801B601C701FD
:1031E0000E94480E60960FB6F894DEBF0FBECDBFAA
:1031F000DF91CF911F910F91FF90EF90DF90CF90D3
:103200000895EF92FF920F931F93CF93DF93CDB763
:10321000DEB72C970FB6F894DEBF0FBECDBF8C0182
:103220007B01CA01B9012AE0AE014F5F5F4F0E94E6
:10323000392FAE014F5F5F4FB701C8010E94480EA2
:103240002C960FB6F894DEBF0FBECDBFDF91CF91A5
:103250001F910F91FF90EF900895CF93DF93C42FAC
:1032600023E22093FF029B01AC016FE373E080E057
:1032700093E00E94011923E08E33920720F42CE79B
:10328000FC012083019641E253E0CF3040F4EC2F63
:10329000F0E0EE0FFF1FEC5EFE4F408151816FE3C7
:1032A00073E00E94380EEC0118828AE894E00E94D4
:1032B0007F05CF5FD240CE5FC817190609F054F4DE
:1032C0006FEF72E08AE894E00E94571281E0DF918C
:1032D000CF91089580E0FBCFCF93C5E08091560257
:1032E0008823E1F0E0915702CE9FF0011124E854C9
:1032F000FE4F608171818281938144810E942D19EA
:10330000882361F0809157028F5F8370809357020A
:1033100080915602815080935602E0CFCF9108955C
:10332000CF92DF92EF92FF92CF93C82F0E94440575
:103330006B017C0180914A03813079F583E28093AF
:103340009D02A70196016DEF72E08EE992E00E9466
:103350000119FC0101962CE2208341E253E0CF30B9
:1033600040F4EC2FF0E0EE0FFF1FEC5EFE4F4081CB
:1033700051816DEF72E00E94380EFC0110826DE900
:1033800072E083E395E00E94571280914A038130F6
:1033900021F48FE395E00E94A00A809141038130DF
:1033A000D9F40E946C1980915602882371F08091A3
:1033B00056028430B9F48091FD029091FE0201968C
:1033C0009093FE028093FD0207C04C2FC701B60107
:1033D0000E942D19882359F3CF91FF90EF90DF9031
:1033E000CF900895E0915702E80FE37095E0E99FD0
:1033F000F0011124E854FE4FC082D182E282F382B0
:10340000C4838F5F80935602E7CFCF93C82F88E79E
:103410000E947C0E82E0809396020E944405609395
:10342000890270938A0280938B0290938C0210928F
:103430008D028AE0C1118EE0CF910C949019909189
:1034400049039817E9F080934903833089F028F401
:10345000813049F0823051F00895853069F050F0A4
:10346000873061F0089586E00C94901987E0FCCFD6
:1034700088E0FACF89E0F8CF8BE0F6CF8CE0F4CF8C
:1034800008952091420330914303A9014823592311
:10349000452B69F4282B392B3093430320934203A7
:1034A00087709927892B19F08DE00C949019089555
:1034B0001F920F920FB60F9211248F939F938091BA
:1034C000E1009091E100937F9093E10083FF0FC0B2
:1034D0001092E90091E09093EB001092EC0092E3DF
:1034E0009093ED001092E90398E09093F00082FF32
:1034F00022C093E09093E9009091F200992319F093
:103500009AE39093E8009091DA03992341F0909127
:10351000DA0391509093DA03911101C05D9A909172
:10352000E803992341F09091E80391509093E803C8
:10353000911101C0289A84FF18C08091E2008E7E0C
:1035400081608093E2008091E1008F7E8093E100B2
:103550008091DB038E7E80618093DB039F918F914E
:103560000F900FBE0F901F90189580FFF7CF80919E
:10357000E2008E7E80618093E2008091E1008E7E89
:103580008093E1008091DB038E7E8160E5CF1F9206
:103590000F920FB60F921124CF92DF92EF92FF920B
:1035A0000F931F932F933F934F935F936F937F934B
:1035B0008F939F93AF93BF93EF93FF93CF93DF933B
:1035C000CDB7DEB76C97DEBFCDBF1092E90080911A
:1035D000E80083FF25C068E0CE0145960E94EA031B
:1035E00082EF8093E8008D8987FF39C09091E800D1
:1035F00090FFFCCF982F907609F034C19E894F89B7
:10360000588D2F89F88C911131C0803861F58091E7
:10361000D9038093F1001092F1008EEF8093E800BF
:103620006C960FB6F894DEBF0FBECDBFDF91CF9181
:10363000FF91EF91BF91AF919F918F917F916F918A
:103640005F914F913F912F911F910F91FF90EF90BC
:10365000DF90CF900F900FBE0F901F9018959EEFA8
:103660009093E800C7CF1092F100D5CF913059F474
:103670008111D3CF4130510581F68091D9038D7FDF
:103680008093D903CACF933049F48111C6CF41301A
:10369000510519F68091D9038260F2CF953041F43B
:1036A0008091E80080FFFCCF20682093E300B5CF35
:1036B000963009F0A9C00B8D1C8D22E01092E90014
:1036C0001092D7031092D603F2122EC01092D50397
:1036D0001092D4030E94B9031F8299E09983FA8261
:1036E00091E09E8390EA98879AEF99872091D6037C
:1036F0003091D703275F3F4F3C832B838D831092FC
:10370000E9001092D7031092D6031093D5030093CB
:10371000D40349E050E0BE016F5F7F4F80E00E941C
:1037200093030E94B90379CF1093D5030093D40378
:103730000E94D002DC0112960D911C910115110519
:1037400009F451C1D801ED91FC910480F581E02D7F
:10375000BE016B5E7F4FC8010995009709F03EC11D
:10376000F80100851185EACFF3E0FF120EC08F89C2
:10377000882309F440C0823061F440E860E18BE2C4
:1037800094E00E94761F811148CF81E28093EB0084
:1037900047CF813029F440E86BE08FE194E0F1CF2E
:1037A000833099F70E94D002DC011296ED90FC90D4
:1037B0008E010F5F1F4F6801E114F10479F0D7010A
:1037C000ED91FC910680F781E02DB801C7010995C4
:1037D000080F111DF701E084F184EECFD8011C928F
:1037E000F60101900020E9F73197BF016C197D09BE
:1037F00040E0C601C6CF69E074E0FB01449150E0AF
:1038000080E80E94930309CF973009F4BECF983027
:1038100021F481E08093F10000CF993009F0FDCED2
:10382000837009F0B2CFEDE5F1E081E031E096E39D
:103830002191222371F08093E9003093EB00DF01A6
:1038400011972C912093EC009093ED008F5F8730BF
:1038500079F78EE78093EA001092EA008F898093CF
:10386000E903DBCE8B8D9C8D1092E9001092D7037B
:103870001092D6039093D5038093D403898D811140
:1038800092C08E899D89913A49F4813209F07DCFA9
:1038900047E050E06CE071E080E0B3CF913209F096
:1038A00074CF833269F48F89988DB0E0A0E0809363
:1038B000080190930901A0930A01B0930B01ADCECA
:1038C000803269F48091E80082FFFCCF67E08CE0F1
:1038D00091E00E94EA038BEF8093E8009ECE823253
:1038E00009F09BCE8F8980931301EEEFFFE785915E
:1038F00094918B3F9C4D51F1E0E0F8E080910C01F8
:1039000090910D01A0910E01B0910F01803B944068
:10391000A105B105F1F48091130180FD1AC0EE3FBD
:103920008AE0F80789F587E797E79183808380919C
:1039300060008093D80388E19BE00FB6F894A895C7
:10394000809360000FBE9093600067CEEEEFFAE0C8
:10395000D5CF808191818737974709F05ECEA895B2
:10396000809160008861809360008091D80380938B
:103970006000EE3F2AE0F20789F08091FE0A909104
:10398000FF0A9183808349CE808191818737980790
:1039900051F29093FF0A8093FE0AC5CF1092FF0A5E
:1039A0001092FE0A3ACE0E94D002DC0112960D91CE
:1039B0001C910115110509F4E8CED801ED91FC9197
:1039C0000190F081E02DBE016B5E7F4FC80109952B
:1039D000811123CEF80100851185EBCF1816190649
:1039E0000CF41BCED2CEF1E0FF12BECE6DE074E03F
:1039F00004CF1F920F920FB60F9211242F933F9373
:103A00008F939F93AF93BF938091CC039091CD03FD
:103A1000A091CE03B091CF033091CB0323E0230FCD
:103A20002D3758F50196A11DB11D2093CB0380932E
:103A3000CC039093CD03A093CE03B093CF0380919A
:103A4000D0039091D103A091D203B091D3030196FA
:103A5000A11DB11D8093D0039093D103A093D203F5
:103A6000B093D303BF91AF919F918F913F912F91CD
:103A70000F900FBE0F901F90189526E8230F029607
:103A8000A11DB11DD2CF1F920F920FB60F9211241C
:103A90002F933F934F935F936F937F938F939F9356
:103AA000AF93BF93EF93FF938AE894E00E94D00511
:103AB000FF91EF91BF91AF919F918F917F916F9106
:103AC0005F914F913F912F910F900FBE0F901F90DC
:103AD00018951F920F920FB60F9211242F938F9368
:103AE0009F93EF93FF93E0919A04F0919B04808160
:103AF000E091A004F091A10482FD1BC0908180910F
:103B0000A3048F5F8F732091A404821741F0E0918A
:103B1000A304F0E0E657FB4F958F8093A304FF9139
:103B2000EF919F918F912F910F900FBE0F901F904B
:103B300018958081F4CF1F920F920FB60F92112427
:103B40002F933F934F935F936F937F938F939F93A5
:103B5000AF93BF93CF93DF93EF93FF9380912F02A7
:103B6000C091DB07D0E087FF24C01092850010923F
:103B7000840080912F028F5F80932F0280912F020B
:103B8000082E000C990B8C179D0724F480912F02AE
:103B90008C30C4F18091840090918500049680342B
:103BA0009C4908F47AC08091840090918500049625
:103BB00076C080912F02082E000C990B8C179D0760
:103BC000C4F6E0912F028E2FEE0F990BFC01EE0F41
:103BD000FF1FE80FF91FE954F84F808186FFC9CF16
:103BE000E0912F028E2FEE0F990BFC01EE0FFF1FBD
:103BF000E80FF91FE954F84F808160E08F730E944D
:103C0000F703B7CF2091840030918500E0912F0217
:103C10008E2FEE0F990BFC01EE0FFF1FE80FF91F1F
:103C2000E954F84F81819281820F931F909389000C
:103C300080938800E0912F028E2FEE0F990BFC01EC
:103C4000EE0FFF1FE80FF91FE954F84F808186FF40
:103C500011C0E0912F028E2FEE0F990BFC01EE0F99
:103C6000FF1FE80FF91FE954F84F808161E08F735F
:103C70000E94F703FF91EF91DF91CF91BF91AF9138
:103C80009F918F917F916F915F914F913F912F9174
:103C90000F900FBE0F901F90189580E49CE99093B1
:103CA0008900809388008FEF80932F02E3CF1F92CB
:103CB0000F920FB60F9211242F933F934F935F9360
:103CC0006F937F938F939F93AF93BF93EF93FF93E4
:103CD0008091B900887F803609F44AC0F0F58832B7
:103CE00009F4A7C018F5803109F49BC0B8F4882303
:103CF00009F4F9C0883009F494C0FF91EF91BF91A5
:103D0000AF919F918F917F916F915F914F913F9173
:103D10002F910F900FBE0F901F901895883109F4C6
:103D200088C0803251F780930E0414C0803409F4A7
:103D30009DC040F48033B9F38833F9F680930E04C4
:103D400085ECB0C0803509F485C0883509F496C08B
:103D5000883499F60E949A18D0CF883909F48CC01B
:103D600038F5883729F050F4883611F0803729F675
:103D700083E08093100410922E0257C0883809F413
:103D80007BC0803919F0803809F0B7CF80912E02BE
:103D9000803208F071C0E0912E0281E08E0F809396
:103DA0002E028091BB00F0E0E25FFD4F80833DC0BA
:103DB000803B39F0E0F4803A09F479C0883A09F0A0
:103DC0009CCF84E08093100410920D0210920C029C
:103DD000E0913202F0913302099580910C02811139
:103DE0000FC081E080930C021092EC0109C0803C6E
:103DF00009F4A6CF883C09F4A3CF883B09F07DCF16
:103E0000E0910D0281E08E0F80930D02F0E0E4510D
:103E1000FE4F80818093BB0090910D0280910C0237
:103E200029C08091EB038093BB0085EC8093BC009C
:103E300064CF90910D0480910C04981758F5E0918F
:103E40000D0481E08E0F80930D04F0E0E451FC4FEF
:103E50008081E9CFE0910D0481E08E0F80930D0405
:103E60008091BB00F0E0E451FC4F808390910D0401
:103E700080910C049817C8F285E8D8CFE0910D0422
:103E800081E08E0F80930D048091BB00F0E0E4513F
:103E9000FC4F808380910F0481115CCF81E080937F
:103EA000EA0384EA8093BC001092100426CF85ECCC
:103EB0008093BC001092100480912E02803230F466
:103EC000E0912E02F0E0E25FFD4F108260912E0241
:103ED00070E0E0913002F09131028EE092E00995BD
:103EE00010922E020ACF10920E0434CFEF92FF925E
:103EF0000F931F93CF93DF93F82E192FE62E042FE5
:103F000081E0860F880F0E94650383E00E946503AD
:103F1000CF2DD12FEC0EFD2EF11CCE15DF05B9F003
:103F200007FF13C0FE0184910E946503182F80E0F3
:103F30000E946503812321968111EFCFDF91CF91FC
:103F40001F910F91FF90EF9008958881EDCF81E050
:103F5000F5CF10923D0410923C0488EE93E0A0E06F
:103F6000B0E080933E0490933F04A0934004B0934C
:103F7000410427E631E030933B0420933A042FEFCD
:103F80003FEF309347042093460410928D04109223
:103F90008C0480938E0490938F04A0939004B0932C
:103FA000910429E731E030938B0420938A042DECAF
:103FB00030E030939704209396042CEC30E030935B
:103FC00099042093980428EC30E030939B042093CC
:103FD0009A0429EC30E030939D0420939C042AEC51
:103FE00030E030939F0420939E042EEC30E0309319
:103FF000A1042093A0041092A3041092A404109290
:10400000A5041092A60410922A0510922905809307
:104010002B0590932C05A0932D05B0932E052BE82E
:1040200031E0309328052093270510926405109203
:1040300081051092800510927F054FEF5FEFBA0166
:1040400040938205509383056093840570938505A2
:1040500010928A0710928B0710928C071092AB0770
:104060001092AA071092AD071092AC0720E520939A
:10407000AE071092AF071092B0071092B1072AE274
:104080002093B2071092B3071092B4071092B507AD
:104090001092B607109236051092350580933705B9
:1040A00090933805A0933905B0933A0510923F05D7
:1040B00010924005109241058DE991E090933405EE
:1040C000809333058091DB078C3098F491E0980F52
:1040D0009093DB078093DC0790E0FC01EE0FFF1F5D
:1040E000E80FF91FE954F84F88EB9BE09283818336
:1040F00008958FEF8093DC070895CF93DF93CDB7BA
:10410000DEB7E6970FB6F894DEBF0FBECDBF78944A
:1041100084B5826084BD84B5816084BD85B58260CC
:1041200085BD85B5816085BD80916E00816080937D
:104130006E001092810080918100826080938100E6
:1041400080918100816080938100809180008160F6
:104150008093800080919100826080939100809193
:1041600091008160809391008091900081608093A4
:1041700090008091C10084608093C1008091C10053
:1041800082608093C1008091C10081608093C100F2
:104190008091C30081608093C3008091C0008260E1
:1041A0008093C0008091C20081608093C2008091A2
:1041B0007A00846080937A0080917A008260809394
:1041C0007A0080917A00816080937A0080917A00F1
:1041D000806880937A001092E9031092D9031092BC
:1041E000DB038091D70081608093D70080EA8093C1
:1041F000D80089B5806189BD89B5826089BD09B45F
:1042000000FEFDCF61E070E080E090E00E948D0450
:104210008091D8008F7C80618093D8008091E000ED
:10422000807F8093E0008091E1008E7E8093E100AA
:104230008DE08093E200559A209A85E00E947602F4
:1042400060E085E00E94F70310924303109242035E
:1042500010924503109246031092470310924803B0
:104260001092440380E00E9490191092350210923F
:10427000340210921704109239040E94830C80E5D6
:1042800095E0909333028093320281E595E090931C
:104290003102809330028CE08093B8001092360295
:1042A00088EB9BE0A0E0B0E08093120490931304AD
:1042B000A0931404B093150481E08093110410922C
:1042C00058021092590210925A0210925B021092F8
:1042D0005C0210925D0210925E0210925F021092D8
:1042E00060021092610210926202109263021092B8
:1042F0006402109265021092660210926702109298
:1043000068021092690210926A0210926B02109277
:104310006C02198240E06FE788E60E94460F21E0B8
:10432000AE014F5F5F4F1A0160E088E60E946B129A
:10433000182F882309F461C089818A3E09F07DC164
:1043400040E866E088E60E94460F64E670E080E0A0
:1043500090E00E948D0440E06FE788E60E94460FDF
:1043600041E066E088E60E94460F6EE170E080E082
:1043700090E00E948D0440E067E088E60E94460FCE
:104380006EE170E080E090E00E948D0440E26FE713
:1043900088E60E94460F80E090E0A0E0B5E48093BC
:1043A000040190930501A0930601B093070147E033
:1043B00064E188E60E94460F83E393E3A3E8B1E457
:1043C0008093000190930101A0930201B093030137
:1043D00047E061E088E60E94460F40E060E088E642
:1043E0000E94460F6EE170E080E090E00E948D0434
:1043F00040E06FE788E60E94460F19A221E0AE0177
:104400004F5D5F4F60ED87E70E946B12811117C10E
:10441000111104C084E090E00E94411A82E090E013
:104420000E94411A81E090E00E94411A10E064EF7E
:1044300071E080E090E00E948D041092960210924C
:10444000890210928A0210928B0210928C021092B2
:104450008D0284E10E947C0E6CE271E080E090E0CD
:104460000E948D04E091DC078E2F90E0FC01EE0F9E
:10447000FF1FE80FF91FE954F84F80818F7B80837D
:1044800010924A0384E00E9476021092B0071092C4
:10449000B3071092B4071092B5071092B6071092A6
:1044A000B20784E08093B1070E94760261E08091B8
:1044B000B1070E94F70382E58093AE071092AF0721
:1044C0000FB7F89480915302811124C0E9E6F4E01B
:1044D0008491E8E8F4E09491E82FF0E0EE0FFF1FFC
:1044E000E65BFB4FA591B491EC91E92321F461E0E7
:1044F00081E10E94F70381E10E9476028CB5806120
:104500008CBD8CB580648CBD8FE00E94760280E10A
:104510000E947602809153028F5F809353020FBFF7
:1045200081E08093B0078091B307811104C08CEAC9
:1045300097E00E94740661E08091B1070E94F70342
:104540000AE00E9482060150E1F760E08091B10725
:104550000E94F7030E9444056053784F7A83698371
:1045600020E030E0A90160E08CEA97E00E94B90603
:10457000F82E51E0851709F4E6C0C1010E945D06DE
:10458000882371F381E08093B2078CEA97E00E9460
:10459000A7068CEA97E09093AB078093AA078091D7
:1045A000B20781114FC161E08CEA97E00E947A085E
:1045B000882309F42EC18AE897E00E94A00A10928D
:1045C0008A0710928C076FE575E08AE897E00E94F1
:1045D000F815882309F41DC18FE595E090935502E5
:1045E00080935402CC24C394D12C5E016DE2A60EBC
:1045F000B11C00E34EEA51E0BE01625D7F4FCE0187
:1046000081960E94480E7C014AE0B101C6010E94D9
:104610005B2FF10101900020E9F73197E219E430B6
:1046200008F012C1EA14FB0430F4D7010C9397018F
:104630002F5F3F4F7901EF5FF2CF10E0DECE89A10F
:10464000883509F0E5CE46EB60EE87E70E94460F1D
:104650006AE070E080E090E00E948D0428E1A10112
:1046600068E887E70E946B12882309F4D1CE29817C
:104670003A8130933802209337028B819C8190934A
:104680003A02809339028D819E8190933C028093FF
:104690003B028F81988590933E0280933D0249852D
:1046A0005A855093400240933F024B855C8550935E
:1046B0004202409341024D855E85509344024093EF
:1046C00043024F85588950934602409345024989D9
:1046D0005A8950934802409347024B895C89509312
:1046E0004A02409349024D895E8950934C0240939F
:1046F0004B024F89588D50934E0240934D021092B9
:104700004F02109250021092510210925202232B2B
:1047100009F47ECE892B09F47BCE48E065EF87E76C
:104720000E94460F4FE264EF87E70E94460F62E364
:1047300070E080E090E00E948D0411110C94F82E3E
:1047400084E090E06DCE2AEA31E040E050E068E09D
:104750008CEA97E00E94B90682FD10C004E00E9436
:1047600082068093B5070150D1F78A3A19F1C10149
:104770000E945D06882339F386E005CF01E0812C95
:10478000912C540120E030E0A90167E38CEA97E026
:104790000E94B906A501940169E28CEA97E00E94A3
:1047A000B906882371F0C1010E945D06882351F388
:1047B00087E1E9CE02E0812C912CA12C30E4B32ECC
:1047C000E1CF0230C9F420E030E0A9016AE38CEACD
:1047D00097E00E94B906882311F082E1D4CE0E94AE
:1047E0008206807C803C09F403E00E9482060E94DD
:1047F00082060E948206F02E8CEA97E00E94A706AD
:1048000080E58093AE0781E08093AF07F092B60712
:10481000C0CE60E08091AA079091AB070E947A0811
:10482000882381F08AE897E00E94A00A10928A0704
:1048300010928C076FE575E08AE897E00E94F81502
:104840008111CACE83E04BC0A101BE01625D7F4FE2
:10485000C7010E94480E42EB51E0BE01625D7F4FEE
:104860000E94480EDC011C9219821A821B8220E0F1
:10487000AE014F5D5F4F6AE877E0C1010E94B71754
:104880008111EDC660915402709155026115710558
:1048900009F4E5C6655D7D4F21E5AE014F5D5F4FD3
:1048A0008FE395E00E94B717882309F4D8C64FE537
:1048B00050E063E273E08DE992E00E941B2F1092BA
:1048C000FC026DE972E083E395E00E9457128FE3EA
:1048D00095E00E94A00A81E080934A0382E00E9452
:1048E0009019E0919A04F0919B0482E08083E0911A
:1048F0009604F09197041082E0919804F091990445
:104900008FEC80831092A204E0919E04F0919F04AA
:1049100086E08083E0919C04F0919D048081806119
:104920008083E0919C04F0919D0480818860808365
:10493000E0919C04F0919D04808180688083E091E7
:104940009C04F0919D0480818F7D808381E0809321
:1049500041031092FE021092FD0210924003109249
:104960003F03109257021092560284E00E94901961
:10497000112309F4F5C0809042038EAA82FCA3C0E3
:1049800000E410E0C12CD12C76014601570126012C
:104990003701B101CE0181960E946A13882389F103
:1049A00069817A81072E000C880B990B0E943C3399
:1049B0009B01AC01C301B2010E9457322B013C01A3
:1049C0006B817C81072E000C880B990B0E943C3375
:1049D0009B01AC01C501B4010E9457324B015C013F
:1049E0006D817E81072E000C880B990B0E943C3351
:1049F0009B01AC01C701B6010E9457326B017C01DB
:104A00001F5F65E070E080E090E00E948D0401503F
:104A100009F0BFCF112309F456C020910001309155
:104A2000010140910201509103012AAB3BAB4CAB19
:104A30005DAB612F70E090E080E00E943C336EA798
:104A40007FA788AB99AB9B01AC01C301B2010E9467
:104A5000C8322AA93BA94CA95DA90E94C83260931B
:104A600060027093610280936202909363022EA5AC
:104A70003FA548A959A9C501B4010E94C8322AA975
:104A80003BA94CA95DA90E94C83260935C02709357
:104A90005D0280935E0290935F022EA53FA548A918
:104AA00059A9C701B6010E94C8322AA93BA94CA93D
:104AB0005DA90E94C8326093580270935902809396
:104AC0005A0290935B028EA881FC4AC008E210E073
:104AD00080E3C82E85E7D82EE12CF12C90EC492EEE
:104AE00094ED592E66246394712C812C912C5401E1
:104AF000B101CE0181960E94BD13882311F189A1D5
:104B00009AA1ABA1BCA1AC01BD01405355476109BD
:104B1000710941395F456140710598F4880E991E0D
:104B2000AA1EBB1E84159505A605B70514F42C0115
:104B30003D01C816D906EA06FB0614F46C017D0196
:104B40001F5F64E170E080E090E00E948D040150FE
:104B500079F6143108F092C582E090E00E94411A83
:104B600010924903109297021092980210929902A3
:104B700010929A0210929202109293021092940252
:104B8000109295021092790210927A0210927B0292
:104B900010927C02109275021092760210927702A7
:104BA00010927802109271021092720210927302A7
:104BB0001092740210926D0210926E0210926F02A7
:104BC000109270021092810210928202109283025F
:104BD000109284021092850210928602109287022F
:104BE0001092880210927D0210927E0210927F0233
:104BF000109280028091420390914303877099271D
:104C000010929C0210929B02892B09F461C588E0E6
:104C10000E941F1A0E9444056093910370939203AF
:104C200080939303909394036093950370939603FA
:104C300080939703909398036093C7037093C8037E
:104C40008093C9039093CA0360934C0370934D0300
:104C500080934E0390934F036093890370938A036C
:104C600080938B0390938C0360938D0370938E03DA
:104C700080938F03909390030E9444052B013C0185
:104C80008091C7039091C803A091C903B091CA0352
:104C9000B301A201481B590B6A0B7B0BDB01CA0154
:104CA0004497A105B105A8F04092C7035092C803EC
:104CB0006092C9037092CA03B101CE0181960E942D
:104CC0006A1381110EC51092C50384E090E00E9422
:104CD000411A8091950390919603A0919703B0910A
:104CE000980353014201881A990AAA0ABB0AD501FE
:104CF000C4018897A105B105A8F040929503509290
:104D000096036092970370929803B101CE01819649
:104D10000E94BD138111C9C51092C60382E090E0C4
:104D20000E94411A8091910390919203A091930364
:104D3000B091940353014201881A990AAA0ABB0A46
:104D4000D501C4014497A105B10508F491C0409272
:104D50009103509292036092930370929403109186
:104D6000C60300914903112309F43FC080918502D5
:104D700090918602A0918702B0918802C090A10311
:104D8000D090A203E090A303F090A4030097A105A4
:104D9000B10509F03EC6C0928102D0928202E09233
:104DA0008302F092840240928502509286026092C1
:104DB000870270928802A701960160919202709119
:104DC000930280919402909195020E94C33287FFD2
:104DD0000CC08EEF800F823040F4C0929202D092CD
:104DE0009302E0929402F0929502033009F442C7D4
:104DF00008F047C6013009F480C6023009F4F8C64D
:104E0000C0909702D0909802E0909902F0909A0298
:104E1000C114D104E104F10459F1B301A2014C1908
:104E20005D096E097F096A017B01809196028230DB
:104E300069F058EBC5165BE0D506E104F10430F0EB
:104E400081E00E94051A85E00E941F1A80914903A3
:104E5000873071F060E6C6166AEED606E104F1040A
:104E600038F080E890E00E94411A87E00E941F1A03
:104E700080918E0290918F02A0919002B091910248
:104E80000097A105B10519F153014201881A990A49
:104E9000AA0ABB0AD501C401803B9440A105B10513
:104EA000B0F0E091DC078E2F90E0FC01EE0FFF1FC9
:104EB000E80FF91FE954F84F80818F7B80831092AF
:104EC0008E0210928F021092900210929102209105
:104ED0009602223051F580918D02811126C0809179
:104EE000890290918A02A0918B02B0918C02B30149
:104EF000A201481B590B6A0B7B0BDB01CA01803BEB
:104F00009440A105B10588F0E091DC078E2F90E078
:104F1000FC01EE0FFF1FE80FF91FE954F84F8081E5
:104F20008F7B808361E060938D0280918D039091EF
:104F30008E03A0918F03B0919003B301A201481B8F
:104F4000590B6A0B7B0B8091890390918A03A09186
:104F50008B03B0918C0373016201C81AD90AEA0A63
:104F6000FB0A483251056105710538F488ECC81612
:104F7000D104E104F10408F4E4C2409250035092D9
:104F80005103609252037092530380919702909163
:104F90009802A0919902B0919A020097A105B105DB
:104FA00041F053014201881A990AAA0ABB0AD501A5
:104FB000C4018093540390935503A0935603B09378
:104FC000570380919B0290919C02019690939C02C2
:104FD00080939B02909359038093580380914903D7
:104FE00080935A0320935B038091990390919A03D5
:104FF000A0919B03B0919C0380935C0390935D030D
:10500000A0935E03B0935F0380919D0390919E03F4
:10501000A0919F03B091A0038093600390936103DC
:10502000A0936203B09363038091A1039091A203C4
:10503000A091A303B091A4038093640390936503AC
:10504000A0936603B09367038091920290919302BC
:10505000A0919402B09195028093680390936903A4
:10506000A0936A03B0936B038091A5039091A6036C
:10507000A091A703B091A80380936C0390936D0354
:10508000A0936E03B0936F038091A9039091AA033C
:10509000A091AB03B091AC03809370039093710324
:1050A000A0937203B09373038091AD039091AE030C
:1050B000A091AF03B091B0038093740390937503F4
:1050C000A0937603B09377038091B5039091B603D4
:1050D000A091B703B091B8038093780390937903BC
:1050E000A0937A03B0937B038091B9039091BA03A4
:1050F000A091BB03B091BC0380937C0390937D038C
:10510000A0937E03B0937F038091BD039091BE0373
:10511000A091BF03B091C00380938003909381035B
:10512000A0938203B0938303E0914A03E093840346
:1051300080914103809385038091420390914303C2
:105140009C0126703327232B09F42BC622E02093E1
:105150008603909388038093870348325105610545
:10516000710508F425C140928D0350928E03609220
:105170008F0370929003E13009F01AC1A3019201EC
:105180006DEF72E08DE992E00E940119ECE2DC0122
:10519000EC93209154033091550340915603509164
:1051A00057036DEF72E001960E940119ECE2DC01F9
:1051B000EC93209158033091590350E040E06DEF9B
:1051C00072E001960E940119FC0101967CE2872E93
:1051D0008082E0915A0344EA53E0E93038F4F0E089
:1051E000EE0FFF1FEE5CFE4F408151816DEF72E0CC
:1051F0000E94380EDC01ECE2ED938D0160915C03BE
:1052000070915D0380915E0390915F032AE0A1019C
:105210000E942A2FA1016DEF72E0C8010E94480E82
:10522000ECE2DC01EC93209160033091610340914A
:1052300062035091630301E06DEF72E001960E94FA
:10524000D218ECE2DC01EC93209164033091650309
:10525000409166035091670302E06DEF72E00196A2
:105260000E94D218ECE2DC01EC93209168033091AB
:10527000690340916A0350916B036DEF72E00196F0
:105280000E94D218ECE2DC01EC9320916C03309187
:105290006D0340916E0350916F036DEF72E00196C4
:1052A0000E94D218ECE2DC01EC9320917003309163
:1052B000710340917203509173036DEF72E0019698
:1052C0000E94D218ECE2DC01EC932091740330913F
:1052D000750340917603509177036DEF72E001966C
:1052E0000E94D218ECE2DC01EC932091780330911B
:1052F000790340917A0350917B0301E06DEF72E0F6
:1053000001960E94D218ECE2DC01EC9320917C0320
:1053100030917D0340917E0350917F036DEF72E0E9
:1053200001960E94D218ECE2DC01EC9320918003FC
:105330003091810340918203509183036DEF72E0BD
:1053400001960E94D218FC0101965CE2852E8082B3
:10535000E0915B0346EA53E0E43038F4F0E0EE0F0E
:10536000FF1FEC5BFE4F408151816DEF72E00E94A8
:10537000380EECE2DC01EC93209187033091880336
:1053800050E040E06DEF72E001960E940119DC01EF
:105390001C926DE972E083E395E00E945712892B1D
:1053A00039F480E190E00E94411A82E080934A0340
:1053B000B8ECCB16D104E104F10408F4C2C080912A
:1053C00041034092890350928A0360928B0370924A
:1053D0008C03813009F0BBC00E946C1920913F03FF
:1053E000309140032F5F3F4F3093400320933F03A2
:1053F00050E040E06FE373E08FEF92E00E9401190C
:10540000E3E08E339E0720F4ECE7DC01EC93019699
:105410002091500330915103409152035091530316
:105420006FE373E00E940119F3E08E339F0720F4CD
:10543000ECE7DC01EC930196E0915A0344EA53E077
:10544000E93038F4F0E0EE0FFF1FEE5CFE4F4081D4
:1054500051816FE373E00E94380EF3E08E339F07B3
:1054600020F4ECE7DC01EC93019620916403309189
:105470006503409166035091670302E06FE373E0B8
:105480000E94D2188C01F3E08E339F0728F4ECE7DA
:10549000DC01EC930F5F1F4F60915C0370915D0323
:1054A00080915E0390915F032AE0A1010E942A2F60
:1054B000A1016FE373E0C8010E94480EF3E08E3350
:1054C0009F0720F4ECE7DC01EC930196E0915B038D
:1054D00046EA53E0E43038F4F0E0EE0FFF1FEC5BF7
:1054E000FE4F408151816FE373E00E94380EF3E07C
:1054F0008E339F0720F4ECE7DC01EC9301962091BA
:1055000087033091880350E040E06FE373E00E942E
:1055100001198C01DC011C928AE894E00E947F054D
:105520000F5F12400E5F0817190609F00CF43EC415
:105530008091FD029091FE0201969093FE0280936D
:10554000FD0280914103813011F40E946C19109189
:105550004903809142039091430387709927892BD7
:1055600009F02BC48AEF90E0183040F4E12FF0E00E
:10557000EE0FFF1FE45BFE4F808191814091450358
:1055800050914603609147037091480353014201D3
:10559000841A950AA60AB70AB501A401B0E0A0E0F2
:1055A000481759076A077B0790F0409245035092CD
:1055B0004603609247037092480360914403992424
:1055C000939469256093440385E00E94F7038091DA
:1055D0004C0390914D03A0914E03B0914F03630192
:1055E0005201A81AB90ACA0ADB0AD601C501883CC9
:1055F0009105A105B10540F040924C0350924D0336
:1056000060924E0370924F031730D1F480914B0398
:10561000811116C080914A03813071F48FE395E0C7
:105620000E94A00A8FE395E00E94A00A10923F0515
:105630001092410510924A03BB24B394B0924B03DD
:1056400080E0C82E80E0D82ECD2809F415CB0E942A
:10565000BC05882309F410CB0E9400000DCBBFEFDE
:10566000CB1ADB0AE0E1CE16E7E2DE0611F00C947D
:10567000FA2288E090E00E94411AE4C8212F30E02D
:1056800050E040E0C501B4010E94BC3120936402A7
:10569000309365024093660250936702C418D508A0
:1056A000E608F70839E7C316D104E104F10424F051
:1056B00080E091E00E94411A109268021092690203
:1056C00010926A0210926B0281E080936C0248CAC9
:1056D00080919602811103C081E08093960281E05F
:1056E00097CAC0900401D0900501E0900601F090A7
:1056F00007018090000190900101A0900201B090FC
:10570000030169A17AA1072E000C880B990B0E9456
:105710003C33A70196010E94C8326EA77FA788ABD1
:1057200099AB6093A5037093A6038093A70390930E
:10573000A8036BA17CA1072E000C880B990B0E947B
:105740003C33A70196010E94C8326AAB7BAB8CAB9D
:105750009DAB6093A9037093AA038093AB039093CE
:10576000AC036DA17EA1072E000C880B990B0E9443
:105770003C33A70196010E94C8326B017C01C092A4
:10578000AD03D092AE03E092AF03F092B003698113
:105790007A81072E000C880B990B0E943C33A501DF
:1057A00094010E94C83220916002309161024091C0
:1057B0006202509163020E9456326093B503709367
:1057C000B6038093B7039093B8036B817C81072E57
:1057D000000C880B990B0E943C33A50194010E9498
:1057E000C83220915C0230915D0240915E0250917E
:1057F0005F020E9456326093B9037093BA0380939C
:10580000BB039093BC036D817E81072E000C880B37
:10581000990B0E943C33A50194010E94C83220914B
:1058200058023091590240915A0250915B020E94F5
:1058300056326093BD037093BE038093BF03909371
:10584000C0032EA53FA548A959A9CA01B9010E94C4
:10585000F1334B015C012AA93BA94CA95DA9CA01FE
:10586000B9010E94F1339B01AC01C501B4010E9452
:1058700057324B015C01A7019601C701B6010E9496
:10588000F1339B01AC01C501B4010E9457320E9463
:10589000B4346093B1037093B2038093B3039093D5
:1058A000B40351E05093C50314CA69A17AA18BA136
:1058B0009CA18B019C010053154721093109013935
:1058C0001F452140310518F01092C6032BCA609382
:1058D000990370939A0380939B0390939C0309818F
:1058E0001A812B813C8100939D0310939E0320938A
:1058F0009F033093A003C0906402D0906502E090B3
:105900006602F09067021C141D041E041F040CF0B4
:105910005BC00E943C334B015C01C701B6010E9491
:105920003C339B01AC01C501B4010E94C8322BEA93
:105930003CED42E45EE30E945E349B01AC0160E01A
:1059400070E080E89FE30E94563220E03AE24DE2A8
:1059500057E40E94F1336B017C0120E030E04AEF14
:1059600053E4C701B6019F770E94EC3318160CF47C
:10597000ABCF80916C0281112BC0C0926802D09293
:105980006902E0926A02F0926B0251E050936C025D
:105990008091680290916902A0916A02B0916B02B5
:1059A0008093A1039093A203A093A303B093A403B5
:1059B0004092C1035092C2036092C3037092C40329
:1059C00061E06093C603AEC9C12CD12C7601C5CF6E
:1059D0008090680290906902A0906A02B0906B0279
:1059E000A5019401C701B6010E94563223E333E3B7
:1059F00043EB5EE30E94F133A50194010E9457320C
:105A0000609368027093690280936A0290936B02BC
:105A1000BFCF53014201881A990AAA0ABB0A22E39E
:105A200082169104A104B10408F4C5C92091810231
:105A3000309182024091830250918402C701B601E5
:105A40000E94563220E030E04AE754E40E94F133ED
:105A50006EA77FA788AB99ABC501B4010E943A330A
:105A60009B01AC016EA57FA588A999A90E94C832A7
:105A700060937D0270937E0280937F0290938002F8
:105A80008AC9073008F0BCC9112399F060917D02E2
:105A900070917E0280917F02909180029F7720E03A
:105AA00030E040E05FE30E94C332182F111F11273E
:105AB000111F8091C5038823B9F020E030E040E851
:105AC0005FE36091B1037091B2038091B303909151
:105AD000B4030E9456329F7720E030E040E85EE356
