:100000000C94DB010C9403020C9403020C94030285
:100010000C9403020C9403020C9403020C9403024C
:100020000C9403020C9403020C941C190C948B196D
:100030000C9403020C9403020C9403020C9403022C
:100040000C9403020C94071C0C9403020C940302FE
:100050000C9403020C9403020C9403020C94BD1B39
:100060000C9403020C9403020C9403020C940302FC
:100070000C9403020C9403020C9403020C940302EC
:100080000C9403020C9403020C9403020C940302DC
:100090000C94C31C0C9403020C9403020C940302F2
:1000A0000C9403020C9403020C940302076342367F
:1000B000B79BD8A71A39685618AEBAAB558C1D3CF9
:1000C000B7CC5763BD6DEDFD753EF6177231BF00BD
:1000D0000000803F08000000BE922449123EABAAF7
:1000E000AA2ABECDCCCC4C3E00000080BEABAAAA52
:1000F000AA3E00000000BF000000803F000000009A
:1001000000084178D3BB4387D1133D190E3CC3BDD2
:100110004282AD2B3E68EC8276BED98FE1A93E4C7F
:1001200080EFFFBE01C4FF7F3F0000000000475288
:100130004F554E445F5A45524F004241434B555034
:100140005F4445504C4F5900435249544943414C38
:100150005F4552524F52004C414E44454400444585
:100160005343454E54005245434F564552595F4400
:1001700045504C4F590041504F4745455F434F4E06
:100180004649524D454400424F4F53545F454E44FB
:10019000004C41554E43485F444554454354454403
:1001A00000524541445900524144494F5F4641493C
:1001B0004C00524144494F5F4F4B0053445F46410E
:1001C000494C0053445F4F4B0053454E534F5253DD
:1001D0005F4F4B00504F5745525F4F4E00455252B4
:1001E0004F52004C414E444544005245434F564502
:1001F00052590044455343454E540041504F4745E2
:100200004500434F41535400424F4F535400524511
:1002100041445900494E4954004552524F520044FE
:1002200045504C4F5945440041524D4544005341BF
:100230004645003F0074696D655F6D732C666C699F
:100240006768745F74696D655F6D732C7061636B53
:1002500065745F69642C73746174652C7072657366
:10026000737572655F70612C74656D705F632C616E
:100270006C7469747564655F6D2C6D61785F616C19
:100280007469747564655F6D2C61782C61792C617B
:100290007A2C67782C67792C677A2C7265636F7675
:1002A0006572795F73746174652C6572726F725FC9
:1002B000666C616773003F003F000706050401009C
:1002C000080A0B0C0D0900000000240027002A007A
:1002D0002D00300000000000250028002B002E001B
:1002E00031000404040404030405020202020403AE
:1002F00002020202060606060606040402020204C0
:100300000404080201104080401020408040800812
:100310000204018040201002011080102040402083
:100320000000000200090F0000030401000C00009F
:1003300000000000000000000000000000000008B5
:100340000B0002020200000904000001020200008A
:1003500005240010010524010101042402060524DE
:100360000600010705810310004009040100020A8C
:10037000000000070502024000000705830240005C
:10038000000403090412010002EF02014041233678
:100390008000010102030141726475696E6F204C97
:1003A0004C430041726475696E6F204C656F6E61DD
:1003B00072646F00E21D11241FBECFEFDAE0DEBFD2
:1003C000CDBF11E0A0E0B1E0EEE8F5E602C0059097
:1003D0000D92AC3AB107D9F726E0ACEAB1E001C022
:1003E0001D92AC3FB207E1F711E0CBEDD1E004C0C4
:1003F0002197FE010E94A932CA3DD107C9F70E9488
:10040000781E0C94C5320C940000FC0180914303CB
:10041000882311F13FB7F89482E08093E90020919E
:10042000F200822F90E01816190614F481E090E093
:10043000882339F0289844E6409342034091F10024
:100440004083222339F02091F200211103C02BE6D2
:100450002093E8003FBF08958FEF9FEF08952FB7D7
:10046000F89483E08093E9009091E800892F8072EE
:1004700095FF04C09091F20080E4891B2FBF08957E
:1004800080913A0381110DC082E08093360384E0AD
:1004900080933703109239031092380381E08093E0
:1004A0003A0386E393E00895CF93DF931F92CDB78D
:1004B000DEB76983DC01ED91FC910280F381E02DD0
:1004C00041E050E0BE016F5F7F4F09950F90DF91D3
:1004D000CF91089583E08093E9008091F200882312
:1004E00019F08AE38093E80008950E942F0290E0BB
:1004F0000895CF93DF931F92CDB7DEB7FC018485BB
:10050000958597FD08C02FEF3FEF358724870F9023
:10051000DF91CF910895CE0101960E9405020197C7
:1005200019F4898190E0F3CF8FEF9FEFF0CF0F9315
:100530001F93CF93DF931F92CDB7DEB78C01FC01E1
:100540008485958597FF0BC0CE0101960E94050218
:10055000019771F4898190E0F80195878487F8010B
:10056000848595850F90DF91CF911F910F9108950C
:100570008FEF9FEFF1CFFC018485958597FD0BC030
:100580009FB7F89482E08093E9008091F2009FBFCA
:1005900090E0019608959FB7F89482E08093E90077
:1005A0008091F2009FBF90E00895409130035091F8
:1005B000310320912E0330912F0342175307B4F4D7
:1005C0009091E8009570E1F39091E80092FD19C0D8
:1005D0008093F100809130039091310301968F73E5
:1005E0009927892B19F48EEF8093E80080913003CE
:1005F000909131030196909331038093300381E011
:10060000089580E00895EF92FF920F931F93CF9388
:10061000DF93F82E192FE62E042F81E0860F880F26
:100620000E94D50283E00E94D502CF2DD12FEC0E7F
:10063000FD2EF11CCE15DF05B9F007FF13C0FE013A
:1006400084910E94D502182F80E00E94D502812358
:1006500021968111EFCFDF91CF911F910F91FF90E4
:10066000EF9008958881EDCF81E0F5CFDF92EF9292
:10067000FF920F931F93CF93DF93D82E8A01EB0144
:100680007B01E40EF51ECE15DF0559F0D7FE12C032
:10069000FE0184910E94D50221968111F4CF0FEFC3
:1006A0001FEFC801DF91CF911F910F91FF90EF9045
:1006B000DF9008958881EECF0F931F93CF93DF9340
:1006C0001F92CDB7DEB782E0898342E450E06FE34A
:1006D00073E080E80E9436030E944002DC0112961B
:1006E0000D911C910115110589F0D801ED91FC9136
:1006F0000280F381E02DBE016F5F7F4FC801099535
:1007000097FD04C0F80100851185ECCF89810F9019
:10071000DF91CF911F910F910895615030F020919A
:10072000F100FC0120830196F8CF289884E680939D
:1007300042030895282F30E0F901E05EFC4F9491C8
:10074000F901EF5FFC4F84912E513D4FF901249147
:10075000222309F430C09923E9F091509F30D0F45E
:10076000E92FF0E0EA54FC4F0C94A932E403E803CB
:10077000C503DC03E003CA03CA03CA03EB03F103A6
:10078000F503F903FF03CA030304909180009F77E8
:1007900090938000E22FF0E0EE0FFF1FEC52FD4F30
:1007A000A591B4919FB7F894EC91611132C08095F6
:1007B0008E238C939FBF0895909180009F7DE8CFFA
:1007C00090918000977FE4CF94B59F7794BDE2CF5E
:1007D00094B59F7DFBCF909190009F779093900070
:1007E000D9CF909190009F7DF9CF90919000977F05
:1007F000F5CF9091C0009F779093C000CBCF9091A0
:10080000C0009F7DF9CF9091C200977F9093C20066
:10081000C1CF8E2BCECFCF93DF9390E0FC01EF5F63
:10082000FC4F24918E519D4FFC0184918823D1F07F
:1008300090E0880F991FFC01EA53FD4FA591B491F8
:10084000FC01EC52FD4FC591D49161110EC09FB7D0
:10085000F8948C91E22FE0958E238C932881E223EB
:10086000E8839FBFDF91CF9108958FB7F894EC9103
:10087000E22BEC938FBFF6CF3FB7F89480912A0319
:1008800090912B03A0912C03B0912D0326B5A89B2A
:1008900005C02F3F19F00196A11DB11D3FBFBA2F12
:1008A000A92F982F8827BC01CD01620F711D811DD2
:1008B000911D42E0660F771F881F991F4A95D1F757
:1008C00008958F929F92AF92BF92CF92DF92EF9254
:1008D000FF924B015C010E943C046B017C010E9471
:1008E0003C046C197D098E099F09683E734081059F
:1008F0009105A8F321E0821A9108A108B10888EEB9
:10090000C80E83E0D81EE11CF11C81149104A104DF
:10091000B10429F7FF90EF90DF90CF90BF90AF9098
:100920009F908F9008958F929F92AF92BF92CF9297
:10093000DF92EF92FF920F931F93CF93DF936C019F
:100940007B018A0180911301882309F45CC08091A6
:100950004303882309F457C08091350380FF05C005
:100960008091E00082608093E000E801B12C8AEF82
:10097000A82E93E0892E2AE3922E209711F4BB2013
:10098000D9F10E942F0281110AC0AA94AA20D9F19C
:1009900061E070E080E090E00E946104EECF8C178F
:1009A0001D0611F00CF08C2F9FB7F8948092E9008F
:1009B0002091E80025FD02C09FBFDFCF282F30E047
:1009C000C21BD30BF701815020F041914093F100FD
:1009D000FACFE20EF31EBB2021F09092E800B12C7A
:1009E000EBCF8091E80085FDE7CF9092E800BB2433
:1009F000B394209709F3F3CF5D9884E68093340392
:100A0000101611063CF081E090E0F601938382839A
:100A100010E000E0C801DF91CF911F910F91FF908E
:100A2000EF90DF90CF90BF90AF909F908F90089500
:100A30002FB7F894609126037091270380912803C3
:100A4000909129032FBF0895089508950895CF9395
:100A5000DF93FC01C081D1810E941805C61BD70B12
:100A60008D2F881F8827881FDF91CF9108958EBD15
:100A700000000DB407FEFDCF8EB50895FC019281F4
:100A800083819CBD8DBD81E0878360E085810E946C
:100A90009A038FEF0C9437058FEF0C9437050F9363
:100AA0001F93CF93DF9300D0CDB7DEB78C010E94A8
:100AB0001805600F711F7A8369830E944C058F3F70
:100AC00071F0CE0101960E9427058823B1F380E0E2
:100AD0000F900F90DF91CF911F910F91089581E0BA
:100AE000F7CFCF93DF93FC012781222349F0EC015C
:100AF00061E085810E949A038FEF0E9437051F8273
:100B0000DF91CF910895DF92EF92FF920F931F93A1
:100B1000CF93DF93EC01162F022FF32EE42ED52E68
:100B20000E945B068823C1F18F81811103C0CE0131
:100B30000E943E05111128C0812F80640E94370554
:100B40008D2D0E9437058E2D0E9437058F2D0E9416
:100B50003705802F0E94370587E8111101C085E90C
:100B60000E9437050E944C051AE00E944C058987B7
:100B700087FF02C01150C9F7DF91CF911F910F91EC
:100B8000FF90EF90DF9008951C30B1F28CE291E07D
:100B90000E944F058111D0CF8FEFEECF0F931F939F
:100BA000CF93DF93EC0189018A85833039F089E0A6
:100BB000440F551F661F771F8A95D1F79A01AB0125
:100BC00068E1CE010E948305882339F08DE08E8391
:100BD000CE010E94710580E025C08EEF0E9437058E
:100BE000F80181918EBD1E5FE017F10741F0819100
:100BF000000000000DB407FEFDCF8EBDF5CF0DB493
:100C000007FEFDCF8FEF0E9437058FEF0E9437055B
:100C10000E944C0589878F71853049F4CE010E946E
:100C2000710581E0DF91CF911F910F91089581E2CD
:100C30008E83CE010E947105CBCFEF92FF921F935E
:100C4000CF93DF93FC01208111E020FF12C0EC0163
:100C50007C01FBE0EF0EF11C4B815C816D817E819C
:100C6000970189819A810E94CE05182F811108C0B1
:100C700010E0812FDF91CF911F91FF90EF900895A9
:100C8000888181FD04C088818E7F8883F2CF4B816B
:100C90005C816D817E818F819885A985BA85480F99
:100CA000591F6A1F7B1F970189819A810E94CE0577
:100CB0008111E9CFDDCF1F93CF93DF93EC018885BE
:100CC0008230C9F488E592E00E944F05182F8823EE
:100CD00061F08DEF0E943705CE010E9471051886E4
:100CE000812FDF91CF911F9108958FE18E83CE01E7
:100CF0000E947105F5CF8130A1F4188620E030E024
:100D0000A9016CE0CE010E948305882339F089E0B7
:100D10008E83CE010E94710510E0E2CFCE010E94C9
:100D2000710511E0DDCFEF92FF920F931F93CF93E8
:100D3000DF9300D0CDB7DEB78C017901FC0182854D
:100D4000833039F089E0440F551F661F771F8A955D
:100D5000D1F79A01AB0161E1C8010E9483058823A4
:100D600041F08BE0F8018683C8010E94710580E0A4
:100D70003FC00E941805645D7E4F7A8369830E949C
:100D80004C05F80181878F3F69F4CE0101960E94DE
:100D900027058823A1F38EE1F8018683C8010E940C
:100DA0007105E2CF8E3F11F089E1F6CF8FEF8EBD56
:100DB000F701D701A150BE4F9FEFEA17FB0749F09B
:100DC000000000000DB407FEFDCF8EB59EBD8193DF
:100DD000F4CF0DB407FEFDCF8EB58C93F8011186CC
:100DE0000E944C050E944C05C8010E94710581E0DB
:100DF0000F900F90DF91CF911F910F91FF90EF9087
:100E00000895CF92DF92EF92FF921F93CF93DF93DB
:100E1000DC011196ED91FC91EF2B51F490E080E014
:100E2000DF91CF911F91FF90EF90DF90CF900895C9
:100E3000122F6A017B01EC018B819C81AD81BE8107
:100E40008C159D05AE05BF0561F0CE010E941D0603
:100E5000882321F312FF0CC01882CB82DC82ED8242
:100E6000FE8213702881122B1883CE010B96D8CFE7
:100E70009E01255F3F4FB701A60189819A810E949B
:100E800093068111E9CFCACF8F929F92AF92BF9202
:100E9000CF92DF92EF92FF920F931F93CF93909395
:100EA0007D0480937C041092810401E010E020E036
:100EB00030E00093840410938504209386043093DB
:100EC000870490939E0480939D0410929C048FEF5E
:100ED0009FEFDC0180939F049093A004A093A10452
:100EE000B093A204662309F44BC020E040E050E038
:100EF000BA018CE994E00E940107009769F480E050
:100F0000CF911F910F91FF90EF90DF90CF90BF9006
:100F1000AF909F908F900895FC01E254FE4F248182
:100F2000222369F320812F7751F78A539E4FFC01CA
:100F3000C080D180E280F38020E0B701A6018CE977
:100F400094E00E940107FC01892BC9F2808982305C
:100F5000B1F6838594858115924089F695859093A5
:100F60007E048FEF890F80937F04C0E081E09817A3
:100F700069F0CF5FC93041F488E080938004BFCF2F
:100F8000C12CD12C7601D8CF880FF1CFC09380042B
:100F900086899789B0E0A0E08093880490938904C3
:100FA000A0938A04B0938B04892B8A2B8B2B61F43A
:100FB00084A195A1A6A1B7A18093880490938904E8
:100FC000A0938A04B0938B0486859785A701960128
:100FD000280F391F411D511DDA01C901809390046A
:100FE00090939104A0939204B09393042189328941
:100FF00030938304209382044091880450918904A3
:1010000060918A0470918B044A015B01880C991CE1
:10101000AA1CBB1C880D991DAA1DBB1D809398049A
:1010200090939904A0939A04B0939B0405E0220F37
:10103000331F0A95E1F721503E4F232F3327269582
:10104000820F931FA11DB11D80938C0490938D047A
:10105000A0938E04B0938F0483889488B12CA12C24
:1010600081149104A104B10421F480A091A0A2A054
:10107000B3A0C81AD90AEA0AFB0AC80CD91CEA1C90
:10108000FB1C04C0F694E794D794C794CA95D2F792
:10109000D701C6010196A11DB11D809394049093C0
:1010A0009504A0939604B093970435EFC3163FE0E0
:1010B000D306E104F10420F48CE0809381041FCF77
:1010C00085EFC8168FEFD806E104F10468F480E1DB
:1010D000809381044093A3045093A4046093A504D7
:1010E0007093A60481E00CCF84A595A5A6A5B7A50D
:1010F0008093980490939904A0939A04B0939B04CE
:1011000080E2E6CF8F929F92AF92BF92CF92DF9212
:10111000EF92FF920F931F934230510561057105C5
:1011200060F480E01F910F91FF90EF90DF90CF90DF
:10113000BF90AF909F908F900895FC01C08CD18C90
:10114000E28CF38CC416D506E606F70650F3480188
:1011500059016A018581803229F584899589A6899A
:10116000B78917E076956795579547951A95D1F702
:10117000480F591F6A1F7B1F23E0CF0180960E94F2
:101180000107009771F2CC0CDD1CCC0CDD1CF1E0EA
:10119000DF228C0D9D1DFC0180829182A282B38290
:1011A00081E0C0CF803109F0BCCF44895589668980
:1011B00077894D0D511D611D711D23E0CF01809672
:1011C0000E940107009709F4ACCFCC0CDD1CF1E0C4
:1011D000DF22C80ED91EF60111830083E1CFCF9222
:1011E000DF92EF92FF920F931F93CF93DF934230E2
:1011F00051056105710550F48FEFDF91CF911F917B
:101200000F91FF90EF90DF90CF900895FC01C08C7C
:10121000D18CE28CF38CC416D506E606F70660F393
:1012200089016A01EC018581803299F5848995896B
:10123000A689B789E7E07695679557954795EA952A
:10124000D1F7480F591F6A1F7B1F22E0CE018096FD
:101250000E940107009781F2CC0CDD1CCC0CDD1C38
:10126000F1E0DF228C0D9D1DFC0180819181A28126
:10127000B381488D598D6A8D7B8D481759076A0750
:101280007B0730F1F80180839183A283B38381E0EF
:10129000B4CF803109F0B0CF448955896689778908
:1012A0004D0D511D611D711D22E0CF0180960E94E0
:1012B0000107009709F4A0CFCC0CDD1CF1E0DF2280
:1012C000C80ED91EF60180819181B0E0A0E0D1CF97
:1012D00080E093CF0F931F93CF93DF93FC01208186
:1012E000211106C081E0DF91CF911F910F910895E8
:1012F000EC01828187FF3AC04489558966897789E4
:101300008681978121E080960E940107009729F449
:1013100089818160898380E0E6CFEC81FD81EF7077
:10132000FF2725E0EE0FFF1F2A95E1F7E80FF91FD1
:10133000309771F38081853E59F388818773838765
:10134000888183FF08C0888D998DAA8DBB8D848F7D
:10135000958FA68FB78F8C8D9D8DAE8DBF8D938F02
:10136000828FB58BA48B8A818F778A830E811F81B0
:10137000C80180960E941D06882351F2F8018081E1
:1013800091810E945B06882319F2ACCF4F925F9245
:101390006F927F928F929F92AF92BF92CF92DF9285
:1013A000EF92FF920F931F93CF93DF93EC014A01CB
:1013B0005B014C845D846E847F842881222309F440
:1013C00087C0488959896A897B89481559056A0502
:1013D0007B0581F081149104A104B10469F41C8699
:1013E0001D861E861F86888A998AAA8ABB8A8A8158
:1013F0008F7D8A8381E071C023FF57C0888D998DCE
:10140000AA8DBB8D88159905AA05BB0508F460C097
:10141000EE81FF813481375F7501640181E0C81A74
:10142000D108E108F108032E04C0F694E794D7949C
:10143000C7940A94D2F7DB01CA010197A109B10947
:1014400004C0B695A795979587953A95D2F7C81693
:10145000D906EA06FB0628F0452B462B472B09F058
:1014600052C027FF4BC0848D958DA68DB78D8C877C
:101470009D87AE87BF878E01045F1F4FC114D104C3
:10148000E104F10409F4AFCF4C855D856E857F855D
:1014900098018E819F810E94EF0891E0C91AD108BE
:1014A000E108F108181654F313C026FFB1CFEE81FE
:1014B000FF818681978125E0880F991F2A95E1F7A2
:1014C000B0E0A0E088159905AA05BB0508F08BCF10
:1014D0004C865D866E867F8680E0DF91CF911F917E
:1014E0000F91FF90EF90DF90CF90BF90AF909F90C3
:1014F0008F907F906F905F904F9008958C8D9D8D11
:10150000AE8DBF8DB4CFC81AD90AEA0AFB0AB3CF91
:101510003F924F925F926F927F928F929F92AF9283
:10152000BF92CF92DF92EF92FF920F931F93CF93D0
:10153000DF9300D000D0CDB7DEB74C01FC01828133
:1015400080688283A680B7804484558466847784CB
:10155000F501C084D184E284F384C414D504E60484
:10156000F70410F011E003C07301620110E0FFEF17
:10157000CF1ADF0AEF0AFF0AF501808D918DA28D47
:10158000B38D8C159D05AE05BF0538F4111131C022
:10159000C084D184E284F384E5CF4C145D046E04EE
:1015A0007F0439F19E012F5F3F4FB701A601C501AE
:1015B0000E94EF0887FD1DC08823C9F289819A81A6
:1015C000AB81BC81892B8A2B8B2B89F6112329F0C7
:1015D000F501C086D186E286F3860FEF1FEF2FEF6D
:1015E0003FE0B701A601C5010E948208382E811193
:1015F00018C0312C832D0F900F900F900F90DF911A
:10160000CF911F910F91FF90EF90DF90CF90BF90FF
:10161000AF909F908F907F906F905F904F903F9092
:101620000895411451046104710431F4F401C48635
:10163000D586E686F786DECF97018601B301A20143
:10164000C5010E9482088111F1CFD3CF2091EC0116
:10165000260F3327331F21323105ECF420916A0322
:10166000FC0190E080E0243069F082E00895A091D0
:10167000EC012191AC0144535E4FA40FB52FB11D75
:101680002C930196861798F38091EC01680F609374
:10169000EC0180E0089581E0089510926A0381E0F2
:1016A000809369031092440361E082E00E949A03F0
:1016B00061E083E00E949A03E9EBF0E080818E7F95
:1016C000808380818D7F808388E48093B80085E467
:1016D0008093BC000895CF93DF9391E0909316021E
:1016E0008823B9F0C091B800D091BA008091BC00B5
:1016F0008A7B8093BC0060E082E00E949A0360E0F5
:1017000083E00E949A030E944D0BD093BA00C093CD
:10171000B800DF91CF9108958F929F92AF92BF92C0
:10172000CF92DF92EF92FF920F931F93CF93DF93AD
:10173000D0919303D13208F0D7C0182FC0919203F3
:101740000E943C046B017C0180916A0381116BC093
:1017500082E080936A03109369038FEF809368039C
:1017600010926703D0936603A2E7B3E0E6E4F3E0E8
:1017700080E0D81391C01092450380914503CC0FAF
:10178000C82BC093450380914403813009F088C081
:10179000109244030E943C046B017C01809145033C
:1017A0008093BB0080916C0390916D03A0916E03B8
:1017B000B0916F03892B8A2B8B2BA1F00E943C04E4
:1017C00000916C0310916D0320916E0330916F03B3
:1017D0006C197D098E099F09061717072807390715
:1017E00008F442C08091BC0083FDD8CF85EC809383
:1017F000BC000E943C046B017C0180916A03823032
:1018000009F450C0809168038F3F09F46FC0809144
:101810006803803209F46CC080916803803309F456
:1018200069C084E026C080916C0390916D03A09103
:101830006E03B0916F03892B8A2B8B2B09F484CF15
:101840000E943C0480906C0390906D03A0906E0306
:10185000B0906F036C197D098E099F098616970653
:10186000A806B90608F070CF80916B030E946B0B3D
:1018700085E0109271031092930310927003DF9130
:10188000CF911F910F91FF90EF90DF90CF90BF907D
:10189000AF909F908F9008959D9191938F5F69CFA6
:1018A00085EEA5CF80916C0390916D03A0916E039E
:1018B000B0916F03892B8A2B8B2B09F49ECF0E944A
:1018C0003C0400916C0310916D0320916E033091E4
:1018D0006F036C197D098E099F09061717072807E2
:1018E000390708F08ACFC0CF81E0C3CF80E0C1CFF5
:1018F00082E0BFCF83E0BDCFE0911502809114025A
:10190000E81730F4F0E0E455FE4F808190E0089550
:101910008FEF9FEF089590911502809114022FEFA1
:101920003FEF981748F4E92FF0E0E455FE4F20818F
:1019300030E09F5F90931502C901089580911402D1
:1019400090911502891B990B0895CF92DF92EF9227
:10195000FF920F931F93CF93DF937C01CB018A01FA
:1019600020917003222389F0EB016B01C40ED51E78
:10197000CC15DD0569F06991D701ED91FC910190DD
:10198000F081E02DC7010995F3CF642F0E94260B4B
:10199000C801DF91CF911F910F91FF90EF90DF90E1
:1019A000CF900895CF93DF931F92CDB7DEB76983B1
:1019B000209170032223F9F020919303203258F0F4
:1019C00021E030E0FC013383228390E080E00F903F
:1019D000DF91CF91089580917103E82FF0E0EE58E8
:1019E000FC4F998190838F5F809371038093930361
:1019F00081E090E0ECCF61E0CE0101960E94260BE1
:101A0000F7CF61507109FA012191AF01222339F01A
:101A10008617970720F4FC012193CF01F4CF089596
:101A2000FC01848583FF17C084A195A1A6A1B7A15D
:101A3000448D558D668D778D841B950BA60BB70B4A
:101A4000811520E89207A105B10520F08FEF9FE7EF
:101A5000A0E0B0E0089580E090E0DC01F1CF0C96CA
:101A60000C946A0990E080E008958F929F92AF9263
:101A7000BF92EF92FF920F931F93CF93DF93E82EC5
:101A80008091F906282F30E0F901EE0FFF1FE20FD9
:101A9000F31FEC52F94F908196FD54C08C3008F042
:101AA00051C061E086E00E940B048091F906282F66
:101AB00030E0F901EE0FFF1FE20FF31FEC52F94F78
:101AC0009081907C966090831092FA061092FB06AB
:101AD0002CE0622F0E949D32829FB001112430E0E1
:101AE00020E0AB01420F531FFA01EE0FFF1FE40F7E
:101AF000F51FEC52F94F908196FD16C02F5F3F4FB6
:101B00002C30310571F781110FC01092800082E0F6
:101B1000809381001092850010928400B19A809188
:101B20006F00826080936F00E091F9068E2F90E045
:101B3000FC01EE0FFF1FE80FF91FEC52F94F8081F7
:101B400080648083F090F9068BE08F1508F44DC017
:101B50008091FB0608E512E0081B110987FD13952B
:101B6000000F111F000F111F8091FA06C8E8D0E086
:101B7000C81BD10987FDD395CC0FDD1FCC0FDD1F0E
:101B80004E010D2E000CAA08BB089801012E000C76
:101B9000440B550B281939094A095B09AE2DB0E0F1
:101BA0000E94392E24EB30E040E050E00E941A2ED3
:101BB000820E931EA41EB51E8C169D062CF0E80105
:101BC000801691060CF4E4012297CC0FDD1F2FB78D
:101BD000F8948F2D90E0FC01EE0FFF1FE80FF91F26
:101BE000EC52F94FD283C1832FBFDF91CF911F9168
:101BF0000F91FF90EF90BF90AF909F908F900895BE
:101C0000CF93C42F91E0909370038093920310922E
:101C100071031092930384E494E00E94D20C6C2F21
:101C200084E494E00E94D20C81E00E948C0B91E04D
:101C3000811190E0892FCF9108950F931F93CF9337
:101C4000DF93CDB7DEB72C970FB6F894DEBF0FBE8B
:101C5000CDBF8C01CB01BA012AE0AE014F5F5F4FCF
:101C60000E94CE2DAE014F5F5F4F64EF73E0C8015D
:101C70000E94010D2C960FB6F894DEBF0FBECDBFAB
:101C8000DF91CF911F910F9108958F929F92AF9204
:101C9000BF92DF92EF92FF920F931F93CF93DF9348
:101CA000EC017B018A8180FFB9C0288188889988EE
:101CB000AA88BB8823FF21C0888D998DAA8DBB8DF2
:101CC00088199909AA09BB0982309105A105B105B6
:101CD00018F5009709F530E020E0A901481B590BE1
:101CE000CA01DF91CF911F910F91FF90EF90DF908C
:101CF000BF90AF909F908F90089526FF0DC0EE810A
:101D0000FF818681978135E0880F991F3A95E1F729
:101D10008815990509F488C0EE81FF81840111704E
:101D2000B501A40189E076956795579547958A9501
:101D3000D1F726FF27C0848D958DA68DB78D480FCE
:101D4000591F6A1F7B1F8E819F8120E080960E9411
:101D50000107009709F462C0800F911FFC01808188
:101D6000F701808388899989AA89BB890196A11D79
:101D7000B11D888B998BAA8BBB8B21E030E090E062
:101D800080E0ABCFD380D4220115110581F4D110AE
:101D90000EC089288A288B2881F527FF29C0848DC9
:101DA000958DA68DB78D8C879D87AE87BF87EE8179
:101DB000FF814C855D856E857F85425051096109A3
:101DC0007109848104C0440F551F661F771F8A95CF
:101DD000D2F780899189A289B389840F951FA61FA4
:101DE000B71FAC01BD014D0D511D611D711DABCF64
:101DF0008C8D9D8DAE8DBF8DD6CF4C855D856E85CE
:101E00007F859E01245F3F4FCF010E94EF0887FD31
:101E100005C08111CCCF8881807D49F489818260A1
:101E200089838FEF9FEF5DCF30E020E0A8CF21E0E6
:101E300030E081E090E051CFEF92FF920F931F933B
:101E4000CF93DF931F92CDB7DEB77C01962FF701BA
:101E500040895189628973898A019B0185E03695A1
:101E60002795179507958A95D1F70F7011F0911165
:101E700029C0BE016F5F7F4FC7010E94450E8130B0
:101E800051F090E080E00F90DF91CF911F910F9182
:101E9000FF90EF900895F70180899189A289B38915
:101EA0004F96A11DB11D808B918BA28BB38BF70137
:101EB000868197818B96F0E20F9F90011124820F0B
:101EC000931FE1CF405E5F4F6F4F7F4F408B518B31
:101ED000628B738BECCF8F929F92AF92BF92CF9217
:101EE000DF92EF92FF920F931F93CF93DF931F9296
:101EF000CDB7DEB78C01FC01848C958CA68CB78C99
:101F0000C08CD18CE28CF38CBE016F5F7F4F0C963E
:101F10000E94450E0197C9F4898190E0F801848EF2
:101F2000958EA68EB78EC08ED18EE28EF38E0F90D8
:101F3000DF91CF911F910F91FF90EF90DF90CF90A5
:101F4000BF90AF909F908F9008958FEF9FEFE6CF57
:101F5000CF93DF931F92CDB7DEB7BE016F5F7F4F88
:101F60000C960E94450E019731F4898190E00F9004
:101F7000DF91CF9108958FEF9FEFF9CF2F923F928E
:101F80004F925F926F927F928F929F92AF92BF9289
:101F9000CF92DF92EF92FF920F931F93CF93DF9335
:101FA000EC014B015A018A8181FF8CC083FD81C005
:101FB000A50170E060E088899989AA89BB8980952C
:101FC0009095A095B09584179507A607B70708F4D4
:101FD00079C065011E018CE0280E311C0889198921
:101FE0002A893B89C114D10409F4E5C08E819F81FF
:101FF000B901A80129E076956795579547952A95E7
:10200000D1F7DC011396FC90F4221170F1101BC083
:102010004C855D856E857F850115110509F0EFC042
:10202000411551056105710509F452C091010E94E5
:10203000EF0887FD47C0811106C0CE010E94880AC3
:10204000882309F43FC0EE81FF814C855D856E8554
:102050007F854250510961097109848104C0440F90
:10206000551F661F771F8A95D2F780899189A289AB
:10207000B389840F951FA61FB71FAC01BD014F0D7B
:10208000511D611D711D0115110521F4C114B2E02E
:10209000DB06C8F580E092E0801B910B76018C1581
:1020A0009D0508F47C010115110509F448C021E0E3
:1020B00057C0488D598D6A8D7B8DCE010E94C6090F
:1020C000811176CF898181608983B12CA12C83C055
:1020D0008C8D9D8DAE8DBF8D0097A105B10571F4DE
:1020E000CE010E94880A882369F38C859D85AE8580
:1020F000BF858C8F9D8FAE8FBF8FA5CF8C879D871F
:10210000AE87BF87A0CF83A194A1A5A1B6A1481790
:1021100059076A077B0741F410A28FEF9FEFDC019C
:1021200083A394A3A5A3B6A3940181A192A10E9425
:10213000CE05882339F2E12C82E0F82E2BC04888A6
:1021400059886A887B88888D998DAA8DBB8D4816A1
:1021500059066A067B0618F48A8185FFA8CF25E018
:10216000CF0180960E940107009709F4ABCFA70129
:10217000B401800F911F0E94BC320E0D1F1D01156E
:10218000124041F48E819F8180960E941D06882313
:1021900009F498CF88899989AA89BB898E0D9F1DDA
:1021A000A11DB11D888B998BAA8BBB8B8E0C9F1C9C
:1021B000CE18DF0813CF888D998DAA8DBB8D80171F
:1021C0009107A207B30738F4088F198F2A8F3B8F26
:1021D0008A8180688A83C501DF91CF911F910F9119
:1021E000FF90EF90DF90CF90BF90AF909F908F9037
:1021F0007F906F905F904F903F902F900895FC01DB
:102200004250510961097109848104C0440F551F6E
:10221000661F771F8A95D2F780899189A289B38931
:10222000480F591F6A1F7B1F35CF0C960C94BE0FA9
:10223000CF93DF9344E953E0FA0101900020E9F7DE
:10224000AF014559534064E973E08CE594E00E9486
:10225000BE0FEC0142E050E06BE971E08CE594E0E8
:102260000E94BE0F8C0F9D1FDF91CF910895CF93D9
:10227000C82F0E941805AB01BC018091A4028130D7
:1022800079F583E28093940385E993E00E941D0E23
:10229000DC0111962CE2FC012083E3E3F2E0C03183
:1022A00048F4EC2FF0E0EE0FFF1FEC5EFE4F0190C4
:1022B000F081E02D8491882339F0319693E0A33F9B
:1022C000B90710F48D93F6CF1C920E9418118091DB
:1022D000A402813029F48CE594E0CF910C946A0932
:1022E000CF910895CF93C82F88E70E94350D82E0E3
:1022F00080938F020E94180560938102709382027E
:102300008093830290938402109285028AE0C11127
:102310008EE0CF910C9437119091A3029817E9F0B9
:102320008093A302833089F028F4813049F0823011
:1023300051F00895853069F050F0873061F00895CC
:1023400086E00C94371187E0FCCF88E0FACF89E073
:10235000F8CF8BE0F6CF8CE0F4CF089520919C026B
:1023600030919D02A90148235923452B69F4282B5C
:10237000392B30939D0220939C0287709927892BDB
:1023800019F08DE00C9437110895CF93DF931F92CD
:10239000CDB7DEB7698341E050E0BE016F5F7F4F8C
:1023A0000C960E94BE0F0F90DF91CF9108954F922F
:1023B0005F926F927F928F929F92AF92BF92FF92A5
:1023C0000F931F93CF93DF93D82F042FF52E122F47
:1023D00081E080937003D093920310927103109266
:1023E000930384E494E00E94D20C80E00E948C0B62
:1023F000C82F8111CCC00E943C044B015C0180912C
:102400006A03811165C081E080936A038093690348
:102410009FEF9093680310926703910F9093660368
:102420008093450380914503DD0FD82BD09345035E
:1024300080914403813009F084C0109244030E94CB
:102440003C044B015C01809145038093BB0080916B
:102450006C0390916D03A0916E03B0916F03892B73
:102460008A2B8B2BA1F00E943C0440906C0350906F
:102470006D0360906E0370906F03681979098A0983
:102480009B09461657066806790608F442C08091F3
:10249000BC0083FDD8CF85EC8093BC000E943C0437
:1024A0004B015C0180916A03813009F44CC080913A
:1024B0006703811708F069C080916703A6E4B3E061
:1024C000ECEAF1E0C81749F19D919193CF5FFACF03
:1024D00080916C0390916D03A0916E03B0916F0396
:1024E000892B8A2B8B2B09F48ACF0E943C044090C5
:1024F0006C0350906D0360906E0370906F036819C9
:1025000079098A099B09461657066806790608F074
:1025100076CF80916B030E946B0B10921502C093D3
:1025200014021C1334C0B02EC02FDF2D84E494E0BD
:102530000E948B0C89938C2F8B198117B8F381E043
:1025400027C085EEA9CF80916C0390916D03A09177
:102550006E03B0916F03892B8A2B8B2B09F4A2CFCA
:102560000E943C0440906C0350906D0360906E0399
:1025700070906F03681979098A099B0946165706F6
:102580006806790608F08ECFC4CF812F97CF80E000
:10259000DF91CF911F910F91FF90BF90AF909F90CF
:1025A0008F907F906F905F904F900895EF92FF9281
:1025B0000F931F93CF93DF93CDB7DEB72C970FB652
:1025C000F894DEBF0FBECDBF7C018B012CE0AE01C5
:1025D0004F5F5F4F6DE288E60E94D711882361F15B
:1025E00029813A81322723273227F701318320833B
:1025F0002B813C81322723273227338322832D816D
:102600003E81322723273227358324832F81388543
:10261000322723273227F8013183208329853A8501
:10262000322723273227338322832B853C85322789
:1026300023273227358324832C960FB6F894DEBFE8
:102640000FBECDBFDF91CF911F910F91FF90EF9003
:1026500008952F923F924F925F926F927F928F9246
:102660009F92AF92BF92CF92DF92EF92FF920F9321
:102670001F93CF93DF93CDB7DEB728970FB6F894AB
:10268000DEBF0FBECDBF98878F837B0126E0AE01F2
:102690004F5F5F4F67EF87E70E94D711082F8823AE
:1026A00009F4E9C119812A803B808C8190E0B0E077
:1026B000A0E02CE0880F991FAA1FBB1F2A95D1F715
:1026C0004D8150E070E060E034E0440F551F661F1C
:1026D000771F3A95D1F7842B952BA62BB72B2E81FC
:1026E00030E044E0359527954A95E1F7032E000C3C
:1026F000440B550B822B932BA42BB52B4091170227
:102700005091180270E060E02C013D01E4E0759406
:10271000679457944794EA95D1F7441A550A660A84
:10272000770AF3E0B595A79597958795FA95D1F730
:10273000440F551F661F771F5C016D01A41AB50A6F
:10274000C60AD70AA6019501A0911902B0911A02F2
:102750000E94442E4B015C013BE0B594A7949794F2
:1027600087943A95D1F7A3019201C301B2010E9467
:102770008D329B01AC016CE05595479537952795B7
:102780006A95D1F7A0911B02B0911C020E94442EC1
:102790002B013C017EE075946794579447947A9599
:1027A000D1F7480C591C6A1C7B1C40922F02509296
:1027B00030026092310270923202A5E0B0E0A301D3
:1027C00092010E94392E60587F4F8F4F9F4F672F85
:1027D000782F892F992787FD9A950E94992F20E0BD
:1027E00030E048EC52E40E94EF2EF70160837183E1
:1027F0008283938373016201F594E794D794C7941D
:10280000FAEFDF1AE108F108C701B601A2E09595D9
:10281000879577956795AA95D1F79B01AC010E94A2
:102820008D324B015C01A0912102B0912202AC01DA
:102830009B018DE055954795379527958A95D1F75A
:102840000E94442E2B013C0193E0759467945794A9
:1028500047949A95D1F7A0911F02B0912002A70149
:1028600096010E94442E9B01AC01559547953795E2
:102870002795240D351D461D571D72E15595479529
:10288000379527957A95D1F730584F4F5F4FA091E4
:102890001D02B0911E020E94392E2B013C01EFE077
:1028A0007594679457944794EA95D1F7411451046D
:1028B0006104710409F404C1A50194018BE05595EC
:1028C0004795379527958A95D1F7A0912702B09122
:1028D00028020E94442E4B015C01A0912502B09178
:1028E0002602A70196010E94442EDC01CB01880F2D
:1028F000991FAA1FBB1F880D991DAA1DBB1D6C0126
:102900007D0132E0F594E794D794C7943A95D1F7D6
:10291000212F30E050E040E06CE0220F331F441FD5
:10292000551F6A95D1F7822D90E0B0E0A0E074E0E9
:10293000880F991FAA1FBB1F7A95D1F7282B392B17
:102940004A2B5B2B832D90E0E4E095958795EA95E3
:10295000E1F7092E000CAA0BBB0B282B392B4A2BB5
:102960005B2B8091230290912402092E000CAA0B6C
:10297000BB0BDC01992788278C0D9D1DAE1DBF1D4B
:102980001CE0B595A795979587951A95D1F7280FCF
:10299000391F4A1F5B1FABECB3EF0E94472E805BD1
:1029A0009C4397FD82C0660F771F881F991FA30164
:1029B00092010E944C2E29013A01C301B20123E089
:1029C00096958795779567952A95D1F79B01AC01E8
:1029D0000E948D329B01AC016DE05695479537956D
:1029E00027956A95D1F7A0912D02B0912E020E94F1
:1029F000442E6B017C017CE0F594E794D794C79456
:102A00007A95D1F7A3019201E2E056954795379563
:102A10002795EA95D1F7A0912B02B0912C020E9444
:102A2000442E9B01AC01FDE05595479537952795C0
:102A3000FA95D1F72C0D3D1D4E1D5F1DC09029024A
:102A4000D0902A020D2C000CEE08FF082C0D3D1D25
:102A50004E1D5F1DA4E05595479537952795AA957E
:102A6000D1F7420E531E641E751EEF81F885408219
:102A7000518262827382802F28960FB6F894DEBF4F
:102A80000FBECDBFDF91CF911F910F91FF90EF90BF
:102A9000DF90CF90BF90AF909F908F907F906F907E
:102AA0005F904F903F902F900895A30192010E9454
:102AB0004C2E29013A01440C551C661C771C7DCF15
:102AC000412C512C3201D1CFFC01808181110EC0EB
:102AD00080E2DF011D928A95E9F777836683DB0147
:102AE00015968C91803121F0803239F080E0089584
:102AF00080E4808381E08283089580E8FACFCF92DA
:102B0000DF92EF92FF920F931F93CF93DF93FC011D
:102B100080E2DF011D928A95E9F7DB011696CD91DF
:102B2000DC911797D783C683558344835C96CD90F9
:102B3000DD90ED90FC905F97C086D186E286F386AB
:102B4000DE019B964F70552795E0440F551F9A95CF
:102B5000E1F7A40FB51F1B968C911B9783FD12C044
:102B6000877380831B969C911B97987111F48860E2
:102B7000808303832370213009F448C038F0223069
:102B800009F442C01082128280E035C081E0828365
:102B9000828181FF06C08081982F917199F78062B0
:102BA00080834BA15CA16DA17EA1448B558B668B6C
:102BB000778B54964D915C91559770E060E0BA0127
:102BC000552744275A960D911C915B9730E020E0E1
:102BD000402B512B622B732B448F558F668F778F31
:102BE0005C968D919D910D90BC91A02D808F918FC1
:102BF000A28FB38F81E0DF91CF911F910F91FF9052
:102C0000EF90DF90CF90089583E0C1CF82E0BFCFF7
:102C10004F925F926F927F928F929F92AF92BF92EC
:102C2000CF92DF92EF92FF920F931F93CF93DF9398
:102C30005C01EB016A01922E40E050E0BA01CE0146
:102C40000E94C609F12CE12C712C612C00E010E0EF
:102C500026012FEF421A520A61E0CE010E941C0F9A
:102C6000BC010097B1F48981882309F495C080E004
:102C7000DF91CF911F910F91FF90EF90DF90CF9058
:102C8000BF90AF909F908F907F906F905F904F908C
:102C90000895FC019081953E09F475C0992309F4CB
:102CA00077C0838583FD11C04BE050E0C2010E94D4
:102CB000AF32892B09F06AC0292DA70196FCD7CF26
:102CC000BE01C5010E947F15D3CF8F3009F05EC0D1
:102CD00096FF02C0092F0F71FFEFEF1AFF0ABCCF5A
:102CE000370100E011E0F8CF848120E032E002C03B
:102CF000220F331F8A95E2F788899989AA89BB89AF
:102D0000820F931FA11DB11D888B998BAA8BBB8B42
:102D10003701A30170E060E085E0440F551F661F96
:102D2000771F8A95D1F7CE010E94C609882309F43E
:102D30009ECF60E0CE010E941C0F009709F497CF50
:102D400020E2FC0111922A95E9F7F60131962BE079
:102D5000DC0101900D922A95E1F7F601208128719E
:102D6000FC01248721E23CE5318B208B318F208FC1
:102D7000338B228BEE81FF8180A1816080A300E0F4
:102D8000292DA3019DCF112309F4AACF00E0A4CFE0
:102D9000111102C0370111E094FE69CF892D8370B3
:102DA0008150823008F063CF1111B3CF888186FD46
:102DB0005ECF88899989AA89BB8981159E4FAF41C9
:102DC000B10508F054CFCE010E94880A882309F487
:102DD0004ECFEE81FF814C845D846E847F8432E02F
:102DE000431A510861087108848104C0440C551CC1
:102DF000661C771C8A95D2F780899189A289B3894C
:102E0000480E591E6A1E7B1E812C00E012E0EE81E6
:102E1000FF818281881608F067CF25E0B301A20107
:102E2000480D511D611D711DCF0180960E94010743
:102E3000009709F41CCFFC019801119221503040F9
:102E4000E1F78394E4CF8F929F92AF92BF92CF929B
:102E5000DF92EF92FF920F931F93CF93DF93CDB743
:102E6000DEB7AC970FB6F894DEBF0FBECDBF8C01B6
:102E70007A01B22E19821A821B82FC01808188237A
:102E8000A1F080E0AC960FB6F894DEBF0FBECDBFC8
:102E9000DF91CF911F910F91FF90EF90DF90CF9036
:102EA000BF90AF909F908F900895FB018081807DAF
:102EB00041F3FA0180818F32B1F47F0181918F3229
:102EC000E1F3FB0166817781811104C0C8010E9492
:102ED0006415D8CFCE0101960E946415BE016F5FC4
:102EE0007F4F882371F26E01FDE2CF0ED11C20E2EC
:102EF000A22EFE01B2969F01A192CE16DF06E1F747
:102F0000D70187E0E82EE0E098E0992E90E0F12CE0
:102F1000AD014F5F5F4F8C91882309F444C08F321D
:102F200009F441C08E3251F4F7E0EF1212C08AE08A
:102F3000E82EE8E08E2EF0E19F2E2CC0823209F4BC
:102F4000A0CF8C3709F49DCFF5EAF80FF33008F4E1
:102F500098CFF6EDF80FF63018F48D3209F091CFD6
:102F6000F6ECF80FF63008F48CCFFFEDF80FFE35D5
:102F700008F087CFEE1608F484CFFFE9F80FFA3196
:102F800060F480529929882483948E0EE20FF32FE7
:102F9000F11D8083DA01E82DBBCFFFEBF80FFA318A
:102FA00090F7F928F0CF8AA1803209F46ACFF9228C
:102FB00009F090E099A37D018C9111968F32D9F39D
:102FC000811108C02B2DAE014F5D5F4FC8010E94DB
:102FD000081658CF20E0AE014F5D5F4FC8010E9438
:102FE0000816882309F44DCF80E2F801DE0111961E
:102FF00001900D928A95E1F7C8010E946A09F801D3
:1030000010821282BE016F5F7F4F73CF85ED809378
:10301000BC0080916C0390916D03A0916E03B09100
:103020006F030796A11DB11D23E0B695A79597954F
:1030300087952A95D1F72091BC0024FD03C01092FA
:103040006A03089540916C0350916D0360916E0383
:1030500070916F03452B462B472B69F30097A10511
:10306000B10541F02AE22A95F1F700C00197A109C4
:10307000B109E1CF80916B030C946B0BBF92CF929F
:10308000DF92EF92FF920F931F93CF93DF9300D0C5
:1030900000D000D0CDB7DEB78C016B01CA01B22ED3
:1030A0004AE09E012F5F3F4F7901B9010E94F02D48
:1030B000F70101900020E9F73197EE19C601019759
:1030C00020E3EB1548F40817190720F4D8012C93D6
:1030D0000F5F1F4FEF5FF5CFA701B601C8010E9438
:1030E000010D26960FB6F894DEBF0FBECDBFDF915F
:1030F000CF911F910F91FF90EF90DF90CF90BF90F5
:103100000895CF92DF92EF92FF920F931F93CF9388
:10311000DF93EC016A017B01022F1AE0213009F0F4
:1031200014E620E030E0A901C701B6010E94EA2EB2
:1031300087FF1AC020E836E948E15CECC701B60118
:103140000E94493018160CF450C04EE951E064EF6B
:1031500073E0CE01DF91CF911F910F91FF90EF901F
:10316000DF90CF900C94010D20E836E948E15CE453
:10317000C701B6010E94EA2E87FFE7CF612F70E0FA
:1031800090E080E00E94992FA70196010E944E30A6
:1031900020E030E040E05FE30E947E2E0E94682F36
:1031A000212F30E050E040E00E944C2E6B01BA012C
:1031B000A901CE010E941D0EE3E0833F9E0720F48B
:1031C0002EE2FC0120830196023009F001E0202F5D
:1031D000A60164EF73E0DF91CF911F910F91FF90F3
:1031E000EF90DF90CF900C943E18F7FAF094F7F838
:1031F000F094612F70E090E080E00E94992F9B0195
:10320000AC01C701B6010E944E3020E030E040E042
:103210005FE30E947E2E0E94682F61157105810573
:10322000910509F4BDCF23E0C33FD20708F0B8CF22
:103230002DE228832196B4CF1F920F920FB60F92E2
:1032400011248F939F938091E1009091E100937FEF
:103250009093E10083FF0FC01092E90091E09093FA
:10326000EB001092EC0092E39093ED001092430378
:1032700098E09093F00082FF22C093E09093E900E1
:103280009091F200992319F09AE39093E8009091BD
:103290003403992341F09091340391509093340377
:1032A000911101C05D9A90914203992341F0909150
:1032B0004203915090934203911101C0289A84FFD8
:1032C00018C08091E2008E7E81608093E200809140
:1032D000E1008F7E8093E100809135038E7E8061D6
:1032E000809335039F918F910F900FBE0F901F9089
:1032F000189580FFF7CF8091E2008E7E80618093E9
:10330000E2008091E1008E7E8093E10080913503A0
:103310008E7E8160E5CF1F920F920FB60F9211241F
:10332000CF92DF92EF92FF920F931F932F933F93D1
:103330004F935F936F937F938F939F93AF93BF93BD
:10334000EF93FF93CF93DF93CDB7DEB76C97DEBFDC
:10335000CDBF1092E9008091E80083FF25C068E0AE
:10336000CE0145960E948D0382EF8093E8008D89FF
:1033700087FF39C09091E80090FFFCCF982F90769E
:1033800009F034C19E894F89588D2F89F88C91118D
:1033900031C0803861F5809133038093F100109241
:1033A000F1008EEF8093E8006C960FB6F894DEBFC4
:1033B0000FBECDBFDF91CF91FF91EF91BF91AF9144
:1033C0009F918F917F916F915F914F913F912F913D
:1033D0001F910F91FF90EF90DF90CF900F900FBE55
:1033E0000F901F9018959EEF9093E800C7CF109212
:1033F000F100D5CF913059F48111D3CF413051052F
:1034000081F6809133038D7F80933303CACF93304D
:1034100049F48111C6CF4130510519F6809133032B
:103420008260F2CF953041F48091E80080FFFCCFBC
:1034300020682093E300B5CF963009F0A9C00B8D2A
:103440001C8D22E01092E90010923103109230039B
:10345000F2122EC010922F0310922E030E945C03D2
:103460001F8299E09983FA8291E09E8390EA98877F
:103470009AEF99872091300330913103275F3F4FB6
:103480003C832B838D831092E900109231031092BC
:10349000300310932F0300932E0349E050E0BE0148
:1034A0006F5F7F4F80E00E9436030E945C0379CFFC
:1034B00010932F0300932E030E944002DC0112960A
:1034C0000D911C910115110509F451C1D801ED911F
:1034D000FC910480F581E02DBE016B5E7F4FC80139
:1034E0000995009709F03EC1F80100851185EACFE2
:1034F000F3E0FF120EC08F89882309F440C08230A8
:1035000061F440E860E183EA93E00E9403038111E3
:1035100048CF81E28093EB0047CF813029F440E827
:103520006BE087E993E0F1CF833099F70E94400286
:10353000DC011296ED90FC908E010F5F1F4F680129
:10354000E114F10479F0D701ED91FC910680F78147
:10355000E02DB801C7010995080F111DF701E0849E
:10356000F184EECFD8011C92F60101900020E9F71A
:103570003197BF016C197D0940E0C601C6CF61E8F3
:1035800073E0FB01449150E080E80E94360309CFCC
:10359000973009F4BECF983021F481E08093F10098
:1035A00000CF993009F0FDCE837009F0B2CFEFE57E
:1035B000F1E081E031E096E32191222371F08093E4
:1035C000E9003093EB00DF0111972C912093EC0080
:1035D0009093ED008F5F873079F78EE78093EA0054
:1035E0001092EA008F8980934303DBCE8B8D9C8DF4
:1035F0001092E900109231031092300390932F0340
:1036000080932E03898D811192C08E899D89913A74
:1036100049F4813209F07DCF47E050E06CE071E081
:1036200080E0B3CF913209F074CF833269F48F898F
:10363000988DB0E0A0E08093080190930901A093D9
:103640000A01B0930B01ADCE803269F48091E8009D
:1036500082FFFCCF67E08CE091E00E948D038BEF4E
:103660008093E8009ECE823209F09BCE8F898093B2
:103670001301EEEFFFE7859194918B3F9C4D51F143
:10368000E0E0F8E080910C0190910D01A0910E0115
:10369000B0910F01803B9440A105B105F1F48091F8
:1036A000130180FD1AC0EE3F8AE0F80789F587E72D
:1036B00097E791838083809160008093320388E153
:1036C0009BE00FB6F894A895809360000FBE90938E
:1036D000600067CEEEEFFAE0D5CF80819181873729
:1036E000974709F05ECEA89580916000886180932D
:1036F00060008091320380936000EE3F2AE0F20781
:1037000089F08091FE0A9091FF0A9183808349CECF
:10371000808191818737980751F29093FF0A8093B7
:10372000FE0AC5CF1092FF0A1092FE0A3ACE0E94FE
:103730004002DC0112960D911C910115110509F44E
:10374000E8CED801ED91FC910190F081E02DBE0111
:103750006B5E7F4FC8010995811123CEF80100856A
:103760001185EBCF181619060CF41BCED2CEF1E062
:10377000FF12BECE65E873E004CF1F920F920FB622
:103780000F9211242F933F938F939F93AF93BF93E7
:103790008091260390912703A0912803B0912903DB
:1037A0003091250323E0230F2D3758F50196A11DF5
:1037B000B11D209325038093260390932703A093A4
:1037C0002803B093290380912A0390912B03A091A1
:1037D0002C03B0912D030196A11DB11D80932A03E6
:1037E00090932B03A0932C03B0932D03BF91AF9123
:1037F0009F918F913F912F910F900FBE0F901F902F
:10380000189526E8230F0296A11DB11DD2CF1F9255
:103810000F920FB60F9211242F933F934F935F9304
:103820006F937F938F939F93AF93BF93CF93DF93C8
:10383000EF93FF9380910F02C091F806D0E087FFCD
:1038400024C0109285001092840080910F028F5F37
:1038500080930F0280910F02082E000C990B8C1799
:103860009D0724F480910F028C30C4F18091840074
:1038700090918500049680349C4908F47AC0809128
:10388000840090918500049676C080910F02082EE6
:10389000000C990B8C179D07C4F6E0910F028E2F38
:1038A000EE0F990BFC01EE0FFF1FE80FF91FEC5212
:1038B000F94F808186FFC9CFE0910F028E2FEE0F66
:1038C000990BFC01EE0FFF1FE80FF91FEC52F94FA7
:1038D000808160E08F730E949A03B7CF20918400AB
:1038E00030918500E0910F028E2FEE0F990BFC01B5
:1038F000EE0FFF1FE80FF91FEC52F94F8181928103
:10390000820F931F9093890080938800E0910F02AB
:103910008E2FEE0F990BFC01EE0FFF1FE80FF91F22
:10392000EC52F94F808186FF11C0E0910F028E2F7B
:10393000EE0F990BFC01EE0FFF1FE80FF91FEC5281
:10394000F94F808161E08F730E949A03FF91EF919C
:10395000DF91CF91BF91AF919F918F917F916F91A7
:103960005F914F913F912F910F900FBE0F901F903D
:10397000189580E49CE990938900809388008FEFEC
:1039800080930F02E3CF1F920F920FB60F92112474
:103990002F933F934F935F936F937F938F939F9357
:1039A000AF93BF93EF93FF938091B900887F8036E8
:1039B00009F44AC0F0F5883209F4A7C018F580313F
:1039C00009F49BC0B8F4882309F4F9C0883009F4DD
:1039D00094C0FF91EF91BF91AF919F918F917F9193
:1039E0006F915F914F913F912F910F900FBE0F906C
:1039F0001F901895883109F488C0803251F7809360
:103A0000680314C0803409F49DC040F48033B9F3D6
:103A10008833F9F68093680385ECB0C0803509F4EB
:103A200085C0883509F496C0883499F60E94061836
:103A3000D0CF883909F48CC038F5883729F050F494
:103A4000883611F0803729F683E080936A0310925C
:103A50000E0257C0883809F47BC0803919F08038CD
:103A600009F0B7CF80910E02803208F071C0E0916A
:103A70000E0281E08E0F80930E028091BB00F0E079
:103A8000E251FE4F80833DC0803B39F0E0F4803A44
:103A900009F479C0883A09F09CCF84E080936A03E6
:103AA0001092ED011092EC01E0911202F0911302DC
:103AB00009958091EC0181110FC081E08093EC01A8
:103AC0001092CC0109C0803C09F4A6CF883C09F4CF
:103AD000A3CF883B09F07DCFE091ED0181E08E0F0F
:103AE0008093ED01F0E0E453FE4F80818093BB00B2
:103AF0009091ED018091EC0129C080914503809364
:103B0000BB0085EC8093BC0064CF909167038091EB
:103B10006603981758F5E091670381E08E0F809354
:103B20006703F0E0EA5BFC4F8081E9CFE091670337
:103B300081E08E0F809367038091BB00F0E0EA5B29
:103B4000FC4F808390916703809166039817C8F2B9
:103B500085E8D8CFE091670381E08E0F80936703FB
:103B60008091BB00F0E0EA5BFC4F808380916903A9
:103B700081115CCF81E08093440384EA8093BC0090
:103B800010926A0326CF85EC8093BC0010926A03E2
:103B900080910E02803230F4E0910E02F0E0E251AA
:103BA000FE4F108260910E0270E0E0911002F091E1
:103BB00011028EEE91E0099510920E020ACF10923A
:103BC000680334CF1092F7031092F60388EE93E067
:103BD000A0E0B0E08093F8039093F903A093FA0378
:103BE000B093FB0329E631E03093F5032093F4030F
:103BF0002FEF3FEF3093010420930004109247040D
:103C0000109246048093480490934904A0934A0478
:103C1000B0934B042BE731E03093450420934404E8
:103C20001092810410929E0410929D0410929C04A4
:103C30004FEF5FEFBA0140939F045093A00460934D
:103C4000A1047093A2041092A7061092A8061092E5
:103C5000A9061092C8061092C7061092CA061092C2
:103C6000C90620E52093CB061092CC061092CD0613
:103C70001092CE062AE22093CF061092D006109220
:103C8000D1061092D2061092D306109253041092CD
:103C900052048093540490935504A0935604B09317
:103CA000570410925C0410925D0410925E048DE83B
:103CB00091E090935104809350048091F8068C30E9
:103CC00098F491E0980F9093F8068093F90690E0AD
:103CD000FC01EE0FFF1FE80FF91FEC52F94F88EBC4
:103CE0009BE09283818308958FEF8093F906089576
:103CF000CF93DF93CDB7DEB7E7970FB6F894DEBF6B
:103D00000FBECDBF789484B5826084BD84B58160D8
:103D100084BD85B5826085BD85B5816085BD809196
:103D20006E00816080936E0010928100809181000E
:103D30008260809381008091810081608093810006
:103D400080918000816080938000809191008260EA
:103D50008093910080919100816080939100809187
:103D600090008160809390008091C1008460809376
:103D7000C1008091C10082608093C1008091C10028
:103D800081608093C1008091C30081608093C300F3
:103D90008091C00082608093C0008091C2008160E9
:103DA0008093C20080917A00846080937A00809131
:103DB0007A00826080937A0080917A00816080939B
:103DC0007A0080917A00806880937A001092430391
:103DD00010923303109235038091D7008160809355
:103DE000D70080EA8093D80089B5806189BD89B504
:103DF000826089BD09B400FEFDCF61E070E080E023
:103E000090E00E9461048091D8008F7C8061809353
:103E1000D8008091E000807F8093E0008091E100F5
:103E20008E7E8093E1008DE08093E200559A209A87
:103E300061E085E00E940B0460E085E00E949A0347
:103E400010929D0210929C0210929F021092A0026A
:103E50001092A1021092A20210929E0280E00E9493
:103E6000371160E084E10E940B0410921502109259
:103E7000140210927103109293030E944D0B85E27D
:103E800095E0909313028093120286E295E090935E
:103E90001102809310028CE08093B80010921602F9
:103EA00088EB9BE0A0E0B0E080936C0390936D03FF
:103EB000A0936E03B0936F0381E080936B03109225
:103EC0003602109237021092380210923902109284
:103ED0003A0210923B0210923C0210923D02109264
:103EE0003E0210923F021092400210924102109244
:103EF0005D0210925E0210925F02109260021092B8
:103F00004A0210924B0210924C0210924D021092F3
:103F10004F021092960210924E02198240E06FE713
:103F200088E60E94000E21E0AE014F5F5F4F60E027
:103F300088E60E94D711182F882309F461C089816F
:103F40008A3E09F0DCC640E866E088E60E94000E82
:103F500064E670E080E090E00E94610440E06FE77A
:103F600088E60E94000E41E066E088E60E94000EAE
:103F70006EE170E080E090E00E94610440E067E064
:103F800088E60E94000E6EE170E080E090E00E9402
:103F9000610440E26FE788E60E94000E80E090E056
:103FA000A0E0B5E48093040190930501A09306017D
:103FB000B093070147E064E188E60E94000E83E3C6
:103FC00093E3A3E8B1E48093000190930101A093EF
:103FD0000201B093030147E061E088E60E94000E11
:103FE00040E060E088E60E94000E6EE170E080E054
:103FF00090E00E94610440E06FE788E60E94000EB6
:1040000019A221E0AE014F5D5F4F60ED87E70E948E
:10401000D711811176C6111104C084E090E00E948E
:10402000AE1182E090E00E94AE1181E090E00E942B
:10403000AE1110E064EF71E080E090E00E94610456
:1040400010928F02109281021092820210928302CB
:10405000109284021092850284E10E94350D6CE278
:1040600071E080E090E00E946104E091F9068E2FFB
:1040700090E0FC01EE0FFF1FE80FF91FEC52F94F23
:1040800080818F7B80831092A40261E084E00E9493
:104090000B041092CD061092D0061092D106109209
:1040A000D2061092D3061092CF0684E08093CE06FB
:1040B00061E00E940B0461E08091CE060E949A03A9
:1040C00082E58093CB061092CC060FB7F8948091CE
:1040D0003302811127C0E3EFF2E08491E2E1F3E0E3
:1040E0009491E82FF0E0EE0FFF1FEA53FD4FA591EA
:1040F000B491EC91E92321F461E081E10E949A03FB
:1041000061E081E10E940B048CB580618CBD8CB5AF
:1041100080648CBD61E08FE00E940B0461E080E16F
:104120000E940B04809133028F5F809333020FBF94
:1041300081E08093CD068091D006811104C089EC86
:1041400096E00E943E0561E08091CE060E949A03AF
:104150000AE00E944C050150E1F760E08091CE0634
:104160000E949A030E9418056053784F7A836983EE
:1041700020E030E0A90160E089EC96E00E94830530
:10418000F82E88248394881509F440C6CE01019640
:104190000E942705882361F381E08093CF0689EC94
:1041A00096E00E94710589EC96E09093C806809392
:1041B000C7068091CF068111AAC661E089EC96E01E
:1041C0000E944407882309F489C687EA96E00E9482
:1041D0006A091092A7061092A9066CE774E087EAB4
:1041E00096E00E946415882309F478C68CE794E071
:1041F0009093350280933402EE24E394F12C42EA4A
:1042000051E0BE01625D7F4FCE0181960E94010D9B
:1042100024E0A701BE01625D7F4F0E943E1846EA7E
:1042200051E0BE01625D7F4F0E94010DDC011C92D6
:1042300019821A821B8220E0AE014F5D5F4F67EA50
:1042400076E0CE0101960E942317811162C660912B
:104250003402709135026115710509F45AC6655D25
:104260007D4F21E5AE014F5D5F4F8CE594E00E94EC
:104270002317882309F44DC64FE550E065E372E04B
:1042800084E993E00E94B02D1092F3030E9418116C
:104290008CE594E00E946A0981E08093A40282E0A8
:1042A0000E94371110928A0200919C02112309F496
:1042B000F6C002FDA6C020E4322E10E0C12CD12CA5
:1042C00076014601570126013701BE016F5F7F4F1E
:1042D000CE0181960E94D612882389F169817A8164
:1042E000072E000C880B990B0E94992F9B01AC01A3
:1042F000C301B2010E947E2E2B013C016B817C81A7
:10430000072E000C880B990B0E94992F9B01AC0182
:10431000C501B4010E947E2E4B015C016D817E813E
:10432000072E000C880B990B0E94992F9B01AC0162
:10433000C701B6010E947E2E6B017C011F5F65E004
:1043400070E080E090E00E9461043A943110BDCFAB
:10435000112309F456C020910001309101014091D0
:104360000201509103012CAB3DAB4EAB5FAB612F13
:1043700070E090E080E00E94992F68AB79AB8AAB47
:104380009BAB9B01AC01C301B2010E94EF2E2CA993
:104390003DA94EA95FA90E94EF2E60933E02709343
:1043A0003F02809340029093410228A939A94AA96B
:1043B0005BA9C501B4010E94EF2E2CA93DA94EA90D
:1043C0005FA90E94EF2E60933A0270933B028093A4
:1043D0003C0290933D0228A939A94AA95BA9C701CB
:1043E000B6010E94EF2E2CA93DA94EA95FA90E94FB
:1043F000EF2E6093360270933702809338029093C9
:10440000390201FD4CC008E210E080E3C82E85E7C8
:10441000D82EE12CF12C90EC892E94ED992EAA2423
:10442000A394B12C412C512C3201BE016F5F7F4F00
:10443000CE0181960E942913882311F189A19AA1A6
:10444000ABA1BCA1AC01BD01405355476109710945
:1044500041395F456140710598F4480E591E6A1E46
:104460007B1E88159905AA05BB0514F44C015D0156
:10447000C816D906EA06FB0614F46C017D011F5F1D
:1044800064E170E080E090E00E946104015069F610
:10449000143108F04CC582E090E00E94AE111092F9
:1044A000A302109290021092910210929202109226
:1044B000930210928B0210928C0210928D02109235
:1044C0008E02109271021092720210927302109278
:1044D000740210926D0210926E0210926F0210928E
:1044E00070021092690210926A0210926B0210928E
:1044F0006C0210926502109266021092670210928E
:10450000680210926102109262021092630210928D
:1045100064021092790210927A0210927B02109239
:104520007C0210927D0210927E0210927F02109205
:104530008002109275021092760210927702109209
:10454000780280919C0290919D0287709927109229
:10455000950210929402892B09F41FC588E00E94ED
:104560008C110E9418056093EB027093EC0280930B
:10457000ED029093EE026093EF027093F00280934D
:10458000F1029093F20260932103709322038093CF
:104590002303909324036093A6027093A702809351
:1045A000A8029093A9026093E3027093E4028093BF
:1045B000E5029093E6026093E7027093E80280932D
:1045C000E9029093EA028E01095D1F4F1FA70EA713
:1045D000332433940E9418052B013C018091210360
:1045E00090912203A0912303B0912403A30192018F
:1045F000281B390B4A0B5B0BDA01C9014497A10553
:10460000B105B8F040922103509222036092230337
:1046100070922403BE016F5F7F4FCE0181960E948E
:10462000D6128111C3C410921F0384E090E00E944F
:10463000AE118091EF029091F002A091F102B09141
:10464000F20263015201A81AB90ACA0ADB0AD601AA
:10465000C5018897A105B105B8F04092EF025092CC
:10466000F0026092F1027092F202BE016F5F7F4F22
:10467000CE0181960E9429138111A4C510922003B6
:1046800082E090E00E94AE118091A302813009F097
:10469000C6C080911F03882309F4C1C080915D02C8
:1046A00090915E02A0915F02B09160021816190607
:1046B0001A061B060CF0B3C080915C02882351F0EF
:1046C00010925C02409258025092590260925A0233
:1046D00070925B0280912003882309F48BC0809143
:1046E0001B0390911C03A0911D03B0911E034091E8
:1046F00054025091550260915602709157028417EE
:104700009507A607B70709F475C040915802509164
:10471000590260915A0270915B0253014201841A5E
:10472000950AA60AB70AB501A401483B0BE0500759
:104730006105710508F45EC0E09196028093540211
:1047400090935502A0935602B093570200915002E5
:104750001091510220915202309153028091F30244
:104760009091F402A091F502B091F602BA2FA92F10
:10477000982F8827801B910BA20BB30BFAE0E11155
:1047800001C0F4E004C0B595A79597958795FA9573
:10479000D2F7800F911FA21FB31F809350029093F6
:1047A0005102A0935202B0935302892F9A2FAB2F3C
:1047B000BB27A7FDBA9580935D0290935E02A093FC
:1047C0005F02B0936002E1112AC040345F4161058D
:1047D0007105A0F010924F023092960280919C02D7
:1047E00090919D029E7F90939D0280939C028FE00A
:1047F0000E94371180919602811111C080914E0262
:1048000081110DC020E3421625E7520661047104B0
:1048100030F080E091E00E94AE1130924E02809123
:10482000EB029091EC02A091ED02B091EE025301E7
:104830004201881A990AAA0ABB0AD501C401449701
:10484000A105B10508F491C04092EB025092EC0230
:104850006092ED027092EE02109120030091A3028B
:10486000112309F43FC080917D0290917E02A091B6
:104870007F02B0918002C090FB02D090FC02E090D9
:10488000FD02F090FE020097A105B10509F04CC5AC
:10489000C0927902D0927A02E0927B02F0927C027E
:1048A00040927D0250927E0260927F02709280025E
:1048B00020918B0230918C0240918D0250918E029A
:1048C000C701B6010E944930181664F48EEF800FBC
:1048D000823040F4C0928B02D0928C02E0928D0222
:1048E000F0928E02033009F489C608F055C50130F4
:1048F00009F48EC5023009F43FC6C0909002D090F2
:104900009102E0909202F0909302C114D104E1046C
:10491000F10459F1A30192012C193D094E095F09D7
:1049200069017A0180918F02823069F038EBC316F9
:104930003BE0D306E104F10430F081E00E94721103
:1049400085E00E948C118091A302873071F040E6CF
:10495000C4164AEED406E104F10438F080E890E091
:104960000E94AE1187E00E948C1180918602909186
:104970008702A0918802B09189020097A105B10534
:1049800019F153014201881A990AAA0ABB0AD501F2
:10499000C401803B9440A105B105B4F0E091F90653
:1049A0008E2F90E0FC01EE0FFF1FE80FF91FEC5275
:1049B000F94F80818F7B808310928602109287024C
:1049C000109288021092890280918F02823049F5FC
:1049D00090918502911125C04091810250918202EF
:1049E000609183027091840253014201841A950AF6
:1049F000A60AB70AB501A401403B54406105710500
:104A000084F0E091F9062E2F30E0F901EE0FFF1F40
:104A1000E20FF31FEC52F94F90819F7B908330920D
:104A200085024091E7025091E8026091E90270919D
:104A3000EA0253014201841A950AA60AB70AB5018F
:104A4000A4010091E3021091E4022091E50230916B
:104A5000E60273016201C01AD10AE20AF30A48327F
:104A600051056105710538F408ECC016D104E10464
:104A7000F10408F43DC74092AA025092AB02609242
:104A8000AC027092AD0200919002109191022091BF
:104A9000920230919302011511052105310541F073
:104AA00053014201801A910AA20AB30A95018401B6
:104AB0000093AE021093AF022093B0023093B10284
:104AC00020919402309195022F5F3F4F30939502D1
:104AD000209394023093B3022093B2029091A302E8
:104AE0009093B4028093B5028091F3029091F40206
:104AF000A091F502B091F6028093B6029093B702AE
:104B0000A093B802B093B9028091F7029091F80295
:104B1000A091F902B091FA028093BA029093BB027D
:104B2000A093BC02B093BD028091FB029091FC0265
:104B3000A091FD02B091FE028093BE029093BF024D
:104B4000A093C002B093C10280918B0290918C021D
:104B5000A0918D02B0918E028093C2029093C30205
:104B6000A093C402B093C5028091FF02909100030C
:104B7000A0910103B09102038093C6029093C702F3
:104B8000A093C802B093C9028091030390910403DB
:104B9000A0910503B09106038093CA029093CB02C3
:104BA000A093CC02B093CD028091070390910803AB
:104BB000A0910903B0910A038093CE029093CF0293
:104BC000A093D002B093D10280910F039091100373
:104BD000A0911103B09112038093D2029093D3025B
:104BE000A093D402B093D502809113039091140343
:104BF000A0911503B09116038093D6029093D7022B
:104C0000A093D802B093D902809117039091180312
:104C1000A0911903B0911A038093DA029093DB02FA
:104C2000A093DC02B093DD02E091A402E093DE02E7
:104C300080918A028093DF0280919C0290919D0274
:104C40009C0126703327232B09F46FC522E02093A3
:104C5000E0029093E2028093E1024832510561053F
:104C6000710508F437C64092E7025092E80260925C
:104C7000E9027092EA02E13009F02CC6B301A20108
:104C800084E993E00E941D0E1CE2DC011C9340911C
:104C9000AE025091AF026091B0027091B1020196E4
:104CA0000E941D0EFC0110834091B2025091B3028C
:104CB00070E060E001960E941D0E9C012F5F3F4F47
:104CC000DC011C93E091B402E93008F031C5F0E05A
:104CD000EE0FFF1FEC5CFE4F0190F081E02D89018B
:104CE000D80184910F5F1F4F882309F424C53196A2
:104CF00023E0A33FB20708F01EC58C93F1CF10E06C
:104D00007FC989A1883509F086C946EB60EE87E73F
:104D10000E94000E6AE070E080E090E00E94610472
:104D200028E1AE014F5F5F4F68E887E70E94D71127
:104D3000882309F470C929813A813093180220939D
:104D400017028B819C8190931A02809319028D81A6
:104D50009E8190931C0280931B028F819885909373
:104D60001E0280931D0249855A855093200240936C
:104D70001F024B855C8550932202409321024D8592
:104D80005E8550932402409323024F8558895093A7
:104D900026024093250249895A895093280240935C
:104DA00027024B895C8950932A02409329024D893E
:104DB0005E8950932C0240932B024F89588D50935B
:104DC0002E0240932D0210922F0210923002109268
:104DD000310210923202232B09F41DC9892B09F4E8
:104DE0001AC948E065EF87E70E94000E4FE264EFC2
:104DF00087E70E94000E62E370E080E090E00E948E
:104E00006104111194C684E090E00DC92AEA31E0F2
:104E100040E050E068E089EC96E00E94830582FD66
:104E200011C004E00E944C058093D2060150D1F7D6
:104E30008A3A29F1CE0101960E942705882331F391
:104E400086E0ABC901E0812C912C540120E030E0D8
:104E5000A90167E389EC96E00E948305A50194010E
:104E600069E289EC96E00E948305882379F0CE01FF
:104E700001960E942705882349F387E18EC902E045
:104E8000812C912CA12C40E4B42EE0CF0230C9F447
:104E900020E030E0A9016AE389EC96E00E948305F6
:104EA000882311F082E179C90E944C05807C803C06
:104EB00009F403E00E944C050E944C050E944C0539
:104EC000F02E89EC96E00E94710580E58093CB0678
:104ED00081E08093CC06F092D30665C960E08091B2
:104EE000C7069091C8060E944407882381F087EA8C
:104EF00096E00E946A091092A7061092A9066CE734
:104F000074E087EA96E00E94641581116FC983E01E
:104F1000C7C9BFEFEB1AFB0AE0E1EE16E7E2FE06B7
:104F200009F06DC988E090E00E94AE11F0CF212F0A
:104F300030E050E040E0C301B2010E941A2E2093FD
:104F40005D0230935E0240935F0250936002542FE3
:104F5000432F322F22272093500230935102409347
:104F6000520250935302C818D908EA08FB0849E7CF
:104F7000C416D104E104F10424F080E091E00E9421
:104F8000AE1110924A0210924B0210924C021092F3
:104F90004D0281E080934F0282CA80918F0281117D
:104FA00003C081E080938F0281E0D9CA209148023A
:104FB00030914902A901440F551FFE01B196A2E4A8
:104FC000B2E0819191916D917D91861B970B820F3B
:104FD000931F4817590708F0EEC086E0FE01B1960E
:104FE000A2E4B2E001900D928A95E1F730925C0262
:104FF000C0900401D0900501E0900601F0900701F7
:105000008090000190900101A0900201B0900301F6
:1050100069A17AA1072E000C880B990B0E94992F89
:10502000A70196010E94EF2E68AB79AB8AAB9BABD0
:105030006093FF0270930003809301039093020337
:105040006BA17CA1072E000C880B990B0E94992F55
:10505000A70196010E94EF2E6CAB7DAB8EAB9FAB90
:1050600060930303709304038093050390930603F6
:105070006DA17EA1072E000C880B990B0E94992F21
:10508000A70196010E94EF2E6B017C01C0920703DD
:10509000D0920803E0920903F0920A0369817A81B1
:1050A000072E000C880B990B0E94992FA5019401E3
:1050B0000E94EF2E20913E0230913F02409140022B
:1050C000509141020E947D2E60930F037093100354
:1050D00080931103909312036B817C81072E000C47
:1050E000880B990B0E94992FA50194010E94EF2E25
:1050F00020913A0230913B0240913C0250913D0296
:105100000E947D2E60931303709314038093150304
:10511000909316036D817E81072E000C880B990BEE
:105120000E94992FA50194010E94EF2E2091360232
:105130003091370240913802509139020E947D2E01
:1051400060931703709318038093190390931A03C5
:1051500028A939A94AA95BA9CA01B9010E944E3000
:105160004B015C012CA93DA94EA95FA9CA01B90157
:105170000E944E309B01AC01C501B4010E947E2EFD
:105180004B015C01A7019601C701B6010E944E3098
:105190009B01AC01C501B4010E947E2E0E94113119
:1051A00060930B0370930C0380930D0390930E0395
:1051B00030921F033ECA8EA49FA4E815F90509F09A
:1051C00000CF16CF69A17AA18BA19CA18B019C0174
:1051D000005315472109310901391F452140310587
:1051E00018F01092200350CA6093F3027093F402F7
:1051F0008093F5029093F60209811A812B813C81FC
:105200000093F7021093F8022093F9023093FA0208
:10521000C0905D02D0905E02E0905F02F09060026C
:105220001C141D041E041F040CF059C00E94992F69
:105230004B015C01C701B6010E94992F9B01AC0193
:10524000C501B4010E94EF2E2BEA3CED42E45EE37F
:105250000E94BB309B01AC0160E070E080E89FE3FE
:105260000E947D2E20E03AE24DE257E40E944E304B
:105270006B017C0120E030E04AEF53E4C701B60146
:105280009F770E94493018160CF4ABCF80914F02E3
:10529000811129C0C0924A02D0924B02E0924C0286
:1052A000F0924D0230924F0280914A0290914B024F
:1052B000A0914C02B0914D028093FB029093FC02AE
:1052C000A093FD02B093FE0240921B0350921C0378
:1052D00060921D0370921E0330922003D5C9C12C29
:1052E000D12C7601C7CF80904A0290904B02A090BB
:1052F0004C02B0904D02A5019401C701B6010E9475
:105300007D2E23E333E343EB5EE30E944E30A501A1
:1053100094010E947E2E60934A0270934B02809308
:105320004C0290934D02C0CF53014201881A990A52
:10533000AA0ABB0A22E382169104A104B10408F46C
:10534000B7CA2091790230917A0240917B02509144
:105350007C02C701B6010E947D2E20E030E04AE7C2
:1053600054E40E944E3068AB79AB8AAB9BABC5016D
:10537000B4010E94972F9B01AC0168A979A98AA961
:105380009BA90E94EF2E6093750270937602809322
:105390007702909378027CCA073008F0AECA1123D6
:1053A00099F06091750270917602809177029091E8
:1053B00078029F7720E030E040E05FE30E94EA2E31
:1053C000182F111F1127111F80911F038823B9F077
:1053D00020E030E040E85FE360910B0370910C0344
:1053E00080910D0390910E030E947D2E9F7720E007
:1053F00030E040E85EE30E94EA2E87FD7EC3109213
:10540000610210926202109263021092640275CAE5
:1054100080911F03882309F470CA20E030E040E245
:1054200050E460910B0370910C0380910D039091F7
:105430000E030E94493087FF3EC010927102109205
:1054400072021092730210927402C0906D02D0909A
:105450006E02E0906F02F0907002C114D104E1047A
:10546000F10409F44ACA112309F45DC020E030E0D8
:1054700040EC5FE36091FB027091FC028091FD02C1
:105480009091FE020E94EA2E87FF4DC0D301C20117
:105490008C199D09AE09BF09893E9340A105B1054C
:1054A00008F42BCA10926D0210926E0210926F02D5
:1054B0001092700222CA8091710290917202A091A2
:1054C0007302B09174020097A105B10549F44092AE
:1054D0007102509272026092730270927402B5CFA0
:1054E00053014201881A990AAA0ABB0AD501C401CC
:1054F000CC97A105B10508F4A8CF80916D029091D9
:105500006E02A0916F02B0917002892B8A2B8B2BB7
:1055100009F09BCF40926D0250926E0260926F0232
:105520007092700292CF40929002509291026092DB
:1055300092027092930280E090E0DC01112341F02E
:105540008091FB029091FC02A091FD02B091FE02BD
:1055500080938B0290938C02A0938D02B0938E0265
:1055600010927D0210927E0210927F0210928002B1
:1055700082E00E948C11C1C980911F03882381F0B1
:1055800020E030E040EA5FE360910B0370910C0390
:1055900080910D0390910E030E94EA2E87FD09C0B1
:1055A0001092690210926A0210926B0210926C02C1
:1055B000A4C98091690290916A02A0916B02B09196
:1055C0006C020097A105B10549F44092690250921E
:1055D0006A0260926B0270926C028FC9A301920101
:1055E000281B390B4A0B5B0BDA01C9018035910589
:1055F000A105B10508F481C983E0BBCF112309F4EB
:105600007CC98090FB029090FC02A090FD02B090BB
:10561000FE0220918B0230918C0240918D025091BC
:105620008E02C501B4010E944930181644F48092DC
:105630008B0290928C02A0928D02B0928E02C0904A
:105640009002D0909102E0909202F0909302C114E7
:10565000D104E104F10409F488C9D301C2018C1911
:105660009D09AE09BF0980399140A105B10508F433
:1056700051C9A501940160918B0270918C028091B7
:105680008D0290918E020E947D2E20E030E040E05D
:1056900050E40E94493087FF09C0109265021092C1
:1056A0006602109267021092680227C98091650213
:1056B00090916602A0916702B09168020097A105DF
:1056C000B10549F440926502509266026092670209
:1056D0007092680212C953014201881A990AAA0AF3
:1056E000BB0AD501C40186399105A105B10508F4AD
:1056F00011C984E00E948C1180918F02823019F0D0
:1057000080E00E94721185E034CF63015201A81A33
:10571000B90ACA0ADB0AD601C501803D9740A10536
:10572000B10508F4EAC887E024CF3092E00291CABC
:10573000E6EBF2E0D4CA5CE2B52EBC926091B60210
:105740007091B7028091B8029091B9022AE0AE013F
:105750004F5F5F4F0E94BF2DAE014F5F5F4F64EF01
:1057600073E0C8010E94010DDC01BC924091BA02B5
:105770005091BB026091BC027091BD0221E0019684
:105780000E948118FC01B0824091BE025091BF027C
:105790006091C0027091C10222E001960E948118BE
:1057A000DC01BC924091C2025091C3026091C402DC
:1057B0007091C50222E001960E948118FC01B0821E
:1057C0004091C6025091C7026091C8027091C9020F
:1057D00022E001960E948118DC01BC924091CA022D
:1057E0005091CB026091CC027091CD0222E00196E3
:1057F0000E948118FC01B0824091CE025091CF02EC
:105800006091D0027091D10222E001960E9481182D
:10581000DC01BC924091D2025091D3026091D4023B
:105820007091D50221E001960E948118FC01B0829E
:105830004091D6025091D7026091D8027091D9025E
:1058400021E001960E948118DC01BC924091DA02AD
:105850005091DB026091DC027091DD0221E0019643
:105860000E9481189C012F5F3F4FFC01B082E091A4
:10587000B502E430A8F4F0E0EE0FFF1FEA5BFE4F44
:105880000190F081E02DC901DC01249101962223D1
:1058900051F0319603E0A33FB00728F42C93F4CFE6
:1058A000E8EBF2E0F0CF2CE22C934091E102509132
:1058B000E20270E060E00E941D0EDC011C920E947A
:1058C0001811892B39F480E190E00E94AE1182E03A
:1058D0008093A402B8ECCB16D104E104F10440F0AB
:1058E0004092E3025092E4026092E5027092E60276
:1058F0004091A30210919602413009F0142F80913B
:10590000980290919902A0919A02B0919B020097FF
:10591000A105B10571F053014201881A990AAA0A3A
:10592000BB0AD501C401883E9340A105B10508F426
:1059300050C0D301C2018160809398029093990274
:10594000A0939A02B0939B0254E030E020E0ECEB8D
:10595000F2E0849160917B00982F990F990F9072DB
:105960006F7D962B90937B008770806480937C0082
:1059700080917A00806480937A0080917A0086FD1D
:10598000FCCF8091780090917900280F391F5150F9
:10599000F1F64230F0F4A7E7B1E00E946E2E2FEF4F
:1059A00033E040E050E00E944C2E2C30F3E03F0703
:1059B00008F090C080919702833018F48F5F809335
:1059C000970280919702833020F080E092E00E945D
:1059D000AE1180919C0290919D0287709927892B2E
:1059E00009F088C08AEF90E0183040F4E12FF0E031
:1059F000EE0FFF1FE25BFE4F8081918140919F027D
:105A00005091A0026091A1027091A2025301420143
:105A1000841A950AA60AB70AB501A401B0E0A0E06D
:105A2000481759076A077B0780F040929F025092FF
:105A3000A0026092A1027092A20260919E02632570
:105A400060939E0285E00E949A038091A302409198
:105A5000A6025091A7026091A8027091A902630169
:105A60005201A41AB50AC60AD70AB601A501483CD4
:105A700051056105710540F04092A6025092A702BF
:105A80006092A8027092A9028730C1F48091A502A9
:105A9000811114C08091A402813071F48CE594E0EE
:105AA0000E946A098CE594E00E946A0910925C04E5
:105AB00010925E041092A4023092A50280E0C82EDB
:105AC00080E0D82ECD2811F40C94EA220E94000028
:105AD0000C94E8222B32334008F47BCF80919C0257
