:100000000C94DB010C9403020C9403020C94030285
:100010000C9403020C9403020C9403020C9403024C
:100020000C9403020C9403020C941E1B0C948D1B65
:100030000C9403020C9403020C9403020C9403022C
:100040000C9403020C94611E0C9403020C940302A2
:100050000C9403020C9403020C9403020C94BF1D35
:100060000C9403020C942F1E0C94091E0C94030292
:100070000C9403020C9403020C9403020C940302EC
:100080000C9403020C9403020C9403020C940302DC
:100090000C941D1F0C9403020C9403020C94030295
:1000A0000C9403020C9403020C940302076342367F
:1000B000B79BD8A71A39685618AEBAAB558C1D3CF9
:1000C000B7CC5763BD6DEDFD753EF6177231BF00BD
:1000D0000000803F08000000BE922449123EABAAF7
:1000E000AA2ABECDCCCC4C3E00000080BEABAAAA52
:1000F000AA3E00000000BF000000803F000000009A
:1001000000084178D3BB4387D1133D190E3CC3BDD2
:100110004282AD2B3E68EC8276BED98FE1A93E4C7F
:1001200080EFFFBE01C4FF7F3F0000000000475288
:100130004F554E445F5A45524F004241434B555034
:100140005F4445504C4F5900435249544943414C38
:100150005F4552524F52004C414E44454400444585
:100160005343454E54005245434F564552595F4400
:1001700045504C4F590041504F4745455F434F4E06
:100180004649524D454400424F4F53545F454E44FB
:10019000004C41554E43485F444554454354454403
:1001A00000524541445900524144494F5F4641493C
:1001B0004C00524144494F5F4F4B0053445F46410E
:1001C000494C0053445F4F4B0053454E534F5253DD
:1001D0005F4F4B00504F5745525F4F4E00455252B4
:1001E0004F52004C414E444544005245434F564502
:1001F00052590044455343454E540041504F4745E2
:100200004500434F41535400424F4F535400524511
:1002100041445900494E4954004552524F520044FE
:1002200045504C4F5945440041524D4544005341BF
:100230004645003F0074696D655F6D732C666C699F
:100240006768745F74696D655F6D732C7061636B53
:1002500065745F69642C73746174652C7072657366
:10026000737572655F70612C74656D705F632C616E
:100270006C7469747564655F6D2C6D61785F616C19
:100280007469747564655F6D2C61782C61792C617B
:100290007A2C67782C67792C677A2C7265636F7675
:1002A0006572795F73746174652C6572726F725FC9
:1002B000666C616773003F003F000706050401009C
:1002C000080A0B0C0D0900000000240027002A007A
:1002D0002D00300000000000250028002B002E001B
:1002E00031000404040404030405020202020403AE
:1002F00002020202060606060606040402020204C0
:100300000404080201104080401020408040800812
:100310000204018040201002011080102040402083
:100320000000000200090F0000030401000C00009F
:1003300000000000000000000000000000000008B5
:100340000B0002020200000904000001020200008A
:1003500005240010010524010101042402060524DE
:100360000600010705810310004009040100020A8C
:10037000000000070502024000000705830240005C
:10038000000403090412010002EF02014041233678
:100390008000010102030141726475696E6F204C97
:1003A0004C430041726475696E6F204C656F6E61DD
:1003B00072646F006F2011241FBECFEFDAE0DEBF42
:1003C000CDBF11E0A0E0B1E0EAEDFEE602C005908D
:1003D0000D92AE3CB107D9F728E0AEECB1E001C018
:1003E0001D92A234B207E1F711E0CBEDD1E004C0D9
:1003F0002197FE010E944F37CA3DD107C9F70E94DD
:1004000043210C946B370C940000CF93DF93EC01E5
:100410002DE534E050E047E0D9012C173D0788F482
:100420002F5F3F4F9C91952788E0592F550F97FFDD
:1004300004C0E92FEE0F5E2F54278150952FA9F7A6
:10044000EBCFDE0184E0CC39D807A0F411968AE224
:100450008883E4E0AC39BE07C8F41196852F90E09C
:1004600024E0959587952A95E1F78B599E4FFC01DD
:1004700080818983F4E0AC39BF0740F4E52FEF7049
:10048000F0E0EB59FE4F80818C931196CD01DF9106
:10049000CF910895FC0180910C04882311F13FB79E
:1004A000F89482E08093E9002091F200822F90E09E
:1004B0001816190614F481E090E0882339F0289882
:1004C00044E640930B044091F1004083222339F02D
:1004D0002091F200211103C02BE62093E8003FBFDA
:1004E00008958FEF9FEF08952FB7F89483E08093DE
:1004F000E9009091E800892F807295FF04C09091E7
:10050000F20080E4891B2FBF0895809103048111BC
:100510000DC082E08093FF0384E08093000410927A
:1005200002041092010481E0809303048FEF93E0B2
:100530000895CF93DF931F92CDB7DEB76983DC01B7
:10054000ED91FC910280F381E02D41E050E0BE018D
:100550006F5F7F4F09950F90DF91CF91089583E0F2
:100560008093E9008091F200882319F08AE3809358
:10057000E80008950E94740290E00895CF93DF93FD
:100580001F92CDB7DEB7FC018485958597FD08C025
:100590002FEF3FEF358724870F90DF91CF9108959C
:1005A000CE0101960E944A02019719F4898190E0D8
:1005B000F3CF8FEF9FEFF0CF0F931F93CF93DF9386
:1005C0001F92CDB7DEB78C01FC018485958597FF1E
:1005D0000BC0CE0101960E944A02019771F48981F5
:1005E00090E0F80195878487F801848595850F90C0
:1005F000DF91CF911F910F9108958FEF9FEFF1CF72
:10060000FC018485958597FD0BC09FB7F89482E027
:100610008093E9008091F2009FBF90E001960895D9
:100620009FB7F89482E08093E9008091F2009FBF29
:1006300090E008954091F9035091FA032091F70357
:100640003091F80342175307B4F49091E800957085
:10065000E1F39091E80092FD19C08093F100809140
:10066000F9039091FA0301968F739927892B19F456
:100670008EEF8093E8008091F9039091FA03019640
:100680009093FA038093F90381E0089580E0089540
:10069000DF92EF92FF920F931F93CF93DF93D82EA9
:1006A0008A01EB017B01E40EF51ECE15DF0559F042
:1006B000D7FE12C0FE0184910E941A032196811177
:1006C000F4CF0FEF1FEFC801DF91CF911F910F9172
:1006D000FF90EF90DF9008958881EECF0F931F93E6
:1006E000CF93DF931F92CDB7DEB782E0898342E4D8
:1006F00050E06FE373E080E80E9448030E948502A7
:10070000DC0112960D911C910115110589F0D8019B
:10071000ED91FC910280F381E02DBE016F5F7F4F70
:10072000C801099597FD04C0F80100851185ECCF3B
:1007300089810F90DF91CF911F910F9108956150A2
:1007400030F02091F100FC0120830196F8CF289829
:1007500084E680930B040895282F30E0F901E05ED1
:10076000FC4F9491F901EF5FFC4F84912E513D4F66
:10077000F9012491222309F430C09923E9F0915022
:100780009F30D0F4E92FF0E0E853FC4F0C944F3742
:10079000F603FA03D703EE03F203DC03DC03DC0306
:1007A000FD03030407040B041104DC0315049091FA
:1007B00080009F7790938000E22FF0E0EE0FFF1F04
:1007C000EC52FD4FA591B4919FB7F894EC91611153
:1007D00032C080958E238C939FBF089590918000A6
:1007E0009F7DE8CF90918000977FE4CF94B59F776D
:1007F00094BDE2CF94B59F7DFBCF909190009F7701
:1008000090939000D9CF909190009F7DF9CF9091D7
:100810009000977FF5CF9091C0009F779093C00094
:10082000CBCF9091C0009F7DF9CF9091C200977F70
:100830009093C200C1CF8E2BCECFCF93DF9390E0A9
:10084000FC01EF5FFC4F24918E519D4FFC01849180
:100850008823D1F090E0880F991FFC01EA53FD4FE7
:10086000A591B491FC01EC52FD4FC591D491611159
:100870000EC09FB7F8948C91E22FE0958E238C9355
:100880002881E223E8839FBFDF91CF9108958FB73E
:10089000F894EC91E22BEC938FBFF6CF3FB7F8942E
:1008A0008091F3039091F403A091F503B091F603C6
:1008B00026B5A89B05C02F3F19F00196A11DB11DBB
:1008C0003FBFBA2FA92F982F8827BC01CD01620FF7
:1008D000711D811D911D42E0660F771F881F991FB2
:1008E0004A95D1F708958F929F92AF92BF92CF927F
:1008F000DF92EF92FF924B015C010E944E046B016C
:100900007C010E944E046C197D098E099F09683E86
:10091000734081059105A8F321E0821A9108A1088E
:10092000B10888EEC80E83E0D81EE11CF11C8114CA
:100930009104A104B10429F7FF90EF90DF90CF90CC
:10094000BF90AF909F908F9008958F929F92AF929B
:10095000BF92CF92DF92EF92FF920F931F93CF93AC
:10096000DF936C017B018A0180911301882309F4D4
:100970005CC080910C04882309F457C08091FE0369
:1009800080FF05C08091E00082608093E000E80174
:10099000B12C8AEFA82E93E0892E2AE3922E20977D
:1009A00011F4BB20D9F10E94740281110AC0AA94EB
:1009B000AA20D9F161E070E080E090E00E94730429
:1009C000EECF8C171D0611F00CF08C2F9FB7F8940A
:1009D0008092E9002091E80025FD02C09FBFDFCF93
:1009E000282F30E0C21BD30BF701815020F041913A
:1009F0004093F100FACFE20EF31EBB2021F090925B
:100A0000E800B12CEBCF8091E80085FDE7CF909214
:100A1000E800BB24B394209709F3F3CF5D9884E6F4
:100A20008093FD03101611063CF081E090E0F60182
:100A30009383828310E000E0C801DF91CF911F9182
:100A40000F91FF90EF90DF90CF90BF90AF909F906D
:100A50008F9008952FB7F8946091EF037091F00391
:100A60008091F1039091F2032FBF089508950895A6
:100A7000AF92BF92CF92DF92EF92FF920F931F93AC
:100A8000CF93DF936C017B018B01040F151FEB01EA
:100A90005E01AE18BF08C017D10759F06991D601A1
:100AA000ED91FC910190F081E02DC6010995892B13
:100AB00079F7C501DF91CF911F910F91FF90EF90D2
:100AC000DF90CF90BF90AF900895FC01538D448D7F
:100AD000252F30E0842F90E0821B930B541710F0E9
:100AE000CF96089501970895FC01918D828D9817F6
:100AF00061F0A28DAE0FBF2FB11D5D968C91928DCE
:100B00009F5F9F73928F90E008958FEF9FEF0895FE
:100B1000FC01918D828D981731F0828DE80FF11DC7
:100B2000858D90E008958FEF9FEF0895FC01918DE2
:100B3000228D892F90E0805C9F4F821B91098F73DB
:100B4000992708958DEE94E00E94960521E0892B67
:100B500009F420E0822F089580E090E0892B29F0AD
:100B60000E94A20581110C9400000895FC01A48D3F
:100B7000A80FB92FB11DA35ABF4F2C91848D90E0BF
:100B800001968F739927848FA689B7892C93A089A2
:100B9000B1898C9182748C93938D848D981306C047
:100BA0000288F389E02D80818F7D80830895EF9204
:100BB000FF920F931F93CF93DF93EC0181E0888F17
:100BC0009B8D8C8D981319C0E889F989808185FFE8
:100BD00014C09FB7F894EE89FF896083E889F9898A
:100BE0008081827480839FBF81E090E0DF91CF910C
:100BF0001F910F91FF90EF900895F62E0B8D10E04E
:100C00000F5F1F4F0F731127E02E8C8D8E110CC0BC
:100C10000FB607FCFACFE889F989808185FFF5CF07
:100C2000CE010E94B605F1CFEB8DEC0FFD2FF11D2B
:100C3000E35AFF4FF0829FB7F8940B8FEA89FB8944
:100C400080818062CFCFCF93DF93EC01888D8823A2
:100C5000B9F0AA89BB89E889F9898C9185FD03C01F
:100C6000808186FD0DC00FB607FCF7CF8C9185FF04
:100C7000F2CF808185FFEDCFCE010E94B605E9CF8E
:100C8000DF91CF910895CF93DF93FC01C081D18193
:100C90000E942A05C61BD70B8D2F881F8827881F07
:100CA000DF91CF9108958EBD00000DB407FEFDCFFA
:100CB0008EB50895FC01928183819CBD8DBD81E03C
:100CC000878360E085810E94AC038FEF0C9453060C
:100CD0008FEF0C9453060F931F93CF93DF9300D0A5
:100CE000CDB7DEB78C010E942A05600F711F7A8391
:100CF00069830E9468068F3F71F0CE0101960E94C1
:100D000043068823B1F380E00F900F90DF91CF91DD
:100D10001F910F91089581E0F7CFCF93DF93FC01EE
:100D20002781222349F0EC0161E085810E94AC0318
:100D30008FEF0E9453061F82DF91CF910895DF92BB
:100D4000EF92FF920F931F93CF93DF93EC01162F37
:100D5000022FF32EE42ED52E0E9477078823C1F1AF
:100D60008F81811103C0CE010E945A06111128C043
:100D7000812F80640E9453068D2D0E9453068E2D74
:100D80000E9453068F2D0E945306802F0E94530607
:100D900087E8111101C085E90E9453060E94680688
:100DA0001AE00E946806898787FF02C01150C9F7C0
:100DB000DF91CF911F910F91FF90EF90DF900895F9
:100DC0001C30B1F28CE291E00E946B068111D0CF11
:100DD0008FEFEECF0F931F93CF93DF93EC01890139
:100DE0008A85833039F089E0440F551F661F771FCD
:100DF0008A95D1F79A01AB0168E1CE010E949F0666
:100E0000882339F08DE08E83CE010E948D0680E02C
:100E100025C08EEF0E945306F80181918EBD1E5FA2
:100E2000E017F10741F08191000000000DB407FECA
:100E3000FDCF8EBDF5CF0DB407FEFDCF8FEF0E9425
:100E400053068FEF0E9453060E94680689878F71B0
:100E5000853049F4CE010E948D0681E0DF91CF916B
:100E60001F910F91089581E28E83CE010E948D061D
:100E7000CBCFEF92FF921F93CF93DF93FC012081A2
:100E800011E020FF12C0EC017C01FBE0EF0EF11C31
:100E90004B815C816D817E81970189819A810E945D
:100EA000EA06182F811108C010E0812FDF91CF9141
:100EB0001F91FF90EF900895888181FD04C0888183
:100EC0008E7F8883F2CF4B815C816D817E818F81A3
:100ED0009885A985BA85480F591F6A1F7B1F9701FE
:100EE00089819A810E94EA068111E9CFDDCF1F93A3
:100EF000CF93DF93EC0188858230C9F488E592E0D6
:100F00000E946B06182F882361F08DEF0E94530614
:100F1000CE010E948D061886812FDF91CF911F91FF
:100F200008958FE18E83CE010E948D06F5CF81302A
:100F3000A1F4188620E030E0A9016CE0CE010E9407
:100F40009F06882339F089E08E83CE010E948D06AA
:100F500010E0E2CFCE010E948D0611E0DDCFEF92CE
:100F6000FF920F931F93CF93DF9300D0CDB7DEB7DF
:100F70008C017901FC018285833039F089E0440FCE
:100F8000551F661F771F8A95D1F79A01AB0161E162
:100F9000C8010E949F06882341F08BE0F8018683F8
:100FA000C8010E948D0680E03FC00E942A05645D52
:100FB0007E4F7A8369830E946806F80181878F3F9C
:100FC00069F4CE0101960E9443068823A1F38EE1C5
:100FD000F8018683C8010E948D06E2CF8E3F11F092
:100FE00089E1F6CF8FEF8EBDF701D701A150BE4F3B
:100FF0009FEFEA17FB0749F0000000000DB407FE61
:10100000FDCF8EB59EBD8193F4CF0DB407FEFDCF0D
:101010008EB58C93F80111860E9468060E946806BE
:10102000C8010E948D0681E00F900F90DF91CF9153
:101030001F910F91FF90EF900895CF92DF92EF9262
:10104000FF921F93CF93DF93DC011196ED91FC91FA
:10105000EF2B51F490E080E0DF91CF911F91FF9052
:10106000EF90DF90CF900895122F6A017B01EC0181
:101070008B819C81AD81BE818C159D05AE05BF0520
:1010800061F0CE010E943907882321F312FF0CC0C2
:101090001882CB82DC82ED82FE8213702881122BB3
:1010A0001883CE010B96D8CF9E01255F3F4FB70125
:1010B000A60189819A810E94AF078111E9CFCACF29
:1010C0008F929F92AF92BF92CF92DF92EF92FF9258
:1010D0000F931F93CF939093C3058093C2051092F3
:1010E000C70501E010E020E030E00093CA0510934E
:1010F000CB052093CC053093CD059093E4058093E8
:10110000E3051092E2058FEF9FEFDC018093E50588
:101110009093E605A093E705B093E805662309F4EC
:101120004BC020E040E050E0BA0182EE95E00E9422
:101130001D08009769F480E0CF911F910F91FF90F7
:10114000EF90DF90CF90BF90AF909F908F900895D9
:10115000FC01E254FE4F2481222369F320812F7782
:1011600051F78A539E4FFC01C080D180E280F3800A
:1011700020E0B701A60182EE95E00E941D08FC0167
:10118000892BC9F280898230B1F6838594858115D7
:10119000924089F695859093C4058FEF890F8093CF
:1011A000C505C0E081E0981769F0CF5FC93041F410
:1011B00088E08093C605BFCFC12CD12C7601D8CF53
:1011C000880FF1CFC093C60586899789B0E0A0E06B
:1011D0008093CE059093CF05A093D005B093D10511
:1011E000892B8A2B8B2B61F484A195A1A6A1B7A191
:1011F0008093CE059093CF05A093D005B093D105F1
:1012000086859785A7019601280F391F411D511D1D
:10121000DA01C9018093D6059093D705A093D8052C
:10122000B093D905218932893093C9052093C80527
:101230004091CE055091CF056091D0057091D105B8
:101240004A015B01880C991CAA1CBB1C880D991DC6
:10125000AA1DBB1D8093DE059093DF05A093E005DA
:10126000B093E10505E0220F331F0A95E1F7215005
:101270003E4F232F33272695820F931FA11DB11DAB
:101280008093D2059093D305A093D405B093D50550
:1012900083889488B12CA12C81149104A104B104F9
:1012A00021F480A091A0A2A0B3A0C81AD90AEA0A8A
:1012B000FB0AC80CD91CEA1CFB1C04C0F694E7947A
:1012C000D794C794CA95D2F7D701C6010196A11D3C
:1012D000B11D8093DA059093DB05A093DC05B093F4
:1012E000DD0535EFC3163FE0D306E104F10420F439
:1012F0008CE08093C7051FCF85EFC8168FEFD80607
:10130000E104F10468F480E18093C7054093E905A6
:101310005093EA056093EB057093EC0581E00CCFE8
:1013200084A595A5A6A5B7A58093DE059093DF05B6
:10133000A093E005B093E10580E2E6CF8F929F9203
:10134000AF92BF92CF92DF92EF92FF920F931F93D3
:10135000423051056105710560F480E01F910F91E5
:10136000FF90EF90DF90CF90BF90AF909F908F90C5
:101370000895FC01C08CD18CE28CF38CC416D50688
:10138000E606F70650F3480159016A01858180326B
:1013900029F584899589A689B78917E07695679597
:1013A000579547951A95D1F7480F591F6A1F7B1F0C
:1013B00023E0CF0180960E941D08009771F2CC0CAB
:1013C000DD1CCC0CDD1CF1E0DF228C0D9D1DFC0131
:1013D00080829182A282B38281E0C0CF803109F005
:1013E000BCCF44895589668977894D0D511D611D92
:1013F000711D23E0CF0180960E941D08009709F41B
:10140000ACCFCC0CDD1CF1E0DF22C80ED91EF601FA
:1014100011830083E1CFCF92DF92EF92FF920F937F
:101420001F93CF93DF93423051056105710550F44E
:101430008FEFDF91CF911F910F91FF90EF90DF9091
:10144000CF900895FC01C08CD18CE28CF38CC41633
:10145000D506E606F70660F389016A01EC0185818D
:10146000803299F584899589A689B789E7E07695D0
:10147000679557954795EA95D1F7480F591F6A1F09
:101480007B1F22E0CE0180960E941D08009781F20A
:10149000CC0CDD1CCC0CDD1CF1E0DF228C0D9D1D85
:1014A000FC0180819181A281B381488D598D6A8D23
:1014B0007B8D481759076A077B0730F1F801808355
:1014C0009183A283B38381E0B4CF803109F0B0CFA0
:1014D00044895589668977894D0D511D611D711D9E
:1014E00022E0CF0180960E941D08009709F4A0CF4A
:1014F000CC0CDD1CF1E0DF22C80ED91EF601808184
:101500009181B0E0A0E0D1CF80E093CF0F931F9303
:10151000CF93DF93FC012081211106C081E0DF9190
:10152000CF911F910F910895EC01828187FF3AC0FE
:1015300044895589668977898681978121E08096DB
:101540000E941D08009729F489818160898380E0C9
:10155000E6CFEC81FD81EF70FF2725E0EE0FFF1F46
:101560002A95E1F7E80FF91F309771F38081853EE6
:1015700059F3888187738387888183FF08C0888DAA
:10158000998DAA8DBB8D848F958FA68FB78F8C8DEB
:101590009D8DAE8DBF8D938F828FB58BA48B8A81ED
:1015A0008F778A830E811F81C80180960E94390738
:1015B000882351F2F801808191810E947707882366
:1015C00019F2ACCF4F925F926F927F928F929F925F
:1015D000AF92BF92CF92DF92EF92FF920F931F9341
:1015E000CF93DF93EC014A015B014C845D846E84F0
:1015F0007F842881222309F487C0488959896A8910
:101600007B89481559056A057B0581F08114910491
:10161000A104B10469F41C861D861E861F86888A73
:10162000998AAA8ABB8A8A818F7D8A8381E071C068
:1016300023FF57C0888D998DAA8DBB8D881599057C
:10164000AA05BB0508F460C0EE81FF813481375FD5
:101650007501640181E0C81AD108E108F108032E80
:1016600004C0F694E794D794C7940A94D2F7DB01A8
:10167000CA010197A109B10904C0B695A79597952C
:1016800087953A95D2F7C816D906EA06FB0628F0E0
:10169000452B462B472B09F052C027FF4BC0848DAA
:1016A000958DA68DB78D8C879D87AE87BF878E0160
:1016B000045F1F4FC114D104E104F10409F4AFCF5A
:1016C0004C855D856E857F8598018E819F810E9406
:1016D0000B0A91E0C91AD108E108F108181654F371
:1016E00013C026FFB1CFEE81FF818681978125E06F
:1016F000880F991F2A95E1F7B0E0A0E088159905B9
:10170000AA05BB0508F08BCF4C865D866E867F866A
:1017100080E0DF91CF911F910F91FF90EF90DF90CC
:10172000CF90BF90AF909F908F907F906F905F9081
:101730004F9008958C8D9D8DAE8DBF8DB4CFC81AFE
:10174000D90AEA0AFB0AB3CF3F924F925F926F9297
:101750007F928F929F92AF92BF92CF92DF92EF9241
:10176000FF920F931F93CF93DF9300D000D0CDB79C
:10177000DEB74C01FC01828180688283A680B7803D
:101780004484558466847784F501C084D184E284DE
:10179000F384C414D504E604F70410F011E003C088
:1017A0007301620110E0FFEFCF1ADF0AEF0AFF0AB0
:1017B000F501808D918DA28DB38D8C159D05AE05A3
:1017C000BF0538F4111131C0C084D184E284F384A0
:1017D000E5CF4C145D046E047F0439F19E012F5F48
:1017E0003F4FB701A601C5010E940B0A87FD1DC02E
:1017F0008823C9F289819A81AB81BC81892B8A2B8C
:101800008B2B89F6112329F0F501C086D186E2865B
:10181000F3860FEF1FEF2FEF3FE0B701A601C501E1
:101820000E949E09382E811118C0312C832D0F90F3
:101830000F900F900F90DF91CF911F910F91FF901C
:10184000EF90DF90CF90BF90AF909F908F907F9060
:101850006F905F904F903F90089541145104610440
:10186000710431F4F401C486D586E686F786DECFAE
:1018700097018601B301A201C5010E949E09811151
:10188000F1CFD3CF20912202260F3327331F2132ED
:101890003105ECF420913304FC0190E080E0243029
:1018A00069F082E00895A09122022191AC014E5F7F
:1018B0005D4FA40FB52FB11D2C930196861798F399
:1018C00080912202680F6093220280E0089581E0F7
:1018D00008951092330481E08093320410920D0435
:1018E00061E082E00E94AC0361E083E00E94AC030F
:1018F000E9EBF0E080818E7F808380818D7F808323
:1019000088E48093B80085E48093BC000895CF9369
:10191000DF9391E090934C028823B9F0C091B80016
:10192000D091BA008091BC008A7B8093BC0060E0BB
:1019300082E00E94AC0360E083E00E94AC030E945E
:10194000690CD093BA00C093B800DF91CF9108958D
:101950008F929F92AF92BF92CF92DF92EF92FF92BF
:101960000F931F93CF93DF93D0915C04D13208F093
:10197000D7C0182FC0915B040E944E046B017C01FC
:101980008091330481116BC082E080933304109303
:1019900032048FEF8093310410923004D0932F04DF
:1019A000ABE3B4E0EFE0F4E080E0D81391C0109234
:1019B0000E0480910E04CC0FC82BC0930E048091AE
:1019C0000D04813009F088C010920D040E944E046D
:1019D0006B017C0180910E048093BB0080913504E3
:1019E00090913604A0913704B0913804892B8A2B4A
:1019F0008B2BA1F00E944E04009135041091360407
:101A000020913704309138046C197D098E099F09A3
:101A1000061717072807390708F442C08091BC0051
:101A200083FDD8CF85EC8093BC000E944E046B01EF
:101A30007C0180913304823009F450C080913104DC
:101A40008F3F09F46FC080913104803209F46CC07B
:101A500080913104803309F469C084E026C080910C
:101A6000350490913604A0913704B0913804892B45
:101A70008A2B8B2B09F484CF0E944E04809035046E
:101A800090903604A0903704B09038046C197D090A
:101A90008E099F0986169706A806B90608F070CF2A
:101AA000809134040E94870C85E010923A041092D1
:101AB0005C0410923904DF91CF911F910F91FF9038
:101AC000EF90DF90CF90BF90AF909F908F90089550
:101AD0009D9191938F5F69CF85EEA5CF809135045D
:101AE00090913604A0913704B0913804892B8A2B49
:101AF0008B2B09F49ECF0E944E0400913504109167
:101B0000360420913704309138046C197D098E0910
:101B10009F09061717072807390708F08ACFC0CF93
:101B200081E0C3CF80E0C1CF82E0BFCF83E0BDCFF3
:101B30000895E0914B0280914A02E81730F4F0E0FA
:101B4000EE51FE4F808190E008958FEF9FEF089552
:101B500090914B0280914A022FEF3FEF981748F483
:101B6000E92FF0E0EE51FE4F208130E09F5F90932F
:101B70004B02C901089580914A0290914B02891B42
:101B8000990B0895CF92DF92EF92FF920F931F93DC
:101B9000CF93DF937C01CB018A012091390422236A
:101BA00089F0EB016B01C40ED51ECC15DD0569F083
:101BB0006991D701ED91FC910190F081E02DC70171
:101BC0000995F3CF642F0E94420CC801DF91CF9199
:101BD0001F910F91FF90EF90DF90CF900895CF93DA
:101BE000DF931F92CDB7DEB769832091390422239A
:101BF000F9F020915C04203258F021E030E0FC0143
:101C00003383228390E080E00F90DF91CF9108959D
:101C100080913A04E82FF0E0E55CFB4F99819083D6
:101C20008F5F80933A0480935C0481E090E0ECCF76
:101C300061E0CE0101960E94420CF7CF615071091C
:101C4000FA012491222349F04F5F5F4F86179707CF
:101C500020F4FC012193CF01F3CF08956150710965
:101C6000FA012191AF01222339F08617970720F45A
:101C7000FC012193CF01F4CF0895FC01848583FFFB
:101C800017C084A195A1A6A1B7A1448D558D668DDD
:101C9000778D841B950BA60BB70B811520E8920757
:101CA000A105B10520F08FEF9FE7A0E0B0E0089517
:101CB00080E090E0DC01F1CF0C960C94860A90E075
:101CC00080E008958F929F92AF92BF92EF92FF9221
:101CD0000F931F93CF93DF93E82E80913F08282F17
:101CE00030E0F901EE0FFF1FE20FF31FE65EF74F42
:101CF000908196FD54C08C3008F051C061E086E0C0
:101D00000E941D0480913F08282F30E0F901EE0F5A
:101D1000FF1FE20FF31FE65EF74F9081907C966005
:101D2000908310924008109241082CE0622F0E948C
:101D30004337829FB001112430E020E0AB01420F15
:101D4000531FFA01EE0FFF1FE40FF51FE65EF74F7A
:101D5000908196FD16C02F5F3F4F2C30310571F7F3
:101D600081110FC01092800082E080938100109258
:101D7000850010928400B19A80916F0082608093F8
:101D80006F00E0913F088E2F90E0FC01EE0FFF1FE7
:101D9000E80FF91FE65EF74F808180648083F09042
:101DA0003F088BE08F1508F44DC08091410808E58D
:101DB00012E0081B110987FD1395000F111F000F7A
:101DC000111F80914008C8E8D0E0C81BD10987FDE9
:101DD000D395CC0FDD1FCC0FDD1F4E010D2E000C57
:101DE000AA08BB089801012E000C440B550B2819BA
:101DF00039094A095B09AE2DB0E00E94DF3224EBBD
:101E000030E040E050E00E94C032820E931EA41EDB
:101E1000B51E8C169D062CF0E801801691060CF478
:101E2000E4012297CC0FDD1F2FB7F8948F2D90E09F
:101E3000FC01EE0FFF1FE80FF91FE65EF74FD2839C
:101E4000C1832FBFDF91CF911F910F91FF90EF9032
:101E5000BF90AF909F908F900895CF93C42F91E043
:101E60009093390480935B0410923A0410925C04BE
:101E70008AE895E00E94EF0D6C2F8AE895E00E94B9
:101E8000EF0D81E00E94A80C91E0811190E0892F74
:101E9000CF9108958F929F92AF92BF92DF92EF926F
:101EA000FF920F931F93CF93DF93EC017B018A8105
:101EB00080FFB9C0288188889988AA88BB8823FFB9
:101EC00021C0888D998DAA8DBB8D88199909AA0981
:101ED000BB0982309105A105B10518F5009709F5F8
:101EE00030E020E0A901481B590BCA01DF91CF91D6
:101EF0001F910F91FF90EF90DF90BF90AF909F9058
:101F00008F90089526FF0DC0EE81FF818681978115
:101F100035E0880F991F3A95E1F78815990509F47E
:101F200088C0EE81FF8184011170B501A40189E0B0
:101F300076956795579547958A95D1F726FF27C0DF
:101F4000848D958DA68DB78D480F591F6A1F7B1FF5
:101F50008E819F8120E080960E941D08009709F4E1
:101F600062C0800F911FFC018081F7018083888906
:101F70009989AA89BB890196A11DB11D888B998B6E
:101F8000AA8BBB8B21E030E090E080E0ABCFD38028
:101F9000D4220115110581F4D1100EC089288A2898
:101FA0008B2881F527FF29C0848D958DA68DB78D4F
:101FB0008C879D87AE87BF87EE81FF814C855D85CD
:101FC0006E857F854250510961097109848104C081
:101FD000440F551F661F771F8A95D2F78089918914
:101FE000A289B389840F951FA61FB71FAC01BD013D
:101FF0004D0D511D611D711DABCF8C8D9D8DAE8D15
:10200000BF8DD6CF4C855D856E857F859E01245F13
:102010003F4FCF010E940B0A87FD05C08111CCCF35
:102020008881807D49F48981826089838FEF9FEF69
:102030005DCF30E020E0A8CF21E030E081E090E00B
:1020400051CFEF92FF920F931F93CF93DF931F9285
:10205000CDB7DEB77C01962FF7014089518962899F
:1020600073898A019B0185E0369527951795079519
:102070008A95D1F70F7011F0911129C0BE016F5FE1
:102080007F4FC7010E944A0F813051F090E080E0FD
:102090000F90DF91CF911F910F91FF90EF900895D6
:1020A000F70180899189A289B3894F96A11DB11D3D
:1020B000808B918BA28BB38BF701868197818B9656
:1020C000F0E20F9F90011124820F931FE1CF405E39
:1020D0005F4F6F4F7F4F408B518B628B738BECCF79
:1020E0008F929F92AF92BF92CF92DF92EF92FF9228
:1020F0000F931F93CF93DF931F92CDB7DEB78C0161
:10210000FC01848C958CA68CB78CC08CD18CE28C15
:10211000F38CBE016F5F7F4F0C960E944A0F0197B0
:10212000C9F4898190E0F801848E958EA68EB78ED1
:10213000C08ED18EE28EF38E0F90DF91CF911F91E2
:102140000F91FF90EF90DF90CF90BF90AF909F9056
:102150008F9008958FEF9FEFE6CFCF93DF931F927D
:10216000CDB7DEB7BE016F5F7F4F0C960E944A0F5E
:10217000019731F4898190E00F90DF91CF9108951C
:102180008FEF9FEFF9CF2F923F924F925F926F9216
:102190007F928F929F92AF92BF92CF92DF92EF92F7
:1021A000FF920F931F93CF93DF93EC014B015A01E2
:1021B0008A8181FF8CC083FD81C0A50170E060E051
:1021C00088899989AA89BB8980959095A095B095B1
:1021D00084179507A607B70708F479C065011E01A3
:1021E0008CE0280E311C088919892A893B89C11481
:1021F000D10409F4E5C08E819F81B901A80129E0CD
:1022000076956795579547952A95D1F7DC011396F2
:10221000FC90F4221170F1101BC04C855D856E8519
:102220007F850115110509F0EFC0411551056105C4
:10223000710509F452C091010E940B0A87FD47C045
:10224000811106C0CE010E94A40B882309F43FC06F
:10225000EE81FF814C855D856E857F8542505109F9
:1022600061097109848104C0440F551F661F771FDF
:102270008A95D2F780899189A289B389840F951FA5
:10228000A61FB71FAC01BD014F0D511D611D711D72
:102290000115110521F4C114B2E0DB06C8F580E098
:1022A00092E0801B910B76018C159D0508F47C0152
:1022B0000115110509F448C021E057C0488D598D1A
:1022C0006A8D7B8DCE010E94E20A811176CF8981D1
:1022D00081608983B12CA12C83C08C8D9D8DAE8DA6
:1022E000BF8D0097A105B10571F4CE010E94A40B2A
:1022F000882369F38C859D85AE85BF858C8F9D8FE6
:10230000AE8FBF8FA5CF8C879D87AE87BF87A0CFAD
:1023100083A194A1A5A1B6A1481759076A077B0715
:1023200041F410A28FEF9FEFDC0183A394A3A5A338
:10233000B6A3940181A192A10E94EA06882339F2F2
:10234000E12C82E0F82E2BC0488859886A887B8867
:10235000888D998DAA8DBB8D481659066A067B0615
:1023600018F48A8185FFA8CF25E0CF0180960E94CE
:102370001D08009709F4ABCFA701B401800F911F8E
:102380000E9462370E0D1F1D0115124041F48E810F
:102390009F8180960E943907882309F498CF888905
:1023A0009989AA89BB898E0D9F1DA11DB11D888B9E
:1023B000998BAA8BBB8B8E0C9F1CCE18DF0813CF7A
:1023C000888D998DAA8DBB8D80179107A207B307C1
:1023D00038F4088F198F2A8F3B8F8A8180688A830F
:1023E000C501DF91CF911F910F91FF90EF90DF908A
:1023F000CF90BF90AF909F908F907F906F905F90A5
:102400004F903F902F900895FC014250510961096F
:102410007109848104C0440F551F661F771F8A9578
:10242000D2F780899189A289B389480F591F6A1F01
:102430007B1F35CF0C960C94C310CF93DF931F9264
:10244000CDB7DEB7698341E050E0BE016F5F7F4FDB
:102450000C960E94C3100F90DF91CF910895FB015D
:1024600001900020E9F73197AF01461B570BDC01C3
:10247000ED91FC910280F381E02D09940F931F935D
:10248000CF93DF93EC010E942F128C016EEB71E071
:10249000CE010E942F12800F911FDF91CF911F91CB
:1024A0000F9108954F925F926F927F928F929F92B9
:1024B000AF92BF92FF920F931F93CF93DF93D82FCA
:1024C000042FF52E122F81E080933904D0935B0402
:1024D00010923A0410925C048AE895E00E94EF0D95
:1024E00080E00E94A80CC82F8111CCC00E944E042D
:1024F0004B015C0180913304811165C081E08093C0
:102500003304809332049FEF90933104109230048F
:10251000910F90932F0480930E0480910E04DD0F91
:10252000D82BD0930E0480910D04813009F084C023
:1025300010920D040E944E044B015C0180910E0428
:102540008093BB008091350490913604A0913704AC
:10255000B0913804892B8A2B8B2BA1F00E944E045A
:1025600040903504509036046090370470903804E1
:10257000681979098A099B0946165706680679067B
:1025800008F442C08091BC0083FDD8CF85EC8093D5
:10259000BC000E944E044B015C01809133048130E9
:1025A00009F44CC080913004811708F069C0809113
:1025B0003004AFE0B4E0E2EEF1E0C81749F19D91DC
:1025C0009193CF5FFACF8091350490913604A0911A
:1025D0003704B0913804892B8A2B8B2B09F48ACFCE
:1025E0000E944E04409035045090360460903704A9
:1025F00070903804681979098A099B0946165706AC
:102600006806790608F076CF809134040E94870C22
:1026100010924B02C0934A021C1334C0B02EC02F3C
:10262000DF2D8AE895E00E94A80D89938C2F8B19E5
:102630008117B8F381E027C085EEA9CF80913504DA
:1026400090913604A0913704B0913804892B8A2BDD
:102650008B2B09F4A2CF0E944E0440903504509079
:1026600036046090370470903804681979098A0933
:102670009B09461657066806790608F08ECFC4CF28
:10268000812F97CF80E0DF91CF911F910F91FF9025
:10269000BF90AF909F908F907F906F905F904F9082
:1026A0000895EF92FF920F931F93CF93DF93CDB7CF
:1026B000DEB72C970FB6F894DEBF0FBECDBF7C01FE
:1026C0008B012CE0AE014F5F5F4F6DE288E60E9408
:1026D0005212882361F129813A8132272327322738
:1026E000F701318320832B813C8132272327322736
:1026F000338322832D813E8132272327322735835E
:1027000024832F813885322723273227F80131830C
:10271000208329853A853227232732273383228352
:102720002B853C85322723273227358324832C961B
:102730000FB6F894DEBF0FBECDBFDF91CF911F91D2
:102740000F91FF90EF9008952F923F924F925F92DA
:102750006F927F928F929F92AF92BF92CF92DF92B1
:10276000EF92FF920F931F93CF93DF93CDB7DEB716
:1027700028970FB6F894DEBF0FBECDBF98878F8322
:102780007B0126E0AE014F5F5F4F67EF87E70E9456
:102790005212082F882309F4E9C119812A803B804D
:1027A0008C8190E0B0E0A0E02CE0880F991FAA1F78
:1027B000BB1F2A95D1F74D8150E070E060E034E016
:1027C000440F551F661F771F3A95D1F7842B952B21
:1027D000A62BB72B2E8130E044E0359527954A95FE
:1027E000E1F7032E000C440B550B822B932BA42BEB
:1027F000B52B40914D0250914E0270E060E02C01EB
:102800003D01E4E07594679457944794EA95D1F7B5
:10281000441A550A660A770AF3E0B595A795979585
:102820008795FA95D1F7440F551F661F771F5C01F6
:102830006D01A41AB50AC60AD70AA6019501A0918E
:102840004F02B09150020E94EA324B015C013BE022
:10285000B594A794979487943A95D1F7A3019201E0
:10286000C301B2010E9433379B01AC016CE0559566
:102870004795379527956A95D1F7A0915102B09168
:1028800052020E94EA322B013C017EE0759467946B
:10289000579447947A95D1F7480C591C6A1C7B1CB5
:1028A00040926502509266026092670270926802DE
:1028B000A5E0B0E0A30192010E94DF3260587F4F93
:1028C0008F4F9F4F672F782F892F992787FD9A95D4
:1028D0000E943F3420E030E048EC52E40E949533FF
:1028E000F701608371838283938373016201F5949E
:1028F000E794D794C794FAEFDF1AE108F108C7010B
:10290000B601A2E09595879577956795AA95D1F739
:102910009B01AC010E9433374B015C01A09157022F
:10292000B0915802AC019B018DE0559547953795C4
:1029300027958A95D1F70E94EA322B013C0193E05A
:1029400075946794579447949A95D1F7A09155023E
:10295000B0915602A70196010E94EA329B01AC0198
:102960005595479537952795240D351D461D571DBF
:1029700072E155954795379527957A95D1F7305857
:102980004F4F5F4FA0915302B09154020E94DF322B
:102990002B013C01EFE07594679457944794EA95B6
:1029A000D1F7411451046104710409F404C1A50173
:1029B00094018BE055954795379527958A95D1F7E2
:1029C000A0915D02B0915E020E94EA324B015C016F
:1029D000A0915B02B0915C02A70196010E94EA32CD
:1029E000DC01CB01880F991FAA1FBB1F880D991D01
:1029F000AA1DBB1D6C017D0132E0F594E794D794CC
:102A0000C7943A95D1F7212F30E050E040E06CE0D8
:102A1000220F331F441F551F6A95D1F7822D90E076
:102A2000B0E0A0E074E0880F991FAA1FBB1F7A9541
:102A3000D1F7282B392B4A2B5B2B832D90E0E4E038
:102A400095958795EA95E1F7092E000CAA0BBB0B2B
:102A5000282B392B4A2B5B2B8091590290915A02DB
:102A6000092E000CAA0BBB0BDC01992788278C0DC3
:102A70009D1DAE1DBF1D1CE0B595A795979587952B
:102A80001A95D1F7280F391F4A1F5B1FABECB3EF24
:102A90000E94ED32805B9C4397FD82C0660F771FDA
:102AA000881F991FA30192010E94F23229013A0165
:102AB000C301B20123E096958795779567952A958E
:102AC000D1F79B01AC010E9433379B01AC016DE053
:102AD00056954795379527956A95D1F7A09163024A
:102AE000B09164020E94EA326B017C017CE0F594B3
:102AF000E794D794C7947A95D1F7A3019201E2E0C5
:102B00005695479537952795EA95D1F7A09161029B
:102B1000B09162020E94EA329B01AC01FDE0559542
:102B2000479537952795FA95D1F72C0D3D1D4E1DEC
:102B30005F1DC0905F02D09060020D2C000CEE086B
:102B4000FF082C0D3D1D4E1D5F1DA4E055954795BA
:102B500037952795AA95D1F7420E531E641E751E10
:102B6000EF81F8854082518262827382802F28969D
:102B70000FB6F894DEBF0FBECDBFDF91CF911F918E
:102B80000F91FF90EF90DF90CF90BF90AF909F900C
:102B90008F907F906F905F904F903F902F9008950F
:102BA000A30192010E94F23229013A01440C551C02
:102BB000661C771C7DCF412C512C3201D1CFFC01FA
:102BC000808181110EC080E2DF011D928A95E9F7B4
:102BD00077836683DB0115968C91803121F08032FA
:102BE00039F080E0089580E4808381E08283089555
:102BF00080E8FACFCF92DF92EF92FF920F931F936C
:102C0000CF93DF93FC0180E2DF011D928A95E9F703
:102C1000DB011696CD91DC911797D783C683558338
:102C200044835C96CD90DD90ED90FC905F97C086DC
:102C3000D186E286F386DE019B964F70552795E09C
:102C4000440F551F9A95E1F7A40FB51F1B968C9161
:102C50001B9783FD12C0877380831B969C911B97E3
:102C6000987111F48860808303832370213009F404
:102C700048C038F0223009F442C01082128280E04D
:102C800035C081E08283828181FF06C08081982FD8
:102C9000917199F7806280834BA15CA16DA17EA1A7
:102CA000448B558B668B778B54964D915C915597E1
:102CB00070E060E0BA01552744275A960D911C91A7
:102CC0005B9730E020E0402B512B622B732B448F1D
:102CD000558F668F778F5C968D919D910D90BC91ED
:102CE000A02D808F918FA28FB38F81E0DF91CF9144
:102CF0001F910F91FF90EF90DF90CF90089583E0A8
:102D0000C1CF82E0BFCF4F925F926F927F928F923E
:102D10009F92AF92BF92CF92DF92EF92FF920F936A
:102D20001F93CF93DF935C01EB016A01922E40E089
:102D300050E0BA01CE010E94E20AF12CE12C712C84
:102D4000612C00E010E026012FEF421A520A61E0E8
:102D5000CE010E942110BC010097B1F48981882323
:102D600009F495C080E0DF91CF911F910F91FF9002
:102D7000EF90DF90CF90BF90AF909F908F907F901B
:102D80006F905F904F900895FC019081953E09F4FB
:102D900075C0992309F477C0838583FD11C04BE08A
:102DA00050E0C2010E945537892B09F06AC0292DD5
:102DB000A70196FCD7CFBE01C5010E94FA15D3CF5B
:102DC0008F3009F05EC096FF02C0092F0F71FFEF30
:102DD000EF1AFF0ABCCF370100E011E0F8CF848181
:102DE00020E032E002C0220F331F8A95E2F7888983
:102DF0009989AA89BB89820F931FA11DB11D888B58
:102E0000998BAA8BBB8B3701A30170E060E085E052
:102E1000440F551F661F771F8A95D1F7CE010E9478
:102E2000E20A882309F49ECF60E0CE010E942110BF
:102E3000009709F497CF20E2FC0111922A95E9F757
:102E4000F60131962BE0DC0101900D922A95E1F715
:102E5000F60120812871FC01248721E23CE5318BB9
:102E6000208B318F208F338B228BEE81FF8180A1CD
:102E7000816080A300E0292DA3019DCF112309F4D7
:102E8000AACF00E0A4CF111102C0370111E094FED7
:102E900069CF892D83708150823008F063CF111182
:102EA000B3CF888186FD5ECF88899989AA89BB893D
:102EB00081159E4FAF41B10508F054CFCE010E945D
:102EC000A40B882309F44ECFEE81FF814C845D84EE
:102ED0006E847F8432E0431A51086108710884814E
:102EE00004C0440C551C661C771C8A95D2F7808957
:102EF0009189A289B389480E591E6A1E7B1E812CB6
:102F000000E012E0EE81FF818281881608F067CF31
:102F100025E0B301A201480D511D611D711DCF01B6
:102F200080960E941D08009709F41CCFFC019801AF
:102F3000119221503040E1F78394E4CF8F929F9219
:102F4000AF92BF92CF92DF92EF92FF920F931F93B7
:102F5000CF93DF93CDB7DEB7AC970FB6F894DEBF53
:102F60000FBECDBF8C017A01B22E19821A821B824C
:102F7000FC0180818823A1F080E0AC960FB6F89424
:102F8000DEBF0FBECDBFDF91CF911F910F91FF909C
:102F9000EF90DF90CF90BF90AF909F908F9008956B
:102FA000FB018081807D41F3FA0180818F32B1F491
:102FB0007F0181918F32E1F3FB016681778181117D
:102FC00004C0C8010E94DF15D8CFCE0101960E942F
:102FD000DF15BE016F5F7F4F882371F26E01FDE246
:102FE000CF0ED11C20E2A22EFE01B2969F01A1922B
:102FF000CE16DF06E1F7D70187E0E82EE0E098E0A3
:10300000992E90E0F12CAD014F5F5F4F8C9188239A
:1030100009F444C08F3209F441C08E3251F4F7E014
:10302000EF1212C08AE0E82EE8E08E2EF0E19F2E2B
:103030002CC0823209F4A0CF8C3709F49DCFF5EA79
:10304000F80FF33008F498CFF6EDF80FF63018F4D7
:103050008D3209F091CFF6ECF80FF63008F48CCFF2
:10306000FFEDF80FFE3508F087CFEE1608F484CF99
:10307000FFE9F80FFA3160F480529929882483948B
:103080008E0EE20FF32FF11D8083DA01E82DBBCF06
:10309000FFEBF80FFA3190F7F928F0CF8AA18032D0
:1030A00009F46ACFF92209F090E099A37D018C918F
:1030B00011968F32D9F3811108C02B2DAE014F5DCF
:1030C0005F4FC8010E94831658CF20E0AE014F5DCC
:1030D0005F4FC8010E948316882309F44DCF80E218
:1030E000F801DE01119601900D928A95E1F7C80171
:1030F0000E94860AF80110821282BE016F5F7F4F24
:1031000073CF85ED8093BC00809135049091360497
:10311000A0913704B09138040796A11DB11D23E09A
:10312000B695A795979587952A95D1F72091BC00DC
:1031300024FD03C01092330408954091350450914A
:1031400036046091370470913804452B462B472B89
:1031500069F30097A105B10541F02AE22A95F1F73C
:1031600000C00197A109B109E1CF809134040C940A
:10317000870CBF92CF92DF92EF92FF920F931F9333
:10318000CF93DF9300D000D000D0CDB7DEB78C0155
:103190006B01CA01B22E4AE09E012F5F3F4F7901B9
:1031A000B9010E949632F70101900020E9F73197AA
:1031B000EE19C601019720E3EB1548F4081719072B
:1031C00020F4D8012C930F5F1F4FEF5FF5CFA701BD
:1031D000B601C8010E942E0E26960FB6F894DEBFE7
:1031E0000FBECDBFDF91CF911F910F91FF90EF9058
:1031F000DF90CF90BF900895EF92FF920F931F93AF
:10320000CF93DF93CDB7DEB72C970FB6F894DEBF20
:103210000FBECDBF8C017B01CA01B9012AE0AE010E
:103220004F5F5F4F0E947432AE014F5F5F4FB70137
:10323000C8010E942E0E2C960FB6F894DEBF0FBE6A
:10324000CDBFDF91CF911F910F91FF90EF90089527
:10325000AF92BF92CF92DF92EF92FF920F931F93A4
:10326000CF93DF93EC015B0169017A011AE0013031
:1032700009F014E620E030E0A901C701B6010E9480
:10328000903387FF1BC020E836E948E15CECC701BA
:10329000B6010E94EF3418160CF453C041EC51E013
:1032A000B501CE01DF91CF911F910F91FF90EF906B
:1032B000DF90CF90BF90AF900C942E0E20E836E9AF
:1032C00048E15CE4C701B6010E94903387FFE6CF76
:1032D000612F70E090E080E00E943F34A7019601EA
:1032E0000E94F43420E030E040E05FE30E942433A9
:1032F0000E940E34212F30E050E040E00E94F23274
:103300006B01B501CE010E94FC18950121503109D5
:103310008217930720F42EE2FC01208301960230ED
:1033200009F001E0202FA601B501DF91CF911F9197
:103330000F91FF90EF90DF90CF90BF90AF900C94E3
:10334000B918F7FAF094F7F8F094612F70E090E074
:1033500080E00E943F349B01AC01C701B6010E948E
:10336000F43420E030E040E05FE30E9424330E9428
:103370000E34611571058105910509F4BBCF9501E6
:1033800021503109C217D30708F0B4CF2DE22883AA
:103390002196B0CFCF93DF93C42F23E220935D0417
:1033A0009B01AC016DE974E08EE594E00E94FC188D
:1033B00024E08C39920720F42CE7FC01208301964D
:1033C00043E352E0C03140F4EC2FF0E0EE0FFF1F7A
:1033D000EC5EFE4F408151816DE974E00E941E0E4B
:1033E0000E940502EC0118828DEE94E00E946505B2
:1033F000CD55D440CE5FC817190609F054F46DE5D9
:1034000074E08DEE94E00E943E1281E0DF91CF9156
:10341000089580E0FBCFCF93C5E080916C028823B4
:10342000E1F0E0916D02CE9FF0011124E253FE4FD6
:10343000608171818281938144810E94CA198823AD
:1034400061F080916D028F5F837080936D02809137
:103450006C02815080936C02E0CFCF910895AF92BF
:10346000BF92CF92DF92EF92FF921F93CF93DF93A1
:10347000182F0E942A056B017C0180916D03813019
:1034800079F583E28093CD02A70196016DE273E0A6
:103490008EEC92E00E94FC18FC0101962CE2208345
:1034A00043E352E0103140F4E12FF0E0EE0FFF1F54
:1034B000EC5EFE4F408151816DE273E00E941E0E72
:1034C000FC0110826DEC72E086E995E00E943E12EC
:1034D00080916D03813021F482EA95E00E94860A92
:1034E00080915E038130D1F5C0915903AC2EB12C8F
:1034F000FAE0CF9FE0011124CF5CDC4FC882D98273
:10350000EA82FB821C8383E08D830E942A056E83FE
:103510007F83888799878FEFA81AB80A93E0A9223A
:10352000BB24A09259030E940B1A80916C0288233D
:1035300071F080916C028430D9F480912D039091C8
:103540002E03019690932E0380932D0307C0412FE5
:10355000C701B6010E94CA19882359F3DF91CF91A0
:103560001F91FF90EF90DF90CF90BF90AF900895A4
:10357000E0916D02E80FE37095E0E99FF0011124FE
:10358000E253FE4FC082D182E282F38214838F5FC6
:1035900080936C02E3CFCF93C82F88E70E94620E1E
:1035A00082E08093C6020E942A056093B90270935C
:1035B000BA028093BB029093BC021092BD028AE0D3
:1035C000C1118EE0CF910C942F1A90916C03981733
:1035D000E9F080936C03833089F028F4813049F05E
:1035E000823051F00895853069F050F0873061F0F5
:1035F000089586E00C942F1A87E0FCCF88E0FACF7C
:1036000089E0F8CF8BE0F6CF8CE0F4CF08952091DD
:10361000650330916603A90148235923452B69F4BA
:10362000282B392B309366032093650387709927E5
:10363000892B19F08DE00C942F1A08951F920F9288
:103640000FB60F9211248F939F938091E100909178
:10365000E100937F9093E10083FF0FC01092E90097
:1036600091E09093EB001092EC0092E39093ED00C8
:1036700010920C0498E09093F00082FF22C093E037
:103680009093E9009091F200992319F09AE39093B6
:10369000E8009091FD03992341F09091FD03915032
:1036A0009093FD03911101C05D9A90910B049923B1
:1036B00041F090910B04915090930B04911101C033
:1036C000289A84FF18C08091E2008E7E81608093EA
:1036D000E2008091E1008F7E8093E1008091FE0303
:1036E0008E7E80618093FE039F918F910F900FBE1D
:1036F0000F901F90189580FFF7CF8091E2008E7E8B
:1037000080618093E2008091E1008E7E8093E100F1
:103710008091FE038E7E8160E5CF1F920F920FB6DF
:103720000F921124CF92DF92EF92FF920F931F938B
:103730002F933F934F935F936F937F938F939F93B9
:10374000AF93BF93EF93FF93CF93DF93CDB7DEB7E4
:103750006C97DEBFCDBF1092E9008091E80083FF37
:1037600025C068E0CE0145960E949F0382EF8093BA
:10377000E8008D8987FF39C09091E80090FFFCCF69
:10378000982F907609F034C19E894F89588D2F89E2
:10379000F88C911131C0803861F58091FC038093E1
:1037A000F1001092F1008EEF8093E8006C960FB656
:1037B000F894DEBF0FBECDBFDF91CF91FF91EF91A7
:1037C000BF91AF919F918F917F916F915F914F9139
:1037D0003F912F911F910F91FF90EF90DF90CF902D
:1037E0000F900FBE0F901F9018959EEF9093E800DA
:1037F000C7CF1092F100D5CF913059F48111D3CFBA
:103800004130510581F68091FC038D7F8093FC034C
:10381000CACF933049F48111C6CF4130510519F612
:103820008091FC038260F2CF953041F48091E800F2
:1038300080FFFCCF20682093E300B5CF963009F0DD
:10384000A9C00B8D1C8D22E01092E9001092FA03A2
:103850001092F903F2122EC01092F8031092F7039F
:103860000E946E031F8299E09983FA8291E09E8301
:1038700090EA98879AEF99872091F9033091FA039B
:10388000275F3F4F3C832B838D831092E90010927A
:10389000FA031092F9031093F8030093F70349E039
:1038A00050E0BE016F5F7F4F80E00E9448030E949E
:1038B0006E0379CF1093F8030093F7030E948502FB
:1038C000DC0112960D911C910115110509F451C1ED
:1038D000D801ED91FC910480F581E02DBE016B5E75
:1038E0007F4FC8010995009709F03EC1F801008596
:1038F0001185EACFF3E0FF120EC08F89882309F407
:1039000040C0823061F440E860E183EA93E00E94C5
:103910003C20811148CF81E28093EB0047CF81307A
:1039200029F440E86BE087E993E0F1CF833099F721
:103930000E948502DC011296ED90FC908E010F5FD3
:103940001F4F6801E114F10479F0D701ED91FC916A
:103950000680F781E02DB801C7010995080F111DF8
:10396000F701E084F184EECFD8011C92F6010190BA
:103970000020E9F73197BF016C197D0940E0C601CD
:10398000C6CF61E873E0FB01449150E080E80E94FB
:10399000480309CF973009F4BECF983021F481E075
:1039A0008093F10000CF993009F0FDCE837009F0CB
:1039B000B2CFEFE5F1E081E031E096E321912223FF
:1039C00071F08093E9003093EB00DF0111972C91A7
:1039D0002093EC009093ED008F5F873079F78EE7AE
:1039E0008093EA001092EA008F8980930C04DBCE6A
:1039F0008B8D9C8D1092E9001092FA031092F903BE
:103A00009093F8038093F703898D811192C08E897A
:103A10009D89913A49F4813209F07DCF47E050E029
:103A20006CE071E080E0B3CF913209F074CF833263
:103A300069F48F89988DB0E0A0E08093080190939D
:103A40000901A0930A01B0930B01ADCE803269F455
:103A50008091E80082FFFCCF67E08CE091E00E945B
:103A60009F038BEF8093E8009ECE823209F09BCEBD
:103A70008F8980931301EEEFFFE7859194918B3F3F
:103A80009C4D51F1E0E0F8E080910C0190910D0126
:103A9000A0910E01B0910F01803B9440A105B105AA
:103AA000F1F48091130180FD1AC0EE3F8AE0F8071F
:103AB00089F587E797E79183808380916000809301
:103AC000FB0388E19BE00FB6F894A8958093600013
:103AD0000FBE9093600067CEEEEFFAE0D5CF808105
:103AE00091818737974709F05ECEA8958091600055
:103AF0008861809360008091FB0380936000EE3FBB
:103B00002AE0F20789F08091FE0A9091FF0A9183E2
:103B1000808349CE808191818737980751F29093B5
:103B2000FF0A8093FE0AC5CF1092FF0A1092FE0A88
:103B30003ACE0E948502DC0112960D911C9101156E
:103B4000110509F4E8CED801ED91FC910190F081C6
:103B5000E02DBE016B5E7F4FC8010995811123CE18
:103B6000F80100851185EBCF181619060CF41BCE51
:103B7000D2CEF1E0FF12BECE65E873E004CF1F9213
:103B80000F920FB60F9211242F933F938F939F9311
:103B9000AF93BF938091EF039091F003A091F10355
:103BA000B091F2033091EE0323E0230F2D3758F547
:103BB0000196A11DB11D2093EE038093EF03909316
:103BC000F003A093F103B093F2038091F30390917B
:103BD000F403A091F503B091F6030196A11DB11D68
:103BE0008093F3039093F403A093F503B093F6034B
:103BF000BF91AF919F918F913F912F910F900FBEE9
:103C00000F901F90189526E8230F0296A11DB11D55
:103C1000D2CF1F920F920FB60F9211242F933F9382
:103C20004F935F936F937F938F939F93AF93BF93C4
:103C3000EF93FF938DEE94E00E94B605FF91EF9114
:103C4000BF91AF919F918F917F916F915F914F91B4
:103C50003F912F910F900FBE0F901F9018951F92BC
:103C60000F920FB60F9211242F938F939F93EF9380
:103C7000FF93E091FD04F091FE048081E091030543
:103C8000F091040582FD1BC09081809106058F5F35
:103C90008F7320910705821741F0E0910605F0E04F
:103CA000E351FB4F958F80930605FF91EF919F9114
:103CB0008F912F910F900FBE0F901F9018958081BC
:103CC000F4CF1F920F920FB60F9211242F933F93B0
:103CD0004F935F936F937F938F939F93AF93BF9314
:103CE000CF93DF93EF93FF9380914502C0913E08FD
:103CF000D0E087FF24C0109285001092840080914C
:103D000045028F5F8093450280914502082E000C8A
:103D1000990B8C179D0724F4809145028C30C4F1D7
:103D20008091840090918500049680349C4908F429
:103D30007AC08091840090918500049676C080912D
:103D40004502082E000C990B8C179D07C4F6E091D4
:103D500045028E2FEE0F990BFC01EE0FFF1FE80FAF
:103D6000F91FE65EF74F808186FFC9CFE0914502DB
:103D70008E2FEE0F990BFC01EE0FFF1FE80FF91FBE
:103D8000E65EF74F808160E08F730E94AC03B7CF8F
:103D90002091840030918500E09145028E2FEE0F36
:103DA000990BFC01EE0FFF1FE80FF91FE65EF74FBE
:103DB00081819281820F931F909389008093880064
:103DC000E09145028E2FEE0F990BFC01EE0FFF1FC5
:103DD000E80FF91FE65EF74F808186FF11C0E09182
:103DE00045028E2FEE0F990BFC01EE0FFF1FE80F1F
:103DF000F91FE65EF74F808161E08F730E94AC038C
:103E0000FF91EF91DF91CF91BF91AF919F918F91F2
:103E10007F916F915F914F913F912F910F900FBEC6
:103E20000F901F90189580E49CE9909389008093EF
:103E300088008FEF80934502E3CF1F920F920FB659
:103E40000F9211242F933F934F935F936F937F9320
:103E50008F939F93AF93BF93EF93FF938091B9009C
:103E6000887F803609F44AC0F0F5883209F4A7C08B
:103E700018F5803109F49BC0B8F4882309F4F9C01F
:103E8000883009F494C0FF91EF91BF91AF919F9159
:103E90008F917F916F915F914F913F912F910F90F3
:103EA0000FBE0F901F901895883109F488C080329A
:103EB00051F78093310414C0803409F49DC040F45C
:103EC0008033B9F38833F9F68093310485ECB0C0C0
:103ED000803509F485C0883509F496C0883499F690
:103EE0000E948118D0CF883909F48CC038F5883702
:103EF00029F050F4883611F0803729F683E080935A
:103F000033041092440257C0883809F47BC08039CA
:103F100019F0803809F0B7CF80914402803208F060
:103F200071C0E091440281E08E0F80934402809141
:103F3000BB00F0E0EC5DFD4F80833DC0803B39F07D
:103F4000E0F4803A09F479C0883A09F09CCF84E023
:103F5000809333041092230210922202E0914802CF
:103F6000F091490209958091220281110FC081E0F0
:103F7000809322021092020209C0803C09F4A6CF6D
:103F8000883C09F4A3CF883B09F07DCFE091230260
:103F900081E08E0F80932302F0E0EE5FFD4F808181
:103FA0008093BB00909123028091220229C08091CE
:103FB0000E048093BB0085EC8093BC0064CF90918D
:103FC000300480912F04981758F5E091300481E077
:103FD0008E0F80933004F0E0E15FFB4F8081E9CFEA
:103FE000E091300481E08E0F809330048091BB001B
:103FF000F0E0E15FFB4F80839091300480912F04CB
:104000009817C8F285E8D8CFE091300481E08E0F90
:10401000809330048091BB00F0E0E15FFB4F808330
:104020008091320481115CCF81E080930D0484EA99
:104030008093BC001092330426CF85EC8093BC00A3
:104040001092330480914402803230F4E0914402B3
:10405000F0E0EC5DFD4F10826091440270E0E09171
:104060004602F091470284E292E0099510924402E0
:104070000ACF1092310434CFEF92FF920F931F9327
:10408000CF93DF93F82E192FE62E042F81E0860FB1
:10409000880F0E941A0383E00E941A03CF2DD12FAC
:1040A000EC0EFD2EF11CCE15DF05B9F007FF13C095
:1040B000FE0184910E941A03182F80E00E941A03C7
:1040C000812321968111EFCFDF91CF911F910F9125
:1040D000FF90EF9008958881EDCF81E0F5CF1092A9
:1040E000A00410929F0488EE93E0A0E0B0E08093DB
:1040F000A1049093A204A093A304B093A4042AE77C
:1041000031E030939E0420939D042FEF3FEF3093D6
:10411000AA042093A9041092F0041092EF04809353
:10412000F1049093F204A093F304B093F4042CE808
:1041300031E03093EE042093ED042DEC30E0309329
:10414000FA042093F9042CEC30E03093FC04209323
:10415000FB0428EC30E03093FE042093FD0429ECAE
:1041600030E0309300052093FF042AEC30E03093D8
:104170000205209301052EEC30E0309304052093D6
:10418000030510920605109207051092080510927B
:10419000090510928D0510928C0580938E059093E1
:1041A0008F05A0939005B09391052EE931E03093EF
:1041B0008B0520938A051092C7051092E405109292
:1041C000E3051092E2054FEF5FEFBA014093E5057A
:1041D0005093E6056093E7057093E8051092ED07AC
:1041E0001092EE071092EF0710920E0810920D0831
:1041F0001092100810920F0820E5209311081092D9
:10420000120810921308109214082AE2209315083D
:104210001092160810921708109218081092190898
:10422000109299051092980580939A0590939B059A
:10423000A0939C05B0939D051092A2051092A30532
:104240001092A40580EB91E09093970580939605DA
:1042500080913E088C3098F491E0980F90933E083E
:1042600080933F0890E0FC01EE0FFF1FE80FF91F5D
:10427000E65EF74F88EB9BE09283818308958FEF92
:1042800080933F080895CF93DF93CDB7DEB7E797CC
:104290000FB6F894DEBF0FBECDBF789484B58260B0
:1042A00084BD84B5816084BD85B5826085BD85B5DA
:1042B000816085BD80916E00816080936E00109258
:1042C00081008091810082608093810080918100D3
:1042D0008160809381008091800081608093800064
:1042E0008091910082608093910080919100816023
:1042F00080939100809190008160809390008091E4
:10430000C10084608093C1008091C100826080936D
:10431000C1008091C10081608093C1008091C30081
:1043200081608093C3008091C00082608093C00050
:104330008091C20081608093C20080917A00846085
:1043400080937A0080917A00826080937A008091D5
:104350007A00816080937A0080917A0080688093EF
:104360007A0010920C041092FC031092FE038091CC
:10437000D70081608093D70080EA8093D80089B508
:10438000806189BD89B5826089BD09B400FEFDCF19
:1043900061E070E080E090E00E9473048091D800BA
:1043A0008F7C80618093D8008091E000807F809333
:1043B000E0008091E1008E7E8093E1008DE08093AB
:1043C000E200559A209A61E085E00E941D0460E0B9
:1043D00085E00E94AC031092660310926503109270
:1043E00068031092690310926A0310926B03109293
:1043F000670380E00E942F1A60E084E10E941D04A0
:1044000010924B0210924A0210923A0410925C04ED
:104410000E94690C86E395E09093490280934802DC
:1044200087E395E090934702809346028CE0809367
:10443000B80010924C0288EB9BE0A0E0B0E08093C3
:10444000350490933604A0933704B093380481E088
:104450008093340410926E0210926F0210927002D8
:1044600010927102109272021092730210927402F2
:1044700010927502109276021092770210927802D2
:104480001092790210929502109296021092970261
:10449000109298021092820210928302109284026B
:1044A000109285021092870210925F03109286028A
:1044B000198240E06FE788E60E942D0F21E0AE01EF
:1044C0004F5F5F4F60E088E60E945212182F8823EA
:1044D00009F462C089818A3E11F00C94B42C40E842
:1044E00066E088E60E942D0F64E670E080E090E0D0
:1044F0000E94730440E06FE788E60E942D0F41E0C0
:1045000066E088E60E942D0F6EE170E080E090E0AA
:104510000E94730440E067E088E60E942D0F6EE180
:1045200070E080E090E00E94730440E26FE788E66C
:104530000E942D0F80E090E0A0E0B5E4809304019C
:1045400090930501A0930601B093070147E064E151
:1045500088E60E942D0F83E393E3A3E8B1E4809300
:10456000000190930101A0930201B093030147E081
:1045700061E088E60E942D0F40E060E088E60E943E
:104580002D0F6EE170E080E090E00E94730440E047
:104590006FE788E60E942D0F19A221E0AE014F5D62
:1045A0005F4F60ED87E70E94521281110C94B72C87
:1045B000111104C084E090E00E94071B82E090E0AB
:1045C0000E94071B81E090E00E94071B10E064EF4F
:1045D00071E080E090E00E9473041092C602109295
:1045E000B9021092BA021092BB021092BC02109251
:1045F000BD0284E10E94620E6CE271E080E090E016
:104600000E947304E0913F088E2F90E0FC01EE0FB2
:10461000FF1FE80FF91FE65EF74F80818F7B8083D5
:1046200010926D0361E084E00E941D041092130853
:104630001092160810921708109218081092190874
:104640001092150884E08093140861E00E941D0414
:1046500061E0809114080E94AC0382E58093110808
:10466000109212080FB7F89480916902811127C047
:10467000E3EFF2E08491E2E1F3E09491E82FF0E0DF
:10468000EE0FFF1FEA53FD4FA591B491EC91E92382
:1046900021F461E081E10E94AC0361E081E10E94CC
:1046A0001D048CB580618CBD8CB580648CBD61E0CF
:1046B0008FE00E941D0461E080E10E941D04809152
:1046C00069028F5F809369020FBF81E080931308B6
:1046D00080911608811104C08FE098E00E945A066C
:1046E00061E0809114080E94AC030AE00E94680611
:1046F0000150E1F760E0809114080E94AC030E9431
:104700002A056053784F7A83698320E030E0A9015D
:1047100060E08FE098E00E949F06F82EEE24E3947C
:104720008E1511F40C94412DCE0101960E94430682
:10473000882359F381E0809315088FE098E00E9468
:104740008D068FE098E090930E0880930D0880917D
:10475000150881110C94C72D61E08FE098E00E944C
:104760006008882311F40C94AD2D8DEE97E00E9423
:10477000860A1092ED071092EF0762EC75E08DEE5D
:1047800097E00E94DF15882311F40C94AD2D82EC84
:1047900095E090936B0280936A02EE24E394F12CEF
:1047A00045EC51E0BE01625D7F4FCE0181960E94D3
:1047B0002E0E24E0A701BE01625D7F4F0E94B91852
:1047C00049EC51E0BE01625D7F4F0E942E0EDC017C
:1047D0001C9219821A821B8220E0AE014F5D5F4F4E
:1047E0006DEE77E0CE0101960E949E1781110C9428
:1047F000CA2D60916A0270916B026115710511F406
:104800000C94CA2D655D7D4F21E5AE014F5D5F4F74
:1048100082EA95E00E949E17882311F40C94CA2D19
:104820004FE550E065E372E08DEC92E00E94563275
:1048300010922C036DEC72E086E995E00E943E1226
:1048400082EA95E00E94860A81E080936D0382E00F
:104850000E942F1AE091FD04F091FE0482E0808313
:10486000E091F904F091FA041082E091FB04F091D8
:10487000FC048FEC808310920505E0910105F09116
:10488000020586E08083E091FF04F09100058081BD
:1048900080618083E091FF04F09100058081886051
:1048A0008083E091FF04F09100058081806880831F
:1048B000E091FF04F091000580818F7D808381E08D
:1048C00080935E0310922E0310922D0310923003FA
:1048D00010922F0310926D0210926C0284E00E94DD
:1048E0002F1A112309F4F9C00091650302FDA6C037
:1048F00020E4322E10E0C12CD12C76014601570164
:1049000026013701BE016F5F7F4FCE0181960E9465
:104910005113882389F169817A81072E000C880B55
:10492000990B0E943F349B01AC01C301B2010E946C
:1049300024332B013C016B817C81072E000C880BFA
:10494000990B0E943F349B01AC01C501B4010E9448
:1049500024334B015C016D817E81072E000C880B96
:10496000990B0E943F349B01AC01C701B6010E9424
:1049700024336B017C011F5F65E070E080E090E014
:104980000E9473043A943110BDCF112309F456C02C
:1049900020910001309101014091020150910301E9
:1049A0002CAB3DAB4EAB5FAB612F70E090E080E095
:1049B0000E943F3468AB79AB8AAB9BAB9B01AC01E7
:1049C000C301B2010E9495332CA93DA94EA95FA94C
:1049D0000E949533609376027093770280937802F9
:1049E0009093790228A939A94AA95BA9C501B40104
:1049F0000E9495332CA93DA94EA95FA90E94953329
:104A000060937202709373028093740290937502A4
:104A100028A939A94AA95BA9C701B6010E94953303
:104A20002CA93DA94EA95FA90E94953360936E02FF
:104A300070936F02809370029093710201FD4DC0DC
:104A400008E210E080E3C82E85E7D82EE12CF12C97
:104A500090EC892E94ED992EAA24A394B12C412C8C
:104A6000512C3201BE016F5F7F4FCE0181960E94B3
:104A7000A413882311F189A19AA1ABA1BCA1AC0117
:104A8000BD01405355476109710941395F45614096
:104A9000710598F4480E591E6A1E7B1E88159905EB
:104AA000AA05BB0514F44C015D01C816D906EA0637
:104AB000FB0614F46C017D011F5F64E170E080E08F
:104AC00090E00E947304015069F6143110F00C94C8
:104AD000D92D82E090E00E94071B10926C03109287
:104AE000C7021092C8021092C9021092CA02109214
:104AF000C2021092C3021092C4021092C502109218
:104B0000A9021092AA021092AB021092AC0210926B
:104B1000A5021092A6021092A7021092A80210926B
:104B2000A1021092A2021092A3021092A40210926B
:104B30009D0210929E0210929F021092A00210926B
:104B4000990210929A0210929B0210929C0210926B
:104B5000B1021092B2021092B3021092B4021092FB
:104B6000B5021092B6021092B7021092B8021092DB
:104B7000AD021092AE021092AF021092B00280917C
:104B8000650390916603877099271092CC0210926A
:104B9000CB02892B11F40C94102E88E00E94E51AA8
:104BA0000E942A056093B4037093B5038093B60303
:104BB0009093B7036093B8037093B9038093BA03DB
:104BC0009093BB036093EA037093EB038093EC0331
:104BD0009093ED0360936F03709370038093710360
:104BE000909372036093AC037093AD038093AE0314
:104BF0009093AF036093B0037093B1038093B203BB
:104C00009093B303BE01695D7F4F7FA76EA73324E6
:104C100033940E942A052B013C018091EA03909174
:104C2000EB03A091EC03B091ED0383017201E81A4C
:104C3000F90A0A0B1B0BD801C7014497A105B1055E
:104C4000B8F04092EA035092EB036092EC0370924A
:104C5000ED03BE016F5F7F4FCE0181960E9451131D
:104C60008111E8C71092E80384E090E00E94071BDE
:104C70008091B8039091B903A091BA03B091BB039E
:104C800093018201081B190B2A0B3B0BD901C801A8
:104C90008897A105B105C0F04092B8035092B903BE
:104CA0006092BA037092BB03BE016F5F7F4FCE016B
:104CB00081960E94A41381110C94272F1092E9036E
:104CC00082E090E00E94071B80916C03813009F024
:104CD000C6C08091E803882309F4C1C08091950281
:104CE00090919602A0919702B09198021816190619
:104CF0001A061B060CF0B3C080919402882351F071
:104D0000109294024092900250929102609292020C
:104D1000709293028091E903882309F48BC08091FB
:104D2000E4039091E503A091E603B091E70340917D
:104D30008C0250918D0260918E0270918F028417C7
:104D40009507A607B70709F475C0409190025091E6
:104D50009102609192027091930283017201E41AB0
:104D6000F50A060B170BB801A701483B0BE05007EB
:104D70006105710508F45EC0E0915F0380938C02C9
:104D800090938D02A0938E02B0938F0200918802BF
:104D90001091890220918A0230918B028091BC038C
:104DA0009091BD03A091BE03B091BF03BA2FA92F6C
:104DB000982F8827801B910BA20BB30BFAE0E1110F
:104DC00001C0F4E004C0B595A79597958795FA952D
:104DD000D2F7800F911FA21FB31F80938802909378
:104DE0008902A0938A02B0938B02892F9A2FAB2F4E
:104DF000BB27A7FDBA958093950290939602A09346
:104E00009702B0939802E1112AC040345F416105D6
:104E10007105A0F01092870230925F0380916503C4
:104E2000909166039E7F90936603809365038FE065
:104E30000E942F1A80915F03811111C08091860218
:104E400081110DC020E3421625E75206610471046A
:104E500030F080E091E00E94071B30928602809142
:104E6000B4039091B503A091B603B091B703B30119
:104E7000A201481B590B6A0B7B0BDB01CA0144974B
:104E8000A105B10508F496C04092B4035092B50351
:104E90006092B6037092B7031091E90300916C031E
:104EA000112309F440C08091B5029091B602A091FF
:104EB000B702B091B802C090C403D090C503E0908F
:104EC000C603F090C7030097A105B10511F00C943B
:104ED000DB2FC092B102D092B202E092B302F09204
:104EE000B4024092B5025092B6026092B70270923C
:104EF000B802A70196016091C2027091C30280912D
:104F0000C4029091C5020E94903387FF0CC08EEFBF
:104F1000800F823040F4C092C202D092C302E0926D
:104F2000C402F092C502033011F40C94513110F018
:104F30000C941530013011F40C945330023011F4FC
:104F40000C940C31C090C702D090C802E090C90206
:104F5000F090CA02C114D104E104F10459F1B30183
:104F6000A2014C195D096E097F096A017B018091DC
:104F7000C602823069F058EBC5165BE0D506E10445
:104F8000F10430F081E00E94CB1A85E00E94E51A1E
:104F900080916C03873071F060E6C6166AEED60623
:104FA000E104F10438F080E890E00E94071B87E0FC
:104FB0000E94E51A8091BE029091BF02A091C002AA
:104FC000B091C1020097A105B10519F183017201E9
:104FD000E81AF90A0A0B1B0BD801C701803B944061
:104FE000A105B105B0F0E0913F088E2F90E0FC01E3
:104FF000EE0FFF1FE80FF91FE65EF74F80818F7BF2
:1050000080831092BE021092BF021092C0021092D2
:10501000C1022091C602223049F58091BD02811162
:1050200025C08091B9029091BA02A091BB02B091C3
:10503000BC02B301A201481B590B6A0B7B0BDB01BD
:10504000CA01803B9440A105B10580F0E0913F0882
:105050008E2F90E0FC01EE0FFF1FE80FF91FE65EB8
:10506000F74F80818F7B80833092BD028091B003A7
:105070009091B103A091B203B091B303B301A20127
:10508000481B590B6A0B7B0B8091AC039091AD03CD
:10509000A091AE03B091AF0353014201881A990A5F
:1050A000AA0ABB0A483251056105710538F488EC3B
:1050B00088169104A104B10408F4E0C2409273037D
:1050C0005092740360927503709276038091C702C8
:1050D0009091C802A091C902B091CA020097A1059F
:1050E000B10541F083017201E81AF90A0A0B1B0BA2
:1050F000D801C7018093770390937803A093790335
:10510000B0937A038091CB029091CC020196909358
:10511000CC028093CB0290937C0380937B0380919D
:105120006C0380937D0320937E038091BC03909158
:10513000BD03A091BE03B091BF0380937F03909302
:105140008003A0938103B09382038091C003909168
:10515000C103A091C203B091C303809383039093D2
:105160008403A0938503B09386038091C403909138
:10517000C503A091C603B091C703809387039093A2
:105180008803A0938903B0938A038091C20290910F
:10519000C302A091C402B091C50280938B03909387
:1051A0008C03A0938D03B0938E038091C8039091DC
:1051B000C903A091CA03B091CB0380938F0390934E
:1051C0009003A0939103B09392038091CC039091AC
:1051D000CD03A091CE03B091CF038093930390931E
:1051E0009403A0939503B09396038091D00390917C
:1051F000D103A091D203B091D303809397039093EE
:105200009803A0939903B0939A038091D803909147
:10521000D903A091DA03B091DB0380939B039093B1
:105220009C03A0939D03B0939E038091DC03909117
:10523000DD03A091DE03B091DF0380939F03909381
:10524000A003A093A103B093A2038091E0039091E7
:10525000E103A091E203B091E3038093A303909351
:10526000A403A093A503B093A603E0916D03E0937C
:10527000A70380915E038093A803809165039091BA
:1052800066039C0126703327232B11F40C94EF3115
:1052900022E02093A9039093AB038093AA034832A2
:1052A00051056105710508F41BC14092B00350928D
:1052B000B1036092B2037092B303E13009F010C100
:1052C000A30192016DE273E08DEC92E00E94FC1864
:1052D0001CE2DC011C93209177033091780340910C
:1052E000790350917A036DE273E001960E94FC18F5
:1052F000FC01108320917B0330917C0350E040E05F
:105300006DE273E001960E94FC18FC010196108387
:10531000E0917D0346EB52E0E93038F4F0E0EE0F27
:10532000FF1FEC5CFE4F408151816DE273E00E94F3
:105330001E0E1CE2DC011D937D0160917F037091C4
:10534000800380918103909182032AE0AE014F5F38
:105350005F4F0E946532AE014F5F5F4F6DE273E0B9
:10536000C7010E942E0EFC0110832091830330910F
:105370008403409185035091860301E06DE273E060
:1053800001960E942819DC011C932091870330911B
:1053900088034091890350918A0302E06DE273E033
:1053A00001960E942819FC01108320918B033091F3
:1053B0008C0340918D0350918E036DE273E0019652
:1053C0000E942819DC011C9320918F0330919003D7
:1053D00040919103509192036DE273E001960E9417
:1053E0002819FC011083209193033091940340917C
:1053F0009503509196036DE273E001960E9428197F
:10540000DC011C93209197033091980340919903FC
:1054100050919A036DE273E001960E942819FC01F5
:10542000108320919B0330919C0340919D035091E8
:105430009E0301E06DE273E001960E942819DC01F1
:105440001C9320919F033091A0034091A1035091A0
:10545000A2036DE273E001960E942819FC011083FB
:105460002091A3033091A4034091A5035091A6037A
:105470006DE273E001960E942819FC0101961083E9
:10548000E0917E0348EB52E0E43038F4F0E0EE0FB8
:10549000FF1FEA5BFE4F408151816DE273E00E9485
:1054A0001E0E2CE2DC012C932091AA033091AB0359
:1054B00050E040E06DE273E001960E94FC18FC01B0
:1054C00010826DEC72E086E995E00E943E12892B15
:1054D00039F480E190E00E94071B82E080936D0325
:1054E000F8EC8F169104A104B10408F4C7C08091B0
:1054F0005E034092AC035092AD036092AE03709293
:10550000AF03813009F026C10E940B1A20912F03AE
:10551000309130032F5F3F4F3093300320932F03A0
:1055200050E040E06DE974E08DE594E00E94FC18E5
:1055300004E08C39900720F42CE7DC012C930196D1
:105540002091730330917403409175035091760359
:105550006DE974E00E94FC18B4E08C399B0720F4DC
:105560002CE7FC0120830196E0917D0346EB52E09D
:10557000E93038F4F0E0EE0FFF1FEC5CFE4F4081A5
:1055800051816DE974E00E941E0EF4E08C399F0792
:1055900020F42CE7DC012C930196209187033091B5
:1055A00088034091890350918A0302E06DE974E019
:1055B0000E9428198C018C59944028F48CE7F8013A
:1055C00080830F5F1F4F60917F03709180038091F4
:1055D0008103909182032AE0AE014F5F5F4F0E94EA
:1055E0006532AE014F5F5F4F6DE974E0C8010E9404
:1055F0002E0EF4E08C399F0720F42CE7DC012C936D
:105600000196E0917E0348EB52E0E43038F4F0E09C
:10561000EE0FFF1FEA5BFE4F408151816DE974E0A0
:105620000E941E0EB4E08C399B0720F42CE7FC018D
:10563000208301962091AA033091AB0350E040E013
:105640006DE974E00E94FC180E9405028C01DC01E7
:105650001C928DEE94E00E9465050D5514400E5F7E
:105660000817190609F00CF4BEC680912D0390911D
:105670002E03019690932E0380932D0380915E0359
:10568000813009F067C00E940B1A0E942A05AB0105
:10569000BC0180915A0390915B03A0915C03B0918F
:1056A0005D0314ECE12EFF24FA940FEF1FEFE81ACC
:1056B000F90A0A0B1B0BD801C701840F951FA61FFF
:1056C000B71FCC97A105B10508F044C0B12C9AE0F2
:1056D000A92E809159038B0D8370A89EC0011124BF
:1056E0008C010F5C1C4F68010B5F1F4FD601159694
:1056F0008C91882309F488C60E942A057601B6E0B9
:10570000EB0EF11CF6012681378140855185621B25
:10571000730B840B950B6C3B72408105910508F46B
:1057200073C6D6016D917D918D919C9113971496BE
:105730004C910E94CA19882309F466C6F801808139
:10574000815080830E942A05D7016D937D938D93AC
:105750009C93139720916C0310915F03213009F003
:10576000122F8091610390916203A0916303B09125
:1057700064030097A105B10571F0B301A201481BB4
:10578000590B6A0B7B0BDB01CA01883E9340A105D4
:10579000B10508F467C0D301C20181608093610341
:1057A00090936203A0936303B093640334E070E0CA
:1057B00060E0ECEBF2E0849140917B00982F990F30
:1057C000990F90724F7D942B90937B00877080642B
:1057D00080937C0080917A00806480937A0080912D
:1057E0007A0086FDFCCF8091780090917900680F57
:1057F000791F3150F1F62230A8F590E080E00E9448
:105800003D3420E030E040E85EE30E94F43420E0E4
:1058100030EC4FE754E40E94953320E030E040EA5A
:1058200050E40E94F43420E030E040E450E40E9470
:10583000F4346B017C012AE939E949EF50E40E9414
:10584000903387FFE6C580916003833018F48F5F43
:105850008093600380916003833020F080E092E0C9
:105860000E94071B809165039091660387709927BA
:10587000892B09F0E5C58AEF90E0183040F4E12F5C
:10588000F0E0EE0FFF1FE25BFE4F808191814091BF
:1058900068035091690360916A0370916B038301FF
:1058A0007201E41AF50A060B170BB801A701B0E064
:1058B000A0E0481759076A077B0780F04092680309
:1058C0005092690360926A0370926B036091670360
:1058D00063256093670385E00E94AC0380916C03AD
:1058E00040916F0350917003609171037091720346
:1058F00093018201041B150B260B370BB901A8017C
:10590000483C51056105710540F040926F0350928B
:10591000700360927103709272038730C1F48091BA
:105920006E03811114C080916D03813071F482EA9D
:1059300095E00E94860A82EA95E00E94860A10920B
:10594000A2051092A40510926D0330926E0320E020
:1059500030E0232B09F45DC90E94A205882309F4D5
:1059600056C90E94000053C910E00C94CC2289A1B2
:10597000883511F00C94D82246EB60EE87E70E9440
:105980002D0F6AE070E080E090E00E94730428E14F
:10599000AE014F5F5F4F68E887E70E94521288238D
:1059A00011F40C94D82229813A8130934E0220932D
:1059B0004D028B819C819093500280934F028D8188
:1059C0009E8190935202809351028F81988590938B
:1059D00054028093530249855A855093560240934E
:1059E00055024B855C8550935802409357024D8574
:1059F0005E8550935A02409359024F8558895093BF
:105A00005C0240935B0249895A8950935E0240933D
:105A10005D024B895C895093600240935F024D891F
:105A20005E8950936202409361024F89588D509372
:105A30006402409363021092650210926602109213
:105A4000670210926802232B11F40C94D822892B40
:105A500011F40C94D82248E065EF87E70E942D0FDF
:105A60004FE264EF87E70E942D0F62E370E080E071
:105A700090E00E947304111100C584E090E00C9442
:105A8000E0222AEA31E040E050E068E08FE098E070
:105A90000E949F0682FD12C004E00E946806809367
:105AA00018080150D1F78A3A39F1CE0101960E94C7
:105AB0004306882331F386E00C949B2301E0812C7C
:105AC000912C540120E030E0A90167E38FE098E0D9
:105AD0000E949F06A501940169E28FE098E00E9470
