:100000000C94D5010C94FD010C94FD010C94FD01A0
:100010000C94FD010C94FD010C94FD010C94FD0168
:100020000C94FD010C94FD010C94971A0C94061B82
:100030000C94FD010C94FD010C94FD010C94FD0148
:100040000C94FD010C94DA1D0C94FD010C94FD013F
:100050000C94FD010C94FD010C94FD010C94381DD1
:100060000C94FD010C94A81D0C94821D0C94FD01B0
:100070000C94FD010C94FD010C94FD010C94FD0108
:100080000C94FD010C94FD010C94FD010C94FD01F8
:100090000C94961E0C94FD010C94FD010C94FD0132
:1000A0000C94FD010C94FD010C94FD010763423694
:1000B000B79BD8A71A39685618AEBAAB558C1D3CF9
:1000C000B7CC5763BD6DEDFD753EF6177231BF00BD
:1000D0000000803F08000000BE922449123EABAAF7
:1000E000AA2ABECDCCCC4C3E00000080BEABAAAA52
:1000F000AA3E00000000BF000000803F000000009A
:1001000000084178D3BB4387D1133D190E3CC3BDD2
:100110004282AD2B3E68EC8276BED98FE1A93E4C7F
:1001200080EFFFBE01C4FF7F3F0000000000475288
:100130004F554E445F5A45524F004241434B555034
:100140005F4445504C4F5900435249544943414C38
:100150005F4552524F52004C414E44454400444585
:100160005343454E54005245434F564552595F4400
:1001700045504C4F590041504F4745455F434F4E06
:100180004649524D454400424F4F53545F454E44FB
:10019000004C41554E43485F444554454354454403
:1001A00000524541445900524144494F5F4641493C
:1001B0004C00524144494F5F4F4B0053445F46410E
:1001C000494C0053445F4F4B0053454E534F5253DD
:1001D0005F4F4B00504F5745525F4F4E00455252B4
:1001E0004F52004C414E444544005245434F564502
:1001F00052590044455343454E540041504F4745E2
:100200004500434F41535400424F4F535400524511
:1002100041445900494E4954004552524F520044FE
:1002200045504C4F5945440041524D4544005341BF
:100230004645003F0074696D655F6D732C666C699F
:100240006768745F74696D655F6D732C7061636B53
:1002500065745F69642C73746174652C7072657366
:10026000737572655F70612C74656D705F632C616E
:100270006C7469747564655F6D2C6D61785F616C19
:100280007469747564655F6D2C61782C61792C617B
:100290007A2C67782C67792C677A2C7265636F7675
:1002A0006572795F73746174652C6572726F725FC9
:1002B000666C616773003F003F00000000020009A8
:1002C0000F0000030401000C00000000000000000B
:1002D000000000000000000000080B000202020005
:1002E00000090400000102020000052400100105BD
:1002F00024010101042402060524060001070581EA
:100300000310004009040100020A00000007050272
:1003100002400000070583024000000403090412A4
:10032000010002EF02014041233680000101020377
:100330000141726475696E6F204C4C4300417264D8
:1003400075696E6F204C656F6E6172646F0000009E
:100350000000250028002B002E00310000000000C6
:10036000240027002A002D003000040404040403A4
:100370000405020202020403020202020606060645
:10038000060604040202020404040802011040806C
:10039000401020408040800802040180402010026C
:1003A0000110801020404020E81F11241FBECFEF15
:1003B000DAE0DEBFCDBF11E0A0E0B1E0EAE6FBE6A7
:1003C00002C005900D92AE3BB107D9F728E0AEEB25
:1003D000B1E001C01D92A030B207E1F711E0C5ED18
:1003E000D1E004C02197FE010E949735C43DD1079A
:1003F000C9F70E94BC200C94B3350C94000090E027
:10040000FC01E757FC4F249186599C4FFC018491D5
:10041000882399F090E0880F991FFC01E45AFC4F63
:10042000A591B491FC01E25BFC4F859194918FB74B
:10043000F894EC91E22BEC938FBF0895FC0180912E
:100440000A04882311F13FB7F89482E08093E90011
:100450002091F200822F90E01816190614F481E022
:1004600090E0882339F0289844E6409309044091AD
:10047000F1004083222339F02091F200211103C0C2
:100480002BE62093E8003FBF08958FEF9FEF08957C
:100490002FB7F89483E08093E9009091E800892FCA
:1004A000807295FF04C09091F20080E4891B2FBFF9
:1004B00008958091010481110DC082E08093FD03B5
:1004C00084E08093FE03109200041092FF0381E009
:1004D000809301048DEF93E00895CF93DF931F92F3
:1004E000CDB7DEB76983DC01ED91FC910280F38129
:1004F000E02D41E050E0BE016F5F7F4F09950F9006
:10050000DF91CF91089583E08093E9008091F2001C
:10051000882319F08AE38093E80008950E94480236
:1005200090E00895CF93DF931F92CDB7DEB7FC0123
:100530008485958597FD08C02FEF3FEF3587248789
:100540000F90DF91CF910895CE0101960E941E0277
:10055000019719F4898190E0F3CF8FEF9FEFF0CFEF
:100560000F931F93CF93DF931F92CDB7DEB78C010C
:10057000FC018485958597FF0BC0CE0101960E94F2
:100580001E02019771F4898190E0F80195878487B4
:10059000F801848595850F90DF91CF911F910F9180
:1005A00008958FEF9FEFF1CFFC018485958597FD2E
:1005B0000BC09FB7F89482E08093E9008091F2002D
:1005C0009FBF90E0019608959FB7F89482E08093D2
:1005D000E9008091F2009FBF90E008954091F703F9
:1005E0005091F8032091F5033091F6034217530719
:1005F000B4F49091E8009570E1F39091E80092FDD9
:1006000019C08093F1008091F7039091F80301964F
:100610008F739927892B19F48EEF8093E8008091CE
:10062000F7039091F80301969093F8038093F703F2
:1006300081E0089580E00895DF92EF92FF920F939A
:100640001F93CF93DF93D82E8A01EB017B01E40E39
:10065000F51ECE15DF0559F0D7FE12C0FE018491BC
:100660000E94EE0221968111F4CF0FEF1FEFC80117
:10067000DF91CF911F910F91FF90EF90DF90089540
:100680008881EECF0F931F93CF93DF931F92CDB747
:10069000DEB782E0898342E450E069ED72E080E8F1
:1006A0000E941C030E945902DC0112960D911C91BC
:1006B0000115110589F0D801ED91FC910280F381BB
:1006C000E02DBE016F5F7F4FC801099597FD04C003
:1006D000F80100851185ECCF89810F90DF91CF91D2
:1006E0001F910F910895615030F02091F100FC01AD
:1006F00020830196F8CF289884E680930904089512
:10070000282F30E0F901E654FD4F9491F901E757A5
:10071000FC4F849126593C4FF9012491222309F47E
:1007200030C09923E9F091509F30D0F4E92FF0E0E8
:10073000E456FC4F0C949735CA03CE03AB03C203B7
:10074000C603B003B003B003D103D703DB03DF0359
:10075000E503B003E903909180009F7790938000B8
:10076000E22FF0E0EE0FFF1FE25BFC4FA591B4918A
:100770009FB7F894EC91611132C080958E238C93D1
:100780009FBF0895909180009F7DE8CF9091800059
:10079000977FE4CF94B59F7794BDE2CF94B59F7DCA
:1007A000FBCF909190009F7790939000D9CF90913C
:1007B00090009F7DF9CF90919000977FF5CF909119
:1007C000C0009F779093C000CBCF9091C0009F7DD9
:1007D000F9CF9091C200977F9093C200C1CF8E2B2A
:1007E000CECF3FB7F8948091F1039091F203A0919E
:1007F000F303B091F40326B5A89B05C02F3F19F071
:100800000196A11DB11D3FBFBA2FA92F982F882790
:10081000BC01CD01620F711D811D911D42E0660F6B
:10082000771F881F991F4A95D1F708958F929F923D
:10083000AF92BF92CF92DF92EF92FF924B015C0199
:100840000E94F1036B017C010E94F1036C197D0988
:100850008E099F09683E734081059105A8F321E048
:10086000821A9108A108B10888EEC80E83E0D81E4C
:10087000E11CF11C81149104A104B10429F7FF903B
:10088000EF90DF90CF90BF90AF909F908F900895A2
:100890008F929F92AF92BF92CF92DF92EF92FF9290
:1008A0000F931F93CF93DF936C017B018A0180919B
:1008B0001301882309F45CC080910A04882309F499
:1008C00057C08091FC0380FF05C08091E0008260EA
:1008D0008093E000E801B12C8AEFA82E93E0892EE6
:1008E0002AE3922E209711F4BB20D9F10E944802EE
:1008F00081110AC0AA94AA20D9F161E070E080E0D9
:1009000090E00E941604EECF8C171D0611F00CF03B
:100910008C2F9FB7F8948092E9002091E80025FD84
:1009200002C09FBFDFCF282F30E0C21BD30BF701DF
:10093000815020F041914093F100FACFE20EF31E76
:10094000BB2021F09092E800B12CEBCF8091E80021
:1009500085FDE7CF9092E800BB24B394209709F37C
:10096000F3CF5D9884E68093FB03101611063CF0EC
:1009700081E090E0F6019383828310E000E0C801FB
:10098000DF91CF911F910F91FF90EF90DF90CF906B
:10099000BF90AF909F908F9008952FB7F89460917B
:1009A000ED037091EE038091EF039091F0032FBF60
:1009B000089508950895AF92BF92CF92DF92EF927B
:1009C000FF920F931F93CF93DF936C017B018B01F9
:1009D000040F151FEB015E01AE18BF08C017D10749
:1009E00059F06991D601ED91FC910190F081E02DD3
:1009F000C6010995892B79F7C501DF91CF911F9128
:100A00000F91FF90EF90DF90CF90BF90AF9008953F
:100A1000FC01538D448D252F30E0842F90E0821B04
:100A2000930B541710F0CF96089501970895FC0189
:100A3000918D828D981761F0A28DAE0FBF2FB11DE1
:100A40005D968C91928D9F5F9F73928F90E0089539
:100A50008FEF9FEF0895FC01918D828D981731F0F3
:100A6000828DE80FF11D858D90E008958FEF9FEF47
:100A70000895FC01918D228D892F90E0805C9F4F1D
:100A8000821B91098F73992708958BEA94E00E9445
:100A9000390521E0892B09F420E0822F089580E0B8
:100AA00090E0892B29F00E94450581110C940000EB
:100AB0000895FC01A48DA80FB92FB11DA35ABF4FF3
:100AC0002C91848D90E001968F739927848FA6894D
:100AD000B7892C93A089B1898C9182748C93938D62
:100AE000848D981306C00288F389E02D80818F7D64
:100AF00080830895EF92FF920F931F93CF93DF931C
:100B0000EC0181E0888F9B8D8C8D981319C0E8894A
:100B1000F989808185FF14C09FB7F894EE89FF8919
:100B20006083E889F9898081827480839FBF81E036
:100B300090E0DF91CF911F910F91FF90EF9008957A
:100B4000F62E0B8D10E00F5F1F4F0F731127E02E55
:100B50008C8D8E110CC00FB607FCFACFE889F9898D
:100B6000808185FFF5CFCE010E945905F1CFEB8D35
:100B7000EC0FFD2FF11DE35AFF4FF0829FB7F89461
:100B80000B8FEA89FB8980818062CFCFCF93DF937F
:100B9000EC01888D8823B9F0AA89BB89E889F98995
:100BA0008C9185FD03C0808186FD0DC00FB607FCCA
:100BB000F7CF8C9185FFF2CF808185FFEDCFCE01FD
:100BC0000E945905E9CFDF91CF910895CF93DF932C
:100BD000FC01C081D1810E94CD04C61BD70B8D2F93
:100BE000881F8827881FDF91CF9108958EBD000050
:100BF0000DB407FEFDCF8EB50895FC01928183816F
:100C00009CBD8DBD81E0878360E085810E9480036B
:100C10008FEF0C94F6058FEF0C94F6050F931F934E
:100C2000CF93DF9300D0CDB7DEB78C010E94CD0407
:100C3000600F711F7A8369830E940B068F3F71F0EA
:100C4000CE0101960E94E6058823B1F380E00F9063
:100C50000F90DF91CF911F910F91089581E0F7CF11
:100C6000CF93DF93FC012781222349F0EC0161E05F
:100C700085810E9480038FEF0E94F6051F82DF911D
:100C8000CF910895DF92EF92FF920F931F93CF932E
:100C9000DF93EC01162F022FF32EE42ED52E0E94A7
:100CA0001A078823C1F18F81811103C0CE010E94F0
:100CB000FD05111128C0812F80640E94F6058D2D3D
:100CC0000E94F6058E2D0E94F6058F2D0E94F605D6
:100CD000802F0E94F60587E8111101C085E90E9466
:100CE000F6050E940B061AE00E940B06898787FF13
:100CF00002C01150C9F7DF91CF911F910F91FF9062
:100D0000EF90DF9008951C30B1F28CE291E00E94E8
:100D10000E068111D0CF8FEFEECF0F931F93CF939D
:100D2000DF93EC0189018A85833039F089E0440F33
:100D3000551F661F771F8A95D1F79A01AB0168E1AD
:100D4000CE010E944206882339F08DE08E83CE01C9
:100D50000E94300680E025C08EEF0E94F605F80163
:100D600081918EBD1E5FE017F10741F08191000077
:100D700000000DB407FEFDCF8EBDF5CF0DB407FE0C
:100D8000FDCF8FEF0E94F6058FEF0E94F6050E94BF
:100D90000B0689878F71853049F4CE010E94300699
:100DA00081E0DF91CF911F910F91089581E28E83B1
:100DB000CE010E943006CBCFEF92FF921F93CF93CC
:100DC000DF93FC01208111E020FF12C0EC017C01C7
:100DD000FBE0EF0EF11C4B815C816D817E81970100
:100DE00089819A810E948D06182F811108C010E018
:100DF000812FDF91CF911F91FF90EF90089588810F
:100E000081FD04C088818E7F8883F2CF4B815C8115
:100E10006D817E818F819885A985BA85480F591F7C
:100E20006A1F7B1F970189819A810E948D0681111B
:100E3000E9CFDDCF1F93CF93DF93EC01888582301C
:100E4000C9F488E592E00E940E06182F882361F00D
:100E50008DEF0E94F605CE010E9430061886812F84
:100E6000DF91CF911F9108958FE18E83CE010E9473
:100E70003006F5CF8130A1F4188620E030E0A901DA
:100E80006CE0CE010E944206882339F089E08E830F
:100E9000CE010E94300610E0E2CFCE010E94300663
:100EA00011E0DDCFEF92FF920F931F93CF93DF936B
:100EB00000D0CDB7DEB78C017901FC01828583308B
:100EC00039F089E0440F551F661F771F8A95D1F7C7
:100ED0009A01AB0161E1C8010E944206882341F0FA
:100EE0008BE0F8018683C8010E94300680E03FC095
:100EF0000E94CD04645D7E4F7A8369830E940B0655
:100F0000F80181878F3F69F4CE0101960E94E605C2
:100F10008823A1F38EE1F8018683C8010E94300680
:100F2000E2CF8E3F11F089E1F6CF8FEF8EBDF70152
:100F3000D701A150BE4F9FEFEA17FB0749F0000011
:100F400000000DB407FEFDCF8EB59EBD8193F4CF9A
:100F50000DB407FEFDCF8EB58C93F80111860E946B
:100F60000B060E940B06C8010E94300681E00F901C
:100F70000F90DF91CF911F910F91FF90EF90089507
:100F8000CF92DF92EF92FF921F93CF93DF93DC011A
:100F90001196ED91FC91EF2B51F490E080E0DF9100
:100FA000CF911F91FF90EF90DF90CF900895122F77
:100FB0006A017B01EC018B819C81AD81BE818C1526
:100FC0009D05AE05BF0561F0CE010E94DC068823B9
:100FD00021F312FF0CC01882CB82DC82ED82FE82EC
:100FE00013702881122B1883CE010B96D8CF9E0147
:100FF000255F3F4FB701A60189819A810E94520760
:101000008111E9CFCACF8F929F92AF92BF92CF92B8
:10101000DF92EF92FF920F931F93CF9390938105EE
:10102000809380051092850501E010E020E030E01B
:10103000009388051093890520938A0530938B05CA
:101040009093A2058093A1051092A0058FEF9FEFCA
:10105000DC018093A3059093A405A093A505B0930C
:10106000A605662309F44BC020E040E050E0BA0139
:1010700080EA95E00E94C007009769F480E0CF9174
:101080001F910F91FF90EF90DF90CF90BF90AF90A6
:101090009F908F900895FC01E254FE4F24812223FB
:1010A00069F320812F7751F78A539E4FFC01C0804E
:1010B000D180E280F38020E0B701A60180EA95E0CC
:1010C0000E94C007FC01892BC9F280898230B1F6E9
:1010D000838594858115924089F695859093820544
:1010E0008FEF890F80938305C0E081E0981769F046
:1010F000CF5FC93041F488E080938405BFCFC12C15
:10110000D12C7601D8CF880FF1CFC0938405868982
:101110009789B0E0A0E080938C0590938D05A09313
:101120008E05B0938F05892B8A2B8B2B61F484A1BC
:1011300095A1A6A1B7A180938C0590938D05A0934E
:101140008E05B0938F0586859785A7019601280F98
:10115000391F411D511DDA01C901809394059093F7
:101160009505A0939605B093970521893289309310
:1011700087052093860540918C0550918D056091DF
:101180008E0570918F054A015B01880C991CAA1C81
:10119000BB1C880D991DAA1DBB1D80939C059093B7
:1011A0009D05A0939E05B0939F0505E0220F331F78
:1011B0000A95E1F721503E4F232F33272695820FC2
:1011C000931FA11DB11D8093900590939105A0934D
:1011D0009205B093930583889488B12CA12C811437
:1011E0009104A104B10421F480A091A0A2A0B3A015
:1011F000C81AD90AEA0AFB0AC80CD91CEA1CFB1C4B
:1012000004C0F694E794D794C794CA95D2F7D7014F
:10121000C6010196A11DB11D809398059093990573
:10122000A0939A05B0939B0535EFC3163FE0D30614
:10123000E104F10420F48CE0809385051FCF85EF55
:10124000C8168FEFD806E104F10468F480E18093BA
:1012500085054093A7055093A8056093A905709351
:10126000AA0581E00CCF84A595A5A6A5B7A5809376
:101270009C0590939D05A0939E05B0939F0580E2E9
:10128000E6CF8F929F92AF92BF92CF92DF92EF9272
:10129000FF920F931F93423051056105710560F471
:1012A00080E01F910F91FF90EF90DF90CF90BF9063
:1012B000AF909F908F900895FC01C08CD18CE28CF0
:1012C000F38CC416D506E606F70650F3480159011B
:1012D0006A018581803229F584899589A689B78933
:1012E00017E076956795579547951A95D1F7480F6A
:1012F000591F6A1F7B1F23E0CF0180960E94C00701
:10130000009771F2CC0CDD1CCC0CDD1CF1E0DF226F
:101310008C0D9D1DFC0180829182A282B38281E0AE
:10132000C0CF803109F0BCCF44895589668977895F
:101330004D0D511D611D711D23E0CF0180960E944E
:10134000C007009709F4ACCFCC0CDD1CF1E0DF2224
:10135000C80ED91EF60111830083E1CFCF92DF9230
:10136000EF92FF920F931F93CF93DF93423051057B
:101370006105710550F48FEFDF91CF911F910F91AF
:10138000FF90EF90DF90CF900895FC01C08CD18C3E
:10139000E28CF38CC416D506E606F70660F38901E5
:1013A0006A01EC018581803299F584899589A68945
:1013B000B789E7E07695679557954795EA95D1F710
:1013C000480F591F6A1F7B1F22E0CE0180960E94A2
:1013D000C007009781F2CC0CDD1CCC0CDD1CF1E0C9
:1013E000DF228C0D9D1DFC0180819181A281B38142
:1013F000488D598D6A8D7B8D481759076A077B0781
:1014000030F1F80180839183A283B38381E0B4CF6C
:10141000803109F0B0CF44895589668977894D0DAF
:10142000511D611D711D22E0CF0180960E94C007F1
:10143000009709F4A0CFCC0CDD1CF1E0DF22C80E30
:10144000D91EF60180819181B0E0A0E0D1CF80E08B
:1014500093CF0F931F93CF93DF93FC012081211132
:1014600006C081E0DF91CF911F910F910895EC01AB
:10147000828187FF3AC04489558966897789868148
:10148000978121E080960E94C007009729F4898106
:101490008160898380E0E6CFEC81FD81EF70FF27DA
:1014A00025E0EE0FFF1F2A95E1F7E80FF91F3097AF
:1014B00071F38081853E59F38881877383878881A2
:1014C00083FF08C0888D998DAA8DBB8D848F958FE1
:1014D000A68FB78F8C8D9D8DAE8DBF8D938F828F94
:1014E000B58BA48B8A818F778A830E811F81C80177
:1014F00080960E94DC06882351F2F8018081918158
:101500000E941A07882319F2ACCF4F925F926F9214
:101510007F928F929F92AF92BF92CF92DF92EF9283
:10152000FF920F931F93CF93DF93EC014A015B016E
:101530004C845D846E847F842881222309F487C0D3
:10154000488959896A897B89481559056A057B0547
:1015500081F081149104A104B10469F41C861D86F4
:101560001E861F86888A998AAA8ABB8A8A818F7D6D
:101570008A8381E071C023FF57C0888D998DAA8D21
:10158000BB8D88159905AA05BB0508F460C0EE81DE
:10159000FF813481375F7501640181E0C81AD10889
:1015A000E108F108032E04C0F694E794D794C79499
:1015B0000A94D2F7DB01CA010197A109B10904C05D
:1015C000B695A795979587953A95D2F7C816D906F7
:1015D000EA06FB0628F0452B462B472B09F052C0A4
:1015E00027FF4BC0848D958DA68DB78D8C879D87E9
:1015F000AE87BF878E01045F1F4FC114D104E10481
:10160000F10409F4AFCF4C855D856E857F85980127
:101610008E819F810E94AE0991E0C91AD108E1082C
:10162000F108181654F313C026FFB1CFEE81FF81E5
:101630008681978125E0880F991F2A95E1F7B0E010
:10164000A0E088159905AA05BB0508F08BCF4C864C
:101650005D866E867F8680E0DF91CF911F910F912E
:10166000FF90EF90DF90CF90BF90AF909F908F90C2
:101670007F906F905F904F9008958C8D9D8DAE8D73
:10168000BF8DB4CFC81AD90AEA0AFB0AB3CF3F927A
:101690004F925F926F927F928F929F92AF92BF9282
:1016A000CF92DF92EF92FF920F931F93CF93DF932E
:1016B00000D000D0CDB7DEB74C01FC01828180683C
:1016C0008283A680B7804484558466847784F5013C
:1016D000C084D184E284F384C414D504E604F704FE
:1016E00010F011E003C07301620110E0FFEFCF1AA8
:1016F000DF0AEF0AFF0AF501808D918DA28DB38D6F
:101700008C159D05AE05BF0538F4111131C0C0849C
:10171000D184E284F384E5CF4C145D046E047F042D
:1017200039F19E012F5F3F4FB701A601C5010E940D
:10173000AE0987FD1DC08823C9F289819A81AB81DA
:10174000BC81892B8A2B8B2B89F6112329F0F5017B
:10175000C086D186E286F3860FEF1FEF2FEF3FE0C2
:10176000B701A601C5010E944109382E811118C098
:10177000312C832D0F900F900F900F90DF91CF9110
:101780001F910F91FF90EF90DF90CF90BF90AF909F
:101790009F908F907F906F905F904F903F900895B3
:1017A000411451046104710431F4F401C486D586F6
:1017B000E686F786DECF97018601B301A201C50157
:1017C0000E9441098111F1CFD3CF20911202260F3F
:1017D0003327331F21323105ECF420913104FC0111
:1017E00090E080E0243069F082E00895A091120238
:1017F0002191AC014E505E4FA40FB52FB11D2C931B
:101800000196861798F380911202680F6093120276
:1018100080E0089581E008951092310481E0809382
:10182000300410920B0461E082E00E94800361E0CA
:1018300083E00E948003E9EBF0E080818E7F80836B
:1018400080818D7F808388E48093B80085E48093D5
:10185000BC000895CF93DF9391E090933C028823DE
:10186000B9F0C091B800D091BA008091BC008A7BD9
:101870008093BC0060E082E00E94800360E083E02F
:101880000E9480030E940C0CD093BA00C093B80051
:10189000DF91CF9108958F929F92AF92BF92CF9296
:1018A000DF92EF92FF920F931F93CF93DF93D0912C
:1018B0005A04D13208F0D7C0182FC09159040E94A1
:1018C000F1036B017C018091310481116BC082E0D6
:1018D00080933104109330048FEF80932F04109283
:1018E0002E04D0932D04A9E3B4E0EDE0F4E080E011
:1018F000D81391C010920C0480910C04CC0FC82B0B
:10190000C0930C0480910B04813009F088C01092C0
:101910000B040E94F1036B017C0180910C04809305
:10192000BB008091330490913404A0913504B091B0
:101930003604892B8A2B8B2BA1F00E94F103009196
:1019400033041091340420913504309136046C191D
:101950007D098E099F09061717072807390708F41C
:1019600042C08091BC0083FDD8CF85EC8093BC0041
:101970000E94F1036B017C0180913104823009F4F3
:1019800050C080912F048F3F09F46FC080912F04C5
:10199000803209F46CC080912F04803309F469C04F
:1019A00084E026C08091330490913404A0913504E2
:1019B000B0913604892B8A2B8B2B09F484CF0E949B
:1019C000F1038090330490903404A0903504B090DB
:1019D00036046C197D098E099F0986169706A8069C
:1019E000B90608F070CF809132040E942A0C85E07D
:1019F0001092380410925A0410923704DF91CF915C
:101A00001F910F91FF90EF90DF90CF90BF90AF901C
:101A10009F908F9008959D9191938F5F69CF85EEF0
:101A2000A5CF8091330490913404A0913504B091F6
:101A30003604892B8A2B8B2B09F49ECF0E94F1034D
:101A40000091330410913404209135043091360410
:101A50006C197D098E099F09061717072807390792
:101A600008F08ACFC0CF81E0C3CF80E0C1CF82E051
:101A7000BFCF83E0BDCF0895E0913B0280913A0251
:101A8000E81730F4F0E0EE52FE4F808190E00895C8
:101A90008FEF9FEF089590913B0280913A022FEFD4
:101AA0003FEF981748F4E92FF0E0EE52FE4F208107
:101AB00030E09F5F90933B02C901089580913A0204
:101AC00090913B02891B990B0895CF92DF92EF9280
:101AD000FF920F931F93CF93DF937C01CB018A0179
:101AE00020913704222389F0EB016B01C40ED51E2F
:101AF000CC15DD0569F06991D701ED91FC9101905C
:101B0000F081E02DC7010995F3CF642F0E94E50B0A
:101B1000C801DF91CF911F910F91FF90EF90DF905F
:101B2000CF900895CF93DF931F92CDB7DEB769832F
:101B3000209137042223F9F020915A04203258F0E2
:101B400021E030E0FC013383228390E080E00F90BD
:101B5000DF91CF91089580913804E82FF0E0E75CA1
:101B6000FB4F998190838F5F8093380480935A0450
:101B700081E090E0ECCF61E0CE0101960E94E50BA0
:101B8000F7CF61507109FA012491222349F04F5F88
:101B90005F4F8617970720F4FC012193CF01F3CF05
:101BA000089561507109FA012191AF01222339F0A2
:101BB0008617970720F4FC012193CF01F4CF0895F5
:101BC000FC01848583FF17C084A195A1A6A1B7A1BC
:101BD000448D558D668D778D841B950BA60BB70BA9
:101BE000811520E89207A105B10520F08FEF9FE74E
:101BF000A0E0B0E0089580E090E0DC01F1CF0C9629
:101C00000C94290A90E080E008958F929F92AF9201
:101C1000BF92EF92FF920F931F93CF93DF93E82E23
:101C20008091FD07282F30E0F901EE0FFF1FE20F32
:101C3000F31FE852F84F908196FD53C08C3008F0A6
:101C400050C086E00E94FF018091FD07282F30E000
:101C5000F901EE0FFF1FE20FF31FE852F84F9081DA
:101C6000907C966090831092FE071092FF072CE004
:101C7000622F0E948B35829FB001112430E020E05A
:101C8000AB01420F531FFA01EE0FFF1FE40FF51FC8
:101C9000E852F84F908196FD16C02F5F3F4F2C30D1
:101CA000310571F781110FC01092800082E080939E
:101CB00081001092850010928400B19A80916F008B
:101CC000826080936F00E091FD078E2F90E0FC0111
:101CD000EE0FFF1FE80FF91FE852F84F8081806474
:101CE0008083F090FD078BE08F1508F44DC0809144
:101CF000FF0708E512E0081B110987FD1395000F87
:101D0000111F000F111F8091FE07C8E8D0E0C81B0B
:101D1000D10987FDD395CC0FDD1FCC0FDD1F4E0100
:101D20000D2E000CAA08BB089801012E000C440BD4
:101D3000550B281939094A095B09AE2DB0E00E94FC
:101D4000273124EB30E040E050E00E940831820E61
:101D5000931EA41EB51E8C169D062CF0E80180165D
:101D600091060CF4E4012297CC0FDD1F2FB7F894F5
:101D70008F2D90E0FC01EE0FFF1FE80FF91FE852D6
:101D8000F84FD283C1832FBFDF91CF911F910F9165
:101D9000FF90EF90BF90AF909F908F900895CF935A
:101DA000C42F91E090933704809359041092380423
:101DB00010925A0488E495E00E94920D6C2F88E4FA
:101DC00095E00E94920D81E00E944B0C91E0811100
:101DD00090E0892FCF9108958F929F92AF92BF92FA
:101DE000DF92EF92FF920F931F93CF93DF93EC015B
:101DF0007B018A8180FFB9C0288188889988AA8858
:101E0000BB8823FF21C0888D998DAA8DBB8D881931
:101E10009909AA09BB0982309105A105B10518F5F8
:101E2000009709F530E020E0A901481B590BCA01D1
:101E3000DF91CF911F910F91FF90EF90DF90BF90B6
:101E4000AF909F908F90089526FF0DC0EE81FF8187
:101E50008681978135E0880F991F3A95E1F78815BB
:101E6000990509F488C0EE81FF8184011170B501E4
:101E7000A40189E076956795579547958A95D1F79E
:101E800026FF27C0848D958DA68DB78D480F591FCD
:101E90006A1F7B1F8E819F8120E080960E94C00771
:101EA000009709F462C0800F911FFC018081F70147
:101EB000808388899989AA89BB890196A11DB11D52
:101EC000888B998BAA8BBB8B21E030E090E080E07F
:101ED000ABCFD380D4220115110581F4D1100EC0EF
:101EE00089288A288B2881F527FF29C0848D958D24
:101EF000A68DB78D8C879D87AE87BF87EE81FF81CA
:101F00004C855D856E857F85425051096109710957
:101F1000848104C0440F551F661F771F8A95D2F72E
:101F200080899189A289B389840F951FA61FB71F45
:101F3000AC01BD014D0D511D611D711DABCF8C8DCF
:101F40009D8DAE8DBF8DD6CF4C855D856E857F8591
:101F50009E01245F3F4FCF010E94AE0987FD05C05F
:101F60008111CCCF8881807D49F489818260898309
:101F70008FEF9FEF5DCF30E020E0A8CF21E030E091
:101F800081E090E051CFEF92FF920F931F93CF9398
:101F9000DF931F92CDB7DEB77C01962FF701408902
:101FA0005189628973898A019B0185E0369527955D
:101FB000179507958A95D1F70F7011F0911129C0E7
:101FC000BE016F5F7F4FC7010E94EC0E813051F060
:101FD00090E080E00F90DF91CF911F910F91FF90E3
:101FE000EF900895F70180899189A289B3894F966E
:101FF000A11DB11D808B918BA28BB38BF7018681C4
:1020000097818B96F0E20F9F90011124820F931F0E
:10201000E1CF405E5F4F6F4F7F4F408B518B628BA4
:10202000738BECCF8F929F92AF92BF92CF92DF9241
:10203000EF92FF920F931F93CF93DF931F92CDB731
:10204000DEB78C01FC01848C958CA68CB78CC08C7F
:10205000D18CE28CF38CBE016F5F7F4F0C960E9497
:10206000EC0E0197C9F4898190E0F801848E958E79
:10207000A68EB78EC08ED18EE28EF38E0F90DF913A
:10208000CF911F910F91FF90EF90DF90CF90BF9075
:10209000AF909F908F9008958FEF9FEFE6CFCF93F3
:1020A000DF931F92CDB7DEB7BE016F5F7F4F0C96F7
:1020B0000E94EC0E019731F4898190E00F90DF913E
:1020C000CF9108958FEF9FEFF9CF2F923F924F92CC
:1020D0005F926F927F928F929F92AF92BF92CF92B8
:1020E000DF92EF92FF920F931F93CF93DF93EC0158
:1020F0004B015A018A8181FF8CC083FD81C0A501FB
:1021000070E060E088899989AA89BB89809590955B
:10211000A095B09584179507A607B70708F479C06E
:1021200065011E018CE0280E311C088919892A8955
:102130003B89C114D10409F4E5C08E819F81B901A6
:10214000A80129E076956795579547952A95D1F787
:10215000DC011396FC90F4221170F1101BC04C8529
:102160005D856E857F850115110509F0EFC041156C
:1021700051056105710509F452C091010E94AE0933
:1021800087FD47C0811106C0CE010E94470B8823FE
:1021900009F43FC0EE81FF814C855D856E857F85AA
:1021A0004250510961097109848104C0440F551FCF
:1021B000661F771F8A95D2F780899189A289B38992
:1021C000840F951FA61FB71FAC01BD014F0D511DF8
:1021D000611D711D0115110521F4C114B2E0DB066A
:1021E000C8F580E092E0801B910B76018C159D056F
:1021F00008F47C010115110509F448C021E057C01D
:10220000488D598D6A8D7B8DCE010E94850A811182
:1022100076CF898181608983B12CA12C83C08C8D7C
:102220009D8DAE8DBF8D0097A105B10571F4CE01D6
:102230000E94470B882369F38C859D85AE85BF85F9
:102240008C8F9D8FAE8FBF8FA5CF8C879D87AE87DC
:10225000BF87A0CF83A194A1A5A1B6A14817590714
:102260006A077B0741F410A28FEF9FEFDC0183A385
:1022700094A3A5A3B6A3940181A192A10E948D0667
:10228000882339F2E12C82E0F82E2BC04888598847
:102290006A887B88888D998DAA8DBB8D48165906D2
:1022A0006A067B0618F48A8185FFA8CF25E0CF0156
:1022B00080960E94C007009709F4ABCFA701B40134
:1022C000800F911F0E94AA350E0D1F1D011512408F
:1022D00041F48E819F8180960E94DC06882309F458
:1022E00098CF88899989AA89BB898E0D9F1DA11DC8
:1022F000B11D888B998BAA8BBB8B8E0C9F1CCE1823
:10230000DF0813CF888D998DAA8DBB8D801791071B
:10231000A207B30738F4088F198F2A8F3B8F8A8161
:1023200080688A83C501DF91CF911F910F91FF9043
:10233000EF90DF90CF90BF90AF909F908F907F9065
:102340006F905F904F903F902F900895FC01425006
:10235000510961097109848104C0440F551F661F2A
:10236000771F8A95D2F780899189A289B389480F0E
:10237000591F6A1F7B1F35CF0C960C946510CF93A5
:10238000DF931F92CDB7DEB7698341E050E0BE0115
:102390006F5F7F4F0C960E9465100F90DF91CF9179
:1023A0000895FB0101900020E9F73197AF01461B2A
:1023B000570BDC01ED91FC910280F381E02D099433
:1023C0000F931F93CF93DF93EC010E94D1118C01E7
:1023D0006DEA71E0CE010E94D111800F911FDF9153
:1023E000CF911F910F9108954F925F926F927F92BC
:1023F0008F929F92AF92BF92FF920F931F93CF93B2
:10240000DF93D82F042FF52E122F81E0809337040D
:10241000D09359041092380410925A0488E495E03D
:102420000E94920D80E00E944B0CC82F8111CCC0FD
:102430000E94F1034B015C0180913104811165C060
:1024400081E080933104809330049FEF90932F04B8
:1024500010922E04910F90932D0480930C04809180
:102460000C04DD0FD82BD0930C0480910B04813029
:1024700009F084C010920B040E94F1034B015C012F
:1024800080910C048093BB008091330490913404BC
:10249000A0913504B0913604892B8A2B8B2BA1F0A7
:1024A0000E94F1034090330450903404609035044E
:1024B00070903604681979098A099B0946165706EF
:1024C0006806790608F442C08091BC0083FDD8CF2D
:1024D00085EC8093BC000E94F1034B015C0180916C
:1024E0003104813009F44CC080912E04811708F02A
:1024F00069C080912E04ADE0B4E0E2EDF1E0C817D0
:1025000049F19D919193CF5FFACF809133049091DF
:102510003404A0913504B0913604892B8A2B8B2B7F
:1025200009F48ACF0E94F1034090330450903404A0
:102530006090350470903604681979098A099B09FE
:10254000461657066806790608F076CF8091320461
:102550000E942A0C10923B02C0933A021C1334C012
:10256000B02EC02FDF2D88E495E00E944B0D89939B
:102570008C2F8B198117B8F381E027C085EEA9CF86
:102580008091330490913404A0913504B0913604C5
:10259000892B8A2B8B2B09F4A2CF0E94F103409048
:1025A00033045090340460903504709036046819F8
:1025B00079098A099B09461657066806790608F0C4
:1025C0008ECFC4CF812F97CF80E0DF91CF911F9125
:1025D0000F91FF90BF90AF909F908F907F906F90E2
:1025E0005F904F900895EF92FF920F931F93CF93B8
:1025F000DF93CDB7DEB72C970FB6F894DEBF0FBED2
:10260000CDBF7C018B012CE0AE014F5F5F4F6DE2CF
:1026100088E60E94F411882361F129813A813227EA
:1026200023273227F701318320832B813C813227F6
:1026300023273227338322832D813E81322723278C
:102640003227358324832F81388532272327322769
:10265000F8013183208329853A85322723273227C1
:10266000338322832B853C853227232732273583EA
:1026700024832C960FB6F894DEBF0FBECDBFDF913A
:10268000CF911F910F91FF90EF9008952F923F925D
:102690004F925F926F927F928F929F92AF92BF9272
:1026A000CF92DF92EF92FF920F931F93CF93DF931E
:1026B000CDB7DEB728970FB6F894DEBF0FBECDBFFB
:1026C00098878F837B0126E0AE014F5F5F4F67EFF6
:1026D00087E70E94F411082F882309F4E9C11981C2
:1026E0002A803B808C8190E0B0E0A0E02CE0880F55
:1026F000991FAA1FBB1F2A95D1F74D8150E070E0AA
:1027000060E034E0440F551F661F771F3A95D1F7FC
:10271000842B952BA62BB72B2E8130E044E03595EA
:1027200027954A95E1F7032E000C440B550B822B9D
:10273000932BA42BB52B40913D0250913E0270E0AB
:1027400060E02C013D01E4E0759467945794479450
:10275000EA95D1F7441A550A660A770AF3E0B59567
:10276000A79597958795FA95D1F7440F551F661F42
:10277000771F5C016D01A41AB50AC60AD70AA60123
:102780009501A0913F02B09140020E9432314B016D
:102790005C013BE0B594A794979487943A95D1F760
:1027A000A3019201C301B2010E947B359B01AC01E0
:1027B0006CE055954795379527956A95D1F7A09187
:1027C0004102B09142020E9432312B013C017EE075
:1027D00075946794579447947A95D1F7480C591C8F
:1027E0006A1C7B1C4092550250925602609257021E
:1027F00070925802A5E0B0E0A30192010E94273137
:1028000060587F4F8F4F9F4F672F782F892F9927C1
:1028100087FD9A950E94873220E030E048EC52E430
:102820000E94DD31F701608371838283938373019A
:102830006201F594E794D794C794FAEFDF1AE108A0
:10284000F108C701B601A2E0959587957795679540
:10285000AA95D1F79B01AC010E947B354B015C012D
:10286000A0914702B0914802AC019B018DE05595C3
:102870004795379527958A95D1F70E9432312B01DC
:102880003C0193E075946794579447949A95D1F7D7
:10289000A0914502B0914602A70196010E943231F3
:1028A0009B01AC015595479537952795240D351D0E
:1028B000461D571D72E155954795379527957A9591
:1028C000D1F730584F4F5F4FA0914302B09144026F
:1028D0000E9427312B013C01EFE0759467945794D7
:1028E0004794EA95D1F7411451046104710409F445
:1028F00004C1A50194018BE055954795379527951F
:102900008A95D1F7A0914D02B0914E020E943231CA
:102910004B015C01A0914B02B0914C02A7019601C2
:102920000E943231DC01CB01880F991FAA1FBB1F07
:10293000880D991DAA1DBB1D6C017D0132E0F59427
:10294000E794D794C7943A95D1F7212F30E050E01F
:1029500040E06CE0220F331F441F551F6A95D1F7EA
:10296000822D90E0B0E0A0E074E0880F991FAA1FCC
:10297000BB1F7A95D1F7282B392B4A2B5B2B832D44
:1029800090E0E4E095958795EA95E1F7092E000C33
:10299000AA0BBB0B282B392B4A2B5B2B80914902AE
:1029A00090914A02092E000CAA0BBB0BDC0199275F
:1029B00088278C0D9D1DAE1DBF1D1CE0B595A795EC
:1029C000979587951A95D1F7280F391F4A1F5B1FD6
:1029D000ABECB3EF0E943531805B9C4397FD82C026
:1029E000660F771F881F991FA30192010E943A3139
:1029F00029013A01C301B20123E0969587957795A5
:102A000067952A95D1F79B01AC010E947B359B010C
:102A1000AC016DE056954795379527956A95D1F7A6
:102A2000A0915302B09154020E9432316B017C019B
:102A30007CE0F594E794D794C7947A95D1F7A301F5
:102A40009201E2E05695479537952795EA95D1F79B
:102A5000A0915102B09152020E9432319B01AC010F
:102A6000FDE05595479537952795FA95D1F72C0DAB
:102A70003D1D4E1D5F1DC0904F02D09050020D2C89
:102A8000000CEE08FF082C0D3D1D4E1D5F1DA4E03F
:102A90005595479537952795AA95D1F7420E531E20
:102AA000641E751EEF81F8854082518262827382B6
:102AB000802F28960FB6F894DEBF0FBECDBFDF91F2
:102AC000CF911F910F91FF90EF90DF90CF90BF902B
:102AD000AF909F908F907F906F905F904F903F90BE
:102AE0002F900895A30192010E943A3129013A01E1
:102AF000440C551C661C771C7DCF412C512C320197
:102B0000D1CFFC01808181110EC080E2DF011D92D6
:102B10008A95E9F777836683DB0115968C9180317E
:102B200021F0803239F080E0089580E4808381E0F4
:102B30008283089580E8FACFCF92DF92EF92FF92DE
:102B40000F931F93CF93DF93FC0180E2DF011D926F
:102B50008A95E9F7DB011696CD91DC911797D7831B
:102B6000C683558344835C96CD90DD90ED90FC90B8
:102B70005F97C086D186E286F386DE019B964F7012
:102B8000552795E0440F551F9A95E1F7A40FB51FFF
:102B90001B968C911B9783FD12C0877380831B96B5
:102BA0009C911B97987111F4886080830383237034
:102BB000213009F448C038F0223009F442C01082B4
:102BC000128280E035C081E08283828181FF06C06D
:102BD0008081982F917199F7806280834BA15CA1CD
:102BE0006DA17EA1448B558B668B778B54964D914E
:102BF0005C91559770E060E0BA01552744275A96DA
:102C00000D911C915B9730E020E0402B512B622B03
:102C1000732B448F558F668F778F5C968D919D9126
:102C20000D90BC91A02D808F918FA28FB38F81E0EA
:102C3000DF91CF911F910F91FF90EF90DF90CF9098
:102C4000089583E0C1CF82E0BFCF4F925F926F9231
:102C50007F928F929F92AF92BF92CF92DF92EF922C
:102C6000FF920F931F93CF93DF935C01EB016A01F7
:102C7000922E40E050E0BA01CE010E94850AF12C6C
:102C8000E12C712C612C00E010E026012FEF421A9C
:102C9000520A61E0CE010E94C30FBC010097B1F45B
:102CA0008981882309F495C080E0DF91CF911F913D
:102CB0000F91FF90EF90DF90CF90BF90AF909F90DB
:102CC0008F907F906F905F904F900895FC0190815E
:102CD000953E09F475C0992309F477C0838583FD77
:102CE00011C04BE050E0C2010E949D35892B09F0D4
:102CF0006AC0292DA70196FCD7CFBE01C5010E944D
:102D00009C15D3CF8F3009F05EC096FF02C0092F0B
:102D10000F71FFEFEF1AFF0ABCCF370100E011E09F
:102D2000F8CF848120E032E002C0220F331F8A9561
:102D3000E2F788899989AA89BB89820F931FA11D0F
:102D4000B11D888B998BAA8BBB8B3701A30170E0D7
:102D500060E085E0440F551F661F771F8A95D1F705
:102D6000CE010E94850A882309F49ECF60E0CE013F
:102D70000E94C30F009709F497CF20E2FC01119243
:102D80002A95E9F7F60131962BE0DC0101900D92CE
:102D90002A95E1F7F60120812871FC01248721E2C0
:102DA0003CE5318B208B318F208F338B228BEE8152
:102DB000FF8180A1816080A300E0292DA3019DCF28
:102DC000112309F4AACF00E0A4CF111102C03701EA
:102DD00011E094FE69CF892D83708150823008F014
:102DE00063CF1111B3CF888186FD5ECF8889998921
:102DF000AA89BB8981159E4FAF41B10508F054CF18
:102E0000CE010E94470B882309F44ECFEE81FF814B
:102E10004C845D846E847F8432E0431A51086108DB
:102E20007108848104C0440C551C661C771C8A956B
:102E3000D2F780899189A289B389480E591E6A1EEA
:102E40007B1E812C00E012E0EE81FF8182818816DA
:102E500008F067CF25E0B301A201480D511D611DA7
:102E6000711DCF0180960E94C007009709F41CCF06
:102E7000FC019801119221503040E1F78394E4CF96
:102E80008F929F92AF92BF92CF92DF92EF92FF927A
:102E90000F931F93CF93DF93CDB7DEB7AC970FB6E9
:102EA000F894DEBF0FBECDBF8C017A01B22E19821D
:102EB0001A821B82FC0180818823A1F080E0AC96FD
:102EC0000FB6F894DEBF0FBECDBFDF91CF911F913B
:102ED0000F91FF90EF90DF90CF90BF90AF909F90B9
:102EE0008F900895FB018081807D41F3FA018081FC
:102EF0008F32B1F47F0181918F32E1F3FB01668162
:102F00007781811104C0C8010E948115D8CFCE01FC
:102F100001960E948115BE016F5F7F4F882371F279
:102F20006E01FDE2CF0ED11C20E2A22EFE01B29670
:102F30009F01A192CE16DF06E1F7D70187E0E82EC8
:102F4000E0E098E0992E90E0F12CAD014F5F5F4FEB
:102F50008C91882309F444C08F3209F441C08E3229
:102F600051F4F7E0EF1212C08AE0E82EE8E08E2E6E
:102F7000F0E19F2E2CC0823209F4A0CF8C3709F4E7
:102F80009DCFF5EAF80FF33008F498CFF6EDF80F7F
:102F9000F63018F48D3209F091CFF6ECF80FF630D8
:102FA00008F48CCFFFEDF80FFE3508F087CFEE1652
:102FB00008F484CFFFE9F80FFA3160F480529929C0
:102FC000882483948E0EE20FF32FF11D8083DA01A3
:102FD000E82DBBCFFFEBF80FFA3190F7F928F0CFCF
:102FE0008AA1803209F46ACFF92209F090E099A30E
:102FF0007D018C9111968F32D9F3811108C02B2D50
:10300000AE014F5D5F4FC8010E94251658CF20E0EA
:10301000AE014F5D5F4FC8010E942516882309F459
:103020004DCF80E2F801DE01119601900D928A9554
:10303000E1F7C8010E94290AF80110821282BE013C
:103040006F5F7F4F73CF85ED8093BC008091330419
:1030500090913404A0913504B09136040796A11DD7
:10306000B11D23E0B695A795979587952A95D1F739
:103070002091BC0024FD03C01092310408954091BA
:103080003304509134046091350470913604452B1B
:10309000462B472B69F30097A105B10541F02AE2C1
:1030A0002A95F1F700C00197A109B109E1CF8091FC
:1030B00032040C942A0CBF92CF92DF92EF92FF92CF
:1030C0000F931F93CF93DF9300D000D000D0CDB7E4
:1030D000DEB78C016B01CA01B22E4AE09E012F5F60
:1030E0003F4F7901B9010E94DE30F70101900020C5
:1030F000E9F73197EE19C601019720E3EB1548F483
:103100000817190720F4D8012C930F5F1F4FEF5FAA
:10311000F5CFA701B601C8010E94D10D26960FB6C2
:10312000F894DEBF0FBECDBFDF91CF911F910F91FD
:10313000FF90EF90DF90CF90BF900895EF92FF92B5
:103140000F931F93CF93DF93CDB7DEB72C970FB6B6
:10315000F894DEBF0FBECDBF8C017B01CA01B9015F
:103160002AE0AE014F5F5F4F0E94BC30AE014F5F5F
:103170005F4FB701C8010E94D10D2C960FB6F8948D
:10318000DEBF0FBECDBFDF91CF911F910F91FF909A
:10319000EF900895AF92BF92CF92DF92EF92FF929D
:1031A0000F931F93CF93DF93EC015B0169017A01C9
:1031B0001AE0013009F014E620E030E0A901C7016F
:1031C000B6010E94D83187FF1BC020E836E948E1EC
:1031D0005CECC701B6010E94373318160CF453C0DB
:1031E00040EB51E0B501CE01DF91CF911F910F91DE
:1031F000FF90EF90DF90CF90BF90AF900C94D10DE7
:1032000020E836E948E15CE4C701B6010E94D83104
:1032100087FFE6CF612F70E090E080E00E94873268
:10322000A70196010E943C3320E030E040E05FE3DC
:103230000E946C310E945632212F30E050E040E075
:103240000E943A316B01B501CE010E949E18950192
:10325000215031098217930720F42EE2FC012083CC
:103260000196023009F001E0202FA601B501DF919F
:10327000CF911F910F91FF90EF90DF90CF90BF9073
:10328000AF900C945B18F7FAF094F7F8F094612F74
:1032900070E090E080E00E9487329B01AC01C701A2
:1032A000B6010E943C3320E030E040E05FE30E9442
:1032B0006C310E945632611571058105910509F442
:1032C000BBCF950121503109C217D30708F0B4CF05
:1032D0002DE228832196B0CFCF93DF93C42F23E232
:1032E00020931F039B01AC016FE573E080E293E044
:1032F0000E949E1823E08E35920720F42CE7FC01F3
:103300002083019643E352E0C03140F4EC2FF0E01B
:10331000EE0FFF1FEC5EFE4F408151816FE573E0C1
:103320000E94C10DEC0118828BEA94E00E9408050E
:10333000CF51D340CE5FC817190609F054F46FE19E
:1033400073E08BEA94E00E94E01181E0DF91CF917D
:10335000089580E0FBCFCF93C5E080915C02882385
:10336000E1F0E0915D02CE9FF0011124E254FE4FA6
:10337000608171818281938144810E946C198823CC
:1033800061F080915D028F5F837080935D02809118
:103390005C02815080935C02E0CFCF910895CF9280
:1033A000DF92EF92FF92CF93C82F0E94CD046B0162
:1033B0007C0180916B03813079F583E28093BD02BB
:1033C000A70196016DE173E08EEB92E00E949E18DA
:1033D000FC0101962CE2208343E352E0C03140F42B
:1033E000EC2FF0E0EE0FFF1FEC5EFE4F40815181AD
:1033F0006DE173E00E94C10DFC0110826DEB72E083
:1034000084E595E00E94E01180916B03813021F406
:1034100080E695E00E94290A809161038130D9F409
:103420000E94AB1980915C02882371F080915C024C
:103430008430B9F480911D0390911E0301969093FE
:103440001E0380931D0307C04C2FC701B6010E94C5
:103450006C19882359F3CF91FF90EF90DF90CF90B4
:103460000895E0915D02E80FE37095E0E99FF001B7
:103470001124E254FE4FC082D182E282F382C483DF
:103480008F5F80935C02E7CFCF93C82F88E70E94BD
:10349000050E82E08093B6020E94CD046093A902DB
:1034A0007093AA028093AB029093AC021092AD028B
:1034B0008AE0C1118EE0CF910C94CF1990916A03EC
:1034C0009817E9F080936A03833089F028F48130FB
:1034D00049F0823051F00895853069F050F087301E
:1034E00061F0089586E00C94CF1987E0FCCF88E066
:1034F000FACF89E0F8CF8BE0F6CF8CE0F4CF0895D7
:103500002091630330916403A90148235923452B7B
:1035100069F4282B392B309364032093630387705D
:103520009927892B19F08DE00C94CF1908951F92DB
:103530000F920FB60F9211248F939F938091E10009
:103540009091E100937F9093E10083FF0FC0109270
:10355000E90091E09093EB001092EC0092E39093DD
:10356000ED0010920A0498E09093F00082FF22C0D0
:1035700093E09093E9009091F200992319F09AE377
:103580009093E8009091FB03992341F09091FB0305
:1035900091509093FB03911101C05D9A90910904A1
:1035A000992341F09091090491509093090491114D
:1035B00001C0289A84FF18C08091E2008E7E81604D
:1035C0008093E2008091E1008F7E8093E100809102
:1035D000FC038E7E80618093FC039F918F910F90FE
:1035E0000FBE0F901F90189580FFF7CF8091E200DB
:1035F0008E7E80618093E2008091E1008E7E8093D8
:10360000E1008091FC038E7E8160E5CF1F920F92D6
:103610000FB60F921124CF92DF92EF92FF920F9389
:103620001F932F933F934F935F936F937F938F934A
:103630009F93AF93BF93EF93FF93CF93DF93CDB758
:10364000DEB76C97DEBFCDBF1092E9008091E80035
:1036500083FF25C068E0CE0145960E94730382EF88
:103660008093E8008D8987FF39C09091E80090FF32
:10367000FCCF982F907609F034C19E894F89588DE0
:103680002F89F88C911131C0803861F58091FA034F
:103690008093F1001092F1008EEF8093E8006C9619
:1036A0000FB6F894DEBF0FBECDBFDF91CF91FF9173
:1036B000EF91BF91AF919F918F917F916F915F91AA
:1036C0004F913F912F911F910F91FF90EF90DF90BD
:1036D000CF900F900FBE0F901F9018959EEF909374
:1036E000E800C7CF1092F100D5CF913059F4811185
:1036F000D3CF4130510581F68091FA038D7F8093BD
:10370000FA03CACF933049F48111C6CF4130510535
:1037100019F68091FA038260F2CF953041F48091DE
:10372000E80080FFFCCF20682093E300B5CF9630FF
:1037300009F0A9C00B8D1C8D22E01092E9001092B7
:10374000F8031092F703F2122EC01092F6031092B3
:10375000F5030E9442031F8299E09983FA8291E067
:103760009E8390EA98879AEF99872091F70330918A
:10377000F803275F3F4F3C832B838D831092E90032
:103780001092F8031092F7031093F6030093F503D9
:1037900049E050E0BE016F5F7F4F80E00E941C0354
:1037A0000E94420379CF1093F6030093F5030E9421
:1037B0005902DC0112960D911C910115110509F4B5
:1037C00051C1D801ED91FC910480F581E02DBE013D
:1037D0006B5E7F4FC8010995009709F03EC1F80163
:1037E00000851185EACFF3E0FF120EC08F89882390
:1037F00009F440C0823061F440E860E18DE393E079
:103800000E94B51F811148CF81E28093EB0047CF22
:10381000813029F440E86BE081E393E0F1CF83301D
:1038200099F70E945902DC011296ED90FC908E01EE
:103830000F5F1F4F6801E114F10479F0D701ED919A
:10384000FC910680F781E02DB801C7010995080FAA
:10385000111DF701E084F184EECFD8011C92F6012E
:1038600001900020E9F73197BF016C197D0940E014
:10387000C601C6CF6BE173E0FB01449150E080E8E4
:103880000E941C0309CF973009F4BECF983021F471
:1038900081E08093F10000CF993009F0FDCE837074
:1038A00009F0B2CFEFE5F1E081E031E096E321915C
:1038B000222371F08093E9003093EB00DF01119730
:1038C0002C912093EC009093ED008F5F873079F777
:1038D0008EE78093EA001092EA008F8980930A04B1
:1038E000DBCE8B8D9C8D1092E9001092F803109224
:1038F000F7039093F6038093F503898D811192C0AD
:103900008E899D89913A49F4813209F07DCF47E053
:1039100050E06CE071E080E0B3CF913209F074CFF9
:10392000833269F48F89988DB0E0A0E0809308011C
:1039300090930901A0930A01B0930B01ADCE8032A0
:1039400069F48091E80082FFFCCF67E08CE091E0B1
:103950000E9473038BEF8093E8009ECE823209F0C1
:103960009BCE8F8980931301EEEFFFE785919491B1
:103970008B3F9C4D51F1E0E0F8E080910C0190917B
:103980000D01A0910E01B0910F01803B9440A10563
:10399000B105F1F48091130180FD1AC0EE3F8AE079
:1039A000F80789F587E797E7918380838091600026
:1039B0008093F90388E19BE00FB6F894A895809373
:1039C00060000FBE9093600067CEEEEFFAE0D5CFB7
:1039D000808191818737974709F05ECEA8958091C5
:1039E00060008861809360008091F903809360009B
:1039F000EE3F2AE0F20789F08091FE0A9091FF0ADB
:103A00009183808349CE808191818737980751F2D5
:103A10009093FF0A8093FE0AC5CF1092FF0A10927E
:103A2000FE0A3ACE0E945902DC0112960D911C91B9
:103A30000115110509F4E8CED801ED91FC91019032
:103A4000F081E02DBE016B5E7F4FC80109958111A9
:103A500023CEF80100851185EBCF181619060CF45A
:103A60001BCED2CEF1E0FF12BECE6FE173E004CFE9
:103A70001F920F920FB60F9211242F933F938F93A3
:103A80009F93AF93BF938091ED039091EE03A0912C
:103A9000EF03B091F0033091EC0323E0230F2D37B7
:103AA00058F50196A11DB11D2093EC038093ED0301
:103AB0009093EE03A093EF03B093F0038091F10392
:103AC0009091F203A091F303B091F4030196A11D2C
:103AD000B11D8093F1039093F203A093F303B0938D
:103AE000F403BF91AF919F918F913F912F910F90D0
:103AF0000FBE0F901F90189526E8230F0296A11D68
:103B0000B11DD2CF1F920F920FB60F9211242F9397
:103B10003F934F935F936F937F938F939F93AF9355
:103B2000BF93EF93FF938BEA94E00E945905FF91B6
:103B3000EF91BF91AF919F918F917F916F915F9125
:103B40004F913F912F910F900FBE0F901F9018959E
:103B50001F920F920FB60F9211242F938F939F9362
:103B6000EF93FF93E091BB04F091BC048081E0915E
:103B7000C104F091C20482FD1BC090818091C404F5
:103B80008F5F8F732091C504821741F0E091C404C8
:103B9000F0E0E555FB4F958F8093C404FF91EF91C2
:103BA0009F918F912F910F900FBE0F901F9018959E
:103BB0008081F4CF1F920F920FB60F9211242F9392
:103BC0003F934F935F936F937F938F939F93AF93A5
:103BD000BF93CF93DF93EF93FF9380913502C09112
:103BE000FC07D0E087FF24C010928500109284006B
:103BF000809135028F5F8093350280913502082EC7
:103C0000000C990B8C179D0724F4809135028C30A1
:103C1000C4F18091840090918500049680349C4981
:103C200008F47AC08091840090918500049676C053
:103C300080913502082E000C990B8C179D07C4F655
:103C4000E09135028E2FEE0F990BFC01EE0FFF1F56
:103C5000E80FF91FE852F84F808186FFC9CFE09145
:103C600035028E2FEE0F990BFC01EE0FFF1FE80FB0
:103C7000F91FE852F84F808160E08F730E94800343
:103C8000B7CF2091840030918500E09135028E2FCE
:103C9000EE0F990BFC01EE0FFF1FE80FF91FE85222
:103CA000F84F81819281820F931F909389008093B6
:103CB0008800E09135028E2FEE0F990BFC01EE0F7C
:103CC000FF1FE80FF91FE852F84F808186FF11C0EF
:103CD000E09135028E2FEE0F990BFC01EE0FFF1FC6
:103CE000E80FF91FE852F84F808161E08F730E945E
:103CF0008003FF91EF91DF91CF91BF91AF919F91A1
:103D00008F917F916F915F914F913F912F910F9084
:103D10000FBE0F901F90189580E49CE99093890046
:103D2000809388008FEF80933502E3CF1F920F922C
:103D30000FB60F9211242F933F934F935F936F937E
:103D40007F938F939F93AF93BF93EF93FF93809154
:103D5000B900887F803609F44AC0F0F5883209F44A
:103D6000A7C018F5803109F49BC0B8F4882309F482
:103D7000F9C0883009F494C0FF91EF91BF91AF91E1
:103D80009F918F917F916F915F914F913F912F9173
:103D90000F900FBE0F901F901895883109F488C0BE
:103DA000803251F780932F0414C0803409F49DC0F1
:103DB00040F48033B9F38833F9F680932F0485EC0F
:103DC000B0C0803509F485C0883509F496C08834C0
:103DD00099F60E942318D0CF883909F48CC038F5A1
:103DE000883729F050F4883611F0803729F683E0BF
:103DF000809331041092340257C0883809F47BC094
:103E0000803919F0803809F0B7CF809134028032C0
:103E100008F071C0E091340281E08E0F809334028B
:103E20008091BB00F0E0EC5EFD4F80833DC0803BA5
:103E300039F0E0F4803A09F479C0883A09F09CCF6F
:103E400084E0809331041092130210921202E091E8
:103E50003802F091390209958091120281110FC048
:103E600081E0809312021092F20109C0803C09F4B3
:103E7000A6CF883C09F4A3CF883B09F07DCFE09121
:103E8000130281E08E0F80931302F0E0EE50FE4F9C
:103E900080818093BB00909113028091120229C00F
:103EA00080910C048093BB0085EC8093BC0064CFB0
:103EB00090912E0480912D04981758F5E0912E04CE
:103EC00081E08E0F80932E04F0E0E35FFB4F808152
:103ED000E9CFE0912E0481E08E0F80932E04809133
:103EE000BB00F0E0E35FFB4F808390912E04809154
:103EF0002D049817C8F285E8D8CFE0912E0481E010
:103F00008E0F80932E048091BB00F0E0E35FFB4FA7
:103F100080838091300481115CCF81E080930B0419
:103F200084EA8093BC001092310426CF85EC809304
:103F3000BC001092310480913402803230F4E09160
:103F40003402F0E0EC5EFD4F10826091340270E0CC
:103F5000E0913602F091370284E192E009951092E7
:103F600034020ACF10922F0434CFEF92FF920F93B6
:103F70001F93CF93DF93F82E192FE62E042F81E0A5
:103F8000860F880F0E94EE0283E00E94EE02CF2D82
:103F9000D12FEC0EFD2EF11CCE15DF05B9F007FF79
:103FA00013C0FE0184910E94EE02182F80E00E944F
:103FB000EE02812321968111EFCFDF91CF911F91E6
:103FC0000F91FF90EF9008958881EDCF81E0F5CFBC
:103FD00010925E0410925D0488EE93E0A0E0B0E0E1
:103FE00080935F0490936004A0936104B093620493
:103FF00029E631E030935C0420935B042FEF3FEF20
:1040000030936804209367041092AE041092AD04BC
:104010008093AF049093B004A093B104B093B20422
:104020002BE731E03093AC042093AB042DEC30E06F
:104030003093B8042093B7042CEC30E03093BA04EA
:104040002093B90428EC30E03093BC042093BB04E7
:1040500029EC30E03093BE042093BD042AEC30E01C
:104060003093C0042093BF042EEC30E03093C204A0
:104070002093C1041092C4041092C5041092C60487
:104080001092C70410924B0510924A0580934C057C
:1040900090934D05A0934E05B0934F052DE831E068
:1040A0003093490520934805109285051092A2058A
:1040B0001092A1051092A0054FEF5FEFBA01409357
:1040C000A3055093A4056093A5057093A6051092CF
:1040D000AB071092AC071092AD071092CC0710926C
:1040E000CB071092CE071092CD0720E52093CF0783
:1040F0001092D0071092D1071092D2072AE2209393
:10410000D3071092D4071092D5071092D6071092B9
:10411000D707109257051092560580935805909333
:104120005905A0935A05B0935B0510926005109253
:104130006105109262058FE991E090935505809397
:1041400054058091FC078C3098F491E0980F90937F
:10415000FC078093FD0790E0FC01EE0FFF1FE80FC6
:10416000F91FE852F84F88EB9BE092838183089512
:104170008FEF8093FD070895CF93DF93CDB7DEB720
:10418000E7970FB6F894DEBF0FBECDBF789484B525
:10419000826084BD84B5816084BD85B5826085BD43
:1041A00085B5816085BD80916E00816080936E00D1
:1041B00010928100809181008260809381008091C3
:1041C0008100816080938100809180008160809374
:1041D0008000809191008260809391008091910095
:1041E0008160809391008091900081608093900025
:1041F0008091C10084608093C1008091C100826081
:104200008093C1008091C10081608093C100809142
:10421000C30081608093C3008091C000826080935E
:10422000C0008091C20081608093C20080917A00BA
:10423000846080937A0080917A00826080937A0013
:1042400080917A00816080937A0080917A00806802
:1042500080937A0010920A041092FA031092FC03E1
:104260008091D70081608093D70080EA8093D80046
:1042700089B5806189BD89B5826089BD09B400FEB8
:10428000FDCF61E070E080E090E00E941604809134
:10429000D8008F7C80618093D8008091E000807F7F
:1042A0008093E0008091E1008E7E8093E1008DE0BC
:1042B0008093E200559A209A85E00E94FF0160E019
:1042C00085E00E94800310926403109263031092B1
:1042D00066031092670310926803109269031092AC
:1042E000650380E00E94CF1910923B0210923A02BF
:1042F0001092380410925A040E940C0C89ED94E03C
:1043000090933902809338028AED94E090933702BB
:10431000809336028CE08093B80010923C0288EBC8
:104320009BE0A0E0B0E08093330490933404A0932A
:104330003504B093360481E08093320410925E021B
:1043400010925F021092600210926102109262025B
:10435000109263021092640210926502109266023B
:104360001092670210926802109269021092850200
:1043700010928602109287021092880210927202A6
:1043800010927302109274021092750210927702CA
:104390001092620310927602198240E06FE788E67D
:1043A0000E94CF0E21E0AE014F5F5F4F60E088E6D4
:1043B0000E94F411182F882309F462C089818A3E73
:1043C00011F00C942E2B40E866E088E60E94CF0E98
:1043D00064E670E080E090E00E94160440E06FE741
:1043E00088E60E94CF0E41E066E088E60E94CF0E8C
:1043F0006EE170E080E090E00E94160440E067E02B
:1044000088E60E94CF0E6EE170E080E090E00E94AE
:10441000160440E26FE788E60E94CF0E80E090E04D
:10442000A0E0B5E48093040190930501A0930601F8
:10443000B093070147E064E188E60E94CF0E83E372
:1044400093E3A3E8B1E48093000190930101A0936A
:104450000201B093030147E061E088E60E94CF0EBD
:1044600040E060E088E60E94CF0E6EE170E080E000
:1044700090E00E94160440E06FE788E60E94CF0EAD
:1044800019A221E0AE014F5D5F4F60ED87E70E940A
:10449000F41181110C94312B111104C084E090E0CF
:1044A0000E94801A82E090E00E94801A81E090E0F1
:1044B0000E94801A10E064EF71E080E090E00E94BA
:1044C00016041092B6021092A9021092AA0210923B
:1044D000AB021092AC021092AD0284E10E94050E74
:1044E0006CE271E080E090E00E941604E091FD072C
:1044F0008E2F90E0FC01EE0FFF1FE80FF91FE8522E
:10450000F84F80818F7B808310926B0384E00E9440
:10451000FF011092D1071092D4071092D507109284
:10452000D6071092D7071092D30784E08093D20762
:104530000E94FF0161E08091D2070E94800382E522
:104540008093CF071092D0070FB7F894809159024B
:10455000811124C0EBE7F3E08491EAE9F3E0949160
:10456000E82FF0E0EE0FFF1FE45AFC4FA591B49145
:10457000EC91E92321F461E081E10E94800381E173
:104580000E94FF018CB580618CBD8CB580648CBDB0
:104590008FE00E94FF0180E10E94FF01809159029B
:1045A0008F5F809359020FBF81E08093D107809184
:1045B000D407811104C08DEC97E00E94FD0561E0F5
:1045C0008091D2070E9480030AE00E940B060150EE
:1045D000E1F760E08091D2070E9480030E94CD0441
:1045E0006053784F7A83698320E030E0A90160E06E
:1045F0008DEC97E00E944206F82ECC24C3948C15D3
:1046000011F40C94BB2BCE0101960E94E605882381
:1046100059F381E08093D3078DEC97E00E94300638
:104620008DEC97E09093CC078093CB078091D307D4
:1046300081110C94412C61E08DEC97E00E940308FD
:10464000882311F40C94272C8BEA97E00E94290A06
:104650001092AB071092AD0760E875E08BEA97E027
:104660000E948115882311F40C94272C80E895E092
:1046700090935B0280935A02EE24E394F12C44EB76
:1046800051E0BE01625D7F4FCE0181960E94D10D47
:1046900024E0A701BE01625D7F4F0E945B1848EBDA
:1046A00051E0BE01625D7F4F0E94D10DDC011C9282
:1046B00019821A821B8220E0AE014F5D5F4F6BEAC8
:1046C00077E0CE0101960E94401781110C94442C92
:1046D00060915A0270915B026115710511F40C949E
:1046E000442C655D7D4F21E5AE014F5D5F4F80E657
:1046F00095E00E944017882311F40C94442C4FE558
:1047000050E065E372E08DEB92E00E949E301092E3
:104710001C036DEB72E084E595E00E94E01180E6F9
:1047200095E00E94290A81E080936B0382E00E9459
:10473000CF19E091BB04F091BC0482E08083E0914A
:10474000B704F091B8041082E091B904F091BA0472
:104750008FEC80831092C304E091BF04F091C004F9
:1047600086E08083E091BD04F091BE048081806189
:104770008083E091BD04F091BE04808188608083D5
:10478000E091BD04F091BE04808180688083E09157
:10479000BD04F091BE0480818F7D808381E0809391
:1047A000610310921E0310921D0310926003109279
:1047B0005F0310925D0210925C0284E00E94CF19A8
:1047C000112309F4F8C00091630302FDA6C020E4A0
:1047D000322E10E0C12CD12C760146015701260162
:1047E0003701BE016F5F7F4FCE0181960E94F312A9
:1047F000882389F169817A81072E000C880B990B37
:104800000E9487329B01AC01C301B2010E946C314E
:104810002B013C016B817C81072E000C880B990BCE
:104820000E9487329B01AC01C501B4010E946C312A
:104830004B015C016D817E81072E000C880B990B6A
:104840000E9487329B01AC01C701B6010E946C3106
:104850006B017C011F5F65E070E080E090E00E94EA
:1048600016043A943110BDCF112309F456C020919B
:1048700000013091010140910201509103012CABE4
:104880003DAB4EAB5FAB612F70E090E080E00E94EB
:10489000873268AB79AB8AAB9BAB9B01AC01C301A0
:1048A000B2010E94DD312CA93DA94EA95FA90E9449
:1048B000DD31609366027093670280936802909383
:1048C000690228A939A94AA95BA9C501B4010E94B6
:1048D000DD312CA93DA94EA95FA90E94DD3160936D
:1048E000620270936302809364029093650228A928
:1048F00039A94AA95BA9C701B6010E94DD312CA9DB
:104900003DA94EA95FA90E94DD3160935E027093BC
:104910005F02809360029093610201FD4CC008E247
:1049200010E080E3C82E85E7D82EE12CF12C90EC26
:10493000892E94ED992EAA24A394B12C412C512CAC
:104940003201BE016F5F7F4FCE0181960E944613F8
:10495000882311F189A19AA1ABA1BCA1AC01BD0131
:10496000405355476109710941395F4561407105FF
:1049700098F4480E591E6A1E7B1E88159905AA05D3
:10498000BB0514F44C015D01C816D906EA06FB0606
:1049900014F46C017D011F5F64E170E080E090E041
:1049A0000E941604015069F6143108F07CC782E0B9
:1049B00090E00E94801A10926A031092B70210923F
:1049C000B8021092B9021092BA021092B20210927A
:1049D000B3021092B4021092B50210929902109292
:1049E0009A0210929B0210929C02109295021092D1
:1049F00096021092970210929802109291021092D1
:104A00009202109293021092940210928D021092D0
:104A10008E0210928F0210929002109289021092D0
:104A20008A0210928B0210928C021092A1021092B4
:104A3000A2021092A3021092A4021092A502109258
:104A4000A6021092A7021092A80210929D02109244
:104A50009E0210929F021092A00280916303909197
:104A60006403877099271092BC021092BB02892BB5
:104A700009F44FC788E00E945E1A0E94CD0460933B
:104A8000B2037093B3038093B4039093B503609320
:104A9000B6037093B7038093B8039093B903609300
:104AA000E8037093E9038093EA039093EB03609328
:104AB0006D0370936E0380936F0390937003609304
:104AC000AA037093AB038093AC039093AD03609300
:104AD000AE037093AF038093B0039093B103BE0114
:104AE000695D7F4F7FA76EA733243394BCE72B2EDD
:104AF0000E94CD042B013C018091E8039091E903D1
:104B0000A091EA03B091EB0373016201C81AD90ABC
:104B1000EA0AFB0AD701C6014497A105B105B8F01E
:104B20004092E8035092E9036092EA037092EB032B
:104B3000BE016F5F7F4FCE0181960E94F3128111FB
:104B4000F1C61092E60384E090E00E94801A809102
:104B5000B6039091B703A091B803B091B903930144
:104B60008201081B190B2A0B3B0BD901C80188973E
:104B7000A105B105B8F04092B6035092B703609218
:104B8000B8037092B903BE016F5F7F4FCE0181966B
:104B90000E9446138111D2C71092E70382E090E091
:104BA0000E94801A80916A03813009F0C6C080910A
:104BB000E603882309F4C1C08091850290918602A2
:104BC000A0918702B0918802181619061A061B06D2
:104BD0000CF0B3C080918402882351F010928402BB
:104BE000409280025092810260928202709283020F
:104BF0008091E703882309F48BC08091E2039091B0
:104C0000E303A091E403B091E50340917C0250914D
:104C10007D0260917E0270917F0284179507A6073E
:104C2000B70709F475C040918002509181026091EC
:104C300082027091830273016201C41AD50AE60AE6
:104C4000F70AB701A601483B0BE050076105710563
:104C500008F45EC0E091620380937C0290937D0231
:104C6000A0937E02B0937F020091780210917902A6
:104C700020917A0230917B028091BA039091BB031C
:104C8000A091BC03B091BD03BA2FA92F982F8827FC
:104C9000801B910BA20BB30BFAE0E11101C0F4E011
:104CA00004C0B595A79597958795FA95D2F7800F8B
:104CB000911FA21FB31F8093780290937902A09353
:104CC0007A02B0937B02892F9A2FAB2FBB27A7FDC7
:104CD000BA958093850290938602A0938702B09341
:104CE0008802E1112AC040345F4161057105A0F0DE
:104CF0001092770230926203809163039091640373
:104D00009E7F90936403809363038FE00E94CF198A
:104D100080916203811111C08091760281110DC0D2
:104D200020E3421625E752066104710430F080E06A
:104D300091E00E94801A309276028091B2039091A5
:104D4000B303A091B403B091B503B301A201481B12
:104D5000590B6A0B7B0BDB01CA014497A105B10516
:104D600008F493C04092B2035092B3036092B4032C
:104D70007092B5031091E70300916A03112309F4BF
:104D80003FC08091A5029091A602A091A702B09188
:104D9000A802C090C203D090C303E090C403F09077
:104DA000C5030097A105B10509F07BC7C092A10218
:104DB000D092A202E092A302F092A4024092A50235
:104DC0005092A6026092A7027092A8022091B202AD
:104DD0003091B3024091B4025091B502C701B601BF
:104DE0000E943733181664F48EEF800F823040F43F
:104DF000C092B202D092B302E092B402F092B50235
:104E0000033011F40C94C12F08F083C7013009F46A
:104E1000BCC7023011F40C947C2FC090B702D09024
:104E2000B802E090B902F090BA02C114D104E104D2
:104E3000F10459F1A30192012C193D094E095F09B2
:104E400069017A018091B602823069F038EBC316AD
:104E50003BE0D306E104F10430F081E00E94441A03
:104E600085E00E945E1A80916A03873071F040E607
:104E7000C4164AEED406E104F10438F080E890E06C
:104E80000E94801A87E00E945E1A8091AE02909183
:104E9000AF02A091B002B091B1020097A105B10597
:104EA00019F173016201C81AD90AEA0AFB0AD7018B
:104EB000C601803B9440A105B105B0F0E091FD072B
:104EC0008E2F90E0FC01EE0FFF1FE80FF91FE85254
:104ED000F84F80818F7B80831092AE021092AF02D8
:104EE0001092B0021092B1022091B602223049F520
:104EF0008091AD02811125C08091A9029091AA02F2
:104F0000A091AB02B091AC02B301A201481B590BB6
:104F10006A0B7B0BDB01CA01803B9440A105B10504
:104F200080F0E091FD078E2F90E0FC01EE0FFF1F57
:104F3000E80FF91FE852F84F80818F7B8083309211
:104F4000AD028091AE039091AF03A091B003B091F8
:104F5000B103B301A201481B590B6A0B7B0B809173
:104F6000AA039091AB03A091AC03B091AD035301A0
:104F70004201881A990AAA0ABB0A483251056105FA
:104F8000710538F488EC88169104A104B10408F482
:104F9000D9C240927103509272036092730370926F
:104FA00074038091B7029091B802A091B902B091B8
:104FB000BA020097A105B10541F073016201C81A58
:104FC000D90AEA0AFB0AD701C601809375039093B8
:104FD0007603A0937703B09378038091BB029091FE
:104FE000BC0201969093BC028093BB0290937A031B
:104FF0008093790380916A0380937B0320937C03E1
:105000008091BA039091BB03A091BC03B091BD0302
:1050100080937D0390937E03A0937F03B0938003DE
:105020008091BE039091BF03A091C003B091C103D2
:105030008093810390938203A0938303B0938403AE
:105040008091C2039091C303A091C403B091C503A2
:105050008093850390938603A0938703B09388037E
:105060008091B2029091B302A091B402B091B502C6
:105070008093890390938A03A0938B03B0938C034E
:105080008091C6039091C703A091C803B091C90352
:1050900080938D0390938E03A0938F03B09390031E
:1050A0008091CA039091CB03A091CC03B091CD0322
:1050B0008093910390939203A0939303B0939403EE
:1050C0008091CE039091CF03A091D003B091D103F2
:1050D0008093950390939603A0939703B0939803BE
:1050E0008091D6039091D703A091D803B091D903B2
:1050F0008093990390939A03A0939B03B0939C038E
:105100008091DA039091DB03A091DC03B091DD0381
:1051100080939D0390939E03A0939F03B093A0035D
:105120008091DE039091DF03A091E003B091E10351
:105130008093A1039093A203A093A303B093A4032D
:10514000E0916B03E093A503809161038093A60334
:1051500080916303909164039C0126703327232B75
:1051600009F4ADC722E02093A7039093A90380938D
:10517000A803483251056105710508F41CC140922D
:10518000AE035092AF036092B0037092B103E1306E
:1051900009F011C1A30192016DE173E08DEB92E082
:1051A0000E949E181CE2DC011C9320917503309133
:1051B000760340917703509178036DE173E0019697
:1051C0000E949E18FC0110832091790330917A038C
:1051D00050E040E06DE173E001960E949E18FC01F2
:1051E00001961083E0917B0346EB52E0E93038F4FE
:1051F000F0E0EE0FFF1FEC5CFE4F408151816DE14E
:1052000073E00E94C10D5CE2F52EDC01FD928D0180
:1052100060917D0370917E0380917F039091800364
:105220002AE0AE014F5F5F4F0E94AD30AE014F5F8D
:105230005F4F6DE173E0C8010E94D10DFC01F08267
:105240002091810330918203409183035091840324
:1052500001E06DE173E001960E94CA18DC01FC9246
:1052600020918503309186034091870350918803F4
:1052700002E06DE173E001960E94CA18FC01F08221
:105280002091890330918A0340918B0350918C03C4
:105290006DE173E001960E94CA18DC01FC92209136
:1052A0008D0330918E0340918F03509190036DE1F7
:1052B00073E001960E94CA18FC01F08220919103CC
:1052C0003091920340919303509194036DE173E008
:1052D00001960E94CA18DC01FC922091950330913E
:1052E000960340919703509198036DE173E0019606
:1052F0000E94CA18FC01F0822091990330919A0310
:1053000040919B0350919C0301E06DE173E0019695
:105310000E94CA18DC01FC9220919D0330919E03EB
:1053200040919F035091A0036DE173E001960E94AC
:10533000CA18FC01F0822091A1033091A203409190
:10534000A3035091A4036DE173E001960E94CA1873
:10535000FC010196F082E0917C0348EB52E0E430DE
:1053600038F4F0E0EE0FFF1FEA5BFE4F4081518101
:105370006DE173E00E94C10D2CE2DC012C932091C1
:10538000A8033091A90350E040E06DE173E001967D
:105390000E949E18FC0110826DEB72E084E595E09E
:1053A0000E94E011892B39F480E190E00E94801A7C
:1053B00082E080936B03F8EC8F169104A104B10492
:1053C00008F4C0C0809161034092AA035092AB03DD
:1053D0006092AC037092AD03813009F0B9C00E94B5
:1053E000AB1920915F03309160032F5F3F4F3093E3
:1053F000600320935F0350E040E06FE573E08FE1CE
:1054000093E00E949E1803E08E35900718F4DC01AB
:105410002C92019620917103309172034091730395
:10542000509174036FE573E00E949E18B3E08E35CF
:105430009B0718F4FC0120820196E0917B0346EB68
:1054400052E0E93038F4F0E0EE0FFF1FEC5CFE4F65
:10545000408151816FE573E00E94C10DF3E08E350C
:105460009F0718F4DC012C9201962091850330915E
:105470008603409187035091880302E06FE573E053
:105480000E94CA188C01B3E08E359B0720F4FC0102
:1054900020820F5F1F4F60917D0370917E0380918A
:1054A0007F03909180032AE0AE014F5F5F4F0E941F
:1054B000AD30AE014F5F5F4F6FE573E0C8010E94F2
:1054C000D10DF3E08E359F0718F4DC012C92019684
:1054D000E0917C0348EB52E0E43038F4F0E0EE0F6A
:1054E000FF1FEA5BFE4F408151816FE573E00E9430
:1054F000C10DB3E08E359B0718F4FC0120820196A4
:105500002091A8033091A90350E040E06FE573E0DB
:105510000E949E188C01DC011C928BEA94E00E9490
:1055200008050F5113400E5F0817190609F00CF417
:10553000C9C580911D0390911E03019690931E038F
:1055400080931D0380916103813011F40E94AB1997
:1055500010916A03E0916203113009F0E12F80910C
:1055600063039091640387709927892B09F0B1C573
:105570008AEF90E0E83038F4F0E0EE0FFF1FE25BD6
:10558000FE4F808191814091660350916703609145
:1055900068037091690373016201C41AD50AE60AAF
:1055A000F70AB701A601B0E0A0E0481759076A075B
:1055B0007B0780F040926603509267036092680315
:1055C000709269036091650363256093650385E0CC
:1055D0000E94800380916D0390916E03A0916F03F0
:1055E000B0917003A3019201281B390B4A0B5B0B8E
:1055F000DA01C901883C9105A105B10540F040924E
:105600006D0350926E0360926F03709270031730B7
:10561000C1F480916C03811114C080916B038130BF
:1056200071F480E695E00E94290A80E695E00E94E8
:10563000290A109260051092620510926B03309255
:105640006C0340E050E0452B09F452CA0E94450526
:10565000882309F449CA0E94000046CA10E00C944D
:10566000402289A1883511F00C944C2246EB60EE63
:1056700087E70E94CF0E6AE070E080E090E00E9431
:10568000160428E1AE014F5F5F4F68E887E70E948C
:10569000F411882311F40C944C2229813A8130931F
:1056A0003E0220933D028B819C8190934002809327
:1056B0003F028D819E8190934202809341028F81AF
:1056C0009885909344028093430249855A8550936C
:1056D0004602409345024B855C85509348024093B7
:1056E00047024D855E8550934A02409349024F859B
:1056F000588950934C0240934B0249895A895093E0
:105700004E0240934D024B895C8950935002409366
:105710004F024D895E8950935202409351024F8946
:10572000588D509354024093530210925502109298
:1057300056021092570210925802232B11F40C9427
:105740004C22892B11F40C944C2248E065EF87E73A
:105750000E94CF0E4FE264EF87E70E94CF0E62E314
:1057600070E080E090E00E9416041111CEC484E045
:1057700090E00C9454222AEA31E040E050E068E0E6
:105780008DEC97E00E94420682FD12C004E00E9468
:105790000B068093D6070150D1F78A3A39F1CE0132
:1057A00001960E94E605882331F386E00C940A23D3
:1057B00001E0812C912C540120E030E0A90167E345
:1057C0008DEC97E00E944206A501940169E28DEC00
:1057D00097E00E944206882381F0CE0101960E9444
:1057E000E605882349F387E10C940A2302E0812C23
:1057F000912CA12C40E4B42EDFCF0230D1F420E074
:1058000030E0A9016AE38DEC97E00E94420688230C
:1058100019F082E10C940A230E940B06807C803CE4
:1058200009F403E00E940B060E940B060E940B067F
:10583000F02E8DEC97E00E94300680E58093CF0734
:1058400081E08093D007F092D7070C94102360E09A
:105850008091CB079091CC070E940308882389F0A0
:105860008BEA97E00E94290A1092AB071092AD07CD
:1058700060E875E08BEA97E00E94811581110C9435
:10588000362383E00C949723BFEFEB1AFB0AE0E189
:10589000EE16E7E2FE0611F00C943F2388E090E05C
:1058A0000E94801AEECF212F30E050E040E0C3018B
:1058B000B2010E9408312093850230938602409302
:1058C000870250938802542F432F322F2227209390
:1058D00078023093790240937A0250937B02C81881
:1058E000D908EA08FB0849E7C416D104E104F10429
:1058F00024F080E091E00E94801A109272021092CF
:105900007302109274021092750281E08093770204
:1059100052C88091B602811103C081E08093B60223
:1059200081E0A9C82091700230917102A901440F51
:10593000551FFE01B196AAE6B2E0819191916D9159
:105940007D91861B970B820F931F4817590708F00C
:10595000EEC086E0FE01B196AAE6B2E001900D929B
:105960008A95E1F7309284028090040190900501BD
:10597000A0900601B0900701C0900001D0900101F5
:10598000E0900201F090030169A17AA1072E000CBA
:10599000880B990B0E948732A50194010E94DD318A
:1059A00068AB79AB8AAB9BAB6093C6037093C703BC
:1059B0008093C8039093C9036BA17CA1072E000CB0
:1059C000880B990B0E948732A50194010E94DD315A
:1059D0006CAB7DAB8EAB9FAB6093CA037093CB0374
:1059E0008093CC039093CD036DA17EA1072E000C74
:1059F000880B990B0E948732A50194010E94DD312A
:105A00004B015C018092CE039092CF03A092D00311
:105A1000B092D10369817A81072E000C880B990B13
:105A20000E948732A70196010E94DD312091660213
:105A30003091670240916802509169020E946B3177
:105A40006093D6037093D7038093D8039093D903C0
:105A50006B817C81072E000C880B990B0E9487328A
:105A6000A70196010E94DD3120916202309163020C
:105A700040916402509165020E946B316093DA0399
:105A80007093DB038093DC039093DD036D817E8153
:105A9000072E000C880B990B0E948732A7019601F4
:105AA0000E94DD3120915E0230915F0240916002E0
:105AB000509161020E946B316093DE037093DF03AB
:105AC0008093E0039093E10328A939A94AA95BA92F
:105AD000CA01B9010E943C336B017C012CA93DA98C
