:100000000C944C020C9474020C9474020C947402C0
:100010000C9474020C9474020C9474020C94740288
:100020000C9474020C9474020C94C6180C94351938
:100030000C9474020C9474020C9474020C94740268
:100040000C9474020C94B11B0C9474020C94740202
:100050000C9474020C9474020C9474020C94671B3C
:100060000C9474020C9474020C9474020C94740238
:100070000C9474020C9474020C9474020C94740228
:100080000C9474020C9474020C9474020C94740218
:100090000C946D1C0C9474020C9474020C947402F5
:1000A0000C9474020C9474020C947402076342362C
:1000B000B79BD8A71A39685618AEBAAB558C1D3CF9
:1000C000B7CC5763BD6DEDFD753EF6177231BF00BD
:1000D0000000803F08000000BE922449123EABAAF7
:1000E000AA2ABECDCCCC4C3E00000080BEABAAAA52
:1000F000AA3E00000000BF000000803F000000009A
:1001000000084178D3BB4387D1133D190E3CC3BDD2
:100110004282AD2B3E68EC8276BED98FE1A93E4C7F
:1001200080EFFFBE01C4FF7F3F00000000000040E1
:100130007A10F35A00A0724E18090010A5D4E800F6
:1001400000E87648170000E40B54020000CA9A3B0E
:10015000000000E1F5050000809698000000404294
:100160000F000000A0860100000010270000000022
:10017000E803000000006400000000000A00000026
:1001800000000100000000002C76D888DC674F08D2
:1001900023DFC1DFAE59E1B1B796E5E3E453C63AD8
:1001A000E651997696E8E6C28426EB898C9B62ED4F
:1001B000407C6FFCEFBC9C9F40F2BAA56FA5F49009
:1001C000055A2AF75C936B6CF9676DC11BFCE0E480
:1001D0000D47FEF520E6B500D0ED902E03009435D6
:1001E00077050080841E080000204E0A000000C829
:1001F0000C333333330F986E12831141EF8D21147A
:10020000893BE65516CFFEE6DB18D1844B381BF749
:100210007C1D901DA4BBE424203284725E228100E8
:10022000C9F124ECA1E53D274241434B55505F44C1
:1002300045504C4F5900435249544943414C5F4546
:1002400052524F52004C414E4445440044455343A2
:10025000454E54005245434F564552595F44455010
:100260004C4F590041504F4745455F434F4E46491B
:10027000524D454400424F4F53545F454E44004C4D
:1002800041554E43485F444554454354454400520C
:100290004541445900524144494F5F4641494C0051
:1002A000524144494F5F4F4B0053445F4641494CD4
:1002B0000053445F4F4B0053454E534F52535F4FD3
:1002C0004B00504F5745525F4F4E004552524F52D0
:1002D000004C414E444544005245434F5645525907
:1002E0000044455343454E540041504F4745450057
:1002F000434F41535400424F4F53540052454144E1
:100300005900494E4954004552524F5200444550FD
:100310004C4F5945440041524D45440053414645D8
:10032000003F0074696D655F6D732C666C6967686A
:10033000745F74696D655F6D732C7061636B657458
:100340005F69642C73746174652C70726573737566
:1003500072655F70612C74656D705F632C616C7485
:1003600069747564655F6D2C6D61785F616C74692B
:10037000747564655F6D2C61782C61792C617A2CC1
:1003800067782C67792C677A2C7265636F76657253
:10039000795F73746174652C6572726F725F666CDD
:1003A000616773003F003F000000000200090F007A
:1003B00000030401000C0000000000000000000029
:1003C00000000000000000080B000202020000090B
:1003D00004000001020200000524001001052401B0
:1003E000010104240206052406000107058103100B
:1003F000004009040100020A000000070502024053
:1004000000000705830240000004030904120100F4
:1004100002EF020140412336800001010203014145
:10042000726475696E6F204C4C430041726475694B
:100430006E6F204C656F6E6172646F00000000008B
:10044000250028002B002E003100000000002400B1
:1004500027002A002D0030000404040404030405CE
:100460000202020204030202020206060606060651
:100470000404020202040404080201104080401037
:1004800020408040800802040180402010020110BA
:100490008010204040208C1D11241FBECFEFDAE0D9
:1004A000DEBFCDBF11E0A0E0B1E0E0EFF5E602C0B5
:1004B00005900D92A63AB107D9F726E0A6EAB1E079
:1004C00001C01D92A63DB207E1F712E0CCE4D2E0F4
:1004D00004C02197FE010E94DA32CB34D107C9F75C
:1004E0000E94221E0C94F6320C94000090E0FC0155
:1004F000E958FB4F2491885A9B4FFC018491882333
:1005000099F090E0880F991FFC01E65BFB4FA591E5
:10051000B491FC01E45CFB4F859194918FB7F89402
:10052000EC91E22BEC938FBF0895FC0180911D03A9
:10053000882311F13FB7F89482E08093E90020917D
:10054000F200822F90E01816190614F481E090E072
:10055000882339F0289844E640931C034091F10029
:100560004083222339F02091F200211103C02BE6B1
:100570002093E8003FBF08958FEF9FEF08952FB7B6
:10058000F89483E08093E9009091E800892F8072CD
:1005900095FF04C09091F20080E4891B2FBF08955D
:1005A0008091140381110DC082E08093100384E0D8
:1005B00080931103109213031092120381E0809331
:1005C000140380E193E00895CF93DF931F92CDB79A
:1005D000DEB76983DC01ED91FC910280F381E02DAF
:1005E00041E050E0BE016F5F7F4F09950F90DF91B2
:1005F000CF91089583E08093E9008091F2008823F1
:1006000019F08AE38093E80008950E94BF0290E009
:100610000895CF93DF931F92CDB7DEB7FC01848599
:10062000958597FD08C02FEF3FEF358724870F9002
:10063000DF91CF910895CE0101960E949502019716
:1006400019F4898190E0F3CF8FEF9FEFF0CF0F93F4
:100650001F93CF93DF931F92CDB7DEB78C01FC01C0
:100660008485958597FF0BC0CE0101960E94950267
:10067000019771F4898190E0F80195878487F801EA
:10068000848595850F90DF91CF911F910F910895EB
:100690008FEF9FEFF1CFFC018485958597FD0BC00F
:1006A0009FB7F89482E08093E9008091F2009FBFA9
:1006B00090E0019608959FB7F89482E08093E90056
:1006C0008091F2009FBF90E0089540910A035091FD
:1006D0000B03209108033091090342175307B4F428
:1006E0009091E8009570E1F39091E80092FD19C0B7
:1006F0008093F10080910A0390910B0301968F7310
:100700009927892B19F48EEF8093E80080910A03D2
:1007100090910B03019690930B0380930A0381E061
:10072000089580E00895EF92FF920F931F93CF9367
:10073000DF93F82E192FE62E042F81E0860F880F05
:100740000E94650383E00E946503CF2DD12FEC0E3C
:10075000FD2EF11CCE15DF05B9F007FF13C0FE0119
:1007600084910E946503182F80E00E946503812315
:1007700021968111EFCFDF91CF911F910F91FF90C3
:10078000EF9008958881EDCF81E0F5CFDF92EF9271
:10079000FF920F931F93CF93DF93D82E8A01EB0123
:1007A0007B01E40EF51ECE15DF0559F0D7FE12C011
:1007B000FE0184910E94650321968111F4CF0FEF11
:1007C0001FEFC801DF91CF911F910F91FF90EF9024
:1007D000DF9008958881EECF0F931F93CF93DF931F
:1007E0001F92CDB7DEB782E0898342E450E067EC28
:1007F00073E080E80E94C6030E94D002DC011296DA
:100800000D911C910115110589F0D801ED91FC9114
:100810000280F381E02DBE016F5F7F4FC801099513
:1008200097FD04C0F80100851185ECCF89810F90F8
:10083000DF91CF911F910F910895615030F0209179
:10084000F100FC0120830196F8CF289884E680937C
:100850001C030895282F30E0F901E855FC4F9491CE
:10086000F901E958FB4F8491285A3B4FF901249133
:10087000222309F430C09923E9F091509F30D0F43D
:10088000E92FF0E0EA5BFB4F0C94DA327404780451
:1008900055046C0470045A045A045A047B048104FD
:1008A000850489048F045A049304909180009F77F3
:1008B00090938000E22FF0E0EE0FFF1FE45CFB4F0F
:1008C000A591B4919FB7F894EC91611132C08095D5
:1008D0008E238C939FBF0895909180009F7DE8CFD9
:1008E00090918000977FE4CF94B59F7794BDE2CF3D
:1008F00094B59F7DFBCF909190009F77909390004F
:10090000D9CF909190009F7DF9CF90919000977FE3
:10091000F5CF9091C0009F779093C000CBCF90917E
:10092000C0009F7DF9CF9091C200977F9093C20045
:10093000C1CF8E2BCECF3FB7F89480910403909116
:100940000503A0910603B091070326B5A89B05C037
:100950002F3F19F00196A11DB11D3FBFBA2FA92F3E
:10096000982F8827BC01CD01620F711D811D911D3B
:1009700042E0660F771F881F991F4A95D1F70895A7
:100980008F929F92AF92BF92CF92DF92EF92FF929F
:100990004B015C010E949B046B017C010E949B0443
:1009A0006C197D098E099F09683E73408105910588
:1009B000A8F321E0821A9108A108B10888EEC80EB8
:1009C00083E0D81EE11CF11C81149104A104B10440
:1009D00029F7FF90EF90DF90CF90BF90AF909F905E
:1009E0008F9008958F929F92AF92BF92CF92DF9295
:1009F000EF92FF920F931F93CF93DF936C017B01D4
:100A00008A0180911301882309F45CC080911D0341
:100A1000882309F457C080910F0380FF05C080919F
:100A2000E00082608093E000E801B12C8AEFA82EFC
:100A300093E0892E2AE3922E209711F4BB20D9F15E
:100A40000E94BF0281110AC0AA94AA20D9F161E0D4
:100A500070E080E090E00E94C004EECF8C171D068D
:100A600011F00CF08C2F9FB7F8948092E900209140
:100A7000E80025FD02C09FBFDFCF282F30E0C21B5A
:100A8000D30BF701815020F041914093F100FACF50
:100A9000E20EF31EBB2021F09092E800B12CEBCFC8
:100AA0008091E80085FDE7CF9092E800BB24B394E5
:100AB000209709F3F3CF5D9884E680930E03101618
:100AC00011063CF081E090E0F6019383828310E010
:100AD00000E0C801DF91CF911F910F91FF90EF903F
:100AE000DF90CF90BF90AF909F908F9008952FB7D9
:100AF000F89460910003709101038091020390913A
:100B000003032FBF0895089508950895CF93DF93A9
:100B1000FC01C081D1810E947705C61BD70B8D2FA8
:100B2000881F8827881FDF91CF9108958EBD000010
:100B30000DB407FEFDCF8EB50895FC01928183812F
:100B40009CBD8DBD81E0878360E085810E942A0481
:100B50008FEF0C9496058FEF0C9496050F931F93CF
:100B6000CF93DF9300D0CDB7DEB78C010E9477051D
:100B7000600F711F7A8369830E94AB058F3F71F00C
:100B8000CE0101960E9486058823B1F380E00F9084
:100B90000F90DF91CF911F910F91089581E0F7CFD2
:100BA000CF93DF93FC012781222349F0EC0161E020
:100BB00085810E942A048FEF0E9496051F82DF9193
:100BC000CF910895DF92EF92FF920F931F93CF93EF
:100BD000DF93EC01162F022FF32EE42ED52E0E9468
:100BE000BA068823C1F18F81811103C0CE010E9412
:100BF0009D05111128C0812F80640E9496058D2DBE
:100C00000E9496058E2D0E9496058F2D0E949605B6
:100C1000802F0E94960587E8111101C085E90E9486
:100C200096050E94AB051AE00E94AB05898787FFF5
:100C300002C01150C9F7DF91CF911F910F91FF9022
:100C4000EF90DF9008951C30B1F28CE291E00E94A9
:100C5000AE058111D0CF8FEFEECF0F931F93CF93BF
:100C6000DF93EC0189018A85833039F089E0440FF4
:100C7000551F661F771F8A95D1F79A01AB0168E16E
:100C8000CE010E94E205882339F08DE08E83CE01EB
:100C90000E94D00580E025C08EEF0E949605F801E5
:100CA00081918EBD1E5FE017F10741F08191000038
:100CB00000000DB407FEFDCF8EBDF5CF0DB407FECD
:100CC000FDCF8FEF0E9496058FEF0E9496050E9440
:100CD000AB0589878F71853049F4CE010E94D0051C
:100CE00081E0DF91CF911F910F91089581E28E8372
:100CF000CE010E94D005CBCFEF92FF921F93CF93EE
:100D0000DF93FC01208111E020FF12C0EC017C0187
:100D1000FBE0EF0EF11C4B815C816D817E819701C0
:100D200089819A810E942D06182F811108C010E038
:100D3000812FDF91CF911F91FF90EF9008958881CF
:100D400081FD04C088818E7F8883F2CF4B815C81D6
:100D50006D817E818F819885A985BA85480F591F3D
:100D60006A1F7B1F970189819A810E942D0681113C
:100D7000E9CFDDCF1F93CF93DF93EC0188858230DD
:100D8000C9F488E592E00E94AE05182F882361F02F
:100D90008DEF0E949605CE010E94D0051886812F06
:100DA000DF91CF911F9108958FE18E83CE010E9434
:100DB000D005F5CF8130A1F4188620E030E0A901FC
:100DC0006CE0CE010E94E205882339F089E08E8331
:100DD000CE010E94D00510E0E2CFCE010E94D005E6
:100DE00011E0DDCFEF92FF920F931F93CF93DF932C
:100DF00000D0CDB7DEB78C017901FC01828583304C
:100E000039F089E0440F551F661F771F8A95D1F787
:100E10009A01AB0161E1C8010E94E205882341F01B
:100E20008BE0F8018683C8010E94D00580E03FC0B6
:100E30000E947705645D7E4F7A8369830E94AB05CB
:100E4000F80181878F3F69F4CE0101960E948605E3
:100E50008823A1F38EE1F8018683C8010E94D005A2
:100E6000E2CF8E3F11F089E1F6CF8FEF8EBDF70113
:100E7000D701A150BE4F9FEFEA17FB0749F00000D2
:100E800000000DB407FEFDCF8EB59EBD8193F4CF5B
:100E90000DB407FEFDCF8EB58C93F80111860E942C
:100EA000AB050E94AB05C8010E94D00581E00F9000
:100EB0000F90DF91CF911F910F91FF90EF900895C8
:100EC000CF92DF92EF92FF921F93CF93DF93DC01DB
:100ED0001196ED91FC91EF2B51F490E080E0DF91C1
:100EE000CF911F91FF90EF90DF90CF900895122F38
:100EF0006A017B01EC018B819C81AD81BE818C15E7
:100F00009D05AE05BF0561F0CE010E947C068823D9
:100F100021F312FF0CC01882CB82DC82ED82FE82AC
:100F200013702881122B1883CE010B96D8CF9E0107
:100F3000255F3F4FB701A60189819A810E94F20681
:100F40008111E9CFCACF8F929F92AF92BF92CF9279
:100F5000DF92EF92FF920F931F93CF9390935704DA
:100F60008093560410925B0401E010E020E030E032
:100F700000935E0410935F04209360043093610437
:100F80009093780480937704109276048FEF9FEF0C
:100F9000DC018093790490937A04A0937B04B0934E
:100FA0007C04662309F44BC020E040E050E0BA0125
:100FB00086E794E00E946007009769F480E0CF9193
:100FC0001F910F91FF90EF90DF90CF90BF90AF9067
:100FD0009F908F900895FC01E254FE4F24812223BC
:100FE00069F320812F7751F78A539E4FFC01C0800F
:100FF000D180E280F38020E0B701A60186E794E08B
:101000000E946007FC01892BC9F280898230B1F609
:10101000838594858115924089F69585909358042F
:101020008FEF890F80935904C0E081E0981769F031
:10103000CF5FC93041F488E080935A04BFCFC12C00
:10104000D12C7601D8CF880FF1CFC0935A0486896E
:101050009789B0E0A0E08093620490936304A0932A
:101060006404B0936504892B8A2B8B2B61F484A1D3
:1010700095A1A6A1B7A18093620490936304A09365
:101080006404B093650486859785A7019601280FAF
:10109000391F411D511DDA01C90180936A049093E3
:1010A0006B04A0936C04B0936D0421893289309352
:1010B0005D0420935C04409162045091630460914C
:1010C0006404709165044A015B01880C991CAA1C98
:1010D000BB1C880D991DAA1DBB1D809372049093A3
:1010E0007304A0937404B093750405E0220F331FBA
:1010F0000A95E1F721503E4F232F33272695820F83
:10110000931FA11DB11D8093660490936704A09363
:101110006804B093690483889488B12CA12C81144D
:101120009104A104B10421F480A091A0A2A0B3A0D5
:10113000C81AD90AEA0AFB0AC80CD91CEA1CFB1C0B
:1011400004C0F694E794D794C794CA95D2F7D70110
:10115000C6010196A11DB11D80936E0490936F048A
:10116000A0937004B093710435EFC3163FE0D3062B
:10117000E104F10420F48CE080935B041FCF85EF41
:10118000C8168FEFD806E104F10468F480E180937B
:101190005B0440937D0450937E0460937F047093BE
:1011A000800481E00CCF84A595A5A6A5B7A5809362
:1011B000720490937304A0937404B093750480E256
:1011C000E6CF8F929F92AF92BF92CF92DF92EF9233
:1011D000FF920F931F93423051056105710560F432
:1011E00080E01F910F91FF90EF90DF90CF90BF9024
:1011F000AF909F908F900895FC01C08CD18CE28CB1
:10120000F38CC416D506E606F70650F348015901DB
:101210006A018581803229F584899589A689B789F3
:1012200017E076956795579547951A95D1F7480F2A
:10123000591F6A1F7B1F23E0CF0180960E94600721
:10124000009771F2CC0CDD1CCC0CDD1CF1E0DF2230
:101250008C0D9D1DFC0180829182A282B38281E06F
:10126000C0CF803109F0BCCF448955896689778920
:101270004D0D511D611D711D23E0CF0180960E940F
:101280006007009709F4ACCFCC0CDD1CF1E0DF2245
:10129000C80ED91EF60111830083E1CFCF92DF92F1
:1012A000EF92FF920F931F93CF93DF93423051053C
:1012B0006105710550F48FEFDF91CF911F910F9170
:1012C000FF90EF90DF90CF900895FC01C08CD18CFF
:1012D000E28CF38CC416D506E606F70660F38901A6
:1012E0006A01EC018581803299F584899589A68906
:1012F000B789E7E07695679557954795EA95D1F7D1
:10130000480F591F6A1F7B1F22E0CE0180960E9462
:101310006007009781F2CC0CDD1CCC0CDD1CF1E0E9
:10132000DF228C0D9D1DFC0180819181A281B38102
:10133000488D598D6A8D7B8D481759076A077B0741
:1013400030F1F80180839183A283B38381E0B4CF2D
:10135000803109F0B0CF44895589668977894D0D70
:10136000511D611D711D22E0CF0180960E94600712
:10137000009709F4A0CFCC0CDD1CF1E0DF22C80EF1
:10138000D91EF60180819181B0E0A0E0D1CF80E04C
:1013900093CF0F931F93CF93DF93FC0120812111F3
:1013A00006C081E0DF91CF911F910F910895EC016C
:1013B000828187FF3AC04489558966897789868109
:1013C000978121E080960E946007009729F4898127
:1013D0008160898380E0E6CFEC81FD81EF70FF279B
:1013E00025E0EE0FFF1F2A95E1F7E80FF91F309770
:1013F00071F38081853E59F3888187738387888163
:1014000083FF08C0888D998DAA8DBB8D848F958FA1
:10141000A68FB78F8C8D9D8DAE8DBF8D938F828F54
:10142000B58BA48B8A818F778A830E811F81C80137
:1014300080960E947C06882351F2F8018081918178
:101440000E94BA06882319F2ACCF4F925F926F9236
:101450007F928F929F92AF92BF92CF92DF92EF9244
:10146000FF920F931F93CF93DF93EC014A015B012F
:101470004C845D846E847F842881222309F487C094
:10148000488959896A897B89481559056A057B0508
:1014900081F081149104A104B10469F41C861D86B5
:1014A0001E861F86888A998AAA8ABB8A8A818F7D2E
:1014B0008A8381E071C023FF57C0888D998DAA8DE2
:1014C000BB8D88159905AA05BB0508F460C0EE819F
:1014D000FF813481375F7501640181E0C81AD1084A
:1014E000E108F108032E04C0F694E794D794C7945A
:1014F0000A94D2F7DB01CA010197A109B10904C01E
:10150000B695A795979587953A95D2F7C816D906B7
:10151000EA06FB0628F0452B462B472B09F052C064
:1015200027FF4BC0848D958DA68DB78D8C879D87A9
:10153000AE87BF878E01045F1F4FC114D104E10441
:10154000F10409F4AFCF4C855D856E857F859801E8
:101550008E819F810E944E0991E0C91AD108E1084D
:10156000F108181654F313C026FFB1CFEE81FF81A6
:101570008681978125E0880F991F2A95E1F7B0E0D1
:10158000A0E088159905AA05BB0508F08BCF4C860D
:101590005D866E867F8680E0DF91CF911F910F91EF
:1015A000FF90EF90DF90CF90BF90AF909F908F9083
:1015B0007F906F905F904F9008958C8D9D8DAE8D34
:1015C000BF8DB4CFC81AD90AEA0AFB0AB3CF3F923B
:1015D0004F925F926F927F928F929F92AF92BF9243
:1015E000CF92DF92EF92FF920F931F93CF93DF93EF
:1015F00000D000D0CDB7DEB74C01FC0182818068FD
:101600008283A680B7804484558466847784F501FC
:10161000C084D184E284F384C414D504E604F704BE
:1016200010F011E003C07301620110E0FFEFCF1A68
:10163000DF0AEF0AFF0AF501808D918DA28DB38D2F
:101640008C159D05AE05BF0538F4111131C0C0845D
:10165000D184E284F384E5CF4C145D046E047F04EE
:1016600039F19E012F5F3F4FB701A601C5010E94CE
:101670004E0987FD1DC08823C9F289819A81AB81FB
:10168000BC81892B8A2B8B2B89F6112329F0F5013C
:10169000C086D186E286F3860FEF1FEF2FEF3FE083
:1016A000B701A601C5010E94E108382E811118C0BA
:1016B000312C832D0F900F900F900F90DF91CF91D1
:1016C0001F910F91FF90EF90DF90CF90BF90AF9060
:1016D0009F908F907F906F905F904F903F90089574
:1016E000411451046104710431F4F401C486D586B7
:1016F000E686F786DECF97018601B301A201C50118
:101700000E94E1088111F1CFD3CF2091E601260F8D
:101710003327331F21323105ECF420914403FC01BF
:1017200090E080E0243069F082E00895A091E60125
:101730002191AC014A535E4FA40FB52FB11D2C93DC
:101740000196861798F38091E601680F6093E60191
:1017500080E0089581E008951092440381E0809331
:10176000430310921E0361E082E00E942A0461E0BC
:1017700083E00E942A04E9EBF0E080818E7F808381
:1017800080818D7F808388E48093B80085E4809396
:10179000BC000895CF93DF9391E0909310028823CB
:1017A000B9F0C091B800D091BA008091BC008A7B9A
:1017B0008093BC0060E082E00E942A0460E083E045
:1017C0000E942A040E94AC0BD093BA00C093B800C8
:1017D000DF91CF9108958F929F92AF92BF92CF9257
:1017E000DF92EF92FF920F931F93CF93DF93D091ED
:1017F0006D03D13208F0D7C0182FC0916C030E943E
:101800009B046B017C018091440381116BC082E0D9
:1018100080934403109343038FEF8093420310920D
:101820004103D0934003ACE4B3E0E0E2F3E080E0B6
:10183000D81391C010921F0380911F03CC0FC82BA7
:10184000C0931F0380911E03813009F088C010925D
:101850001E030E949B046B017C0180911F038093F7
:10186000BB008091460390914703A0914803B0913B
:101870004903892B8A2B8B2BA1F00E949B0400919A
:1018800046031091470320914803309149036C1996
:101890007D098E099F09061717072807390708F4DD
:1018A00042C08091BC0083FDD8CF85EC8093BC0002
:1018B0000E949B046B017C0180914403823009F4F7
:1018C00050C0809142038F3F09F46FC08091420362
:1018D000803209F46CC080914203803309F469C0FE
:1018E00084E026C08091460390914703A09148036D
:1018F000B0914903892B8A2B8B2B09F484CF0E944A
:101900009B048090460390904703A0904803B090BA
:1019100049036C197D098E099F0986169706A8064A
:10192000B90608F070CF809145030E94CA0B85E08C
:1019300010924B0310926D0310924A03DF91CF91E6
:101940001F910F91FF90EF90DF90CF90BF90AF90DD
:101950009F908F9008959D9191938F5F69CF85EEB1
:10196000A5CF8091460390914703A0914803B09181
:101970004903892B8A2B8B2B09F49ECF0E949B0451
:101980000091460310914703209148033091490389
:101990006C197D098E099F09061717072807390753
:1019A00008F08ACFC0CF81E0C3CF80E0C1CF82E012
:1019B000BFCF83E0BDCFE0910F0280910E02E81708
:1019C00030F4F0E0EA55FE4F808190E008958FEF0B
:1019D0009FEF089590910F0280910E022FEF3FEF3D
:1019E000981748F4E92FF0E0EA55FE4F208130E0E7
:1019F0009F5F90930F02C901089580910E0290910C
:101A00000F02891B990B0895CF92DF92EF92FF92FC
:101A10000F931F93CF93DF937C01CB018A01209119
:101A20004A03222389F0EB016B01C40ED51ECC15AD
:101A3000DD0569F06991D701ED91FC910190F0818C
:101A4000E02DC7010995F3CF642F0E94850BC801D3
:101A5000DF91CF911F910F91FF90EF90DF90CF908A
:101A60000895CF93DF931F92CDB7DEB7698320919E
:101A70004A032223F9F020916D03203258F021E02F
:101A800030E0FC013383228390E080E00F90DF910F
:101A9000CF91089580914B03E82FF0E0E45BFC4F79
:101AA000998190838F5F80934B0380936D0381E0D6
:101AB00090E0ECCF61E0CE0101960E94850BF7CF5C
:101AC00061507109FA012191AF01222339F0861783
:101AD000970720F4FC012193CF01F4CF0895FC0176
:101AE000848583FF17C084A195A1A6A1B7A1448DC9
:101AF000558D668D778D841B950BA60BB70B8115C5
:101B000020E89207A105B10520F08FEF9FE7A0E044
:101B1000B0E0089580E090E0DC01F1CF0C960C94E9
:101B2000C90990E080E008958F929F92AF92BF9292
:101B3000EF92FF920F931F93CF93DF93E82E809144
:101B4000D306282F30E0F901EE0FFF1FE20FF31F3D
:101B5000E255F94F908196FD53C08C3008F050C08B
:101B600086E00E9476028091D306282F30E0F901AA
:101B7000EE0FFF1FE20FF31FE255F94F9081907CAB
:101B8000966090831092D4061092D5062CE0622FB6
:101B90000E94CE32829FB001112430E020E0AB01E0
:101BA000420F531FFA01EE0FFF1FE40FF51FE2551E
:101BB000F94F908196FD16C02F5F3F4F2C303105B5
:101BC00071F781110FC01092800082E08093810034
:101BD0001092850010928400B19A80916F0082600B
:101BE00080936F00E091D3068E2F90E0FC01EE0F02
:101BF000FF1FE80FF91FE255F94F80818064808351
:101C0000F090D3068BE08F1508F44DC08091D50677
:101C100008E512E0081B110987FD1395000F111F3D
:101C2000000F111F8091D406C8E8D0E0C81BD1096D
:101C300087FDD395CC0FDD1FCC0FDD1F4E010D2E80
:101C4000000CAA08BB089801012E000C440B550B90
:101C5000281939094A095B09AE2DB0E00E94692EA6
:101C600024EB30E040E050E00E944A2E820E931EAA
:101C7000A41EB51E8C169D062CF0E8018016910658
:101C80000CF4E4012297CC0FDD1F2FB7F8948F2DB1
:101C900090E0FC01EE0FFF1FE80FF91FE255F94F2E
:101CA000D283C1832FBFDF91CF911F910F91FF90FE
:101CB000EF90BF90AF909F908F900895CF93C42FD7
:101CC00091E090934A0380936C0310924B0310921F
:101CD0006D038EE194E00E94310D6C2F8EE194E053
:101CE0000E94310D81E00E94EB0B91E0811190E0A8
:101CF000892FCF9108950F931F93CF93DF93CDB783
:101D0000DEB72C970FB6F894DEBF0FBECDBF8C01A7
:101D1000CB01BA012AE0AE014F5F5F4F0E94C72B93
:101D2000AE014F5F5F4F6EEC73E0C8010E94600D23
:101D30002C960FB6F894DEBF0FBECDBFDF91CF91CA
:101D40001F910F9108958F929F92AF92BF92DF9251
:101D5000EF92FF920F931F93CF93DF93EC017B01E0
:101D60008A8180FFB9C0288188889988AA88BB8821
:101D700023FF21C0888D998DAA8DBB8D8819990963
:101D8000AA09BB0982309105A105B10518F5009794
:101D900009F530E020E0A901481B590BCA01DF9189
:101DA000CF911F910F91FF90EF90DF90BF90AF9078
:101DB0009F908F90089526FF0DC0EE81FF81868150
:101DC000978135E0880F991F3A95E1F788159905B5
:101DD00009F488C0EE81FF8184011170B501A4016E
:101DE00089E076956795579547958A95D1F726FFAF
:101DF00027C0848D958DA68DB78D480F591F6A1FFA
:101E00007B1F8E819F8120E080960E946007009753
:101E100009F462C0800F911FFC018081F70180836B
:101E200088899989AA89BB890196A11DB11D888BD2
:101E3000998BAA8BBB8B21E030E090E080E0ABCFA8
:101E4000D380D4220115110581F4D1100EC0892848
:101E50008A288B2881F527FF29C0848D958DA68D32
:101E6000B78D8C879D87AE87BF87EE81FF814C85BC
:101E70005D856E857F8542505109610971098481B4
:101E800004C0440F551F661F771F8A95D2F78089BB
:101E90009189A289B389840F951FA61FB71FAC0132
:101EA000BD014D0D511D611D711DABCF8C8D9D8DE3
:101EB000AE8DBF8DD6CF4C855D856E857F859E01AD
:101EC000245F3F4FCF010E944E0987FD05C081115D
:101ED000CCCF8881807D49F48981826089838FEFAE
:101EE0009FEF5DCF30E020E0A8CF21E030E081E03F
:101EF00090E051CFEF92FF920F931F93CF93DF9318
:101F00001F92CDB7DEB77C01962FF701408951892A
:101F1000628973898A019B0185E03695279517951B
:101F200007958A95D1F70F7011F0911129C0BE0164
:101F30006F5F7F4FC7010E94A30E813051F090E088
:101F400080E00F90DF91CF911F910F91FF90EF9064
:101F50000895F70180899189A289B3894F96A11DBF
:101F6000B11D808B918BA28BB38BF70186819781FA
:101F70008B96F0E20F9F90011124820F931FE1CF07
:101F8000405E5F4F6F4F7F4F408B518B628B738BE7
:101F9000ECCF8F929F92AF92BF92CF92DF92EF924F
:101FA000FF920F931F93CF93DF931F92CDB7DEB7AE
:101FB0008C01FC01848C958CA68CB78CC08CD18C48
:101FC000E28CF38CBE016F5F7F4F0C960E94A30ED4
:101FD0000197C9F4898190E0F801848E958EA68ED0
:101FE000B78EC08ED18EE28EF38E0F90DF91CF919F
:101FF0001F910F91FF90EF90DF90CF90BF90AF9027
:102000009F908F9008958FEF9FEFE6CFCF93DF9350
:102010001F92CDB7DEB7BE016F5F7F4F0C960E9457
:10202000A30E019731F4898190E00F90DF91CF9159
:1020300008958FEF9FEFF9CF2F923F924F925F92CB
:102040006F927F928F929F92AF92BF92CF92DF92C8
:10205000EF92FF920F931F93CF93DF93EC014B010D
:102060005A018A8181FF8CC083FD81C0A50170E087
:1020700060E088899989AA89BB8980959095A09507
:10208000B09584179507A607B70708F479C06501CE
:102090001E018CE0280E311C088919892A893B8988
:1020A000C114D10409F4E5C08E819F81B901A80152
:1020B00029E076956795579547952A95D1F7DC01E4
:1020C0001396FC90F4221170F1101BC04C855D85B5
:1020D0006E857F850115110509F0EFC04115510589
:1020E0006105710509F452C091010E944E0987FDF6
:1020F00047C0811106C0CE010E94E70A882309F477
:102100003FC0EE81FF814C855D856E857F854250A5
:10211000510961097109848104C0440F551F661F6C
:10212000771F8A95D2F780899189A289B389840F14
:10213000951FA61FB71FAC01BD014F0D511D611D9D
:10214000711D0115110521F4C114B2E0DB06C8F5BB
:1021500080E092E0801B910B76018C159D0508F4C0
:102160007C010115110509F448C021E057C0488DD4
:10217000598D6A8D7B8DCE010E94250A811176CF03
:10218000898181608983B12CA12C83C08C8D9D8D28
:10219000AE8DBF8D0097A105B10571F4CE010E94EF
:1021A000E70A882369F38C859D85AE85BF858C8F72
:1021B0009D8FAE8FBF8FA5CF8C879D87AE87BF8742
:1021C000A0CF83A194A1A5A1B6A1481759076A077A
:1021D0007B0741F410A28FEF9FEFDC0183A394A350
:1021E000A5A3B6A3940181A192A10E942D068823E4
:1021F00039F2E12C82E0F82E2BC0488859886A8891
:102200007B88888D998DAA8DBB8D481659066A06E4
:102210007B0618F48A8185FFA8CF25E0CF01809640
:102220000E946007009709F4ABCFA701B401800FAB
:10223000911F0E94ED320E0D1F1D0115124041F439
:102240008E819F8180960E947C06882309F498CF16
:1022500088899989AA89BB898E0D9F1DA11DB11DF1
:10226000888B998BAA8BBB8B8E0C9F1CCE18DF089A
:1022700013CF888D998DAA8DBB8D80179107A207EA
:10228000B30738F4088F198F2A8F3B8F8A818068B3
:102290008A83C501DF91CF911F910F91FF90EF903D
:1022A000DF90CF90BF90AF909F908F907F906F9076
:1022B0005F904F903F902F900895FC01425051093C
:1022C00061097109848104C0440F551F661F771F7F
:1022D0008A95D2F780899189A289B389480F591FBD
:1022E0006A1F7B1F35CF0C960C941C10CF93DF9385
:1022F0004EE653E0FA0101900020E9F7AF014F5696
:1023000053406EE673E086E394E00E941C10EC01FB
:1023100042E050E069E971E086E394E00E941C101D
:102320008C0F9D1FDF91CF910895CF93C82F0E94EE
:102330007705AB01BC0180917E02813079F583E2A3
:1023400080936E038FE693E00E947B0EDC01119672
:102350002CE2FC012083E1E2F3E0CF3048F4EC2FE3
:10236000F0E0EE0FFF1FEC5EFE4F0190F081E02DDC
:102370008491882339F0319693E0AD3CB90710F48D
:102380008D93F6CF1C920E94761180917E0281304F
:1023900029F486E394E0CF910C94C909CF91089574
:1023A000CF93C82F88E70E94940D82E080936F023C
:1023B0000E947705609361027093620280936302CA
:1023C00090936402109265028AE0C1118EE0CF9171
:1023D0000C94951190917D029817E9F080937D02FD
:1023E000833089F028F4813049F0823051F008952B
:1023F000853069F050F0873061F0089586E00C94E4
:10240000951187E0FCCF88E0FACF89E0F8CF8BE028
:10241000F6CF8CE0F4CF08952091760230917702C8
:10242000A90148235923452B69F4282B392B3093D4
:1024300077022093760287709927892B19F08DE017
:102440000C9495110895CF93DF931F92CDB7DEB70B
:10245000698341E050E0BE016F5F7F4F0C960E94A0
:102460001C100F90DF91CF910895EF92FF920F9380
:102470001F93CF93DF93CDB7DEB760970FB6F89475
:10248000DEBF0FBECDBF7C01CB01BA018E010F5F55
:102490001F4F41E00E948B2BA8016EEC73E0C70137
:1024A0000E94600D60960FB6F894DEBF0FBECDBFE0
:1024B000DF91CF911F910F91FF90EF9008954F9270
:1024C0005F926F927F928F929F92AF92BF92FF9294
:1024D0000F931F93CF93DF93D82F042FF52E122F36
:1024E00081E080934A03D0936C0310924B031092C7
:1024F0006D038EE194E00E94310D80E00E94EB0BB1
:10250000C82F8111CCC00E949B044B015C018091BB
:102510004403811165C081E08093440380934303A9
:102520009FEF9093420310924103910F90934003C9
:1025300080931F0380911F03DD0FD82BD0931F03BF
:1025400080911E03813009F084C010921E030E9406
:102550009B044B015C0180911F038093BB00809121
:10256000460390914703A0914803B0914903892BFA
:102570008A2B8B2BA1F00E949B0440904603509025
:1025800047036090480370904903681979098A09E4
:102590009B09461657066806790608F442C08091E2
:1025A000BC0083FDD8CF85EC8093BC000E949B04C7
:1025B0004B015C0180914403813009F44CC080914F
:1025C0004103811708F069C080914103A0E2B3E0A4
:1025D000E6EAF1E0C81749F19D919193CF5FFACFF8
:1025E0008091460390914703A0914803B09149031D
:1025F000892B8A2B8B2B09F48ACF0E949B04409055
:10260000460350904703609048037090490368194F
:1026100079098A099B09461657066806790608F063
:1026200076CF809145030E94CA0B10920F02C0938F
:102630000E021C1334C0B02EC02FDF2D8EE194E0AB
:102640000E94EA0C89938C2F8B198117B8F381E0D3
:1026500027C085EEA9CF8091460390914703A091B2
:102660004803B0914903892B8A2B8B2B09F4A2CF05
:102670000E949B044090460350904703609048039B
:1026800070904903681979098A099B09461657060B
:102690006806790608F08ECFC4CF812F97CF80E0EF
:1026A000DF91CF911F910F91FF90BF90AF909F90BE
:1026B0008F907F906F905F904F900895EF92FF9270
:1026C0000F931F93CF93DF93CDB7DEB72C970FB641
:1026D000F894DEBF0FBECDBF7C018B012CE0AE01B4
:1026E0004F5F5F4F6DE288E60E945F12882361F1C1
:1026F00029813A81322723273227F701318320832A
:102700002B813C81322723273227338322832D815B
:102710003E81322723273227358324832F81388532
:10272000322723273227F8013183208329853A85F0
:10273000322723273227338322832B853C85322778
:1027400023273227358324832C960FB6F894DEBFD7
:102750000FBECDBFDF91CF911F910F91FF90EF90F2
:1027600008952F923F924F925F926F927F928F9235
:102770009F92AF92BF92CF92DF92EF92FF920F9310
:102780001F93CF93DF93CDB7DEB728970FB6F8949A
:10279000DEBF0FBECDBF98878F837B0126E0AE01E1
:1027A0004F5F5F4F67EF87E70E945F12082F882314
:1027B00009F4E9C119812A803B808C8190E0B0E066
:1027C000A0E02CE0880F991FAA1FBB1F2A95D1F704
:1027D0004D8150E070E060E034E0440F551F661F0B
:1027E000771F3A95D1F7842B952BA62BB72B2E81EB
:1027F00030E044E0359527954A95E1F7032E000C2B
:10280000440B550B822B932BA42BB52B409111021B
:102810005091120270E060E02C013D01E4E07594FB
:10282000679457944794EA95D1F7441A550A660A73
:10283000770AF3E0B595A79597958795FA95D1F71F
:10284000440F551F661F771F5C016D01A41AB50A5E
:10285000C60AD70AA6019501A0911302B0911402ED
:102860000E94742E4B015C013BE0B594A7949794B1
:1028700087943A95D1F7A3019201C301B2010E9456
:10288000BE329B01AC016CE0559547953795279575
:102890006A95D1F7A0911502B09116020E94742E8C
:1028A0002B013C017EE075946794579447947A9588
:1028B000D1F7480C591C6A1C7B1C4092290250928B
:1028C0002A0260922B0270922C02A5E0B0E0A301D4
:1028D00092010E94692E60587F4F8F4F9F4F672F44
:1028E000782F892F992787FD9A950E94CA2F20E07B
:1028F00030E048EC52E40E94562FF7016083718368
:102900008283938373016201F594E794D794C7940B
:10291000FAEFDF1AE108F108C701B601A2E09595C8
:10292000879577956795AA95D1F79B01AC010E9491
:10293000BE324B015C01A0911B02B0911C02AC01A4
:102940009B018DE055954795379527958A95D1F749
:102950000E94742E2B013C0193E075946794579468
:1029600047949A95D1F7A0911902B0911A02A70144
:1029700096010E94742E9B01AC01559547953795A1
:102980002795240D351D461D571D72E15595479518
:10299000379527957A95D1F730584F4F5F4FA091D3
:1029A0001702B09118020E94692E2B013C01EFE042
:1029B0007594679457944794EA95D1F7411451045C
:1029C0006104710409F404C1A50194018BE05595DB
:1029D0004795379527958A95D1F7A0912102B09117
:1029E00022020E94742E4B015C01A0911F02B09143
:1029F0002002A70196010E94742EDC01CB01880FF2
:102A0000991FAA1FBB1F880D991DAA1DBB1D6C0114
:102A10007D0132E0F594E794D794C7943A95D1F7C5
:102A2000212F30E050E040E06CE0220F331F441FC4
:102A3000551F6A95D1F7822D90E0B0E0A0E074E0D8
:102A4000880F991FAA1FBB1F7A95D1F7282B392B06
:102A50004A2B5B2B832D90E0E4E095958795EA95D2
:102A6000E1F7092E000CAA0BBB0B282B392B4A2BA4
:102A70005B2B80911D0290911E02092E000CAA0B67
:102A8000BB0BDC01992788278C0D9D1DAE1DBF1D3A
:102A90001CE0B595A795979587951A95D1F7280FBE
:102AA000391F4A1F5B1FABECB3EF0E94772E805B90
:102AB0009C4397FD82C0660F771F881F991FA30153
:102AC00092010E94B32E29013A01C301B20123E011
:102AD00096958795779567952A95D1F79B01AC01D7
:102AE0000E94BE329B01AC016DE05695479537952B
:102AF00027956A95D1F7A0912702B09128020E94EC
:102B0000742E6B017C017CE0F594E794D794C79414
:102B10007A95D1F7A3019201E2E056954795379552
:102B20002795EA95D1F7A0912502B09126020E943F
:102B3000742E9B01AC01FDE055954795379527957F
:102B4000FA95D1F72C0D3D1D4E1D5F1DC09023023F
:102B5000D09024020D2C000CEE08FF082C0D3D1D1A
:102B60004E1D5F1DA4E05595479537952795AA956D
:102B7000D1F7420E531E641E751EEF81F885408208
:102B8000518262827382802F28960FB6F894DEBF3E
:102B90000FBECDBFDF91CF911F910F91FF90EF90AE
:102BA000DF90CF90BF90AF909F908F907F906F906D
:102BB0005F904F903F902F900895A30192010E9443
:102BC000B32E29013A01440C551C661C771C7DCF9D
:102BD000412C512C3201D1CFFC01808181110EC0DA
:102BE00080E2DF011D928A95E9F777836683DB0136
:102BF00015968C91803121F0803239F080E0089573
:102C000080E4808381E08283089580E8FACFCF92C8
:102C1000DF92EF92FF920F931F93CF93DF93FC010C
:102C200080E2DF011D928A95E9F7DB011696CD91CE
:102C3000DC911797D783C683558344835C96CD90E8
:102C4000DD90ED90FC905F97C086D186E286F3869A
:102C5000DE019B964F70552795E0440F551F9A95BE
:102C6000E1F7A40FB51F1B968C911B9783FD12C033
:102C7000877380831B969C911B97987111F48860D1
:102C8000808303832370213009F448C038F0223058
:102C900009F442C01082128280E035C081E0828354
:102CA000828181FF06C08081982F917199F780629F
:102CB00080834BA15CA16DA17EA1448B558B668B5B
:102CC000778B54964D915C91559770E060E0BA0116
:102CD000552744275A960D911C915B9730E020E0D0
:102CE000402B512B622B732B448F558F668F778F20
:102CF0005C968D919D910D90BC91A02D808F918FB0
:102D0000A28FB38F81E0DF91CF911F910F91FF9040
:102D1000EF90DF90CF90089583E0C1CF82E0BFCFE6
:102D20004F925F926F927F928F929F92AF92BF92DB
:102D3000CF92DF92EF92FF920F931F93CF93DF9387
:102D40005C01EB016A01922E40E050E0BA01CE0135
:102D50000E94250AF12CE12C712C612C00E010E07E
:102D600026012FEF421A520A61E0CE010E947A0F2B
:102D7000BC010097B1F48981882309F495C080E0F3
:102D8000DF91CF911F910F91FF90EF90DF90CF9047
:102D9000BF90AF909F908F907F906F905F904F907B
:102DA0000895FC019081953E09F475C0992309F4BA
:102DB00077C0838583FD11C04BE050E0C2010E94C3
:102DC000E032892B09F06AC0292DA70196FCD7CFE4
:102DD000BE01C5010E940716D3CF8F3009F05EC037
:102DE00096FF02C0092F0F71FFEFEF1AFF0ABCCF49
:102DF000370100E011E0F8CF848120E032E002C02A
:102E0000220F331F8A95E2F788899989AA89BB899D
:102E1000820F931FA11DB11D888B998BAA8BBB8B31
:102E20003701A30170E060E085E0440F551F661F85
:102E3000771F8A95D1F7CE010E94250A882309F4CD
:102E40009ECF60E0CE010E947A0F009709F497CFE1
:102E500020E2FC0111922A95E9F7F60131962BE068
:102E6000DC0101900D922A95E1F7F601208128718D
:102E7000FC01248721E23CE5318B208B318F208FB0
:102E8000338B228BEE81FF8180A1816080A300E0E3
:102E9000292DA3019DCF112309F4AACF00E0A4CFCF
:102EA000111102C0370111E094FE69CF892D8370A2
:102EB0008150823008F063CF1111B3CF888186FD35
:102EC0005ECF88899989AA89BB8981159E4FAF41B8
:102ED000B10508F054CFCE010E94E70A882309F417
:102EE0004ECFEE81FF814C845D846E847F8432E01E
:102EF000431A510861087108848104C0440C551CB0
:102F0000661C771C8A95D2F780899189A289B3893A
:102F1000480E591E6A1E7B1E812C00E012E0EE81D5
:102F2000FF818281881608F067CF25E0B301A201F6
:102F3000480D511D611D711DCF0180960E946007D3
:102F4000009709F41CCFFC019801119221503040E8
:102F5000E1F78394E4CF8F929F92AF92BF92CF928A
:102F6000DF92EF92FF920F931F93CF93DF93CDB732
:102F7000DEB7AC970FB6F894DEBF0FBECDBF8C01A5
:102F80007A01B22E19821A821B82FC018081882369
:102F9000A1F080E0AC960FB6F894DEBF0FBECDBFB7
:102FA000DF91CF911F910F91FF90EF90DF90CF9025
:102FB000BF90AF909F908F900895FB018081807D9E
:102FC00041F3FA0180818F32B1F47F0181918F3218
:102FD000E1F3FB0166817781811104C0C8010E9481
:102FE000EC15D8CFCE0101960E94EC15BE016F5FA3
:102FF0007F4F882371F26E01FDE2CF0ED11C20E2DB
:10300000A22EFE01B2969F01A192CE16DF06E1F735
:10301000D70187E0E82EE0E098E0992E90E0F12CCF
:10302000AD014F5F5F4F8C91882309F444C08F320C
:1030300009F441C08E3251F4F7E0EF1212C08AE079
:10304000E82EE8E08E2EF0E19F2E2CC0823209F4AB
:10305000A0CF8C3709F49DCFF5EAF80FF33008F4D0
:1030600098CFF6EDF80FF63018F48D3209F091CFC5
:10307000F6ECF80FF63008F48CCFFFEDF80FFE35C4
:1030800008F087CFEE1608F484CFFFE9F80FFA3185
:1030900060F480529929882483948E0EE20FF32FD6
:1030A000F11D8083DA01E82DBBCFFFEBF80FFA3179
:1030B00090F7F928F0CF8AA1803209F46ACFF9227B
:1030C00009F090E099A37D018C9111968F32D9F38C
:1030D000811108C02B2DAE014F5D5F4FC8010E94CA
:1030E000901658CF20E0AE014F5D5F4FC8010E949F
:1030F0009016882309F44DCF80E2F801DE01119685
:1031000001900D928A95E1F7C8010E94C909F80162
:1031100010821282BE016F5F7F4F73CF85ED809367
:10312000BC008091460390914703A0914803B09161
:1031300049030796A11DB11D23E0B695A795979564
:1031400087952A95D1F72091BC0024FD03C01092E9
:10315000440308954091460350914703609148030A
:1031600070914903452B462B472B69F30097A10526
:10317000B10541F02AE22A95F1F700C00197A109B3
:10318000B109E1CF809145030C94CA0B1F920F92B5
:103190000FB60F9211248F939F938091E10090912D
:1031A000E100937F9093E10083FF0FC01092E9004C
:1031B00091E09093EB001092EC0092E39093ED007D
:1031C00010921D0398E09093F00082FF22C093E0DC
:1031D0009093E9009091F200992319F09AE390936B
:1031E000E80090910E03992341F090910E039150C5
:1031F00090930E03911101C05D9A90911C03992345
:1032000041F090911C03915090931C03911101C0C7
:10321000289A84FF18C08091E2008E7E816080939E
:10322000E2008091E1008F7E8093E10080910F03A6
:103230008E7E806180930F039F918F910F900FBEC0
:103240000F901F90189580FFF7CF8091E2008E7E3F
:1032500080618093E2008091E1008E7E8093E100A6
:1032600080910F038E7E8160E5CF1F920F920FB683
:103270000F921124CF92DF92EF92FF920F931F9340
:103280002F933F934F935F936F937F938F939F936E
:10329000AF93BF93EF93FF93CF93DF93CDB7DEB799
:1032A0006C97DEBFCDBF1092E9008091E80083FFEC
:1032B00025C068E0CE0145960E941D0482EF8093F0
:1032C000E8008D8987FF39C09091E80090FFFCCF1E
:1032D000982F907609F034C19E894F89588D2F8997
:1032E000F88C911131C0803861F580910D03809385
:1032F000F1001092F1008EEF8093E8006C960FB60B
:10330000F894DEBF0FBECDBFDF91CF91FF91EF915B
:10331000BF91AF919F918F917F916F915F914F91ED
:103320003F912F911F910F91FF90EF90DF90CF90E1
:103330000F900FBE0F901F9018959EEF9093E8008E
:10334000C7CF1092F100D5CF913059F48111D3CF6E
:103350004130510581F680910D038D7F80930D03DF
:10336000CACF933049F48111C6CF4130510519F6C7
:1033700080910D038260F2CF953041F48091E80096
:1033800080FFFCCF20682093E300B5CF963009F092
:10339000A9C00B8D1C8D22E01092E90010920B0346
:1033A00010920A03F2122EC0109209031092080321
:1033B0000E94EC031F8299E09983FA8291E09E8338
:1033C00090EA98879AEF998720910A0330910B032E
:1033D000275F3F4F3C832B838D831092E90010922F
:1033E0000B0310920A03109309030093080349E0AA
:1033F00050E0BE016F5F7F4F80E00E94C6030E94D5
:10340000EC0379CF10930903009308030E94D002C4
:10341000DC0112960D911C910115110509F451C1A1
:10342000D801ED91FC910480F581E02DBE016B5E29
:103430007F4FC8010995009709F03EC1F80100854A
:103440001185EACFF3E0FF120EC08F89882309F4BB
:1034500040C0823061F440E860E18BE294E00E9479
:103460009303811148CF81E28093EB0047CF8130F5
:1034700029F440E86BE08FE194E0F1CF833099F7D5
:103480000E94D002DC011296ED90FC908E010F5F3D
:103490001F4F6801E114F10479F0D701ED91FC911F
:1034A0000680F781E02DB801C7010995080F111DAD
:1034B000F701E084F184EECFD8011C92F60101906F
:1034C0000020E9F73197BF016C197D0940E0C60182
:1034D000C6CF69E074E0FB01449150E080E80E94AF
:1034E000C60309CF973009F4BECF983021F481E0AC
:1034F0008093F10000CF993009F0FDCE837009F080
:10350000B2CFEDE5F1E081E031E096E321912223B5
:1035100071F08093E9003093EB00DF0111972C915B
:103520002093EC009093ED008F5F873079F78EE762
:103530008093EA001092EA008F8980931D03DBCE0E
:103540008B8D9C8D1092E90010920B0310920A0350
:103550009093090380930803898D811192C08E890D
:103560009D89913A49F4813209F07DCF47E050E0DE
:103570006CE071E080E0B3CF913209F074CF833218
:1035800069F48F89988DB0E0A0E080930801909352
:103590000901A0930A01B0930B01ADCE803269F40A
:1035A0008091E80082FFFCCF67E08CE091E00E9410
:1035B0001D048BEF8093E8009ECE823209F09BCEF3
:1035C0008F8980931301EEEFFFE7859194918B3FF4
:1035D0009C4D51F1E0E0F8E080910C0190910D01DB
:1035E000A0910E01B0910F01803B9440A105B1055F
:1035F000F1F48091130180FD1AC0EE3F8AE0F807D4
:1036000089F587E797E791838083809160008093B5
:103610000C0388E19BE00FB6F894A89580936000B6
:103620000FBE9093600067CEEEEFFAE0D5CF8081B9
:1036300091818737974709F05ECEA8958091600009
:1036400088618093600080910C0380936000EE3F5E
:103650002AE0F20789F08091FE0A9091FF0A918397
:10366000808349CE808191818737980751F290936A
:10367000FF0A8093FE0AC5CF1092FF0A1092FE0A3D
:103680003ACE0E94D002DC0112960D911C910115D8
:10369000110509F4E8CED801ED91FC910190F0817B
:1036A000E02DBE016B5E7F4FC8010995811123CECD
:1036B000F80100851185EBCF181619060CF41BCE06
:1036C000D2CEF1E0FF12BECE6DE074E004CF1F92C7
:1036D0000F920FB60F9211242F933F938F939F93C6
:1036E000AF93BF938091000390910103A0910203D7
:1036F000B09103033091FF0223E0230F2D3758F5DB
:103700000196A11DB11D2093FF02809300039093A9
:103710000103A0930203B0930303809104039091EB
:103720000503A0910603B09107030196A11DB11DE9
:103730008093040390930503A0930603B0930703BB
:10374000BF91AF919F918F913F912F910F900FBE9D
:103750000F901F90189526E8230F0296A11DB11D0A
:10376000D2CF1F920F920FB60F9211242F933F9337
:103770004F935F936F937F938F939F93AF93BF9379
:10378000CF93DF93EF93FF9380910902C091D2060C
:10379000D0E087FF24C010928500109284008091B1
:1037A00009028F5F8093090280910902082E000CA4
:1037B000990B8C179D0724F4809109028C30C4F179
:1037C0008091840090918500049680349C4908F48F
:1037D0007AC08091840090918500049676C0809193
:1037E0000902082E000C990B8C179D07C4F6E09176
:1037F00009028E2FEE0F990BFC01EE0FFF1FE80F51
:10380000F91FE255F94F808186FFC9CFE091090287
:103810008E2FEE0F990BFC01EE0FFF1FE80FF91F23
:10382000E255F94F808160E08F730E942A04B7CF80
:103830002091840030918500E09109028E2FEE0FD7
:10384000990BFC01EE0FFF1FE80FF91FE255F94F2E
:1038500081819281820F931F9093890080938800C9
:10386000E09109028E2FEE0F990BFC01EE0FFF1F66
:10387000E80FF91FE255F94F808186FF11C0E091F2
:1038800009028E2FEE0F990BFC01EE0FFF1FE80FC0
:10389000F91FE255F94F808161E08F730E942A047D
:1038A000FF91EF91DF91CF91BF91AF919F918F9158
:1038B0007F916F915F914F913F912F910F900FBE2C
:1038C0000F901F90189580E49CE990938900809355
:1038D00088008FEF80930902E3CF1F920F920FB6FB
:1038E0000F9211242F933F934F935F936F937F9386
:1038F0008F939F93AF93BF93EF93FF938091B90002
:10390000887F803609F44AC0F0F5883209F4A7C0F0
:1039100018F5803109F49BC0B8F4882309F4F9C084
:10392000883009F494C0FF91EF91BF91AF919F91BE
:103930008F917F916F915F914F913F912F910F9058
:103940000FBE0F901F901895883109F488C08032FF
:1039500051F78093420314C0803409F49DC040F4B1
:103960008033B9F38833F9F68093420385ECB0C015
:10397000803509F485C0883509F496C0883499F6F5
:103980000E948E18D0CF883909F48CC038F588375A
:1039900029F050F4883611F0803729F683E08093BF
:1039A00044031092080257C0883809F47BC080395C
:1039B00019F0803809F0B7CF80910802803208F002
:1039C00071C0E091080281E08E0F8093080280911F
:1039D000BB00F0E0E851FE4F80833DC0803B39F0F2
:1039E000E0F4803A09F479C0883A09F09CCF84E089
:1039F000809344031092E7011092E601E0910C02DB
:103A0000F0910D0209958091E60181110FC081E0CE
:103A10008093E6011092C60109C0803C09F4A6CF4C
:103A2000883C09F4A3CF883B09F07DCFE091E70102
:103A300081E08E0F8093E701F0E0EA53FE4F808132
:103A40008093BB009091E7018091E60129C08091AD
:103A50001F038093BB0085EC8093BC0064CF9091E2
:103A6000410380914003981758F5E091410381E0AC
:103A70008E0F80934103F0E0E05EFC4F8081E9CF40
:103A8000E091410381E08E0F809341038091BB0060
:103A9000F0E0E05EFC4F8083909141038091400311
:103AA0009817C8F285E8D8CFE091410381E08E0FE6
:103AB000809341038091BB00F0E0E05EFC4F808387
:103AC0008091430381115CCF81E080931E0384EADF
:103AD0008093BC001092440326CF85EC8093BC00F9
:103AE0001092440380910802803230F4E091080281
:103AF000F0E0E851FE4F10826091080270E0E09122
:103B00000A02F0910B0288EE91E0099510920802EA
:103B10000ACF1092420334CF1092D1031092D003F7
:103B200088EE93E0A0E0B0E08093D2039093D303BB
:103B3000A093D403B093D50327E631E03093CF03AD
:103B40002093CE032FEF3FEF3093DB032093DA0374
:103B50001092210410922004809322049093230455
:103B6000A0932404B093250429E731E030931F0487
:103B700020931E0410925B04109278041092770434
:103B8000109276044FEF5FEFBA014093790450939F
:103B90007A0460937B0470937C04109281061092E7
:103BA0008206109283061092A2061092A10610922D
:103BB000A4061092A30620E52093A5061092A6065F
:103BC0001092A7061092A8062AE22093A906109246
:103BD000AA061092AB061092AC061092AD06109297
:103BE0002D0410922C0480932E0490932F04A09304
:103BF0003004B093310410923604109237041092BE
:103C000038048BE891E090932B0480932A048091F0
:103C1000D2068C3098F491E0980F9093D20680935E
:103C2000D30690E0FC01EE0FFF1FE80FF91FE255ED
:103C3000F94F88EB9BE09283818308958FEF809307
:103C4000D3060895CF93DF93CDB7DEB7E6970FB6CF
:103C5000F894DEBF0FBECDBF789484B5826084BD7A
:103C600084B5816084BD85B5826085BD85B5816080
:103C700085BD80916E00816080936E0010928100FE
:103C800080918100826080938100809181008160B9
:103C9000809381008091800081608093800080917A
:103CA0009100826080939100809191008160809367
:103CB0009100809190008160809390008091C1007C
:103CC00084608093C1008091C10082608093C100B4
:103CD0008091C10081608093C1008091C3008160A8
:103CE0008093C3008091C00082608093C000809167
:103CF000C20081608093C20080917A0084608093CA
:103D00007A0080917A00826080937A0080917A00B4
:103D1000816080937A0080917A00806880937A0035
:103D200010921D0310920D0310920F038091D70083
:103D300081608093D70080EA8093D80089B5806144
:103D400089BD89B5826089BD09B400FEFDCF61E0FF
:103D500070E080E090E00E94C0048091D8008F7CE9
:103D600080618093D8008091E000807F8093E000A4
:103D70008091E1008E7E8093E1008DE08093E200EF
:103D8000559A209A85E00E94760260E085E00E94C4
:103D90002A04109277021092760210927902109201
:103DA0007A0210927B0210927C021092780280E0DC
:103DB0000E94951110920F0210920E0210924B0366
:103DC00010926D030E94AC0B84E895E090930D0275
:103DD00080930C0285E895E090930B0280930A0291
:103DE0008CE08093B8001092100288EB9BE0A0E07A
:103DF000B0E08093460390934703A0934803B093A9
:103E0000490381E080934503109230021092310201
:103E10001092320210923302109234021092350244
:103E20001092360210923702109238021092390224
:103E300010923A0210923B0210923C0210923D0204
:103E400010923E0210923F021092400210924102E4
:103E5000109242021092430210924402198240E0F2
:103E60006FE788E60E945E0E21E0AE014F5F5F4F74
:103E70001A0160E088E60E945F12182F882309F477
:103E800061C089818A3E09F07DC140E866E088E62C
:103E90000E945E0E64E670E080E090E00E94C00444
:103EA00040E06FE788E60E945E0E41E066E088E64B
:103EB0000E945E0E6EE170E080E090E00E94C0041F
:103EC00040E067E088E60E945E0E6EE170E080E010
:103ED00090E00E94C00440E26FE788E60E945E0E18
:103EE00080E090E0A0E0B5E48093040190930501A8
:103EF000A0930601B093070147E064E188E60E94C1
:103F00005E0E83E393E3A3E8B1E480930001909312
:103F10000101A0930201B093030147E061E088E64C
:103F20000E945E0E40E060E088E60E945E0E6EE158
:103F300070E080E090E00E94C00440E06FE788E617
:103F40000E945E0E19A221E0AE014F5D5F4F60ED51
:103F500087E70E945F12811117C1111104C084E02C
:103F600090E00E940C1282E090E00E940C1281E02E
:103F700090E00E940C1210E064EF71E080E090E0AD
:103F80000E94C00410926F021092610210926202AD
:103F900010926302109264021092650284E10E9402
:103FA000940D6CE271E080E090E00E94C004E0912A
:103FB000D3068E2F90E0FC01EE0FFF1FE80FF91FD4
:103FC000E255F94F80818F7B808310927E0284E0DE
:103FD0000E9476021092A7061092AA061092AB06D3
:103FE0001092AC061092AD061092A90684E0809360
:103FF000A8060E94760261E08091A8060E942A0429
:1040000082E58093A5061092A6060FB7F8948091DA
:104010002D02811124C0E9E6F4E08491E8E8F4E09F
:104020009491E82FF0E0EE0FFF1FE65BFB4FA591A8
:10403000B491EC91E92321F461E081E10E942A042A
:1040400081E10E9476028CB580618CBD8CB5806464
:104050008CBD8FE00E94760280E10E947602809102
:104060002D028F5F80932D020FBF81E08093A70602
:104070008091AA06811104C083EA96E00E949D0502
:1040800061E08091A8060E942A040AE00E94AB0524
:104090000150E1F760E08091A8060E942A040E9486
:1040A00077056053784F7A83698320E030E0A90177
:1040B00060E083EA96E00E94E205F82E51E0851761
:1040C00009F4E6C0C1010E948605882371F381E0EE
:1040D0008093A90683EA96E00E94D00583EA96E0E1
:1040E0009093A2068093A1068091A90681114FC1E9
:1040F00061E083EA96E00E94A307882309F42EC1B9
:1041000081E896E00E94C909109281061092830608
:1041100066E574E081E896E00E94EC15882309F4D6
:104120001DC186E594E090932F0280932E02CC244B
:10413000C394D12C5E016DE2A60EB11C00E34CE9E4
:1041400051E0BE01625D7F4FCE0181960E94600DFD
:104150007C014AE0B101C6010E94E92BF101019006
:104160000020E9F73197E219E43008F012C1EA14AF
:10417000FB0430F4D7010C9397012F5F3F4F790177
:10418000EF5FF2CF10E0DECE89A1883509F0E5CEF1
:1041900046EB60EE87E70E945E0E6AE070E080E02A
:1041A00090E00E94C00428E1A10168E887E70E942E
:1041B0005F12882309F4D1CE29813A81309312020B
:1041C000209311028B819C8190931402809313029F
:1041D0008D819E8190931602809315028F81988520
:1041E000909318028093170249855A8550931A02BA
:1041F000409319024B855C8550931C0240931B022F
:104200004D855E8550931E0240931D024F8558894F
:104210005093200240931F0249895A8950932202E9
:10422000409321024B895C895093240240932302DE
:104230004D895E8950932602409325024F89588DFF
:1042400050932802409327021092290210922A02CA
:1042500010922B0210922C02232B09F47ECE892B74
:1042600009F47BCE48E065EF87E70E945E0E4FE2DF
:1042700064EF87E70E945E0E62E370E080E090E00A
:104280000E94C00411110C94862B84E090E06DCE46
:104290002AEA31E040E050E068E083EA96E00E94DC
:1042A000E20582FD10C004E00E94AB058093AC06DD
:1042B0000150D1F78A3A19F1C1010E94860588237D
:1042C00039F386E005CF01E0812C912C540120E0E8
:1042D00030E0A90167E383EA96E00E94E205A501C8
:1042E000940169E283EA96E00E94E205882371F076
:1042F000C1010E948605882351F387E1E9CE02E0DF
:10430000812C912CA12CB0E4BB2EE1CF0230C9F45A
:1043100020E030E0A9016AE383EA96E00E94E2052A
:10432000882311F082E1D4CE0E94AB05807C803CD2
:1043300009F403E00E94AB050E94AB050E94AB05A7
:10434000F02E83EA96E00E94D00580E58093A506D2
:1043500081E08093A606F092AD06C0CE60E0809129
:10436000A1069091A2060E94A307882381F081E80C
:1043700096E00E94C909109281061092830666E5B4
:1043800074E081E896E00E94EC158111CACE83E0CA
:1043900047C0A101BE01625D7F4FC7010E94600D51
:1043A00040EA51E0BE01625D7F4F0E94600DDC017A
:1043B0001C9219821A821B8220E0AE014F5D5F4F72
:1043C00061E876E0C1010E94AB17811175C460916C
:1043D0002E0270912F026115710509F46DC4655D9F
:1043E0007D4F21E5AE014F5D5F4F86E394E00E9473
:1043F000AB17882309F460C44FE550E063E273E033
:104400008EE693E00E94A92B1092CD030E947611B4
:1044100086E394E00E94C90981E080937E0282E0F5
:104420000E94951110926A02809076028EAA112342
:1044300009F4F2C082FCA3C000E410E0C12CD12C2E
:1044400076014601570126013701B101CE0181965F
:104450000E945E13882389F169817A81072E000CFE
:10446000880B990B0E94CA2F9B01AC01C301B201BA
:104470000E94E52E2B013C016B817C81072E000CF4
:10448000880B990B0E94CA2F9B01AC01C501B40196
:104490000E94E52E4B015C016D817E81072E000C90
:1044A000880B990B0E94CA2F9B01AC01C701B60172
:1044B0000E94E52E6B017C011F5F65E070E080E0EB
:1044C00090E00E94C004015009F0BFCF112309F40D
:1044D00056C020910001309101014091020150919C
:1044E00003012AAB3BAB4CAB5DAB612F70E090E0BE
:1044F00080E00E94CA2F6EA77FA788AB99AB9B0173
:10450000AC01C301B2010E94562F2AA93BA94CA9B4
:104510005DA90E94562F60933802709339028093F0
:104520003A0290933B022EA53FA548A959A9C5017F
:10453000B4010E94562F2AA93BA94CA95DA90E944B
:10454000562F609334027093350280933602909315
:1045500037022EA53FA548A959A9C701B6010E9457
:10456000562F2AA93BA94CA95DA90E94562F6093FA
:1045700030027093310280933202909333028EA8FE
:1045800081FC4AC008E210E0E0E3CE2EE5E7DE2E33
:10459000E12CF12CF0EC4F2EF4ED5F2E66246394A9
:1045A000712C812C912C5401B101CE0181960E9475
:1045B000B113882311F189A19AA1ABA1BCA1AC01CF
:1045C000BD01405355476109710941395F4561405B
:1045D000710598F4880E991EAA1EBB1E84159505B8
:1045E000A605B70514F42C013D01C816D906EA0644
:1045F000FB0614F46C017D011F5F64E170E080E054
:1046000090E00E94C004015079F6143108F062C3B2
:1046100082E090E00E940C1210927D0210927002D3
:1046200010927102109272021092730210926B0239
:1046300010926C0210926D0210926E021092510252
:1046400010925202109253021092540210924D0294
:1046500010924E0210924F02109250021092490294
:1046600010924A0210924B0210924C021092450294
:10467000109246021092470210924802109259027C
:1046800010925A0210925B0210925C0210925D022C
:1046900010925E0210925F02109260021092550218
:1046A0001092560210925702109258028091760290
:1046B0009091770287709927109275021092740278
:1046C000892B09F431C388E00E94EA110E94770522
:1046D0006093C5027093C6028093C7029093C8028C
:1046E0006093C9027093CA028093CB029093CC026C
:1046F0006093FB027093FC028093FD029093FE0294
:10470000609380027093810280938202909383026F
:104710006093BD027093BE028093BF029093C0026B
:104720006093C1027093C2028093C3029093C4024B
:104730000E9477052B013C018091FB029091FC02C5
:10474000A091FD02B091FE02B301A201481B590BDA
:104750006A0B7B0BDB01CA014497A105B105A8F0E8
:104760004092FB025092FC026092FD027092FE02A7
:10477000B101CE0181960E945E138111DEC21092BA
:10478000F90284E090E00E940C128091C90290919D
:10479000CA02A091CB02B091CC0253014201881A07
:1047A000990AAA0ABB0AD501C4018897A105B105D7
:1047B000A8F04092C9025092CA026092CB02709255
:1047C000CC02B101CE0181960E94B113811199C32F
:1047D0001092FA0282E090E00E940C128091C502D1
:1047E0009091C602A091C702B091C8025301420144
:1047F000881A990AAA0ABB0AD501C4014497A105DF
:10480000B10508F491C04092C5025092C602609270
:10481000C7027092C8021091FA0200917D02112322
:1048200009F43FC080915D0290915E02A0915F0209
:10483000B0916002C090D502D090D602E090D7022D
:10484000F090D8020097A105B10509F00EC4C092FE
:104850005902D0925A02E0925B02F0925C024092BE
:104860005D0250925E0260925F027092600220913F
:104870006B0230916C0240916D0250916E02C70143
:10488000B6010E947A30181664F48EEF800F8230E1
:1048900040F4C0926B02D0926C02E0926D02F092F2
:1048A0006E02033009F412C508F017C4013009F490
:1048B00050C4023009F4C8C4C0907002D090710294
:1048C000E0907202F0907302C114D104E104F1048B
:1048D00059F1B301A2014C195D096E097F096A0102
:1048E0007B0180916F02823069F058EBC5165BE066
:1048F000D506E104F10430F081E00E94D01185E09A
:104900000E94EA1180917D02873071F060E6C61640
:104910006AEED606E104F10438F080E890E00E94E7
:104920000C1287E00E94EA11809166029091670262
:10493000A0916802B09169020097A105B10519F133
:1049400053014201881A990AAA0ABB0AD501C40177
:10495000803B9440A105B105B0F0E091D3068E2FC5
:1049600090E0FC01EE0FFF1FE80FF91FE255F94F31
:1049700080818F7B80831092660210926702109272
:1049800068021092690220916F02223051F58091E5
:104990006502811126C08091610290916202A0910E
:1049A0006302B0916402B301A201481B590B6A0B68
:1049B0007B0BDB01CA01803B9440A105B10588F067
:1049C000E091D3068E2F90E0FC01EE0FFF1FE80F61
:1049D000F91FE255F94F80818F7B808361E06093FE
:1049E00065028091C1029091C202A091C302B09170
:1049F000C402B301A201481B590B6A0B7B0B8091C7
:104A0000BD029091BE02A091BF02B091C00273019D
:104A10006201C81AD90AEA0AFB0A4832510561053F
:104A2000710538F488ECC816D104E104F10408F4E7
:104A3000CEC54092840250928502609286027092A6
:104A400087028091700290917102A0917202B091E0
:104A500073020097A105B10541F053014201881A84
:104A6000990AAA0ABB0AD501C401809388029093CF
:104A70008902A0938A02B0938B0280917402909174
:104A800075020196909375028093740290938D0243
:104A900080938C0280917D0280938E0220938F02FE
:104AA0008091CD029091CE02A091CF02B091D00220
:104AB0008093900290939102A0939202B0939302FC
:104AC0008091D1029091D202A091D302B091D402F0
:104AD0008093940290939502A0939602B0939702CC
:104AE0008091D5029091D602A091D702B091D802C0
:104AF0008093980290939902A0939A02B0939B029C
:104B000080916B0290916C02A0916D02B0916E0247
:104B100080939C0290939D02A0939E02B0939F026B
:104B20008091D9029091DA02A091DB02B091DC026F
:104B30008093A0029093A102A093A202B093A3023B
:104B40008091DD029091DE02A091DF02B091E0023F
:104B50008093A4029093A502A093A602B093A7020B
:104B60008091E1029091E202A091E302B091E4020F
:104B70008093A8029093A902A093AA02B093AB02DB
:104B80008091E9029091EA02A091EB02B091EC02CF
:104B90008093AC029093AD02A093AE02B093AF02AB
:104BA0008091ED029091EE02A091EF02B091F0029F
:104BB0008093B0029093B102A093B202B093B3027B
:104BC0008091F1029091F202A091F302B091F4026F
:104BD0008093B4029093B502A093B602B093B7024B
:104BE000E0917E02E093B80280916A028093B9025C
:104BF00080917602909177029C0126703327232BB7
:104C000009F4FBC322E02093BA029093BC02809384
:104C1000BB02483251056105710508F4CAC44092CF
:104C2000C1025092C2026092C3027092C402E1308B
:104C300009F0BFC4B301A2018EE693E00E947B0E8F
:104C4000ECE2DC01EC934091880250918902609182
:104C50008A0270918B0201960E947B0EECE2DC01CD
:104C6000EC9340918C0250918D0270E060E00196CF
:104C70000E947B0E8C010F5F1F4FECE2DC01EC9376
:104C8000E0918E02E93008F0BDC3F0E0EE0FFF1FA7
:104C9000EE5CFE4F0190F081E02DD80184910F5F12
:104CA0001F4F882309F4B1C3319623E0AD3CB2070E
:104CB00008F0ABC38C93F1CFBFEFCB1ADB0AE0E176
:104CC000CE16E7E2DE0609F03ACA88E090E00E94DC
:104CD0000C125DCB212F30E050E040E0C501B40163
:104CE0000E944A2E20933C0230933D0240933E02A4
:104CF00050933F02C418D508E608F70839E7C316F1
:104D0000D104E104F10424F080E091E00E940C124F
:104D100010924002109241021092420210924302FD
:104D200081E08093440278CC80916F02811103C0AE
:104D300081E080936F0281E0C7CCC0900401D090E5
:104D40000501E0900601F09007018090000190902D
:104D50000101A0900201B090030169A17AA1072E80
:104D6000000C880B990B0E94CA2FA70196010E9484
:104D7000562F6EA77FA788AB99AB6093D90270932B
:104D8000DA028093DB029093DC026BA17CA1072EF8
:104D9000000C880B990B0E94CA2FA70196010E9454
:104DA000562F6AAB7BAB8CAB9DAB6093DD027093EF
:104DB000DE028093DF029093E0026DA17EA1072EB8
:104DC000000C880B990B0E94CA2FA70196010E9424
:104DD000562F6B017C01C092E102D092E202E09278
:104DE000E302F092E40269817A81072E000C880BBD
:104DF000990B0E94CA2FA50194010E94562F209161
:104E000038023091390240913A0250913B020E949F
:104E1000E42E6093E9027093EA028093EB02909390
:104E2000EC026B817C81072E000C880B990B0E9491
:104E3000CA2FA50194010E94562F2091340230916F
:104E4000350240913602509137020E94E42E609361
:104E5000ED027093EE028093EF029093F0026D8169
:104E60007E81072E000C880B990B0E94CA2FA5018A
:104E700094010E94562F20913002309131024091CE
:104E80003202509133020E94E42E6093F10270933B
:104E9000F2028093F3029093F4022EA53FA548A955
:104EA00059A9CA01B9010E947F304B015C012AA9AE
:104EB0003BA94CA95DA9CA01B9010E947F309B01A1
:104EC000AC01C501B4010E94E52E4B015C01A701B4
:104ED0009601C701B6010E947F309B01AC01C5015C
:104EE000B4010E94E52E0E9442316093E502709366
:104EF000E6028093E7029093E80251E05093F902B2
:104F000044CC69A17AA18BA19CA18B019C01005387
:104F100015472109310901391F452140310518F094
:104F20001092FA025BCC6093CD027093CE02809314
:104F3000CF029093D00209811A812B813C8100938A
:104F4000D1021093D2022093D3023093D402C090A6
:104F50003C02D0903D02E0903E02F0903F021C14D3
:104F60001D041E041F040CF05BC00E94CA2F4B01DD
:104F70005C01C701B6010E94CA2F9B01AC01C501AB
:104F8000B4010E94562F2BEA3CED42E45EE30E94FE
:104F9000EC309B01AC0160E070E080E89FE30E9490
:104FA000E42E20E03AE24DE257E40E947F306B01AC
:104FB0007C0120E030E04AEF53E4C701B6019F775F
:104FC0000E947A3018160CF4ABCF80914402811104
:104FD0002BC0C0924002D0924102E0924202F09275
:104FE000430251E05093440280914002909141026B
:104FF000A0914202B09143028093D5029093D602D1
:10500000A093D702B093D8024092F5025092F602D4
:105010006092F7027092F80261E06093FA02DECBD0
:10502000C12CD12C7601C5CF8090400290904102D6
:10503000A0904202B0904302A5019401C701B601BD
:105040000E94E42E23E333E343EB5EE30E947F30D0
:10505000A50194010E94E52E6093400270934102E5
:105060008093420290934302BFCF53014201881ABA
:10507000990AAA0ABB0A22E382169104A104B10488
:1050800008F4F5CB2091590230915A0240915B020D
:1050900050915C02C701B6010E94E42E20E030E08E
:1050A0004AE754E40E947F306EA77FA788AB99AB94
:1050B000C501B4010E94C82F9B01AC016EA57FA55C
:1050C00088A999A90E94562F6093550270935602A1
:1050D0008093570290935802BACB073008F0ECCB7C
:1050E000112399F0609155027091560280915702F8
:1050F000909158029F7720E030E040E05FE30E940B
:10510000512F182F111F1127111F8091F902882389
:10511000B9F020E030E040E85FE36091E502709193
:10512000E6028091E7029091E8020E94E42E9F77C8
:1051300020E030E040E85EE30E94512F87FDCDC2C1
:1051400010924502109246021092470210924802B5
:10515000B3CB8091F902882309F4AECB20E030E094
:1051600040E250E46091E5027091E6028091E7022E
:105170009091E8020E947A3087FF09C01092510294
:1051800010925202109253021092540295CB8091C9
:10519000510290915202A0915302B0915402009793
:1051A000A105B10549F44092510250925202609219
:1051B00053027092540280CBB301A201481B590BD9
:1051C0006A0B7B0BDB01CA01CC97A105B10508F482
:1051D00073CB112381F020E030E040EC5FE360917D
:1051E000D5027091D6028091D7029091D8020E9488
:1051F000512F87FD61CB40927002509271026092F4
:1052000072027092730280E090E0DC01112341F0A1
:105210008091D5029091D602A091D702B091D80288
:1052200080936B0290936C02A0936D02B0936E0218
:1052300010925D0210925E0210925F021092600264
:1052400082E00E94EA1138CB8091F902882381F034
:1052500020E030E040EA5FE36091E5027091E60211
:105260008091E7029091E8020E94512F87FD09C0CA
:1052700010924D0210924E0210924F021092500264
:105280001BCB80914D0290914E02A0914F02B091A4
:1052900050020097A105B10549F440924D02509289
:1052A0004E0260924F027092500206CB53014201AF
:1052B000881A990AAA0ABB0AD501C401803591054A
:1052C000A105B10508F4F8CA83E0BBCF112309F4A6
:1052D000F3CA8090D5029090D602A090D702B090E9
:1052E000D80220916B0230916C0240916D02509176
:1052F0006E02C501B4010E947A30181644F48092FF
:105300006B0290926C02A0926D02B0926E02C090FD
:105310007002D0907102E0907202F0907302C1149A
:10532000D104E104F10409F4FFCAD301C2018C19CC
:105330009D09AE09BF0980399140A105B10508F466
:10534000C8CAA501940160916B0270916C028091B2
:105350006D0290916E020E94E42E20E030E040E069
:1053600050E40E947A3087FF09C0109249021092DF
:105370004A0210924B0210924C029ECA809149023E
:1053800090914A02A0914B02B0914C020097A10566
:10539000B10549F44092490250924A0260924B0290
:1053A00070924C0289CAB301A201481B590B6A0BC7
:1053B0007B0BDB01CA0186399105A105B10508F413
:1053C00088CA84E00E94EA1180916F02823019F04D
:1053D00080E00E94D01185E034CF53014201881A49
:1053E000990AAA0ABB0AD501C401803D9740A105CC
:1053F000B10508F461CA87E024CF99249394909270
:10540000BA0203CCE4EAF3E048CC3CE23C9360917E
:1054100090027091910280919202909193022AE001
:10542000A1010E94B82BA1016EEC73E0C8010E949B
:10543000600DECE2DC01EC934091940250919502F6
:10544000609196027091970221E001960E943512B8
:10545000ECE2DC01EC93409198025091990260914A
:105460009A0270919B0222E001960E943512ECE2B2
:10547000DC01EC9340919C0250919D0260919E0250
:1054800070919F0222E001960E943512ECE2DC014D
:10549000EC934091A0025091A1026091A202709100
:1054A000A30222E001960E943512ECE2DC01EC93AB
:1054B0004091A4025091A5026091A6027091A702AA
:1054C00022E001960E943512ECE2DC01EC9340915F
:1054D000A8025091A9026091AA027091AB0222E049
:1054E00001960E943512ECE2DC01EC934091AC0293
:1054F0005091AD026091AE027091AF0221E0019631
:105500000E943512ECE2DC01EC934091B002509124
:10551000B1026091B2027091B30221E001960E9443
:105520003512ECE2DC01EC934091B4025091B502EB
:105530006091B6027091B70221E001960E94351287
:105540009C012F5F3F4FECE2DC01EC93E0918F0276
:10555000E430A8F4F0E0EE0FFF1FEC5BFE4F01908B
:10556000F081E02DC901DC0124910196222351F044
:10557000319633E0AD3CB30728F42C93F4CFE6EA40
:10558000F3E0F0CF4CE24C934091BB025091BC024F
:1055900070E060E00E947B0EDC011C920E9476119C
:1055A000892B39F480E190E00E940C1282E0809314
:1055B0007E02B8ECCB16D104E104F10440F0409235
:1055C000BD025092BE026092BF027092C002109162
:1055D0007D02809176029091770287709927892BBE
:1055E00009F078C08AEF90E0183040F4E12FF0E045
:1055F000EE0FFF1FE45BFE4F8081918140917902A5
:1056000050917A0260917B0270917C0253014201B9
:10561000841A950AA60AB70AB501A401B0E0A0E071
:10562000481759076A077B0790F040927902509219
:105630007A0260927B0270927C02609178029924D7
:10564000939469256093780285E00E942A048091F2
:10565000800290918102A0918202B0918302630145
:105660005201A81AB90ACA0ADB0AD601C501883C48
:105670009105A105B10540F040928002509281024F
:1056800060928202709283021730D1F480917F027F
:10569000811116C080917E02813071F486E394E01E
:1056A0000E94C90986E394E00E94C9091092360459
:1056B0001092380410927E02BB24B394B0927F0201
:1056C00080E0C82E80E0D82ECD2809F431C80E9491
:1056D00000002EC884E690E091CF112309F430CD6C
:1056E0008091450290914602A0914702B0914802F4
:1056F0000097A105B10509F070CE40924502509285
:1057000046026092470270924802D6C881E00E9429
:1057100095110C94BC1FEF920F931F93CF93DF93BF
:10572000E80134E047FD34E1042E000C550B57FF2F
:1057300003C0519541955109E32E022F242FAE014C
:105740000E94032CCE01DF91CF911F910F91EF901A
:105750000895FB01DC014150504048F005900D9246
:105760000020C9F701C01D9241505040E0F7089554
:10577000BB272A3051F4992342F4BDE290958095DD
:10578000709561957F4F8F4F9F4F0C94C82BBB270F
:10579000FA01A62F6217710581059105330B30FBC5
:1057A00066F0AA27660F771F881F991FAA1FA217E6
:1057B00010F0A21B63953850A9F7A05DAA3308F03A
:1057C000A95DA19336F7B111B1931082CA010C946F
:1057D0003A2EBB27FB015527AA27880F991FAA1F1E
:1057E000A41710F0A41B83955051B9F7A05DAA33FC
:1057F00008F0A95DA193009779F7B111B1931192C7
:10580000CB010C943A2EA9E0B0E0E9E0FCE20C9464
:10581000822E6A01F22EB02E102FFBE3AF2EA016BF
:1058200008F41BE31F5F012F27E0AE014F5F5F4FBE
:105830000E94622DBC018981982F9970913009F4E2
:105840003FC09BE2E1FC04C09E2D9170E0FC3AC099
:105850005E2D5071E82FE87083FF46C084E09111FF
:1058600001C083E0EF2DE81B8F1508F0E0E0D601C2
:105870008E2F20E2552351F1992329F0D6019C93D4
:10588000C60101966C0196012D5F3F4FE2FE24C0D8
:105890008EE4D6018C9391E411969C931197129605
:1058A0008C93D9018E2F90E281111BC0E20FF32F50
:1058B000F11D10828EEF9FEF2996ECE00C949E2E46
:1058C0009DE2C6CF90E2C4CF2D9381508111FCCFD1
:1058D000CE0ED11CE0E0D0CF8EE6D6018C9391E6BF
:1058E000DBCF9D938150E0CF482F447082FF3DC0B5
:1058F00084E0911101C083E08F1510F4EF2DE81BB7
:10590000D6018E2F20E2552309F1992329F0D601E3
:105910009C93C60101966C0196012D5F3F4FE2FEFC
:105920001BC089E4D6018C938EE411968C93119759
:1059300086E412968C93D9018E2F90E2882309F485
:10594000B5CF9D938150FACF2D9381508111FCCF1B
:10595000CE0ED11CE0E0D9CF89E6D6018C938EE63D
:1059600011968C93119786E6E4CF9B0177FF02C0D6
:1059700030E020E0A1E0B0E0911102C0B0E0A0E092
:10598000F9013196AE0FBF1F8B2C912CBB2009F46F
:1059900061C05401EFEFAE1ABE0AAA0DBB1DFA1684
:1059A0001B0619F014F04F2D4A1B511188C0E3FC5F
:1059B00059C07601A42FB0E2A1114FC0C40ED11C72
:1059C000992309F45BC040E0D6011196F60190835B
:1059D0006D01552309F448C0012F060F9A81582FF5
:1059E000507184FF03C0913309F4015010160CF07C
:1059F00047C0093008F008E0EEE2FE2E5B01A01A75
:105A0000B10885019194819491082F3F320729F4C0
:105A1000D601FC92F60131966F016217730794F17B
:105A2000021713077CF5DB01A21BB30BAA24A39476
:105A3000B12CAC0EBD1EAA0DBB1D11968C91215030
:105A40003109D601119628153905F4F0F601808345
:105A50006D01DBCFB12CA12CA0CFF701B1937F0159
:105A6000A150AACF9111B0CFD601942F50E302C01C
:105A70005D9391509111FCCFC40ED11C40E0ACCF8E
:105A800001E0BACF80E3DBCF6217730731F49633BE
:105A900088F4953311F4552369F0F6018083FD01F4
:105AA000842F90E2811108C0A40FB11D1C9290E0D8
:105AB00080E002CF81E3F1CF91938150F3CF911138
:105AC00083CF8ACF283008F027E03327DA01990FF7
:105AD000311D87FD916000966105710539F43260D2
