:100000000C94A0030C94C8030C94C8030C94C8036C
:100010000C94C8030C94C8030C94C8030C94C80334
:100020000C94C8030C94C8030C94CB110C943A1292
:100030000C94C8030C94C8030C94C8030C94C80314
:100040000C94C8030C94C4140C94C8030C94C803F7
:100050000C94C8030C94C8030C94C8030C9481112D
:100060000C94C8030C9492140C946C140C94C80354
:100070000C94C8030C94C8030C94C8030C94C803D4
:100080000C94C8030C94C8030C94C8030C94C803C4
:100090000C9480150C94C8030C94C8030C94C803EA
:1000A0000C94C8030C94C8030C94C803076342362D
:1000B000B79BD8A71A39685618AEBAAB558C1D3CF9
:1000C000B7CC5763BD6DEDFD753EF6177231BF00BD
:1000D0000000803F08000000BE922449123EABAAF7
:1000E000AA2ABECDCCCC4C3E00000080BEABAAAA52
:1000F000AA3E00000000BF000000803F000000009A
:1001000000084178D3BB4387D1133D190E3CC3BDD2
:100110004282AD2B3E68EC8276BED98FE1A93E4C7F
:1001200080EFFFBE01C4FF7F3F0000000000475288
:100130004F554E445F5A45524F004241434B555034
:100140005F4445504C4F5900435249544943414C38
:100150005F4552524F52004C414E44454400444585
:100160005343454E54005245434F564552595F4400
:1001700045504C4F590041504F4745455F434F4E06
:100180004649524D454400424F4F53545F454E44FB
:10019000004C41554E43485F444554454354454403
:1001A00000524541445900524144494F5F4641493C
:1001B0004C00524144494F5F4F4B0053445F46410E
:1001C000494C0053445F4F4B0053454E534F5253DD
:1001D0005F4F4B00504F5745525F4F4E00455252B4
:1001E0004F52004C414E444544005245434F564502
:1001F00052590044455343454E540041504F4745E2
:100200004500434F41535400424F4F535400524511
:1002100041445900494E4954004552524F520044FE
:1002200045504C4F5945440041524D4544005341BF
:100230004645005D20005B455620003F00080B004E
:10024000020202000009040000010202000005246D
:100250000010010524010101042402060524060002
:10026000010705810310004009040100020A000093
:100270000007050202400000070583024000000459
:1002800003090412010002EF0201404123368000FD
:10029000010102030141726475696E6F204C4C4389
:1002A0000041726475696E6F204C656F6E61726497
:1002B0006F0020D09ED0A2D09AD090D09700206F0F
:1002C0006B0020D09ED0A2D09AD090D09700206F03
:1002D0006B00D091D0B0D180D0BED0BCD0B5D1828F
:1002E000D1803A2000494D553A2000D09AD0A0D074
:1002F00098D0A2D098D0A7D095D0A1D09AD090D0A5
:10030000AF20D09ED0A8D098D091D09AD0903A204B
:10031000D0BFD0BED0BBD191D18220D0BDD0B5D07E
:10032000B2D0BED0B7D0BCD0BED0B6D0B5D0BD0054
:10033000D186D0B8D0BAD0BB20D0B7D0B0D0B2D050
:10034000B5D180D188D191D0BD00D186D0B8D0BAF6
:10035000D0BB3A20D0B2D0BED0B7D0B2D180D0B0CE
:10036000D18220D0B2205341464500D186D0B8D0AA
:10037000BAD0BB3A204445504C4F59454400202048
:100380003F2020D18DD182D0B020D181D0BFD1806B
:10039000D0B0D0B2D0BAD0B0002020692020D18116
:1003A000D0B2D0B5D0B4D0B5D0BDD0B8D18F20D0D8
:1003B000BE20D0B6D0B5D0BBD0B5D0B7D0B5002018
:1003C00020722020D0BFD180D0BED0B3D0BED0BD4F
:1003D00020D0BFD180D0BED184D0B8D0BBD18F20A7
:1003E000D0BFD0BED0BBD191D182D0B02028D0BF59
:1003F0002E20343320D0A2D09729002020302E2E5A
:10040000392020D183D0B3D0BED0BB20302E2E31A6
:10041000383020D18120D188D0B0D0B3D0BED0BC6C
:10042000203230002020742020D186D0B8D0BAD01D
:10043000BB2053414645202D3E204445504C4F594A
:100440004544202D3E205341464500202064202075
:10045000D0BFD180D0B8D0B2D0BED0B420D0B220DE
:100460004445504C4F594544002020732020D0BFB4
:10047000D180D0B8D0B2D0BED0B420D0B2205341B9
:100480004645002D2D2D20D181D0B5D180D0B2D0C0
:10049000B8D181D0BDD18BD0B920D180D0B5D0B664
:1004A000D0B8D0BC2028D0BF2E20343020D0A2D04D
:1004B0009729202D2D2D0049434D2D3230393438C8
:1004C00000424D5032383000433A20D0B4D0B0D141
:1004D00082D187D0B8D0BAD0B8202B20D181D0B566
:1004E000D180D0B2D0BED0BFD180D0B8D0B2D0BE33
:1004F000D0B4202B2048432D3132002020D0BDD055
:10050000B0D0B1D0BED1803A20002020D180D0B070
:10051000D0B4D0B8D0BE3A20D0BFD180D0BED0BFEA
:10052000D183D189D0B5D0BDD0BE20D0B8D0B72D21
:10053000D0B7D0B020D0B1D183D184D0B5D180D0C4
:10054000B03A20002020D184D0BBD0B0D0B3D0B8F6
:1005500020D0BED188D0B8D0B1D0BED0BA3A2030E9
:1005600078002020D183D0B3D0BBD18B20D0BFD195
:1005700080D0B8D0B2D0BED0B4D0B0205341464520
:100580002F4445504C4F593A20002020D0B4D0B0D1
:10059000D0B2D0BBD0B5D0BDD0B8D0B520D0BFD0B0
:1005A000BBD0BED189D0B0D0B4D0BAD0B82C20D076
:1005B0009FD0B03A20002020D0B1D0B0D180D0BEA2
:1005C000D0BCD0B5D182D1803A20002020494D55F1
:1005D0003A202020202020002D2D2D20D0B6D0B56F
:1005E000D0BBD0B5D0B7D0BE202D2D2D00D186D018
:1005F000B8D0BAD0BB3A205341464500D0BFD180D5
:10060000D0B8D0B2D0BED0B4202D3E20D183D0B34C
:10061000D0BED0BB20002D2D2D20D0BFD180D0BE8C
:10062000D0B3D0BED0BD20D182D0B5D181D182D0BF
:10063000BED0B2D0BED0B3D0BE20D0BFD180D0BE4D
:10064000D184D0B8D0BBD18F202D2D2D00D0BFD1DB
:1006500080D0B8D0B2D0BED0B4202D3E204445507A
:100660004C4F5945442C20D183D0B3D0BED0BB20B1
:1006700000D0BFD180D0B8D0B2D0BED0B4202D3EF3
:1006800020534146452C20D183D0B3D0BED0BB20CF
:10069000003F003F00207264726F703D0020657261
:1006A000723D307800207A3D00207265633D002065
:1006B000703D00207C617C3D00206D61783D002014
:1006C000683D0020000000000200090F0000030444
:1006D00001000C000000000000000000000000000D
:1006E0000000000000000000250028002B002E0064
:1006F000310000000000240027002A002D003000F7
:1007000004040404040304050202020204030202B6
:100710000202060606060606040402020204040497
:1007200008020110408040102040804080080204F0
:1007300001804020100201108010204040209F16B0
:1007400011241FBECFEFDAE0DEBFCDBF11E0A0E085
:10075000B1E0E6E9FBE502C005900D92AA3AB107C7
:10076000D9F725E0AAEAB1E001C01D92AC31B20789
:10077000E1F713E0C0EAD3E004C02197FE010E9434
:10078000C32DCF39D107C9F70E9426170C94C92D64
:100790000C940000FB012191BF01222341F0F3E002
:1007A0008A3F9F0720F4FC012193CF01F3CF0895E6
:1007B00090E0FC01E15EF84F24918050994FFC01DC
:1007C0008491882399F090E0880F991FFC01EE50E6
:1007D000F94FA591B491FC01EC51F94F8591949199
:1007E0008FB7F894EC91E22BEC938FBF0895FC0146
:1007F00080916A03882311F13FB7F89482E08093D7
:10080000E9002091F200822F90E01816190614F4E6
:1008100081E090E0882339F0289844E6409369030A
:100820004091F1004083222339F02091F200211100
:1008300003C02BE62093E8003FBF08958FEF9FEFA2
:1008400008952FB7F89483E08093E9009091E80031
:10085000892F807295FF04C09091F20080E4891B7B
:100860002FBF08958091610381110DC082E08093B4
:100870005D0384E080935E031092600310925F0337
:1008800081E0809361038DE593E00895282F30E0A7
:10089000F901EB53F94F9491F901E15EF84F84911E
:1008A0002050394FF9012491222309F430C09923B3
:1008B000E9F091509F30D0F4E92FF0E0EE59FB4F72
:1008C0000C94C32D90049404710488048C04760461
:1008D0007604760497049D04A104A504AB04760471
:1008E000AF04909180009F7790938000E22FF0E01A
:1008F000EE0FFF1FEC51F94FA591B4919FB7F894FB
:10090000EC91611132C080958E238C939FBF089526
:10091000909180009F7DE8CF90918000977FE4CFF9
:1009200094B59F7794BDE2CF94B59F7DFBCF909116
:1009300090009F7790939000D9CF909190009F7DE9
:10094000F9CF90919000977FF5CF9091C0009F775D
:100950009093C000CBCF9091C0009F7DF9CF909134
:10096000C200977F9093C200C1CF8E2BCECF3FB7EE
:10097000F8948091590390915A03A0915B03B09130
:100980005C0326B5A89B05C02F3F19F00196A11D59
:10099000B11D3FBFBA2FA92F982F8827BC01CD01C9
:1009A000620F711D811D911D42E0660F771F881F28
:1009B000991F4A95D1F708958F929F92AF92BF9257
:1009C000CF92DF92EF92FF924B015C010E94B7043D
:1009D0006B017C010E94B7046C197D098E099F0987
:1009E000683E734081059105A8F321E0821A9108C1
:1009F000A108B10888EEC80E83E0D81EE11CF11CE6
:100A000081149104A104B10429F7FF90EF90DF90C5
:100A1000CF90BF90AF909F908F9008952FB7F8948C
:100A2000609155037091560380915703909158033C
:100A30002FBF08950895089508954091240250917C
:100A40002502209122023091230242175307B4F469
:100A50009091E8009570E1F39091E80092FD19C043
:100A60008093F100809124029091250201968F736A
:100A70009927892B19F48EEF8093E8008091240246
:100A8000909125020196909325028093240281E0A3
:100A9000089580E00895EF92FF920F931F93CF93F4
:100AA000DF93F82E192FE62E042F81E0860F880F92
:100AB0000E941D0583E00E941D05CF2DD12FEC0E55
:100AC000FD2EF11CCE15DF05B9F007FF13C0FE01A6
:100AD00084910E941D05182F80E00E941D0581232E
:100AE00021968111EFCFDF91CF911F910F91FF9050
:100AF000EF9008958881EDCF81E0F5CFDF92EF92FE
:100B0000FF920F931F93CF93DF93D82E8A01EB01AF
:100B10007B01E40EF51ECE15DF0559F0D7FE12C09D
:100B2000FE0184910E941D0521968111F4CF0FEFE3
:100B30001FEFC801DF91CF911F910F91FF90EF90B0
:100B4000DF9008958881EECF0F931F93CF93DF93AB
:100B50001F92CDB7DEB782E0898342E450E06DE3B7
:100B600072E080E80E947E050E943204DC01129649
:100B70000D911C910115110589F0D801ED91FC91A1
:100B80000280F381E02DBE016F5F7F4FC8010995A0
:100B900097FD04C0F80100851185ECCF89810F9085
:100BA000DF91CF911F910F910895615030F0209106
:100BB000F100FC0120830196F8CF289884E6809309
:100BC00069030895AF92BF92CF92DF92EF92FF92A6
:100BD0000F931F93CF93DF936C017B018B01040F65
:100BE000151FEB015E01AE18BF08C017D10759F001
:100BF0006991D601ED91FC910190F081E02DC60143
:100C00000995892B79F7C501DF91CF911F910F913C
:100C1000FF90EF90DF90CF90BF90AF900895FC01D0
:100C2000538D448D252F30E0842F90E0821B930B51
:100C3000541710F0CF96089501970895FC01918DF7
:100C4000828D981761F0A28DAE0FBF2FB11D5D96FA
:100C50008C91928D9F5F9F73928F90E008958FEF9C
:100C60009FEF0895FC01918D828D981731F0828D50
:100C7000E80FF11D858D90E008958FEF9FEF0895A7
:100C8000FC01918D228D892F90E0805C9F4F821B0B
:100C900091098F73992708958BEF93E00E94400686
:100CA00021E0892B09F420E0822F089580E090E074
:100CB000892B29F00E944C0681110C9400000895A4
:100CC000FC01A48DA80FB92FB11DA35ABF4F2C91C1
:100CD000848D90E001968F739927848FA689B789B8
:100CE0002C93A089B1898C9182748C93938D848D7F
:100CF000981306C00288F389E02D80818F7D808360
:100D00000895EF92FF920F931F93CF93DF93EC011F
:100D100081E0888F9B8D8C8D981319C0E889F989A3
:100D2000808185FF14C09FB7F894EE89FF896083A6
:100D3000E889F9898081827480839FBF81E090E097
:100D4000DF91CF911F910F91FF90EF900895F62EB4
:100D50000B8D10E00F5F1F4F0F731127E02E8C8D4E
:100D60008E110CC00FB607FCFACFE889F989808193
:100D700085FFF5CFCE010E946006F1CFEB8DEC0F21
:100D8000FD2FF11DE35AFF4FF0829FB7F8940B8FB0
:100D9000EA89FB8980818062CFCFCF93DF93EC011A
:100DA000888D8823B9F0AA89BB89E889F9898C9153
:100DB00085FD03C0808186FD0DC00FB607FCF7CF0F
:100DC0008C9185FFF2CF808185FFEDCFCE010E940F
:100DD0006006E9CFDF91CF9108958F929F92AF92F5
:100DE000BF92CF92DF92EF92FF920F931F93CF9318
:100DF000DF936C017B018A0180910B01882309F448
:100E00005CC080916A03882309F457C0809128024E
:100E100080FF05C08091E00082608093E000E801DF
:100E2000B12C8AEFA82E93E0892E2AE3922E2097E8
:100E300011F4BB20D9F10E94210481110AC0AA94A7
:100E4000AA20D9F161E070E080E090E00E94DC042B
:100E5000EECF8C171D0611F00CF08C2F9FB7F89475
:100E60008092E9002091E80025FD02C09FBFDFCFFE
:100E7000282F30E0C21BD30BF701815020F04191A5
:100E80004093F100FACFE20EF31EBB2021F09092C6
:100E9000E800B12CEBCF8091E80085FDE7CF909280
:100EA000E800BB24B394209709F3F3CF5D9884E660
:100EB00080932702101611063CF081E090E0F601C5
:100EC0009383828310E000E0C801DF91CF911F91EE
:100ED0000F91FF90EF90DF90CF90BF90AF909F90D9
:100EE0008F900895CF93DF931F92CDB7DEB76983BC
:100EF000DC01ED91FC910280F381E02D41E050E0B6
:100F0000BE016F5F7F4F09950F90DF91CF910895DC
:100F10000F931F93CF93DF938C01D0E0C0E0F801D3
:100F2000EC0FFD1F6491662341F088E994E00E9474
:100F30007207892B11F02196F2CFCE01DF91CF916C
:100F40001F910F91089583E08093E9008091F20052
:100F5000882319F08AE38093E80008950E94210411
:100F600090E00895CF93DF931F92CDB7DEB7FC01D9
:100F70008485958597FD08C02FEF3FEF358724873F
:100F80000F90DF91CF910895CE0101960E94F70353
:100F9000019719F4898190E0F3CF8FEF9FEFF0CFA5
:100FA0000F931F93CF93DF931F92CDB7DEB78C01C2
:100FB000FC018485958597FF0BC0CE0101960E94A8
:100FC000F703019771F4898190E0F8019587848790
:100FD000F801848595850F90DF91CF911F910F9136
:100FE00008958FEF9FEFF1CFFC018485958597FDE4
:100FF0000BC09FB7F89482E08093E9008091F200E3
:101000009FBF90E0019608959FB7F89482E0809387
:10101000E9008091F2009FBF90E008952091FE01C9
:10102000260F3327331F21323105ECF42091910331
:10103000FC0190E080E0243069F082E00895A09106
:10104000FE012191AC0142525E4FA40FB52FB11D9C
:101050002C930196861798F38091FE01680F609398
:10106000FE0180E0089581E008951092910381E0EF
:101070008093900310926B0361E082E00E9446042B
:1010800061E083E00E944604E9EBF0E080818E7F1E
:10109000808380818D7F808388E48093B80085E49D
:1010A0008093BC000895CF93DF9391E0909330023A
:1010B0008823B9F0C091B800D091BA008091BC00EB
:1010C0008A7B8093BC0060E082E00E94460460E07E
:1010D00083E00E9446040E943508D093BA00C09372
:1010E000B800DF91CF9108958F929F92AF92BF92F7
:1010F000CF92DF92EF92FF920F931F93CF93DF93E4
:10110000D091BA03D13208F0D7C0182FC091B903DB
:101110000E94B7046B017C018091910381116BC027
:1011200082E080939103109390038FEF80938F035D
:1011300010928E03D0938D03A9E9B3E0EDE6F3E0BE
:1011400080E0D81391C010926C0380916C03CC0F97
:10115000C82BC0936C0380916B03813009F088C069
:1011600010926B030E94B7046B017C0180916C03A9
:101170008093BB008091930390919403A091950379
:10118000B0919603892B8A2B8B2BA1F00E94B70478
:10119000009193031091940320919503309196034D
:1011A0006C197D098E099F0906171707280739074B
:1011B00008F442C08091BC0083FDD8CF85EC8093B9
:1011C000BC000E94B7046B017C01809191038230C6
:1011D00009F450C080918F038F3F09F46FC0809154
:1011E0008F03803209F46CC080918F03803309F43F
:1011F00069C084E026C08091930390919403A091EC
:101200009503B0919603892B8A2B8B2B09F484CFFD
:101210000E94B7048090930390909403A09095034C
:10122000B09096036C197D098E099F098616970662
:10123000A806B90608F070CF809192030E94530867
:1012400085E0109298031092BA0310929703DF91F1
:10125000CF911F910F91FF90EF90DF90CF90BF90B3
:10126000AF909F908F9008959D9191938F5F69CFDC
:1012700085EEA5CF8091930390919403A09195035F
:10128000B0919603892B8A2B8B2B09F49ECF0E9459
:10129000B70400919303109194032091950330912A
:1012A00096036C197D098E099F09061717072807F1
:1012B000390708F08ACFC0CF81E0C3CF80E0C1CF2B
:1012C00082E0BFCF83E0BDCFE0912F0280912E025C
:1012D000E81730F4F0E0E254FE4F808190E008958A
:1012E0008FEF9FEF089590912F0280912E022FEFA4
:1012F0003FEF981748F4E92FF0E0E254FE4F2081C9
:1013000030E09F5F90932F02C901089580912E02D3
:1013100090912F02891B990B0895CF92DF92EF9243
:10132000FF920F931F93CF93DF937C01CB018A0130
:1013300020919703222389F0EB016B01C40ED51E87
:10134000CC15DD0569F06991D701ED91FC91019013
:10135000F081E02DC7010995F3CF642F0E940E089C
:10136000C801DF91CF911F910F91FF90EF90DF9017
:10137000CF900895CF93DF931F92CDB7DEB76983E7
:10138000209197032223F9F02091BA03203258F0DC
:1013900021E030E0FC013383228390E080E00F9075
:1013A000DF91CF91089580919803E82FF0E0E75600
:1013B000FC4F998190838F5F809398038093BA0349
:1013C00081E090E0ECCF61E0CE0101960E940E0832
:1013D000F7CF90E080E008958F929F92AF92BF92F6
:1013E000EF92FF920F931F93CF93DF93F82E80918C
:1013F0001905282F30E0F901EE0FFF1FE20FF31F50
:10140000EC50FB4F908196FD53C08C3008F050C0DB
:1014100086E00E94D80380911905282F30E0F90159
:10142000EE0FFF1FE20FF31FEC50FB4F9081907CFB
:101430009660908310921A0510921B052CE0622F83
:101440000E94B72D829FB001112430E020E0AB0153
:10145000420F531FFA01EE0FFF1FE40FF51FEC5070
:10146000FB4F908196FD16C02F5F3F4F2C3031050A
:1014700071F781110FC01092800082E0809381008B
:101480001092850010928400B19A80916F00826062
:1014900080936F00E09119058E2F90E0FC01EE0F14
:1014A000FF1FE80FF91FEC50FB4F808180648083A1
:1014B000E09019058BE08E1508F451C080911B0552
:1014C00008E512E0081B110987FD1395000F111F95
:1014D000000F111F80911A05C8E8D0E0C81BD10980
:1014E00087FDD395CC0FDD1FCC0FDD1F4E010D2ED8
:1014F000000CAA08BB08AF2DB0E0A53BB10514F065
:10150000A4EBB0E09801012E000C440B550B2819F8
:1015100039094A095B090E94592924EB30E040E06F
:1015200050E00E942F29820E931EA41EB51E8C1619
:101530009D062CF0E801801691060CF4E401229738
:10154000CC0FDD1F2FB7F894F12CF701EE0FFF1F22
:10155000EE0DFF1DEC50FB4FD283C1832FBFDF91F7
:10156000CF911F910F91FF90EF90BF90AF909F9000
:101570008F9008950E94EC090E940E056115710577
:101580008105910549F060939B0270939C028093C2
:101590009D0290939E02089581E090E0A0E0B0E06B
:1015A00080939B0290939C02A0939D02B0939E0215
:1015B0000895CF93C42F91E0909397038093B9033C
:1015C000109298031092BA0388EE94E00E94BA0930
:1015D0006C2F88EE94E00E94BA0981E00E947408A2
:1015E00091E0811190E0892FCF9108954F925F9201
:1015F0006F927F928F929F92AF92BF92FF920F93C2
:101600001F93CF93DF93D82F042FF52E122F81E055
:1016100080939703D093B903109298031092BA0362
:1016200088EE94E00E94BA0980E00E947408C82FF6
:101630008111CCC00E94B7044B015C0180919103E1
:10164000811165C081E080939103809390039FEFA7
:1016500090938F0310928E03910F90938D0380933C
:101660006C0380916C03DD0FD82BD0936C038091B9
:101670006B03813009F084C010926B030E94B704A1
:101680004B015C0180916C038093BB0080919303BC
:1016900090919403A0919503B0919603892B8A2B86
:1016A0008B2BA1F00E94B7044090930350909403B9
:1016B0006090950370909603681979098A099B09CF
:1016C000461657066806790608F442C08091BC00A9
:1016D00083FDD8CF85EC8093BC000E94B7044B01FA
:1016E0005C0180919103813009F44CC080918E039C
:1016F000811708F069C080918E03ADE6B3E0EEEB90
:10170000F1E0C81749F19D919193CF5FFACF809195
:10171000930390919403A0919503B0919603892B24
:101720008A2B8B2B09F48ACF0E94B7044090930335
:10173000509094036090950370909603681979090E
:101740008A099B09461657066806790608F076CF7F
:10175000809192030E94530810922F02C0932E0290
:101760001C1334C0B02EC02FDF2D88EE94E00E94F1
:10177000730989938C2F8B198117B8F381E027C0E7
:1017800085EEA9CF8091930390919403A091950346
:10179000B0919603892B8A2B8B2B09F4A2CF0E9440
:1017A000B704409093035090940360909503709019
:1017B0009603681979098A099B094616570668062F
:1017C000790608F08ECFC4CF812F97CF80E0DF91CC
:1017D000CF911F910F91FF90BF90AF909F908F90EE
:1017E0007F906F905F904F900895EF92FF920F93CC
:1017F0001F93CF93DF93CDB7DEB72C970FB6F89436
:10180000DEBF0FBECDBF7C018B012CE0AE014F5F70
:101810005F4F6DE288E60E94F60A882361F1298114
:101820003A81322723273227F701318320832B8106
:101830003C81322723273227338322832D813E8127
:10184000322723273227358324832F813885322777
:1018500023273227F8013183208329853A853227CF
:1018600023273227338322832B853C853227232766
:101870003227358324832C960FB6F894DEBF0FBE33
:10188000CDBFDF91CF911F910F91FF90EF90089501
:101890002F923F924F925F926F927F928F929F9280
:1018A000AF92BF92CF92DF92EF92FF920F931F936E
:1018B000CF93DF93CDB7DEB728970FB6F894DEBF8E
:1018C0000FBECDBF98878F837B0126E0AE014F5FAF
:1018D0005F4F67EF87E70E94F60A082F882309F415
:1018E000E9C119812A803B808C8190E0B0E0A0E0C2
:1018F0002CE0880F991FAA1FBB1F2A95D1F74D8195
:1019000050E070E060E034E0440F551F661F771F21
:101910003A95D1F7842B952BA62BB72B2E8130E04F
:1019200044E0359527954A95E1F7032E000C440BCA
:10193000550B822B932BA42BB52B40913102509148
:10194000320270E060E02C013D01E4E075946794A0
:1019500057944794EA95D1F7441A550A660A770ACC
:10196000F3E0B595A79597958795FA95D1F7440F2C
:10197000551F661F771F5C016D01A41AB50AC60AC0
:10198000D70AA6019501A0913302B09134020E94BA
:1019900059294B015C013BE0B594A7949794879437
:1019A0003A95D1F7A3019201C301B2010E94A72D7C
:1019B0009B01AC016CE055954795379527956A9545
:1019C000D1F7A0913502B09136020E9459292B011E
:1019D0003C017EE075946794579447947A95D1F7CB
:1019E000480C591C6A1C7B1C4092490250924A02C6
:1019F00060924B0270924C02A5E0B0E0A30192010C
:101A00000E944E2960587F4F8F4F9F4F672F782F2E
:101A1000892F992787FD9A950E94AE2A20E030E011
:101A200048EC52E40E94042AF701608371838283A8
:101A3000938373016201F594E794D794C794FAEF06
:101A4000DF1AE108F108C701B601A2E09595879574
:101A500077956795AA95D1F79B01AC010E94A72DB8
:101A60004B015C01A0913B02B0913C02AC019B0197
:101A70008DE055954795379527958A95D1F70E9422
:101A800059292B013C0193E075946794579447942E
:101A90009A95D1F7A0913902B0913A02A701960127
:101AA0000E9459299B01AC0155954795379527957B
:101AB000240D351D461D571D72E1559547953795E7
:101AC00027957A95D1F730584F4F5F4FA091370245
:101AD000B09138020E944E292B013C01EFE0759431
:101AE000679457944794EA95D1F7411451046104DF
:101AF000710409F404C1A50194018BE05595479543
:101B0000379527958A95D1F7A0914102B09142026D
:101B10000E9459294B015C01A0913F02B091400203
:101B2000A70196010E945929DC01CB01880F991F5A
:101B3000AA1FBB1F880D991DAA1DBB1D6C017D012D
:101B400032E0F594E794D794C7943A95D1F7212FD2
:101B500030E050E040E06CE0220F331F441F551F7F
:101B60006A95D1F7822D90E0B0E0A0E074E0880F94
:101B7000991FAA1FBB1F7A95D1F7282B392B4A2B07
:101B80005B2B832D90E0E4E095958795EA95E1F74E
:101B9000092E000CAA0BBB0B282B392B4A2B5B2BD5
:101BA00080913D0290913E02092E000CAA0BBB0BC6
:101BB000DC01992788278C0D9D1DAE1DBF1D1CE0E3
:101BC000B595A795979587951A95D1F7280F391F41
:101BD0004A1F5B1FABECB3EF0E945C29805B9C4308
:101BE00097FD82C0660F771F881F991FA30192017E
:101BF0000E94612929013A01C301B20123E09695AF
:101C00008795779567952A95D1F79B01AC010E943E
:101C1000A72D9B01AC016DE056954795379527950B
:101C20006A95D1F7A0914702B09148020E945929C4
:101C30006B017C017CE0F594E794D794C7947A9586
:101C4000D1F7A3019201E2E0569547953795279584
:101C5000EA95D1F7A0914502B09146020E94592918
:101C60009B01AC01FDE05595479537952795FA9571
:101C7000D1F72C0D3D1D4E1D5F1DC0904302D0902D
:101C800044020D2C000CEE08FF082C0D3D1D4E1DCE
:101C90005F1DA4E05595479537952795AA95D1F7EF
:101CA000420E531E641E751EEF81F88540825182DC
:101CB00062827382802F28960FB6F894DEBF0FBE23
:101CC000CDBFDF91CF911F910F91FF90EF90DF90EB
:101CD000CF90BF90AF909F908F907F906F905F90CC
:101CE0004F903F902F900895A30192010E94612987
:101CF00029013A01440C551C661C771C7DCF412CF0
:101D0000512C3201D1CF0F931F93CF93DF93CDB7D7
:101D1000DEB72C970FB6F894DEBF0FBECDBF8C0197
:101D2000CB01BA012AE0AE014F5F5F4F0E94E3286A
:101D3000BE016F5F7F4FC8010E94CA032C960FB689
:101D4000F894DEBF0FBECDBFDF91CF911F910F91F1
:101D50000895FB0101900020E9F73197AF01461B80
:101D6000570BDC01ED91FC910280F381E02D099489
:101D70008F929F92AF92BF920F931F93CF93DF9357
:101D8000CDB7DEB7A1970FB6F894DEBF0FBECDBFBB
:101D900019A2423008F44AE08E010F5D1F4F842ED5
:101DA000912CB12CA12CA50194010E946129E62F50
:101DB000B901CA01EA3004F5E05DD801EE938D0166
:101DC000232B242B252B79F790E080E0109729F026
:101DD000BD0188E994E00E94A90EA1960FB6F8947F
:101DE000DEBF0FBECDBFDF91CF911F910F91BF908E
:101DF000AF909F908F900895E95CDFCFCF92DF92F4
:101E0000EF92FF92CF93DF9397FF1BC06B017C0192
:101E10006DE288E994E00E947207EC01662777275B
:101E2000CB016C197D098E099F094AE00E94B80E0A
:101E30008C0F9D1FDF91CF91FF90EF90DF90CF909F
:101E400008954AE0DF91CF91FF90EF90DF90CF901F
:101E50000C94B80E4F925F926F927F928F929F92E6
:101E6000AF92BF92CF92DF92EF92FF920F931F93A8
:101E7000CF936B017C01742EAC019B010E94662CF8
:101E80006BE971E0811126C046015701E894B7F86B
:101E90002FEF3FEF4FE75FE7C501B4010E94662CCB
:101EA00081110CC02FEF3FEF4FE75FE7C501B40191
:101EB0000E94FF296FE971E0181664F02FEF3FEFE1
:101EC0004FE75FE4C701B6010E945E2B1816ACF421
:101ED00063EA71E088E994E0CF911F910F91FF9040
:101EE000EF90DF90CF90BF90AF909F908F907F90BA
:101EF0006F905F904F900C94A90E2FEF3FEF4FE73C
:101F00005FECC701B6010E94FF2987FDE1CF20E009
:101F100030E0A901C701B6010E94FF2910E000E0EE
:101F200087FF0AC06DE288E994E00E9472078C0185
:101F3000F7FAF094F7F8F094C0E060E070E080E029
:101F40009FE37C1641F020E030E040E251E40E9443
:101F5000042ACF5FF6CFA70196010E9493292B0197
:101F60003C010E947D2A4B015C014AE00E94B80EB0
:101F70007C01E00EF11ECC23C1F1C501B4010E9429
:101F8000AC2A9B01AC01C301B2010E9492294B0112
:101F90005C016EE288E994E00E947207E80EF91E87
:101FA000C15018F120E030E040E251E4C501B40135
:101FB0000E94632B2B013C010E947D2A4B01B12C16
:101FC000A12C4AE0C501B4010E94B80EE80EF91E2A
:101FD000C501B4010E94AC2A9B01AC01C301B2014E
:101FE0000E9492294B015C01DBCFC701CF911F9169
:101FF0000F91FF90EF90DF90CF90BF90AF909F90A8
:102000008F907F906F905F904F900895CF93DF9364
:102010000E948807EC0167EA71E088E994E00E9479
:10202000A90E8C0F9D1FDF91CF9108950C9406107F
:10203000CF93DF93BC01990F880B990B0E94FE0E82
:10204000EC0167EA71E088E994E00E94A90E8C0F28
:102050009D1FDF91CF910895CF93DF93C42F23E28B
:102060002093BB03AB01BC018CEB93E00E94830E79
:1020700023E08A3F920720F42CE7FC01208301969D
:10208000EBE3F2E0C03148F4EC2FF0E0EE0FFF1F7D
:10209000EC5EFE4F0190F081E02DEC0184918823ED
:1020A00039F0319623E0CA3FD20710F48993F6CF76
:1020B00018828BEF93E00E940F06CB5BD340CE5F7C
:1020C000C817190609F084F46BEB73E08BEF93E00B
:1020D0000E94A90E67EA71E08BEF93E00E94A90EBF
:1020E00081E0DF91CF91089580E0FBCFCF93C5E0F1
:1020F00080914D028823E1F0E0914E02CE9FF001E5
:102100001124E655FE4F6081718182819381448163
:102110000E942C10882361F080914E028F5F8370A3
:1021200080934E0280914D02815080934D02E0CF0A
:10213000CF910895CF92DF92EF92FF92CF93C82F65
:102140000E940E056B017C018091A8028130D9F4B8
:102150000E94761080914D02882371F080914D028B
:10216000843089F58091D1029091D20201969093AA
:10217000D2028093D10207C04C2FC701B6010E9442
:102180002C10882359F386E392E00E9488074AE0E6
:10219000C701B6010E94B80E83E392E00E9488074F
:1021A0008BE392E0C03140F4EC2FF0E0EE0FFF1F24
:1021B000EC5EFE4F80819181CF91FF90EF90DF9098
:1021C000CF900C940610E0914E02E80FE37095E07A
:1021D000E99FF0011124E655FE4FC082D182E282D0
:1021E000F382C4838F5F80934D02CDCFCF93C82FEE
:1021F00088E70E94EC0982E08093CD020E940E05E0
:10220000609396027093970280939802909399023C
:1022100010929A028AE0C1118EE0CF910C949A102C
:102220009091D3029817E9F08093D302833089F01C
:1022300028F4813049F0823051F00895853069F0FA
:1022400050F0873061F0089586E00C949A1087E092
:10225000FCCF88E0FACF89E0F8CF8BE0F6CF8CE0B6
:10226000F4CF08952091CF023091D002A9014823E4
:102270005923452B69F4282B392B3093D002209316
:10228000CF0287709927892B19F08DE00C949A1052
:10229000089585ED8093BC00809193039091940301
:1022A000A0919503B09196030796A11DB11D23E05F
:1022B000B695A795979587952A95D1F72091BC005B
:1022C00024FD03C01092910308954091930350910F
:1022D00094036091950370919603452B462B472BF1
:1022E00069F30097A105B10541F02AE22A95F1F7BB
:1022F00000C00197A109B109E1CF809192030C942C
:1023000053081F920F920FB60F9211242F933F93F1
:102310008F939F93AF93BF938091550390915603F2
:10232000A0915703B09158033091540323E0230F39
:102330002D3758F50196A11DB11D209354038093AC
:10234000550390935603A0935703B093580380917D
:10235000590390915A03A0915B03B0915C030196DD
:10236000A11DB11D8093590390935A03A0935B0361
:10237000B0935C03BF91AF919F918F913F912F914B
:102380000F900FBE0F901F90189526E8230F02960E
:10239000A11DB11DD2CF1F920F920FB60F92112423
:1023A0008F939F938091E1009091E100937F9093B0
:1023B000E10083FF0FC01092E90091E09093EB00E1
:1023C0001092EC0092E39093ED0010926A0398E073
:1023D0009093F00082FF22C093E09093E9009091E7
:1023E000F200992319F09AE39093E8009091270264
:1023F000992341F0909127029150909327029111D7
:1024000001C05D9A90916903992341F0909169030D
:10241000915090936903911101C0289A84FF18C0CC
:102420008091E2008E7E81608093E2008091E100E5
:102430008F7E8093E100809128028E7E8061809360
:1024400028029F918F910F900FBE0F901F901895AB
:1024500080FFF7CF8091E2008E7E80618093E20062
:102460008091E1008E7E8093E100809128028E7E33
:102470008160E5CF1F920F920FB60F921124CF9279
:10248000DF92EF92FF920F931F932F933F934F93FF
:102490005F936F937F938F939F93AF93BF93EF93CC
:1024A000FF93CF93DF93CDB7DEB76C97DEBFCDBF81
:1024B0001092E9008091E80083FF25C068E0CE011A
:1024C00045960E94D50582EF8093E8008D8987FFAD
:1024D00039C09091E80090FFFCCF982F907609F0DA
:1024E00034C19E894F89588D2F89F88C911131C044
:1024F000803861F5809129028093F1001092F100FB
:102500008EEF8093E8006C960FB6F894DEBF0FBE96
:10251000CDBFDF91CF91FF91EF91BF91AF919F918F
:102520008F917F916F915F914F913F912F911F916B
:102530000F91FF90EF90DF90CF900F900FBE0F9014
:102540001F9018959EEF9093E800C7CF1092F1006E
:10255000D5CF913059F48111D3CF4130510581F657
:10256000809129028D7F80932902CACF933049F44C
:102570008111C6CF4130510519F680912902826040
:10258000F2CF953041F48091E80080FFFCCF2068C5
:102590002093E300B5CF963009F0A9C00B8D1C8DB8
:1025A00022E01092E9001092250210922402F21209
:1025B0002EC010922302109222020E94A4051F82B4
:1025C00099E09983FA8291E09E8390EA98879AEF46
:1025D00099872091240230912502275F3F4F3C8349
:1025E0002B838D831092E900109225021092240211
:1025F000109323020093220249E050E0BE016F5F76
:102600007F4F80E00E947E050E94A40579CF109341
:102610002302009322020E943204DC0112960D91E3
:102620001C910115110509F451C1D801ED91FC91DE
:102630000480F581E02DBE016B5E7F4FC8010995D6
:10264000009709F03EC1F80100851185EACFF3E05B
:10265000FF120EC08F89882309F440C0823061F4D4
:1026600040E860E181EA92E00E944B05811148CF89
:1026700081E28093EB0047CF813029F440E86BE0A2
:1026800085E992E0F1CF833099F70E943204DC01B2
:102690001296ED90FC908E010F5F1F4F6801E114C0
:1026A000F10479F0D701ED91FC910680F781E02DDE
:1026B000B801C7010995080F111DF701E084F184E5
:1026C000EECFD8011C92F60101900020E9F7319776
:1026D000BF016C197D0940E0C601C6CF6FE772E00B
:1026E000FB01449150E080E80E947E0509CF9730BD
:1026F00009F4BECF983021F481E08093F10000CF3F
:10270000993009F0FDCE837009F0B2CFE5E3F1E036
:1027100081E031E096E32191222371F08093E9007A
:102720003093EB00DF0111972C912093EC009093F4
:10273000ED008F5F873079F78EE78093EA00109283
:10274000EA008F8980936A03DBCE8B8D9C8D10927B
:10275000E9001092250210922402909323028093A4
:102760002202898D811192C08E899D89913A49F406
:10277000813209F07DCF47E050E064E071E080E015
:10278000B3CF913209F074CF833269F48F89988D79
:10279000B0E0A0E08093000190930101A0930201BA
:1027A000B0930301ADCE803269F48091E80082FFDE
:1027B000FCCF67E084E091E00E94D5058BEF809329
:1027C000E8009ECE823209F09BCE8F8980930B0168
:1027D000EEEFFFE7859194918B3F9C4D51F1E0E046
:1027E000F8E08091040190910501A0910601B0915B
:1027F0000701803B9440A105B105F1F480910B01E4
:1028000080FD1AC0EE3F8AE0F80789F587E797E771
:1028100091838083809160008093260288E19BE011
:102820000FB6F894A895809360000FBE9093600057
:1028300067CEEEEFFAE0D5CF808191818737974759
:1028400009F05ECEA8958091600088618093600059
:102850008091260280936000EE3F2AE0F20789F023
:102860008091FE0A9091FF0A9183808349CE8081F6
:1028700091818737980751F29093FF0A8093FE0A5F
:10288000C5CF1092FF0A1092FE0A3ACE0E9432047F
:10289000DC0112960D911C910115110509F4E8CE89
:1028A000D801ED91FC910190F081E02DBE016B5EAD
:1028B0007F4FC8010995811123CEF801008511854C
:1028C000EBCF181619060CF41BCED2CEF1E0FF1296
:1028D000BECE63E872E004CF1F920F920FB60F9244
:1028E00011242F933F934F935F936F937F938F9315
:1028F0009F93AF93BF93EF93FF938BEF93E00E946F
:102900006006FF91EF91BF91AF919F918F917F9161
:102910006F915F914F913F912F910F900FBE0F904C
:102920001F9018951F920F920FB60F9211242F939C
:102930008F939F93EF93FF93E0910B04F0910C041E
:102940008081E0911104F091120482FD1BC09081FE
:10295000809114048F5F8F7320911504821741F0CA
:10296000E0911404F0E0E550FC4F958F809314043F
:10297000FF91EF919F918F912F910F900FBE0F902C
:102980001F9018958081F4CF1F920F920FB60F926F
:1029900011242F933F934F935F936F937F938F9364
:1029A0009F93AF93BF93CF93DF93EF93FF93809168
:1029B0002102C0911805D0E087FF24C01092850045
:1029C00010928400809121028F5F80932102809178
:1029D0002102082E000C990B8C179D0724F480917E
:1029E00021028C30C4F1809184009091850004967E
:1029F00080349C4908F47AC08091840090918500CD
:102A0000049676C080912102082E000C990B8C1739
:102A10009D07C4F6E09121028E2FEE0F990BFC0169
:102A2000EE0FFF1FE80FF91FEC50FB4F808186FF70
:102A3000C9CFE09121028E2FEE0F990BFC01EE0F12
:102A4000FF1FE80FF91FEC50FB4F808160E08F7390
:102A50000E944604B7CF2091840030918500E09118
:102A600021028E2FEE0F990BFC01EE0FFF1FE80FD6
:102A7000F91FEC50FB4F81819281820F931F90933D
:102A8000890080938800E09121028E2FEE0F990B30
:102A9000FC01EE0FFF1FE80FF91FEC50FB4F808188
:102AA00086FF11C0E09121028E2FEE0F990BFC01E1
:102AB000EE0FFF1FE80FF91FEC50FB4F808161E024
:102AC0008F730E944604FF91EF91DF91CF91BF91E8
:102AD000AF919F918F917F916F915F914F913F91B6
:102AE0002F910F900FBE0F901F90189580E49CE9D6
:102AF00090938900809388008FEF80932102E3CF29
:102B00001F920F920FB60F9211242F933F934F9362
:102B10005F936F937F938F939F93AF93BF93EF9345
:102B2000FF938091B900887F803609F44AC0F0F5A0
:102B3000883209F4A7C018F5803109F49BC0B8F4B5
:102B4000882309F4F9C0883009F494C0FF91EF910B
:102B5000BF91AF919F918F917F916F915F914F91B5
:102B60003F912F910F900FBE0F901F9018958831B5
:102B700009F488C0803251F780938F0314C08034E9
:102B800009F49DC040F48033B9F38833F9F680939B
:102B90008F0385ECB0C0803509F485C0883509F411
:102BA00096C0883499F60E944911D0CF883909F42B
:102BB0008CC038F5883729F050F4883611F080370A
:102BC00029F683E0809391031092200257C0883841
:102BD00009F47BC0803919F0803809F0B7CF8091B3
:102BE0002002803208F071C0E091200281E08E0F57
:102BF000809320028091BB00F0E0E050FE4F808384
:102C00003DC0803B39F0E0F4803A09F479C0883A5D
:102C100009F09CCF84E0809391031092FF01109201
:102C2000FE01E0912C02F0912D0209958091FE01A8
:102C300081110FC081E08093FE011092DE0109C076
:102C4000803C09F4A6CF883C09F4A3CF883B09F067
:102C50007DCFE091FF0181E08E0F8093FF01F0E0D6
:102C6000E252FE4F80818093BB009091FF018091E2
:102C7000FE0129C080916C038093BB0085EC80939A
:102C8000BC0064CF90918E0380918D03981758F506
:102C9000E0918E0381E08E0F80938E03F0E0E35984
:102CA000FC4F8081E9CFE0918E0381E08E0F80930D
:102CB0008E038091BB00F0E0E359FC4F808390913C
:102CC0008E0380918D039817C8F285E8D8CFE091E4
:102CD0008E0381E08E0F80938E038091BB00F0E025
:102CE000E359FC4F80838091900381115CCF81E098
:102CF00080936B0384EA8093BC001092910326CFEB
:102D000085EC8093BC001092910380912002803268
:102D100030F4E0912002F0E0E050FE4F108260912C
:102D2000200270E0E0912A02F0912B0280E092E014
:102D30000995109220020ACF10928F0334CF10927F
:102D4000FE031092FD0388EE93E0A0E0B0E08093D4
:102D5000FF0390930004A0930104B093020429E6BA
:102D600031E03093FC032093FB032DEC30E03093F3
:102D70000804209307042CEC30E030930A042093DD
:102D8000090428EC30E030930C0420930B0429EC68
:102D900030E030930E0420930D042AEC30E03093A1
:102DA000100420930F042EEC30E030931204209393
:102DB000110410921404109215041092160410922B
:102DC000170410929B0410929A0480939C04909391
:102DD0009D04A0939E04B0939F042BE731E03093B1
:102DE0009904209398042FEF3FEF3093A50420938C
:102DF000A4041092EB041092EA048093EC049093E4
:102E0000ED04A093EE04B093EF048DE891E090936D
:102E1000E9048093E804809118058C3098F491E0DF
:102E2000980F909318058093190590E0FC01EE0F20
:102E3000FF1FE80FF91FEC50FB4F88EB9BE09283DC
:102E4000818308958FEF809319050895CF93DF93C1
:102E5000CDB7DEB7A9970FB6F894DEBF0FBECDBFD2
:102E6000789484B5826084BD84B5816084BD85B565
:102E7000826085BD85B5816085BD80916E00816071
:102E800080936E0010928100809181008260809317
:102E90008100809181008160809381008091800019
:102EA0008160809380008091910082608093910086
:102EB0008091910081608093910080919000816069
:102EC000809390008091C10084608093C1008091C4
:102ED000C10082608093C1008091C10081608093B5
:102EE000C1008091C30081608093C3008091C000C5
:102EF00082608093C0008091C20081608093C20094
:102F000080917A00846080937A0080917A00826058
:102F100080937A0080917A00816080937A0080911A
:102F20007A00806880937A0010926A0310922902D6
:102F3000109228028091D70081608093D70080EAA8
:102F40008093D80089B5806189BD89B5826089BDCB
:102F500009B400FEFDCF61E070E080E090E00E94E7
:102F6000DC048091D8008F7C80618093D8008091B0
:102F7000E000807F8093E0008091E1008E7E80936E
:102F8000E1008DE08093E200559A209A8FEF9FEF49
:102F90009093A5048093A40485E00E94D80360E088
:102FA00085E00E9446041092D0021092CF02109247
:102FB000AA021092AB021092AC021092AD021092D3
:102FC000A90280E00E949A1010922F0210922E0205
:102FD000109298031092BA030E9435088BE195E095
:102FE00090932D0280932C028CE195E090932B021C
:102FF00080932A028CE08093B8001092300288EB14
:103000009BE0A0E0B0E08093930390939403A0939F
:103010009503B093960381E08093920310924F0240
:1030200010925002109251021092520210925302CA
:1030300010925402109255021092560210925702AA
:10304000109258021092590210925A021092AE0237
:103050001092AF021092B0021092B102109263026D
:103060001092640210926502109266021092680239
:103070001092CE0210926702198240E06FE788E654
:103080000E94D90A21E08E010F5F1F4F1801A8018D
:1030900060E088E60E94F60A082F882309F461C0E0
:1030A00089818A3E09F03DC340E866E088E60E94D7
:1030B000D90A64E670E080E090E00E94DC0440E021
:1030C0006FE788E60E94D90A41E066E088E60E9440
:1030D000D90A6EE170E080E090E00E94DC0440E0FC
:1030E00067E088E60E94D90A6EE170E080E090E037
:1030F0000E94DC0440E26FE788E60E94D90A80E083
:1031000090E0A0E0B5E48093100190931101A093AA
:103110001201B093130147E064E188E60E94D90AE6
:1031200083E393E3A3E8B1E480930C0190930D0152
:10313000A0930E01B0930F0147E061E088E60E9482
:10314000D90A40E060E088E60E94D90A6EE170E0AA
:1031500080E090E00E94DC0440E06FE788E60E9497
:10316000D90A198E21E0AE01475E5F4F60ED87E717
:103170000E94F60A8111D7C210E085EE92E00E940B
:10318000880787EB94E00E9488078EEC92E001119B
:1031900002C082EC92E00E94061082ED92E00E9452
:1031A000880781EC94E00E9488078EEB92E0111171
:1031B00002C082EB92E00E94061001110C94932849
:1031C00084E090E00E943211111104C082E090E08E
:1031D0000E94321181E090E00E94321110E064EF11
:1031E00071E080E090E00E94DC041092CD02109229
:1031F00096021092970210929802109299021092E1
:103200009A0284E10E94EC096CE271E080E090E0B7
:103210000E94DC04E09119058E2F90E0FC01EE0F76
:10322000FF1FE80FF91FEC50FB4F80818F7B8083DD
:1032300010929F02E0910B04F0910C0482E08083D5
:10324000E0910704F09108041082E0910904F091E4
:103250000A048FEC808310921304E0910F04F09124
:10326000100486E08083E0910D04F0910E048081CB
:1032700080618083E0910D04F0910E04808188606C
:103280008083E0910D04F0910E048081806880833A
:10329000E0910D04F0910E0480818F7D808381E0A8
:1032A0008093A8021092D2021092D1021092A7022B
:1032B0001092A60210924E0210924D0284E00E94DB
:1032C0009A10112309F4F5C01091CF0219A712FD2D
:1032D000A3C000E410E0C12CD12C760146015701B7
:1032E00026013701B101CE0149960E94F50B8823D2
:1032F00089F169817A81072E000C880B990B0E9455
:10330000AE2A9B01AC01C301B2010E9493292B019B
:103310003C016B817C81072E000C880B990B0E946D
:10332000AE2A9B01AC01C501B4010E9493294B0157
:103330005C016D817E81072E000C880B990B0E9429
:10334000AE2A9B01AC01C701B6010E9493296B0113
:103350007C011F5F65E070E080E090E00E94DC048B
:10336000015009F0BFCF112309F456C020910C0180
:1033700030910D0140910E0150910F012DA33EA3FC
:103380004FA358A7612F70E090E080E00E94AE2A22
:1033900069A37AA38BA39CA39B01AC01C301B201D7
:1033A0000E94042A2DA13EA14FA158A50E94042AE3
:1033B00060935702709358028093590290935A0277
:1033C00029A13AA14BA15CA1C501B4010E94042A24
:1033D0002DA13EA14FA158A50E94042A609353023B
:1033E00070935402809355029093560229A13AA1FA
:1033F0004BA15CA1C701B6010E94042A2DA13EA1E8
:103400004FA158A50E94042A60934F027093500266
:10341000809351029093520289A481FC4AC008E231
:1034200010E070E3C72E75E7D72EE12CF12CE0EC0D
:103430004E2EE4ED5E2E66246394712C812C912C2B
:103440005401B101CE0149960E94480C882311F124
:10345000898D9A8DAB8DBC8DAC01BD014053554714
:103460006109710941395F456140710598F4880E21
:10347000991EAA1EBB1E84159505A605B70514F452
:103480002C013D01C816D906EA06FB0614F46C01AE
:103490007D011F5F64E170E080E090E00E94DC0449
:1034A000015079F6143108F0BEC182E090E00E942C
:1034B00032111092D3021092A0021092A102109227
:1034C000A2021092A3021092C9021092CA02109294
:1034D000CB021092CC0210928602109287021092B8
:1034E0008802109289021092820210928302109236
:1034F00084021092850210927E0210927F02109236
:1035000080021092810210927A0210927B02109235
:103510007C0210927D021092760210927702109235
:1035200078021092790210928E0210928F021092FD
:1035300090021092910210929202109293021092B5
:1035400094021092950210928A0210928B021092AD
:103550008C0210928D028091CF029091D0028770E0
:103560009927892B21F08BEE92E00E940610109291
:10357000A5021092A4028091CF029091D002877090
:103580009927892B09F485C188E00E9410111092B7
:10359000C8021092C4021092C5021092C602109284
:1035A000C7020E940E0560931A0370931B03809359
:1035B0001C0390931D0360931E0370931F0380935D
:1035C00020039093210360935003709351038093E1
:1035D0005203909353036093D5027093D602809365
:1035E000D7029093D80260931203709313038093D1
:1035F000140390931503609316037093170380933D
:103600001803909319038E01015E1F4F18A30F8FAB
:103610000E940E052B013C018091500390915103B3
:10362000A0915203B09153032091C302B301A201B0
:10363000481B590B6A0B7B0BDB01CA01222309F4DF
:10364000DCC54497A105B10508F42BC24092500394
:103650005092510360925203709253038090BF02C4
:103660009090C002A090C102B090C2028091BB02B3
:103670009091BC02A091BD02B091BE0273016201A3
:10368000C81AD90AEA0AFB0AC701B6010E94AC2A85
:1036900020E030E04AE754E40E94042A6B017C01F8
:1036A0004092BB025092BC026092BD027092BE0278
:1036B00020E030E0A9010E94FF2918160CF0F2C0AA
:1036C00020E030E040E05FE3C701B6010E945E2BDE
:1036D00018160CF4E7C093018201081919092A0988
:1036E0003B0909A31AA32BA33CA38091B202882310
:1036F00009F4DCC01092B3021092B4021092B50229
:103700001092B6021092B7021092B8021092B9024B
:103710001092BA02C12CD12C00E8E02E0FE3F02E5B
:1037200008C100E01ECD898D883509F025CD46EB16
:1037300060EE87E70E94D90A6AE070E080E090E0DE
:103740000E94DC0428E1A10168E887E70E94F60AEC
:10375000182F882309F410CD29813A813093320241
:10376000209331028B819C819093340280933302A9
:103770008D819E8190933602809335028F8198854A
:10378000909338028093370249855A8550933A02C4
:10379000409339024B855C8550933C0240933B0239
:1037A0004D855E8550933E0240933D024F8558897A
:1037B0005093400240933F0249895A8950934202F4
:1037C000409341024B895C895093440240934302E9
:1037D0004D895E8950934602409345024F89588D2A
:1037E00050934802409347021092490210924A02B5
:1037F00010924B0210924C02232B09F4BDCC892B62
:1038000009F4BACC48E065EF87E70E94D90A4FE295
:1038100064EF87E70E94D90A62E370E080E090E0FD
:103820000E94DC04AACC212F30E050E040E0C5012A
:10383000B4010E942F292093AE023093AF0240932F
:10384000B0025093B102542F432F322F22272093DE
:10385000690230936A0240936B0250936C02C41861
:10386000D508E608F70839E7C316D104E104F104E6
:1038700024F080E091E00E943211109263021092D5
:103880006402109265021092660281E080936802E1
:1038900010CE8091CD02811103C081E08093CD02D2
:1038A00081E073CEC12CD12C760115CF8090B70268
:1038B0009090B802A090B902B090BA0229A13AA1A2
:1038C0004BA15CA12A3F31054105510508F03BC4DD
:1038D00020E030E04CE852E4C701B6010E94632BBF
:1038E0002091B3023091B4024091B5025091B602DA
:1038F0000E9493299B01AC012093B3023093B40240
:103900004093B5025093B602C701B6010E94632BE3
:10391000A50194010E9493296093B7027093B802A5
:103920008093B9029093BA02C12CD12CE12C91E47E
:10393000F92E20E030E0A9016091B7027091B80241
:103940008091B9029091BA020E94FF291816CCF01A
:103950001092B7021092B8021092B9021092BA02F5
:103960001092B3021092B4021092B5021092B602F5
:1039700081E08093B202C12CD12C10E8E12E1FE32C
:10398000F12E6091B7027091B8028091B9029091C6
:10399000BA0260932A0370932B0380932C039093B5
:1039A0002D03C0923A03D0923B03E0923C03F09285
:1039B0003D0310922E0310922F03109230031092A9
:1039C0003103109232031092330310923403109299
:1039D0003503C0923603D0923703E0923803F09259
:1039E000390310923E0310923F031092400310924D
:1039F0004103109242031092430310924403109229
:103A00004503109246031092470310924803109208
:103A100049032DEC3CEC4CE351E40E94632B0E94E3
:103A2000762A0091AE021091AF022091B00230913F
:103A3000B10248015901861A970AA80AB90AD501A4
:103A4000C4018093220390932303A0932403B09393
:103A50002503A12CB12CB0EACB2EB1E4DB2EA09231
:103A60002603B0922703C0922803D092290381E055
:103A700080934F0380934E0340924A0350924B032E
:103A800060924C0370924D03C9A0DAA0EBA0FCA099
:103A900001E2C0160EE4D006E104F10410F0109229
:103AA000C3028091D302813009F0CCC08091C3025F
:103AB0008111C8C080914E03882309F4C3C080914E
:103AC000AE029091AF02A091B002B091B10218166F
:103AD00019061A061B060CF0B5C0809175028823E2
:103AE00051F01092750240927102509272026092EF
:103AF00073027092740280914F03882309F48CC082
:103B000080914A0390914B03A0914C03B0914D03D7
:103B100040916D0250916E0260916F02709170023F
:103B200084179507A607B70709F476C0409171027C
:103B300050917202609173027091740253014201BC
:103B4000841A950AA60AB70AB501A401483B0BE0FE
:103B500050076105710508F45FC0E091CE028093C3
:103B60006D0290936E02A0936F02B0937002009169
:103B7000690210916A0220916B0230916C0280916F
:103B8000220390912303A0912403B0912503BA2F1F
:103B9000A92F982F8827801B910BA20BB30BFAE05B
:103BA000E11101C0F4E004C0B595A79597958795FC
:103BB000FA95D2F7800F911FA21FB31F809369025D
:103BC00090936A02A0936B02B0936C02892F9A2F94
:103BD000AB2FBB27A7FDBA958093AE029093AF029F
:103BE000A093B002B093B102E1112CC040345F4108
:103BF00061057105A8F01092680281E08093CE0201
:103C00008091CF029091D0029E7F9093D0028093BA
:103C1000CF028FE00E949A108091CE02811112C0D3
:103C20008091670281110EC020E3421625E75206FB
:103C30006104710438F080E091E00E94321181E06B
:103C40008093670280911A0390911B03A0911C033B
:103C5000B0911D03B301A201481B590B6A0B7B0BEA
:103C6000DB01CA014497A105B10508F491C0409257
:103C70001A0350921B0360921C0370921D03109153
:103C80004F030091D302112309F43FC080919202A7
:103C900090919302A0919402B0919502C0902A0352
:103CA000D0902B03E0902C03F0902D030097A105FA
:103CB000B10509F0B2C4C0928E02D0928F02E09298
:103CC0009002F0929102409292025092930260927E
:103CD000940270929502A70196016091C9027091B9
:103CE000CA028091CB029091CC020E94FF2987FFEB
:103CF0000CC08EEF800F823040F4C092C902D09287
:103D0000CA02E092CB02F092CC02033009F4EFC574
:103D100008F0BBC4013009F4F4C4023009F4A5C5AD
:103D2000C090A002D090A102E090A202F090A30265
:103D3000C114D104E104F10459F1A30192012C1939
:103D40003D094E095F0969017A018091CD028230F7
:103D500069F038EBC3163BE0D306E104F10430F020
:103D600081E00E94F61085E00E9410118091D3023C
:103D7000873071F040E6C4164AEED406E104F1043F
:103D800038F080E890E00E94321187E00E94101124
:103D900080919B0290919C02A0919D02B0919E0205
:103DA0000097A105B10519F153014201881A990A3A
:103DB000AA0ABB0AD501C401803B9440A105B10504
:103DC000B0F0E09119058E2F90E0FC01EE0FFF1F7F
:103DD000E80FF91FEC50FB4F80818F7B808310929E
:103DE0009B0210929C0210929D0210929E022091C2
:103DF000CD02223051F580919A02811126C0809126
:103E0000960290919702A0919802B0919902B30105
:103E1000A201481B590B6A0B7B0BDB01CA01803BDB
:103E20009440A105B10588F0E09119058E2F90E02E
:103E3000FC01EE0FFF1FE80FF91FEC50FB4F8081D4
:103E40008F7B808381E080939A028091160390910A
:103E50001703A0911803B091190373016201C81AE6
:103E6000D90AEA0AFB0A8091120390911303A091E8
:103E70001403B0911503B301A201481B590B6A0B3F
:103E80007B0B88E2C816D104E104F10430F4483C0D
:103E900051056105710508F4ABC64092D9025092F4
:103EA000DA026092DB027092DC028091A0029091B3
:103EB000A102A091A202B091A3020097A105B105B1
:103EC00041F053014201881A990AAA0ABB0AD50196
:103ED000C4018093DD029093DE02A093DF02B093D1
:103EE000E0028091A4029091A50201969093A50210
:103EF0008093A4029093E2028093E1028091D30226
:103F00008093E3022093E4028091220390912303A3
:103F1000A0912403B09125038093E5029093E602DB
:103F2000A093E702B093E8028091260390912703C3
:103F3000A0912803B09129038093E9029093EA02AB
:103F4000A093EB02B093EC0280912A0390912B0393
:103F5000A0912C03B0912D038093ED029093EE027B
:103F6000A093EF02B093F0028091C9029091CA022F
:103F7000A091CB02B091CC028093F1029093F20217
:103F8000A093F302B093F40280912E0390912F033B
:103F9000A0913003B09131038093F5029093F60223
:103FA000A093F702B093F80280913203909133030B
:103FB000A0913403B09135038093F9029093FA02F3
:103FC000A093FB02B093FC028091360390913703DB
:103FD000A0913803B09139038093FD029093FE02C3
:103FE000A093FF02B093000380913E0390913F03A2
:103FF000A0914003B0914103809301039093020389
:10400000A0930303B0930403809142039091430370
:10401000A0914403B0914503809305039093060358
:10402000A0930703B0930803809146039091470340
:10403000A0914803B09149038093090390930A0328
:10404000A0930B03B0930C0380919F0280930D0308
:10405000E091A802E0930E038091CF029091D002EC
:104060009C0126703327232B09F4D8C422E0209327
:104070000F03909311038093100308E2C016D1043C
:10408000E104F10440F0409216035092170360924D
:10409000180370921903483C51056105710508F435
:1040A000A7C54092120350921303609214037092BA
:1040B0001503E13009F0A2C50E9476104091A602D6
:1040C0005091A7024F5F5F4F5093A7024093A60203
:1040D00070E060E08BEB93E00E94830E13E08A3F78
:1040E000910720F42CE7DC012C9301964091D90232
:1040F0005091DA026091DB027091DC020E94830E23
:10410000B3E08A3F9B0720F42CE7FC012083019653
:10411000E091E302E93008F083C4F0E0EE0FFF1F06
:10412000E55BFE4F0190F081E02DDC018D01849173
:10413000882309F478C4319623E0AA3FB20708F037
:104140007AC48D93F3CF8091CD028230B9F123EC04
:1041500035EF4CE151E4C701B6010E94632B9B018E
:10416000AC016091B3027091B4028091B50290915C
:10417000B6020E9492299B01AC012093B3023093B6
:10418000B4024093B5025093B602C701B6010E9433
:10419000632BA50194010E9493296093B702709349
:1041A000B8028093B9029093BA028AE9C82E89E9CD
:1041B000D82E89E1E82E8EE3F82EBBCB40E050E00C
:1041C00060EA70EC4093B3025093B4026093B5027E
:1041D0007093B6029A01AB01C701B6010E94632B2E
:1041E000A50194010E9493296093B7027093B802CD
:1041F0008093B9029093BA028DCA4497A105B10584
:10420000A8F0409250035092510360925203709272
:104210005303B101CE0149960E94F50B811131C0C3
:1042200010924E0384E090E00E94321180911E03B0
:1042300090911F03A0912003B091210363015201CB
:10424000A81AB90ACA0ADB0AD601C5018897A105CE
:10425000B10508F426CC40921E0350921F036092D1
:10426000200370922103B101CE0149960E94480CAF
:1042700081111FC110924F0382E090E00E94321121
:1042800010CC2091610230916202A901440F551FA8
:10429000FE017996ABE5B2E0819191916D917D91AE
:1042A000861B970B820F931F4817590708F0FAC017
:1042B00086E0FE017996ABE5B2E001900D928A9519
:1042C000E1F781E080937502C0901001D090110158
:1042D000E0901201F090130180900C0190900D017C
:1042E000A0900E01B0900F0189A29AA2ABA2BCA22D
:1042F000698D7A8D072E000C880B990B0E94AE2ACF
:10430000A70196010E94042A6DA37EA38FA398A7FC
:1043100060932E0370932F038093300390933103A7
:104320006B8D7C8D072E000C880B990B0E94AE2A9A
:10433000A70196010E94042A4B015C01809232037E
:1043400090923303A0923403B09235036D8D7E8D2D
:10435000072E000C880B990B0E94AE2AA70196012C
:104360000E94042A6B017C01C0923603D09237036D
:10437000E0923803F092390369817A81072E000CAC
:10438000880B990B0E94AE2A29A13AA14BA15CA1EE
:104390000E94042A209157023091580240915902FC
:1043A00050915A020E94922960933E0370933F03FA
:1043B00080934003909341036B817C81072E000C16
:1043C000880B990B0E94AE2A29A13AA14BA15CA1AE
:1043D0000E94042A209153023091540240915502C8
:1043E000509156020E9492296093420370934303B6
:1043F00080934403909345036D817E81072E000CCA
:10440000880B990B0E94AE2A29A13AA14BA15CA16D
:104410000E94042A20914F02309150024091510293
:10442000509152020E949229609346037093470371
:1044300080934803909349032DA13EA14FA158A515
:10444000CA01B9010E94632B69A37AA38BA39CA321
:10445000A5019401C501B4010E94632B9B01AC012D
:1044600069A17AA18BA19CA10E9493294B015C01B7
:10447000A7019601C701B6010E94632B9B01AC0105
:10448000C501B4010E9493290E94262C60933A032F
:1044900070933B0380933C0390933D0381E08093B2
:1044A0004E03C4CE8F8C98A0E815F90509F0F4CE20
:1044B0000BCF698D7A8D8B8D9C8D8B019C01005368
:1044C00015472109310901391F452140310518F0EF
:1044D00010924F03E6CA60932203709323038093E4
:1044E00024039093250309811A812B813C81009339
:1044F0002603109327032093280330932903C090A9
:10450000AE02D090AF02E090B002F090B1021C1465
:104510001D041E041F040CF05BC00E94AE2A4B0158
:104520005C01C701B6010E94AE2A9B01AC01C50126
:10453000B4010E94042A2BEA3CED42E45EE30E94AF
:10454000D02B9B01AC0160E070E080E89FE30E940B
:10455000922920E03AE24DE257E40E94632B6B017E
:104560007C0120E030E04AEF53E4C701B6019F77B9
:104570000E945E2B18160CF4ABCF8091680281115B
:104580002BC0C0926302D0926402E0926502F09266
:10459000660281E0809368028091630290916402D8
:1045A000A0916502B091660280932A0390932B0339
:1045B000A0932C03B0932D0340924A0350924B03D7
:1045C00060924C0370924D0381E080934F0369CA5F
:1045D000C12CD12C7601C5CF8090630290906402EB
:1045E000A0906502B0906602A5019401C701B601D2
:1045F0000E94922923E333E343EB5EE30E94632BA3
:10460000A50194010E949329609363027093640250
:104610008093650290936602BFCF53014201881ACE
:10462000990AAA0ABB0A52E385169104A104B104AF
:1046300008F451CB20918E0230918F02409190026C
:1046400050919102C701B6010E94922920E030E00A
:104650004AE754E40E94632B69A37AA38BA39CA32B
:10466000C501B4010E94AC2A9B01AC0169A17AA1E9
:104670008BA19CA10E94042A60938A0270938B02F2
:1046800080938C0290938D0216CB073008F048CBB4
:10469000112399F060918A0270918B0280918C02B3
:1046A00090918D029F7720E030E040E05FE30E9430
:1046B000FF29182F111F1127111F80914E038823E6
:1046C000B9F020E030E040E85FE360913A03709198
:1046D0003B0380913C0390913D030E9492299F7778
:1046E00020E030E040E85EE30E94FF2987FD01C53D
:1046F000109276021092770210927802109279024C
:104700000FCB80914E03882309F40ACB20E030E0E0
:1047100040E250E460913A0370913B0380913C0386
:1047200090913D030E945E2B87FF3EC0109286024F
:10473000109287021092880210928902C090820221
:10474000D0908302E0908402F0908502C114D104DD
:10475000E104F10409F4E4CA112309F45DC020E086
:1047600030E040EC5FE360912A0370912B0380916D
:104770002C0390912D030E94FF2987FF4DC0D30188
:10478000C2018C199D09AE09BF09893E9340A1055C
:10479000B10508F4C5CA10928202109283021092E9
:1047A000840210928502BCCA809186029091870291
:1047B000A0918802B09189020097A105B10549F442
:1047C000409286025092870260928802709289021B
:1047D000B5CF53014201881A990AAA0ABB0AD5012A
:1047E000C401CC97A105B10508F4A8CF809182023D
:1047F00090918302A0918402B0918502892B8A2B2B
:104800008B2B09F09BCF40928202509283026092E0
:1048100084027092850292CF4092A0025092A1022F
:104820006092A2027092A30280E090E0DC0111236A
:1048300041F080912A0390912B03A0912C03B09119
:104840002D038093C9029093CA02A093CB02B09328
:10485000CC02109292021092930210929402109243
:10486000950282E00E9410115BCA80914E0388235A
:1048700081F020E030E040EA5FE360913A0370911C
:104880003B0380913C0390913D030E94FF2987FDEB
:1048900009C010927E0210927F0210928002109244
:1048A00081023ECA80917E0290917F02A091800297
:1048B000B09181020097A105B10549F440927E02B2
:1048C00050927F02609280027092810229CAA301F5
:1048D0009201281B390B4A0B5B0BDA01C9018035A9
:1048E0009105A105B10508F41BCA83E0BBCF1123D4
:1048F00009F416CA80902A0390902B03A0902C03F1
:10490000B0902D032091C9023091CA024091CB0290
:104910005091CC02C501B4010E945E2B181644F4DC
:104920008092C9029092CA02A092CB02B092CC02AD
:10493000C090A002D090A102E090A202F090A30249
:10494000C114D104E104F10409F422CAD301C20163
:104950008C199D09AE09BF0980399140A105B105A7
:1049600008F4EBC9A50194016091C9027091CA02D3
:104970008091CB029091CC020E94922920E030E0FD
:1049800040E050E40E945E2B87FF09C010927A023B
:1049900010927B0210927C0210927D02C1C980911C
:1049A0007A0290917B02A0917C02B0917D020097E7
:1049B000A105B10549F440927A0250927B026092BF
:1049C0007C0270927D02ACC9B301A201481B590B55
:1049D0006A0B7B0BDB01CA0186399105A105B10584
:1049E00008F4ABC984E00E9410118091CD0282309E
:1049F00019F080E00E94F61085E034CF53014201A7
:104A0000881A990AAA0ABB0AD501C401803D9740B9
:104A1000A105B10508F484C987E024CF21E027CBA4
:104A2000E1E9F6E082CB33E0AA3FB30720F48CE75C
:104A30008C930F5F1F4FC090ED02D090EE02E0907C
:104A4000EF02F090F00220E030E0A901C701B601CA
:104A50000E94FF2987FF4CC020E836E948E15CEC62
:104A6000C701B6010E945E2B18160CF479C363EAE5
:104A700071E0C8010E94CA038C018A5F934028F448
:104A80008CE7D8018C930F5F1F4F6091E502709106
:104A9000E6028091E7029091E8022AE0A1010E94DB
:104AA000D428B101C8010E94CA03B3E08A3F9B0722
:104AB00020F42CE7FC0120830196E091E402E4302D
:104AC00008F06CC0F0E0EE0FFF1FE35AFE4F0190BC
:104AD000F081E02DDC01CD012491222309F461C095
:104AE000319603E0AA3FB00708F062C02D93F3CFE0
:104AF00020E836E948E15CE4C701B6010E94FF29DD
:104B000087FFB5CF20E030E048EC52E4C701B601A2
:104B10000E94632B20E030E040E05FE30E94932995
:104B20000E947D2A6B017C01C701B60124E630E0BA
:104B300040E050E00E946129BA01A901C8010E9429
:104B4000830E8C018A5F934028F48EE2D8018C9307
:104B50000F5F1F4FC701B60124E630E040E050E090
:104B60000E946129CB014AE0B1010E940529F101AF
:104B700001900020E9F73197E219E23058F4B3E0F0
:104B80000A3F1B0728F4F0E3D801FC930F5F1F4F87
:104B9000EF5FF3CFBE016F5F7F4F6BCFE3E9F6E0CE
:104BA00099CF13E0AA3FB10718F42CE72C93019694
:104BB000409110035091110370E060E00E94830E59
:104BC0008C01FC0110828BEF93E00E940F060B5BBF
:104BD00013400E5F0817190609F00CF421C18091EB
:104BE000D1029091D20201969093D2028093D10289
:104BF0008091A802813011F40E9476101091D302A6
:104C0000E091CE02113009F0E12F8091CF02909116
:104C1000D00287709927892B09F00FC18AEF90E0A5
:104C2000E83038F4F0E0EE0FFF1FE55CFE4F8081C6
:104C300091814091AA025091AB026091AC027091B7
:104C4000AD0253014201841A950AA60AB70AB501BA
:104C5000A401B0E0A0E0481759076A077B0788F075
:104C60004092AA025092AB026092AC027092AD02E6
:104C70006091A90281E068276093A90285E00E9403
:104C80004604113009F4DCC01092C8028091D502AC
:104C90009091D602A091D702B091D802A3019201BF
:104CA000281B390B4A0B5B0BDA01C901883C9105C3
:104CB000A105B10508F499C04092D5025092D602E0
:104CC0006092D7027092D8024AE0C301B2010E94FA
:104CD000B80E83EC96E00E948807E091D30281E948
:104CE00096E0E93038F4F0E0EE0FFF1FE55BFE4F91
:104CF000808191810E9488078FEB96E00E9488074F
:104D000060912A0370912B0380912C0390912D03C5
:104D100042E00E942A0F89EB96E00E94880760918A
:104D2000C9027091CA028091CB029091CC0242E0FC
:104D30000E942A0F83EB96E00E94880760913A0355
:104D400070913B0380913C0390913D0342E00E94AF
:104D50002A0F8FEA96E00E948807609122037091E3
:104D6000230380912403909125030E94FE0E89EA7B
:104D700096E00E948807E091CD0283E996E0E43056
:104D800038F4F0E0EE0FFF1FE35AFE4F808191816F
:104D90000E94880785EA96E00E9488076091CE020B
:104DA00070E090E080E00E94FE0E8DE996E00E94A7
:104DB00088076091CF027091D00290E080E040E1DE
:104DC0000E94B80E85E996E00E9488076091D102A2
:104DD0007091D20290E080E04AE00E94B80E67EA4B
:104DE00071E088E994E00E94A90E8091D302873097
:104DF00039F48091D402811103C081E08093D40200
:104E000080E090E0892B11F40C94081B0E944C0662
:104E1000882311F40C94081B0E9400000C94031BBF
:104E20006BEB73E08BEF93E00E94A90E67EA71E0F1
:104E30008BEF93E00E94A90EDBCE84E690E0F9CEE2
:104E40008091C802882399F14091C4025091C50213
:104E50006091C6027091C70263015201A41AB50A9B
:104E6000C60AD70AB601A5014C3D5540610571053A
:104E7000F0F04092C4025092C5026092C602709255
:104E8000C702813051F0823009F449C080E393E0D9
:104E90000E9406101092C8020AC088E70E94BA0A4F
:104EA0008BE693E00E94061082E08093C80288E9B6
:104EB00094E00E94F407892B09F4E8CE88E994E095
:104EC0000E94B207893609F48EC094F5843609F43D
:104ED0006DC0883619F08F3309F0EDC083E894E097
:104EE0000E94161089E694E00E9416108BE494E06C
:104EF0000E94161084E294E00E9416108BEF93E05B
:104F00000E9416108FEB93E00E94161089E993E03F
:104F10000E9416108EE793E00E941610B7CE84E12F
:104F20000E94BA0A8AE493E00E94061083E0BDCF93
:104F3000833781F1843709F443C0823709F0BBC05D
:104F400086E196E00E94061081E08093C3024092C1
:104F5000BF025092C0026092C1027092C20240929F
:104F6000BB025092BC026092BD027092BE021092CF
:104F7000B7021092B8021092B9021092BA021092BF
:104F8000B3021092B4021092B5021092B6021092BF
:104F9000B2027CCE84E10E94BA0A81E796E00E94C8
:104FA000880784E190E00E94181070CE88E70E9484
:104FB000BA0A8DE496E00E94880788E790E0F3CF74
:104FC00081E08093C8024092C4025092C502609270
:104FD000C6027092C70284E10E94BA0A8DEE95E083
:104FE0000E94061053CE88ED95E00E9406108BECCF
:104FF00095E00E94880787EB94E00E94061086EBFC
:1050000095E00E94880781EC94E00E9406108AE8EF
:1050100095E00E9488076091AE027091AF02809186
:10502000B0029091B1020E94FE0E67EA71E088E939
:1050300094E00E94A90E82E695E00E94880764E150
:1050400070E080E090E00E94FE0E6FE288E994E05C
:105050000E94720788E790E00E94181084E495E0AF
:105060000E9488076091CF027091D00290E080E0AA
:1050700040E10E94B80E67EA71E088E994E00E947E
:10508000A90E8AE095E00E9488076091D102709194
:10509000D20290E080E04AE00E94B80E67EA71E038
:1050A00088E994E00E94A90E8BEF94E00E948807A3
:1050B00088EC94E095CF90ED980F9A3008F0E6CD0B
:1050C00014E1919F102D1124812F0E94BA0A8CEFB8
:1050D00095E00E948807612F70E090E080E04AE050
:1050E0000E94B80E67EA71E088E994E00E94A90E78
:1050F000CDCD112309F4FCCA8091760290917702FC
:10510000A0917802B09179020097A105B10509F04C
:1051100075CC40927602509277026092780270923B
:1051200079020C94901E112311F40C94E6182DECC6
:105130003CEC4CEC5DE360911001709111018091A9
:105140001201909113010E94632B0E94762A7093A2
:1051500062026093610281E00E949A100C94EF1841
:10516000C701B601905820E030E048EC52E40E94BC
:10517000632B20E030E040E05FE30E9493290E942F
:105180007D2A6B017C01C114D104E104F10409F40E
:10519000CBCCB3E00A3F1B0708F0C6CC8DE2F80188
:1051A00080830F5F1F4FC0CCBB272A3051F4992357
:1051B00042F4BDE290958095709561957F4F8F4F39
:1051C0009F4F0C94E428BB27FA01A62F62177105A4
:1051D00081059105330B30FB66F0AA27660F771F18
:1051E000881F991FAA1FA21710F0A21B63953850A1
:1051F000A9F7A05DAA3308F0A95DA19336F7B11114
:10520000B1931082CA010C941F29BB27FB015527BB
:10521000AA27880F991FAA1FA41710F0A41B839513
:105220005051B9F7A05DAA3308F0A95DA19300978A
:1052300079F7B111B1931192CB010C941F29DC01C4
:10524000FC01672F71917723E1F7329704C07C91BD
:105250006D9370836291AE17BF07C8F30895052E52
:1052600097FB1EF400940E94462957FD07D00E9428
:10527000612907FC03D04EF40C94462950954095C3
:10528000309521953F4F4F4F5F4F089590958095F2
:10529000709561957F4F8F4F9F4F08950E9483298E
:1052A000A59F900DB49F900DA49F800D911D11247A
:1052B0000895B7FF0C944E290E944E29821B930B30
:1052C0000895A1E21A2EAA1BBB1BFD010DC0AA1F47
:1052D000BB1FEE1FFF1FA217B307E407F50720F05F
:1052E000A21BB30BE40BF50B661F771F881F991FDA
:1052F0001A9469F760957095809590959B01AC0123
:10530000BD01CF010895A29FB001B39FC001A39F2B
:10531000700D811D1124911DB29F700D811D1124EE
:10532000911D08955058BB27AA270E94AA290C94C2
:10533000242B0E94162B38F00E941D2B20F039F4EC
:105340009F3F19F426F40C94132B0EF4E095E7FB21
:105350000C940D2BE92F0E94352B58F3BA176207D6
:1053600073078407950720F079F4A6F50C94572B62
:105370000EF4E0950B2EBA2FA02D0B01B901900170
:105380000C01CA01A0011124FF27591B99F0593FB4
:1053900050F4503E68F11A16F040A22F232F342FFC
:1053A0004427585FF3CF469537952795A795F0404A
:1053B0005395C9F77EF41F16BA0B620B730B840B5F
:1053C000BAF09150A1F0FF0FBB1F661F771F881F17
:1053D000C2F70EC0BA0F621F731F841F48F487956F
:1053E00077956795B795F7959E3F08F0B0CF939561
:1053F000880F08F09927EE0F9795879508950E94DA
:10540000E92A08F481E008950E94182A0C94242BBC
:105410000E941D2B58F00E94162B40F029F45F3F8C
:1054200029F00C940D2B51110C94582B0C94132B28
:105430000E94352B68F39923B1F3552391F3951B03
:10544000550BBB27AA2762177307840738F09F5FA5
:105450005F4F220F331F441FAA1FA9F335D00E2E12
:105460003AF0E0E832D091505040E695001CCAF77F
:105470002BD0FE2F29D0660F771F881FBB1F261742
:1054800037074807AB07B0E809F0BB0B802DBF0119
:10549000FF2793585F4F3AF09E3F510578F00C94E8
:1054A0000D2B0C94582B5F3FE4F3983ED4F3869574
:1054B00077956795B795F7959F5FC9F7880F911D09
:1054C0009695879597F90895E1E0660F771F881FF5
:1054D000BB1F621773078407BA0720F0621B730BA8
:1054E000840BBA0BEE1F88F7E09508950E947D2A81
:1054F0006894B1110C94582B08950E943D2B88F0AC
:105500009F5798F0B92F9927B751B0F0E1F0660F87
:10551000771F881F991F1AF0BA95C9F714C0B130C8
:1055200091F00E94572BB1E008950C94572B672FF0
:10553000782F8827B85F39F0B93FCCF386957795F7
:105540006795B395D9F73EF49095809570956195E0
:105550007F4F8F4F9F4F0895E89409C097FB3EF40B
:1055600090958095709561957F4F8F4F9F4F9923B0
:10557000A9F0F92F96E9BB279395F695879577952E
:105580006795B795F111F8CFFAF4BB0F11F460FFEE
:105590001BC06F5F7F4F8F4F9F4F16C0882311F046
:1055A00096E911C0772321F09EE8872F762F05C05A
:1055B000662371F096E8862F70E060E02AF09A95F5
:1055C000660F771F881FDAF7880F9695879597F9EA
:1055D0000895990F0008550FAA0BE0E8FEEF161684
:1055E0001706E807F907C0F012161306E407F507D7
:1055F00098F0621B730B840B950B39F40A2661F04B
:10560000232B242B252B21F408950A2609F4A140ED
:10561000A6958FEF811D811D089597F99F6780E8FA
:1056200070E060E008959FEF80EC089500240A94F4
:105630001616170618060906089500240A9412166D
:105640001306140605060895092E0394000C11F4A0
:10565000882352F0BB0F40F4BF2B11F460FF04C04D
:105660006F5F7F4F8F4F9F4F089557FD9058440FA6
:10567000551F59F05F3F71F04795880F97FB991FB1
:1056800061F09F3F79F0879508951216130614066E
:10569000551FF2CF4695F1DF08C0161617061806FB
:1056A000991FF1CF86957105610508940895E894D6
:1056B000BB2766277727CB0197F908950E94E92A2F
:1056C00008F48FEF08950E94762B0C94242B0E94EF
:1056D000162B38F00E941D2B20F0952311F00C940E
:1056E0000D2B0C94132B11240C94582B0E94352B4A
:1056F00070F3959FC1F3950F50E0551F629FF00125
:10570000729FBB27F00DB11D639FAA27F00DB11D3D
:10571000AA1F649F6627B00DA11D661F829F2227C6
:10572000B00DA11D621F739FB00DA11D621F839F4D
:10573000A00D611D221F749F3327A00D611D231F23
:10574000849F600D211D822F762F6A2F11249F5771
:1057500050409AF0F1F088234AF0EE0FFF1FBB1F74
:10576000661F771F881F91505040A9F79E3F510533
:1057700080F00C940D2B0C94582B5F3FE4F3983E73
:10578000D4F3869577956795B795F795E7959F5FDD
:10579000C1F7FE2B880F911D9695879597F908956F
:1057A000FA01EE0FFF1F309621053105A1F16115B9
:1057B000710561F48038BFE39B0749F16894903824
:1057C000810561F08038BFEF9B0741F099234AF5CE
:1057D000FF3FE1053105210519F1E8940894E795AB
:1057E000D901AA2329F4AB2FBE2FF85FD0F310C044
:1057F000FF5F70F4A695E0F7F73950F019F0FF3A23
:1058000038F49F779F930DD00F9007FC9058089520
:1058100046F00C94132B60E070E080E89FE308955D
:105820004FE79F775F934F933F932F930E942B2DCA
:105830002F913F914F915F910E94632B0C94732C99
:1058400019F416F40C94132B0C94A52C0E943D2BE8
:10585000B8F39923C9F3B6F39F57550B87FF0E94FE
:10586000B32C0024A0E640EA900180585695979505
:1058700028F4805C660F771F881F20F026173707F3
:10588000480730F4621B730B840B202931294A2B03
:10589000A69517940794202531254A2758F7660FB7
:1058A000771F881F20F026173707480730F4620B50
:1058B000730B840B200D311D411DA09581F7B9019B
:1058C000842F9158880F9695879508950E94E92A0C
:1058D000880B990B089529F416F00C940D2B0C9459
:1058E000572B0C94132B0E943D2BA8F39638A0F74E
:1058F00007F80F92E8942BE33AEA48EB5FE70E943F
:10590000792B0F920F920F924DB75EB70F920E94B4
:10591000732DECEAF0E00E94BA2C4F915F91EF9169
:10592000FF91E595EE1FFF1F49F0FE57E068442701
:10593000EE0F441FFA95E1F74195550B0E94ED2CAF
:105940000F9007FE0C94E12C08959F3F31F0915089
:1059500020F4879577956795B795880F911D969553
:10596000879597F9089591505040660F771F881FCB
:10597000D2F70895DF93CF931F930F93FF92EF9287
:10598000DF927B018C01689406C0DA2EEF010E9441
:10599000762BFE01E894A59125913591459155917D
:1059A000A6F3EF010E94AA29FE019701A801DA944B
:1059B00069F7DF90EF90FF900F911F91CF91DF91EA
:1059C00008959B01AC0160E070E080E89FE30C94D7
:1059D000042A0C940D2B0C94A52C0E943D2BD8F37B
:1059E0009923C9F3940F511DA3F39150504094F0A3
:1059F00059F0882332F0660F771F881F915050406E
:105A0000C1F79E3F51052CF7880F911D96958795FC
:105A100097F908955F3FACF0983E9CF0BB278695C0
:105A200077956795B79508F4B1609395C1F7BB0F6B
:105A300058F711F460FFE8CF6F5F7F4F8F4F9F4F94
:105A4000E3CF0C94582B16F00C94A52C0C94132B2C
:105A500068940C940D2B0E943D2BA8F39923C1F35D
:105A6000AEF3DF93CF931F930F93FF92C92FDD27E0
:105A700088232AF02197660F771F881FDAF720E026
:105A800030E040E85FEB9FE3883920F0803E38F05B
:105A900021968F770E949329E4EDF0E004C00E94E4
:105AA0009329E1E0F1E00E94BA2C8B01BE01EC01E8
:105AB000FB2E6F5771097595771F880B990B0E9404
:105AC000AE2A28E132E741E35FE30E94762BAF2D57
:105AD0009801AE01FF900F911F91CF91DF910E942D
