:100000000C94D5010C94FD010C94FD010C94FD01A0
:100010000C94FD010C94FD010C94FD010C94FD0168
:100020000C94FD010C94FD010C9403190C947219AD
:100030000C94FD010C94FD010C94FD010C94FD0148
:100040000C94FD010C94EE1B0C94FD010C94FD012D
:100050000C94FD010C94FD010C94FD010C94A41B67
:100060000C94FD010C94FD010C94FD010C94FD0118
:100070000C94FD010C94FD010C94FD010C94FD0108
:100080000C94FD010C94FD010C94FD010C94FD01F8
:100090000C94AA1C0C94FD010C94FD010C94FD0120
:1000A0000C94FD010C94FD010C94FD010763423694
:1000B000B79BD8A71A39685618AEBAAB558C1D3CF9
:1000C000B7CC5763BD6DEDFD753EF6177231BF00BD
:1000D0000000803F08000000BE922449123EABAAF7
:1000E000AA2ABECDCCCC4C3E00000080BEABAAAA52
:1000F000AA3E00000000BF000000803F000000009A
:1001000000084178D3BB4387D1133D190E3CC3BDD2
:100110004282AD2B3E68EC8276BED98FE1A93E4C7F
:1001200080EFFFBE01C4FF7F3F0000000000475288
:100130004F554E445F5A45524F004241434B555034
:100140005F4445504C4F5900435249544943414C38
:100150005F4552524F52004C414E44454400444585
:100160005343454E54005245434F564552595F4400
:1001700045504C4F590041504F4745455F434F4E06
:100180004649524D454400424F4F53545F454E44FB
:10019000004C41554E43485F444554454354454403
:1001A00000524541445900524144494F5F4641493C
:1001B0004C00524144494F5F4F4B0053445F46410E
:1001C000494C0053445F4F4B0053454E534F5253DD
:1001D0005F4F4B00504F5745525F4F4E00455252B4
:1001E0004F52004C414E444544005245434F564502
:1001F00052590044455343454E540041504F4745E2
:100200004500434F41535400424F4F535400524511
:1002100041445900494E4954004552524F520044FE
:1002200045504C4F5945440041524D4544005341BF
:100230004645003F0074696D655F6D732C666C699F
:100240006768745F74696D655F6D732C7061636B53
:1002500065745F69642C73746174652C7072657366
:10026000737572655F70612C74656D705F632C616E
:100270006C7469747564655F6D2C6D61785F616C19
:100280007469747564655F6D2C61782C61792C617B
:100290007A2C67782C67792C677A2C7265636F7675
:1002A0006572795F73746174652C6572726F725FC9
:1002B000666C616773003F003F00000000020009A8
:1002C0000F0000030401000C00000000000000000B
:1002D000000000000000000000080B000202020005
:1002E00000090400000102020000052400100105BD
:1002F00024010101042402060524060001070581EA
:100300000310004009040100020A00000007050272
:1003100002400000070583024000000403090412A4
:10032000010002EF02014041233680000101020377
:100330000141726475696E6F204C4C4300417264D8
:1003400075696E6F204C656F6E6172646F0000009E
:100350000000250028002B002E00310000000000C6
:10036000240027002A002D003000040404040403A4
:100370000405020202020403020202020606060645
:10038000060604040202020404040802011040806C
:10039000401020408040800802040180402010026C
:1003A0000110801020404020C91D11241FBECFEF36
:1003B000DAE0DEBFCDBF11E0A0E0B1E0E4E4F4E6B6
:1003C00002C005900D92AC3AB107D9F726E0ACEA2D
:1003D000B1E001C01D92A73FB207E1F711E0C5ED02
:1003E000D1E004C02197FE010E940432C43DD10730
:1003F000C9F70E945F1E0C9420320C94000090E01C
:10040000FC01E757FC4F249186599C4FFC018491D5
:10041000882399F090E0880F991FFC01E45AFC4F63
:10042000A591B491FC01E25BFC4F859194918FB74B
:10043000F894EC91E22BEC938FBF0895FC0180912E
:100440003E03882311F13FB7F89482E08093E900DE
:100450002091F200822F90E01816190614F481E022
:1004600090E0882339F0289844E640933D0340917A
:10047000F1004083222339F02091F200211103C0C2
:100480002BE62093E8003FBF08958FEF9FEF08957C
:100490002FB7F89483E08093E9009091E800892FCA
:1004A000807295FF04C09091F20080E4891B2FBFF9
:1004B00008958091350381110DC082E0809331034E
:1004C00084E080933203109234031092330381E06E
:1004D0008093350381E393E00895CF93DF931F92D8
:1004E000CDB7DEB76983DC01ED91FC910280F38129
:1004F000E02D41E050E0BE016F5F7F4F09950F9006
:10050000DF91CF91089583E08093E9008091F2001C
:10051000882319F08AE38093E80008950E94480236
:1005200090E00895CF93DF931F92CDB7DEB7FC0123
:100530008485958597FD08C02FEF3FEF3587248789
:100540000F90DF91CF910895CE0101960E941E0277
:10055000019719F4898190E0F3CF8FEF9FEFF0CFEF
:100560000F931F93CF93DF931F92CDB7DEB78C010C
:10057000FC018485958597FF0BC0CE0101960E94F2
:100580001E02019771F4898190E0F80195878487B4
:10059000F801848595850F90DF91CF911F910F9180
:1005A00008958FEF9FEFF1CFFC018485958597FD2E
:1005B0000BC09FB7F89482E08093E9008091F2002D
:1005C0009FBF90E0019608959FB7F89482E08093D2
:1005D000E9008091F2009FBF90E0089540912B03C5
:1005E00050912C032091290330912A03421753077D
:1005F000B4F49091E8009570E1F39091E80092FDD9
:1006000019C08093F10080912B0390912C030196E7
:100610008F739927892B19F48EEF8093E8008091CE
:100620002B0390912C03019690932C0380932B0322
:1006300081E0089580E00895EF92FF920F931F9359
:10064000CF93DF93F82E192FE62E042F81E0860F2B
:10065000880F0E94EE0283E00E94EE02CF2DD12F80
:10066000EC0EFD2EF11CCE15DF05B9F007FF13C00F
:10067000FE0184910E94EE02182F80E00E94EE029B
:10068000812321968111EFCFDF91CF911F910F919F
:10069000FF90EF9008958881EDCF81E0F5CFDF9254
:1006A000EF92FF920F931F93CF93DF93D82E8A017F
:1006B000EB017B01E40EF51ECE15DF0559F0D7FEE8
:1006C00012C0FE0184910E94EE0221968111F4CFA6
:1006D0000FEF1FEFC801DF91CF911F910F91FF9096
:1006E000EF90DF9008958881EECF0F931F93CF9303
:1006F000DF931F92CDB7DEB782E0898342E450E0FA
:1007000069ED72E080E80E944F030E945902DC010B
:1007100012960D911C910115110589F0D801ED91EA
:10072000FC910280F381E02DBE016F5F7F4FC80115
:10073000099597FD04C0F80100851185ECCF8981EA
:100740000F90DF91CF911F910F910895615030F07C
:100750002091F100FC0120830196F8CF289884E6CF
:1007600080933D030895282F30E0F901E654FD4FB2
:100770009491F901E757FC4F849126593C4FF901B8
:100780002491222309F430C09923E9F091509F303D
:10079000D0F4E92FF0E0E153FC4F0C940432FD0358
:1007A0000104DE03F503F903E303E303E3030404B5
:1007B0000A040E0412041804E3031C049091800040
:1007C0009F7790938000E22FF0E0EE0FFF1FE25B37
:1007D000FC4FA591B4919FB7F894EC91611132C090
:1007E00080958E238C939FBF0895909180009F7D6C
:1007F000E8CF90918000977FE4CF94B59F7794BD28
:10080000E2CF94B59F7DFBCF909190009F7790931E
:100810009000D9CF909190009F7DF9CF909190005A
:10082000977FF5CF9091C0009F779093C000CBCF7A
:100830009091C0009F7DF9CF9091C200977F9093D7
:10084000C200C1CF8E2BCECF3FB7F8948091250345
:1008500090912603A0912703B091280326B5A89B69
:1008600005C02F3F19F00196A11DB11D3FBFBA2F42
:10087000A92F982F8827BC01CD01620F711D811D02
:10088000911D42E0660F771F881F991F4A95D1F787
:1008900008958F929F92AF92BF92CF92DF92EF9284
:1008A000FF924B015C010E9424046B017C010E94B9
:1008B00024046C197D098E099F09683E73408105E7
:1008C0009105A8F321E0821A9108A108B10888EEE9
:1008D000C80E83E0D81EE11CF11C81149104A10410
:1008E000B10429F7FF90EF90DF90CF90BF90AF90C9
:1008F0009F908F9008958F929F92AF92BF92CF92C8
:10090000DF92EF92FF920F931F93CF93DF936C01CF
:100910007B018A0180911301882309F45CC08091D6
:100920003E03882309F457C08091300380FF05C03F
:100930008091E00082608093E000E801B12C8AEFB2
:10094000A82E93E0892E2AE3922E209711F4BB2043
:10095000D9F10E94480281110AC0AA94AA20D9F1B3
:1009600061E070E080E090E00E944904EECF8C17D7
:100970001D0611F00CF08C2F9FB7F8948092E900BF
:100980002091E80025FD02C09FBFDFCF282F30E077
:10099000C21BD30BF701815020F041914093F1002D
:1009A000FACFE20EF31EBB2021F09092E800B12CAA
:1009B000EBCF8091E80085FDE7CF9092E800BB2463
:1009C000B394209709F3F3CF5D9884E680932F03C7
:1009D000101611063CF081E090E0F60193838283CB
:1009E00010E000E0C801DF91CF911F910F91FF90BF
:1009F000EF90DF90CF90BF90AF909F908F90089531
:100A00002FB7F89460912103709122038091230302
:100A1000909124032FBF0895089508950895CF93CA
:100A2000DF93FC01C081D1810E940005C61BD70B5A
:100A30008D2F881F8827881FDF91CF9108958EBD45
:100A400000000DB407FEFDCF8EB50895FC01928124
:100A500083819CBD8DBD81E0878360E085810E949C
:100A6000B3038FEF0C941F058FEF0C941F050F93AA
:100A70001F93CF93DF9300D0CDB7DEB78C010E94D8
:100A80000005600F711F7A8369830E9434058F3FD0
:100A900071F0CE0101960E940F058823B1F380E02A
:100AA0000F900F90DF91CF911F910F91089581E0EA
:100AB000F7CFCF93DF93FC012781222349F0EC018C
:100AC00061E085810E94B3038FEF0E941F051F82A2
:100AD000DF91CF910895DF92EF92FF920F931F93D2
:100AE000CF93DF93EC01162F022FF32EE42ED52E99
:100AF0000E9443068823C1F18F81811103C0CE017A
:100B00000E942605111128C0812F80640E941F05B4
:100B10008D2D0E941F058E2D0E941F058F2D0E9476
:100B20001F05802F0E941F0587E8111101C085E96C
:100B30000E941F050E9434051AE00E94340589872F
:100B400087FF02C01150C9F7DF91CF911F910F911C
:100B5000FF90EF90DF9008951C30B1F28CE291E0AD
:100B60000E9437058111D0CF8FEFEECF0F931F93E7
:100B7000CF93DF93EC0189018A85833039F089E0D6
:100B8000440F551F661F771F8A95D1F79A01AB0155
:100B900068E1CE010E946B05882339F08DE08E83D9
:100BA000CE010E94590580E025C08EEF0E941F05EE
:100BB000F80181918EBD1E5FE017F10741F0819130
:100BC000000000000DB407FEFDCF8EBDF5CF0DB4C3
:100BD00007FEFDCF8FEF0E941F058FEF0E941F05BC
:100BE0000E94340589878F71853049F4CE010E94B7
:100BF000590581E0DF91CF911F910F91089581E216
:100C00008E83CE010E945905CBCFEF92FF921F93A6
:100C1000CF93DF93FC01208111E020FF12C0EC0193
:100C20007C01FBE0EF0EF11C4B815C816D817E81CC
:100C3000970189819A810E94B605182F811108C0F9
:100C400010E0812FDF91CF911F91FF90EF900895D9
:100C5000888181FD04C088818E7F8883F2CF4B819B
:100C60005C816D817E818F819885A985BA85480FC9
:100C7000591F6A1F7B1F970189819A810E94B605BF
:100C80008111E9CFDDCF1F93CF93DF93EC018885EE
:100C90008230C9F488E592E00E943705182F882336
:100CA00061F08DEF0E941F05CE010E945905188644
:100CB000812FDF91CF911F9108958FE18E83CE0117
:100CC0000E945905F5CF8130A1F4188620E030E06C
:100CD000A9016CE0CE010E946B05882339F089E000
:100CE0008E83CE010E94590510E0E2CFCE010E9412
:100CF000590511E0DDCFEF92FF920F931F93CF9331
:100D0000DF9300D0CDB7DEB78C017901FC0182857D
:100D1000833039F089E0440F551F661F771F8A958D
:100D2000D1F79A01AB0161E1C8010E946B058823EC
:100D300041F08BE0F8018683C8010E94590580E0EC
:100D40003FC00E940005645D7E4F7A8369830E94E4
:100D50003405F80181878F3F69F4CE0101960E9426
:100D60000F058823A1F38EE1F8018683C8010E9454
:100D70005905E2CF8E3F11F089E1F6CF8FEF8EBD9E
:100D8000F701D701A150BE4F9FEFEA17FB0749F0CB
:100D9000000000000DB407FEFDCF8EB59EBD81930F
:100DA000F4CF0DB407FEFDCF8EB58C93F8011186FC
:100DB0000E9434050E943405C8010E94590581E053
:100DC0000F900F90DF91CF911F910F91FF90EF90B7
:100DD0000895CF92DF92EF92FF921F93CF93DF930C
:100DE000DC011196ED91FC91EF2B51F490E080E045
:100DF000DF91CF911F91FF90EF90DF90CF900895FA
:100E0000122F6A017B01EC018B819C81AD81BE8137
:100E10008C159D05AE05BF0561F0CE010E9405064B
:100E2000882321F312FF0CC01882CB82DC82ED8272
:100E3000FE8213702881122B1883CE010B96D8CF17
:100E40009E01255F3F4FB701A60189819A810E94CB
:100E50007B068111E9CFCACF8F929F92AF92BF924A
:100E6000CF92DF92EF92FF920F931F93CF939093C5
:100E700078048093770410927C0401E010E020E075
:100E800030E000937F04109380042093810430931A
:100E900082049093990480939804109297048FEFA2
:100EA0009FEFDC0180939A0490939B04A0939C0491
:100EB000B0939D04662309F44BC020E040E050E06D
:100EC000BA0187E994E00E94E906009769F480E09E
:100ED000CF911F910F91FF90EF90DF90CF90BF9037
:100EE000AF909F908F900895FC01E254FE4F2481B3
:100EF000222369F320812F7751F78A539E4FFC01FB
:100F0000C080D180E280F38020E0B701A60187E9AC
:100F100094E00E94E906FC01892BC9F280898230A5
:100F2000B1F6838594858115924089F695859093D5
:100F300079048FEF890F80937A04C0E081E09817DD
:100F400069F0CF5FC93041F488E080937B04BFCF64
:100F5000C12CD12C7601D8CF880FF1CFC0937B0460
:100F600086899789B0E0A0E08093830490938404FD
:100F7000A0938504B0938604892B8A2B8B2B61F474
:100F800084A195A1A6A1B7A1809383049093840422
:100F9000A0938504B093860486859785A701960162
:100FA000280F391F411D511DDA01C90180938B049F
:100FB00090938C04A0938D04B0938E042189328980
:100FC00030937E0420937D044091830450918404E7
:100FD00060918504709186044A015B01880C991C1C
:100FE000AA1CBB1C880D991DAA1DBB1D80939304D0
:100FF00090939404A0939504B093960405E0220F77
:10100000331F0A95E1F721503E4F232F33272695B2
:10101000820F931FA11DB11D8093870490938804B4
:10102000A0938904B0938A0483889488B12CA12C5E
:1010300081149104A104B10421F480A091A0A2A084
:10104000B3A0C81AD90AEA0AFB0AC80CD91CEA1CC0
:10105000FB1C04C0F694E794D794C794CA95D2F7C2
:10106000D701C6010196A11DB11D80938F049093F5
:101070009004A0939104B093920435EFC3163FE01F
:10108000D306E104F10420F48CE080937C041FCFAC
:1010900085EFC8168FEFD806E104F10468F480E10B
:1010A00080937C0440939E0450939F046093A0041B
:1010B0007093A10481E00CCF84A595A5A6A5B7A542
:1010C0008093930490939404A0939504B093960412
:1010D00080E2E6CF8F929F92AF92BF92CF92DF9243
:1010E000EF92FF920F931F934230510561057105F6
:1010F00060F480E01F910F91FF90EF90DF90CF9010
:10110000BF90AF909F908F900895FC01C08CD18CC0
:10111000E28CF38CC416D506E606F70650F34801B8
:1011200059016A018581803229F584899589A689CA
:10113000B78917E076956795579547951A95D1F732
:10114000480F591F6A1F7B1F23E0CF0180960E9422
:10115000E906009771F2CC0CDD1CCC0CDD1CF1E033
:10116000DF228C0D9D1DFC0180829182A282B382C0
:1011700081E0C0CF803109F0BCCF448955896689B0
:1011800077894D0D511D611D711D23E0CF018096A2
:101190000E94E906009709F4ACCFCC0CDD1CF1E00D
:1011A000DF22C80ED91EF60111830083E1CFCF9252
:1011B000DF92EF92FF920F931F93CF93DF93423012
:1011C00051056105710550F48FEFDF91CF911F91AB
:1011D0000F91FF90EF90DF90CF900895FC01C08CAD
:1011E000D18CE28CF38CC416D506E606F70660F3C4
:1011F00089016A01EC018581803299F5848995899C
:10120000A689B789E7E07695679557954795EA955A
:10121000D1F7480F591F6A1F7B1F22E0CE0180962D
:101220000E94E906009781F2CC0CDD1CCC0CDD1C81
:10123000F1E0DF228C0D9D1DFC0180819181A28156
:10124000B381488D598D6A8D7B8D481759076A0780
:101250007B0730F1F80180839183A283B38381E01F
:10126000B4CF803109F0B0CF448955896689778938
:101270004D0D511D611D711D22E0CF0180960E9410
:10128000E906009709F4A0CFCC0CDD1CF1E0DF22C9
:10129000C80ED91EF60180819181B0E0A0E0D1CFC7
:1012A00080E093CF0F931F93CF93DF93FC012081B6
:1012B000211106C081E0DF91CF911F910F91089518
:1012C000EC01828187FF3AC0448955896689778914
:1012D0008681978121E080960E94E906009729F493
:1012E00089818160898380E0E6CFEC81FD81EF70A8
:1012F000FF2725E0EE0FFF1F2A95E1F7E80FF91F02
:10130000309771F38081853E59F388818773838795
:10131000888183FF08C0888D998DAA8DBB8D848FAD
:10132000958FA68FB78F8C8D9D8DAE8DBF8D938F32
:10133000828FB58BA48B8A818F778A830E811F81E0
:10134000C80180960E940506882351F2F801808129
:1013500091810E944306882319F2ACCF4F925F928D
:101360006F927F928F929F92AF92BF92CF92DF92B5
:10137000EF92FF920F931F93CF93DF93EC014A01FB
:101380005B014C845D846E847F842881222309F470
:1013900087C0488959896A897B89481559056A0532
:1013A0007B0581F081149104A104B10469F41C86C9
:1013B0001D861E861F86888A998AAA8ABB8A8A8188
:1013C0008F7D8A8381E071C023FF57C0888D998DFE
:1013D000AA8DBB8D88159905AA05BB0508F460C0C8
:1013E000EE81FF813481375F7501640181E0C81AA5
:1013F000D108E108F108032E04C0F694E794D794CD
:10140000C7940A94D2F7DB01CA010197A109B10977
:1014100004C0B695A795979587953A95D2F7C816C3
:10142000D906EA06FB0628F0452B462B472B09F088
:1014300052C027FF4BC0848D958DA68DB78D8C87AC
:101440009D87AE87BF878E01045F1F4FC114D104F3
:10145000E104F10409F4AFCF4C855D856E857F858D
:1014600098018E819F810E94D70891E0C91AD10806
:10147000E108F108181654F313C026FFB1CFEE812E
:10148000FF818681978125E0880F991F2A95E1F7D2
:10149000B0E0A0E088159905AA05BB0508F08BCF40
:1014A0004C865D866E867F8680E0DF91CF911F91AE
:1014B0000F91FF90EF90DF90CF90BF90AF909F90F3
:1014C0008F907F906F905F904F9008958C8D9D8D41
:1014D000AE8DBF8DB4CFC81AD90AEA0AFB0AB3CFC2
:1014E0003F924F925F926F927F928F929F92AF92B4
:1014F000BF92CF92DF92EF92FF920F931F93CF9301
:10150000DF9300D000D0CDB7DEB74C01FC01828163
:1015100080688283A680B7804484558466847784FB
:10152000F501C084D184E284F384C414D504E604B4
:10153000F70410F011E003C07301620110E0FFEF47
:10154000CF1ADF0AEF0AFF0AF501808D918DA28D77
:10155000B38D8C159D05AE05BF0538F4111131C052
:10156000C084D184E284F384E5CF4C145D046E041E
:101570007F0439F19E012F5F3F4FB701A601C501DE
:101580000E94D70887FD1DC08823C9F289819A81EE
:10159000AB81BC81892B8A2B8B2B89F6112329F0F7
:1015A000F501C086D186E286F3860FEF1FEF2FEF9D
:1015B0003FE0B701A601C5010E946A08382E8111DB
:1015C00018C0312C832D0F900F900F900F90DF914A
:1015D000CF911F910F91FF90EF90DF90CF90BF9030
:1015E000AF909F908F907F906F905F904F903F90C3
:1015F0000895411451046104710431F4F401C48666
:10160000D586E686F786DECF97018601B301A20173
:10161000C5010E946A088111F1CFD3CF2091EC015E
:10162000260F3327331F21323105ECF42091650357
:10163000FC0190E080E0243069F082E00895A09100
:10164000EC012191AC0144535E4FA40FB52FB11DA5
:101650002C930196861798F38091EC01680F6093A4
:10166000EC0180E0089581E008951092650381E027
:101670008093640310923F0361E082E00E94B30311
:1016800061E083E00E94B303E9EBF0E080818E7FAC
:10169000808380818D7F808388E48093B80085E497
:1016A0008093BC000895CF93DF9391E0909316024E
:1016B0008823B9F0C091B800D091BA008091BC00E5
:1016C0008A7B8093BC0060E082E00E94B30360E00C
:1016D00083E00E94B3030E94350BD093BA00C093FD
:1016E000B800DF91CF9108958F929F92AF92BF92F1
:1016F000CF92DF92EF92FF920F931F93CF93DF93DE
:10170000D0918E03D13208F0D7C0182FC0918D032D
:101710000E9424046B017C018091650381116BC0E0
:1017200082E080936503109364038FEF80936303DB
:1017300010926203D0936103ADE6B3E0E1E4F3E01D
:1017400080E0D81391C01092400380914003CC0FE9
:10175000C82BC093400380913F03813009F088C0BB
:1017600010923F030E9424046B017C01809140038E
:101770008093BB008091670390916803A0916903F7
:10178000B0916A03892B8A2B8B2BA1F00E94240431
:1017900000916703109168032091690330916A03F7
:1017A0006C197D098E099F09061717072807390745
:1017B00008F442C08091BC0083FDD8CF85EC8093B3
:1017C000BC000E9424046B017C018091650382307F
:1017D00009F450C0809163038F3F09F46FC080917A
:1017E0006303803209F46CC080916303803309F491
:1017F00069C084E026C08091670390916803A0913E
:101800006903B0916A03892B8A2B8B2B09F484CF4F
:101810000E9424048090670390906803A09069035D
:10182000B0906A036C197D098E099F098616970688
:10183000A806B90608F070CF809166030E94530B8A
:1018400085E010926C0310928E0310926B03DF916F
:10185000CF911F910F91FF90EF90DF90CF90BF90AD
:10186000AF909F908F9008959D9191938F5F69CFD6
:1018700085EEA5CF8091670390916803A0916903DD
:10188000B0916A03892B8A2B8B2B09F49ECF0E947F
:10189000240400916703109168032091690330913B
:1018A0006A036C197D098E099F0906171707280717
:1018B000390708F08ACFC0CF81E0C3CF80E0C1CF25
:1018C00082E0BFCF83E0BDCFE0911502809114028A
:1018D000E81730F4F0E0E455FE4F808190E0089581
:1018E0008FEF9FEF089590911502809114022FEFD2
:1018F0003FEF981748F4E92FF0E0E455FE4F2081C0
:1019000030E09F5F90931502C90108958091140201
:1019100090911502891B990B0895CF92DF92EF9257
:10192000FF920F931F93CF93DF937C01CB018A012A
:1019300020916B03222389F0EB016B01C40ED51EAD
:10194000CC15DD0569F06991D701ED91FC9101900D
:10195000F081E02DC7010995F3CF642F0E940E0B93
:10196000C801DF91CF911F910F91FF90EF90DF9011
:10197000CF900895CF93DF931F92CDB7DEB76983E1
:1019800020916B032223F9F020918E03203258F02E
:1019900021E030E0FC013383228390E080E00F906F
:1019A000DF91CF91089580916C03E82FF0E0E35927
:1019B000FC4F998190838F5F80936C0380938E039B
:1019C00081E090E0ECCF61E0CE0101960E940E0B29
:1019D000F7CF61507109FA012191AF01222339F04B
:1019E0008617970720F4FC012193CF01F4CF0895C7
:1019F000FC01848583FF17C084A195A1A6A1B7A18E
:101A0000448D558D668D778D841B950BA60BB70B7A
:101A1000811520E89207A105B10520F08FEF9FE71F
:101A2000A0E0B0E0089580E090E0DC01F1CF0C96FA
:101A30000C94520990E080E008958F929F92AF92AB
:101A4000BF92EF92FF920F931F93CF93DF93E82EF5
:101A50008091F406282F30E0F901EE0FFF1FE20F0E
:101A6000F31FE153F94F908196FD53C08C3008F07D
:101A700050C086E00E94FF018091F406282F30E0DC
:101A8000F901EE0FFF1FE20FF31FE153F94F9081B1
:101A9000907C966090831092F5061092F6062CE0EA
:101AA000622F0E94F831829FB001112430E020E0C3
:101AB000AB01420F531FFA01EE0FFF1FE40FF51F9A
:101AC000E153F94F908196FD16C02F5F3F4F2C30A8
:101AD000310571F781110FC01092800082E0809370
:101AE00081001092850010928400B19A80916F005D
:101AF000826080936F00E091F4068E2F90E0FC01ED
:101B0000EE0FFF1FE80FF91FE153F94F808180644A
:101B10008083F090F4068BE08F1508F44DC080911F
:101B2000F60608E512E0081B110987FD1395000F62
:101B3000111F000F111F8091F506C8E8D0E0C81BE7
:101B4000D10987FDD395CC0FDD1FCC0FDD1F4E01D2
:101B50000D2E000CAA08BB089801012E000C440BA6
:101B6000550B281939094A095B09AE2DB0E00E94CE
:101B7000942D24EB30E040E050E00E94752D820E61
:101B8000931EA41EB51E8C169D062CF0E80180162F
:101B900091060CF4E4012297CC0FDD1F2FB7F894C7
:101BA0008F2D90E0FC01EE0FFF1FE80FF91FE153AE
:101BB000F94FD283C1832FBFDF91CF911F910F9136
:101BC000FF90EF90BF90AF909F908F900895CF932C
:101BD000C42F91E090936B0380938D0310926C035C
:101BE00010928E038FE394E00E94BA0C6C2F8FE367
:101BF00094E00E94BA0C81E00E94740B91E0811184
:101C000090E0892FCF9108950F931F93CF93DF9387
:101C1000CDB7DEB72C970FB6F894DEBF0FBECDBFA1
:101C20008C01CB01BA012AE0AE014F5F5F4F0E94E9
:101C3000292DAE014F5F5F4F6FEE73E0C8010E9428
:101C4000E90C2C960FB6F894DEBF0FBECDBFDF9126
:101C5000CF911F910F9108958F929F92AF92BF9253
:101C6000DF92EF92FF920F931F93CF93DF93EC01DC
:101C70007B018A8180FFB9C0288188889988AA88D9
:101C8000BB8823FF21C0888D998DAA8DBB8D8819B3
:101C90009909AA09BB0982309105A105B10518F57A
:101CA000009709F530E020E0A901481B590BCA0153
:101CB000DF91CF911F910F91FF90EF90DF90BF9038
:101CC000AF909F908F90089526FF0DC0EE81FF8109
:101CD0008681978135E0880F991F3A95E1F788153D
:101CE000990509F488C0EE81FF8184011170B50166
:101CF000A40189E076956795579547958A95D1F720
:101D000026FF27C0848D958DA68DB78D480F591F4E
:101D10006A1F7B1F8E819F8120E080960E94E906CA
:101D2000009709F462C0800F911FFC018081F701C8
:101D3000808388899989AA89BB890196A11DB11DD3
:101D4000888B998BAA8BBB8B21E030E090E080E000
:101D5000ABCFD380D4220115110581F4D1100EC070
:101D600089288A288B2881F527FF29C0848D958DA5
:101D7000A68DB78D8C879D87AE87BF87EE81FF814B
:101D80004C855D856E857F854250510961097109D9
:101D9000848104C0440F551F661F771F8A95D2F7B0
:101DA00080899189A289B389840F951FA61FB71FC7
:101DB000AC01BD014D0D511D611D711DABCF8C8D51
:101DC0009D8DAE8DBF8DD6CF4C855D856E857F8513
:101DD0009E01245F3F4FCF010E94D70887FD05C0B9
:101DE0008111CCCF8881807D49F48981826089838B
:101DF0008FEF9FEF5DCF30E020E0A8CF21E030E013
:101E000081E090E051CFEF92FF920F931F93CF9319
:101E1000DF931F92CDB7DEB77C01962FF701408983
:101E20005189628973898A019B0185E036952795DE
:101E3000179507958A95D1F70F7011F0911129C068
:101E4000BE016F5F7F4FC7010E942C0E813051F0A1
:101E500090E080E00F90DF91CF911F910F91FF9064
:101E6000EF900895F70180899189A289B3894F96EF
:101E7000A11DB11D808B918BA28BB38BF701868145
:101E800097818B96F0E20F9F90011124820F931F90
:101E9000E1CF405E5F4F6F4F7F4F408B518B628B26
:101EA000738BECCF8F929F92AF92BF92CF92DF92C3
:101EB000EF92FF920F931F93CF93DF931F92CDB7B3
:101EC000DEB78C01FC01848C958CA68CB78CC08C01
:101ED000D18CE28CF38CBE016F5F7F4F0C960E9419
:101EE0002C0E0197C9F4898190E0F801848E958EBB
:101EF000A68EB78EC08ED18EE28EF38E0F90DF91BC
:101F0000CF911F910F91FF90EF90DF90CF90BF90F6
:101F1000AF909F908F9008958FEF9FEFE6CFCF9374
:101F2000DF931F92CDB7DEB7BE016F5F7F4F0C9678
:101F30000E942C0E019731F4898190E00F90DF917F
:101F4000CF9108958FEF9FEFF9CF2F923F924F924D
:101F50005F926F927F928F929F92AF92BF92CF9239
:101F6000DF92EF92FF920F931F93CF93DF93EC01D9
:101F70004B015A018A8181FF8CC083FD81C0A5017C
:101F800070E060E088899989AA89BB8980959095DD
:101F9000A095B09584179507A607B70708F479C0F0
:101FA00065011E018CE0280E311C088919892A89D7
:101FB0003B89C114D10409F4E5C08E819F81B90128
:101FC000A80129E076956795579547952A95D1F709
:101FD000DC011396FC90F4221170F1101BC04C85AB
:101FE0005D856E857F850115110509F0EFC04115EE
:101FF00051056105710509F452C091010E94D7088D
:1020000087FD47C0811106C0CE010E94700A882357
:1020100009F43FC0EE81FF814C855D856E857F852B
:102020004250510961097109848104C0440F551F50
:10203000661F771F8A95D2F780899189A289B38913
:10204000840F951FA61FB71FAC01BD014F0D511D79
:10205000611D711D0115110521F4C114B2E0DB06EB
:10206000C8F580E092E0801B910B76018C159D05F0
:1020700008F47C010115110509F448C021E057C09E
:10208000488D598D6A8D7B8DCE010E94AE098111DC
:1020900076CF898181608983B12CA12C83C08C8DFE
:1020A0009D8DAE8DBF8D0097A105B10571F4CE0158
:1020B0000E94700A882369F38C859D85AE85BF8553
:1020C0008C8F9D8FAE8FBF8FA5CF8C879D87AE875E
:1020D000BF87A0CF83A194A1A5A1B6A14817590796
:1020E0006A077B0741F410A28FEF9FEFDC0183A307
:1020F00094A3A5A3B6A3940181A192A10E94B605C1
:10210000882339F2E12C82E0F82E2BC048885988C8
:102110006A887B88888D998DAA8DBB8D4816590653
:102120006A067B0618F48A8185FFA8CF25E0CF01D7
:1021300080960E94E906009709F4ABCFA701B4018D
:10214000800F911F0E9417320E0D1F1D01151240A6
:1021500041F48E819F8180960E940506882309F4B0
:1021600098CF88899989AA89BB898E0D9F1DA11D49
:10217000B11D888B998BAA8BBB8B8E0C9F1CCE18A4
:10218000DF0813CF888D998DAA8DBB8D801791079D
:10219000A207B30738F4088F198F2A8F3B8F8A81E3
:1021A00080688A83C501DF91CF911F910F91FF90C5
:1021B000EF90DF90CF90BF90AF909F908F907F90E7
:1021C0006F905F904F903F902F900895FC01425088
:1021D000510961097109848104C0440F551F661FAC
:1021E000771F8A95D2F780899189A289B389480F90
:1021F000591F6A1F7B1F35CF0C960C94A50FCF93E8
:10220000DF934FE853E0FA0101900020E9F7AF01B6
:10221000405953406FE873E087E594E00E94A50FB2
:10222000EC0142E050E06BE971E087E594E00E9448
:10223000A50F8C0F9D1FDF91CF910895CF93C82FCD
:102240000E940005AB01BC0180919F02813079F5AD
:1022500083E280938F0380E993E00E94040EDC0107
:1022600011962CE2FC012083E3E3F2E0C03148F454
:10227000EC2FF0E0EE0FFF1FEC5EFE4F0190F081BF
:10228000E02D8491882339F0319693E0AE3EB90772
:1022900010F48D93F6CF1C920E94FF1080919F0244
:1022A000813029F487E594E0CF910C945209CF91C5
:1022B0000895CF93C82F88E70E941D0D82E0809378
:1022C0008F020E94000560938102709382028093C6
:1022D000830290938402109285028AE0C1118EE0FD
:1022E000CF910C941E1190919E029817E9F0809363
:1022F0009E02833089F028F4813049F0823051F019
:102300000895853069F050F0873061F0089586E0D7
:102310000C941E1187E0FCCF88E0FACF89E0F8CF5B
:102320008BE0F6CF8CE0F4CF0895209197023091A6
:102330009802A90148235923452B69F4282B392BEE
:10234000309398022093970287709927892B19F070
:102350008DE00C941E110895CF93DF931F92CDB79B
:10236000DEB7698341E050E0BE016F5F7F4F0C969E
:102370000E94A50F0F90DF91CF9108954F925F9229
:102380006F927F928F929F92AF92BF92FF920F9324
:102390001F93CF93DF93D82F042FF52E122F81E0B8
:1023A00080936B03D0938D0310926C0310928E0375
:1023B0008FE394E00E94BA0C80E00E94740BC82F57
:1023C0008111CCC00E9424044B015C018091650303
:1023D000811165C081E080936503809364039FEF62
:1023E0009093630310926203910F90936103809323
:1023F000400380914003DD0FD82BD09340038091A0
:102400003F03813009F084C010923F030E942404EE
:102410004B015C01809140038093BB008091670376
:1024200090916803A0916903B0916A03892B8A2B6C
:102430008B2BA1F00E942404409067035090680306
:102440006090690370906A03681979098A099B0989
:10245000461657066806790608F442C08091BC000B
:1024600083FDD8CF85EC8093BC000E9424044B01EF
:102470005C0180916503813009F44CC08091620356
:10248000811708F069C080916203A1E4B3E0ECEA2F
:10249000F1E0C81749F19D919193CF5FFACF8091F8
:1024A000670390916803A0916903B0916A03892B37
:1024B0008A2B8B2B09F48ACF0E9424044090670357
:1024C000509068036090690370906A0368197909F5
:1024D0008A099B09461657066806790608F076CFE2
:1024E000809166030E94530B10921502C093140250
:1024F0001C1334C0B02EC02FDF2D8FE394E00E9458
:10250000730C89938C2F8B198117B8F381E027C046
:1025100085EEA9CF8091670390916803A09169032C
:10252000B0916A03892B8A2B8B2B09F4A2CF0E94CE
:102530002404409067035090680360906903709092
:102540006A03681979098A099B09461657066806BD
:10255000790608F08ECFC4CF812F97CF80E0DF912E
:10256000CF911F910F91FF90BF90AF909F908F9050
:102570007F906F905F904F900895EF92FF920F932E
:102580001F93CF93DF93CDB7DEB72C970FB6F89498
:10259000DEBF0FBECDBF7C018B012CE0AE014F5FD3
:1025A0005F4F6DE288E60E94BE11882361F12981A8
:1025B0003A81322723273227F701318320832B8169
:1025C0003C81322723273227338322832D813E818A
:1025D000322723273227358324832F8138853227DA
:1025E00023273227F8013183208329853A85322732
:1025F00023273227338322832B853C8532272327C9
:102600003227358324832C960FB6F894DEBF0FBE95
:10261000CDBFDF91CF911F910F91FF90EF90089563
:102620002F923F924F925F926F927F928F929F92E2
:10263000AF92BF92CF92DF92EF92FF920F931F93D0
:10264000CF93DF93CDB7DEB728970FB6F894DEBFF0
:102650000FBECDBF98878F837B0126E0AE014F5F11
:102660005F4F67EF87E70E94BE11082F882309F4A8
:10267000E9C119812A803B808C8190E0B0E0A0E024
:102680002CE0880F991FAA1FBB1F2A95D1F74D81F7
:1026900050E070E060E034E0440F551F661F771F84
:1026A0003A95D1F7842B952BA62BB72B2E8130E0B2
:1026B00044E0359527954A95E1F7032E000C440B2D
:1026C000550B822B932BA42BB52B409117025091C5
:1026D000180270E060E02C013D01E4E0759467941D
:1026E00057944794EA95D1F7441A550A660A770A2F
:1026F000F3E0B595A79597958795FA95D1F7440F8F
:10270000551F661F771F5C016D01A41AB50AC60A22
:10271000D70AA6019501A0911902B0911A020E9450
:102720009F2D4B015C013BE0B594A794979487944F
:102730003A95D1F7A3019201C301B2010E94E83199
:102740009B01AC016CE055954795379527956A95A7
:10275000D1F7A0911B02B0911C020E949F2D2B016A
:102760003C017EE075946794579447947A95D1F72D
:10277000480C591C6A1C7B1C40922F02509230025C
:102780006092310270923202A5E0B0E0A3019201A2
:102790000E94942D60587F4F8F4F9F4F672F782F47
:1027A000892F992787FD9A950E94F42E20E030E02A
:1027B00048EC52E40E944A2EF701608371838283C1
:1027C000938373016201F594E794D794C794FAEF69
:1027D000DF1AE108F108C701B601A2E095958795D7
:1027E00077956795AA95D1F79B01AC010E94E831D6
:1027F0004B015C01A0912102B0912202AC019B012E
:102800008DE055954795379527958A95D1F70E9484
:102810009F2D2B013C0193E0759467945794479446
:102820009A95D1F7A0911F02B0912002A7019601BD
:102830000E949F2D9B01AC01559547953795279593
:10284000240D351D461D571D72E155954795379549
:1028500027957A95D1F730584F4F5F4FA0911D02C1
:10286000B0911E020E94942D2B013C01EFE0759463
:10287000679457944794EA95D1F741145104610441
:10288000710409F404C1A50194018BE055954795A5
:10289000379527958A95D1F7A0912702B091280204
:1028A0000E949F2D4B015C01A0912502B091260250
:1028B000A70196010E949F2DDC01CB01880F991F73
:1028C000AA1FBB1F880D991DAA1DBB1D6C017D0190
:1028D00032E0F594E794D794C7943A95D1F7212F35
:1028E00030E050E040E06CE0220F331F441F551FE2
:1028F0006A95D1F7822D90E0B0E0A0E074E0880FF7
:10290000991FAA1FBB1F7A95D1F7282B392B4A2B69
:102910005B2B832D90E0E4E095958795EA95E1F7B0
:10292000092E000CAA0BBB0B282B392B4A2B5B2B37
:102930008091230290912402092E000CAA0BBB0B5C
:10294000DC01992788278C0D9D1DAE1DBF1D1CE045
:10295000B595A795979587951A95D1F7280F391FA3
:102960004A1F5B1FABECB3EF0E94A22D805B9C4320
:1029700097FD82C0660F771F881F991FA3019201E0
:102980000E94A72D29013A01C301B20123E09695C7
:102990008795779567952A95D1F79B01AC010E94A1
:1029A000E8319B01AC016DE0569547953795279529
:1029B0006A95D1F7A0912D02B0912E020E949F2D11
:1029C0006B017C017CE0F594E794D794C7947A95E9
:1029D000D1F7A3019201E2E05695479537952795E7
:1029E000EA95D1F7A0912B02B0912C020E949F2D65
:1029F0009B01AC01FDE05595479537952795FA95D4
:102A0000D1F72C0D3D1D4E1D5F1DC0902902D090A9
:102A10002A020D2C000CEE08FF082C0D3D1D4E1D4A
:102A20005F1DA4E05595479537952795AA95D1F751
:102A3000420E531E641E751EEF81F885408251823E
:102A400062827382802F28960FB6F894DEBF0FBE85
:102A5000CDBFDF91CF911F910F91FF90EF90DF904D
:102A6000CF90BF90AF909F908F907F906F905F902E
:102A70004F903F902F900895A30192010E94A72D9F
:102A800029013A01440C551C661C771C7DCF412C52
:102A9000512C3201D1CFFC01808181110EC080E226
:102AA000DF011D928A95E9F777836683DB0115962E
:102AB0008C91803121F0803239F080E0089580E4FB
:102AC000808381E08283089580E8FACFCF92DF92FD
:102AD000EF92FF920F931F93CF93DF93FC0180E25D
:102AE000DF011D928A95E9F7DB011696CD91DC9105
:102AF0001797D783C683558344835C96CD90DD902A
:102B0000ED90FC905F97C086D186E286F386DE0169
:102B10009B964F70552795E0440F551F9A95E1F706
:102B2000A40FB51F1B968C911B9783FD12C0877352
:102B300080831B969C911B97987111F48860808309
:102B400003832370213009F448C038F0223009F49F
:102B500042C01082128280E035C081E0828382818F
:102B600081FF06C08081982F917199F780628083E0
:102B70004BA15CA16DA17EA1448B558B668B778B9D
:102B800054964D915C91559770E060E0BA015527DD
:102B900044275A960D911C915B9730E020E0402B22
:102BA000512B622B732B448F558F668F778F5C96DA
:102BB0008D919D910D90BC91A02D808F918FA28FB2
:102BC000B38F81E0DF91CF911F910F91FF90EF9034
:102BD000DF90CF90089583E0C1CF82E0BFCF4F92C6
:102BE0005F926F927F928F929F92AF92BF92CF929D
:102BF000DF92EF92FF920F931F93CF93DF935C01CD
:102C0000EB016A01922E40E050E0BA01CE010E9431
:102C1000AE09F12CE12C712C612C00E010E02601B2
:102C20002FEF421A520A61E0CE010E94030FBC014D
:102C30000097B1F48981882309F495C080E0DF9181
:102C4000CF911F910F91FF90EF90DF90CF90BF90A9
:102C5000AF909F908F907F906F905F904F9008956E
:102C6000FC019081953E09F475C0992309F477C061
:102C7000838583FD11C04BE050E0C2010E940A32FF
:102C8000892B09F06AC0292DA70196FCD7CFBE0178
:102C9000C5010E946615D3CF8F3009F05EC096FF44
:102CA00002C0092F0F71FFEFEF1AFF0ABCCF3701E7
:102CB00000E011E0F8CF848120E032E002C0220F72
:102CC000331F8A95E2F788899989AA89BB89820F7F
:102CD000931FA11DB11D888B998BAA8BBB8B3701CC
:102CE000A30170E060E085E0440F551F661F771F69
:102CF0008A95D1F7CE010E94AE09882309F49ECFB0
:102D000060E0CE010E94030F009709F497CF20E204
:102D1000FC0111922A95E9F7F60131962BE0DC01CE
:102D200001900D922A95E1F7F60120812871FC01AE
:102D3000248721E23CE5318B208B318F208F338B30
:102D4000228BEE81FF8180A1816080A300E0292D8C
:102D5000A3019DCF112309F4AACF00E0A4CF111144
:102D600002C0370111E094FE69CF892D8370815034
:102D7000823008F063CF1111B3CF888186FD5ECF1A
:102D800088899989AA89BB8981159E4FAF41B10570
:102D900008F054CFCE010E94700A882309F44ECF68
:102DA000EE81FF814C845D846E847F8432E0431A1F
:102DB000510861087108848104C0440C551C661CCC
:102DC000771C8A95D2F780899189A289B389480EA8
:102DD000591E6A1E7B1E812C00E012E0EE81FF81ED
:102DE0008281881608F067CF25E0B301A201480D63
:102DF000511D611D711DCF0180960E94E90600974B
:102E000009F41CCFFC019801119221503040E1F7E8
:102E10008394E4CF8F929F92AF92BF92CF92DF9232
:102E2000EF92FF920F931F93CF93DF93CDB7DEB74F
:102E3000AC970FB6F894DEBF0FBECDBF8C017A0100
:102E4000B22E19821A821B82FC0180818823A1F094
:102E500080E0AC960FB6F894DEBF0FBECDBFDF9119
:102E6000CF911F910F91FF90EF90DF90CF90BF9087
:102E7000AF909F908F900895FB018081807D41F3FA
:102E8000FA0180818F32B1F47F0181918F32E1F3B9
:102E9000FB0166817781811104C0C8010E944B1536
:102EA000D8CFCE0101960E944B15BE016F5F7F4FB8
:102EB000882371F26E01FDE2CF0ED11C20E2A22E1A
:102EC000FE01B2969F01A192CE16DF06E1F7D7016F
:102ED00087E0E82EE0E098E0992E90E0F12CAD013B
:102EE0004F5F5F4F8C91882309F444C08F3209F4FF
:102EF00041C08E3251F4F7E0EF1212C08AE0E82EA2
:102F0000E8E08E2EF0E19F2E2CC0823209F4A0CF93
:102F10008C3709F49DCFF5EAF80FF33008F498CF19
:102F2000F6EDF80FF63018F48D3209F091CFF6EC8B
:102F3000F80FF63008F48CCFFFEDF80FFE3508F0EF
:102F400087CFEE1608F484CFFFE9F80FFA3160F46A
:102F500080529929882483948E0EE20FF32FF11D5D
:102F60008083DA01E82DBBCFFFEBF80FFA3190F741
:102F7000F928F0CF8AA1803209F46ACFF92209F04A
:102F800090E099A37D018C9111968F32D9F3811134
:102F900008C02B2DAE014F5D5F4FC8010E94EF1599
:102FA00058CF20E0AE014F5D5F4FC8010E94EF1582
:102FB000882309F44DCF80E2F801DE0111960190DB
:102FC0000D928A95E1F7C8010E945209F80110821A
:102FD0001282BE016F5F7F4F73CF85ED8093BC007F
:102FE0008091670390916803A0916903B0916A038F
:102FF0000796A11DB11D23E0B695A79597958795D6
:103000002A95D1F72091BC0024FD03C010926503DE
:10301000089540916703509168036091690370912E
:103020006A03452B462B472B69F30097A105B10591
:1030300041F02AE22A95F1F700C00197A109B109F0
:10304000E1CF809166030C94530BBF92CF92DF9235
:10305000EF92FF920F931F93CF93DF9300D000D096
:1030600000D0CDB7DEB78C016B01CA01B22E4AE0A9
:103070009E012F5F3F4F7901B9010E944B2DF7014F
:1030800001900020E9F73197EE19C601019720E37E
:10309000EB1548F40817190720F4D8012C930F5F9B
:1030A0001F4FEF5FF5CFA701B601C8010E94E90CE1
:1030B00026960FB6F894DEBF0FBECDBFDF91CF913D
:1030C0001F910F91FF90EF90DF90CF90BF900895E8
:1030D000CF92DF92EF92FF920F931F93CF93DF93E4
:1030E000EC016A017B01022F1AE0213009F014E69D
:1030F00020E030E0A901C701B6010E94452E87FFFC
:103100001AC020E836E948E15CECC701B6010E942C
:10311000A42F18160CF450C04EE951E06FEE73E086
:10312000CE01DF91CF911F910F91FF90EF90DF9033
:10313000CF900C94E90C20E836E948E15CE4C70143
:10314000B6010E94452E87FFE7CF612F70E090E027
:1031500080E00E94F42EA70196010E94A92F20E092
:1031600030E040E05FE30E94D92D0E94C32E212F62
:1031700030E050E040E00E94A72D6B01BA01A901A8
:10318000CE010E94040EE3E08E3E9E0720F42EE264
:10319000FC0120830196023009F001E0202FA601F6
:1031A0006FEE73E0DF91CF911F910F91FF90EF9041
:1031B000DF90CF900C942518F7FAF094F7F8F0947C
:1031C000612F70E090E080E00E94F42E9B01AC0142
:1031D000C701B6010E94A92F20E030E040E05FE384
:1031E0000E94D92D0E94C32E61157105810591059C
:1031F00009F4BDCF23E0CE3ED20708F0B8CF2DE2D0
:1032000028832196B4CF1F920F920FB60F921124EC
:103210008F939F938091E1009091E100937F909331
:10322000E10083FF0FC01092E90091E09093EB0062
:103230001092EC0092E39093ED0010923E0398E020
:103240009093F00082FF22C093E09093E900909168
:10325000F200992319F09AE39093E80090912F03DC
:10326000992341F090912F03915090932F03911146
:1032700001C05D9A90913D03992341F090913D03E7
:10328000915090933D03911101C0289A84FF18C07A
:103290008091E2008E7E81608093E2008091E10067
:1032A0008F7E8093E100809130038E7E80618093D9
:1032B00030039F918F910F900FBE0F901F90189524
:1032C00080FFF7CF8091E2008E7E80618093E200E4
:1032D0008091E1008E7E8093E100809130038E7EAC
:1032E0008160E5CF1F920F920FB60F921124CF92FB
:1032F000DF92EF92FF920F931F932F933F934F9381
:103300005F936F937F938F939F93AF93BF93EF934D
:10331000FF93CF93DF93CDB7DEB76C97DEBFCDBF02
:103320001092E9008091E80083FF25C068E0CE019B
:1033300045960E94A60382EF8093E8008D8987FF5F
:1033400039C09091E80090FFFCCF982F907609F05B
:1033500034C19E894F89588D2F89F88C911131C0C5
:10336000803861F580912E038093F1001092F10076
:103370008EEF8093E8006C960FB6F894DEBF0FBE18
:10338000CDBFDF91CF91FF91EF91BF91AF919F9111
:103390008F917F916F915F914F913F912F911F91ED
:1033A0000F91FF90EF90DF90CF900F900FBE0F9096
:1033B0001F9018959EEF9093E800C7CF1092F100F0
:1033C000D5CF913059F48111D3CF4130510581F6D9
:1033D00080912E038D7F80932E03CACF933049F4C2
:1033E0008111C6CF4130510519F680912E038260BC
:1033F000F2CF953041F48091E80080FFFCCF206847
:103400002093E300B5CF963009F0A9C00B8D1C8D39
:1034100022E01092E90010922C0310922B03F2127A
:103420002EC010922A03109229030E9475031F8256
:1034300099E09983FA8291E09E8390EA98879AEFC7
:10344000998720912B0330912C03275F3F4F3C83BA
:103450002B838D831092E90010922C0310922B0382
:1034600010932A030093290349E050E0BE016F5FE7
:103470007F4F80E00E944F030E94750379CF109325
:103480002A03009329030E945902DC0112960D9130
:103490001C910115110509F451C1D801ED91FC9160
:1034A0000480F581E02DBE016B5E7F4FC801099558
:1034B000009709F03EC1F80100851185EACFF3E0DD
:1034C000FF120EC08F89882309F440C0823061F456
:1034D00040E860E18DE393E00E941C03811148CF36
:1034E00081E28093EB0047CF813029F440E86BE024
:1034F00081E393E0F1CF833099F70E945902DC0118
:103500001296ED90FC908E010F5F1F4F6801E11441
:10351000F10479F0D701ED91FC910680F781E02D5F
:10352000B801C7010995080F111DF701E084F18466
:10353000EECFD8011C92F60101900020E9F73197F7
:10354000BF016C197D0940E0C601C6CF6BE173E095
:10355000FB01449150E080E80E944F0309CF97306F
:1035600009F4BECF983021F481E08093F10000CFC0
:10357000993009F0FDCE837009F0B2CFEFE5F1E0AC
:1035800081E031E096E32191222371F08093E900FC
:103590003093EB00DF0111972C912093EC00909376
:1035A000ED008F5F873079F78EE78093EA00109205
:1035B000EA008F8980933E03DBCE8B8D9C8D109229
:1035C000E90010922C0310922B0390932A0380930E
:1035D0002903898D811192C08E899D89913A49F480
:1035E000813209F07DCF47E050E06CE071E080E08F
:1035F000B3CF913209F074CF833269F48F89988DFB
:10360000B0E0A0E08093080190930901A0930A0123
:10361000B0930B01ADCE803269F48091E80082FF57
:10362000FCCF67E08CE091E00E94A6038BEF8093D3
:10363000E8009ECE823209F09BCE8F8980931301E1
:10364000EEEFFFE7859194918B3F9C4D51F1E0E0C7
:10365000F8E080910C0190910D01A0910E01B091C4
:103660000F01803B9440A105B105F1F48091130155
:1036700080FD1AC0EE3F8AE0F80789F587E797E7F3
:10368000918380838091600080932D0388E19BE08B
:103690000FB6F894A895809360000FBE90936000D9
:1036A00067CEEEEFFAE0D5CF8081918187379747DB
:1036B00009F05ECEA89580916000886180936000DB
:1036C00080912D0380936000EE3F2AE0F20789F09D
:1036D0008091FE0A9091FF0A9183808349CE808178
:1036E00091818737980751F29093FF0A8093FE0AE1
:1036F000C5CF1092FF0A1092FE0A3ACE0E945902DC
:10370000DC0112960D911C910115110509F4E8CE0A
:10371000D801ED91FC910190F081E02DBE016B5E2E
:103720007F4FC8010995811123CEF80100851185CD
:10373000EBCF181619060CF41BCED2CEF1E0FF1217
:10374000BECE6FE173E004CF1F920F920FB60F92BF
:1037500011242F933F938F939F93AF93BF938091A7
:10376000210390912203A0912303B091240330916F
:10377000200323E0230F2D3758F50196A11DB11D1D
:10378000209320038093210390932203A09323038B
:10379000B09324038091250390912603A0912703E1
:1037A000B09128030196A11DB11D8093250390932C
:1037B0002603A0932703B0932803BF91AF919F9155
:1037C0008F913F912F910F900FBE0F901F901895E2
:1037D00026E8230F0296A11DB11DD2CF1F920F9292
:1037E0000FB60F9211242F933F934F935F936F93D4
:1037F0007F938F939F93AF93BF93CF93DF93EF9379
:10380000FF9380910F02C091F306D0E087FF24C0A0
:10381000109285001092840080910F028F5F809338
:103820000F0280910F02082E000C990B8C179D0738
:1038300024F480910F028C30C4F180918400909127
:103840008500049680349C4908F47AC080918400F5
:1038500090918500049676C080910F02082E000C8E
:10386000990B8C179D07C4F6E0910F028E2FEE0F77
:10387000990BFC01EE0FFF1FE80FF91FE153F94F01
:10388000808186FFC9CFE0910F028E2FEE0F990B3A
:10389000FC01EE0FFF1FE80FF91FE153F94F808184
:1038A00060E08F730E94B303B7CF20918400309102
:1038B0008500E0910F028E2FEE0F990BFC01EE0FA9
:1038C000FF1FE80FF91FE153F94F81819281820FA9
:1038D000931F9093890080938800E0910F028E2FB0
:1038E000EE0F990BFC01EE0FFF1FE80FF91FE153DC
:1038F000F94F808186FF11C0E0910F028E2FEE0FED
:10390000990BFC01EE0FFF1FE80FF91FE153F94F70
:10391000808161E08F730E94B303FF91EF91DF918B
:10392000CF91BF91AF919F918F917F916F915F9157
:103930004F913F912F910F900FBE0F901F901895B0
:1039400080E49CE990938900809388008FEF8093B6
:103950000F02E3CF1F920F920FB60F9211242F93F5
:103960003F934F935F936F937F938F939F93AF9307
:10397000BF93EF93FF938091B900887F803609F45D
:103980004AC0F0F5883209F4A7C018F5803109F46F
:103990009BC0B8F4882309F4F9C0883009F494C0B6
:1039A000FF91EF91BF91AF919F918F917F916F9117
:1039B0005F914F913F912F910F900FBE0F901F90ED
:1039C0001895883109F488C0803251F780936303D9
:1039D00014C0803409F49DC040F48033B9F38833B7
:1039E000F9F68093630385ECB0C0803509F485C097
:1039F000883509F496C0883499F60E94ED17D0CF27
:103A0000883909F48CC038F5883729F050F48836A5
:103A100011F0803729F683E08093650310920E023F
:103A200057C0883809F47BC0803919F0803809F014
:103A3000B7CF80910E02803208F071C0E0910E0283
:103A400081E08E0F80930E028091BB00F0E0E25186
:103A5000FE4F80833DC0803B39F0E0F4803A09F4AA
:103A600079C0883A09F09CCF84E080936503109276
:103A7000ED011092EC01E0911202F0911302099510
:103A80008091EC0181110FC081E08093EC011092D4
:103A9000CC0109C0803C09F4A6CF883C09F4A3CF2F
:103AA000883B09F07DCFE091ED0181E08E0F80939E
:103AB000ED01F0E0E453FE4F80818093BB009091D4
:103AC000ED018091EC0129C0809140038093BB00FF
:103AD00085EC8093BC0064CF909162038091610378
:103AE000981758F5E091620381E08E0F809362038E
:103AF000F0E0EF5BFC4F8081E9CFE091620381E071
:103B00008E0F809362038091BB00F0E0EF5BFC4F6F
:103B1000808390916203809161039817C8F285E8D1
:103B2000D8CFE091620381E08E0F80936203809191
:103B3000BB00F0E0EF5BFC4F808380916403811158
:103B40005CCF81E080933F0384EA8093BC001092B5
:103B5000650326CF85EC8093BC00109265038091AD
:103B60000E02803230F4E0910E02F0E0E251FE4F9E
:103B7000108260910E0270E0E0911002F09111024B
:103B80008EEE91E0099510920E020ACF1092630317
:103B900034CF1092F2031092F10388EE93E0A0E08C
:103BA000B0E08093F3039093F403A093F503B093F4
:103BB000F60329E631E03093F0032093EF032FEF73
:103BC0003FEF3093FC032093FB03109242041092CA
:103BD00041048093430490934404A0934504B0931C
:103BE00046042BE731E03093400420933F041092C9
:103BF0007C041092990410929804109297044FEF4D
:103C00005FEFBA0140939A0450939B0460939C0425
:103C100070939D041092A2061092A3061092A4061F
:103C20001092C3061092C2061092C5061092C406E6
:103C300020E52093C6061092C7061092C80610927F
:103C4000C9062AE22093CA061092CB061092CC062F
:103C50001092CD061092CE0610924E0410924D0492
:103C600080934F0490935004A0935104B093520456
:103C70001092570410925804109259048DE891E064
:103C800090934C0480934B048091F3068C3098F40D
:103C900091E0980F9093F3068093F40690E0FC0176
:103CA000EE0FFF1FE80FF91FE153F94F88EB9BE080
:103CB0009283818308958FEF8093F4060895CF93C4
:103CC000DF93CDB7DEB7E7970FB6F894DEBF0FBE30
:103CD000CDBF789484B5826084BD84B5816084BD95
:103CE00085B5826085BD85B5816085BD80916E009A
:103CF000816080936E0010928100809181008260CB
:103D00008093810080918100816080938100809107
:103D10008000816080938000809191008260809318
:103D2000910080919100816080939100809190003A
:103D30008160809390008091C10084608093C10075
:103D40008091C10082608093C1008091C100816038
:103D50008093C1008091C30081608093C3008091F3
:103D6000C00082608093C0008091C2008160809317
:103D7000C20080917A00846080937A0080917A00FA
:103D8000826080937A0080917A00816080937A00CB
:103D900080917A00806880937A0010923E0310929E
:103DA0002E03109230038091D70081608093D7005A
:103DB00080EA8093D80089B5806189BD89B5826029
:103DC00089BD09B400FEFDCF61E070E080E090E0C5
:103DD0000E9449048091D8008F7C80618093D80034
:103DE0008091E000807F8093E0008091E1008E7EF2
:103DF0008093E1008DE08093E200559A209A85E05F
:103E00000E94FF0160E085E00E94B30310929802D7
:103E10001092970210929A0210929B0210929C02AA
:103E200010929D021092990280E00E941E11109241
:103E300015021092140210926C0310928E030E94CD
:103E4000350B8DE095E090931302809312028EE083
:103E500095E090931102809310028CE08093B8005B
:103E60001092160288EB9BE0A0E0B0E0809367031D
:103E700090936803A0936903B0936A0381E08093F1
:103E80006603109236021092370210923802109296
:103E9000390210923A0210923B0210923C021092A8
:103EA0003D0210923E0210923F0210924002109288
:103EB000410210925D0210925E0210925F02109217
:103EC000600210924A0210924B0210924C02109221
:103ED0004D0210924F021092960210924E021982D9
:103EE00040E06FE788E60E94E70D21E0AE014F5FFA
:103EF0005F4F60E088E60E94BE11182F882309F406
:103F000061C089818A3E09F0D3C640E866E088E650
:103F10000E94E70D64E670E080E090E00E944904B2
:103F200040E06FE788E60E94E70D41E066E088E642
:103F30000E94E70D6EE170E080E090E00E9449048D
:103F400040E067E088E60E94E70D6EE170E080E007
:103F500090E00E94490440E26FE788E60E94E70D86
:103F600080E090E0A0E0B5E4809304019093050127
:103F7000A0930601B093070147E064E188E60E9440
:103F8000E70D83E393E3A3E8B1E48093000190930A
:103F90000101A0930201B093030147E061E088E6CC
:103FA0000E94E70D40E060E088E60E94E70D6EE1C8
:103FB00070E080E090E00E94490440E06FE788E60E
:103FC0000E94E70D19A221E0AE014F5D5F4F60ED49
:103FD00087E70E94BE1181116DC6111104C084E0F3
:103FE00090E00E94951182E090E00E94951181E09E
:103FF00090E00E94951110E064EF71E080E090E0A5
:104000000E94490410928F02109281021092820243
:1040100010928302109284021092850284E10E9421
:104020001D0D6CE271E080E090E00E944904E09197
:10403000F4068E2F90E0FC01EE0FFF1FE80FF91F32
:10404000E153F94F80818F7B808310929F0284E03F
:104050000E94FF011092C8061092CB061092CC0667
:104060001092CD061092CE061092CA0684E080937C
:10407000C9060E94FF0161E08091C9060E94B30356
:1040800082E58093C6061092C7060FB7F894809118
:104090003302811124C0EBE7F3E08491EAE9F3E015
:1040A0009491E82FF0E0EE0FFF1FE45AFC4FA5912A
:1040B000B491EC91E92321F461E081E10E94B30322
:1040C00081E10E94FF018CB580618CBD8CB580645C
:1040D0008CBD8FE00E94FF0180E10E94FF01809172
:1040E00033028F5F809333020FBF81E08093C80655
:1040F0008091CB06811104C084EC96E00E942605D5
:1041000061E08091C9060E94B3030AE00E94340571
:104110000150E1F760E08091C9060E94B3030E945C
:1041200000056053784F7A83698320E030E0A9016D
:1041300060E084EC96E00E946B05F82E882483945E
:10414000881509F43CC6CE0101960E940F0588230C
:1041500061F381E08093CA0684EC96E00E945905E1
:1041600084EC96E09093C3068093C2068091CA06C1
:104170008111A6C661E084EC96E00E942C0788239A
:1041800009F485C682EA96E00E9452091092A206BE
:104190001092A40667E774E082EA96E00E944B154D
:1041A000882309F474C687E794E0909335028093DE
:1041B0003402EE24E394F12C42EA51E0BE01625D48
:1041C0007F4FCE0181960E94E90C24E0A701BE0139
:1041D000625D7F4F0E94251846EA51E0BE01625D94
:1041E0007F4F0E94E90CDC011C9219821A821B820B
:1041F00020E0AE014F5D5F4F62EA76E0CE010196AE
:104200000E940A1781115EC66091340270913502D6
:104210006115710509F456C6655D7D4F21E5AE0156
:104220004F5D5F4F87E594E00E940A17882309F4E9
:1042300049C64FE550E065E372E08FE893E00E94E5
:104240000B2D1092EE030E94FF1087E594E00E9470
:10425000520981E080939F0282E00E941E11109219
:104260008A0200919702112309F4F6C002FDA6C04C
:1042700020E4322E10E0C12CD12C760146015701EA
:1042800026013701BE016F5F7F4FCE0181960E94EC
:10429000BD12882389F169817A81072E000C880B71
:1042A000990B0E94F42E9B01AC01C301B2010E9444
:1042B000D92D2B013C016B817C81072E000C880BD2
:1042C000990B0E94F42E9B01AC01C501B4010E9420
:1042D000D92D4B015C016D817E81072E000C880B6E
:1042E000990B0E94F42E9B01AC01C701B6010E94FC
:1042F000D92D6B017C011F5F65E070E080E090E0EC
:104300000E9449043A943110BDCF112309F456C0DC
:10431000209100013091010140910201509103016F
:104320002CAB3DAB4EAB5FAB612F70E090E080E01B
:104330000E94F42E68AB79AB8AAB9BAB9B01AC01BE
:10434000C301B2010E944A2E2CA93DA94EA95FA922
:104350000E944A2E60933E0270933F028093400277
:104360009093410228A939A94AA95BA9C501B401C2
:104370000E944A2E2CA93DA94EA95FA90E944A2E4F
:1043800060933A0270933B0280933C0290933D020B
:1043900028A939A94AA95BA9C701B6010E944A2EDA
:1043A0002CA93DA94EA95FA90E944A2E609336020E
:1043B00070933702809338029093390201FD4CC00C
:1043C00008E210E080E3C82E85E7D82EE12CF12C1E
:1043D00090EC892E94ED992EAA24A394B12C412C13
:1043E000512C3201BE016F5F7F4FCE0181960E943A
:1043F0001013882311F189A19AA1ABA1BCA1AC0132
:10440000BD01405355476109710941395F4561401C
:10441000710598F4480E591E6A1E7B1E8815990571
:10442000AA05BB0514F44C015D01C816D906EA06BD
:10443000FB0614F46C017D011F5F64E170E080E015
:1044400090E00E944904015069F6143108F048C513
:1044500082E090E00E94951110929E0210929002CC
:1044600010929102109292021092930210928B027B
:1044700010928C0210928D0210928E021092710294
:1044800010927202109273021092740210926D02D6
:1044900010926E0210926F021092700210926902D6
:1044A00010926A0210926B0210926C0210926502D6
:1044B00010926602109267021092680210926102D6
:1044C00010926202109263021092640210927902BA
:1044D00010927A0210927B0210927C0210927D025E
:1044E00010927E0210927F0210928002109275024A
:1044F00010927602109277021092780280919702C1
:1045000090919802877099271092950210929402C8
:10451000892B09F41BC588E00E9473110E940005D5
:104520006093E6027093E7028093E8029093E902B9
:104530006093EA027093EB028093EC029093ED0299
:1045400060931C0370931D0380931E0390931F03BD
:104550006093A1027093A2028093A3029093A4029D
:104560006093DE027093DF028093E0029093E10299
:104570006093E2027093E3028093E4029093E50279
:104580008E01095D1F4F1FA70EA722242394BCE2B2
:104590003B2E0E9400052B013C0180911C03909151
:1045A0001D03A0911E03B0911F03A3019201281BBC
:1045B000390B4A0B5B0BDA01C9014497A105B10520
:1045C000B8F040921C0350921D0360921E0370923B
:1045D0001F03BE016F5F7F4FCE0181960E94BD1207
:1045E0008111BDC410921A0384E090E00E949511DD
:1045F0008091EA029091EB02A091EC02B091ED0261
:1046000063015201A81AB90ACA0ADB0AD601C50118
:104610008897A105B105B8F04092EA025092EB02EA
:104620006092EC027092ED02BE016F5F7F4FCE018F
:1046300081960E94101381119EC510921B0382E087
:1046400090E00E94951180919E02813009F0C6C0D1
:1046500080911A03882309F4C1C080915D02909172
:104660005E02A0915F02B0916002181619061A0648
:104670001B060CF0B3C080915C02882351F01092AD
:104680005C02409258025092590260925A02709213
:104690005B0280911B03882309F48BC08091160371
:1046A00090911703A0911803B091190340915402FF
:1046B00050915502609156027091570284179507E8
:1046C000A607B70709F475C04091580250915902E6
:1046D00060915A0270915B0253014201841A950A5B
:1046E000A60AB70AB501A401483B0BE050076105D3
:1046F000710508F45EC0E091960280935402909395
:104700005502A0935602B0935702009150021091A7
:10471000510220915202309153028091EE02909109
:10472000EF02A091F002B091F102BA2FA92F982FB9
:104730008827801B910BA20BB30BFAE0E11101C09B
:10474000F4E004C0B595A79597958795FA95D2F7AB
:10475000800F911FA21FB31F8093500290935102AC
:10476000A0935202B0935302892F9A2FAB2FBB27ED
:10477000A7FDBA9580935D0290935E02A0935F02BD
:10478000B0936002E1112AC040345F4161057105B8
:10479000A0F010924F022092960280919702909181
:1047A00098029E7F90939802809397028FE00E94D8
:1047B0001E1180919602811111C080914E028111CB
:1047C0000DC020E3421625E752066104710430F063
:1047D00080E091E00E94951120924E028091E602C5
:1047E0009091E702A091E802B091E902B301A20121
:1047F000481B590B6A0B7B0BDB01CA014497A105CF
:10480000B10508F491C04092E6025092E70260922E
:10481000E8027092E90210911B0300919E0211239D
:1048200009F43FC080917D0290917E02A0917F02A9
:10483000B0918002C090F602D090F702E090F802AA
:10484000F090F9020097A105B10509F046C5C092A4
:104850007902D0927A02E0927B02F0927C0240923E
:104860007D0250927E0260927F02709280022091BF
:104870008B0230918C0240918D0250918E02C701C3
:10488000B6010E94A42F181664F48EEF800F8230B8
:1048900040F4C0928B02D0928C02E0928D02F09292
:1048A0008E02033009F483C608F04FC5013009F4C5
:1048B00088C5023009F439C6C0909002D0909102A8
:1048C000E0909202F0909302C114D104E104F1044B
:1048D00059F1A30192012C193D094E095F096901A3
:1048E0007A0180918F02823069F038EBC3163BE089
:1048F000D306E104F10430F081E00E94591185E013
:104900000E94731180919E02873071F040E6C416B8
:104910004AEED406E104F10438F080E890E00E9409
:10492000951187E00E947311809186029091870211
:10493000A0918802B09189020097A105B10519F1F3
:1049400053014201881A990AAA0ABB0AD501C40177
:10495000803B9440A105B105B0F0E091F4068E2FA4
:1049600090E0FC01EE0FFF1FE80FF91FE153F94F34
:1049700080818F7B80831092860210928702109232
:1049800088021092890220918F02223049F580918D
:104990008502811125C08091810290918202A091AF
:1049A0008302B0918402B301A201481B590B6A0B28
:1049B0007B0BDB01CA01803B9440A105B10580F06F
:1049C000E091F4068E2F90E0FC01EE0FFF1FE80F40
:1049D000F91FE153F94F80818F7B808320928502FC
:1049E0008091E2029091E302A091E402B091E5028D
:1049F000B301A201481B590B6A0B7B0B8091DE02AD
:104A00009091DF02A091E002B091E1027301620196
:104A1000C81AD90AEA0AFB0A48325105610571052C
:104A200038F488ECC816D104E104F10408F436C760
:104A30004092A5025092A6026092A7027092A8022C
:104A40008091900290919102A0919202B091930274
:104A50000097A105B10541F053014201881A990A56
:104A6000AA0ABB0AD501C4018093A9029093AA02A5
:104A7000A093AB02B093AC02809194029091950206
:104A8000019690939502809394029093AE02809346
:104A9000AD0280919E028093AF022093B00280917C
:104AA000EE029091EF02A091F002B091F10280939A
:104AB000B1029093B202A093B302B093B40280917A
:104AC000F2029091F302A091F402B091F50280936A
:104AD000B5029093B602A093B702B093B80280914A
:104AE000F6029091F702A091F802B091F90280933A
:104AF000B9029093BA02A093BB02B093BC0280911A
:104B00008B0290918C02A0918D02B0918E028093C5
:104B1000BD029093BE02A093BF02B093C0028091E9
:104B2000FA029091FB02A091FC02B091FD028093E9
:104B3000C1029093C202A093C302B093C4028091B9
:104B4000FE029091FF02A0910003B09101038093B7
:104B5000C5029093C602A093C702B093C802809189
:104B6000020390910303A0910403B0910503809385
:104B7000C9029093CA02A093CB02B093CC02809159
:104B80000A0390910B03A0910C03B0910D03809345
:104B9000CD029093CE02A093CF02B093D002809129
:104BA0000E0390910F03A0911003B0911103809315
:104BB000D1029093D202A093D302B093D4028091F9
:104BC000120390911303A0911403B09115038093E5
:104BD000D5029093D602A093D702B093D802E09169
:104BE0009F02E093D90280918A028093DA02809139
:104BF0009702909198029C0126703327232B09F489
:104C00006DC522E02093DB029093DD028093DC02ED
:104C1000483251056105710508F432C64092E2023E
:104C20005092E3026092E4027092E502E13009F0F2
:104C300027C6B301A2018FE893E00E94040EDC01B5
:104C40003C924091A9025091AA026091AB027091EE
:104C5000AC0201960E94040EFC0130824091AD022C
:104C60005091AE0270E060E001960E94040E8C014B
:104C70000F5F1F4FDC013C92E091AF02E93008F07A
:104C800030C5F0E0EE0FFF1FEC5CFE4F0190F081AD
:104C9000E02DD80184910F5F1F4F882309F424C5AC
:104CA000319623E0AE3EB20708F01EC58C93F1CFDB
:104CB00010E088C989A1883509F08FC946EB60EEFC
:104CC00087E70E94E70D6AE070E080E090E00E94D4
:104CD000490428E1AE014F5F5F4F68E887E70E9413
:104CE000BE11882309F479C929813A8130931802C9
:104CF000209317028B819C8190931A028093190252
:104D00008D819E8190931C0280931B028F819885D8
:104D100090931E0280931D0249855A85509320026C
:104D200040931F024B855C855093220240932102E1
:104D30004D855E8550932402409323024F85588908
:104D4000509326024093250249895A89509328029C
:104D5000409327024B895C8950932A024093290291
:104D60004D895E8950932C0240932B024F89588DB8
:104D700050932E0240932D0210922F021092300277
:104D80001092310210923202232B09F426C9892B8A
:104D900009F423C948E065EF87E70E94E70D4FE279
:104DA00064EF87E70E94E70D62E370E080E090E047
:104DB0000E944904111116C684E090E016C92AEA3F
:104DC00031E040E050E068E084EC96E00E946B0542
:104DD00082FD11C004E00E9434058093CD0601508D
:104DE000D1F78A3A29F1CE0101960E940F05882356
:104DF00031F386E0AFC901E0812C912C540120E011
:104E000030E0A90167E384EC96E00E946B05A50100
:104E1000940169E284EC96E00E946B05882379F0A6
:104E2000CE0101960E940F05882349F387E192C9BC
:104E300002E0812C912CA12C40E4B42EE0CF023072
:104E4000C9F420E030E0A9016AE384EC96E00E9416
:104E50006B05882311F082E17DC90E943405807CB6
:104E6000803C09F403E00E9434050E9434050E944E
:104E70003405F02E84EC96E00E94590580E580937D
:104E8000C60681E08093C706F092CE0669C960E04D
:104E90008091C2069091C3060E942C07882381F05E
:104EA00082EA96E00E9452091092A2061092A4068D
:104EB00067E774E082EA96E00E944B15811173C99E
:104EC00083E0CBC9BFEFEB1AFB0AE0E1EE16E7E2A5
:104ED000FE0609F071C988E090E00E949511F0CFBC
:104EE000212F30E050E040E0C301B2010E94752D57
:104EF00020935D0230935E0240935F025093600204
:104F0000542F432F322F22272093500230935102E7
:104F10004093520250935302C818D908EA08FB087C
:104F200049E7C416D104E104F10424F080E091E0E3
:104F30000E94951110924A0210924B0210924C025C
:104F400010924D0281E080934F0286CA80918F02B9
:104F5000811103C081E080938F0281E0DDCA20913E
:104F6000480230914902A901440F551FFE01B19634
:104F7000A2E4B2E0819191916D917D91861B970B96
:104F8000820F931F4817590708F0EEC086E0FE0114
:104F9000B196A2E4B2E001900D928A95E1F72092D9
:104FA0005C02C0900401D0900501E0900601F090F1
:104FB00007018090000190900101A0900201B09043
:104FC000030169A17AA1072E000C880B990B0E949E
:104FD000F42EA70196010E944A2E68AB79AB8AABEA
:104FE0009BAB6093FA027093FB028093FC02909358
:104FF000FD026BA17CA1072E000C880B990B0E946F
:10500000F42EA70196010E944A2E6CAB7DAB8EABAD
:105010009FAB6093FE027093FF0280930003909316
:1050200001036DA17EA1072E000C880B990B0E9435
:10503000F42EA70196010E944A2E6B017C01C092BA
:105040000203D0920303E0920403F0920503698106
:105050007A81072E000C880B990B0E94F42EA50173
:1050600094010E944A2E20913E0230913F024091CD
:105070004002509141020E94D82D60930A03709320
:105080000B0380930C0390930D036B817C81072E9F
:10509000000C880B990B0E94F42EA50194010E942C
:1050A0004A2E20913A0230913B0240913C025091AD
:1050B0003D020E94D82D60930E0370930F038093DE
:1050C0001003909311036D817E81072E000C880BD5
:1050D000990B0E94F42EA50194010E944A2E209162
:1050E00036023091370240913802509139020E94C5
:1050F000D82D60931203709313038093140390933D
:10510000150328A939A94AA95BA9CA01B9010E94B6
:10511000A92F4B015C012CA93DA94EA95FA9CA0189
:10512000B9010E94A92F9B01AC01C501B4010E94E5
:10513000D92D4B015C01A7019601C701B6010E9460
:10514000A92F9B01AC01C501B4010E94D92D0E9479
:105150006C30609306037093070380930803909369
:10516000090320921A0344CA8EA49FA4E815F905E6
:1051700009F000CF16CF69A17AA18BA19CA18B0168
:105180009C01005315472109310901391F45214070
:10519000310518F010921B0356CA6093EE0270930B
:1051A000EF028093F0029093F10209811A812B8122
:1051B0003C810093F2021093F3022093F4023093A7
:1051C000F502C0905D02D0905E02E0905F02F09028
:1051D00060021C141D041E041F040CF059C00E9420
:1051E000F42E4B015C01C701B6010E94F42E9B0115
:1051F000AC01C501B4010E944A2E2BEA3CED42E409
:105200005EE30E9416309B01AC0160E070E080E834
:105210009FE30E94D82D20E03AE24DE257E40E943D
:10522000A92F6B017C0120E030E04AEF53E4C70175
:10523000B6019F770E94A42F18160CF4ABCF809173
:105240004F02811129C0C0924A02D0924B02E092D3
:105250004C02F0924D0220924F0280914A029091AE
:105260004B02A0914C02B0914D028093F6029093B4
:10527000F702A093F802B093F902409216035092FD
:105280001703609218037092190320921B03DBC965
:10529000C12CD12C7601C7CF80904A0290904B024E
:1052A000A0904C02B0904D02A5019401C701B60137
:1052B0000E94D82D23E333E343EB5EE30E94A92F42
:1052C000A50194010E94D92D60934A0270934B026C
:1052D00080934C0290934D02C0CF53014201881A33
:1052E000990AAA0ABB0A52E385169104A104B104E3
:1052F00008F4BDCA2091790230917A0240917B0274
:1053000050917C02C701B6010E94D82D20E030E008
:105310004AE754E40E94A92F68AB79AB8AAB9BABF8
:10532000C501B4010E94F22E9B01AC0168A979A9C4
:105330008AA99BA90E944A2E6093750270937602F7
:10534000809377029093780282CA073008F0B4CA3B
:10535000112399F060917502709176028091770225
:10536000909178029F7720E030E040E05FE30E9478
:10537000452E182F111F1127111F80911A03882302
:10538000B9F020E030E040E85FE3609106037091FF
:10539000070380910803909109030E94D82D9F77FD
:1053A00020E030E040E85EE30E94452E87FD00C328
:1053B00010926102109262021092630210926402D3
:1053C0007BCA80911A03882309F476CA20E030E072
:1053D00040E250E460910603709107038091080356
:1053E000909109030E94A42F87FF3EC01092710282
:1053F000109272021092730210927402C0906D02A9
:10540000D0906E02E0906F02F0907002C114D1044F
:10541000E104F10409F450CA112309F45DC020E04D
:1054200030E040EC5FE36091F6027091F70280910A
:10543000F8029091F9020E94452E87FF4DC0D301DA
:10544000C2018C199D09AE09BF09893E9340A1058F
:10545000B10508F431CA10926D0210926E021092DA
:105460006F021092700228CA8091710290917202AC
:10547000A0917302B09174020097A105B10549F49F
:1054800040927102509272026092730270927402A2
:10549000B5CF53014201881A990AAA0ABB0AD5015D
:1054A000C401CC97A105B10508F4A8CF80916D0285
:1054B00090916E02A0916F02B0917002892B8A2B9D
:1054C0008B2B09F09BCF40926D0250926E0260923E
:1054D0006F027092700292CF4092900250929102AD
:1054E000609292027092930280E090E0DC011123BE
:1054F00041F08091F6029091F702A091F802B091EC
:10550000F90280938B0290938C02A0938D02B0934A
:105510008E0210927D0210927E0210927F021092F3
:10552000800282E00E947311C7C980911A03882308
:1055300081F020E030E040EA5FE360910603709183
:10554000070380910803909109030E94452E87FD6F
:1055500009C01092690210926A0210926B021092B6
:105560006C02AAC98091690290916A02A0916B02B3
:10557000B0916C020097A105B10549F4409269020F
:1055800050926A0260926B0270926C0295C9A301FC
:105590009201281B390B4A0B5B0BDA01C9018035DC
:1055A0009105A105B10508F487C983E0BBCF11239C
:1055B00009F482C98090F6029090F702A090F80258
:1055C000B090F90220918B0230918C0240918D02B3
:1055D00050918E02C501B4010E94A42F181644F404
:1055E00080928B0290928C02A0928D02B0928E02D9
:1055F000C0909002D0909102E0909202F0909302BD
:10560000C114D104E104F10409F48EC9D301C2012B
:105610008C199D09AE09BF0980399140A105B105DA
:1056200008F457C9A501940160918B0270918C0216
:1056300080918D0290918E020E94D82D20E030E062
:1056400040E050E40E94A42F87FF09C01092650239
:105650001092660210926702109268022DC9809122
:10566000650290916602A0916702B091680200976E
:10567000A105B10549F4409265025092660260921C
:1056800067027092680218C9B301A201481B590B46
:105690006A0B7B0BDB01CA0186399105A105B105B7
:1056A00008F417C984E00E94731180918F02823040
:1056B00019F080E00E94591185E034CF5301420176
:1056C000881A990AAA0ABB0AD501C401803D9740ED
:1056D000A105B10508F4F0C887E024CF2092DB02D1
:1056E00093CAE6EBF2E0D5CA3C926091B1027091A8
:1056F000B2028091B3029091B4022AE0AE014F5FF2
:105700005F4F0E941A2DAE014F5F5F4F6FEE73E047
:10571000C8010E94E90CDC013C924091B502509115
:10572000B6026091B7027091B80221E001960E9422
:105730006818FC0130824091B9025091BA02609120
:10574000BB027091BC0222E001960E946818DC0145
:105750003C924091BD025091BE026091BF02709197
:10576000C00222E001960E946818FC01308240913C
:10577000C1025091C2026091C3027091C40222E042
:1057800001960E946818DC013C924091C50250913C
:10579000C6026091C7027091C80222E001960E9481
:1057A0006818FC0130824091C9025091CA02609190
:1057B000CB027091CC0222E001960E946818DC01B5
:1057C0003C924091CD025091CE026091CF027091F7
:1057D000D00221E001960E946818FC0130824091BD
:1057E000D1025091D2026091D3027091D40221E093
:1057F00001960E946818DC013C924091D5025091BC
:10580000D6026091D7027091D80221E001960E94E1
:1058100068189C012F5F3F4FFC013082E091B0027D
:10582000E430A8F4F0E0EE0FFF1FEA5BFE4F0190BA
:10583000F081E02DC901DC0124910196222351F071
:10584000319603E0AE3EB00728F42C93F4CFE8EB9A
:10585000F2E0F0CF3C924091DC025091DD0270E02A
:1058600060E00E94040EDC011C920E94FF10892B54
:1058700039F480E190E00E94951182E080939F02CC
:10588000B8ECCB16D104E104F10440F04092DE0202
:105890005092DF026092E0027092E10210919E024B
:1058A000E0919602113009F0E12F809197029091DA
:1058B000980287709927892B09F077C08AEF90E0CA
:1058C000E83038F4F0E0EE0FFF1FE25BFE4F80811E
:1058D000918140919A0250919B0260919C0270913B
:1058E0009D0253014201841A950AA60AB70AB5011E
:1058F000A401B0E0A0E0481759076A077B0790F0C1
:1059000040929A0250929B0260929C0270929D0279
:10591000609199029924939469256093990285E096
:105920000E94B3038091A1029091A202A091A302D0
:10593000B091A40263015201A81AB90ACA0ADB0A8B
:10594000D601C501883C9105A105B10540F0409202
:10595000A1025092A2026092A3027092A402173098
:10596000C1F48091A002811114C080919F02813006
:1059700071F487E594E00E94520987E594E00E9463
:105980005209109257041092590410929F022092CB
:10599000A00280E0C82E80E0D82ECD2811F40C940F
:1059A000C9220E9400000C94C72284E690E091CFA7
:1059B000112309F4FDCC8091610290916202A091C3
:1059C0006302B09164020097A105B10509F076CE9B
:1059D000409261025092620260926302709264028D
:1059E0000C945C242DEC3CEC4CEC5DE360910401E8
:1059F0007091050180910601909107010E94A92FE5
:105A00000E94BC2E709349026093480281E00E947C
:105A10001E110C94FC1FFB01DC014150504048F06A
:105A200005900D920020C9F701C01D9241505040D1
:105A3000E0F70895BB272A3051F4992342F4BDE2E0
:105A400090958095709561957F4F8F4F9F4F0C94E7
:105A50002A2DBB27FA01A62F621771058105910532
:105A6000330B30FB66F0AA27660F771F881F991F3C
:105A7000AA1FA21710F0A21B63953850A9F7A05DCA
:105A8000AA3308F0A95DA19336F7B111B193108242
:105A9000CA010C94652DBB27FB015527AA27880F47
:105AA000991FAA1FA41710F0A41B83955051B9F792
:105AB000A05DAA3308F0A95DA193009779F7B11111
:105AC000B1931192CB010C94652DDC01FC01672F81
:105AD00071917723E1F7329704C07C916D937083C5
