:100000000C9415040C943D040C943D040C943D0494
:100010000C943D040C943D040C943D040C943D045C
:100020000C943D040C943D040C943A120C94A912C7
:100030000C943D040C943D040C943D040C943D043C
:100040000C943D040C9433150C943D040C943D0425
:100050000C943D040C943D040C943D040C94F0115C
:100060000C943D040C9401150C94DB140C943D0489
:100070000C943D040C943D040C943D040C943D04FC
:100080000C943D040C943D040C943D040C943D04EC
:100090000C94EF150C943D040C943D040C943D0419
:1000A0000C943D040C943D040C943D0407634236CB
:1000B000B79BD8A71A39685618AEBAAB558C1D3CF9
:1000C000B7CC5763BD6DEDFD753EF6177231BF00BD
:1000D0000000803F08000000BE922449123EABAAF7
:1000E000AA2ABECDCCCC4C3E00000080BEABAAAA52
:1000F000AA3E00000000BF000000803F000000009A
:1001000000084178D3BB4387D1133D190E3CC3BDD2
:100110004282AD2B3E68EC8276BED98FE1A93E4C7F
:1001200080EFFFBE01C4FF7F3F00000000000040E1
:100130007A10F35A00A0724E18090010A5D4E800F6
:1001400000E87648170000E40B54020000CA9A3B0E
:10015000000000E1F5050000809698000000404294
:100160000F000000A0860100000010270000000022
:10017000E803000000006400000000000A00000026
:1001800000000100000000002C76D888DC674F08D2
:1001900023DFC1DFAE59E1B1B796E5E3E453C63AD8
:1001A000E651997696E8E6C28426EB898C9B62ED4F
:1001B000407C6FFCEFBC9C9F40F2BAA56FA5F49009
:1001C000055A2AF75C936B6CF9676DC11BFCE0E480
:1001D0000D47FEF520E6B500D0ED902E03009435D6
:1001E00077050080841E080000204E0A000000C829
:1001F0000C333333330F986E12831141EF8D21147A
:10020000893BE65516CFFEE6DB18D1844B381BF749
:100210007C1D901DA4BBE424203284725E228100E8
:10022000C9F124ECA1E53D274241434B55505F44C1
:1002300045504C4F5900435249544943414C5F4546
:1002400052524F52004C414E4445440044455343A2
:10025000454E54005245434F564552595F44455010
:100260004C4F590041504F4745455F434F4E46491B
:10027000524D454400424F4F53545F454E44004C4D
:1002800041554E43485F444554454354454400520C
:100290004541445900524144494F5F4641494C0051
:1002A000524144494F5F4F4B0053445F4641494CD4
:1002B0000053445F4F4B0053454E534F52535F4FD3
:1002C0004B00504F5745525F4F4E004552524F52D0
:1002D000004C414E444544005245434F5645525907
:1002E0000044455343454E540041504F4745450057
:1002F000434F41535400424F4F53540052454144E1
:100300005900494E4954004552524F5200444550FD
:100310004C4F5945440041524D45440053414645D8
:10032000005D20005B455620003F00080B000202E4
:100330000200000904000001020200000524001070
:100340000105240101010424020605240600010719
:1003500005810310004009040100020A00000007A3
:100360000502024000000705830240000004030963
:100370000412010002EF0201404123368000010116
:1003800002030141726475696E6F204C4C43004159
:10039000726475696E6F204C656F6E6172646F0078
:1003A00020D09ED0A2D09AD090D09700206F6B0022
:1003B00020D09ED0A2D09AD090D09700206F6B0012
:1003C000D091D0B0D180D0BED0BCD0B5D182D180B8
:1003D0003A2000494D553A2000D09AD0A0D098D06C
:1003E000A2D098D0A7D095D0A1D09AD090D0AF204D
:1003F000D09ED0A8D098D091D09AD0903A20D0BF9B
:10040000D0BED0BBD191D18220D0BDD0B5D0B2D09A
:10041000BED0B7D0BCD0BED0B6D0B5D0BD00D1868E
:10042000D0B8D0BAD0BB20D0B7D0B0D0B2D0B5D130
:1004300080D188D191D0BD00D186D0B8D0BAD0BB00
:100440003A20D0B2D0BED0B7D0B2D180D0B0D18215
:1004500020D0B2205341464500D186D0B8D0BAD082
:10046000BB3A204445504C4F5945440020203F2082
:1004700020D18DD182D0B020D181D0BFD180D0B059
:10048000D0B2D0BAD0B0002020692020D181D0B223
:10049000D0B5D0B4D0B5D0BDD0B8D18F20D0BE208B
:1004A000D0B6D0B5D0BBD0B5D0B7D0B50020207273
:1004B0002020D0BFD180D0BED0B3D0BED0BD20D000
:1004C000BFD180D0BED184D0B8D0BBD18F20D0BF17
:1004D000D0BED0BBD191D182D0B02028D0BF2E20A9
:1004E000343320D0A2D09729002020302E2E39205E
:1004F00020D183D0B3D0BED0BB20302E2E313830A7
:1005000020D18120D188D0B0D0B3D0BED0BC203291
:1005100030002020742020D186D0B8D0BAD0BB20A3
:1005200053414645202D3E204445504C4F594544AB
:10053000202D3E2053414645002020642020D0BF7E
:10054000D180D0B8D0B2D0BED0B420D0B2204445F3
:10055000504C4F594544002020732020D0BFD180FB
:10056000D0B8D0B2D0BED0B420D0B220534146458E
:10057000002D2D2D20D181D0B5D180D0B2D0B8D1D1
:1005800081D0BDD18BD0B920D180D0B5D0B6D0B874
:10059000D0BC2028D0BF2E20343020D0A2D0972924
:1005A000202D2D2D0049434D2D3230393438004255
:1005B0004D5032383000433A20D0B4D0B0D182D13F
:1005C00087D0B8D0BAD0B8202B20D181D0B5D18077
:1005D000D0B2D0BED0BFD180D0B8D0B2D0BED0B40F
:1005E000202B2048432D3132002020D0BDD0B0D068
:1005F000B1D0BED1803A20002020D180D0B0D0B47C
:10060000D0B8D0BE3A20D0BFD180D0BED0BFD18329
:10061000D189D0B5D0BDD0BE20D0B8D0B72DD0B7FD
:10062000D0B020D0B1D183D184D0B5D180D0B03A70
:1006300020002020D184D0BBD0B0D0B3D0B820D0FF
:10064000BED188D0B8D0B1D0BED0BA3A2030780070
:100650002020D183D0B3D0BBD18B20D0BFD180D0CC
:10066000B8D0B2D0BED0B4D0B020534146452F440C
:1006700045504C4F593A20002020D0B4D0B0D0B2D1
:10068000D0BBD0B5D0BDD0B8D0B520D0BFD0BBD0B6
:10069000BED189D0B0D0B4D0BAD0B82C20D09FD0A1
:1006A000B03A20002020D0B1D0B0D180D0BED0BC94
:1006B000D0B5D182D1803A20002020494D553A2032
:1006C0002020202020002D2D2D20D0B6D0B5D0BB4D
:1006D000D0B5D0B7D0BE202D2D2D00D186D0B8D02A
:1006E000BAD0BB3A205341464500D0BFD180D0B8E4
:1006F000D0B2D0BED0B4202D3E20D183D0B3D0BE56
:10070000D0BB20002D2D2D20D0BFD180D0BED0B3A6
:10071000D0BED0BD20D182D0B5D181D182D0BED0C3
:10072000B2D0BED0B3D0BE20D0BFD180D0BED18495
:10073000D0B8D0BBD18F202D2D2D00D0BFD180D0EF
:10074000B8D0B2D0BED0B4202D3E204445504C4F3E
:100750005945442C20D183D0B3D0BED0BB2000D08B
:10076000BFD180D0B8D0B2D0BED0B4202D3E20535F
:100770004146452C20D183D0B3D0BED0BB20003F12
:10078000003F00207264726F703D00206572723D00
:10079000307800207265633D0020703D00207C6150
:1007A0007C3D00206D61783D0020683D0020000008
:1007B00000000200090F0000030401000C0000000B
:1007C0000000000000000000000000000000000029
:1007D0000000250028002B002E0031000000000042
:1007E000240027002A002D00300004040404040320
:1007F00004050202020204030202020206060606C1
:1008000006060404020202040404080201104080E7
:1008100040102040804080080204018040201002E7
:1008200001108010204040200E1711241FBECFEF72
:10083000DAE0DEBFCDBF11E0A0E0B1E0E2E6FDE529
:1008400002C005900D92A83AB107D9F724E0A8EAB2
:10085000B1E001C01D92AF3FB207E1F714E0C5E17E
:10086000D4E004C02197FE010E94A92EC431D10713
:10087000C9F70E9495170C94AF2E0C94000090E0DD
:10088000FC01E75FF74F24918651984FFC0184915A
:10089000882399F090E0880F991FFC01E452F84FEB
:1008A000A591B491FC01E253F84F859194918FB7D3
:1008B000F894EC91E22BEC938FBF0895FC018091AA
:1008C0004D03882311F13FB7F89482E08093E9004B
:1008D0002091F200822F90E01816190614F481E09E
:1008E00090E0882339F0289844E640934C034091E7
:1008F000F1004083222339F02091F200211103C03E
:100900002BE62093E8003FBF08958FEF9FEF0895F7
:100910002FB7F89483E08093E9009091E800892F45
:10092000807295FF04C09091F20080E4891B2FBF74
:1009300008958091440381110DC082E080934003AB
:1009400084E080934103109243031092420381E0BC
:100950008093440380E493E00895282F30E0F90168
:10096000E155F84F9491F901E75FF74F84912651D3
:10097000384FF9012491222309F430C09923E9F07A
:1009800091509F30D0F4E92FF0E0E753FB4F0C94E7
:10099000A92EF704FB04D804EF04F304DD04DD04FE
:1009A000DD04FE04040508050C051205DD0416052A
:1009B000909180009F7790938000E22FF0E0EE0FFF
:1009C000FF1FE253F84FA591B4919FB7F894EC91B3
:1009D000611132C080958E238C939FBF08959091B2
:1009E00080009F7DE8CF90918000977FE4CF94B501
:1009F0009F7794BDE2CF94B59F7DFBCF90919000FF
:100A00009F7790939000D9CF909190009F7DF9CFE0
:100A100090919000977FF5CF9091C0009F77909331
:100A2000C000CBCF9091C0009F7DF9CF9091C200C4
:100A3000977F9093C200C1CF8E2BCECF3FB7F89453
:100A400080913C0390913D03A0913E03B0913F0300
:100A500026B5A89B05C02F3F19F00196A11DB11D19
:100A60003FBFBA2FA92F982F8827BC01CD01620F55
:100A7000711D811D911D42E0660F771F881F991F10
:100A80004A95D1F708958F929F92AF92BF92CF92DD
:100A9000DF92EF92FF924B015C010E941E056B01F9
:100AA0007C010E941E056C197D098E099F09683E14
:100AB000734081059105A8F321E0821A9108A108ED
:100AC000B10888EEC80E83E0D81EE11CF11C811429
:100AD0009104A104B10429F7FF90EF90DF90CF902B
:100AE000BF90AF909F908F9008952FB7F89460912A
:100AF00038037091390380913A0390913B032FBFE3
:100B00000895089508950895409122025091230276
:100B1000209120023091210242175307B4F49091A2
:100B2000E8009570E1F39091E80092FD19C0809380
:100B3000F100809122029091230201968F739927F0
:100B4000892B19F48EEF8093E80080912202909116
:100B500023020196909323028093220281E008955C
:100B600080E00895EF92FF920F931F93CF93DF934E
:100B7000F82E192FE62E042F81E0860F880F0E9491
:100B8000840583E00E948405CF2DD12FEC0EFD2E2D
:100B9000F11CCE15DF05B9F007FF13C0FE018491EB
:100BA0000E948405182F80E00E94840581232196ED
:100BB0008111EFCFDF91CF911F910F91FF90EF90B7
:100BC00008958881EDCF81E0F5CFDF92EF92FF921B
:100BD0000F931F93CF93DF93D82E8A01EB017B01F4
:100BE000E40EF51ECE15DF0559F0D7FE12C0FE014A
:100BF00084910E94840521968111F4CF0FEF1FEF9D
:100C0000C801DF91CF911F910F91FF90EF90DF907E
:100C100008958881EECF0F931F93CF93DF931F9298
:100C2000CDB7DEB782E0898342E450E06BE273E047
:100C300080E80E94E5050E949904DC0112960D915E
:100C40001C910115110589F0D801ED91FC910280EC
:100C5000F381E02DBE016F5F7F4FC801099597FDBD
:100C600004C0F80100851185ECCF89810F90DF91D8
:100C7000CF911F910F910895615030F02091F100B4
:100C8000FC0120830196F8CF289884E680934C03DA
:100C90000895AF92BF92CF92DF92EF92FF920F939F
:100CA0001F93CF93DF936C017B018B01040F151F02
:100CB000EB015E01AE18BF08C017D10759F069916A
:100CC000D601ED91FC910190F081E02DC6010995CE
:100CD000892B79F7C501DF91CF911F910F91FF907B
:100CE000EF90DF90CF90BF90AF900895FC01538DAF
:100CF000448D252F30E0842F90E0821B930B5417F6
:100D000010F0CF96089501970895FC01918D828D82
:100D1000981761F0A28DAE0FBF2FB11D5D968C911B
:100D2000928D9F5F9F73928F90E008958FEF9FEF5A
:100D30000895FC01918D828D981731F0828DE80F16
:100D4000F11D858D90E008958FEF9FEF0895FC01D0
:100D5000918D228D892F90E0805C9F4F821B91099D
:100D60008F73992708958EED93E00E94A70621E0E6
:100D7000892B09F420E0822F089580E090E0892BF0
:100D800029F00E94B30681110C9400000895FC0123
:100D9000A48DA80FB92FB11DA35ABF4F2C91848DDC
:100DA00090E001968F739927848FA689B7892C9339
:100DB000A089B1898C9182748C93938D848D9813C2
:100DC00006C00288F389E02D80818F7D808308959D
:100DD000EF92FF920F931F93CF93DF93EC0181E08B
:100DE000888F9B8D8C8D981319C0E889F989808133
:100DF00085FF14C09FB7F894EE89FF896083E88966
:100E0000F9898081827480839FBF81E090E0DF91C7
:100E1000CF911F910F91FF90EF900895F62E0B8DBB
:100E200010E00F5F1F4F0F731127E02E8C8D8E1176
:100E30000CC00FB607FCFACFE889F989808185FFDD
:100E4000F5CFCE010E94C706F1CFEB8DEC0FFD2F41
:100E5000F11DE35AFF4FF0829FB7F8940B8FEA8998
:100E6000FB8980818062CFCFCF93DF93EC01888DA7
:100E70008823B9F0AA89BB89E889F9898C9185FD15
:100E800003C0808186FD0DC00FB607FCF7CF8C91A3
:100E900085FFF2CF808185FFEDCFCE010E94C7068E
:100EA000E9CFDF91CF9108958F929F92AF92BF9239
:100EB000CF92DF92EF92FF920F931F93CF93DF9326
:100EC0006C017B018A0180910B01882309F45CC0CD
:100ED00080914D03882309F457C08091260280FF3A
:100EE00005C08091E00082608093E000E801B12CB1
:100EF0008AEFA82E93E0892E2AE3922E209711F4F0
:100F0000BB20D9F10E94880481110AC0AA94AA20AA
:100F1000D9F161E070E080E090E00E944305EECFFF
:100F20008C171D0611F00CF08C2F9FB7F89480924F
:100F3000E9002091E80025FD02C09FBFDFCF282FE8
:100F400030E0C21BD30BF701815020F04191409358
:100F5000F100FACFE20EF31EBB2021F09092E800E0
:100F6000B12CEBCF8091E80085FDE7CF9092E800AF
:100F7000BB24B394209709F3F3CF5D9884E6809364
:100F80002502101611063CF081E090E0F6019383F3
:100F9000828310E000E0C801DF91CF911F910F9193
:100FA000FF90EF90DF90CF90BF90AF909F908F9089
:100FB0000895CF93DF931F92CDB7DEB76983DC012D
:100FC000ED91FC910280F381E02D41E050E0BE0103
:100FD0006F5F7F4F09950F90DF91CF9108950F9329
:100FE0001F93CF93DF938C01D0E0C0E0F801EC0FAA
:100FF000FD1F6491662341F08BE794E00E94D907BE
:10100000892B11F02196F2CFCE01DF91CF911F9164
:101010000F91089583E08093E9008091F200882386
:1010200019F08AE38093E80008950E94880490E014
:101030000895CF93DF931F92CDB7DEB7FC0184856F
:10104000958597FD08C02FEF3FEF358724870F90D8
:10105000DF91CF910895CE0101960E945E04019721
:1010600019F4898190E0F3CF8FEF9FEFF0CF0F93CA
:101070001F93CF93DF931F92CDB7DEB78C01FC0196
:101080008485958597FF0BC0CE0101960E945E0472
:10109000019771F4898190E0F80195878487F801C0
:1010A000848595850F90DF91CF911F910F910895C1
:1010B0008FEF9FEFF1CFFC018485958597FD0BC0E5
:1010C0009FB7F89482E08093E9008091F2009FBF7F
:1010D00090E0019608959FB7F89482E08093E9002C
:1010E0008091F2009FBF90E008952091FC01260FAF
:1010F0003327331F21323105ECF420917403FC01B6
:1011000090E080E0243069F082E00895A091FC0135
:101110002191AC0144525E4FA40FB52FB11D2C9309
:101120000196861798F38091FC01680F6093FC018B
:1011300080E0089581E008951092740381E0809327
:10114000730310924E0361E082E00E94AD0461E0FF
:1011500083E00E94AD04E9EBF0E080818E7F808324
:1011600080818D7F808388E48093B80085E48093BC
:10117000BC000895CF93DF9391E090932E028823D3
:10118000B9F0C091B800D091BA008091BC008A7BC0
:101190008093BC0060E082E00E94AD0460E083E0E8
:1011A0000E94AD040E949C08D093BA00C093B8007E
:1011B000DF91CF9108958F929F92AF92BF92CF927D
:1011C000DF92EF92FF920F931F93CF93DF93D09113
:1011D0009D03D13208F0D7C0182FC0919C030E9404
:1011E0001E056B017C018091740381116BC082E04C
:1011F00080937403109373038FEF809372031092A4
:101200007103D0937003ACE7B3E0E0E5F3E080E076
:10121000D81391C010924F0380914F03CC0FC82B6D
:10122000C0934F0380914E03813009F088C0109223
:101230004E030E941E056B017C0180914F03809339
:10124000BB008091760390917703A0917803B091D1
:101250007903892B8A2B8B2BA1F00E941E0500910C
:1012600076031091770320917803309179036C19FC
:101270007D098E099F09061717072807390708F403
:1012800042C08091BC0083FDD8CF85EC8093BC0028
:101290000E941E056B017C0180917403823009F469
:1012A00050C0809172038F3F09F46FC08091720328
:1012B000803209F46CC080917203803309F469C0F4
:1012C00084E026C08091760390917703A091780303
:1012D000B0917903892B8A2B8B2B09F484CF0E9440
:1012E0001E058090760390907703A0907803B090CD
:1012F00079036C197D098E099F0986169706A80641
:10130000B90608F070CF809175030E94BA0885E095
:1013100010927B0310929D0310927A03DF91CF917C
:101320001F910F91FF90EF90DF90CF90BF90AF9003
:101330009F908F9008959D9191938F5F69CF85EED7
:10134000A5CF8091760390917703A0917803B09117
:101350007903892B8A2B8B2B09F49ECF0E941E05C3
:1013600000917603109177032091780330917903EF
:101370006C197D098E099F09061717072807390779
:1013800008F08ACFC0CF81E0C3CF80E0C1CF82E038
:10139000BFCF83E0BDCFE0912D0280912C02E817F2
:1013A00030F4F0E0E454FE4F808190E008958FEF38
:1013B0009FEF089590912D0280912C022FEF3FEF27
:1013C000981748F4E92FF0E0E454FE4F208130E014
:1013D0009F5F90932D02C901089580912C029091F6
:1013E0002D02891B990B0895CF92DF92EF92FF9205
:1013F0000F931F93CF93DF937C01CB018A01209140
:101400007A03222389F0EB016B01C40ED51ECC15A3
:10141000DD0569F06991D701ED91FC910190F081B2
:10142000E02DC7010995F3CF642F0E947508C8010C
:10143000DF91CF911F910F91FF90EF90DF90CF90B0
:101440000895CF93DF931F92CDB7DEB769832091C4
:101450007A032223F9F020919D03203258F021E0F5
:1014600030E0FC013383228390E080E00F90DF9135
:10147000CF91089580917B03E82FF0E0E458FC4F72
:10148000998190838F5F80937B0380939D0381E09C
:1014900090E0ECCF61E0CE0101960E947508F7CF95
:1014A00090E080E008958F929F92AF92BF92EF926A
:1014B000FF920F931F93CF93DF93F82E8091FC043C
:1014C000282F30E0F901EE0FFF1FE20FF31FE95262
:1014D000FB4F908196FD53C08C3008F050C086E0E1
:1014E0000E943F048091FC04282F30E0F901EE0FA8
:1014F000FF1FE20FF31FE952FB4F9081907C966033
:1015000090831092FD041092FE042CE0622F0E9442
:101510009D2E829FB001112430E020E0AB01420FEC
:10152000531FFA01EE0FFF1FE40FF51FE952FB4FA7
:10153000908196FD16C02F5F3F4F2C30310571F71B
:1015400081110FC01092800082E080938100109280
:10155000850010928400B19A80916F008260809320
:101560006F00E091FC048E2F90E0FC01EE0FFF1F56
:10157000E80FF91FE952FB4F808180648083E0907F
:10158000FC048BE08E1508F451C08091FE0408E540
:1015900012E0081B110987FD1395000F111F000FA2
:1015A000111F8091FD04C8E8D0E0C81BD10987FD58
:1015B000D395CC0FDD1FCC0FDD1F4E010D2E000C7F
:1015C000AA08BB08AF2DB0E0A53BB10514F0A4EB11
:1015D000B0E09801012E000C440B550B2819390975
:1015E0004A095B090E94082A24EB30E040E050E001
:1015F0000E94DE29820E931EA41EB51E8C169D0627
:101600002CF0E801801691060CF4E4012297CC0F2F
:10161000DD1F2FB7F894F12CF701EE0FFF1FEE0D31
:10162000FF1DE952FB4FD283C1832FBFDF91CF91C2
:101630001F910F91FF90EF90BF90AF909F908F9070
:1016400008950E94530A0E94750561157105810570
:10165000910549F060937F0270938002809381022C
:1016600090938202089581E090E0A0E0B0E0809342
:101670007F0290938002A0938102B093820208952A
:10168000CF93C42F91E090937A0380939C031092A0
:101690007B0310929D038BEC94E00E94210A6C2F37
:1016A0008BEC94E00E94210A81E00E94DB0891E02B
:1016B000811190E0892FCF9108954F925F926F92A0
:1016C0007F928F929F92AF92BF92FF920F931F9340
:1016D000CF93DF93D82F042FF52E122F81E0809324
:1016E0007A03D0939C0310927B0310929D038BECA2
:1016F00094E00E94210A80E00E94DB08C82F81113B
:10170000CCC00E941E054B015C01809174038111C5
:1017100065C081E080937403809373039FEF90937F
:10172000720310927103910F9093700380934F0393
:1017300080914F03DD0FD82BD0934F0380914E0340
:10174000813009F084C010924E030E941E054B01A7
:101750005C0180914F038093BB0080917603909150
:101760007703A0917803B0917903892B8A2B8B2B77
:10177000A1F00E941E054090760350907703609080
:10178000780370907903681979098A099B094616CC
:1017900057066806790608F442C08091BC0083FDB4
:1017A000D8CF85EC8093BC000E941E054B015C01E4
:1017B00080917403813009F44CC0809171038117CA
:1017C00008F069C080917103A0E5B3E0ECEBF1E0B3
:1017D000C81749F19D919193CF5FFACF809176031D
:1017E00090917703A0917803B0917903892B8A2B8C
:1017F0008B2B09F48ACF0E941E05409076035090EF
:1018000077036090780370907903681979098A09E1
:101810009B09461657066806790608F076CF809130
:1018200075030E94BA0810922D02C0932C021C135B
:1018300034C0B02EC02FDF2D8BEC94E00E94DA096B
:1018400089938C2F8B198117B8F381E027C085EE1F
:10185000A9CF8091760390917703A0917803B091FE
:101860007903892B8A2B8B2B09F4A2CF0E941E05AA
:1018700040907603509077036090780370907903DE
:10188000681979098A099B09461657066806790678
:1018900008F08ECFC4CF812F97CF80E0DF91CF911A
:1018A0001F910F91FF90BF90AF909F908F907F906E
:1018B0006F905F904F900895EF92FF920F931F9358
:1018C000CF93DF93CDB7DEB72C970FB6F894DEBF7A
:1018D0000FBECDBF7C018B012CE0AE014F5F5F4F8F
:1018E0006DE288E60E945D0B882361F129813A81CF
:1018F000322723273227F701318320832B813C8134
:10190000322723273227338322832D813E813227BA
:1019100023273227358324832F81388532272327B5
:101920003227F8013183208329853A8532272327FE
:101930003227338322832B853C8532272327322786
:10194000358324832C960FB6F894DEBF0FBECDBF2F
:10195000DF91CF911F910F91FF90EF9008952F92FB
:101960003F924F925F926F927F928F929F92AF922F
:10197000BF92CF92DF92EF92FF920F931F93CF937C
:10198000DF93CDB7DEB728970FB6F894DEBF0FBE52
:10199000CDBF98878F837B0126E0AE014F5F5F4FFD
:1019A00067EF87E70E945D0B082F882309F4E9C1E0
:1019B00019812A803B808C8190E0B0E0A0E02CE08F
:1019C000880F991FAA1FBB1F2A95D1F74D8150E0A0
:1019D00070E060E034E0440F551F661F771F3A95B2
:1019E000D1F7842B952BA62BB72B2E8130E044E02A
:1019F000359527954A95E1F7032E000C440B550BBE
:101A0000822B932BA42BB52B40912F0250913002A7
:101A100070E060E02C013D01E4E075946794579418
:101A20004794EA95D1F7441A550A660A770AF3E013
:101A3000B595A79597958795FA95D1F7440F551FBA
:101A4000661F771F5C016D01A41AB50AC60AD70A82
:101A5000A6019501A0913102B09132020E94082A9C
:101A60004B015C013BE0B594A794979487943A9519
:101A7000D1F7A3019201C301B2010E948D2E9B01F7
:101A8000AC016CE055954795379527956A95D1F748
:101A9000A0913302B09134020E94082A2B013C012C
:101AA0007EE075946794579447947A95D1F7480CE3
:101AB000591C6A1C7B1C409247025092480260925B
:101AC000490270924A02A5E0B0E0A30192010E948F
:101AD000FD2960587F4F8F4F9F4F672F782F892F99
:101AE000992787FD9A950E94942B20E030E048ECDE
:101AF00052E40E94EA2AF701608371838283938310
:101B000073016201F594E794D794C794FAEFDF1A52
:101B1000E108F108C701B601A2E095958795779590
:101B20006795AA95D1F79B01AC010E948D2E4B01C0
:101B30005C01A0913902B0913A02AC019B018DE0A9
:101B400055954795379527958A95D1F70E94082A8C
:101B50002B013C0193E075946794579447949A95B0
:101B6000D1F7A0913702B0913802A70196010E94E7
:101B7000082A9B01AC015595479537952795240D6B
:101B8000351D461D571D72E155954795379527958B
:101B90007A95D1F730584F4F5F4FA0913502B091F1
:101BA00036020E94FD292B013C01EFE075946794F9
:101BB00057944794EA95D1F7411451046104710494
:101BC00009F404C1A50194018BE05595479537951B
:101BD00027958A95D1F7A0913F02B09140020E94CB
:101BE000082A4B015C01A0913D02B0913E02A70181
:101BF00096010E94082ADC01CB01880F991FAA1FB9
:101C0000BB1F880D991DAA1DBB1D6C017D0132E013
:101C1000F594E794D794C7943A95D1F7212F30E003
:101C200050E040E06CE0220F331F441F551F6A95BF
:101C3000D1F7822D90E0B0E0A0E074E0880F991F0A
:101C4000AA1FBB1F7A95D1F7282B392B4A2B5B2B68
:101C5000832D90E0E4E095958795EA95E1F7092ECC
:101C6000000CAA0BBB0B282B392B4A2B5B2B80912A
:101C70003B0290913C02092E000CAA0BBB0BDC012D
:101C8000992788278C0D9D1DAE1DBF1D1CE0B595A5
:101C9000A795979587951A95D1F7280F391F4A1F51
:101CA0005B1FABECB3EF0E940B2A805B9C4397FD5C
:101CB00082C0660F771F881F991FA30192010E949F
:101CC000472A29013A01C301B20123E0969587957D
:101CD000779567952A95D1F79B01AC010E948D2ECF
:101CE0009B01AC016DE056954795379527956A9510
:101CF000D1F7A0914502B09146020E94082A6B01DB
:101D00007C017CE0F594E794D794C7947A95D1F759
:101D1000A3019201E2E05695479537952795EA95FC
:101D2000D1F7A0914302B09144020E94082A9B017E
:101D3000AC01FDE05595479537952795FA95D1F774
:101D40002C0D3D1D4E1D5F1DC0904102D0904202E2
:101D50000D2C000CEE08FF082C0D3D1D4E1D5F1DC7
:101D6000A4E05595479537952795AA95D1F7420E4A
:101D7000531E641E751EEF81F88540825182628277
:101D80007382802F28960FB6F894DEBF0FBECDBFAA
:101D9000DF91CF911F910F91FF90EF90DF90CF9047
:101DA000BF90AF909F908F907F906F905F904F907B
:101DB0003F902F900895A30192010E94472A290184
:101DC0003A01440C551C661C771C7DCF412C512CCC
:101DD0003201D1CF0F931F93CF93DF93CDB7DEB7EF
:101DE0002C970FB6F894DEBF0FBECDBF8C01CB0190
:101DF000BA012AE0AE014F5F5F4F0E947527FE01D6
:101E00003196C8012191222341F033E08D3D9307A3
:101E100020F4DC012D93CD01F5CF2C960FB6F8946C
:101E2000DEBF0FBECDBFDF91CF911F910F910895FF
:101E3000FB0101900020E9F73197AF01461B570BDA
:101E4000DC01ED91FC910280F381E02D09948F92E9
:101E50009F92AF92BF920F931F93CF93DF93CDB713
:101E6000DEB7A1970FB6F894DEBF0FBECDBF19A2A3
:101E7000423008F44AE08E010F5D1F4F842E912CF2
:101E8000B12CA12CA50194010E94472AE62FB9018B
:101E9000CA01EA3004F5E05DD801EE938D01232BF1
:101EA000242B252B79F790E080E0109729F0BD01D5
:101EB0008BE794E00E94180FA1960FB6F894DEBF4E
:101EC0000FBECDBFDF91CF911F910F91BF90AF900B
:101ED0009F908F900895E95CDFCFCF92DF92EF92D1
:101EE000FF92CF93DF9397FF1BC06B017C016DE2E4
:101EF0008BE794E00E94D907EC0166277727CB0196
:101F00006C197D098E099F094AE00E94270F8C0FEA
:101F10009D1FDF91CF91FF90EF90DF90CF900895BC
:101F20004AE0DF91CF91FF90EF90DF90CF900C943B
:101F3000270F4F925F926F927F928F929F92AF92F4
:101F4000BF92CF92DF92EF92FF920F931F93CF93A6
:101F50006B017C01742EAC019B010E944C2D69E940
:101F600071E0811126C046015701E894B7F82FEFC0
:101F70003FEF4FE75FE7C501B4010E944C2D81118F
:101F80000CC02FEF3FEF4FE75FE7C501B4010E94A0
:101F9000E52A6DE971E0181664F02FEF3FEF4FE787
:101FA0005FE4C701B6010E94442C1816ACF461EA44
:101FB00071E08BE794E0CF911F910F91FF90EF902C
:101FC000DF90CF90BF90AF909F908F907F906F9059
:101FD0005F904F900C94180F2FEF3FEF4FE75FEC9F
:101FE000C701B6010E94E52A87FDE1CF20E030E07D
:101FF000A901C701B6010E94E52A10E000E087FFB1
:102000000AC06DE28BE794E00E94D9078C01F7FAD1
:10201000F094F7F8F094C0E060E070E080E09FE3B7
:102020007C1641F020E030E040E251E40E94EA2AD0
:10203000CF5FF6CFA70196010E94792A2B013C01C0
:102040000E94632B4B015C014AE00E94270F7C0138
:10205000E00EF11ECC23C1F1C501B4010E94922B08
:102060009B01AC01C301B2010E94782A4B015C01C3
:102070006EE28BE794E00E94D907E80EF91EC1508A
:1020800018F120E030E040E251E4C501B4010E94C3
:10209000492C2B013C010E94632B4B01B12CA12C3C
:1020A0004AE0C501B4010E94270FE80EF91EC501E0
:1020B000B4010E94922B9B01AC01C301B2010E94AA
:1020C000782A4B015C01DBCFC701CF911F910F91A3
:1020D000FF90EF90DF90CF90BF90AF909F908F9048
:1020E0007F906F905F904F900895CF93DF930E9401
:1020F000EF07EC0165EA71E08BE794E00E94180FAE
:102100008C0F9D1FDF91CF9108950C947510CF9384
:10211000DF93BC01990F880B990B0E946D0FEC01A6
:1021200065EA71E08BE794E00E94180F8C0F9D1F09
:10213000DF91CF910895CF93DF93C42F23E22093B3
:102140009E03AB01BC018FE993E00E94EA0E23E0FD
:102150008D3D920720F42CE7FC0120830196E9E2F3
:10216000F3E0CF3048F4EC2FF0E0EE0FFF1FEC5E11
:10217000FE4F0190F081E02DEC018491882339F02D
:10218000319623E0CD3DD20710F48993F6CF188223
:102190008EED93E00E947606CE59D340CE5FC817ED
:1021A000190609F084F46EE973E08EED93E00E9465
:1021B000180F65EA71E08EED93E00E94180F81E040
:1021C000DF91CF91089580E0FBCFCF93C5E0809160
:1021D0004B028823E1F0E0914C02CE9FF0011124E4
:1021E000E855FE4F608171818281938144810E9414
:1021F0009B10882361F080914C028F5F83708093E5
:102200004C0280914B02815080934B02E0CFCF91E2
:102210000895CF92DF92EF92FF92CF93C82F0E9442
:1022200075056B017C0180918C028130D9F40E948C
:10223000E51080914B02882371F080914B0284302D
:1022400089F58091B4029091B50201969093B50200
:102250008093B40207C04C2FC701B6010E949B10A7
:10226000882359F384E293E00E94EF074AE0C70114
:10227000B6010E94270F81E293E00E94EF0789E2F6
:1022800093E0CF3040F4EC2FF0E0EE0FFF1FEC5E58
:10229000FE4F80819181CF91FF90EF90DF90CF90A2
:1022A0000C947510E0914C02E80FE37095E0E99F03
:1022B000F0011124E855FE4FC082D182E282F38200
:1022C000C4838F5F80934B02CDCFCF93C82F88E715
:1022D0000E94530A82E08093B1020E9475056093C8
:1022E0007A0270937B0280937C0290937D0210921D
:1022F0007E028AE0C1118EE0CF910C940911909179
:10230000B6029817E9F08093B602833089F028F47A
:10231000813049F0823051F00895853069F050F0F5
:10232000873061F0089586E00C94091187E0FCCFB6
:1023300088E0FACF89E0F8CF8BE0F6CF8CE0F4CFDD
:1023400008952091B2023091B302A9014823592384
:10235000452B69F4282B392B3093B3022093B2021A
:1023600087709927892B19F08DE00C940911089535
:1023700085ED8093BC008091760390917703A091C6
:102380007803B09179030796A11DB11D23E0B6959E
:10239000A795979587952A95D1F72091BC0024FDA4
:1023A00003C010927403089540917603509177030F
:1023B0006091780370917903452B462B472B69F385
:1023C0000097A105B10541F02AE22A95F1F700C076
:1023D0000197A109B109E1CF809175030C94BA0866
:1023E0001F920F920FB60F9211242F933F938F934A
:1023F0009F93AF93BF938091380390913903A0913D
:102400003A03B0913B033091370323E0230F2D377C
:1024100058F50196A11DB11D209337038093380311
:1024200090933903A0933A03B0933B0380913C030C
:1024300090913D03A0913E03B0913F030196A11DF1
:10244000B11D80933C0390933D03A0933E03B09352
:102450003F03BF91AF919F918F913F912F910F902B
:102460000FBE0F901F90189526E8230F0296A11D0E
:10247000B11DD2CF1F920F920FB60F9211248F93DE
:102480009F938091E1009091E100937F9093E10010
:1024900083FF0FC01092E90091E09093EB0010923F
:1024A000EC0092E39093ED0010924D0398E090932E
:1024B000F00082FF22C093E09093E9009091F20037
:1024C000992319F09AE39093E800909125029923BB
:1024D00041F090912502915090932502911101C0F5
:1024E0005D9A90914C03992341F090914C03915047
:1024F00090934C03911101C0289A84FF18C08091D9
:10250000E2008E7E81608093E2008091E1008F7E08
:102510008093E100809126028E7E80618093260266
:102520009F918F910F900FBE0F901F90189580FF75
:10253000F7CF8091E2008E7E80618093E2008091EF
:10254000E1008E7E8093E100809126028E7E816084
:10255000E5CF1F920F920FB60F921124CF92DF9208
:10256000EF92FF920F931F932F933F934F935F939D
:102570006F937F938F939F93AF93BF93EF93FF934B
:10258000CF93DF93CDB7DEB76C97DEBFCDBF109290
:10259000E9008091E80083FF25C068E0CE01459600
:1025A0000E943C0682EF8093E8008D8987FF39C046
:1025B0009091E80090FFFCCF982F907609F034C1FD
:1025C0009E894F89588D2F89F88C911131C08038A0
:1025D00061F5809127028093F1001092F1008EEF57
:1025E0008093E8006C960FB6F894DEBF0FBECDBFA7
:1025F000DF91CF91FF91EF91BF91AF919F918F911B
:102600007F916F915F914F913F912F911F910F910A
:10261000FF90EF90DF90CF900F900FBE0F901F9024
:1026200018959EEF9093E800C7CF1092F100D5CF98
:10263000913059F48111D3CF4130510581F6809109
:1026400027028D7F80932702CACF933049F48111EE
:10265000C6CF4130510519F6809127028260F2CF32
:10266000953041F48091E80080FFFCCF20682093F2
:10267000E300B5CF963009F0A9C00B8D1C8D22E088
:102680001092E9001092230210922202F2122EC040
:1026900010922102109220020E940B061F8299E0E4
:1026A0009983FA8291E09E8390EA98879AEF9987BE
:1026B0002091220230912302275F3F4F3C832B83DE
:1026C0008D831092E900109223021092220210933F
:1026D00021020093200249E050E0BE016F5F7F4F6E
:1026E00080E00E94E5050E940B0679CF109321023D
:1026F000009320020E949904DC0112960D911C9116
:102700000115110509F451C1D801ED91FC91048026
:10271000F581E02DBE016B5E7F4FC80109950097E2
:1027200009F03EC1F80100851185EACFF3E0FF1200
:102730000EC08F89882309F440C0823061F440E8DC
:1027400060E18FE893E00E94B205811148CF81E2F9
:102750008093EB0047CF813029F440E86BE083E8B9
:1027600093E0F1CF833099F70E949904DC0112962F
:10277000ED90FC908E010F5F1F4F6801E114F10492
:1027800079F0D701ED91FC910680F781E02DB80139
:10279000C7010995080F111DF701E084F184EECF00
:1027A000D8011C92F60101900020E9F73197BF0192
:1027B0006C197D0940E0C601C6CF6DE673E0FB01F0
:1027C000449150E080E80E94E50509CF973009F474
:1027D000BECF983021F481E08093F10000CF993092
:1027E00009F0FDCE837009F0B2CFE3E3F1E081E0C0
:1027F00031E096E32191222371F08093E900309338
:10280000EB00DF0111972C912093EC009093ED00E9
:102810008F5F873079F78EE78093EA001092EA00A5
:102820008F8980934D03DBCE8B8D9C8D1092E900B8
:102830001092230210922202909321028093200290
:10284000898D811192C08E899D89913A49F4813296
:1028500009F07DCF47E050E064E071E080E0B3CF65
:10286000913209F074CF833269F48F89988DB0E08A
:10287000A0E08093000190930101A0930201B09326
:102880000301ADCE803269F48091E80082FFFCCF75
:1028900067E084E091E00E943C068BEF8093E800C3
:1028A0009ECE823209F09BCE8F8980930B01EEEF92
:1028B000FFE7859194918B3F9C4D51F1E0E0F8E06A
:1028C0008091040190910501A0910601B09107014A
:1028D000803B9440A105B105F1F480910B0180FD8E
:1028E0001AC0EE3F8AE0F80789F587E797E79183FA
:1028F0008083809160008093240288E19BE00FB682
:10290000F894A895809360000FBE9093600067CE06
:10291000EEEFFAE0D5CF808191818737974709F0B4
:102920005ECEA89580916000886180936000809160
:10293000240280936000EE3F2AE0F20789F0809144
:10294000FE0A9091FF0A9183808349CE8081918114
:102950008737980751F29093FF0A8093FE0AC5CFFC
:102960001092FF0A1092FE0A3ACE0E949904DC01EE
:1029700012960D911C910115110509F4E8CED801AC
:10298000ED91FC910190F081E02DBE016B5E7F4FD7
:10299000C8010995811123CEF80100851185EBCF7F
:1029A000181619060CF41BCED2CEF1E0FF12BECEE3
:1029B00061E773E004CF1F920F920FB60F921124BC
:1029C0002F933F934F935F936F937F938F939F9337
:1029D000AF93BF93EF93FF938EED93E00E94C706F2
:1029E000FF91EF91BF91AF919F918F917F916F91E7
:1029F0005F914F913F912F910F900FBE0F901F90BD
:102A000018951F920F920FB60F9211242F938F9348
:102A10009F93EF93FF93E091EE03F091EF0380819A
:102A2000E091F403F091F50382FD1BC09081809149
:102A3000F7038F5F8F732091F803821741F0E091C5
:102A4000F703F0E0E252FC4F958F8093F703FF917C
:102A5000EF919F918F912F910F900FBE0F901F902C
:102A600018958081F4CF1F920F920FB60F92112408
:102A70002F933F934F935F936F937F938F939F9386
:102A8000AF93BF93CF93DF93EF93FF9380911F0298
:102A9000C091FB04D0E087FF24C010928500109203
:102AA000840080911F028F5F80931F0280911F021C
:102AB000082E000C990B8C179D0724F480911F029F
:102AC0008C30C4F18091840090918500049680340C
:102AD0009C4908F47AC08091840090918500049606
:102AE00076C080911F02082E000C990B8C179D0751
:102AF000C4F6E0911F028E2FEE0F990BFC01EE0F32
:102B0000FF1FE80FF91FE952FB4F808186FFC9CFF5
:102B1000E0911F028E2FEE0F990BFC01EE0FFF1FAD
:102B2000E80FF91FE952FB4F808160E08F730E942C
:102B3000AD04B7CF2091840030918500E0911F0251
:102B40008E2FEE0F990BFC01EE0FFF1FE80FF91F00
:102B5000E952FB4F81819281820F931F90938900EC
:102B600080938800E0911F028E2FEE0F990BFC01DD
:102B7000EE0FFF1FE80FF91FE952FB4F808186FF20
:102B800011C0E0911F028E2FEE0F990BFC01EE0F8A
:102B9000FF1FE80FF91FE952FB4F808161E08F733F
:102BA0000E94AD04FF91EF91DF91CF91BF91AF9162
:102BB0009F918F917F916F915F914F913F912F9155
:102BC0000F900FBE0F901F90189580E49CE9909392
:102BD0008900809388008FEF80931F02E3CF1F92BC
:102BE0000F920FB60F9211242F933F934F935F9341
:102BF0006F937F938F939F93AF93BF93EF93FF93C5
:102C00008091B900887F803609F44AC0F0F5883297
:102C100009F4A7C018F5803109F49BC0B8F48823E3
:102C200009F4F9C0883009F494C0FF91EF91BF9185
:102C3000AF919F918F917F916F915F914F913F9154
:102C40002F910F900FBE0F901F901895883109F4A7
:102C500088C0803251F78093720314C0803409F425
:102C60009DC040F48033B9F38833F9F68093720342
:102C700085ECB0C0803509F485C0883509F496C06C
:102C8000883499F60E94B811D0CF883909F48CC0E5
:102C900038F5883729F050F4883611F0803729F656
:102CA00083E08093740310921E0257C0883809F4A1
:102CB0007BC0803919F0803809F0B7CF80911E02AF
:102CC000803208F071C0E0911E0281E08E0F809387
:102CD0001E028091BB00F0E0E250FE4F80833DC0B9
:102CE000803B39F0E0F4803A09F479C0883A09F081
:102CF0009CCF84E0809374031092FD011092FC013C
:102D0000E0912A02F0912B0209958091FC0181113A
:102D10000FC081E08093FC011092DC0109C0803C6F
:102D200009F4A6CF883C09F4A3CF883B09F07DCFF6
:102D3000E091FD0181E08E0F8093FD01F0E0E4520F
:102D4000FE4F80818093BB009091FD018091FC013A
:102D500029C080914F038093BB0085EC8093BC0019
:102D600064CF9091710380917003981758F5E091AA
:102D7000710381E08E0F80937103F0E0E05BFC4F04
:102D80008081E9CFE091710381E08E0F8093710320
:102D90008091BB00F0E0E05BFC4F80839091710379
:102DA000809170039817C8F285E8D8CFE09171033D
:102DB00081E08E0F809371038091BB00F0E0E05BB7
:102DC000FC4F80838091730381115CCF81E08093FD
:102DD0004E0384EA8093BC001092740326CF85ECE6
:102DE0008093BC001092740380911E02803230F4F4
:102DF000E0911E02F0E0E250FE4F108260911E0250
:102E000070E0E0912802F09129028EEF91E009959F
:102E100010921E020ACF1092720334CF1092E10377
:102E20001092E00388EE93E0A0E0B0E08093E2032C
:102E30009093E303A093E403B093E50327E631E026
:102E40003093DF032093DE032DEC30E03093EB036F
:102E50002093EA032CEC30E03093ED032093EC0355
:102E600028EC30E03093EF032093EE0329EC30E0C0
:102E70003093F1032093F0032AEC30E03093F30316
:102E80002093F2032EEC30E03093F5032093F4030B
:102E90001092F7031092F8031092F9031092FA03BC
:102EA00010927E0410927D0480937F04909380049E
:102EB000A0938104B093820429E731E030937C042D
:102EC00020937B042FEF3FEF3093880420938704F7
:102ED0001092CE041092CD048093CF049093D0042E
:102EE000A093D104B093D2048BE891E09093CC04EA
:102EF0008093CB048091FB048C3098F491E0980F80
:102F00009093FB048093FC0490E0FC01EE0FFF1F04
:102F1000E80FF91FE952FB4F88EB9BE09283818316
:102F200008958FEF8093FC040895CF93DF93CDB77E
:102F3000DEB7A6970FB6F894DEBF0FBECDBF78946C
:102F400084B5826084BD84B5816084BD85B58260AE
:102F500085BD85B5816085BD80916E00816080935F
:102F60006E001092810080918100826080938100C8
:102F700080918100816080938100809180008160D8
:102F80008093800080919100826080939100809175
:102F90009100816080939100809190008160809386
:102FA00090008091C10084608093C1008091C10035
:102FB00082608093C1008091C10081608093C100D4
:102FC0008091C30081608093C3008091C0008260C3
:102FD0008093C0008091C20081608093C200809184
:102FE0007A00846080937A0080917A008260809376
:102FF0007A0080917A00816080937A0080917A00D3
:10300000806880937A0010924D03109227021092EC
:1030100026028091D70081608093D70080EA809358
:10302000D80089B5806189BD89B5826089BD09B440
:1030300000FEFDCF61E070E080E090E00E9443057B
:103040008091D8008F7C80618093D8008091E000CF
:10305000807F8093E0008091E1008E7E8093E1008C
:103060008DE08093E200559A209A8FEF9FEF909326
:1030700088048093870485E00E943F0460E085E037
:103080000E94AD041092B3021092B20210928E020E
:1030900010928F02109290021092910210928D0263
:1030A00080E00E94091110922D0210922C021092C1
:1030B0007B0310929D030E949C0882E895E0909308
:1030C0002B0280932A0283E895E090932902809353
:1030D00028028CE08093B80010922E0288EB9BE0CF
:1030E000A0E0B0E08093760390937703A0937803F9
:1030F000B093790381E08093750310924D02109292
:103100004E0210924F0210925002109251021092F1
:1031100052021092530210925402109255021092D1
:103120005602109257021092580210929202109278
:1031300093021092940210929502109259021092EA
:103140005A0210925B0210925C0210925D02198288
:1031500040E06FE788E60E94400B21E0AE014F5F40
:103160005F4F60E088E60E945D0B082F882309F41A
:1031700061C089818A3E09F037C340E866E088E68D
:103180000E94400B64E670E080E090E00E944305FE
:1031900040E06FE788E60E94400B41E066E088E689
:1031A0000E94400B6EE170E080E090E00E944305D9
:1031B00040E067E088E60E94400B6EE170E080E04E
:1031C00090E00E94430540E26FE788E60E94400BD2
:1031D00080E090E0A0E0B5E48093100190931101AD
:1031E000A0931201B093130147E064E188E60E94C6
:1031F000400B83E393E3A3E8B1E480930C01909345
:103200000D01A0930E01B0930F0147E061E088E645
:103210000E94400B40E060E088E60E94400B6EE1B7
:1032200070E080E090E00E94430540E06FE788E6B0
:103230000E94400B198E21E0AE01475E5F4F60EDAA
:1032400087E70E945D0B8111D1C210E083ED93E00E
:103250000E94EF0785EA95E00E94EF078CEB93E070
:10326000011102C080EB93E00E94751080EC93E0A6
:103270000E94EF078FEA95E00E94EF078CEA93E047
:10328000111102C080EA93E00E94751001110C94A4
:103290003F2784E090E00E94A111111104C082E058
:1032A00090E00E94A11181E090E00E94A11110E045
:1032B00064EF71E080E090E00E9443051092B1025B
:1032C00010927A0210927B0210927C0210927D0280
:1032D00010927E0284E10E94530A6CE271E080E069
:1032E00090E00E944305E091FC048E2F90E0FC01E9
:1032F000EE0FFF1FE80FF91FE952FB4F80818F7B14
:10330000808310928302E091EE03F091EF0382E05C
:103310008083E091EA03F091EB031082E091EC03EB
:10332000F091ED038FEC80831092F603E091F203AD
:10333000F091F30386E08083E091F003F091F103D4
:10334000808180618083E091F003F091F1038081BE
:1033500088608083E091F003F091F10380818068C0
:103360008083E091F003F091F10380818F7D808371
:1033700081E080938C021092B5021092B4021092F8
:103380008B0210928A0210924C0210924B0284E03F
:103390000E940911112309F4F8C00091B20202FD44
:1033A000A6C020E4322E10E0C12CD12C76014601BB
:1033B000570126013701BE016F5F7F4FCE0149964D
:1033C0000E945C0C882389F169817A81072E000CA8
:1033D000880B990B0E94942B9B01AC01C301B20195
:1033E0000E94792A2B013C016B817C81072E000C05
:1033F000880B990B0E94942B9B01AC01C501B40171
:103400000E94792A4B015C016D817E81072E000CA0
:10341000880B990B0E94942B9B01AC01C701B6014C
:103420000E94792A6B017C011F5F65E070E080E0FB
:1034300090E00E9443053A943110BDCF112309F466
:1034400056C020910C0130910D0140910E01509118
:103450000F012BA33CA34DA35EA3612F70E090E06E
:1034600080E00E94942B6F8F78A389A39AA39B017D
:10347000AC01C301B2010E94EA2A2BA13CA14DA1DB
:103480005EA10E94EA2A60935502709356028093CF
:103490005702909358022F8D38A149A15AA1C50116
:1034A000B4010E94EA2A2BA13CA14DA15EA10E9479
:1034B000EA2A6093510270935202809353029093D0
:1034C00054022F8D38A149A15AA1C701B6010E940B
:1034D000EA2A2BA13CA14DA15EA10E94EA2A609399
:1034E0004D0270934E0280934F029093500201FD63
:1034F0004CC008E210E080E3C82E85E7D82EE12C0E
:10350000F12C90EC892E94ED992EAA24A394B12C41
:10351000412C512C3201BE016F5F7F4FCE01499685
:103520000E94AF0C882311F1898D9A8DAB8DBC8DD3
:10353000AC01BD01405355476109710941395F45EF
:103540006140710598F4480E591E6A1E7B1E88154D
:103550009905AA05BB0514F44C015D01C816D906EE
:10356000EA06FB0614F46C017D011F5F64E170E064
:1035700080E090E00E944305015069F6143108F0A4
:10358000B7C182E090E00E94A1111092B6021092A1
:103590008402109285021092860210928702109285
:1035A000AD021092AE021092AF021092B0021092D1
:1035B0006A0210926B0210926C0210926D021092CD
:1035C00066021092670210926802109269021092CD
:1035D00062021092630210926402109265021092CD
:1035E0005E0210925F0210926002109261021092CD
:1035F000720210927302109274021092750210926D
:10360000760210927702109278021092790210924C
:103610006E0210926F0210927002109271028091ED
:10362000B2029091B30287709927892B21F089ED1E
:1036300093E00E9475101092890210928802809186
:10364000B2029091B30287709927892B09F47AC14D
:1036500088E00E947F111092AC021092A802109292
:10366000A9021092AA021092AB020E947505609303
:10367000FD027093FE028093FF029093000360931B
:1036800001037093020380930303909304036093F8
:103690003303709334038093350390933603609320
:1036A000B8027093B9028093BA029093BB02609300
:1036B000F5027093F6028093F7029093F8026093FC
:1036C000F9027093FA028093FB029093FC02332478
:1036D00033941CE7212E0E9475052B013C0180913B
:1036E000330390913403A0913503B09136032091B8
:1036F000A70253014201881A990AAA0ABB0AD501F6
:10370000C401222309F4FCC44497A105B10508F4BF
:103710001FC240923303509234036092350370927B
:1037200036038090A3029090A402A090A502B090CE
:10373000A60280919F029091A002A091A102B09157
:10374000A20273016201C81AD90AEA0AFB0AC70178
:10375000B6010E94922B20E030E04AE754E40E9438
:10376000EA2A6B017C0140929F025092A002609273
:10377000A1027092A20220E030E0A9010E94E52A95
:1037800018160CF0E8C020E030E040E05FE3C7012D
:10379000B6010E94442C18160CF4DDC0930182017E
:1037A000081919092A093B090F8F18A329A33AA35D
:1037B00080919602882309F4D2C010929702109249
:1037C00098021092990210929A0210929B02109203
:1037D0009C0210929D0210929E02C12CD12CF0E806
:1037E000EF2EFFE3FF2EFEC000E024CD898D88354B
:1037F00009F02BCD46EB60EE87E70E94400B6AE0B4
:1038000070E080E090E00E94430528E1AE014F5F48
:103810005F4F68E887E70E945D0B182F882309F443
:1038200014CD29813A813093300220932F028B816D
:103830009C8190933202809331028D819E8190937E
:103840003402809333028F8198859093360280935F
:10385000350249855A8550933802409337024B858B
:103860005C8550933A02409339024D855E855093B2
:103870003C0240933B024F85588950933E0240934F
:103880003D0249895A895093400240933F024B8937
:103890005C8950934202409341024D895E89509366
:1038A0004402409343024F89588D509346024093FF
:1038B000450210924702109248021092490210925B
:1038C0004A02232B09F4C1CC892B09F4BECC48E071
:1038D00065EF87E70E94400B4FE264EF87E70E94A5
:1038E000400B62E370E080E090E00E944305AECCC4
:1038F000212F30E050E040E0C301B2010E94DE29F8
:103900002093920230939302409394025093950235
:10391000C818D908EA08FB0849E7C416D104E1042D
:10392000F10424F080E091E00E94A111109259026C
:1039300010925A0210925B0210925C0281E0809316
:103940005D0223CE8091B102811103C081E080939A
:10395000B10281E07ECEC12CD12C76011FCF8090A8
:103960009B0290909C02A0909D02B0909E022F8D91
:1039700038A149A15AA12A3F31054105510508F056
:1039800065C320E030E04CE852E4C701B6010E9474
:10399000492C2091970230919802409199025091C0
:1039A0009A020E94792A9B01AC01209397023093DE
:1039B00098024093990250939A02C701B6010E945F
:1039C000492CA50194010E94792A60939B0270936F
:1039D0009C0280939D0290939E02C12CD12CE12CDD
:1039E000B1E4FB2E20E030E0A90160919B027091D0
:1039F0009C0280919D0290919E020E94E52A1816D9
:103A0000C4F010929B0210929C0210929D021092A0
:103A10009E021092970210929802109299021092B0
:103A20009A0230929602C12CD12CE0E8EE2EEFE300
:103A3000FE2E60919B0270919C0280919D0290915C
:103A40009E0260930D0370930E0380930F03909377
:103A50001003C0921D03D0921E03E0921F03F09248
:103A6000200310921103109212031092130310926C
:103A7000140310921503109216031092170310925C
:103A80001803C0921903D0921A03E0921B03F0921C
:103A90001C03109221031092220310922303109210
:103AA00024031092250310922603109227031092EC
:103AB00028031092290310922A0310922B031092CC
:103AC0002C032DEC3CEC4CE351E40E94492C0E9469
:103AD0005C2B0091920210919302209194023091FC
:103AE000950248015901861A970AA80AB90AD50110
:103AF000C4018093050390930603A0930703B0933A
:103B00000803A12CB12C70EAC72E71E4D72EA09225
:103B10000903B0920A03C0920B03D0920C033092B7
:103B200032033092310340922D0350922E03609263
:103B30002F0370923003CF8CD8A0E9A0FAA001E245
:103B4000C0160EE4D006E104F10410F01092A702B2
:103B50008091FD029091FE02A091FF02B0910003BE
:103B600053014201881A990AAA0ABB0AD501C40165
:103B70004497A105B10508F491C04092FD0250920E
:103B8000FE026092FF0270920003109132030091D6
:103B9000B602112309F43FC080917602909177021A
:103BA000A0917802B0917902C0900D03D0900E03DD
:103BB000E0900F03F09010030097A105B10509F004
:103BC0007CC4C0927202D0927302E0927402F092AE
:103BD000750240927602509277026092780270925B
:103BE0007902A70196016091AD027091AE028091B9
:103BF000AF029091B0020E94E52A87FF0CC08EEFC1
:103C0000800F823040F4C092AD02D092AE02E092BA
:103C1000AF02F092B002033009F480C508F085C409
:103C2000013009F4BEC4023009F436C5C0908402E4
:103C3000D0908502E0908602F0908702C114D104F2
:103C4000E104F10459F1C301B2016C197D098E0937
:103C50009F096B017C018091B102823069F078EBA1
:103C6000C7167BE0D706E104F10430F081E00E9442
:103C7000651185E00E947F118091B602873071F056
:103C800080E6C8168AEED806E104F10438F080E830
:103C900090E00E94A11187E00E947F1180917F0235
:103CA00090918002A0918102B09182020097A105BB
:103CB000B10519F153014201881A990AAA0ABB0AEF
:103CC000D501C401803B9440A105B105B0F0E0915D
:103CD000FC048E2F90E0FC01EE0FFF1FE80FF91F90
:103CE000E952FB4F80818F7B808310927F0210927C
:103CF000800210928102109282022091B102223041
:103D000049F580917E02811125C080917A029091BF
:103D10007B02A0917C02B0917D02B301A201481BFD
:103D2000590B6A0B7B0BDB01CA01803B9440A10558
:103D3000B10580F0E091FC048E2F90E0FC01EE0FC5
:103D4000FF1FE80FF91FE952FB4F80818F7B8083B3
:103D500030927E028091F9029091FA02A091FB02CA
:103D6000B091FC0273016201C81AD90AEA0AFB0A7F
:103D70008091F5029091F602A091F702B091F802BD
:103D8000B301A201481B590B6A0B7B0B88E2C816D2
:103D9000D104E104F10430F4483C5105610571059A
:103DA00008F4E5C54092BC025092BD026092BE028A
:103DB0007092BF028091840290918502A091860248
:103DC000B09187020097A105B10541F0530142016E
:103DD000881A990AAA0ABB0AD501C4018093C002B5
:103DE0009093C102A093C202B093C3028091880253
:103DF0009091890201969093890280938802909312
:103E0000C5028093C4028091B6028093C6022093BB
:103E1000C7028091050390910603A0910703B0911A
:103E200008038093C8029093C902A093CA02B0937A
:103E3000CB028091090390910A03A0910B03B091EA
:103E40000C038093CC029093CD02A093CE02B0934A
:103E5000CF0280910D0390910E03A0910F03B091BA
:103E600010038093D0029093D102A093D202B0931A
:103E7000D3028091AD029091AE02A091AF02B091B9
:103E8000B0028093D4029093D502A093D602B0934F
:103E9000D7028091110390911203A0911303B09166
:103EA00014038093D8029093D902A093DA02B093BE
:103EB000DB028091150390911603A0911703B09136
:103EC00018038093DC029093DD02A093DE02B0938E
:103ED000DF028091190390911A03A0911B03B09106
:103EE0001C038093E0029093E102A093E202B0935E
:103EF000E3028091210390912203A0912303B091CA
:103F000024038093E4029093E502A093E602B09329
:103F1000E7028091250390912603A0912703B09199
:103F200028038093E8029093E902A093EA02B093F9
:103F3000EB028091290390912A03A0912B03B09169
:103F40002C038093EC029093ED02A093EE02B093C9
:103F5000EF02809183028093F002E0918C02E09363
:103F6000F1028091B2029091B3029C012670332736
:103F7000232B09F46AC422E02093F2029093F40206
:103F80008093F30208E2C016D104E104F10440F08A
:103F90004092F9025092FA026092FB027092FC0287
:103FA000483C51056105710508F4E1C44092F502F1
:103FB0005092F6026092F7027092F802E13009F036
:103FC000DCC40E94E51040918A0250918B024F5F41
:103FD0005F4F50938B0240938A0270E060E08EE95D
:103FE00093E00E94EA0E13E08D3D910718F4DC0186
:103FF0002C9201964091BC025091BD026091BE028C
:104000007091BF020E94EA0EB3E08D3D9B0718F449
:10401000FC0120820196E091C602E93008F018C444
:10402000F0E0EE0FFF1FE75BFE4F0190F081E02D07
:10403000DC017D018491882309F40DC4319603E0ED
:10404000AD3DB00708F00FC48D93F3CF8091B1025E
:104050008230B9F123EC35EF4CE151E4C701B601F0
:104060000E94492C9B01AC016091970270919802CB
:104070008091990290919A020E94782A9B01AC014A
:1040800020939702309398024093990250939A029A
:10409000C701B6010E94492CA50194010E94792A0A
:1040A00060939B0270939C0280939D0290939E026A
:1040B000AAE9CA2EA9E9DA2EA9E1EA2EAEE3FA2E80
:1040C00091CC40E050E060EA70EC4093970250934E
:1040D00098026093990270939A029A01AB01C7010A
:1040E000B6010E94492CA50194010E94792A60938F
:1040F0009B0270939C0280939D0290939E026DCBD5
:104100004497A105B105B8F04092330350923403AF
:104110006092350370923603BE016F5F7F4FCE0110
:1041200049960E945C0C811133C01092310384E0E7
:1041300090E00E94A1118091010390910203A0914F
:104140000303B0910403A3019201281B390B4A0B0E
:104150005B0BDA01C9018897A105B10508F4F8CC19
:104160004092010350920203609203037092040391
:10417000BE016F5F7F4FCE0149960E94AF0C811147
:10418000EAC01092320382E090E00E94A111E0CCDC
:10419000C0901001D0901101E0901201F090130135
:1041A00080900C0190900D01A0900E01B0900F0135
:1041B000698D7A8D072E000C880B990B0E94942B29
:1041C000A70196010E94EA2A6F8F78A389A39AA378
:1041D000609311037093120380931303909314035D
:1041E0006B8D7C8D072E000C880B990B0E94942BF5
:1041F000A70196010E94EA2A6BA37CA38DA39EA32C
:10420000609315037093160380931703909318031C
:104210006D8D7E8D072E000C880B990B0E94942BC0
:10422000A70196010E94EA2A6B017C01C092190342
:10423000D0921A03E0921B03F0921C0369817A81E9
:10424000072E000C880B990B0E94942BA50194015A
:104250000E94EA2A2091550230915602409157025D
:10426000509158020E94782A609321037093220390
:1042700080932303909324036B817C81072E000C91
:10428000880B990B0E94942BA50194010E94EA2AA5
:1042900020915102309152024091530250915402A8
:1042A0000E94782A60932503709326038093270346
:1042B000909328036D817E81072E000C880B990B4B
:1042C0000E94942BA50194010E94EA2A20914D029C
:1042D00030914E0240914F02509150020E94782A34
:1042E0006093290370932A0380932B0390932C03EC
:1042F0002F8D38A149A15AA1CA01B9010E94492CA8
:104300004B015C012BA13CA14DA15EA1CA01B901E9
:104310000E94492C9B01AC01C501B4010E94792A7D
:104320004B015C01A7019601C701B6010E94492C0F
:104330009B01AC01C501B4010E94792A0E940C2D99
:1043400060931D0370931E0380931F0390932003BB
:1043500030923103F0CE698D7A8D8B8D9C8D8B01DF
:104360009C01005315472109310901391F4521409E
:10437000310518F010923203EBCB60930503709374
:104380000603809307039093080309811A812B8108
:104390003C810093090310930A0320930B0330938D
:1043A0000C03C0909202D0909302E0909402F0909F
:1043B00095021C141D041E041F040CF059C00E9419
:1043C000942B4B015C01C701B6010E94942B9B0109
:1043D000AC01C501B4010E94EA2A2BEA3CED42E49B
:1043E0005EE30E94B62C9B01AC0160E070E080E8C7
:1043F0009FE30E94782A20E03AE24DE257E40E94CF
:10440000492C6B017C0120E030E04AEF53E4C70106
:10441000B6019F770E94442C18160CF4ABCF809104
:104420005D02811129C0C0925902D0925A02E092D5
:104430005B02F0925C0230925D0280915902909191
:104440005A02A0915B02B0915C0280930D0390939D
:104450000E03A0930F03B093100340922D035092CC
:104460002E0360922F03709230033092320370CB90
:10447000C12CD12C7601C7CF8090590290905A025E
:10448000A0905B02B0905C02A5019401C701B60147
:104490000E94782A23E333E343EB5EE30E94492C36
:1044A000A50194010E94792A6093590270935A02DF
:1044B00080935B0290935C02C0CF53014201881A43
:1044C000990AAA0ABB0A22E382169104A104B10444
:1044D00008F487CB209172023091730240917402EC
:1044E00050917502C701B6010E94782A20E030E0A1
:1044F0004AE754E40E94492C6F8F78A389A39AA3BA
:10450000C501B4010E94922B9B01AC016F8D78A173
:1045100089A19AA10E94EA2A60936E0270936F02A9
:1045200080937002909371024CCB073008F07ECBE1
:10453000112399F060916E0270916F028091700268
:10454000909171029F7720E030E040E05FE30E94AD
:10455000E52A182F111F1127111F8091310388237D
:10456000B9F020E030E040E85FE360911D03709116
:104570001E0380911F03909120030E94782A9F7749
:1045800020E030E040E85EE30E94E52A87FD5DC45C
:1045900010925E0210925F0210926002109261020D
:1045A00045CB80913103882309F440CB20E030E0F3
:1045B00040E250E460911D0370911E0380911F033F
:1045C000909120030E94442C87FF09C010926A0238
:1045D00010926B0210926C0210926D0227CB8091A8
:1045E0006A0290916B02A0916C02B0916D020097EB
:1045F000A105B10549F440926A0250926B026092A3
:104600006C0270926D0212CBB301A201481B590BD0
:104610006A0B7B0BDB01CA01CC97A105B10508F43D
:1046200005CB112381F020E030E040EC5FE36091A6
:104630000D0370910E0380910F03909110030E945F
:10464000E52A87FDF3CA4092840250928502609267
:1046500086027092870280E090E0DC01112341F035
:1046600080910D0390910E03A0910F03B091100360
:104670008093AD029093AE02A093AF02B093B002CC
:1046800010927602109277021092780210927902BC
:1046900082E00E947F11CACA80913103882381F091
:1046A00020E030E040EA5FE360911D0370911E035B
:1046B00080911F03909120030E94E52A87FD09C085
:1046C00010926602109267021092680210926902BC
:1046D000ADCA8091660290916702A0916802B09184
:1046E00069020097A105B10549F440926602509213
:1046F0006702609268027092690298CA530142018F
:10470000881A990AAA0ABB0AD501C4018035910505
:10471000A105B10508F48ACA83E0BBCF112309F4CF
:1047200085CA80900D0390900E03A0900F03B09067
:1047300010032091AD023091AE024091AF02509132
:10474000B002C501B4010E94442C181644F48092B2
:10475000AD029092AE02A092AF02B092B002C090B1
:104760008402D0908502E0908602F0908702C11406
:10477000D104E104F10409F491CAD301C2018C19F6
:104780009D09AE09BF0980399140A105B10508F422
:104790005ACAA50194016091AD027091AE02809158
:1047A000AF029091B0020E94782A20E030E040E011
:1047B00050E40E94442C87FF09C0109262021092BC
:1047C0006302109264021092650230CA8091620204
:1047D00090916302A0916402B09165020097A105D7
:1047E000B10549F440926202509263026092640201
:1047F000709265021BCAA3019201281B390B4A0B58
:104800005B0BDA01C90186399105A105B10508F4F0
:104810001ACA84E00E947F118091B102823019F09F
:1048200080E00E94651185E034CFB301A201481BEE
:10483000590B6A0B7B0BDB01CA01803D9740A10538
:10484000B10508F4F3C987E024CF3092F20296CB89
:10485000EFE7F7E0EDCB13E0AD3DB10720F42C928C
:10486000FD0131967F016091D0027091D10280915B
:10487000D2029091D3028E010F5F1F4F22E041E0E0
:104880000E944827D801F7018F018D91882331F0CC
:1048900023E0ED3DF20748F48193F6CF33E0ED3DA0
:1048A000F30718F420820F5F1F4F6091C8027091C8
:1048B000C9028091CA029091CB022AE0AE014F5FFB
:1048C0005F4F0E9466279E012F5F3F4FD801F9017D
:1048D00081919F01882331F00D5D134040F48D9349
:1048E0008D01F4CF0D5D134010F42C921196E091E0
:1048F000C702E43098F4F0E0EE0FFF1FE55AFE4FD8
:104900000190F081E02DCD012491222351F03196C8
:1049100003E0AD3DB00758F42D93F5CFE1E8F7E0A3
:10492000F2CF13E0AD3DB10710F42C920196409107
:10493000F3025091F40270E060E00E94EA0E8C01F4
:10494000FC0110828EED93E00E9476060E59134012
:104950000E5F0817190609F00CF410C18091B4021B
:104960009091B50201969093B5028093B402809124
:104970008C02813011F40E94E5101091B6028091F2
:10498000B2029091B30287709927892B09F003C175
:104990008AEF90E0183040F4E12FF0E0EE0FFF1FB7
:1049A000E75CFE4F8081918140918E0250918F0291
:1049B000609190027091910253014201841A950A0C
:1049C000A60AB70AB501A401B0E0A0E0481759074C
:1049D0006A077B0780F040928E0250928F026092AD
:1049E00090027092910260918D02632560938D0216
:1049F00085E00E94AD04113009F4D0C01092AC02E1
:104A00008091B8029091B902A091BA02B091BB0214
:104A1000A3019201281B390B4A0B5B0BDA01C90178
:104A2000883C9105A105B10508F48EC04092B802FA
:104A30005092B9026092BA027092BB024AE0C3017E
:104A4000B2010E94270F8DEA97E00E94EF07E091E4
:104A5000B6028FE797E0E93038F4F0E0EE0FFF1F81
:104A6000E75BFE4F808191810E94EF0789EA97E022
:104A70000E94EF0760910D0370910E0380910F0368
:104A80009091100342E00E94990F83EA97E00E9400
:104A9000EF076091AD027091AE028091AF029091EC
:104AA000B00242E00E94990F8DE997E00E94EF0763
:104AB00060911D0370911E0380911F03909120034C
:104AC00042E00E94990F89E997E00E94EF07609108
:104AD00005037091060380910703909108030E94DB
:104AE0006D0F83E997E00E94EF07E091B10281E842
:104AF00097E0E43038F4F0E0EE0FFF1FE55AFE4F88
:104B0000808191810E94EF078BE897E00E94EF0778
:104B10006091B2027091B30290E080E040E10E94A7
:104B2000270F83E897E00E94EF076091B40270912D
:104B3000B50290E080E04AE00E94270F65EA71E04C
:104B40008BE794E00E94180F8091B602873031F411
:104B50008091B702811102C03092B70240E050E06C
:104B6000452B11F40C946B1B0E94B306882311F49F
:104B70000C94671B0E9400000C94671B6EE973E0A5
:104B80008EED93E00E94180F65EA71E08EED93E0E0
:104B90000E94180FECCE84E690E006CF8091AC0224
:104BA000882399F14091A8025091A9026091AA022C
:104BB0007091AB0263015201A41AB50AC60AD70A62
:104BC000B601A5014C3D554061057105F0F04092DC
:104BD000A8025092A9026092AA027092AB028130A0
:104BE00051F0823009F449C08EE194E00E947510C2
:104BF0001092AC020AC088E70E94210B89E594E07C
:104C00000E94751082E08093AC028BE794E00E94D2
:104C10005B08892B09F4F4CE8BE794E00E94190815
:104C2000893609F48CC094F5843609F46CC0883652
:104C300019F08F3309F0EBC081E795E00E948510F1
:104C400087E595E00E94851089E395E00E94851034
:104C500082E195E00E94851089EE94E00E94851023
:104C60008DEA94E00E94851087E894E00E94851008
:104C70008CE694E00E948510C3CE84E10E94210B53
:104C800088E394E00E94751083E0BDCF833779F10B
:104C9000843709F442C0823709F0B9C084E097E054
:104CA0000E9475103092A7024092A3025092A40273
:104CB0006092A5027092A60240929F025092A002BA
:104CC0006092A1027092A20210929B0210929C022A
:104CD00010929D0210929E021092970210929802DA
:104CE0001092990210929A021092960289CE84E153
:104CF0000E94210B8FE597E00E94EF0784E190E08E
:104D00000E9487107DCE88E70E94210B8BE397E0FD
:104D10000E94EF0788E790E0F3CF3092AC02409218
:104D2000A8025092A9026092AA027092AB0284E19A
:104D30000E94210B8BED96E00E94751061CE86ECEF
:104D400096E00E94751089EB96E00E94EF0785EAD5
:104D500095E00E94751084EA96E00E94EF078FEAC2
:104D600095E00E94751088E796E00E94EF07609139
:104D700092027091930280919402909195020E9408
:104D80006D0F65EA71E08BE794E00E94180F80E5F3
:104D900096E00E94EF0764E170E080E090E00E94FE
:104DA0006D0F6FE28BE794E00E94D90788E790E0EF
:104DB0000E94871082E396E00E94EF076091B202A2
:104DC0007091B30290E080E040E10E94270F65EA15
:104DD00071E08BE794E00E94180F88EF95E00E9445
:104DE000EF076091B4027091B50290E080E04AE074
:104DF0000E94270F65EA71E08BE794E00E94180F8C
:104E000089EE95E00E94EF0786EB95E095CF90ED57
:104E1000980F9A3008F0F4CD14E1919F102D1124D1
:104E2000812F0E94210B8AEE96E00E94EF07612FEE
:104E300070E090E080E04AE00E94270F65EA71E0B0
:104E40008BE794E00E94180FDBCD112309F4A0CB6F
:104E500080915E0290915F02A0916002B091610228
:104E60000097A105B10509F0E0CC40925E02509296
:104E70005F0260926002709261020C94161E112310
:104E800011F40C944F1981E00E9409110C945819E7
:104E9000EF920F931F93CF93DF93E80134E047FD28
:104EA00034E1042E000C550B57FF03C0519541957A
:104EB0005109E32E022F242FAE010E949727CE0125
:104EC000DF91CF911F910F91EF900895BB272A306A
:104ED00051F4992342F4BDE29095809570956195C7
:104EE0007F4F8F4F9F4F0C947627BB27FA01A62F39
:104EF0006217710581059105330B30FB66F0AA2717
:104F0000660F771F881F991FAA1FA21710F0A21BF8
:104F100063953850A9F7A05DAA3308F0A95DA19365
:104F200036F7B111B1931082CA010C94CE29A9E0D1
:104F3000B0E0EDE9F7E20C94162A6A01F22EB02EE9
:104F4000102FFBE3AF2EA01608F41BE31F5F012F09
:104F500027E0AE014F5F5F4F0E94F628BC018981B8
:104F6000982F9970913009F43FC09BE2E1FC04C096
:104F70009E2D9170E0FC3AC05E2D5071E82FE870D4
:104F800083FF46C084E0911101C083E0EF2DE81B50
:104F90008F1508F0E0E0D6018E2F20E2552351F165
:104FA000992329F0D6019C93C60101966C019601C4
:104FB0002D5F3F4FE2FE24C08EE4D6018C9391E436
:104FC00011969C93119712968C93D9018E2F90E293
:104FD00081111BC0E20FF32FF11D10828EEF9FEFA6
:104FE0002996ECE00C94322A9DE2C6CF90E2C4CF21
:104FF0002D9381508111FCCFCE0ED11CE0E0D0CF9B
:105000008EE6D6018C9391E6DBCF9D938150E0CF65
:10501000482F447082FF3DC084E0911101C083E0BD
:105020008F1510F4EF2DE81BD6018E2F20E25523AB
:1050300009F1992329F0D6019C93C60101966C01D0
:1050400096012D5F3F4FE2FE1BC089E4D6018C9391
:105050008EE411968C93119786E412968C93D90165
:105060008E2F90E2882309F4B5CF9D938150FACF1B
:105070002D9381508111FCCFCE0ED11CE0E0D9CF11
:1050800089E6D6018C938EE611968C93119786E66D
:10509000E4CF9B0177FF02C030E020E0A1E0B0E068
:1050A000911102C0B0E0A0E0F9013196AE0FBF1F30
:1050B0008B2C912CBB2009F461C05401EFEFAE1A88
:1050C000BE0AAA0DBB1DFA161B0619F014F04F2DCF
:1050D0004A1B511188C0E3FC59C07601A42FB0E2ED
:1050E000A1114FC0C40ED11C992309F45BC040E04C
:1050F000D6011196F60190836D01552309F448C03D
:10510000012F060F9A81582F507184FF03C09133ED
:1051100009F4015010160CF047C0093008F008E0FF
:10512000EEE2FE2E5B01A01AB108850191948194F4
:1051300091082F3F320729F4D601FC92F6013196EF
:105140006F016217730794F1021713077CF5DB01F7
:10515000A21BB30BAA24A394B12CAC0EBD1EAA0DA6
:10516000BB1D11968C9121503109D601119628153D
:105170003905F4F0F60180836D01DBCFB12CA12C51
:10518000A0CFF701B1937F01A150AACF9111B0CF69
:10519000D601942F50E302C05D9391509111FCCF42
:1051A000C40ED11C40E0ACCF01E0BACF80E3DBCF2E
:1051B0006217730731F4963388F4953311F455234D
:1051C00069F0F6018083FD01842F90E2811108C00F
:1051D000A40FB11D1C9290E080E002CF81E3F1CFDB
:1051E00091938150F3CF911183CF8ACF283008F06B
:1051F00027E03327DA01990F311D87FD9160009672
:105200006105710539F432602E5F3D9330E32A95D4
:10521000E1F708959F3F30F080387105610509F08E
:105220003C5F3C5F3D93913008F08068911DDF93B7
:10523000CF931F930F93FF92EF92192F987F96951C
:10524000E92F96959695E90FFF27E857FE4F992786
:105250003327EE24FF24A701E70105900894079463
:1052600028F4360FE71EF81E491F511D660F771FE1
:10527000881F991F0694A1F70590079428F4E70E5C
:10528000F81E491F561FC11D770F881F991F661FE3
:105290000694A1F70590079428F4F80E491F561FAD
:1052A000C71FD11D880F991F661F771F0694A1F78E
:1052B0000590079420F4490F561FC71FD81F990F58
:1052C000661F771F881F0694A9F7849110951770A1
:1052D00041F0D695C79557954795F794E7941A9559
:1052E000C1F7EEE2F1E06894159015913591659162
:1052F000959105907FE27395E118F10A430B560BE7
:10530000C90BD009C0F7E10CF11E431F561FC91F7E
:10531000D01D7EF4703311F48A95E6CFE8940150E5
:1053200030F0080F0AF40027021708F4202F239505
:10533000022F7A3328F079E37D932A95E9F710C09C
:105340007D932A9589F606949795679537951795D5
:105350001794E118F10A430B560BC90BD00998F0CA
:1053600023957E9173957A3308F070E37C93201334
:10537000B8F77E9170617D9330F0839571E37D93F2
:1053800070E32A95E1F71124EF90FF900F911F91A0
:10539000CF91DF91992787FD90950895DC01FC015D
:1053A000672F71917723E1F7329704C07C916D9359
:1053B00070836291AE17BF07C8F30895052E97FB5F
:1053C0001EF400940E94F52957FD07D00E94472A39
:1053D00007FC03D04EF40C94F52950954095309578
:1053E00021953F4F4F4F5F4F089590958095709551
:1053F00061957F4F8F4F9F4F08950E94692AA59F07
:10540000900DB49F900DA49F800D911D11240895BF
:10541000B7FF0C94FD290E94FD29821B930B089570
:105420002F923F924F925F926F927F928F929F92B4
:10543000AF92BF92CF92DF92EF92FF920F931F93A2
:10544000CF93DF93CDB7DEB7CA1BDB0B0FB6F89453
:10545000DEBF0FBECDBF09942A88398848885F8493
:105460006E847D848C849B84AA84B984C884DF8004
:10547000EE80FD800C811B81AA81B981CE0FD11DE8
:105480000FB6F894DEBF0FBECDBFED010895A1E2C7
:105490001A2EAA1BBB1BFD010DC0AA1FBB1FEE1FAE
:1054A000FF1FA217B307E407F50720F0A21BB30BF9
:1054B000E40BF50B661F771F881F991F1A9469F775
:1054C00060957095809590959B01AC01BD01CF01D1
:1054D0000895A29FB001B39FC001A39F700D811DCD
:1054E0001124911DB29F700D811D1124911D0895ED
:1054F0005058BB27AA270E94902A0C940A2C0E947D
:10550000FC2B38F00E94032C20F039F49F3F19F453
:1055100026F40C94F92B0EF4E095E7FB0C94F32B96
:10552000E92F0E941B2C58F3BA17620773078407F0
:10553000950720F079F4A6F50C943D2C0EF4E09537
:105540000B2EBA2FA02D0B01B90190010C01CA013D
:10555000A0011124FF27591B99F0593F50F4503EE8
:1055600068F11A16F040A22F232F342F4427585FDA
:10557000F3CF469537952795A795F0405395C9F7F2
:105580007EF41F16BA0B620B730B840BBAF09150AA
:10559000A1F0FF0FBB1F661F771F881FC2F70EC049
:1055A000BA0F621F731F841F48F48795779567951C
:1055B000B795F7959E3F08F0B0CF9395880F08F008
:1055C0009927EE0F9795879508950E94CF2B08F4A1
:1055D00081E008950E94FE2A0C940A2C0E94032C5C
:1055E00058F00E94FC2B40F029F45F3F29F00C9406
:1055F000F32B51110C943E2C0C94F92B0E941B2C74
:1056000068F39923B1F3552391F3951B550BBB27F1
:10561000AA2762177307840738F09F5F5F4F220F36
:10562000331F441FAA1FA9F335D00E2E3AF0E0E82D
:1056300032D091505040E695001CCAF72BD0FE2F77
:1056400029D0660F771F881FBB1F2617370748070B
:10565000AB07B0E809F0BB0B802DBF01FF279358C3
:105660005F4F3AF09E3F510578F00C94F32B0C9469
:105670003E2C5F3FE4F3983ED4F38695779567958B
:10568000B795F7959F5FC9F7880F911D96958795F8
:1056900097F90895E1E0660F771F881FBB1F621717
:1056A00073078407BA0720F0621B730B840BBA0BD5
:1056B000EE1F88F7E09508950E94632B6894B1115E
:1056C0000C943E2C08950E94232C88F09F5798F04C
:1056D000B92F9927B751B0F0E1F0660F771F881FF7
:1056E000991F1AF0BA95C9F714C0B13091F00E9411
:1056F0003D2CB1E008950C943D2C672F782F88271E
:10570000B85F39F0B93FCCF3869577956795B39537
:10571000D9F73EF490958095709561957F4F8F4FA6
:105720009F4F0895E89409C097FB3EF490958095AB
:10573000709561957F4F8F4F9F4F9923A9F0F92F57
:1057400096E9BB279395F695879577956795B795D5
:10575000F111F8CFFAF4BB0F11F460FF1BC06F5FBB
:105760007F4F8F4F9F4F16C0882311F096E911C0CD
:10577000772321F09EE8872F762F05C0662371F0EE
:1057800096E8862F70E060E02AF09A95660F771F02
:10579000881FDAF7880F9695879597F90895990FDE
:1057A0000008550FAA0BE0E8FEEF16161706E807EB
:1057B000F907C0F012161306E407F50798F0621B0C
:1057C000730B840B950B39F40A2661F0232B242BE1
:1057D000252B21F408950A2609F4A140A6958FEF00
:1057E000811D811D089597F99F6780E870E060E052
:1057F00008959FEF80EC089500240A94161617066A
:1058000018060906089500240A94121613061406B1
:1058100005060895092E0394000C11F4882352F014
:10582000BB0F40F4BF2B11F460FF04C06F5F7F4FCC
:105830008F4F9F4F089557FD9058440F551F59F0B3
:105840005F3F71F04795880F97FB991F61F09F3F6D
:1058500079F087950895121613061406551FF2CF96
:105860004695F1DF08C0161617061806991FF1CFE6
:1058700086957105610508940895E894BB2766270D
:105880007727CB0197F908950E94CF2B08F48FEF6B
:1058900008950E945C2C0C940A2C0E94FC2B38F07A
:1058A0000E94032C20F0952311F00C94F32B0C9400
:1058B000F92B11240C943E2C0E941B2C70F3959F05
:1058C000C1F3950F50E0551F629FF001729FBB27F7
:1058D000F00DB11D639FAA27F00DB11DAA1F649F93
:1058E0006627B00DA11D661F829F2227B00DA11D46
:1058F000621F739FB00DA11D621F839FA00D611DCC
:10590000221F749F3327A00D611D231F849F600DEC
:10591000211D822F762F6A2F11249F5750409AF015
:10592000F1F088234AF0EE0FFF1FBB1F661F771FA1
:10593000881F91505040A9F79E3F510580F00C946C
:10594000F32B0C943E2C5F3FE4F3983ED4F3869502
:1059500077956795B795F795E7959F5FC1F7FE2B0C
:10596000880F911D9695879597F90895FA01EE0F86
:10597000FF1F309621053105A1F16115710561F414
:105980008038BFE39B0749F168949038810561F046
:105990008038BFEF9B0741F099234AF5FF3FE105AF
:1059A0003105210519F1E8940894E795D901AA2356
:1059B00029F4AB2FBE2FF85FD0F310C0FF5F70F457
:1059C000A695E0F7F73950F019F0FF3A38F49F77D1
:1059D0009F930DD00F9007FC9058089546F00C94BB
:1059E000F92B60E070E080E89FE308954FE79F7730
:1059F0005F934F933F932F930E94112E2F913F91CE
:105A00004F915F910E94492C0C94592D19F416F472
:105A10000C94F92B0C948B2D0E94232CB8F3992312
:105A2000C9F3B6F39F57550B87FF0E94992D0024A9
:105A3000A0E640EA900180585695979528F4805C3E
:105A4000660F771F881F20F026173707480730F4A6
:105A5000621B730B840B202931294A2BA6951794BE
:105A60000794202531254A2758F7660F771F881F8E
:105A700020F026173707480730F4620B730B840BAE
:105A8000200D311D411DA09581F7B901842F91583A
:105A9000880F9695879508950E94CF2B880B990BB8
:105AA000089529F416F00C94F32B0C943D2C0C94CF
:105AB000F92B0E94232CA8F39638A0F707F80F9231
:105AC000E8942BE33AEA48EB5FE70E945F2C0F92E1
:105AD0000F920F924DB75EB70F920E94592EECEACB
