:100000000C9497040C94BF040C94BF040C94BF048C
:100010000C94BF040C94BF040C94BF040C94BF0454
:100020000C94BF040C94BF040C9484110C94F31131
:100030000C94BF040C94BF040C94BF040C94BF0434
:100040000C94BF040C9425140C94BF040C94BF04AE
:100050000C94BF040C94BF040C94BF040C943A118C
:100060000C94BF040C94BF040C94BF040C94BF0404
:100070000C94BF040C94BF040C94BF040C94BF04F4
:100080000C94BF040C94BF040C94BF040C94BF04E4
:100090000C94E1140C94BF040C94BF040C94BF04A2
:1000A0000C94BF040C94BF040C94BF040763423645
:1000B000B79BD8A71A39685618AEBAAB558C1D3CF9
:1000C000B7CC5763BD6DEDFD753EF6177231BF00BD
:1000D0000000803F08000000BE922449123EABAAF7
:1000E000AA2ABECDCCCC4C3E00000080BEABAAAA52
:1000F000AA3E00000000BF000000803F000000009A
:1001000000084178D3BB4387D1133D190E3CC3BDD2
:100110004282AD2B3E68EC8276BED98FE1A93E4C7F
:1001200080EFFFBE01C4FF7F3F0000000000475288
:100130004F554E445F5A45524F004241434B555034
:100140005F4445504C4F5900435249544943414C38
:100150005F4552524F52004C414E44454400444585
:100160005343454E54005245434F564552595F4400
:1001700045504C4F590041504F4745455F434F4E06
:100180004649524D454400424F4F53545F454E44FB
:10019000004C41554E43485F444554454354454403
:1001A00000524541445900524144494F5F4641493C
:1001B0004C00524144494F5F4F4B0053445F46410E
:1001C000494C0053445F4F4B0053454E534F5253DD
:1001D0005F4F4B00504F5745525F4F4E00455252B4
:1001E0004F52004C414E444544005245434F564502
:1001F00052590044455343454E540041504F4745E2
:100200004500434F41535400424F4F535400524511
:1002100041445900494E4954004552524F520044FE
:1002200045504C4F5945440041524D4544005341BF
:100230004645003F005D20005B45562000D0B2D00F
:10024000BED0B7D0B2D180D0B0D18220D0B22052AF
:10025000454144593A20D0BFD180D0B8D0B2D0BEA9
:10026000D0B420534146452C20D181D0BFD0B0D14D
:1002700081D0B5D0BDD0B8D0B520D0B2D0B7D0B233
:10028000D0B5D0B4D0B5D0BDD0BE2C20D0BED0B16A
:10029000D0BDD183D0BBD0B5D0BDD0B8D0B520387B
:1002A00020D18100080B00020202000009040000B6
:1002B00001020200000524001001052401010104CF
:1002C00024020605240600010705810310004009E9
:1002D000040100020A0000000705020240000007B6
:1002E0000583024000000403090412010002EF022A
:1002F000014041233680000101020301417264750F
:10030000696E6F204C4C430041726475696E6F20BA
:100310004C656F6E6172646F0020D09ED0A2D09A3F
:10032000D090D09700206F6B0020D09ED0A2D09AA2
:10033000D090D09700206F6B00D091D0B0D180D0FA
:10034000BED0BCD0B5D182D1803A2000494D553ABB
:100350002000D09AD0A0D098D0A2D098D0A7D09585
:10036000D0A1D09AD090D0AF20D09ED0A8D098D095
:1003700091D09AD0903A20D0BFD0BED0BBD191D1ED
:100380008220D0BDD0B5D0B2D0BED0B7D0BCD0BE08
:10039000D0B6D0B5D0BD00070605040100080A0B91
:1003A0000C0D09D186D0B8D0BAD0BB20D0B7D0B010
:1003B000D0B2D0B5D180D188D191D0BD00D186D076
:1003C000B8D0BAD0BB3A20D0B2D0BED0B7D0B2D11C
:1003D00080D0B0D18220D0B2205341464500D18692
:1003E000D0B8D0BAD0BB3A204445504C4F594544C0
:1003F00000D186D0B8D0BAD0BB3A20534146450090
:1004000049434D2D323039343800424D5032383066
:1004100000413A20D0B4D0B0D182D187D0B8D0BA80
:10042000D0B8202B20D181D0B5D180D0B2D0BED0D1
:10043000BFD180D0B8D0B2D0BED0B4002020D0BDC3
:10044000D0B0D0B1D0BED1803A20002020D180D011
:10045000B0D0B4D0B8D0BE3A20D0BFD180D0BED0BA
:10046000BFD183D189D0B5D0BDD0BE20D0B8D0B750
:100470002DD0B7D0B020D0B1D183D184D0B5D18028
:10048000D0B03A20002020D184D0BBD0B0D0B3D09F
:10049000B820D0BED188D0B8D0B1D0BED0BA3A2022
:1004A0003078002020D0B1D0B0D182D0B0D180D06F
:1004B000B5D18F2C20D0923A20002020D183D0B308
:1004C000D0BBD18B20D0BFD180D0B8D0B2D0BED0DD
:1004D000B4D0B020534146452F4445504C4F593A73
:1004E00020002020D0B4D0B0D0B2D0BBD0B5D0BD89
:1004F000D0B8D0B520D0BFD0BBD0BED189D0B0D07D
:10050000B4D0BAD0B82C20D09FD0B03A2000202050
:10051000D0B1D0B0D180D0BED0BCD0B5D182D18046
:100520003A20002020494D553A202020202020004C
:100530002D2D2D20D0B6D0B5D0BBD0B5D0B7D0BEE4
:10054000202D2D2D0020203F2020D18DD182D0B014
:1005500020D181D0BFD180D0B0D0B2D0BAD0B0003D
:100560002020692020D181D0B2D0B5D0B4D0B5D070
:10057000BDD0B8D18F20D0BE20D0B6D0B5D0BBD0A2
:10058000B5D0B7D0B50020207A2020D0BED0B1D0D1
:10059000BDD183D0BBD0B8D182D18C20D0B2D18B89
:1005A000D181D0BED182D1832028D180D0B0D0BA21
:1005B000D0B5D182D0B020D0BDD0B5D0BFD0BED0C4
:1005C000B4D0B2D0B8D0B6D0BDD0B0207E3820D113
:1005D0008129002020722020D0BFD180D0BED0B38E
:1005E000D0BED0BD20D0BFD180D0BED184D0B8D0B5
:1005F000BBD18F20D0BFD0BED0BBD191D182D0B0E3
:100600002028D0BF2E20343320D0A2D0972900201C
:1006100020302E2E392020D183D0B3D0BED0BB20A5
:10062000302E2E31383020D18120D188D0B0D0B3B7
:10063000D0BED0BC203230002020742020D186D003
:10064000B8D0BAD0BB2053414645202D3E2044456A
:10065000504C4F594544202D3E20534146450020E3
:1006600020642020D0BFD180D0B8D0B2D0BED0B4CA
:1006700020D0B2204445504C4F59454400202073AF
:100680002020D0BFD180D0B8D0B2D0BED0B420D03E
:10069000B22053414645002D2D2D20D181D0B5D11A
:1006A00080D0B2D0B8D181D0BDD18BD0B920D1808B
:1006B000D0B5D0B6D0B8D0BC2028D0BF2E20343092
:1006C00020D0A2D09729202D2D2D00D0BFD180D0B1
:1006D000B8D0B2D0BED0B4202D3E20D183D0B3D07C
:1006E000BED0BB2000D0BED182D0BAD180D18BD1B8
:1006F00082D0B8D0B520D0BFD0B0D180D0B0D18812
:10070000D18ED182D0B020D0BFD0BE20D0BAD0BE42
:10071000D0BCD0B0D0BDD0B4D0B520D0BED0BFD02A
:10072000B5D180D0B0D182D0BED180D0B000D0BE03
:10073000D0B1D0BDD183D0BBD0B5D0BDD0B8D0B5AD
:1007400020D0B2D18BD181D0BED182D18B3A20D0F2
:10075000BDD0B520D182D180D0BED0B3D0B0D0B979
:10076000D182D0B520D180D0B0D0BAD0B5D182D18D
:1007700083203820D181D0B5D0BAD183D0BDD0B4B8
:10078000002D2D2D20D0BFD180D0BED0B3D0BED073
:10079000BD20D182D0B5D181D182D0BED0B2D0BE61
:1007A000D0B3D0BE20D0BFD180D0BED184D0B8D0FD
:1007B000BBD18F202D2D2D00D0BFD180D0BED0B386
:1007C000D0BED0BD20D0BDD0B520D0B7D0B0D0BF26
:1007D000D183D189D0B5D0BD3A20D181D0BFD0B09E
:1007E000D181D0B5D0BDD0B8D0B520D183D0B6D0CE
:1007F000B520D180D0B0D181D0BAD180D18BD18277
:10080000D0BE2C20D0BDD183D0B6D0B5D0BD20D0A5
:10081000B2D0BED0B7D0B2D180D0B0D18220D0B2C9
:100820002052454144592028522900D0BFD180D0C0
:10083000B8D0B2D0BED0B4202D3E204445504C4F4D
:100840005945442C20D183D0B3D0BED0BB2000D09A
:10085000BFD180D0B8D0B2D0BED0B4202D3E20536E
:100860004146452C20D183D0B3D0BED0BB20003F21
:10087000003F002072783D002073763D00207264B6
:10088000726F703D00206572723D30780020766294
:100890003D00207A3D00207265633D0020703D00E0
:1008A000207C617C3D00206D61783D0020683D002A
:1008B000200000000000240027002A002D00300046
:1008C00000000000250028002B002E003100040449
:1008D00004040403040502020202040302020202E9
:1008E00006060606060604040202020404040802C0
:1008F00001104080401020408040800802040180A8
:100900004020100201108010204040200000000212
:1009100000090F0000030401000C000000000000AB
:10092000000000000000000000000000001611247C
:100930001FBECFEFDAE0DEBFCDBF11E0A0E0B1E037
:10094000E2EBF7E502C005900D92A839B107D9F79F
:1009500024E0A8E9B1E001C01D92AA31B207E1F795
:1009600014E0C7E9D4E004C02197FE010E94D12B16
:10097000C639D107C9F70E9449160C94D72B0C949D
:100980000000FC0180914503882311F13FB7F894E2
:1009900082E08093E9002091F200822F90E0181607
:1009A000190614F481E090E0882339F0289844E691
:1009B000409344034091F1004083222339F0209179
:1009C000F200211103C02BE62093E8003FBF0895F9
:1009D0008FEF9FEF08952FB7F89483E08093E9009D
:1009E0009091E800892F807295FF04C09091F200E9
:1009F00080E4891B2FBF089580913C0381110DC0B5
:100A000082E08093380384E08093390310923B03A3
:100A100010923A0381E080933C0388E393E00895C9
:100A2000282F30E0F901E45FF64F9491F901E3518A
:100A3000F74F84912253374FF9012491222309F46F
:100A400030C09923E9F091509F30D0F4E92FF0E0C5
:100A5000E45DFA4F0C94D12B5A055E053B05520517
:100A60005605400540054005610567056B056F05A6
:100A7000750540057905909180009F7790938000DF
:100A8000E22FF0E0EE0FFF1FE054F74FA591B49175
:100A90009FB7F894EC91611132C080958E238C93AE
:100AA0009FBF0895909180009F7DE8CF9091800036
:100AB000977FE4CF94B59F7794BDE2CF94B59F7DA7
:100AC000FBCF909190009F7790939000D9CF909119
:100AD00090009F7DF9CF90919000977FF5CF9091F6
:100AE000C0009F779093C000CBCF9091C0009F7DB6
:100AF000F9CF9091C200977F9093C200C1CF8E2B07
:100B0000CECFCF93DF9390E0FC01E351F74F2491D8
:100B10008253974FFC0184918823D1F090E0880F95
:100B2000991FFC01EE54F74FA591B491FC01E054DC
:100B3000F74FC591D49161110EC09FB7F8948C9175
:100B4000E22FE0958E238C932881E223E8839FBFD8
:100B5000DF91CF9108958FB7F894EC91E22BEC934D
:100B60008FBFF6CF3FB7F89480913403909135034F
:100B7000A0913603B091370326B5A89B05C02F3F3F
:100B800019F00196A11DB11D3FBFBA2FA92F982FB3
:100B90008827BC01CD01620F711D811D911D42E0AE
:100BA000660F771F881F991F4A95D1F708958F9276
:100BB0009F92AF92BF92CF92DF92EF92FF924B0142
:100BC0005C010E94B2056B017C010E94B2056C19A8
:100BD0007D098E099F09683E734081059105A8F340
:100BE00021E0821A9108A108B10888EEC80E83E0BE
:100BF000D81EE11CF11C81149104A104B10429F751
:100C0000FF90EF90DF90CF90BF90AF909F908F902C
:100C100008952FB7F894609130037091310380915B
:100C20003203909133032FBF0895089508950895D6
:100C30004091FE015091FF012091FC013091FD0196
:100C400042175307B4F49091E8009570E1F3909146
:100C5000E80092FD19C08093F1008091FE0190910F
:100C6000FF0101968F739927892B19F48EEF8093DA
:100C7000E8008091FE019091FF0101969093FF01A1
:100C80008093FE0181E0089580E00895EF92FF9245
:100C90000F931F93CF93DF93F82E192FE62E042F77
:100CA00081E0860F880F0E94180683E00E941806D4
:100CB000CF2DD12FEC0EFD2EF11CCE15DF05B9F096
:100CC00007FF13C0FE0184910E941806182F80E0D0
:100CD0000E941806812321968111EFCFDF91CF91D9
:100CE0001F910F91FF90EF9008958881EDCF81E0E3
:100CF000F5CFDF92EF92FF920F931F93CF93DF9385
:100D0000D82E8A01EB017B01E40EF51ECE15DF051E
:100D100059F0D7FE12C0FE0184910E941806219658
:100D20008111F4CF0FEF1FEFC801DF91CF911F9119
:100D30000F91FF90EF90DF9008958881EECF0F9391
:100D40001F93CF93DF931F92CDB7DEB782E08983E5
:100D500042E450E064EA72E080E80E9479060E9472
:100D6000FC04DC0112960D911C910115110589F00E
:100D7000D801ED91FC910280F381E02DBE016F5FFF
:100D80007F4FC801099597FD04C0F80100851185C2
:100D9000ECCF89810F90DF91CF911F910F91089532
:100DA000615030F02091F100FC0120830196F8CFD2
:100DB000289884E68093440308958F929F92AF927F
:100DC000BF92CF92DF92EF92FF920F931F93CF9338
:100DD000DF936C017B018A0180910B01882309F468
:100DE0005CC080914503882309F457C080910202BA
:100DF00080FF05C08091E00082608093E000E80100
:100E0000B12C8AEFA82E93E0892E2AE3922E209708
:100E100011F4BB20D9F10E94EB0481110AC0AA94FD
:100E2000AA20D9F161E070E080E090E00E94D7054F
:100E3000EECF8C171D0611F00CF08C2F9FB7F89495
:100E40008092E9002091E80025FD02C09FBFDFCF1E
:100E5000282F30E0C21BD30BF701815020F04191C5
:100E60004093F100FACFE20EF31EBB2021F09092E6
:100E7000E800B12CEBCF8091E80085FDE7CF9092A0
:100E8000E800BB24B394209709F3F3CF5D9884E680
:100E900080930102101611063CF081E090E0F6010B
:100EA0009383828310E000E0C801DF91CF911F910E
:100EB0000F91FF90EF90DF90CF90BF90AF909F90F9
:100EC0008F900895CF93DF931F92CDB7DEB76983DC
:100ED000DC01ED91FC910280F381E02D41E050E0D6
:100EE000BE016F5F7F4F09950F90DF91CF910895FD
:100EF000682F86E993E00C9462070F931F93CF93BA
:100F0000DF938C01D0E0C0E0F801EC0FFD1F64918D
:100F1000662341F086E993E00E946207892B11F075
:100F20002196F2CFCE01DF91CF911F910F910895BD
:100F300083E08093E9008091F200882319F08AE32E
:100F40008093E80008950E94EB0490E00895CF9309
:100F5000DF931F92CDB7DEB7FC018485958597FDA1
:100F600008C02FEF3FEF358724870F90DF91CF9197
:100F70000895CE0101960E94C104019719F4898158
:100F800090E0F3CF8FEF9FEFF0CF0F931F93CF93AE
:100F9000DF931F92CDB7DEB78C01FC018485958568
:100FA00097FF0BC0CE0101960E94C104019771F416
:100FB000898190E0F80195878487F801848595857B
:100FC0000F90DF91CF911F910F9108958FEF9FEFB9
:100FD000F1CFFC018485958597FD0BC09FB7F894F0
:100FE00082E08093E9008091F2009FBF90E001963B
:100FF00008959FB7F89482E08093E9008091F20011
:101000009FBF90E008952091D801260F3327331F0A
:1010100021323105ECF420916C03FC0190E080E07A
:10102000243069F082E00895A091D8012191AC01AB
:1010300048545E4FA40FB52FB11D2C93019686170F
:1010400098F38091D801680F6093D80180E00895EB
:1010500081E0089510926C0381E080936B031092FD
:10106000460361E082E00E94100561E083E00E9497
:101070001005E9EBF0E080818E7F808380818D7F99
:10108000808388E48093B80085E48093BC00089551
:10109000CF93DF9391E090930A028823B9F0C09137
:1010A000B800D091BA008091BC008A7B8093BC00CC
:1010B00060E082E00E94100560E083E00E9410057D
:1010C0000E942A08D093BA00C093B800DF91CF9154
:1010D00008958F929F92AF92BF92CF92DF92EF923C
:1010E000FF920F931F93CF93DF93D0919503D1324B
:1010F00008F0D7C0182FC09194030E94B2056B016D
:101100007C0180916C0381116BC082E080936C0341
:1011100010936B038FEF80936A0310926903D0934F
:101120006803A4E7B3E0E8E4F3E080E0D81391C0FB
:101130001092470380914703CC0FC82BC0934703FD
:1011400080914603813009F088C0109246030E94C6
:10115000B2056B017C01809147038093BB008091B5
:101160006E0390916F03A0917003B0917103892B6E
:101170008A2B8B2BA1F00E94B20500916E03109177
:101180006F0320917003309171036C197D098E09F2
:101190009F09061717072807390708F442C08091EE
:1011A000BC0083FDD8CF85EC8093BC000E94B205C3
:1011B0006B017C0180916C03823009F450C08091F6
:1011C0006A038F3F09F46FC080916A03803209F48B
:1011D0006CC080916A03803309F469C084E026C042
:1011E00080916E0390916F03A0917003B091710391
:1011F000892B8A2B8B2B09F484CF0E94B205809017
:101200006E0390906F03A0907003B09071036C19FF
:101210007D098E099F0986169706A806B90608F06B
:1012200070CF80916D030E94480885E0109273038F
:101230001092950310927203DF91CF911F910F913D
:10124000FF90EF90DF90CF90BF90AF909F908F90E6
:1012500008959D9191938F5F69CF85EEA5CF809181
:101260006E0390916F03A0917003B0917103892B6D
:101270008A2B8B2B09F49ECF0E94B20500916E033E
:1012800010916F0320917003309171036C197D09E7
:101290008E099F09061717072807390708F08ACF14
:1012A000C0CF81E0C3CF80E0C1CF82E0BFCF83E079
:1012B000BDCFE091090280910802E81730F4F0E018
:1012C000E856FE4F808190E008958FEF9FEF0895DC
:1012D00090910902809108022FEF3FEF981748F490
:1012E000E92FF0E0E856FE4F208130E09F5F9093B9
:1012F0000902C90108958091080290910902891B91
:10130000990B0895CF92DF92EF92FF920F931F9364
:10131000CF93DF937C01CB018A01209172032223BA
:1013200089F0EB016B01C40ED51ECC15DD0569F00B
:101330006991D701ED91FC910190F081E02DC701F9
:101340000995F3CF642F0E940308C801DF91CF9164
:101350001F910F91FF90EF90DF90CF900895CF9362
:10136000DF931F92CDB7DEB76983209172032223EA
:10137000F9F020919503203258F021E030E0FC0193
:101380003383228390E080E00F90DF91CF91089526
:1013900080917303E82FF0E0EC58FC4F9981908323
:1013A0008F5F809373038093950381E090E0ECCF8F
:1013B00061E0CE0101960E940308F7CF90E080E043
:1013C00008958F929F92AF92BF92FF920F931F93B7
:1013D000CF93DF93C82F80911704282F30E0F901B5
:1013E000EE0FFF1FE20FF31FEE50FC4F908196FDB2
:1013F00054C08C3008F051C061E086E00E94810545
:1014000080911704282F30E0F901EE0FFF1FE20F43
:10141000F31FEE50FC4F9081907C96609083109269
:101420001804109219042CE0622F0E94C52B829F91
:10143000B001112430E020E0AB01420F531FFA014C
:10144000EE0FFF1FE40FF51FEE50FC4F908196FD4D
:1014500016C02F5F3F4F2C30310571F781110FC03F
:101460001092800082E0809381001092850010929B
:101470008400B19A80916F00826080936F00E09148
:1014800017048E2F90E0FC01EE0FFF1FE80FF91FED
:10149000EE50FC4F808180648083AC2FC53B08F008
:1014A000A4EBF09017048BE08F1508F44CC08091EA
:1014B000190408E512E0081B110987FD1395000FB8
:1014C000111F000F111F80911804C8E8D0E0C81B3D
:1014D000D10987FDD395CC0FDD1FCC0FDD1F4E0149
:1014E0000D2E000CAA08BB089801012E000C440B1D
:1014F000550B281939094A095B09B0E00E945C279D
:1015000024EB30E040E050E00E943D27820E931E25
:10151000A41EB51E8C169D062CF0E80180169106BF
:101520000CF4E4012297CC0FDD1F2FB7F8948F2D18
:1015300090E0FC01EE0FFF1FE80FF91FEE50FC4F8B
:10154000D283C1832FBFDF91CF911F910F91FF9065
:10155000BF90AF909F908F9008950E94E1090E94E4
:101560000906611571058105910549F060936D02C9
:1015700070936E0280936F0290937002089581E0E1
:1015800090E0A0E0B0E080936D0290936E02A09393
:101590006F02B093700208951092A8021092680230
:1015A0001092690210926A0210926B0210926C0201
:1015B00084E10E94E1096CE271E080E090E00E9429
:1015C000D705E09117048E2F90E0FC01EE0FFF1F6E
:1015D000E80FF91FEE50FC4F80818F7B80830895C8
:1015E0001092AE0210927302109274021092750261
:1015F000109276021092A4021092A5021092A602F6
:101600001092A702109258021092590210925A0298
:1016100010925B02109254021092550210925602E0
:1016200010925702109250021092510210925202E0
:101630001092530210924C0210924D0210924E02E0
:1016400010924F02109248021092490210924A02E0
:1016500010924B021092600210926102109262028C
:101660001092630210926402109265021092660258
:101670001092670210925C0210925D0210925E025C
:1016800010925F020895CF93C42F91E0909372035C
:1016900080939403109273031092950386EE93E067
:1016A0000E94AF096C2F86EE93E00E94AF0981E0A3
:1016B0000E94690891E0811190E0892FCF910895EF
:1016C000FC0101900020E9F73197AF01481B590B4D
:1016D000BC0186E993E00C94DD068F929F92AF9255
:1016E000BF920F931F93CF93DF93CDB7DEB7A19730
:1016F0000FB6F894DEBF0FBECDBF19A2423008F47A
:101700004AE08E010F5D1F4F842E912CB12CA12C2D
:10171000A50194010E946F27E62FB901CA01EA30A2
:10172000F4F4E05DD801EE938D01232B242B252BBF
:1017300079F790E080E0109719F0CD010E94600BDE
:10174000A1960FB6F894DEBF0FBECDBFDF91CF914B
:101750001F910F91BF90AF909F908F900895E95C7B
:10176000E1CFCF93DF930E947D07EC0189E891E000
:101770000E94600B8C0F9D1FDF91CF9108950C94F8
:10178000B10BCF92DF92EF92FF92CF93DF9397FF4F
:1017900019C06B017C018DE20E947807EC0166277D
:1017A0007727CB016C197D098E099F094AE00E94B9
:1017B0006D0B8C0F9D1FDF91CF91FF90EF90DF900D
:1017C000CF9008954AE0DF91CF91FF90EF90DF90A6
:1017D000CF900C946D0BCF93DF93BC01990F880BC6
:1017E000990B0E94C10BEC0189E891E00E94600B0B
:1017F0008C0F9D1FDF91CF9108954F925F926F9252
:101800007F928F929F92AF92BF92CF92DF92EF9290
:10181000FF920F931F93CF936B017C01742EAC0149
:101820009B010E94742A882399F08CE891E0CF9163
:101830001F910F91FF90EF90DF90CF90BF90AF90EE
:101840009F908F907F906F905F904F900C94600B63
:1018500046015701E894B7F82FEF3FEF4FE75FE7F6
:10186000C501B4010E94742A81110DC02FEF3FEF12
:101870004FE75FE7C501B4010E940D2818161CF45C
:1018800080E991E0D4CF2FEF3FEF4FE75FE4C7014E
:10189000B6010E946C2918161CF484E991E0C7CFA8
:1018A0002FEF3FEF4FE75FECC701B6010E940D2815
:1018B00087FDF3CF20E030E0A901C701B6010E9407
:1018C0000D2810E000E087FF08C08DE20E94780735
:1018D0008C01F7FAF094F7F8F094C0E060E070E063
:1018E00080E09FE37C1641F020E030E040E251E4EC
:1018F0000E941228CF5FF6CFA70196010E94A12770
:101900002B013C010E948B284B015C014AE00E94A4
:101910006D0B7C01E00EF11ECC23B1F1C501B401C9
:101920000E94BA289B01AC01C301B2010E94A0270A
:101930004B015C018EE20E947807E80EF91EC1504F
:1019400018F120E030E040E251E4C501B4010E940A
:1019500071292B013C010E948B284B01B12CA12C39
:101960004AE0C501B4010E946D0BE80EF91EC501E5
:10197000B4010E94BA289B01AC01C301B2010E94CC
:10198000A0274B015C01DBCFC701CF911F910F91C5
:10199000FF90EF90DF90CF90BF90AF909F908F908F
:1019A0007F906F905F904F900895CF92DF92EF926B
:1019B000FF92CF93C82F0E9409066B017C0188E338
:1019C00092E00E947D074AE0C701B6010E946D0BBC
:1019D00085E392E00E947D0783E392E0C03140F40A
:1019E000EC2FF0E0EE0FFF1FEC5EFE4F8081918147
:1019F000CF91FF90EF90DF90CF900C94B10BCF93ED
:101A0000C82F88E70E94E10982E08093A8020E9423
:101A10000906609368027093690280936A0290934A
:101A20006B0210926C028AE0C1118EE0CF910C948F
:101A3000D50C2091AC023091AD02A9014823592365
:101A4000452B69F4282B392B3093AD022093AC023F
:101A500087709927892B19F08DE00C94D50C089587
:101A60002091AE028091AC029091AD0287709927CF
:101A7000892B31F0283099F088E08093AE020895E8
:101A80008091A802811103C081E08093A8022130D7
:101A900031F081E08093AE0286E00C94D50C08957D
:101AA000CF92DF92EF92FF926B017C01109298022D
:101AB0000E94CC0A0E94F00A0E94300D1092A902E6
:101AC00010929E02C0929A02D0929B02E0929C02D7
:101AD000F0929D0281E0809399028DE392E0FF9065
:101AE000EF90DF90CF900C94B10B4F925F926F927A
:101AF0007F928F929F92AF92BF92FF920F931F930C
:101B0000CF93DF93D82F042FF52E122F81E08093EF
:101B10007203D0939403109273031092950386EE90
:101B200093E00E94AF0980E00E946908C82F8111EC
:101B3000CCC00E94B2054B015C0180916C03811105
:101B400065C081E080936C0380936B039FEF90935B
:101B50006A0310926903910F90936803809347037F
:101B600080914703DD0FD82BD09347038091460324
:101B7000813009F084C0109246030E94B2054B01E7
:101B80005C01809147038093BB0080916E0390912C
:101B90006F03A0917003B0917103892B8A2B8B2B5B
:101BA000A1F00E94B20540906E0350906F036090C8
:101BB000700370907103681979098A099B094616A8
:101BC00057066806790608F442C08091BC0083FD80
:101BD000D8CF85EC8093BC000E94B2054B015C011C
:101BE00080916C03813009F44CC0809169038117A6
:101BF00008F069C080916903A8E4B3E0E8E9F1E086
:101C0000C81749F19D919193CF5FFACF80916E03F0
:101C100090916F03A0917003B0917103892B8A2B6F
:101C20008B2B09F48ACF0E94B20540906E0350902E
:101C30006F036090700370907103681979098A09C5
:101C40009B09461657066806790608F076CF8091FC
:101C50006D030E94480810920902C09308021C13E9
:101C600034C0B02EC02FDF2D86EE93E00E946809AD
:101C700089938C2F8B198117B8F381E027C085EEEB
:101C8000A9CF80916E0390916F03A0917003B091E2
:101C90007103892B8A2B8B2B09F4A2CF0E94B205EA
:101CA00040906E0350906F036090700370907103CA
:101CB000681979098A099B09461657066806790644
:101CC00008F08ECFC4CF812F97CF80E0DF91CF91E6
:101CD0001F910F91FF90BF90AF909F908F907F903A
:101CE0006F905F904F900895EF92FF920F931F9324
:101CF000CF93DF93CDB7DEB72C970FB6F894DEBF46
:101D00000FBECDBF7C018B012CE0AE014F5F5F4F5A
:101D10006DE288E60E94750D882361F129813A8180
:101D2000322723273227F701318320832B813C81FF
:101D3000322723273227338322832D813E81322786
:101D400023273227358324832F8138853227232781
:101D50003227F8013183208329853A8532272327CA
:101D60003227338322832B853C8532272327322752
:101D7000358324832C960FB6F894DEBF0FBECDBFFB
:101D8000DF91CF911F910F91FF90EF9008952F92C7
:101D90003F924F925F926F927F928F929F92AF92FB
:101DA000BF92CF92DF92EF92FF920F931F93CF9348
:101DB000DF93CDB7DEB728970FB6F894DEBF0FBE1E
:101DC000CDBF98878F837B0126E0AE014F5F5F4FC9
:101DD00067EF87E70E94750D082F882309F4E9C192
:101DE00019812A803B808C8190E0B0E0A0E02CE05B
:101DF000880F991FAA1FBB1F2A95D1F74D8150E06C
:101E000070E060E034E0440F551F661F771F3A957D
:101E1000D1F7842B952BA62BB72B2E8130E044E0F5
:101E2000359527954A95E1F7032E000C440B550B89
:101E3000822B932BA42BB52B40910B0250910C02BB
:101E400070E060E02C013D01E4E0759467945794E4
:101E50004794EA95D1F7441A550A660A770AF3E0DF
:101E6000B595A79597958795FA95D1F7440F551F86
:101E7000661F771F5C016D01A41AB50AC60AD70A4E
:101E8000A6019501A0910D02B0910E020E94672754
:101E90004B015C013BE0B594A794979487943A95E5
:101EA000D1F7A3019201C301B2010E94B52B9B019E
:101EB000AC016CE055954795379527956A95D1F714
:101EC000A0910F02B09110020E9467272B013C01E4
:101ED0007EE075946794579447947A95D1F7480CAF
:101EE000591C6A1C7B1C409223025092240260926F
:101EF000250270922602A5E0B0E0A30192010E94A3
:101F00005C2760587F4F8F4F9F4F672F782F892F07
:101F1000992787FD9A950E94BC2820E030E048EC84
:101F200052E40E941228F7016083718382839383B5
:101F300073016201F594E794D794C794FAEFDF1A1E
:101F4000E108F108C701B601A2E09595879577955C
:101F50006795AA95D1F79B01AC010E94B52B4B0167
:101F60005C01A0911502B0911602AC019B018DE0BD
:101F700055954795379527958A95D1F70E946727FC
:101F80002B013C0193E075946794579447949A957C
:101F9000D1F7A0911302B0911402A70196010E94FB
:101FA00067279B01AC015595479537952795240DDB
:101FB000351D461D571D72E1559547953795279557
:101FC0007A95D1F730584F4F5F4FA0911102B091E1
:101FD00012020E945C272B013C01EFE0759467948C
:101FE00057944794EA95D1F7411451046104710460
:101FF00009F404C1A50194018BE0559547953795E7
:1020000027958A95D1F7A0911B02B0911C020E94DE
:1020100067274B015C01A0911902B0911A02A70138
:1020200096010E946727DC01CB01880F991FAA1F28
:10203000BB1F880D991DAA1DBB1D6C017D0132E0DF
:10204000F594E794D794C7943A95D1F7212F30E0CF
:1020500050E040E06CE0220F331F441F551F6A958B
:10206000D1F7822D90E0B0E0A0E074E0880F991FD6
:10207000AA1FBB1F7A95D1F7282B392B4A2B5B2B34
:10208000832D90E0E4E095958795EA95E1F7092E98
:10209000000CAA0BBB0B282B392B4A2B5B2B8091F6
:1020A000170290911802092E000CAA0BBB0BDC0141
:1020B000992788278C0D9D1DAE1DBF1D1CE0B59571
:1020C000A795979587951A95D1F7280F391F4A1F1D
:1020D0005B1FABECB3EF0E946A27805B9C4397FDCC
:1020E00082C0660F771F881F991FA30192010E946B
:1020F0006F2729013A01C301B20123E09695879524
:10210000779567952A95D1F79B01AC010E94B52B75
:102110009B01AC016DE056954795379527956A95DB
:10212000D1F7A0912102B09122020E9467276B0192
:102130007C017CE0F594E794D794C7947A95D1F725
:10214000A3019201E2E05695479537952795EA95C8
:10215000D1F7A0911F02B09120020E9467279B0136
:10216000AC01FDE05595479537952795FA95D1F740
:102170002C0D3D1D4E1D5F1DC0901D02D0901E02F6
:102180000D2C000CEE08FF082C0D3D1D4E1D5F1D93
:10219000A4E05595479537952795AA95D1F7420E16
:1021A000531E641E751EEF81F88540825182628243
:1021B0007382802F28960FB6F894DEBF0FBECDBF76
:1021C000DF91CF911F910F91FF90EF90DF90CF9013
:1021D000BF90AF909F908F907F906F905F904F9047
:1021E0003F902F900895A30192010E946F2729012B
:1021F0003A01440C551C661C771C7DCF412C512C98
:102200003201D1CF85ED8093BC0080916E03909117
:102210006F03A0917003B09171030796A11DB11DCA
:1022200023E0B695A795979587952A95D1F72091A4
:10223000BC0024FD03C010926C03089540916E030E
:1022400050916F036091700370917103452B462B81
:10225000472B69F30097A105B10541F02AE22A95C1
:10226000F1F700C00197A109B109E1CF80916D0399
:102270000C9448081F920F920FB60F9211242F93BF
:102280003F938F939F93AF93BF938091300390912F
:102290003103A0913203B091330330912F0323E037
:1022A000230F2D3758F50196A11DB11D20932F0343
:1022B0008093300390933103A0933203B0933303A0
:1022C0008091340390913503A0913603B091370388
:1022D0000196A11DB11D8093340390933503A09303
:1022E0003603B0933703BF91AF919F918F913F9188
:1022F0002F910F900FBE0F901F90189526E8230F77
:102300000296A11DB11DD2CF1F920F920FB60F9250
:1023100011248F939F938091E1009091E100937F2E
:102320009093E10083FF0FC01092E90091E0909339
:10233000EB001092EC0092E39093ED0010924503B5
:1023400098E09093F00082FF22C093E09093E90020
:102350009091F200992319F09AE39093E8009091FC
:102360000102992341F09091010291509093010252
:10237000911101C05D9A90914403992341F090918D
:102380004403915090934403911101C0289A84FF13
:1023900018C08091E2008E7E81608093E20080917F
:1023A000E1008F7E8093E100809102028E7E806149
:1023B000809302029F918F910F900FBE0F901F90FC
:1023C000189580FFF7CF8091E2008E7E8061809328
:1023D000E2008091E1008E7E8093E1008091020214
:1023E0008E7E8160E5CF1F920F920FB60F9211245F
:1023F000CF92DF92EF92FF920F931F932F933F9311
:102400004F935F936F937F938F939F93AF93BF93FC
:10241000EF93FF93CF93DF93CDB7DEB76C97DEBF1B
:10242000CDBF1092E9008091E80083FF25C068E0ED
:10243000CE0145960E94D00682EF8093E8008D89F8
:1024400087FF39C09091E80090FFFCCF982F9076DD
:1024500009F034C19E894F89588D2F89F88C9111CC
:1024600031C0803861F5809103028093F1001092B1
:10247000F1008EEF8093E8006C960FB6F894DEBF03
:102480000FBECDBFDF91CF91FF91EF91BF91AF9183
:102490009F918F917F916F915F914F913F912F917C
:1024A0001F910F91FF90EF90DF90CF900F900FBE94
:1024B0000F901F9018959EEF9093E800C7CF109251
:1024C000F100D5CF913059F48111D3CF413051056E
:1024D00081F6809103028D7F80930302CACF9330EF
:1024E00049F48111C6CF4130510519F6809103029C
:1024F0008260F2CF953041F48091E80080FFFCCFFC
:1025000020682093E300B5CF963009F0A9C00B8D69
:102510001C8D22E01092E9001092FF011092FE0142
:10252000F2122EC01092FD011092FC010E949F0633
:102530001F8299E09983FA8291E09E8390EA9887BE
:102540009AEF99872091FE013091FF01275F3F4F5D
:102550003C832B838D831092E9001092FF0110922F
:10256000FE011093FD010093FC0149E050E0BE0123
:102570006F5F7F4F80E00E9479060E949F0679CFAF
:102580001093FD010093FC010E94FC04DC011296F3
:102590000D911C910115110509F451C1D801ED915E
:1025A000FC910480F581E02DBE016B5E7F4FC80178
:1025B0000995009709F03EC1F80100851185EACF21
:1025C000F3E0FF120EC08F89882309F440C08230E7
:1025D00061F440E860E188E093E00E9446068111E2
:1025E00048CF81E28093EB0047CF813029F440E867
:1025F0006BE08CEF92E0F1CF833099F70E94FC04FE
:10260000DC011296ED90FC908E010F5F1F4F680168
:10261000E114F10479F0D701ED91FC910680F78186
:10262000E02DB801C7010995080F111DF701E084DD
:10263000F184EECFD8011C92F60101900020E9F759
:102640003197BF016C197D0940E0C601C6CF66EE27
:1026500072E0FB01449150E080E80E94790609CFC6
:10266000973009F4BECF983021F481E08093F100D7
:1026700000CF993009F0FDCE837009F0B2CFE5E3C9
:10268000F1E081E031E096E32191222371F0809323
:10269000E9003093EB00DF0111972C912093EC00BF
:1026A0009093ED008F5F873079F78EE78093EA0093
:1026B0001092EA008F8980934503DBCE8B8D9C8D31
:1026C0001092E9001092FF011092FE019093FD011B
:1026D0008093FC01898D811192C08E899D89913AE8
:1026E00049F4813209F07DCF47E050E064E071E0C9
:1026F00080E0B3CF913209F074CF833269F48F89CF
:10270000988DB0E0A0E08093000190930101A09328
:102710000201B0930301ADCE803269F48091E800EC
:1027200082FFFCCF67E084E091E00E94D0068BEF4F
:102730008093E8009ECE823209F09BCE8F898093F1
:102740000B01EEEFFFE7859194918B3F9C4D51F18A
:10275000E0E0F8E08091040190910501A09106016C
:10276000B0910701803B9440A105B105F1F480913F
:102770000B0180FD1AC0EE3F8AE0F80789F587E774
:1027800097E791838083809160008093000288E1C5
:102790009BE00FB6F894A895809360000FBE9093CD
:1027A000600067CEEEEFFAE0D5CF80819181873768
:1027B000974709F05ECEA89580916000886180936C
:1027C00060008091000280936000EE3F2AE0F207F3
:1027D00089F08091FE0A9091FF0A9183808349CE0F
:1027E000808191818737980751F29093FF0A8093F7
:1027F000FE0AC5CF1092FF0A1092FE0A3ACE0E943E
:10280000FC04DC0112960D911C910115110509F4CF
:10281000E8CED801ED91FC910190F081E02DBE0150
:102820006B5E7F4FC8010995811123CEF8010085A9
:102830001185EBCF181619060CF41BCED2CEF1E0A1
:10284000FF12BECE6AEE72E004CF1F920F920FB657
:102850000F9211242F933F934F935F936F937F9326
:102860008F939F93AF93BF93CF93DF93EF93FF9398
:102870008091FB01C0911604D0E087FF24C0109224
:102880008500109284008091FB018F5F8093FB0193
:102890008091FB01082E000C990B8C179D0724F4E6
:1028A0008091FB018C30C4F180918400909185006F
:1028B000049680349C4908F47AC0809184009091F9
:1028C0008500049676C08091FB01082E000C990BC0
:1028D0008C179D07C4F6E091FB018E2FEE0F990B2C
:1028E000FC01EE0FFF1FE80FF91FEE50FC4F808137
:1028F00086FFC9CFE091FB018E2FEE0F990BFC01F3
:10290000EE0FFF1FE80FF91FEE50FC4F808160E0D3
:102910008F730E941005B7CF2091840030918500FD
:10292000E091FB018E2FEE0F990BFC01EE0FFF1FC4
:10293000E80FF91FEE50FC4F81819281820F931FA7
:102940009093890080938800E091FB018E2FEE0F19
:10295000990BFC01EE0FFF1FE80FF91FEE50FC4F23
:10296000808186FF11C0E091FB018E2FEE0F990B45
:10297000FC01EE0FFF1FE80FF91FEE50FC4F8081A6
:1029800061E08F730E941005FF91EF91DF91CF916D
:10299000BF91AF919F918F917F916F915F914F9177
:1029A0003F912F910F900FBE0F901F90189580E4CC
:1029B0009CE990938900809388008FEF8093FB01BE
:1029C000E3CF1F920F920FB60F9211242F933F93D4
:1029D0004F935F936F937F938F939F93AF93BF9327
:1029E000EF93FF938091B900887F803609F44AC045
:1029F000F0F5883209F4A7C018F5803109F49BC0BE
:102A0000B8F4882309F4F9C0883009F494C0FF9120
:102A1000EF91BF91AF919F918F917F916F915F9156
:102A20004F913F912F910F900FBE0F901F901895CF
:102A3000883109F488C0803251F780936A0314C04A
:102A4000803409F49DC040F48033B9F38833F9F63B
:102A500080936A0385ECB0C0803509F485C0883561
:102A600009F496C0883499F60E940211D0CF8839B3
:102A700009F48CC038F5883729F050F4883611F005
:102A8000803729F683E080936C031092FA0157C0D7
:102A9000883809F47BC0803919F0803809F0B7CF45
:102AA0008091FA01803208F071C0E091FA0181E072
:102AB0008E0F8093FA018091BB00F0E0E652FE4F4A
:102AC00080833DC0803B39F0E0F4803A09F479C05E
:102AD000883A09F09CCF84E080936C031092D9016E
:102AE0001092D801E0910602F091070209958091B9
:102AF000D80181110FC081E08093D8011092B801F4
:102B000009C0803C09F4A6CF883C09F4A3CF883BD8
:102B100009F07DCFE091D90181E08E0F8093D9013A
:102B2000F0E0E854FE4F80818093BB009091D90182
:102B30008091D80129C0809147038093BB0085EC28
:102B40008093BC0064CF90916903809168039817CB
:102B500058F5E091690381E08E0F80936903F0E0FE
:102B6000E85BFC4F8081E9CFE091690381E08E0F43
:102B7000809369038091BB00F0E0E85BFC4F8083A9
:102B800090916903809168039817C8F285E8D8CFBF
:102B9000E091690381E08E0F809369038091BB000F
:102BA000F0E0E85BFC4F808380916B0381115CCF88
:102BB00081E08093460384EA8093BC0010926C030A
:102BC00026CF85EC8093BC0010926C038091FA01B3
:102BD000803230F4E091FA01F0E0E652FE4F1082CC
:102BE0006091FA0170E0E0910402F09105028AED33
:102BF00091E009951092FA010ACF10926A0334CF3E
:102C0000109299031092980388EE93E0A0E0B0E050
:102C100080939A0390939B03A0939C03B0939D038E
:102C200029E631E030939703209396032FEF3FEF8F
:102C30003093A3032093A2031092E9031092E803B8
:102C40008093EA039093EB03A093EC03B093ED031E
:102C50008BE791E09093E7038093E603809116045D
:102C60008C3098F491E0980F909316048093170499
:102C700090E0FC01EE0FFF1FE80FF91FEE50FC4F34
:102C800088EB9BE09283818308958FEF80931704F4
:102C90000895CF93DF93CDB7DEB7A6970FB6F8941C
:102CA000DEBF0FBECDBF789484B5826084BD84B58D
:102CB000816084BD85B5826085BD85B5816085BD37
:102CC00080916E00816080936E00109281008091EF
:102CD0008100826080938100809181008160809377
:102CE00081008091800081608093800080919100BC
:102CF0008260809391008091910081608093910027
:102D0000809190008160809390008091C1008460E8
:102D10008093C1008091C10082608093C100809146
:102D2000C10081608093C1008091C3008160809365
:102D3000C3008091C00082608093C0008091C20077
:102D400081608093C20080917A00846080937A00D1
:102D500080917A00826080937A0080917A0081600D
:102D600080937A0080917A00806880937A00109234
:102D7000450310920302109202028091D7008160F5
:102D80008093D70080EA8093D80089B5806189BD9F
:102D900089B5826089BD09B400FEFDCF61E070E0B5
:102DA00080E090E00E94D7058091D8008F7C806100
:102DB0008093D8008091E000807F8093E000809134
:102DC000E1008E7E8093E1008DE08093E200559AD1
:102DD000209A8FEF9FEF9093A3038093A20361E06B
:102DE00085E00E94810560E085E00E941005109258
:102DF000AD021092AC0210927F02109280021092EB
:102E000081021092820210927E0280E00E94D50C14
:102E100060E084E10E94810510920902109208028C
:102E200010927303109295030E942A0886E196E09F
:102E3000909307028093060287E196E09093050243
:102E4000809304028CE08093B80010920A0288EB11
:102E50009BE0A0E0B0E080936E0390936F03A0939B
:102E60007003B093710381E080936D031092270289
:102E7000109228021092290210922A0210922B021C
:102E800010922C0210922D0210922E0210922F02FC
:102E900010923002109231021092320210929F0270
:102EA0001092A0021092A1021092A20210923B0274
:102EB00010923C0210923D0210923E0210923F028C
:102EC0001092A90210929902198240E06FE788E6F9
:102ED0000E94430B21E0AE014F5F5F4F60E088E648
:102EE0000E94750D082F882309F461C089818A3EEC
:102EF00009F07FC240E866E088E60E94430B64E682
:102F000070E080E090E00E94D70540E06FE788E63F
:102F10000E94430B41E066E088E60E94430B6EE1AD
:102F200070E080E090E00E94D70540E067E088E62E
:102F30000E94430B6EE170E080E090E00E94D705B4
:102F400040E26FE788E60E94430B80E090E0A0E05B
:102F5000B5E48093100190931101A0931201B093F6
:102F6000130147E064E188E60E94430B83E393E3A7
:102F7000A3E8B1E480930C0190930D01A0930E019E
:102F8000B0930F0147E061E088E60E94430B40E008
:102F900060E088E60E94430B6EE170E080E090E024
:102FA0000E94D70540E06FE788E60E94430B198E28
:102FB00021E0AE01475E5F4F60ED87E70E94750D2F
:102FC000811119C210E08CE493E00E947D0780E03B
:102FD00094E00E947D0785E393E0011102C089E23D
:102FE00093E00E94B10B89E393E00E947D078AE0A1
:102FF00094E00E947D0785E293E0111102C089E10F
:1030000093E00E94B10B01110C94202784E090E022
:103010000E94190D111104C082E090E00E94190D68
:1030200081E090E00E94190D10E064EF71E080E013
:1030300090E00E94D7050E94CC0A10927202109272
:1030400071020091AC02112309F4F6C002FDA6C082
:10305000F0E43F2E10E0C12CD12C7601460157013F
:1030600026013701BE016F5F7F4FCE0149960E9456
:10307000740E882389F169817A81072E000C880BF0
:10308000990B0E94BC289B01AC01C301B2010E94B4
:10309000A1272B013C016B817C81072E000C880B42
:1030A000990B0E94BC289B01AC01C501B4010E9490
:1030B000A1274B015C016D817E81072E000C880BDE
:1030C000990B0E94BC289B01AC01C701B6010E946C
:1030D000A1276B017C011F5F65E070E080E090E05C
:1030E0000E94D7053A943110BDCF112309F456C080
:1030F00020910C0130910D0140910E0150910F0172
:103100002BA33CA34DA35EA3612F70E090E080E071
:103110000E94BC286F8F78A389A39AA39B01AC015E
:10312000C301B2010E9412282BA13CA14DA15EA1B6
:103130000E94122860932F02709330028093310214
:10314000909332022F8D38A149A15AA1C501B40133
:103150000E9412282BA13CA14DA15EA10E94122821
:1031600060932B0270932C0280932D0290932E0279
:103170002F8D38A149A15AA1C701B6010E9412287A
:103180002BA13CA14DA15EA10E94122860932702B1
:10319000709328028093290290932A0201FD4CC06B
:1031A00008E210E070E3C72E75E7D72EE12CF12C72
:1031B000E0EC8E2EE4ED9E2EAA24A394B12C412C9B
:1031C000512C3201BE016F5F7F4FCE0149960E94A4
:1031D000C70E882311F1898D9A8DAB8DBC8DAC0102
:1031E000BD01405355476109710941395F4561404F
:1031F000710598F4480E591E6A1E7B1E88159905A4
:10320000AA05BB0514F44C015D01C816D906EA06EF
:10321000FB0614F46C017D011F5F64E170E080E047
:1032200090E00E94D705015069F6143108F065C19D
:1032300082E090E00E94190D0E94F00A8091AC0299
:103240009091AD0287709927892B21F082E593E058
:103250000E94B10B10927802109277020E94300DFA
:103260001092A3021092830210928402109285029F
:10327000109286020E9409066093F5027093F6028E
:103280008093F7029093F8026093F9027093FA0228
:103290008093FB029093FC0260932B0370932C03AA
:1032A00080932D0390932E036093B0027093B1022C
:1032B0008093B2029093B3026093ED027093EE029A
:1032C0008093EF029093F0026093F1027093F20208
:1032D0008093F3029093F4021E015FE1250E311CEE
:1032E0000E9409062B013C0180912B0390912C0335
:1032F000A0912D03B0912E03209198025301420119
:10330000881A990AAA0ABB0AD501C401222309F422
:103310004AC64497A105B10508F424C240922B0384
:1033200050922C0360922D0370922E038090940291
:1033300090909502A0909602B09097028091900292
:1033400090919102A0919202B09193027301620157
:10335000C81AD90AEA0AFB0AC701B6010E94BA28AC
:1033600020E030E04AE754E40E9412286B017C011F
:103370004092900250929102609292027092930257
:1033800020E030E0A9010E940D2818160CF0EBC0D7
:1033900020E030E040E05FE3C701B6010E946C2905
:1033A00018160CF4E0C093018201081919092A09C2
:1033B0003B090F8F18A329A33AA380918702882382
:1033C00009F4D5C0109288021092890210928A02E4
:1033D00010928B0210928C0210928D0210928E022B
:1033E00010928F02C12CD12C00E8E02E0FE3F02EBA
:1033F00001C100E0DCCD898D883509F0E3CD46EBD5
:1034000060EE87E70E94430B6AE070E080E090E0A6
:103410000E94D70528E1AE014F5F5F4F68E887E75C
:103420000E94750D182F882309F4CCCD29813A818B
:1034300030930C0220930B028B819C8190930E029F
:1034400080930D028D819E819093100280930F02D4
:103450008F819885909312028093110249855A8535
:1034600050931402409313024B855C8550931602CF
:10347000409315024D855E855093180240931702C4
:103480004F85588950931A024093190249895A89E5
:1034900050931C0240931B024B895C8950931E027F
:1034A00040931D024D895E895093200240931F0274
:1034B0004F89588D5093220240932102109223028B
:1034C000109224021092250210922602232B09F456
:1034D00079CD892B09F476CD48E065EF87E70E9426
:1034E000430B4FE264EF87E70E94430B62E370E017
:1034F00080E090E00E94D70566CD212F30E050E0BB
:1035000040E0C301B2010E943D2720939F02309307
:10351000A0024093A1025093A202542F432F322FB6
:10352000222720934002309341024093420250935D
:103530004302C818D908EA08FB0849E7C416D104B1
:10354000E104F10424F080E091E00E94190D109252
:103550003B0210923C0210923D0210923E0281E02A
:1035600080933F0269CEC12CD12C76011CCF809074
:103570008C0290908D02A0908E02B0908F022F8DC1
:1035800038A149A15AA12A3F31054105510508F04A
:10359000B0C420E030E04CE852E4C701B6010E941C
:1035A0007129209188023091890240918A025091BC
:1035B0008B020E94A1279B01AC01209388023093CB
:1035C000890240938A0250938B02C701B6010E9480
:1035D0007129A50194010E94A12760938C02709328
:1035E0008D0280938E0290938F02C12CD12CE12CFE
:1035F00091E4F92E20E030E0A90160918C027091F5
:103600008D0280918E0290918F020E940D281816D3
:10361000CCF010928C0210928D0210928E021092B9
:103620008F02109288021092890210928A021092E0
:103630008B0281E080938702C12CD12C10E8E12E0F
:103640001FE3F12E60918C0270918D0280918E02A9
:1036500090918F0260930503709306038093070394
:1036600090930803C0921503D0921603E0921703BB
:10367000F09218031092090310920A0310920B03A0
:1036800010920C0310920D0310920E0310920F0370
:1036900010921003C0921103D0921203E092130310
:1036A000F09214031092190310921A0310921B0344
:1036B00010921C0310921D0310921E0310921F0300
:1036C00010922003109221031092220310922303E0
:1036D000109224032DEC3CEC4CE351E40E94712940
:1036E0000E94842800919F021091A0022091A102C3
:1036F0003091A20248015901861A970AA80AB90A0C
:10370000D501C4018093FD029093FE02A093FF02B5
:10371000B0930003A12CB12CB0EACB2EB1E4DB2E88
:10372000A0920103B0920203C0920303D09204035B
:1037300081E080932A0380932903409225035092CD
:1037400026036092270370922803CF8CD8A0E9A0AB
:10375000FAA001E2C0160EE4D006E104F10410F074
:10376000109298028091AE02813009F0CCC0809115
:1037700098028111C8C080912903882309F4C3C02D
:1037800080919F029091A002A091A102B091A2020B
:10379000181619061A061B060CF0B5C080919E0279
:1037A000882351F010929E0240929A0250929B02FE
:1037B00060929C0270929D0280912A03882309F4F2
:1037C0008CC08091250390912603A0912703B0918E
:1037D0002803409144025091450260914602709145
:1037E000470284179507A607B70709F476C04091EA
:1037F0009A0250919B0260919C0270919D0253012C
:103800004201841A950AA60AB70AB501A401483BE9
:103810000BE050076105710508F45FC0E091A90253
:103820008093440290934502A0934602B0934702CE
:1038300000914002109141022091420230914302D6
:103840008091FD029091FE02A091FF02B0910003D1
:10385000BA2FA92F982F8827801B910BA20BB30B8F
:10386000FAE0E11101C0F4E004C0B595A795979581
:103870008795FA95D2F7800F911FA21FB31F8093EF
:10388000400290934102A0934202B0934302892FD9
:103890009A2FAB2FBB27A7FDBA9580939F029093D9
:1038A000A002A093A102B093A202E1112CC0403467
:1038B0005F4161057105A8F010923F0281E080939D
:1038C000A9028091AC029091AD029E7F9093AD02CF
:1038D0008093AC028FE00E94D50C8091A9028111E7
:1038E00012C08091990281110EC020E3421625E793
:1038F00052066104710438F080E091E00E94190DD5
:1039000081E0809399028091F5029091F602A09156
:10391000F702B091F802B301A201481B590B6A0BE0
:103920007B0BDB01CA014497A105B10508F483C0F4
:103930004092F5025092F6026092F7027092F802FD
:1039400010912A030091AE02112309F43FC0809127
:10395000640290916502A0916602B0916702809026
:10396000050390900603A0900703B090080300970A
:10397000A105B10509F029C580926002909261020B
:10398000A0926202B0926302409264025092650279
:103990006092660270926702A50194016091A40290
:1039A0007091A5028091A6029091A7020E940D2815
:1039B00087FF0CC08EEF800F823040F48092A4020B
:1039C0009092A502A092A602B092A702033009F439
:1039D0006CC608F032C5013009F46BC5023009F439
:1039E0001FC6C0907302D0907402E0907502F090F0
:1039F0007602C114D104E104F104E9F08091AE0231
:103A00008730C9F0D301C2018C199D09AE09BF09E5
:103A100080369A4EA105B10570F080E890E00E94D2
:103A2000190D8091AE02873031F087E08093AE02AD
:103A30008CE00E94D50C80916D0290916E02A09155
:103A40006F02B09170020097A105B10519F1A301B1
:103A50009201281B390B4A0B5B0BDA01C901803B31
:103A60009440A105B105B4F0E09117048E2F90E0C9
:103A7000FC01EE0FFF1FE80FF91FEE50FC4F808195
:103A80008F7B808310926D0210926E0210926F02F3
:103A9000109270022091A802223051F580916C02A0
:103AA000811126C08091680290916902A0916A02FA
:103AB000B0916B02B301A201481B590B6A0B7B0B3F
:103AC000DB01CA01803B9440A105B1058CF0E09177
:103AD00017048E2F90E0FC01EE0FFF1FE80FF91F77
:103AE000EE50FC4F80818F7B808381E080936C025D
:103AF0008091F1029091F202A091F302B091F40250
:103B000073016201C81AD90AEA0AFB0A8091ED0220
:103B10009091EE02A091EF02B091F002B301A201E8
:103B2000481B590B6A0B7B0B0091AE0288E2C8164A
:103B3000D104E104F10430F4483C510561057105FC
:103B400008F409C14092B4025092B5026092B602E4
:103B50007092B7028091730290917402A0917502E5
:103B6000B09176020097A105B10541F053014201E1
:103B7000881A990AAA0ABB0AD501C4018093B8021F
:103B80009093B902A093BA02B093BB0280917702DE
:103B900090917802019690937802809377029093A7
:103BA000BD028093BC020093BE022093BF028091AD
:103BB000FD029091FE02A091FF02B091000380935C
:103BC000C0029093C102A093C202B093C30280913D
:103BD000010390910203A0910303B0910403809329
:103BE000C4029093C502A093C602B093C70280910D
:103BF000050390910603A0910703B09108038093F9
:103C0000C8029093C902A093CA02B093CB028091DC
:103C1000A4029091A502A091A602B091A702809360
:103C2000CC029093CD02A093CE02B093CF028091AC
:103C3000090390910A03A0910B03B0910C038093A8
:103C4000D0029093D102A093D202B093D30280917C
:103C50000D0390910E03A0910F03B0911003809378
:103C6000D4029093D502A093D602B093D70280914C
:103C7000110390911203A0911303B0911403809348
:103C8000D8029093D902A093DA02B093DB0280911C
:103C9000190390911A03A0911B03B0911C03809308
:103CA000DC029093DD02A093DE02B093DF028091EC
:103CB0001D0390911E03A0911F03B09120038093D8
:103CC000E0029093E102A093E202B093E3028091BC
:103CD000210390912203A0912303B09124038093A8
:103CE000E4029093E502A093E602B093E70280918C
:103CF00072028093E802809171028093E9028091C0
:103D0000AC029091AD029C0126703327232B09F45D
:103D100071C522E02093EA029093EC028093EB02BB
:103D200018E2C116D104E104F10440F04092F1021E
:103D30005092F2026092F3027092F402483C5105F4
:103D40006105710540F04092ED025092EE026092E2
:103D5000EF027092F0021091A902013009F0102FC9
:103D600080917A0290917B02A0917C02B0917D02B9
:103D70000097A105B10571F0A3019201281B390B31
:103D80004A0B5B0BDA01C901883E9340A105B105DE
:103D900008F454C0D301C201816080937A029093E9
:103DA0007B02A0937C02B0937D0244E030E020E0EF
:103DB000E9E9F3E0849150917B00982F990F990FD6
:103DC00090725F7D952B90937B00877080648093C9
:103DD0007C0080917A00806480937A0080917A00E0
:103DE00086FDFCCF8091780090917900280F391FD3
:103DF0004150F1F6A7E7B1E00E9491272FEF33E0A1
:103E000040E050E00E946F273093AB022093AA025B
:103E10000230A0F42E39F2E03F0708F0EDC48091A3
:103E20007902833018F48F5F809379028091790250
:103E3000833020F080E092E00E94190D8091AC0266
:103E40009091AD0287709927892B09F0E5C48AEF1C
:103E500090E0183040F4E12FF0E0EE0FFF1FE55C3A
:103E6000FE4F8081918140917F025091800260914C
:103E700081027091820253014201841A950AA60AB6
:103E8000B70AB501A401B0E0A0E0481759076A07D6
:103E90007B0788F040927F025092800260928102FC
:103EA0007092820260917E0281E0682760937E02B8
:103EB00085E00E9410058091AE02813009F4AFC404
:103EC0001092A302873009F05EC586E993E00E9454
:103ED000E907892B09F457C586E993E00E94A707F3
:103EE0008235910509F04FC5C301B2010E94500D02
:103EF0004AC58091A8028230B9F123EC35EF4CE13C
:103F000051E4C701B6010E9471299B01AC01609187
:103F100088027091890280918A0290918B020E949E
:103F2000A0279B01AC012093880230938902409323
:103F30008A0250938B02C701B6010E947129A50124
:103F400094010E94A12760938C0270938D0280934C
:103F50008E0290938F028AE9C82E89E9D82E89E1D2
:103F6000E82E8EE3F82E46CB40E050E060EA70EC9D
:103F7000409388025093890260938A0270938B0267
:103F80009A01AB01C701B6010E947129A5019401F4
:103F90000E94A12760938C0270938D0280938E0201
:103FA00090938F021FCA4497A105B105B8F04092C3
:103FB0002B0350922C0360922D0370922E03BE01AE
:103FC0006F5F7F4FCE0149960E94740E811133C0FE
:103FD0001092290384E090E00E94190D8091F9026B
:103FE0009091FA02A091FB02B091FC026301520190
:103FF000A81AB90ACA0ADB0AD601C5018897A10521
:10400000B10508F4AFCB4092F9025092FA026092E7
:10401000FB027092FC02BE016F5F7F4FCE0149969A
:104020000E94C70E81111DC110922A0382E090E008
:104030000E94190D97CB2091390230913A02A901C3
:10404000440F551FFE017996A3E3B2E0819191914F
:104050006D917D91861B970B820F931F481759070F
:1040600008F0FAC086E0FE017996A3E3B2E0019081
:104070000D928A95E1F781E080939E02C090100135
:10408000D0901101E0901201F090130180900C018A
:1040900090900D01A0900E01B0900F018F8E98A20C
:1040A000A9A2BAA2698D7A8D072E000C880B990BF4
:1040B0000E94BC28A70196010E9412286BA37CA332
:1040C0008DA39EA36093090370930A0380930B034F
:1040D00090930C036B8D7C8D072E000C880B990B35
:1040E0000E94BC28A70196010E9412284B015C0186
:1040F00080920D0390920E03A0920F03B0921003D2
:104100006D8D7E8D072E000C880B990B0E94BC28AC
:10411000A70196010E9412286B017C01C092110335
:10412000D0921203E0921303F092140369817A8112
:10413000072E000C880B990B0E94BC282F8D38A1EC
:1041400049A15AA10E94122820912F0230913002D9
:1041500040913102509132020E94A02760931903CE
:1041600070931A0380931B0390931C036B817C81D3
:10417000072E000C880B990B0E94BC282F8D38A1AC
:1041800049A15AA10E94122820912B0230912C02A1
:1041900040912D0250912E020E94A02760931D0392
:1041A00070931E0380931F03909320036D817E8183
:1041B000072E000C880B990B0E94BC282F8D38A16C
:1041C00049A15AA10E941228209127023091280269
:1041D0004091290250912A020E94A0276093210356
:1041E0007093220380932303909324032BA13CA17B
:1041F0004DA15EA1CA01B9010E9471296F8F78A3F8
:1042000089A39AA3A5019401C501B4010E94712953
:104210009B01AC016F8D78A189A19AA10E94A12771
:104220004B015C01A7019601C701B6010E947129EB
:104230009B01AC01C501B4010E94A1270E94342A50
:1042400060931503709316038093170390931803DC
:1042500081E080932903C2CEE215F30509F0F6CE82
:104260000DCF698D7A8D8B8D9C8D8B019C010053B8
:1042700015472109310901391F452140310518F041
:1042800010922A036FCA6093FD027093FE0280931E
:10429000FF029093000309811A812B813C810093D6
:1042A0000103109302032093030330930403C0908F
:1042B0009F02D090A002E090A102F090A2021C14F4
:1042C0001D041E041F040CF05BC00E94BC284B019F
:1042D0005C01C701B6010E94BC289B01AC01C5016D
:1042E000B4010E9412282BEA3CED42E45EE30E94F6
:1042F000DE299B01AC0160E070E080E89FE30E9452
:10430000A02720E03AE24DE257E40E9471296B01B8
:104310007C0120E030E04AEF53E4C701B6019F770B
:104320000E946C2918160CF4ABCF80913F028111CA
:104330002BC0C0923B02D0923C02E0923D02F09230
:104340003E0281E080933F0280913B0290913C02CB
:10435000A0913D02B0913E02809305039093060325
:10436000A0930703B09308034092250350922603BD
:10437000609227037092280381E080932A03F2C998
:10438000C12CD12C7601C5CF80903B0290903C028D
:10439000A0903D02B0903E02A5019401C701B60174
:1043A0000E94A02723E333E343EB5EE30E947129DD
:1043B000A50194010E94A12760933B0270933C02E7
:1043C00080933D0290933E02BFCF73016201C81AF1
:1043D000D90AEA0AFB0A52E3C516D104E104F10442
:1043E00008F4DACA209160023091610240916202C1
:1043F00050916302C501B4010E94A02720E030E083
:104400004AE754E40E9471296F8F78A389A39AA385
:10441000C701B6010E94BA289B01AC016F8D78A13B
:1044200089A19AA10E94122860935C0270935D0298
:1044300080935E0290935F029FCA073008F0D1CA52
:10444000112399F060915C0270915D0280915E028F
:1044500090915F029F7720E030E040E05FE30E94B0
:104460000D28182F111F1127111F80912903882350
:10447000B9F020E030E040E85FE36091150370910F
:10448000160380911703909118030E94A0279F772D
:1044900020E030E040E85EE30E940D2887FDB6C4CE
:1044A000109248021092490210924A0210924B0256
:1044B00098CA80912903882309F493CA20E030E048
:1044C00040E250E460911503709116038091170348
:1044D000909118030E946C2987FF3EC010925802E9
:1044E0001092590210925A0210925B02C09054022C
:1044F000D0905502E0905602F0905702C114D104BA
:10450000E104F10409F46DCA112309F45DC020E04F
:1045100030E040EC5FE36091050370910603809109
:104520000703909108030E940D2887FF4DC0D30117
:10453000C2018C199D09AE09BF09893E9340A105AE
:10454000B10508F44ECA109254021092550210920E
:1045500056021092570245CA809158029091590212
:10456000A0915A02B0915B020097A105B10549F4F0
:10457000409258025092590260925A0270925B0225
:10458000B5CF53014201881A990AAA0ABB0AD5017C
:10459000C401CC97A105B10508F4A8CF80915402BD
:1045A00090915502A0915602B0915702892B8A2B07
:1045B0008B2B09F09BCF409254025092550260928F
:1045C00056027092570292CF409273025092740238
:1045D000609275027092760280E090E0DC01112317
:1045E00041F08091050390910603A0910703B091DB
:1045F00008038093A4029093A502A093A602B0930F
:10460000A702109264021092650210926602109244
:10461000670282E08093AE0287E00E94D50CE1C978
:1046200080912903882381F020E030E040EA5FE3B5
:1046300060911503709116038091170390911803F0
:104640000E940D2887FD09C010925002109251025D
:104650001092520210925302C4C98091500290915C
:104660005102A0915202B09153020097A105B105E9
:1046700049F440925002509251026092520270925C
:104680005302AFC9A3019201281B390B4A0B5B0BE4
:10469000DA01C90180359105A105B10508F4A1C968
:1046A00083E08093AE0288E0B8CF112309F499C962
:1046B0008090050390900603A0900703B090080334
:1046C0002091A4023091A5024091A6025091A70228
:1046D000C501B4010E946C29181644F48092A4020A
:1046E0009092A502A092A602B092A702C090730277
:1046F000D0907402E0907502F0907602C114D1045B
:10470000E104F10409F497C9D301C2018C199D0990
:10471000AE09BF0980399140A105B10508F46EC901
:10472000A50194016091A4027091A5028091A60256
:104730009091A7020E94A02720E030E040E050E4E2
:104740000E946C2987FF09C010924C0210924D0202
:1047500010924E0210924F0244C980914C029091E7
:104760004D02A0914E02B0914F020097A105B105F4
:1047700049F440924C0250924D0260924E02709267
:104780004F022FC9B301A201481B590B6A0B7B0BC7
:10479000DB01CA0186399105A105B10508F42EC9CE
:1047A00084E08093AE0289E00E94D50C8091A8023B
:1047B000823019F080E00E94FF0C8091AE028530BB
:1047C00009F40FC985E08093AE028BE026CF530138
:1047D0004201881A990AAA0ABB0AD501C401803D80
:1047E0009740A105B10508F4FCC887E08093AE02AC
:1047F0008CE013CF21E08ECA2E3A324008F41ECB53
:104800008091AC029091AD02109279029D7F9093BD
:10481000AD028093AC0212CB84E690E024CB809171
:10482000A302882399F14091830250918402609100
:1048300085027091860263015201A41AB50AC60A64
:10484000D70AB601A5014C3D554061057105F0F050
:104850004092830250928402609285027092860296
:10486000813051F0823009F443C083EA93E00E9422
:10487000B10B1092A3020AC088E70E94AD0A8EED28
:1048800093E00E94B10B82E08093A30286E993E05B
:104890000E94E907892B09F476C086E993E00E941B
:1048A000A707883609F48AC2DCF5843409F406C205
:1048B00044F58F3309F482C290ED980F9A3008F0D6
:1048C00062C014E1919F102D1124812F0E94AD0A26
:1048D0008BEC96E00E947D07612F70E090E080E015
:1048E0004AE00E946D0B89E891E00E94600B4BC08A
:1048F00084E10E94AD0A8DEB93E00E94B10B83E04E
:10490000C3CF823509F4D4C18436B1F688E70E945A
:10491000AD0A8BE298E00E947D0788E790E031C005
:10492000833731F16CF4893609F4D2C1823721F62C
:104930008091A802823009F091C188EB97E08BC189
:10494000843709F478C18A3709F0B6CF1092A902EA
:1049500010929E0240929A0250929B0260929C0298
:1049600070929D0281E0809399028EE297E073C17C
:1049700084E10E94AD0A8FE498E00E947D0784E103
:1049800090E00E94EB0B8091B0029091B102A09157
:10499000B202B091B302A3019201281B390B4A0B5A
:1049A0005B0BDA01C901883C9105A105B10508F44A
:1049B0002DC14092B0025092B1026092B202709248
:1049C000B3024AE0C301B2010E946D0B80EB98E094
:1049D0000E947D07E091AE028FE698E0E93038F45E
:1049E000F0E0EE0FFF1FE55BFE4F808191810E949A
:1049F0007D078CEA98E00E947D0760910503709125
:104A00000603809107039091080342E00E94FD0B8A
:104A100086EA98E00E947D076091A4027091A50249
:104A20008091A6029091A70242E00E94FD0B80EACD
:104A300098E00E947D0760911503709116038091A4
:104A400017039091180342E00E94FD0B8CE998E057
:104A50000E947D076091FD027091FE028091FF022D
:104A6000909100030E94C10B86E998E00E947D07A7
:104A7000E091A80281E798E0E43038F4F0E0EE0F2E
:104A8000FF1FE35AFE4F808191810E947D0782E9DA
:104A900098E00E947D076091A90270E090E080E0BC
:104AA0000E94C10B8DE898E00E947D076091AA02E8
:104AB0007091AB0290E080E00E94BA2820E030E0E4
:104AC00048EC52E40E94122842E00E94FD0B85E867
:104AD00098E00E947D076091AC027091AD0290E079
:104AE00080E040E10E946D0B8DE798E00E947D0719
:104AF0004AE060E070E0CB010E946D0B88E798E02F
:104B00000E947D0780911704282F30E0F901EE0FF5
:104B1000FF1FE20FF31FEE50FC4F90812FEF3FEF8E
:104B200096FF4EC09091190448E5842E42E0942EE1
:104B3000891A910897FD9394880C991C880C991CEC
:104B4000092C000CAA08BB089091180468E8C62E2E
:104B5000D12CC91AD10897FDD394CC0CDD1CCC0CF8
:104B6000DD1C0D2C000CEE08FF088F3F09F44BC133
:104B70008181928123E0880F991F2A95E1F7B0E0A7
:104B8000A0E034E0B595A795979587953A95D1F72C
:104B900002969C012F5F3F4F032E000C440B550BD8
:104BA0002C193D094E095F09A4EBB0E00E945C2777
:104BB000A50194012C193D094E095F090E943D276A
:104BC000B901330F880B990B0E94C10B83E798E062
:104BD0000E947D074AE060E070E0CB010E946D0B0F
:104BE0008FE20E9478074AE060E070E0CB010E940B
:104BF0006D0B8FE20E9478074AE060E070E0CB0125
:104C00000E946D0B89E891E00E94600B8091AE02DA
:104C1000873039F48091AF02811103C081E0809325
:104C2000AF0280E090E0892B11F40C9470190E947F
:104C300000000C946C1981E08093A30240928302DF
:104C400050928402609285027092860284E10E94F2
:104C5000AD0A81EF93E00E94B10B95CE81E897E019
:104C60000E94B10B81E0809398024092940250928E
:104C70009502609296027092970240929002509232
:104C80009102609292027092930210928C021092A2
:104C90008D0210928E0210928F0210928802109252
:104CA000890210928A0210928B02109287026BCEB8
:104CB0008091A802823009F066CE16C98091A802C0
:104CC000823019F081E00E94FF0C85EE96E0C3CFA0
:104CD00080E395E00E94B10B83E295E00E947D079E
:104CE00080E094E00E94B10B8EE095E00E947D0789
:104CF0008AE094E00E94B10B82EE94E00E947D076E
:104D000060919F027091A0028091A1029091A202F5
:104D10000E94C10B89E891E00E94600B8AEB94E04D
:104D20000E947D0764E170E080E090E00E94C10B8A
:104D30008FE20E94780788E790E00E94EB0B83EAFD
:104D400094E00E947D076091AA027091AB0290E00E
:104D500080E00E94BA2820E030E048EC52E40E9453
:104D6000122842E00E94FD0B89E891E00E94600B4E
:104D700085E894E00E947D076091AC027091AD02DD
:104D800090E080E040E10E946D0B89E891E00E9494
:104D9000600B8BE494E00E947D074AE060E070E0E5
:104DA000CB010E946D0B89E891E00E94600B8CE3BF
:104DB00094E00E947D0781E194E04DCF87E996E081
:104DC0000E94BF0B8DE796E00E94BF0B8FE596E037
:104DD0000E94BF0B88E396E00E94BF0B8FE096E035
:104DE0000E94BF0B83ED95E00E94BF0B86E895E023
:104DF0000E94BF0B80E695E00E94BF0B85E495E022
:104E00000E94BF0BC0CD90E080E0C3CE112309F417
:104E100047CB8091480290914902A0914A02B091FB
:104E20004B020097A105B10509F0D1CC4092480290
:104E30005092490260924A0270924B020C94F11C0B
:104E4000112311F40C940C182DEC3CEC4CEC5DE3AC
:104E500060911001709111018091120190911301E4
:104E60000E9471290E94842870933A02609339024B
:104E700081E00E94D50C0C941518052E97FB1EF4AA
:104E800000940E94542757FD07D00E946F2707FC0B
:104E900003D04EF40C9454275095409530952195AD
:104EA0003F4F4F4F5F4F0895909580957095619556
:104EB0007F4F8F4F9F4F08950E949127A59F900D80
:104EC000B49F900DA49F800D911D11240895B7FFEC
:104ED0000C945C270E945C27821B930B0895A1E22F
:104EE0001A2EAA1BBB1BFD010DC0AA1FBB1FEE1F64
:104EF000FF1FA217B307E407F50720F0A21BB30BAF
:104F0000E40BF50B661F771F881F991F1A9469F72A
:104F100060957095809590959B01AC01BD01CF0186
:104F20000895A29FB001B39FC001A39F700D811D82
:104F30001124911DB29F700D811D1124911D0895A2
:104F40005058BB27AA270E94B8270C9432290E94E8
:104F5000242938F00E942B2920F039F49F3F19F4BE
:104F600026F40C9421290EF4E095E7FB0C941B2900
:104F7000E92F0E94432958F3BA1762077307840781
:104F8000950720F079F4A6F50C9465290EF4E095C8
:104F90000B2EBA2FA02D0B01B90190010C01CA01F3
:104FA000A0011124FF27591B99F0593F50F4503E9E
:104FB00068F11A16F040A22F232F342F4427585F90
:104FC000F3CF469537952795A795F0405395C9F7A8
:104FD0007EF41F16BA0B620B730B840BBAF0915060
:104FE000A1F0FF0FBB1F661F771F881FC2F70EC0FF
:104FF000BA0F621F731F841F48F4879577956795D2
:10500000B795F7959E3F08F0B0CF9395880F08F0BD
:105010009927EE0F9795879508950E94F72808F431
:1050200081E008950E9426280C9432290E942B29A1
:1050300058F00E94242940F029F45F3F29F00C9495
:105040001B2951110C9466290C9421290E94432993
:1050500068F39923B1F3552391F3951B550BBB27A7
:10506000AA2762177307840738F09F5F5F4F220FEC
:10507000331F441FAA1FA9F335D00E2E3AF0E0E8E3
:1050800032D091505040E695001CCAF72BD0FE2F2D
:1050900029D0660F771F881FBB1F261737074807C1
:1050A000AB07B0E809F0BB0B802DBF01FF27935879
:1050B0005F4F3AF09E3F510578F00C941B290C94F9
:1050C00066295F3FE4F3983ED4F38695779567951C
:1050D000B795F7959F5FC9F7880F911D96958795AE
:1050E00097F90895E1E0660F771F881FBB1F6217CD
:1050F00073078407BA0720F0621B730B840BBA0B8B
:10510000EE1F88F7E09508950E948B286894B111EE
:105110000C94662908950E944B2988F09F5798F0B7
:10512000B92F9927B751B0F0E1F0660F771F881FAC
:10513000991F1AF0BA95C9F714C0B13091F00E94C6
:105140006529B1E008950C946529672F782F882789
:10515000B85F39F0B93FCCF3869577956795B395ED
:10516000D9F73EF490958095709561957F4F8F4F5C
:105170009F4F0895E89409C097FB3EF49095809561
:10518000709561957F4F8F4F9F4F9923A9F0F92F0D
:1051900096E9BB279395F695879577956795B7958B
:1051A000F111F8CFFAF4BB0F11F460FF1BC06F5F71
:1051B0007F4F8F4F9F4F16C0882311F096E911C083
:1051C000772321F09EE8872F762F05C0662371F0A4
:1051D00096E8862F70E060E02AF09A95660F771FB8
:1051E000881FDAF7880F9695879597F90895990F94
:1051F0000008550FAA0BE0E8FEEF16161706E807A1
:10520000F907C0F012161306E407F50798F0621BC1
:10521000730B840B950B39F40A2661F0232B242B96
:10522000252B21F408950A2609F4A140A6958FEFB5
:10523000811D811D089597F99F6780E870E060E007
:1052400008959FEF80EC089500240A94161617061F
:1052500018060906089500240A9412161306140667
:1052600005060895092E0394000C11F4882352F0CA
:10527000BB0F40F4BF2B11F460FF04C06F5F7F4F82
:105280008F4F9F4F089557FD9058440F551F59F069
:105290005F3F71F04795880F97FB991F61F09F3F23
:1052A00079F087950895121613061406551FF2CF4C
:1052B0004695F1DF08C0161617061806991FF1CF9C
:1052C00086957105610508940895E894BB276627C3
:1052D0007727CB0197F908950E94F72808F48FEFFC
:1052E00008950E9484290C9432290E94242938F0C0
:1052F0000E942B2920F0952311F00C941B290C946B
:10530000212911240C9466290E94432970F3959F4A
:10531000C1F3950F50E0551F629FF001729FBB27AC
:10532000F00DB11D639FAA27F00DB11DAA1F649F48
:105330006627B00DA11D661F829F2227B00DA11DFB
:10534000621F739FB00DA11D621F839FA00D611D81
:10535000221F749F3327A00D611D231F849F600DA2
:10536000211D822F762F6A2F11249F5750409AF0CB
:10537000F1F088234AF0EE0FFF1FBB1F661F771F57
:10538000881F91505040A9F79E3F510580F00C9422
:105390001B290C9466295F3FE4F3983ED4F386956D
:1053A00077956795B795F795E7959F5FC1F7FE2BC2
:1053B000880F911D9695879597F90895FA01EE0F3C
:1053C000FF1F309621053105A1F16115710561F4CA
:1053D0008038BFE39B0749F168949038810561F0FC
:1053E0008038BFEF9B0741F099234AF5FF3FE10565
:1053F0003105210519F1E8940894E795D901AA230C
:1054000029F4AB2FBE2FF85FD0F310C0FF5F70F40C
:10541000A695E0F7F73950F019F0FF3A38F49F7786
:105420009F930DD00F9007FC9058089546F00C9470
:10543000212960E070E080E89FE308954FE79F77BF
:105440005F934F933F932F930E94392B2F913F915E
:105450004F915F910E9471290C94812A19F416F4DE
:105460000C9421290C94B32A0E944B29B8F3992358
:10547000C9F3B6F39F57550B87FF0E94C12A00243A
:10548000A0E640EA900180585695979528F4805CF4
:10549000660F771F881F20F026173707480730F45C
:1054A000621B730B840B202931294A2BA695179474
:1054B0000794202531254A2758F7660F771F881F44
:1054C00020F026173707480730F4620B730B840B64
:1054D000200D311D411DA09581F7B901842F9158F0
:1054E000880F9695879508950E94F728880B990B49
:1054F000089529F416F00C941B290C9465290C943A
:1055000021290E944B29A8F39638A0F707F80F929B
:10551000E8942BE33AEA48EB5FE70E9487290F9271
:105520000F920F924DB75EB70F920E94812BECEA5B
:10553000F0E00E94C82A4F915F91EF91FF91E595AD
:10554000EE1FFF1F49F0FE57E0684427EE0F441F8F
:10555000FA95E1F74195550B0E94FB2A0F9007FE43
:105560000C94EF2A08959F3F31F0915020F48795D5
:1055700077956795B795880F911D9695879597F9BB
:10558000089591505040660F771F881FD2F70895F5
:10559000DF93CF931F930F93FF92EF92DF927B01E4
:1055A0008C01689406C0DA2EEF010E948429FE0166
:1055B000E894A5912591359145915591A6F3EF0178
:1055C0000E94B827FE019701A801DA9469F7DF90DD
:1055D000EF90FF900F911F91CF91DF9108959B0164
:1055E000AC0160E070E080E89FE30C9412280C941A
:1055F0001B290C94B32A0E944B29D8F39923C9F391
:10560000940F511DA3F39150504094F059F088230A
:1056100032F0660F771F881F91505040C1F79E3FB0
:1056200051052CF7880F911D9695879597F9089548
:105630005F3FACF0983E9CF0BB27869577956795C9
:10564000B79508F4B1609395C1F7BB0F58F711F403
:1056500060FFE8CF6F5F7F4F8F4F9F4FE3CF0C947A
:10566000662916F00C94B32A0C94212968940C94A2
:105670001B290E944B29A8F39923C1F3AEF3DF93B2
:10568000CF931F930F93FF92C92FDD2788232AF012
:105690002197660F771F881FDAF720E030E040E897
:1056A0005FEB9FE3883920F0803E38F021968F77BA
:1056B0000E94A127E4EDF0E004C00E94A127E1E0F0
:1056C000F1E00E94C82A8B01BE01EC01FB2E6F574E
:1056D00071097595771F880B990B0E94BC2828E1EA
:1056E00032E741E35FE30E948429AF2D9801AE01C8
:1056F000FF900F911F91CF91DF910E94B8270C94DA
:105700003229FA01DC01AA0FBB1F9B01AC01BF5774
:1057100028F4222733274427507820C0B75190F42B
:10572000AB2F0024469537952795011CA395D2F3FE
:10573000002071F0220F331F441FB395DAF30ED00F
:105740000C94A02761307105A0E88A07B94630F4AF
:105750009B01AC016627772788279078309621F047
:1057600020833183428353830895DB018F939F937A
:105770000E945C27BF91AF91A29F800D911DA39FB6
:10578000900DB29F900D11240895991B79E004C0EB
:10579000991F961708F0961B881F7A95C9F7809570
:1057A0000895EE0FFF1F0590F491E02D0994F894F1
:0257B000FFCF29
:1057B200FFFFFFFF00E100000000000033338341E0
:1057C20000000045D401C901C301BB01B201A70118
:1057D200A10191018701760166015E01570148012D
:1057E2003A012E0100C18081000000F401E803FAB1
:1057F20000FA00FA00FA00FA00C80014020E0208C9
:10580200020202FB01F301EA01E301DD012E02289B
:10581200021F021902000000006207DD06A30798BA
:1058220007E907A707C50700000000AF098209DEE4
:105832000915067B09680959090D0A006E616E0097
:08584200696E66006F766600D6
:00000001FF
